:0B00F800FFFF4457494E5435026CD9FD
:0E3D0B007B0190C291E4F0A304F07F147E00CF
:103D190090C28CEEF0A3EFF0A3EBF0A3EAF0A3E9D5
:013D2900F0A9
:103D2A00E490C293F0A3F0A3F0A3F0A3F0A3F0A34E
:103D3A00F0A3F090C291E0FAA3E0FB4A7003023EBE
:103D4A00D890C28CE0FEA3E0FFC3E49FFFE49EFE8E
:103D5A00E4FCFD90C29B120A7FAF03AE02E4FCFDB5
:103D6A0090C29BE0F8A3E0F9A3E0FAA3E0FBC31238
:103D7A000A28501190C29BA3A3E0FFA3E090C2912E
:103D8A00CFF0A3EFF090C28CE0FCA3E0FDECC313EC
:103D9A00FFED1390C293CFF0A3EFF0ED5401FFA310
:103DAA00E4F0A3EFF0C2AFE4F5F190C293E0FCA314
:103DBA00E0FDECF5F28DF375F40175F8AF30FCFD1A
:103DCA0090C295E07002A3E0603DD2FE20FEFD9015
:103DDA00C28EE0FBA3E475F0011207A6A9F0FAE58A
:103DEA00FC12071790C28EE0FBA3E475F0011207DC
:103DFA00A6A9F0FAE5FD12071790C292E024FFF097
:103E0A0090C291E034FFF090C291E0FCA3E0FDEC97
:103E1A00C313FFED1390C297CFF0A3EFF0ED540157
:103E2A00FFA3E4F0A3EFF090C29774FFF5F0120736
:103E3A00A645F0605BD2FE20FEFD90C28EE0FBA399
:103E4A00E475F0011207A6A9F0FAE5FA120717902D
:103E5A00C28EE0FBA3E475F0011207A6A9F0FAE509
:103E6A00FB12071790C28EE0FBA3E475F00112075C
:103E7A00A6A9F0FAE5FC12071790C28EE0FBA3E4AC
:103E8A0075F0011207A6A9F0FAE5FD120717809747
:103E9A0090C299E07002A3E0602FD2FE20FEFD904E
:103EAA00C28EE0FBA3E475F0011207A6A9F0FAE5B9
:103EBA00FA12071790C28EE0FBA3E475F00112070D
:0E3ECA00A6A9F0FAE5FB120717E4F5F8D2AF4F
:013ED80022C7
:10628D0090C2EFEBF0A3EAF0A3E9F0AD07AC0690F6
:10629D00C2F274FFF5F01207A645F07003026343D6
:1062AD00E4F5F1ECC313FAED13FBEAF5F28BF3759C
:1062BD00F8AF30FCFDD2FE20FEFDE4F5F8ECC31383
:1062CD00FAED13FBEAF5F28BF375F88F30FCFDED6B
:1062DD0090C2EF30E029E0FBA3E475F0011207A6B0
:1062ED00A9F0FA1206D1F5FC90C2EFE0FBA3E4751C
:1062FD00F0011207A6A9F0FA1206D1F5FD8027E0EC
:10630D00FBA3E475F0011207A6A9F0FA1206D1F568
:10631D00FA90C2EFE0FBA3E475F0011207A6A9F015
:10632D00FA1206D1F5FB0DBD00010CD2FE20FEFDCB
:07633D00E4F5F802629C2266
:10793900C2AFC2D3C2D4E4F58E75C870F5CDF5CC0B
:1079490075CBBC75CACDD2ADD2C8F5937594017506
:10795900950275C960F5F875F901F5A8F5B8F59AB4
:07796900F5A9F5B9027A3C13
:107A3C007F007E80E4F538F5390FEFAC0670010E4F
:107A4C0014F5828C83E4F00539E53970020538B4FD
:077A5C0000E7E538B480E209
:017A63002200
:107B5D0090C4B1120A8B55AA5AA57B017AC479B18A
:107B6D0090C2F2E4F0A37402F07F047E0002628DF5
:047D26007FF47E0167
:107D2A00EF4E6010E4FD0DEDC3941840F9EF1F709B
:047D3A00EF1E80ECCC
:017D3E002222
:10731C0090C431745AF0A374A5F0A3EEF0A3EFF06F
:10732C00A3EBF0A3EDF090C430E0600A90C437E416
:10733C00F0A304F08007E490C437F0A3F07B017A4B
:10734C00C4793190C2F2E4F0A37404F07FB07E00F3
:10735C0012628D127D267B017AC4793190C291E440
:10736C00F0A304F07FB07E00123D1990C431E070A0
:01737C00E22E
:01737D0022ED
:0578FA0090C498EFF0BE
:1078FF007B017AC4799990C291E4F0A37402F07F6E
:10790F00A07E00123D1990C498E0A3F0A37401F07B
:10791F00E490C49CF07B017AC4799990C2F2F0A3F1
:0A792F007402F07FA07E0002628D5A
:1053CB0090C32DE0FB90C46EF090C32EE0FCA3E0E5
:1053DB00FDA3E0FEA3E0FF7810120A3990C46FEF33
:1053EB00F090C32EE0FCA3E0FDA3E0FEA3E0FF786A
:1053FB0008120A3990C470EFF090C32EA3A3A3E058
:10540B0090C471F090C332E0FCA3E0FDEC90C47249
:10541B00F0A3EDF090C334E0FCA3E0FDEC90C4747A
:10542B00F0A3EDF0EBB4A52890C336E0FBA3E0FAB4
:10543B00A3E04A4B601A90C332E0FEA3E0FF90C397
:10544B0036A3A3E0F990C2F2ECF0A3EDF012628D5B
:10545B007B017AC4796E90C2F2E4F0A37404F07FFE
:10546B00087E0012628D127D267B017AC4796E90C4
:10547B00C291E4F0A304F07F087E00123D1990C4A2
:10548B006EE070E290C32DE0B45A2F90C336E0FB70
:10549B00A3E0FAA3E04A4B602190C332E0FEA3E005
:1054AB00FF90C336A3A3E0F990C334E0FDA3E090D3
:1054BB00C291CDF0A3EDF0123D197F327E00027741
:0154CB00558B
:104E750090C439745AF090C31DE090C43AF06401AF
:104E8500706790C31EA3E090C43BF090C320E0FC84
:104E9500A3E0FDA3E0FEA3E0FF7810120A3990C459
:104EA5003CEFF090C320E0FCA3E0FDA3E0FEA3E00F
:104EB500FF7808120A3990C43DEFF090C320A3A3F0
:104EC500A3E090C43EF090C324E0FCA3E0FDEC9089
:104ED500C43FF0A3EDF090C326E0FCA3E0FDEC9009
:104EE500C441F0A3EDF0E4803B90C31DE064027083
:104EF50037A3E0FCA3E0FDEC90C43BF0A3EDF090FC
:104F0500C324E0FCA3E0FDEC90C43DF0A3EDF090DC
:104F1500C32BE0FCA3E0FDEC90C43FF0A3EDF0E46F
:104F2500A3F0A3F0A3F0A3F07B017AC4793990C272
:104F3500F2E4F0A37406F07FAA7E0012628D127D62
:104F4500267B017AC4793990C291E4F0A304F07FFD
:104F5500AA7E00123D1990C439E070E290C31DE0AD
:104F6500B4012F90C328E0FBA3E0FAA3E04A4B600D
:104F75002190C324E0FEA3E0FF90C328A3A3E0F99A
:104F850090C326E0FDA3E090C291CDF0A3EDF01211
:094F95003D197F327E00027755C0
:0F7E3C007AC479C5123D0B90C4C5E0FEA3E0FFE8
:017E4B002214
:086F300090C486EEF0A3EFF01F
:106F3800A3745AF0A37401F090C486E0FCA3E0FDAA
:106F4800EC90C48AF0A3EDF07B017AC4798890C2F2
:106F5800F2E4F0A37402F07F847E0012628D127D49
:106F6800267B017AC4798890C291E4F0A374021256
:106F78003D1490C486E0FEA3E0FFA3E0B506DFA3BE
:106F8800E0B507DAE490C488F0A3F0A3F0A3F07B9F
:106F9800017AC4798890C2F2F0A37402F07F167E59
:046FA8000002628DF4
:0877550090C28CEEF0A3EFF0EE
:10775D00E4A3F0A3F090C28CE0FEA3E0FFC390C2BF
:10776D008FE09F90C28EE09E5025E4FBFA7F017E54
:10777D0000127D2A0BBB00010ABA01F1BB2CEE9061
:0F778D00C28FE004F070CE90C28EE004F080C690
:01779C0022CA
:10779D00EF14601814602314602E240370397401E3
:1077AD00A805088002C333D8FC42B7227401A8058E
:1077BD00088002C333D8FC42BC227401A80508809E
:1077CD0002C333D8FC42BD22AF057401A80708805F
:0877DD0002C333D8FC42BE22B6
:10762800EF1460191460251460312403703D74014F
:10763800A805088002C333D8FCF452B7227401A805
:1076480005088002C333D8FCF452BC227401A80593
:10765800088002C333D8FCF452BD22AF057401A8D8
:0C76680007088002C333D8FCF452BE2295
:1069C200EF14602D14604A14606724036003026AA6
:1069D20054EB600E7401A805088002C333D8FC4250
:1069E20080227401A805088002C333D8FCF45280C7
:1069F20022EB600E7401A805088002C333D8FC4262
:106A020090227401A805088002C333D8FCF4529086
:106A120022EB600E7401A805088002C333D8FC4241
:106A2200A0227401A805088002C333D8FCF452A046
:106A320022EB600E7401A805088002C333D8FC4221
:106A4200B022AF057401A807088002C333D8FCF452
:036A520052B0221D
:10743E00EF14601A14602714603424037042740130
:10744E00A805088002C333D8FC5580FE8034740131
:10745E00A805088002C333D8FC5590FE8024740121
:10746E00A805088002C333D8FC55A0FE8014AF05D2
:10747E007401A807088002C333D8FC55B0FE800201
:04748E00E4FEAF0663
:0174920022D7
:105B58007B017AC4797690C291E4F0A37404F07F53
:105B6800167E00123D1990C476E0645A6003025C08
:105B78001DA3E0FFB40134A3E0FCA3E0FD90C33E05
:105B8800ECF0A3EDF090C344ECF0A3EDF090C47AF0
:105B9800E0FCA3E0FD90C342ECF0A3EDF090C369F4
:105BA800ECF0A3EDF0A37401F08030EFB40326907D
:105BB800C33CE0FFA3E090C369CFF0A3EFF090C32C
:105BC8003AE0FFA3E090C344CFF0A3EFF090C36B9B
:105BD8007402F0800690C36B7403F090C478E0FF01
:105BE800A3E090C33ACFF0A3EFF090C47AE0FFA30C
:105BF800E090C33CCFF0A3EFF0E490C476F07B01D3
:105C08007AC4797690C2F2F0A37402F07F167E000F
:105C180012628D801190C477E0FF64026003EF7018
:0B5C280005E490C36BF090C36BE0FF3D
:015C3300224E
:083B220090C445EEF0A3EFF0A2
:103B2A00125B5890C447EFF0700690C339F0FF2239
:103B3A0090C447E0B4010F7AC37940123D0B90C399
:103B4A00397401F0FF2290C340E0FEA3E0FF90C465
:103B5A0045E06E7003A3E06F60037F012290C33AD1
:103B6A00E0FEA3E0FFC390C33FE09FFF90C33EE0A7
:103B7A009E90C36CF0A3EFF090C36CE0FCA3E0FD51
:103B8A00FFAE04120729EE3395E0FDFC90C44812FB
:103B9A000A7F90C33CE0FEA3E0FFC390C343E09FCB
:103BAA00FF90C342E09E90C36EF0A3EFF090C36E05
:103BBA00E0FCA3E0FDFFAE04120729EE3395E0FD19
:103BCA00FC90C44C120A7F90C447E064027079905A
:103BDA00C339E06401706B7F09FEFDFC90C44CE0C0
:103BEA00F8A3E0F9A3E0FAA3E0FBC3120A28501AEB
:103BFA00E47F09FEFDFC90C448E0F8A3E0F9A3E0E5
:103C0A00FAA3E0FBC3120A284038E47F02FEFDFC57
:103C1A0090C44CE0F8A3E0F9A3E0FAA3E0FB120891
:103C2A00F090C448E0F8A3E0F9A3E0FAA3E0FBD3DC
:103C3A00120A2890C33950057403F0FF227404F065
:103C4A00FF2290C339E0FF2290C339E06401706E0D
:103C5A007F09FEFDFC90C44CE0F8A3E0F9A3E0FA6A
:103C6A00A3E0FBC3120A28501AE47F09FEFDFC9068
:103C7A00C448E0F8A3E0F9A3E0FAA3E0FBC3120A00
:103C8A00284038E47F02FEFDFC90C44CE0F8A3E033
:103C9A00F9A3E0FAA3E0FB1208F090C448E0F8A305
:103CAA00E0F9A3E0FAA3E0FBD3120A2890C3395043
:103CBA00057403F080087404F080037F022290C325
:103CCA0039E0B4031E90C33CE0FEA3E0FFC390C3F7
:103CDA006AE09FFF90C369E09E90C372F0A3EFF081
:103CEA007F052290C33AE0FEA3E0FFC390C345E0FC
:103CFA009FFF90C344E09E90C370F0A3EFF07F064D
:013D0A002296
:0479DB00021800008E
:107C5C00E4F51D758911F58CF58AC28CF51AF51CA5
:0E7C6C00438901758CBC758ACDD2A9D28C22B9
:03000B000270255B
:0D702500C0E0C0D075D000C000C006C0079C
:10703200C2AFE51D6002151D758CBC758ACD051B9E
:1070420075370074017E00A837088005C333CE333C
:10705200CED8F9FFEF551C602DE53725E02408F85E
:1070620008E61618700116E53725E02408F8E6FE52
:1070720008E64E7011AF3704A807088002C333D860
:0F708200FC421AF4521C0537E537B408B6D2AFFA
:0B709100D007D006D000D0D0D0E032F5
:03002B00027DCA89
:107DCA00C0E0C2AFC2C6D2AF0519E51970020518E4
:037DDA00D0E032C4
:107AD700C2AF7401A807088002C333D8FCFE421C5A
:107AE700EF25E02408F8A60408A605EEF4521AD2FA
:027AF700AF22BC
:107DA000C2AF7401A807088002C333D8FCF4521C88
:057DB000521AD2AF22BF
:107DDD00C2AF7401A807088002C333D8FC551AFF3F
:027DED00D2AF13
:017DEF002271
:0B7CD400D2B37F05127CDFD2B27F0527
:107CDF00EF600EE4FE0EC3EE648094B240F71F8097
:017CEF00EFA5
:017CF0002271
:047E900053BEF722C4
:047E940043BE0822BF
:107D0C00127E94D2B3D2B27F0F127CDFC2B37F0F3C
:0A7D1C00127CDFC2B27F0F027CDF91
:0A7B7D007F0F127980AF03127980A8
:107B8700127E94C2B3D2B27F0F127CDFD2B37F0FC3
:067B9700127CDF027E906B
:0F7E4C00127E94C2B3127CD6C2B27F05027CDFD5
:0D7E7900127E94127CD4C2B27F05027CDF21
:107C3D00127E90127CD4E4FD30B30A7F05127CDFF6
:0F7C4D000DEDB432F3C2B27F05127CDF027E94DC
:10797000127980E0FF127980127B87127D0C7F6480
:02798000AD0751
:10798200127E94E4FCED30E704D2B38002C2B3ED80
:1079920025E0FD127CD6C2B27F05127CDF0CECB46E
:0579A20008E3027C3D3A
:0D79A7007F0F127980127D0C7F65127980B0
:1079B400127E90E4FC127CD6ED25E0FD30B3054444
:1079C40001FD8004ED54FEFDC2B27F05127CDF0C84
:0679D400ECB408E1AF0570
:0179DA00228A
:1063440012797B1279A7AB07127E4C1279B4AA0793
:10635400127E79127B87EB20E0030263F25484609F
:106364000AEB547BFB12797B127B7DEB54FEFBEA38
:1063740030E713547FFA12797B7F10127980AF02D1
:10638400127980127B87EA4480FA12797B7F10129B
:106394007980AF02127980127B87EB4484FB1279F7
:1063A4007B7F0F127980AF03127975E4FF12798035
:1063B400E4FF127980E4FF1279807F801279807F74
:1063C400051279807F011279807F011279807F2103
:1063D400127980127B87EB547BFBEA547FFA1279A3
:0E63E4007B7F10127980AF02127975127B7DDB
:0163F2002288
:1065FE0012797B1279A790C4C7EFF0127E4C1279F4
:10660E00B4A3EFF0127E79127B87E04480F012790A
:10661E007B7F10127980E0FF127980127B8790C405
:10662E00C7E04484F012797B7F0F127970E4FF1279
:10663E0079809000061206EAFF127980900005120A
:10664E0006EAFF1279809000041206EAFF127980A2
:10665E009000031206EAFF1279809000021206EAF9
:10666E00FF1279809000011206EAFF12798012065D
:10667E00D1FF127980127B8790C4C7E0547BF0A3C0
:10668E00E0547FF012797B7F101279707F0F1279B0
:0C669E008090C4C7E0FF127980027B8767
:1061D00012797BE4FF127980127D0C7F6512798041
:1061E0007B061279B474502BF582E434C4F583EF46
:1061F000F0127E4CDBEC1279B490C450EFF0127EBA
:1062000079127B8790C454E0547FF0E4FB74502BE8
:10621000F582E434C4F583E0FFC4540FFE90C45803
:10622000F0EF540FFFA3F0EE75F00AA42FFF7450A7
:106230002BF582E434C4F583EFF00BEBB403CE7B93
:106240000474502BF582E434C4F583E0FFC4540F8A
:10625000FE90C458F0EF540FFFA3F0EE75F00AA4BF
:106260002FFF74502BF582E434C4F583EFF00BEB71
:10627000B407CEE490C457F07B017AC4795090C241
:0D628000F2F0A37404F07F107E0002628D26
:107DF000EF75F00A84C454F0FEEF75F00A84E5F0E4
:037E00004EFF2210
:0F7E5B00EFC4540F75F00AA4FEEF540F2EFF2250
:076AE60090C49DEBF0AB072B
:106AED00ED64016004EDB4021BED240CFEE4339063
:106AFD00C49EF0A3CEF0EB24FFFEE434FFA3F0A37D
:106B0D00CEF08012AF0590C49EE4F0A3EFF0AF037A
:106B1D00A3E4F0A3EFF090C49FE02401FF90C49E86
:106B2D00E03400FE7C007D1A1207297D0A12073B16
:106B3D00AC06AD0790C4A0E0FAA3E0FBAE0278026C
:106B4D00CEC313CE13D8F92BFFEA3ECF2DCF3CFE8B
:106B5D0090C49DE07C002FFFEC3ECF24DCCF34FFB2
:086B6D00FE7D0712073BAF0596
:016B750022FD
:1063F3007B017AC4790D90C291E4F0A37404F07F19
:106403009C7E00123D1990C40DE0645A600302643F
:10641300A1A3E064A560030264A1A3E0FF127DF0E1
:1064230090C415EFF090C410E0FF127DF090C416F5
:10643300EFF090C411E0FF127DF090C417EFF090DD
:10644300C40FE0FFA3E0FDA3E0FB126AE690C418CB
:10645300EFF090C412E0FF127DF090C419EFF04406
:1064630080F090C413E0FF127DF090C41AEFF09017
:10647300C414E0FF127DF090C41BEFF07B017AC4DB
:1064830079151265FEE490C40DF0A3F07AC4790D7A
:0E64930090C2F2F0A304F07F9C7E0012628D96
:0164A10022D8
:107D3F007D027F0312779D7D037F0312779D126172
:097D4F00D0E4F518F5190263F304
:1075DA00AB07AA06A905A8047F007E387D317C0086
:1075EA0012097BC3E49F90C266F074049E90C26540
:1075FA00F043C9407D04E4FF12779D7D05E4FF1244
:10760A00762843803075D88075985090C265E0FC22
:0D761A00A3E0FDECF5BA8DAA43A810D2AC98
:017627002240
:10770C00AB07AA06A905A8047F007E707D627C00E9
:10771C0012097BC3E49F90C266F074049E90C2650C
:10772C00F043C9207D06E4FF12779D7D07E4FF122C
:10773C0076284380C0759B9090C265E0FCA3E0FD69
:08774C00ECF5BB8D9D439A0191
:017754002212
:107A6400759680759780AB07AA06A905A8047F00C0
:107A74007EC07D897C0112097BAD07AC06ECF5D98B
:077A8400AF058FE743B80CCA
:017A8B0022D8
:1078B90075A78075AB80AB07AA06A905A8047F0048
:1078C9007EC07D897C0112097BAD07AC06ECF5AE63
:1078D900AF058FAF43B830E490A01BF0A3F0A3F03D
:1078E900A3F090A023F090A01FF0A3F0A3F0A3F0C1
:0178F900226C
:10749300EF14601B1460291460372403704490C2F6
:1074A30061E0FCA3E0FDA3E0FEA3E0FF0275DA9038
:1074B300C261E0FCA3E0FDA3E0FEA3E0FF02770CC2
:1074C30090C261E0FCA3E0FDA3E0FEA3E0FF027A2B
:1074D3006490C261E0FCA3E0FDA3E0FEA3E0FF1221
:0374E30078B92253
:1042490090C266EFF0A3ECF0A3EDF0A3EBF0A3EAC4
:04425900F0A3E9F0F5
:10425D00C2AFE4A3F0A3F090C267E0FEA3E0FFC3FA
:10426D0090C26DE09F90C26CE09E4003024321908E
:10427D00C269E0FBA3E475F0011207A6A9F0FA12DA
:10428D0006D1FF90C266E0FE75F009A42400F58208
:10429D00E5F03488F583EE75F008A42583F583E009
:1042AD00FCA3E0FD75F009EEA42400F582E5F034E1
:1042BD0080F583EE75F008A42583F583E5822DF551
:1042CD0082E5833CF583EFF075F009EEA42400F54B
:1042DD0082E5F03488F583EE75F008A42583F58327
:1042ED00E475F00112079075F009EEA42400F58233
:1042FD00E5F03488F583EE75F008A42583F583E0A9
:10430D005403F090C26DE004F0700690C26CE004AE
:10431D00F002426490C266E0146042146070147042
:10432D00030243C9240360030243F9908808E06047
:10433D00030243F904F0908802E0FEA3E02400F5A7
:10434D008274803EF583E0F599908803E004F07067
:10435D0006908802E004F09088020243F5909011D7
:10436D00E060030243F904F090900BE0FEA3E0241B
:10437D0009F58274883EF583E0F59C90900CE0047D
:10438D00F0700690900BE004F090900B805A90988E
:10439D001AE0705804F0909814E0FEA3E02412F592
:1043AD008274903EF583E0F59E909815E004F070D0
:1043BD0006909814E004F0909814802C90A023E0BF
:1043CD00702A04F090A01DE0FEA3E0241BF582747A
:1043DD00983EF583E0F5AC90A01EE004F0700690D9
:0E43ED00A01DE004F090A01DE05403F0D2AF3C
:0143FB00229F
:03002300026B76F7
:106B7600C0E0C083C082C0D075D000C006C007C2C6
:106B8600AF30982AC298908804E0FEA3E02400F56E
:106B96008274843EF583E599F0908805E004F070F0
:106BA60006908804E004F0908804E05403F03099DD
:106BB6003FC299908802E0FEA3E0FF908800E06E55
:106BC6007003A3E06F602474002FF58274803EF595
:106BD60083E0F599908803E004F07006908802E05F
:106BE60004F0908802E05403F08005908808E4F0F1
:0F6BF600D2AFD007D006D0D0D082D083D0E0323B
:0300530002737EB7
:10737E00C0E0C083C082C0D075D000C006C007C2B6
:10738E00AF5396FE909814E0FEA3E0FF909812E0A3
:10739E006E7003A3E06F602474122FF58274903E1A
:1073AE00F583E0F59E909815E004F0700690981421
:1073BE00E004F0909814E05403F0800590981AE4DD
:1073CE00F0D2AFD007D006D0D0D082D083D0E0326A
:03005B000277E544
:1077E500C0E0C083C082C0D075D000C006C2AF5310
:1077F50097FE909816E0FEA3E02412F58274943E5D
:10780500F583E59FF0909817E004F07006909816C0
:10781500E004F0909816E05403F0D2AFD006D0D033
:07782500D082D083D0E032D5
:030063000273DE47
:1073DE00C0E0C083C082C0D075D000C006C007C256
:1073EE00AF53A7FE90A01DE0FEA3E0FF90A01BE010
:1073FE006E7003A3E06F6024741B2FF58274983EA9
:10740E00F583E0F5AC90A01EE004F0700690A01D90
:10741E00E004F090A01DE05403F0800590A023E45A
:10742E00F0D2AFD007D006D0D0D082D083D0E03209
:03006B0002782CEC
:10782C00C0E0C083C082C0D075D000C006C2AF53C8
:10783C00ABFE90A01FE0FEA3E0241BF582749C3EDF
:10784C00F583E5ADF090A020E004F0700690A01F49
:10785C00E004F090A01FE05403F0D2AFD006D0D0DB
:07786C00D082D083D0E0328E
:030083000267FB16
:1067FB00C0E0C083C082C0D075D000C006C007C245
:10680B00AFE59B30E02E759B90539BFE90900DE077
:10681B00FEA3E02409F582748C3EF583E59CF09091
:10682B00900EE004F0700690900DE004F090900D47
:10683B00E05403F0E59B30E143759B90539BFD9037
:10684B00900BE0FEA3E0FF909009E06E7003A3E0D5
:10685B006F602474092FF58274883EF583E0F59CF4
:10686B0090900CE004F0700690900BE004F0909088
:10687B000BE05403F08005909011E4F0D2AFD007F9
:0B688B00D006D0D0D082D083D0E03205
:106A550090C4B9EBF0A3EAF0A3E9F07D02E4FF12DC
:106A6500779D7D03E4FF1276287B017D02E4FF120A
:106A750069C243C98075F1FFE4F5F275F36075F4F9
:106A85000175F88F30FCFD90C4B9E0FBA3E0FAA3D3
:106A9500E0F91206D1F5FA9000011206EAF5FB902D
:106AA50000021206EAF5FC9000031206EAF5FDD293
:106AB500FE20FEFDE4F5FAF5FBF5FCF5FDD2FE2022
:106AC500FEFD75FAFF75FBFF75FCFF75FDFFD2FE38
:106AD50020FEFDE4F5F8758FA0E58F20E5FBD2B922
:016AE500228E
:107CF100E5E830E51553E8DF438F407FE87E031266
:0B7D01007D2A538FBFE490BA28F022C7
:1043FC0075F1FFE4F5F275F36475F40175F88F301F
:10440C00FCFD90BA27E075F00DA42424F582E5F0AC
:10441C0034ADF583E0F5FAE4F5FBF5FCF5FDD2FEE1
:10442C0020FEFD90BA27E0FB75F00DA42425F58243
:10443C00E5F034ADF583E0FCA3E0FDA3E0FEA3E0E2
:10444C00FF7818120A398FFA75F00DEBA42425F5B4
:10445C0082E5F034ADF583E0FCA3E0FDA3E0FEA320
:10446C00E0FF7810120A398FFB90BA27E0FB75F049
:10447C000DA42425F582E5F034ADF583E0FCA3E032
:10448C00FDA3E0FEA3E0FF7808120A398FFC75F05B
:10449C000DEBA42425F582E5F034ADF583A3A3A39D
:1044AC00E0F5FDD2FE20FEFD90BA27E0FF75F00D81
:1044BC00A42429F582E5F034ADF583E0F5FA75F026
:1044CC000DEFA4242AF582E5F034ADF583E0F5FB7D
:1044DC0090BA27E0FF75F00DA4242BF582E5F0349B
:1044EC00ADF583E0F5FC75F00DEFA4242CF582E519
:1044FC00F034ADF583E0F5FDD2FE20FEFD90BA2739
:10450C00E0FF75F00DA4242DF582E5F034ADF583B4
:10451C00E0F5FA75F00DEFA4242EF582E5F034AD3C
:10452C00F583E0F5FB90BA27E0FF75F00DA4242F7E
:10453C00F582E5F034ADF583E0F5FC75F00DEFA4F4
:10454C002430F582E5F034ADF583E0F5FDD2FE20A4
:0C455C00FEFD90BA27E004F0E4F5F82220
:0634050090C3F6120A7FDD
:10340B00D390C3FCE0940090C3FBE094084003020C
:10341B00367B90C3FAE0FB90C3F630E70FE0FCA3DA
:10342B00E0FDA3E0FEA3E0FF7803800DE0FCA3E04A
:10343B00FDA3E0FEA3E0FF7815120A4C90C4051221
:10344B000A7F90BA26E0FA75F00DA42424F582E5E4
:10345B00F034ADF583E030E63890C405E0FCA3E032
:10346B00FDA3E0FEA3E0FF75F00DEAA42425F58291
:10347B00E5F034ADF583120A7FEB54C0FF75F00D08
:10348B00EAA42424F582E5F034ADF583EFF002369F
:10349B005F90C3FBE0FCA3E0FDAE047803CEC31347
:1034AB00CE13D8F990C403F0ED5407A3F0E490C405
:1034BB0002F090C3FAE054C0FFE4FCFDFE90C40997
:1034CB00120A7FE490C400F090C403E0FF90C400A4
:1034DB00E0C39F400302358A90C405E0FCA3E0FDE6
:1034EB00A3E0FEA3E0FF90BA26E0FB75F00DA42449
:1034FB0025F582E5F034ADF583120A7F90C409E01F
:10350B00FCA3E0FDA3E0FEA3E04408FF75F00DEB88
:10351B00A42424F582E5F034ADF583EFF0E490C4F8
:10352B0001F090C401E0FFC39408504490C3FDE048
:10353B00FBA3E0FAA3E0F990C402E0F582758300E7
:10354B001206EAFE90BA26E075F00DA42429F58246
:10355B00E5F034ADF583E5822FF582E43583F58311
:10356B00EEF090C402E004F090C401E004F080B2ED
:10357B0090BA26E004F090C400E004F00234D3903B
:10358B00C404E0FB7003023665A3E0FCA3E0FDA3DB
:10359B00E0FEA3E0FF90BA26E075F00DA42425F51C
:1035AB0082E5F034ADF583120A7FAF0390C409A313
:1035BB00E0F9A3E0FAA3E04FFF90BA26E075F00D17
:1035CB00A42424F582E5F034ADF583EFF0E490C448
:1035DB0001F090C404E0FF90C401E0FEC39F50448F
:1035EB0090C3FDE0FBA3E0FAA3E0F990C402E0F581
:1035FB00827583001206EAFF90BA26E075F00DA4DF
:10360B002429F582E5F034ADF583E5822EF582E4CD
:10361B003583F583EFF090C402E004F090C401E031
:10362B0004F080AE90C401E0FFC39408502690BA1A
:10363B0026E075F00DA42429F582E5F034ADF58371
:10364B00E5822FF582E43583F583E4F090C401E045
:10365B0004F080D090BA26E004F090BA28E0701005
:10366B00C2AF1243FCD2AF90BA287401F0438F045F
:01367B00222C
:03004B00022D6122
:102D6100C0E0C0F0C083C082C0D075D000C000C038
:0D2D710001C002C003C004C005C006C007B9
:102D7E00C2AFE59130E70353913FE59120E60302A0
:102D8E0030615391BF75F1FF75F20075F36875F4FC
:102D9E000175F8AF30FCFDD2FE20FEFD90C257E566
:102DAE00FAF0E0FF90BA24E075F00DA42424F58229
:102DBE00E5F034A0F583EFF0D2FE20FEFD90BA24AC
:102DCE00E075F00DA42425F582E5F034A0F583C05E
:102DDE0083C082E0FCA3E0FDA3E0FEA3E0FF780841
:102DEE00120A4CD082D083120A7F90BA24E075F07A
:102DFE000DA42425F582E5F034A0F583C083C082AE
:102E0E00E0F8A3E0F9A3E0FAA3E0FBAFFAEB4FFF83
:102E1E00EAFEE9FDE8FCD082D083120A7F90BA2444
:102E2E00E075F00DA42425F582E5F034A0F583C0FD
:102E3E0083C082E0FCA3E0FDA3E0FEA3E0FF7808E0
:102E4E00120A4CD082D083120A7F90BA24E075F019
:102E5E000DA42425F582E5F034A0F583C083C0824D
:102E6E00E0F8A3E0F9A3E0FAA3E0FBAFFBEB4FFF22
:102E7E00EAFEE9FDE8FCD082D083120A7F90BA24E4
:102E8E00E075F00DA42425F582E5F034A0F583C09D
:102E9E0083C082E0FCA3E0FDA3E0FEA3E0FF780880
:102EAE00120A4CD082D083120A7F90BA24E075F0B9
:102EBE000DA42425F582E5F034A0F583C083C082ED
:102ECE00E0F8A3E0F9A3E0FAA3E0FBAFFCEB4FFFC1
:102EDE00EAFEE9FDE8FCD082D083120A7F90BA2484
:102EEE00E075F00DA42425F582E5F034A0F583C03D
:102EFE0083C082E0FCA3E0FDA3E0FEA3E0FF780820
:102F0E00120A4CD082D083120A7F90BA24E075F058
:102F1E000DA42425F582E5F034A0F583C083C0828C
:102F2E00E0F8A3E0F9A3E0FAA3E0FBAFFDEB4FFF5F
:102F3E00EAFEE9FDE8FCD082D083120A7F90BA2423
:102F4E00E075F00DA42425F582E5F034A0F583C0DC
:102F5E0083C082E0FCA3E0FDA3E0FEA3E0FF7803C4
:102F6E00120A39D082D083120A7F90C257E020E72E
:102F7E002D90BA24E075F00DA42425F582E5F034E9
:102F8E00A0F583C083C082E0FCA3E0FDA3E0FEA316
:102F9E00E0FF7812120A39D082D083120A7F90C2D3
:102FAE0057E030E603023058D2FE20FEFD90BA24E0
:102FBE00E0FF75F00DA42429F582E5F034A0F58329
:102FCE00E5FAF075F00DEFA4242AF582E5F034A0B1
:102FDE00F583E5FBF075F00DEFA4242BF582E5F0FB
:102FEE0034A0F583E5FCF075F00DEFA4242CF582EA
:102FFE00E5F034A0F583E5FDF0D2FE20FEFD90BA9B
:10300E0024E0FF75F00DA4242DF582E5F034A0F533
:10301E0083E5FAF075F00DEFA4242EF582E5F03479
:10302E00A0F583E5FBF075F00DEFA4242FF582E5F6
:10303E00F034A0F583E5FCF075F00DEFA42430F527
:10304E0082E5F034A0F583E5FDF075F80090BA2422
:10305E00E004F0E59130E51A5391DF90BA26E0FFD7
:10306E00A3E06F60081243FC438F04800590BA28DA
:10307E00E4F0E59130E4035391EFE59130E303532F
:10308E0091F7E59130E2065391FB438F0475E8000A
:02309E00D2AFAF
:1030A000D007D006D005D004D003D002D001D00084
:0B30B000D0D0D082D083D0F0D0E0322E
:103ED90049444C450072657175657374696E672F45
:103EE900726563656976696E6720706172616D6577
:103EF900746572730067617320666C6F7720626501
:103F0900666F72652077656C64696E670069676EB4
:103F19006974696F6E006E6F2063757272656E7475
:103F290020286E6F742069676E6974656429006E54
:103F39006F2063757272656E742061667465722094
:103F490069676E6974696F6E20287768656E20638A
:103F59006865636B696E67290069676E6974696F63
:103F69006E2070756C73650070756C73652074696B
:103F79006D6520697320696E636F72726563740081
:103F8900696E697469616C2063757272656E74001B
:103F9900696E6372656173650077656C64696E67E4
:103FA90000646563726561736500656E642049002C
:103FB900636C65616E696E672074686520656C6500
:103FC9006374726F64650067617320666C6F772034
:103FD90061742074686520656E640077616974692D
:103FE9006E6720666F72207468652072656C656102
:103FF9007365206F662074686520627574746F6ECE
:10400900206F6E2074686520746F72636800256480
:104019000D0A25730A0D25642025642025642025B1
:10402900640A0D2564410A0D252E3166560A0D25AF
:104039002E3166730A0D676F6F643A2025640A0D85
:104049006261643A20202564002564410D0A002537
:104059002E3166760005000320FF3ED9FF3EDEFFC4
:104069003EFEFF3F16FF3F1FFF3F38FF3F62FF3F06
:1040790071FF3F89FF3F99FF3FA2FF3FAAFF3FB36F
:09408900FF3FB9FF3FD0FF3FE407
:0A7E860075F90175BCFD7590FD2231
:0300030002725036
:10725000C0E0C0F0C083C082C0D075D000C000C004
:1072600001C002C003C004C005C006C0077F587E2D
:1072700002127D2AE5B030E0F4E5B020E112E51D10
:10728000D394504005752E018003752E00751D6442
:107290007F017E00127755C289C28BD007D006D0FD
:1072A00005D004D003D002D001D000D0D0D082D0FD
:0672B00083D0F0D0E032B3
:030013000272B6C0
:1072B600C0E0C0F0C083C082C0D075D000C000C09E
:1072C60001C002C003C004C005C006C0077F587EC7
:1072D60002127D2AE5B030E1F4E5B020E012E51DAA
:1072E600D394504005752E038003752E02751D64D8
:1072F6007F017E00127755C289C28BD007D006D097
:1073060005D004D003D002D001D000D0D0D082D096
:0673160083D0F0D0E0324C
:105C34007E007F647D007B017AC17925120B64901C
:105C4400C2F074FFF0A37440F0A37417F0A3E52826
:105C5400F0A3E529F0E53E75F003A42462F582E49F
:105C64003440F583E493F9740193FA74029390C277
:105C7400F5C9F0A3EAF0A3E9F0A3E533F0A3E53412
:105C8400F0A3E535F0A3E536F0A3E522F0A3E52380
:105C9400F0A3E52CF0A3E52DF0A3E526F0A3E5277A
:105CA400F0AC2AAD2BE41201A8E4FBFA7920784188
:105CB40012010690C302120A7FAC24AD25E412013E
:105CC400A8E4FBFA7920784112010690C306120A6F
:105CD4007F90C30AE531F0A3E532F0A3E52FF0A3EA
:105CE400E530F07B017AC179251229437B017AC121
:105CF400792590C2F2E4F0A37432F07F007E25028D
:025D0400628DAE
:1054CC007B007A00793890C291E4F0A37403F07FEA
:1054DC00167E00123D19E538645A60030255C6F574
:1054EC0038FB7A00793A90C2F2F0A304F07F167E72
:1054FC000012628D853A33853B34853C35853D36CB
:0E550C00752200853923E5391460030255C667
:10551A00E490C260F090BB10E0FF90C260E0FEC36E
:10552A009F507C75F009EEA42468F582E5F034BB3F
:10553A00F583E0FEA3E0D3953BEE953A505890C22E
:10554A0060E0FF75F009A4246CF582E5F034BBF540
:10555A0083E0FCA3E0C3953BEC953A403975F0092A
:10556A00EFA4246AF582E5F034BBF583E0FEA3E0FC
:10557A00D3953DEE953C501E90C260E075F009A4AB
:10558A00246EF582E5F034BBF583E0FEA3E0C39513
:10559A003DEE953C500990C260E004F002551F9020
:1055AA00C260E0FF90BB0DA3E0FAA3E0F5828A8314
:0C55BA00120B6290C260E0752C00F52D11
:0155C60022C2
:1023F60090A023E060030228DD90A01FE0FEA3E08A
:10240600FFA3E0FCA3E0FD6F7002EC6E70030228F0
:01241600DDE8
:10241700741B2DF582749C3CF583E090C260F090AC
:10242700A022E004F0700690A021E004F090A02123
:10243700E05403F090C253E014602824FD60362472
:10244700FE605724FC70030225181470030225450B
:10245700240B70A490C260E0B4A59D90C253740190
:10246700F0809590C260E0B4A50890C2537404F060
:1024770080860228C990C260E0FFB4A50590C18993
:102487008007EFB45A0690C18A7401F090C256EFE4
:10249700F090C2537406F00223FF90C260E0FFB4CD
:1024A700A51790C189E0B4010890C2537404F08065
:1024B7000D90C1897401F08005E490C189F0EFB4F3
:1024C7005A1290C18AE0B401030228C990C18A74E4
:1024D70001F08005E490C18AF090C260E0FF90C2ED
:1024E70055E0248BF582E434C1F583EFF090C255B3
:1024F700E004F0A3E02402FFE433FE90C255E06F4E
:102507007001EE60030223FF90C253740AF00223A6
:10251700FF90C260E0FFB45A0990C253740BF002F7
:1025270023FFEFB4A50D90C2537401F0E490C25598
:0E2537000228D1E490C255F090C2530228D180
:10254500E490C262F090C260E0FF645A601BEFB491
:10255500A50C90C2537401F0E490C2558008E49034
:10256500C255F090C2530228D190C2617401F09017
:10257500C256E0FF90C261E0FED39F501A748B2EC5
:10258500F582E434C1F583E0FE90C262E02EF0905E
:10259500C261E004F080D8748C2FF582E434C1F573
:1025A50083E0FF90C262E06F601CE490C255F0903A
:1025B500C253F090C18AF090C189F00530E53070C2
:1025C50002052F0223FF0532E5327002053190C165
:1025D5008CE024DA700302266624F3700302280DCA
:0E25E50024F67003022838241860030228C967
:1025F30090C18DE090C263F0D3942440030228C9B4
:1026030090C1EF74A5F0A3F0A37404F0A374A5F034
:10261300A37425F090C263E090C1F4F075F002A4B6
:1026230024C3F582E5F034BDF583E0FCA3E090C15B
:10263300F5F0ECFFA3EFF090C1F4E0FE90C1F3E0FE
:102643002EFE90C1F5E02E2F90C1F7F090C1F974E2
:102653005AF090C1F8F07B017AC179EF7D0B7C00D1
:0326630002280545
:1026660090C18DE090C263F0D3942440030228C940
:1026760090C1F074A5F090C1EFF090C263E0FD2523
:10268600E0240490C1F1F0A374A6F0A37426F0A38D
:10269600EDF090C1F3E02D90C265F0E490C264F0D5
:1026A60090C263E0FFA3E0FEC39F40030227BEEE95
:1026B6006417600302274890BDF1F0A3F090BDE7D0
:1026C600E07004A3E06402700790BDF2E04401F0FC
:1026D60090BDEBE07004A3E06402700790BDF2E0E9
:1026E6004402F090BDE5E07004A3E0640270079038
:1026F600BDF2E04404F090BE09E07004A3E0640279
:10270600700790BDF2E04408F090BDE9E07004A3C4
:10271600E06402700790BDF2E04410F090BDE3E083
:102726007004A3E06402700790BDF2E04440F090AC
:10273600BDFBE07004A3E06402700790BDF2E044C4
:1027460080F090C264E0FF75F002A424C3F582E530
:10275600F034BDF583A3E0FEEF25E0FD2406FC245E
:10276600EFF582E434C1F583EEF090C264E075F0D3
:1027760002A424C3F582E5F034BDF583E0FFED2421
:1027860007FE24EFF582E434C1F583EFF074EF2CF5
:10279600F582E434C1F583E0FF90C265E02FFF7453
:1027A600EF2EF582E434C1F583E02F90C265F090F8
:1027B600C264E004F00226A690C265E0FF90C264FF
:1027C600E0FE25E0FD240824EFF582E434C1F5831C
:1027D600EFF0ED240A24EFF582E434C1F583745A50
:1027E600F0EE25E0FF240924EFF582E434C1F583F9
:1027F600745AF0EF240BFD7C007B017AC179EF7FE0
:04280600031242492E
:03280A000228C9D8
:10280D0090C18DE090C263F064586016E0FF644E95
:10281D0060108F3EE53E640860030228C9120BD993
:08282D008056E4F53E120BD9C0
:032835000228C9AD
:1028380090C18FE0FE90C18EE07C002400FFEC3E4A
:1028480090C263F0A3EFF090C18DE0FFB4400C900C
:10285800C263E0F526A3E0F527801EEFB4410C9093
:10286800C263E0F52AA3E0F52B800EEFB4420A908C
:10287800C263E0F524A3E0F525E53E60447BFF7ADA
:1028880040795290BA9FE0FCA3E0FD90C2B9E526DA
:10289800F0A3E527F012692EAC2AAD2BE41201A8AB
:1028A800E4FBFA7920784112010690C2B9120A7F36
:1028B80090BAA3E0FCA3E0FD7BFF7A407958126947
:0128C8002EE1
:1028C900E490C255F090C253F090C18AF090C1894A
:0428D900F00223FFE7
:0128DD0022D8
:106C0500127939127C5CC2AF53A9FE53B9FEC28911
:106C1500D288D2A8C28BD28AD2AAD2AF127E8612CD
:106C25005A7A90C261120A8B0001C2007F03127466
:106C350093E490C255F090C253F090C18AF090C190
:106C450089F01230BB120BD97DBC7C02E4FF127AAD
:106C5500D70529E52970020528E4FF127DDDEF300F
:106C6500E0117DBC7C02E4FF127AD7125C34E4F5B6
:106C750028F529C2AFE52E64046008AF2E127E16F2
:0D6C8500752E04D2AF1223F61254CC80C439
:037E9C00FF7E9FC7
:017E9F0022C0
:10711100C2AFE4F5F1F5F275F30A75F40175F8AF54
:1071210030FCFDD2FE20FEFDAFFA90C4C9E4F0A30D
:10713100EFF0E07F00FE90C4C9F0A3EFF0ADFBEDEE
:10714100FF90C4C9EEF0A3EFF0E4F5F8D2AF90C41C
:10715100C9E0FEA3E0FF907E9C75F003120ABCEE2D
:1071610075F003A42583F583E493FB740193FA740A
:0D7171000293F94A600789828A83120B623B
:01717E0022EE
:047E98000F40720025
:106DA90078B57CC47D017BFF7A7E79987E007F046B
:106DB9001206AB90C261120A8B0001C200E4FF12F5
:106DC90074937B017AC479B5126A5590BE0B74012C
:106DD900F0A37484F0A37400F0A37401F0A3748881
:106DE900F0A37404F0A37401F0A37488F0A37406EB
:106DF900F0A37404F0A3E4F07B01A304F0A374BE30
:106E0900F0A37421F0A3EBF0A374BFF0A37421F0F5
:106E1900A3EBF0A374BFF0A37423F0A37401F0A350
:026E2900E4F093
:016E2B002244
:106E2C007B017ABF792590C291E4F0A37402F07FC4
:106E3C00007E0F123D1990BF25E0645A7062F07B02
:106E4C00017ABF792590C2F2F0A37402F07F007E24
:106E5C000F12628D90BF28E0FDC394C840027D6480
:106E6C0090BF26E0FEA3E0FBAA0690BF25745AF063
:106E7C00A374A5F0ED25E02404A3F0A37483F0EA39
:106E8C00A3F0A3EBF0A3EDF0AE02AF037B017ABF4E
:106E9C00792C90C291E4F0A3EDF0123D197F012200
:026EAC007F0065
:016EAE0022C1
:0B1EBA0090C41DEBF0A3EAF0A3E9F0D8
:101EC500C2AF900003120B081207BCFFAEF090C41E
:101ED50028EEF0A3EFF0D2AF90C41DE0FBA3E0FA2B
:101EE500A3E0F9900006120B081207BCFDACF06FD9
:101EF5007002EC6E70030223F3C390C429E09D9039
:101F0500C428E09C90C41DE0FBA3E0FAA3E0F950CF
:101F1500219000091207E7FF90C429E02FFF90C424
:101F250028E035F0CFC39DCF9C90C420F0A3EFF0FF
:101F3500801E900006120B081207BCFFC390C4292F
:101F4500E09FFE90C428E095F090C420F0A3CEF069
:101F5500C390C421E0940690C420E0940050037F10
:101F6500002290C41DE0FBA3E0FAA3E0F99000066F
:101F7500120B081207BCFDACF090C41DE0FBA3E0FA
:101F8500FAA3E0F9120AE88D828C831206EAFF9023
:101F9500C426E4F0A3EFF0E0F8E4F0E890C426F0FE
:101FA500ED2401FFE43CFE90C42AF0A3EFF090C4B9
:101FB5001DE0FBA3E0FAA3E0F99000091207E7FD95
:101FC500C3EF9DEE95F04007E490C42AF0A3F0120C
:101FD5000AE890C42AE0FEA3E0F5828E831206EAA1
:101FE500FF90C426E0FEA3E04FFF90C426EEF0FE6E
:101FF500A3EFF064A57003EE645A600302239E907C
:10200500C41DE0FBA3E0FAA3E0F9900006120B085B
:102015001207BC2403FFE435F0FE90C42AF0A3EFB9
:10202500F090C41DE0FBA3E0FAA3E0F990000912CB
:1020350007E7FDC3EF9DEE95F04007E490C42AF055
:10204500A3F0120AE890C42AE0FEA3E0F5828E838D
:102055001206EA648260030221CC90C41DE0FBA352
:10206500E0FAA3E0F9900006120B081207BC24025F
:10207500FFE435F0FE90C42AF0A3EFF090C41DE014
:10208500FBA3E0FAA3E0F99000091207E7FDC3EF0F
:102095009DEE95F04007E490C42AF0A3F090C41D8E
:1020A500E0FBA3E0FAA3E0F9120AE890C42AE0FEF7
:1020B500A3E0F5828E831206EA2403FFE433FE9043
:1020C500C422F0A3EFF0C390C421E09F90C420E0A8
:1020D5009E50030223F3E490C424F0A3F090C4229D
:1020E500E0FEA3E0FFA3E0FCA3E0FDC39FEC9E4060
:1020F5000302219890C41DE0FBA3E0FAA3E0F99048
:102105000006120B081207BCFFAEF090C41DE0FBE1
:10211500A3E0FAA3E0F9120AE88F828E831206EA99
:10212500FF74252DF58274BF3CF583EFF090C41D37
:10213500E0FBA3E0FAA3E0F9900006120B08E475B2
:10214500F00112081F90C41DE0FBA3E0FAA3E0F91B
:10215500900006120B081207BCFFAEF090C41DE0FC
:10216500FBA3E0FAA3E0F99000091207E7FDC3EF2E
:102175009DEE95F0400C900006120B08E4F5F01268
:1021850008A490C425E004F0700690C424E004F08F
:102195000220E290BF29E0FEA3E0FF7B017ABF7930
:1021A5002B90BF27E024FDC313FD90C2F2E4F0A3FA
:1021B500EDF012628D90BF277403F090BF29744F24
:1021C500F0A3744B02234F90C41DE0FBA3E0FAA3D8
:1021D500E0F9120AE890C42AE0FEA3E0F5828E83B6
:1021E5001206EA6483600302235390C41DE0FBA337
:1021F500E0FAA3E0F9900006120B081207BC2402CE
:10220500FFE435F0FE90C42AF0A3EFF090C41DE082
:10221500FBA3E0FAA3E0F99000091207E7FDC3EF7D
:102225009DEE95F04007E490C42AF0A3F090C41DFC
:10223500E0FBA3E0FAA3E0F9120AE890C42AE0FE65
:10224500A3E0F5828E831206EA2403FFE433FE90B1
:10225500C422F0A3EFF0C390C421E09F90C420E016
:102265009E50030223F3E490C424F0A3F090C4220B
:10227500E0FEA3E0FFA3E0FCA3E0FDC39FEC9E40CE
:102285000302232890C41DE0FBA3E0FAA3E0F99024
:102295000006120B081207BCFFAEF090C41DE0FB50
:1022A500A3E0FAA3E0F9120AE88F828E831206EA08
:1022B500FF74252DF58274BF3CF583EFF090C41DA6
:1022C500E0FBA3E0FAA3E0F9900006120B08E47521
:1022D500F00112081F90C41DE0FBA3E0FAA3E0F98A
:1022E500900006120B081207BCFFAEF090C41DE06B
:1022F500FBA3E0FAA3E0F99000091207E7FDC3EF9D
:102305009DEE95F0400C900006120B08E4F5F012D6
:1023150008A490C425E004F0700690C424E004F0FD
:1023250002227290BF29E0FEA3E0FF7B017ABF790C
:102335002CA3E0FD90C291E4F0A3EDF0123D1990BD
:10234500BF2BE025E0240490BF27F07F012290C435
:102355001DE0FBA3E0FAA3E0F9900006120B08E4E8
:1023650075F00112081F90C41DE0FBA3E0FAA3E07D
:10237500F9900006120B081207BCFFAEF090C41DC1
:10238500E0FBA3E0FAA3E0F99000091207E7FDC31B
:10239500EF9DEE95F04057804990C41DE0FBA3E00A
:1023A500FAA3E0F9900006120B08E475F001120893
:1023B5001F90C41DE0FBA3E0FAA3E0F9900006120C
:1023C5000B081207BCFFAEF090C41DE0FBA3E0FABA
:1023D500A3E0F99000091207E7FDC3EF9DEE95F024
:1023E500400C900006120B08E4F5F01208A47F00DB
:0123F50022C5
:104D390090BA25E0FF90BA24E06F7003024DD27556
:104D4900F00DEFA42425F582E5F034A0F583E0FC0D
:104D5900A3E0FDA3E0FEA3E0FFE47B23FAF9F8C397
:104D6900120A28705E90BA25E075F00DA42424F586
:104D790082E5F034A0F583E0540FFFE4FEEEC39F13
:104D8900504190BA25E075F00DA42429F582E5F08B
:104D990034A0F583E5822EF582E43583F583E0FDC1
:104DA90090BF21E0FAA3E02421F58274BE3AF5838D
:104DB900EDF090BF22E004F0700690BF21E004F00E
:104DC9000E80BA90BA25E004F0126E2CEF640170DF
:104DD9004190BF27E02403FDE433FC7B017ABF79CE
:104DE90025E4FF124249E490C3FAF090BF27E0247A
:104DF90003FEE43390C3FBF0A3CEF0A37401F0A348
:104E090074BFF0A37425F07F237E007D007C00121F
:104E190034057B017ABE790B121EBABF011590BF0A
:104E290027E02403FDE433FC7B017ABF7925E4FF05
:104E39001242497B017ABE7916121EBABF012CE4CF
:104E490090C3FAF090BF27E02403FEE43390C3FB3C
:104E5900F0A3CEF0A37401F0A374BFF0A37425F0FE
:0B4E69007F247E007D007C00123405D9
:014E7400221B
:107E0300FF988103FF988104FF988101FF98810007
:037E1300351129FD
:0279DF00C109DC
:10655100E490C4A2F0A3F0A374B0F0A374FAF0C263
:1065610090C2947F057E00127D2AE490C4A6F0902B
:10657100C4A4E0A330E704D2928002C292C2937F06
:10658100057E00127D2AD2937F057E00127D2A901E
:10659100C4A5E025E0F090C4A4E033F090C4A6E0E7
:1065A10004F0E0C3941040C7D2947F057E00127DB1
:1065B1002AE490C4A6F0C2937F057E00127D2AD200
:1065C100937F057E00127D2A90C4A3E025E0F09020
:1065D100C4A2E033F0309107E0F0A3E04401F09071
:1065E100C4A6E004F0E0C3941040CBD2907F057EB6
:0C65F10000127D2A90C4A2E0FEA3E0FF8F
:0165FD00227B
:1064A200E490C4A7F0A3F0EFFF74FAA3CFF0A3EF38
:1064B200F0C290C2947F057E00127D2AE490C4ABA4
:1064C200F090C4A9E0A330E704D2928002C292C243
:1064D200937F057E00127D2AD2937F057E00127D76
:1064E2002A90C4AAE025E0F090C4A9E033F090C459
:1064F200ABE004F0E0C3941040C7D2947F057E0065
:10650200127D2AE490C4ABF0C2937F057E00127D17
:106512002AD2937F057E00127D2A90C4A8E025E04E
:10652200F090C4A7E033F0309107E0F0A3E044011B
:10653200F090C4ABE004F0E0C3941040CBD2907F63
:0E654200057E00127D2A90C4A7E0FEA3E0FFB4
:016550002228
:10758A0090C26AEFF0C290C2947F057E00127D2AF3
:10759A00E490C269F090C26AE030E704D2928002B5
:1075AA00C292C2937F057E00127D2AD2937F057E06
:1075BA0000127D2A90C26AE025E0F090C269E004D8
:1075CA00F0E0C3940840CED2907F057E00027D2A67
:055D0600E4FDFC7FB884
:105D0B0090C26AEFF0ECA3F0A3EDF0C290C2947FC7
:105D1B00057E00127D2AE490C269F090C26AE030E1
:105D2B00E704D2928002C292C2937F057E00127D5D
:105D3B002AD2937F057E00127D2A90C26AE025E06D
:105D4B00F090C269E004F0E0C3940840CED2947F97
:105D5B00057E00127D2AE490C269F090C26CE0309F
:105D6B00E704D2928002C292C2937F057E00127D1D
:105D7B002AD2937F057E00127D2A90C26CE025E02B
:105D8B00F090C269E004F0E0C3940840CEE490C206
:105D9B0069F090C26BE030E704D2928002C292C2EB
:105DAB00937F057E00127D2AD2937F057E00127DA4
:105DBB002A90C26BE025E0F090C269E004F0E0C3EA
:0D5DCB00940840CED2907F057E00027D2A14
:066756007BFF7D047C00C6
:0B675C0090C260EBF0A3EAF0A3E9F0AC
:10676700AE04AF05A3EEF0A3EFF07FBC125D0B9074
:10677700C263E0FCA3E0FD7FBE125D0B7FBF127515
:106787008AC290D2947F057E00127D2A90C26374DC
:10679700FFF5F01207A645F0605190C260E0FBA339
:1067A700E475F0011207A6A9F0FA1206D190C266A5
:1067B700F0E490C265F090C265E0C3940850CDA3A1
:1067C700E030E704D2928002C292C2937F057E0036
:1067D700127D2AD2937F057E00127D2A90C266E041
:1067E70025E0F090C265E004F080CBD2907F057E73
:0467F70000027D2AF5
:1066AA0090C2667401F0A374C2F0A37464F090C23D
:1066BA0064EFF0A3EDF090C260E4F0A37402F0FD81
:1066CA007C007FBC125D0B90C260E0FCA3E0FD7F02
:1066DA00BE125D0B7FBF12758AC290D2947F0F7E65
:1066EA0000127D2A90C26074FFF5F01207A645F0E9
:1066FA00605190C266E0FBA3E475F0011207A6A9F7
:10670A00F0FA1206D190C263F0E490C262F090C22D
:10671A0062E0C3940850CDA3E030E704D29280022D
:10672A00C292C2937F0F7E00127D2AD2937F0F7E80
:10673A0000127D2A90C263E025E0F090C262E00474
:0C674A00F080CBD2907F0F7E00027D2AF1
:10193A007A7E7903126756E4FD7F011266AAE4FDF6
:10194A007F021266AA7D577F031266AA7DD37F049F
:10195A001266AAE4FD7F051266AA7D117F06126649
:10196A00AA7D087F071266AAE4FD7F081266AAE428
:10197A00FD7F091266AA7D3F7F0A1266AAE4FD7FEF
:10198A000B1266AAE4FD7F0C1266AAE4FD7F0D1213
:10199A0066AAE4FD7F0E1266AA7D3F7F0F1266AA31
:1019AA007D3F7F101266AAE4FD7F111266AAE4FD4C
:1019BA007F121266AAE4FD7F131266AAE4FD7F1461
:1019CA001266AAE4FD7F151266AAE4FD7F16126666
:1019DA00AAE4FD7F171266AAE4FD7F181266AAE43C
:1019EA00FD7F191266AAE4FD7F1A1266AAE4FD7F3A
:1019FA001B1266AAE4FD7F1C1266AAE4FD7F1D1273
:101A0A0066AA7D407F1E1266AA7D807F1F1266AA83
:101A1A007D067F201266AA7D017F211266AAE4FD57
:101A2A007F221266AAE4FD7F231266AAE4FD7F24C0
:101A3A001266AAE4FD7F251266AAE4FD7F261266D5
:101A4A00AAE4FD7F271266AA7D337F281266AA7D43
:101A5A00337F291266AAE4FD7F2A1266AAE4FD7F73
:101A6A002B1266AAE4FD7F2C1266AAE4FD7F2D12D2
:101A7A0066AAE4FD7F2E1266AAE4FD7F2F1266AAEB
:101A8A00E4FD7F301266AAE4FD7F311266AAE4FD06
:101A9A007F321266AAE4FD7F331266AAE4FD7F3420
:101AAA001266AAE4FD7F351266AAE4FD7F36126645
:101ABA00AAE4FD7F371266AA7D787F381266AAE407
:101ACA00FD7F391266AAE4FD7F3A1266AAE4FD7F19
:101ADA003B1266AAE4FD7F3C1266AAE4FD7F3D1232
:101AEA0066AAE4FD7F3E1266AAE4FD7F3F1266AA5B
:101AFA00E4FD7F401266AAE4FD7F411266AAE4FD76
:101B0A007F421266AAE4FD7F431266AAE4FD7F447F
:101B1A001266AAE4FD7F501266AA7D237F511266DF
:101B2A00AA7D457F521266AA7D677F531266AA7DF7
:101B3A00897F541266AA7DAB7F551266AA7D017F02
:101B4A00561266AA7D237F571266AA7D457F5812D0
:101B5A0066AA7D677F591266AA7D897F5A1266AA8C
:101B6A007DAB7F5B1266AA7DCD7F5C1266AA7DEF94
:101B7A007F5D1266AAE4FD7F5E1266AA7D0D7F5F15
:101B8A001266AA7D0D7F601266AA7D0C7F611266BD
:101B9A00AA7D0C7F621266AA7D0F7F631266AA7DF8
:101BAA000F7F641266AA7D0E7F651266AA7D0E7F7C
:101BBA00661266AA7D087F671266AA7D027F68128E
:101BCA0066AA7D027F691266AA7D027F6A1266AAE8
:101BDA007D027F6B1266AA7D027F6C1266AA7D0265
:101BEA007F6D1266AA7D027F6E1266AA7D027F6FE2
:101BFA001266AA7D147F701266AA7D157F7112661D
:101C0A00AA7D067F721266AA7D027F731266AA7D7A
:101C1A00027F741266AA7D0D7F751266AA7D0D7FFA
:101C2A00761266AA7D0C7F771266AA7D0C7F7812DF
:101C3A0066AA7D0F7F791266AA7D0F7F7A1266AA3D
:101C4A007D0E7F7B1266AA7D0E7F7C1266AA7D08B6
:101C5A007F7D1266AA7D027F7E1266AA7D027F7F41
:101C6A001266AA7D027F801266AA7D027F811266B1
:101C7A00AA7D027F821266AA7D027F831266AA7DEE
:101C8A00027F841266AA7D027F851266AA7D147F6E
:101C9A00861266AA7D157F871266AA7D067F88123C
:101CAA0066AA7D027F891266AA7D027F8A1266AAC7
:101CBA007A7E79071267567D3B7F6E1266AA7D5738
:101CCA007F6F1266AA7D247F3A1266AA7D1F7F8DD6
:101CDA001266AA7DBA7F871266AA7DD17FB2126682
:101CEA00AA7D0B7F881266AA7D017F381266AAE454
:101CFA00FD7F391266AA7D077FB51266AA7D757FB8
:101D0A00311266AA7D987F3B1266AA7BFF7A7E799A
:101D1A000B1267587D0A7F221266AA7D097F31124B
:101D2A0066AA7D077F351266AA7D677F531266AA67
:101D3A007D847F551266AA7D867F501266AA7D82AF
:101D4A007F511266AA7D107F601266AAE4FD7F6247
:101D5A001266AAE4FD7FA01266AA7D127FA112660E
:101D6A00AA7D1F7FA21266AA7D127FA31266AA7D90
:101D7A00167FA41266AA7D297FA51266AA7D1E7FF8
:101D8A00A61266AA7D1F7FA71266AA7D7E7FA81269
:101D9A0066AA7D1B7FA91266AA7D287FAA1266AA57
:101DAA007D6D7FAB1266AA7D197FAC1266AA7D187B
:101DBA007FAD1266AA7D4C7FAE1266AA7D1E7FAFEA
:101DCA001266AA7D237FB01266AA7D527FB112667F
:101DDA00AA7D6D7FB21266AA7D3F7FB31266AAE41E
:101DEA00FD7FC01266AA7D127FC11266AA7D207F7E
:101DFA00C21266AA7D107FC31266AA7D137FC4121F
:101E0A0066AA7D277FC51266AA7D1B7FC61266AAAF
:101E1A007D1D7FC71266AA7D757FC81266AA7D1FBF
:101E2A007FC91266AA7D287FCA1266AA7D687FCBFF
:101E3A001266AA7D1A7FCC1266AA7D187FCD126619
:101E4A00AA7D4D7FCE1266AA7D257FCF1266AA7D16
:101E5A002E7FD01266AA7D537FD11266AA7D607F3B
:101E6A00D21266AA7D3F7FD31266AA7BFF7A7E7959
:101E7A000F1267587BFF7A7E79137D017C00126707
:101E8A005C7F8C7E001277557BFF7A7E79147D0108
:101E9A007C0012675C7F787E001277557BFF7A7E22
:101EAA0079157D017C0012675C7FAA7E0002775556
:107A0F007D067C087FB1125D0B7D227C187FB21240
:107A1F005D0B7D127C687FB3125D0B7D207C037F35
:0D7A2F00B4125D0B7D007C057FB5025D0B80
:105A7A007D507C007FB7125D0B125D06E4FDFC7F52
:105A8A00B9125D0B7D0A7C807FBA125D0B7D067CA4
:105A9A00007FBB125D0B7D017C007FB9125D0BE4B8
:105AAA00FDFC7FDE125D0B7D027C237FC9125D0B3C
:105ABA007F0A7E0012775512193A7D517C017FB711
:105ACA00125D0B125D06E4FDFC7FB9125D0B7D15BC
:105ADA007C807FBA125D0B7D057C007FBB125D0B5B
:105AEA007D017C007FB9125D0B7D027C237FC91288
:105AFA005D0B7F0A7E001277557D017C237FCA12D7
:105B0A005D0B7D107C057FCB125D0B7D057C107FC4
:105B1A00CC125D0B7DFF7C007FD0125D0B127A0FD9
:105B2A007DD37C007FB6125D0B7D037C007FDE1285
:105B3A005D0B7D047C007FD6125D0B7D4B7C027F62
:0E5B4A00B7125D0B7F3C7E00127755D2092208
:1061090000252E3166730025302E30667300253048
:106119002E30666D730025302E30664100252E30F5
:106129006600252E3066487A00252E316644002502
:106139002E3166730D0A00252E3066730D0A00256F
:106149002E30666D730D0A00252E3066410D0A004A
:10615900252E30660D0A00252E3066487A0D0A0074
:10616900252E3166440D0A00736466647366002542
:10617900647000050003200D640080000000030026
:106189000003C00000003C00000C000000300000CB
:10619900F00000000FC0000300000003FFFFDF0054
:1061A9000030376109610A61106117611F61266159
:1061B9002B613261096138614061486151615961FE
:0761C900606169FFFB0105A5
:1079E100024300960248001801455A0246028A44A1
:0979F100BAAB00000000014A00DD
:0C7AB30090C2697401F0A3745EF07D05C0
:107ABF00AF05EC8FF01208A490C269E0FFA3E0902D
:087ACF000002CF8FF00208C392
:066EAF007D9F7C027FFFC5
:106EB50090C287EEF0A3EFF0A3ECF0A3EDF0A3EA08
:046EC500F0A3EBF05B
:106EC90090BB10E0FFD39430505CEF75F009A42417
:106ED90067F974BB35F0FA7B0190C28FE01207178E
:106EE90090C287E0FFA3E0900001CF8FF01208C3A2
:106EF90090C289E0FFA3E0900003CF8FF01208C38E
:106F090090C28BE0FFA3E0900005CF8FF01208C379
:106F190090C28DE0FFA3E0900007CF8FF01208C365
:066F290090BB10E004F033
:016F2F00223F
:0859920090C286F07B247A002C
:10599A0090C280EEF0A3EFF0A3ECF0A3EDF0A3EA3F
:1059AA00F0A3EBF090C280E0FAA3E0FBFFAE02C0E6
:1059BA0006C00790C285E025E0FF90C284E033FE6E
:1059CA00C390C283E09FFD90C282E09EFCEB7844C4
:1059DA0026FBEA1836FAE0FFA3E090C28DCFF0A3C7
:1059EA00EFF0E4A3F0A3F090C284A3E090C291F098
:1059FA0025E0A3F0A3E4F0A37443F0E4A3F0A3F03A
:105A0A00D007D0061257BA90C286E0FD25E0244995
:105A1A00F582E434BAF583EEF0A3EFF0EDFF7E00F1
:105A2A001238D890C280E0FAA3E0FBFFAE02C006AB
:105A3A00C00790C285E025E0FF90C284E033FEC330
:105A4A0090C283E09FFD90C282E09EFCEB784426E0
:105A5A00FBEA1836FAE0FFA3E090C28DCFF0A3EF7D
:105A6A00F090C286E090C28FF0D007D006026EB5E1
:066D1E007B017AC2796ED0
:106D240090C27DEBF0A3EAF0A3E9F090C27DE0FB12
:106D3400A3E0FAA3E0F91207BCFFAEF0C006C00757
:106D44009000021207E7FDACF0C004C0051207BCB6
:106D5400FBAAF0C002C00390C27DE0FBA3E0FAA34B
:106D6400E02402F9E43AFA1207BCFF7845E6FDC3D1
:106D7400EF9DFFE5F09400FE8FF01208A490C28608
:106D8400EEF0A3EFF0906180E49390C288F0A374D6
:106D940007F0A374E0F0D003D002D005D004D007EC
:056DA400D00602409240
:06709C007B017AC2796E4F
:1070A20090C27DEBF0A3EAF0A3E9F090C27DE0FB91
:1070B200A3E0FAA3E0F91207BCFFAEF0C006C007D6
:1070C2009000021207E7FDACF01207BCFBAAF0C069
:1070D20002C0037845E6FF7E0090C27DE0FBA3E09C
:1070E200FA900002EE8FF0120857AFF090C286F0CD
:1070F200A3EFF0906180E49390C288F0A37407F04C
:0F710200A374E0F0D003D002D007D00602409271
:105F740090C27DEBF0A3EAF0A3E9F090C27DE0FBD0
:105F8400A3E0FAA3E0F91207BCFFAEF090000212FE
:105F940007E7FDACF01207BC784426FBE5F01836A1
:105FA400FAC002C00390C27DE0FBA3E0FA900002B5
:105FB4001207E7FB90C286E5F0F0A3EBF090618056
:105FC400E49390C288F0A37407F0A374E0F0D003C4
:105FD400D00212409290C27DE0FBA3E0FAA3E0F964
:105FE4001207BCFFAEF07846E6FC08E6FD741A1210
:105FF400599290C27DE0FBA3E0FAA3E0F91207BC3A
:10600400FBAAF0FFAE0290C2867402F0A3748AF079
:10601400A37405F0A374DEF0A374DBF07D3A7C0274
:106024001240927843E6FE08E6FF90C27DE0FBA3AF
:0B603400E0FAA3E0F9EE8FF002081F75
:0655C7007B017AC2796E3F
:1055CD0090C27DEBF0A3EAF0A3E9F090C27DE0FB81
:1055DD00A3E0FAA3E0F91207BCFFAEF090000212AF
:1055ED0007E7FDACF01207BC784426FBE5F0183652
:1055FD00FAC002C00390C27DE0FBA3E0FA90000266
:10560D001207E7FB90C286E5F0F0A3EBF090618006
:10561D00E49390C288F0A37407F0A374E0F0D00374
:10562D00D00212409290C27DE0FBA3E0FAA3E0F914
:10563D001207BCFFAEF09000021207E7FDACF07848
:10564D0048E6FA08E6FB90C286741BF012599A9050
:10565D00C27DE0FBA3E0FAA3E0F91207BCFFAEF0B8
:10566D007846E6FC08E6FD741C12599290C27DE066
:10567D00FBA3E0FAA3E0F91207BCFBAAF0FFAE0210
:10568D0090C2867402F0A3748AF0A37405F0A3741B
:10569D00DEF0A374DBF07D3A7C021240927843E693
:1056AD00FE08E6FF90C27DE0FBA3E0FAA3E0F9EE71
:0556BD008FF002081F40
:1050BA0090C27DEBF0A3EAF0A3E9F090C27DE0FB99
:1050CA00A3E0FAA3E0F91207BCFFAEF0C006C007DE
:1050DA009000021207E724FFFDE5F034FFFC1207F7
:1050EA00BC784426FBE5F01836FAC002C00390C229
:1050FA007DE0FBA3E0FA9000021207E7FB7845E6A1
:10510A00F582C3EB9582FEE5F0940090C286F0A387
:10511A00CEF0906180E49390C288F0A37407F0A364
:10512A0074E0F0D003D002D007D00612409290C2A9
:10513A007DE0FBA3E0FAA3E0F91207BCFFAEF0782A
:10514A0046E6FC08E6FD90C286741D12599590C287
:10515A007DE0FBA3E0FAA3E0F91207BCFBAAF0FF8B
:10516A00AE0290C2867402F0A3748AF0A37405F0AA
:10517A00A374DEF0A374DBF07D3A7C0212409278CD
:10518A0043E6FE08E6FF90C27DE0FBA3E0FAA3E057
:10519A00F9EE8FF012081F90C27DE0FBA3E0FAA39C
:1051AA00E02402F9E43AFA1207BCFF7845E6FDC3A7
:0C51BA00EF9DFFE5F094008FF00208A4C8
:064568007B017AC2796EAE
:10456E0090C27DEBF0A3EAF0A3E9F090C27DE0FBF0
:10457E00A3E0FAA3E0F91207BCFFAEF0900002121E
:10458E0007E7FDACF01207BC784426FBE5F01836C1
:10459E00FAC002C00390C27DE0FBA3E0FA900002D5
:1045AE001207E7FB90C286E5F0F0A3EBF090618076
:1045BE00E49390C288F0A37407F0A374E0F0D003E4
:1045CE00D00212409290C27DE0FBA3E0FAA3E0F984
:1045DE001207BCFFAEF09000021207E7FDACF078B8
:1045EE0048E6FA08E6FB90C286741EF012599AE568
:1045FE00415420FEEE602590C27DE0FBA3E0FAA3BD
:10460E00E0F91207BCFFAEF07846E6FC08E6FD9036
:10461E00C286741FF07B1E7A0012599AE54154012E
:10462E00FEE4FCEE604990C27DE0FBA3E0FAA3E05D
:10463E00F91207BCFFAEF0C006C0079000021207C9
:10464E00E7FD7848E6FA08E6FB25E0FFEA33FEEFE1
:10465E002DFFEE35F0FE906180E493C3132FFDEC39
:10466E003EFC90C2867429F0D007D00612599A905B
:10467E00C27DE0FBA3E0FAA3E0F91207BCFBAAF0AF
:10468E00FFAE0290C2867402F0A3748AF0A3740582
:10469E00F0A374DEF0A374DBF07D3A7C021240923C
:1046AE007843E6FE08E6FF90C27DE0FBA3E0FAA3A6
:0846BE00E0F9EE8FF002081F85
:0651C6007B017AC2796E44
:1051CC0090C27DEBF0A3EAF0A3E9F090C27DE0FB86
:1051DC00A3E0FAA3E0F91207BCFFAEF090000212B4
:1051EC0007E7FDACF01207BC784426FBE5F0183657
:1051FC00FAC002C00390C27DE0FBA3E0FA9000026B
:10520C001207E7FB90C286E5F0F0A3EBF09061800B
:10521C00E49390C288F0A37407F0A374E0F0D00379
:10522C00D00212409290C27DE0FBA3E0FAA3E0F919
:10523C001207BCFFAEF07846E6FC08E6FD90C2868D
:10524C007421F07B1E7A0012599A90C27DE0FBA368
:10525C00E0FAA3E0F91207BCFFAEF09000021207CF
:10526C00E7FDACF07848E6FA08E6FB90C2867420BD
:10527C00F012599A90C27DE0FBA3E0FAA3E0F91278
:10528C0007BCFBAAF0FFAE0290C2867402F0A374B6
:10529C008AF0A37405F0A374DEF0A374DBF07D3AFE
:1052AC007C021240927843E6FE08E6FF90C27DE055
:0D52BC00FBA3E0FAA3E0F9EE8FF002081F5B
:0652C9007B017AC2796E40
:1052CF0090C27DEBF0A3EAF0A3E9F090C27DE0FB82
:1052DF00A3E0FAA3E0F91207BC2401FFE435F0FEC6
:1052EF00C006C0079000021207E7FDACF01207BC22
:1052FF00784426FBE5F01836FAC002C00390C27D51
:10530F00E0FBA3E0FA9000021207E7FB7845E62BDB
:10531F00FEE435F090C286F0A3CEF0906180E49366
:10532F0090C288F0A37407F0A374E0F0D003D0020A
:10533F00D007D00612409290C27DE0FBA3E0FAA303
:10534F00E0F91207BCFFAEF07846E6FC08E6FD90E8
:10535F00C2867424F0FB7A0012599A90C27DE0FB4A
:10536F00A3E0FAA3E0F91207BCFBAAF0FFAE02908C
:10537F00C2867402F0A3748AF0A37405F0A374DEDE
:10538F00F0A374DBF07D3A7C021240927843E6FE84
:10539F0008E6FF90C27DE0FBA3E0FAA3E0F9EE8FF1
:1053AF00F012081F7845E6FF90C27DE0FBA3E0FAFC
:0C53BF00A3E0F9900002E48FF002085710
:1056C20090C27DEBF0A3EAF0A3E9F090C27DE0FB8B
:1056D200A3E0FAA3E0F91207BCFFAEF090000212B9
:1056E20007E7FDACF01207BC784426FBE5F018365C
:1056F200FAC002C00390C27DE0FBA3E0FA90000270
:105702001207E7FB90C286E5F0F0A3EBF090618010
:10571200E49390C288F0A37407F0A374E0F0D0037E
:10572200D00212409290C27DE0FBA3E0FAA3E0F91E
:105732001207BCFFAEF07846E6FC08E6FD90C28692
:10574200742612599590C27DE0FBA3E0FAA3E0F91A
:105752001207BCFFAEF09000021207E7FDACF07832
:1057620048E6FA08E6FB90C2867425F012599A9030
:10577200C27DE0FBA3E0FAA3E0F91207BCFBAAF0AA
:10578200FFAE0290C2867402F0A3748AF0A374057D
:10579200F0A374DEF0A374DBF07D3A7C0212409237
:1057A2007843E6FE08E6FF90C27DE0FBA3E0FAA3A1
:0857B200E0F9EE8FF002081F80
:105DD80090C27DEBF0A3EAF0A3E9F090C27DE0FB6E
:105DE800A3E0FAA3E0F91207BCFFAEF0900002129C
:105DF80007E7FDACF01207BC784426FBE5F018363F
:105E0800FAC002C00390C27DE0FBA3E0FA90000252
:105E18001207E7FB90C286E5F0F0A3EBF0906180F3
:105E2800E49390C288F0A37407F0A374E0F0D00361
:105E3800D00212409290C27DE0FBA3E0FAA3E0F901
:105E48001207BCFFAEF07846E6FC08E6FD90C28675
:105E5800742712599590C27DE0FBA3E0FAA3E0F9FC
:105E68001207BCFBAAF0FFAE0290C2867402F0A330
:105E7800748AF0A37405F0A374DEF0A374DBF07DDC
:105E88003A7C021240927843E6FE08E6FF90C27D13
:0E5E9800E0FBA3E0FAA3E0F9EE8FF002081F92
:104F9E0090C27DEBF0A3EAF0A3E9F090C27DE0FBB6
:104FAE00A3E0FAA3E0F91207BCFFAEF0C006C007FB
:104FBE009000021207E7FDACF01207BC784426FB06
:104FCE00E5F01836FAC002C00390C27DE0FBA3E004
:104FDE00FA9000021207E7FB7845E6F582C3EB95DF
:104FEE0082FEE5F0940090C286F0A3CEF090618030
:104FFE00E49390C288F0A37407F0A374E0F0D0039A
:10500E00D002D007D00612409290C27DE0FBA3E002
:10501E00FAA3E0F91207BCFFAEF09000021207E708
:10502E00FD7845E6FBC3ED9BFDE5F09400FC78486A
:10503E00E6FA08E6FB90C2867428F012599A90C2DE
:10504E007DE0FBA3E0FAA3E0F91207BCFBAAF0FF98
:10505E00AE0290C2867402F0A3748AF0A37405F0B7
:10506E00A374DEF0A374DBF07D3A7C0212409278DA
:10507E0043E6FE08E6FF90C27DE0FBA3E0FAA3E064
:10508E00F9EE8FF012081F90C27DE0FBA3E0FAA3A9
:10509E00E02402F9E43AFA1207BCFF7845E6FDC3B4
:0C50AE00EF9DFFE5F094008FF00208A4D5
:066FAC007B017AC2796E40
:106FB20090C27DEBF0A3EAF0A3E9F090C27DE0FB82
:106FC200A3E0FAA3E0F91207BCFFAEF090000212B0
:106FD20007E7FD7845E62DFDE435F0FC7848E6FA52
:106FE20008E6FB90C2867422F012599A90C27DE0A4
:106FF200FBA3E0FAA3E0F91207BC784426FFE5F010
:107002001836FE9000021207E7FD7845E62DFDE4F2
:1070120035F0FC7848E6FA08E6FB90C2867423F065
:0370220002599A76
:0838D80090C289EEF0A3EFF0AD
:1038E000788D7CC27D017BFF7A6179AC7E007F1090
:1038F0001206AB789D7CC27D017BFF7A6179BC7E2C
:10390000007F101206ABE490C2ADF090C28AE025B1
:10391000E0FF90C289E033FE74B32FF58274BA3EA3
:10392000F583E0FCA3E0FDEC1201A890C2AE120A00
:103930007F90C289E0FEA3E0FFEE6003023B21EF2F
:1039400024E6B410004003023B2190395875F0037F
:10395000A4C58325F0C583730239880239FE023974
:10396000880239880239FE0239E40239FE0239E45C
:10397000023A10023A210239880239FE02398802DD
:0839800039EC0239FE0239FEA8
:10398800EF25E0FFEE33FE74B32FF58274BA3EF5EF
:1039980083E0FEA3E0FF90C2B2EEF0A3EFF0C39481
:1039A80064EE9400502490C2AD7401F0A3E0FCA32F
:1039B800E0FDA3E0FEA3E0FFE4FBFA7920784112E2
:1039C800010690C2AE120A7F802090C2AE120A8B06
:0A39D8004120000090C2AD7402F01F
:1039E200800E90C2AD7403F0800690C2AD7402F0F6
:1039F20090C28B7407F0A374FFF0805090C2AD7434
:103A020004F090C28B74FFF0A374E0F0803E90C289
:103A1200AD7406F090C28B74FCF0A3E4F0802D909C
:103A2200C2AD7407F090C28B74FCF0A3E4F090C2B4
:103A3200AEE0FCA3E0FDA3E0FEA3E0FFE4FBFA7925
:103A420020784112010690C2AE120A7F90C2ADE008
:103A52007003023B2125E0248DF582E434C2F58314
:103A6200E0FEA3E0AA06F97BFF90C28AE025E0FF10
:103A720090C289E033FE74492FF58274BA3EF58311
:103A8200E0FCA3E0FDC004C00590C2AEE0FCA3E0F0
:103A9200FDA3E0FEA3E0FF90C2B9120A7FD005D0D9
:103AA2000412692E90BAA7E0FEA3E0FF90C289E05B
:103AB200FCA3E0FDB5070CECB50608A374F8F0A36F
:103AC200741FF0ED25E0FFEC33FE74492FF582748C
:103AD200BA3EF583E0FEA3E0FF90C28BE0FCA3E0D8
:103AE200FD127C1DE53E703790C2ADE025E0249DBD
:103AF200F582E434C2F583E0FEA3E0AA06F97BFF77
:103B020090C2AEE0FCA3E0FDA3E0FEA3E0FF90C202
:0F3B1200B9120A7F90BAA9E0FCA3E0FD12692E58
:013B21002281
:03135200E4FDFEB9
:1013550090C264EEF0A3EFF0A3EDF0700302142D3C
:1013650090C265E025E0FD90C264E033FC74B32DC6
:10137500F974BA3CFA90C2677401F0A3EAF0A3E9E4
:10138500F090C264E0FEA3E07802C333CE33CED83A
:10139500F9FF2419F58274BD3EF583E0FBA3E090C7
:1013A500C26ACBF0A3EBF074172FF58274BD3EF53E
:1013B50083E0FFA3E090C26CCFF0A3EFF074112D92
:1013C500F58274BB3CF583E0FCA3E0FD90C266E0CA
:1013D500FF3395E0FE120729A3E0FBA3E0FAA3E0A3
:1013E500F9EE8FF012081F90C267E0FBA3E0FAA3A5
:1013F500E0F91207BCFFAEF090C26AE0FCA3E0FD85
:10140500D39FEE6480F8EC6480985002801490C2FB
:101415006CE0FCA3E0FDC39FEE6480F8EC6480986B
:081425004006EC8DF01208A452
:10142D0090C264E0FEA3E0FFEE6003021939EFB451
:10143D002B00400302193990144BF828287302171A
:10144D004702174702174702174702174702174768
:10145D0002185B02187302188F0217470218B9029F
:10146D0018A90217470217470218EB0218F00218C5
:10147D00F50218FA0218FF021909021913021926AA
:10148D0002191C0219300218DA0218CA02160102DA
:10149D0016010216010216010216010216010216AC
:1014AD0001021601021601021601021601021601B1
:1014BD000216010216010216010216010214CC9049
:1014CD00C266E0FF3395E0FE90BAA6E02FF090BA29
:1014DD00A5E03EF0E0FEA3E0D39400EE648094809E
:1014ED005007E490BAA5F0A3F090BAA5E0FEA3E0F2
:1014FD00FF7C007D56120729E4FD7B017ABA79B392
:10150D0090C275F0A3742BF012481D90BAB3E0B4DD
:10151D00A51AA3E0B4A515A3E0FCA3E0FDA3E0FE8E
:10152D00A3E0F5428E418D408C3F800C7542857550
:08153D004114754014753F01D3
:1015450090C267741AF090C267E0FFD394294003F4
:031555000215E597
:10155800EF75F002A424B3F974BA35F0FA7B01A34D
:10156800EBF0A3EAF0A3E9F01207BCFF90C267E032
:1015780025E025E02419F582E434BDF583E0FCA3D9
:10158800E0FDD39FE5F06480F8EC648098500D90FE
:10159800C268E0FBA3E0FAA3E0F9803290C268E0F9
:1015A800FBA3E0FAA3E0F91207BCFF90C267E025AD
:1015B800E025E02417F582E434BDF583E0FCA3E0E0
:1015C800FDC39FE5F06480F8EC6480984006EC8DDC
:0415D800F01208A461
:0915DC0090C267E004F002154B17
:1015E500120BD990BB0BE0FEA3E0FF7D1F7CF81228
:0C15F5007C1D90BAA7E4F0A3742AF02239
:1016010090C264E0FCA3E0FD25E0FFEC33FE74B37F
:101611002FF58274BA3EF583E0FFA3E090C267CF55
:10162100F0A3EFF0EC600302173CED24E6B41000E8
:10163100400302173C90164475F003A4C58325F0BE
:10164100C583730216740216C102168102168E0238
:1016510016CD0217210216E502172D0217090217EE
:101661001502169B0216F10216A80216B50216FD06
:101671000216D990C267E0FFA3E090BDC5021737FB
:1016810090C267E0FFA3E090BDC902173790C2671F
:10169100E0FFA3E090BDCB02173790C267E0FFA344
:1016A100E090BDD902173790C267E0FFA3E090BD7B
:1016B100DD02173790C267E0FFA3E090BDDF8076BF
:1016C10090C267E0FFA3E090BDC7806A90C267E067
:1016D100FFA3E090BDCD805E90C267E0FFA3E090E4
:1016E100BE07805290C267E0FFA3E090BDD1804663
:1016F10090C267E0FFA3E090BDDB803A90C267E053
:10170100FFA3E090BDE1802E90C267E0FFA3E090CF
:10171100BDD5802290C267E0FFA3E090BDD78016BF
:1017210090C267E0FFA3E090BDCF800A90C267E05E
:10173100FFA3E090BDD3CFF0A3EFF090C264E0FE31
:06174100A3E0FF0238D80E
:1017470090BDC3E0FFA3E090C267CFF0A3EFF09096
:10175700C264E0FEA3E0FFEE600302184BEFB40E95
:1017670000400302184B901774F8282873021819C1
:101777000218250217F50218070217BE0217D90229
:10178700184B02184B02184B02183702184B021855
:101797004B0217AB02179E90C267E0F0A3E0540F0D
:1017A700F002184B90C267E0FEA3E0540F4410FF0D
:1017B70090C267EE02184790C267E054F0F0A3E0CA
:1017C700F090BDEBE4F0A304F090BDF2E054FDF01F
:1017D700807290C267E054F0F0A3E0F090BDEBE4B4
:1017E700F0A37402F090BDF2E04402F0805690C27C
:1017F70067E054F0FEA3E0FFEE440190C26780402B
:1018070090C267E054F0FEA3E0FFEE440290C26787
:10181700802E90C267E0540FF0A3E0F0802690C2BC
:1018270067E0540FFEA3E0FFEE441090C2678010FC
:1018370090C267E0540FFEA3E0FFEE442090C2671A
:10184700F0A3EFF090C267E0FFA3E090BDC3CFF035
:03185700A3EFF00C
:10185A002290BDE5E4F0A304F090BE09E4F0A304ED
:10186A00F090BDF2E054FBF02290BDE5E4F0A374E1
:10187A0002F090BE09E4F0A304F090BDF2E0440443
:10188A00F054F7F02290BDE5E4F0A37402F090BEA4
:10189A0009E4F0A37402F090BDF2E04408F022904B
:1018AA00BDE7E4F0A304F090BDF2E054FEF022900C
:1018BA00BDE7E4F0A37402F090BDF2E04401F02227
:1018CA0090BDE9E4F0A304F090BDF2E054EFF022F9
:1018DA0090BDE9E4F0A37402F090BDF2E04410F088
:1018EA002290BDED802690BDED802A90BDED802F1F
:1018FA0090BDED803490BDEDE4F0A37405F0229024
:10190A00BDEDE4F0A37406F02290BDEFE4F0A30469
:10191A00F02290BDEFE4F0A37402F02290BDEFE450
:10192A00F0A37403F02290BDEFE4F0A37404F02254
:027E1600AD07B6
:107E180090BAA7E0FEA3E0FFED9061CC93FD0213BA
:017E28005504
:05603F0090C280EFF0AB
:1060440025E02449F582E434BAF583E0FEA3E0FFB9
:106054007B017AC27981127E2990C281E0FCA3E09F
:10606400FD90C285E0FBA3E090C28FCBF0A3EBF0E0
:10607400906182E493FA740193FB90617EE493F857
:10608400740193C39BFEE89A90C291F0A3CEF0A34F
:106094007452F0A3748AF090BB09E0FEA3E0FF7B86
:0660A400DC7A00127BBD56
:1060AA0090C280E0FF7E001238D890C280E025E0DE
:1060BA002449F582E434BAF583E0FEA3E0FF7D1FAC
:1060CA007CF8127C1D90C280E0FD90BAA7E0FEA386
:1060DA00E0FF6D7001EE60261238D890BAA7A3E0EF
:1060EA00FF90C280E0FD90BAA7E4F0A3EDF07E0035
:0E60FA001238D890BAA7E0FEA3E0FF1238D803
:016108002274
:1030BB007B017ABD797F90C269E4F0A37464F07DE3
:1030CB00017C00127ABF7ABD7983127AB37ABD790B
:1030DB008790C269E4F0A37464F07D01127ABF7A21
:1030EB00BD798B90C269E4F0A37464F0127ABF7A55
:1030FB00BD798F127AB37ABD799390C2697427F038
:10310B00A37410F07D01127ABF7ABD7997127AB34E
:10311B007ABD799B90C2697427F0A37410F07D017E
:10312B00127ABF7ABD799F90C269E4F0A374C8F09C
:10313B007D14127ABF7ABD79A390C269E4F0A374AF
:10314B0050F07D1E127ABF7ABD79A790C269E4F068
:10315B00A37464F07D01127ABF7ABD79AB127AB396
:10316B007ABD79AF90C269E4F0A37464F07D01126B
:10317B007ABF7ABD79B390C269E4F0A3743CF012C4
:10318B007ABF7ABD79B790C269E4F0A37464F01D7D
:10319B00127ABF7ABD79BB127AB390BB45E4F0A328
:1031AB0004F0A3E4F0A304F0A3E4F0A304F0A3E47D
:1031BB00F0A304F0A3E4F0A304F0A3E4F0A304F061
:1031CB00A3E4F0A304F0A3E4F0A304F0A3E4F0A3BE
:1031DB0004F0A3E4F0A304F0A3E4F0A304F0A3E44D
:1031EB00F0A304F0A3E4F0A304F0A3E4F0A304F031
:0C31FB00A3E4F0A304F0A3E4F0A304F0AC
:1032070090C261F0A374BAF0A374B3F0E490C26003
:10321700F090C261E0FBA3E475F0021207A6A9F0E3
:10322700FAE4F5F01208A490C260E004F0E0B42BD1
:10323700E090C2617401F0A374BDF0A374C3F0E41D
:1032470090C260F090C261E0FBA3E475F002120740
:10325700A6A9F0FAE4F5F01208A490C260E004F021
:04326700E0B424E0CB
:10326B007B017ABA79B390C275E4F0A3742BF07F2B
:10327B00007E007D007C0012481DE490BAA7F0A3ED
:10328B00F090BAB3E0B4A51AA3E0B4A515A3E0FC83
:10329B00A3E0FDA3E0FEA3E0F5428E418D408C3F01
:1032AB00800C754285754114754014753F01E4FD22
:1032BB00FFFE1213557F071213527F02121352E4B3
:1032CB00FD7F0AFE121355E4FD7F0CFE121355E42D
:1032DB00FD7F12FE121355E4FD7F14FE121355E40D
:1032EB00FD7F18FE12135590BDC5E4F0A304F090BA
:1032FB00BAE7E4F0A304F090BDC7E4F0A37432F096
:10330B0090BAE9E4F0A37432F090BDC9E4F0A304E1
:10331B00F090BAEBE4F0A304F090BDCBE4F0A3047F
:10332B00F090BAEDE4F0A304F090BDCDE4F0A374FB
:10333B0065F090BAEFE4F0A37465F090BDCFE4F0C4
:10334B00A37402F090BAF1E4F0A37402F090BDD133
:10335B00E4F0A37496F090BAF3E4F0A37496F090B3
:10336B00BDD3E4F0A37403F090BAF5E4F0A37403B7
:10337B00F090BDD5E4F0A37432F090BAF7E4F0A36B
:10338B007432F090BDD7E4F0A3743CF090BAF9E43A
:10339B00F0A3743CF090BDD9E4F0A304F090BAFB19
:1033AB00E4F0A304F090BDDBE4F0A3743CF090BA1E
:1033BB00FDE4F0A3743CF090BDDDE4F0A304F090C9
:1033CB00BAFFE4F0A304F090BDDFE4F0A304F090A7
:1033DB00BB01E4F0A304F090BDE1E4F0A37437F07B
:1033EB0090BB03E4F0A37437F090BDE3E4F0A304C7
:0A33FB00F090BDC3F0A37410F0229F
:10367C0090C27DEFF090BB10E06F70030238D790D2
:10368C00C27DE075F009A42467F582E5F034BBF542
:10369C0083E0FF24E6500F24F040030238637003EC
:0636AC0002387A0238D753
:1036B20090C27FEFF07005784AF6804290C27FE0B8
:1036C200B4013B784A760190618C120A5F120A0DAE
:1036D200E5425FF542E5415EF541E5405DF540E5D5
:1036E2003F5CF53FE5424410F542E541F541E540D6
:1036F200F540E53FF53FE4FD7F04FE121355E47FFC
:1037020001FEFDFC90C27FE0F9F8120A4CEF55422F
:10371200FFEE5541FEED5540FDEC553FFC4D4E4F41
:1037220070030237ACE490C27EF090C27EE0FBC32D
:1037320094084003023846E47F01FEFDFCA3E0F951
:10374200F8120A4CEB25E025E02484F582E434618A
:10375200F583120A6FEB5FFFEA5EFEE95DFDE85C4E
:10376200FC4D4E4F603C90C27EE025E025E0248473
:10377200F582E43461F583120A5F784AE625E02592
:10378200E024A4F582E43461F583120A6FEB5FFF53
:10379200EA5EFEE95DFDE85CFC90BAAB120A7F02CC
:1037A200384690C27EE004F08080E490C27EF090C1
:1037B200C27EE0FBC394084003023846E47F01FE68
:1037C200FDFCA3E0F9F8120A4CEB25E025E0248485
:1037D200F582E43461F583120A6FEB5FFFEA5EFE65
:1037E200E95DFDE85CFC4D4E4F605090C27EE025E5
:1037F200E025E02484F582E43461F583120A5F1245
:103802000A0DE5425FF542E5415EF541E5405DF5B1
:1038120040E53F5CF53FE47F01FEFDFC90C27FE0A6
:10382200F9F8120A4CE5424FF542E5414EF541E501
:10383200404DF540E53F4CF53F800990C27EE004E3
:10384200F00237B190C27DE075F009A42467F582D9
:0F385200E5F034BBF583E0FF7E00E4FD12135573
:10386100805990C27DE075F009A42467F582E5F0E6
:1038710034BBF583E0FF02603F90BAA7E07004A378
:10388100E0642A703974A590BAB3F0A3F0AF42AEE8
:1038910041AD40AC3FA3120A7F90BAA5E0FEA3E080
:1038A100FF7C007D56120729E4FD7B017ABA79B3CA
:1038B10090C287F0A3742BF01246C6020BD990BBBD
:1038C1000BE0FEA3E0FF7D1F7CF8127C1D90BAA7E0
:0738D100E4F0A3742AF022C9
:10689600E490BB10F0127D8A90617C74019324FF12
:1068A600FBE49334FFFA90617E74019324FFFEE4C7
:1068B6009334FF90C294F0A3CEF0A3746BF0A3744C
:0A68C6004DF0E4FDFCFFFE127538F2
:1068D000E490C4D9F090C4D9E0FFC39406504CEFC3
:1068E00075F080A4FDACF02480FEE43C90C28DF0F5
:1068F000A3CEF0E4A3F0A3F0A3741BF0A37436F0CE
:10690000A3E4F0A37452F074FFA3F0A3F0FB7A04A5
:10691000E4FFFE1257BAAC06AD077BFF7A617971CE
:0B69200012692E90C4D9E004F080AA98
:03692B00024AB667
:100BD900E490BB10F0127D8A90C2947403F0A37460
:100BE9001FF0A3746BF0A3744DF07BFF7A04E4FD4E
:100BF900FCFFFE127538906182E493FE740193FF45
:100C0900C390617E7401939FFDE4939EFC90617C87
:100C190074019324FFFBE49334FFFA90617E74011D
:100C29009324FFFEE49334FF90C294F0A3CEF0A383
:100C39007440F0A37410F0E4FFFE12753890617CE3
:100C4900740193247FFFE49334FFFE90617E740165
:100C590093247FFDE49334FFFCE490C282F0A3F077
:100C69007B281258A8E490C294F0A3F0A37452F020
:100C7900A3748AF0E4FBFAFDFCFFFE12753890BB01
:100C890009EEF0A3EFF090C294E4F0A374DCF0E471
:100C9900A3F0A3F07BFF7A047DD2FCFFFE12753826
:100CA90090C294E4F0A37480F0A3744DF0A374E5AA
:100CB900F07BFF7A04E4FDFC7F7F7E041275389097
:100CC900C28DE4F0A37480F0A3742AF07BFF7A0448
:100CD900E4FDFC7F7F7E04126EB5906182E493FE91
:100CE900740193FF24FFFBEE3403FAEF249FFFEE18
:100CF900340290C28DF0A3EFF0A3742AF07E04129F
:100D09006EAF906182E493FE740193FF24FFFBEEC2
:100D19003403FAEF249FFFEE340290C28DF0A3EF63
:100D2900F0E4A3F0A3F0A37420F0A37440F0A3E4CB
:100D3900F0A37452F074FFA3F0A3F0FF7E031257DF
:100D4900BA90BB0BEEF0FCA3EFF0FD7BFF7A617963
:100D59007890BAA5E0FFA3E090C2B9CFF0A3EFF075
:100D690012692E906182E493FE740193FF24FFFBC4
:100D7900EE3403FAEF249FFFEE340290C28DF0A304
:0B0D8900EFF0A3742AF07E03126EAF9F
:100D9400E5425401FFE4FEFDFCEF60059061A48090
:100DA400039061A8120A5FEF5542FFEE5541FEED34
:100DB4005540FDEC553FFC90C272120A7FE5425447
:100DC40010FFE4FEFDFCEF7008E5425420FFEF60E5
:100DD4002990C272E0F8A3E0F9A3E0FAA3E0FB9043
:100DE4006198120A5F120A0DEB5FFFEA5EFEE95D8D
:100DF400FDE85CFC90C272120A7FE4FFE5415402F4
