:0B00F800FFFF4457494E54350239F316
:0E1C2B007B0190BD88E4F0A304F07F147E00DE
:101C390090BD83EEF0A3EFF0A3EBF0A3EAF0A3E9E4
:011C4900F0AA
:101C4A00E490BD8AF0A3F0A3F0A3F0A3F0A3F0A35D
:101C5A00F0A3F090BD88E0FAA3E0FB4A7003021DEE
:101C6A00F890BD83E0FEA3E0FFC3E49FFFE49EFE7D
:101C7A00E4FCFD90BD92120AC4AF03AE02E4FCFD7F
:101C8A0090BD92E0F8A3E0F9A3E0FAA3E0FBC31247
:101C9A000A48501190BD92A3A3E0FFA3E090BD882B
:101CAA00CFF0A3EFF090BD83E0FCA3E0FDECC313FB
:101CBA00FFED1390BD8ACFF0A3EFF0ED5401FFA31F
:101CCA00E4F0A3EFF0C2AFE4F5F190BD8AE0FCA323
:101CDA00E0FDECF5F28DF375F40175F8AF30FCFD1B
:101CEA0090BD8CE07002A3E0603DD2FE20FEFD9024
:101CFA00BD85E0FBA3E475F00112084EA9F0FAE5F0
:101D0A00FC1207BF90BD85E0FBA3E475F001120841
:101D1A004EA9F0FAE5FD1207BF90BD89E024FFF055
:101D2A0090BD88E034FFF090BD88E0FCA3E0FDECB4
:101D3A00C313FFED1390BD8ECFF0A3EFF0ED540166
:101D4A00FFA3E4F0A3EFF090BD8E74FFF5F0120844
:101D5A004E45F0605BD2FE20FEFD90BD85E0FBA300
:101D6A00E475F00112084EA9F0FAE5FA1207BF90DD
:101D7A00BD85E0FBA3E475F00112084EA9F0FAE56F
:101D8A00FB1207BF90BD85E0FBA3E475F0011208C2
:101D9A004EA9F0FAE5FC1207BF90BD85E0FBA3E46B
:101DAA0075F00112084EA9F0FAE5FD1207BF8097F7
:101DBA0090BD90E07002A3E0602FD2FE20FEFD905D
:101DCA00BD85E0FBA3E475F00112084EA9F0FAE51F
:101DDA00FA1207BF90BD85E0FBA3E475F001120873
:0E1DEA004EA9F0FAE5FB1207BFE4F5F8D2AF00
:011DF80022C8
:1024990090BEB8EEF0A3EFF0A3EBF0A3EAF0A3E946
:0124A900F042
:1024AA00E490BEBFF0A3F0A3F0A3F0A3F0A3F090D2
:1024BA00BEBDE07002A3E0700302262B90BEB8E016
:1024CA00FEA3E0FFC3E49FFFE49EFED390BEBEE0FE
:1024DA009F90BEBDE09E4005EEF0A3EFF090BEB81F
:1024EA00E0FAA3E0FBEAC313FCEB13FDEB5401FF94
:1024FA0090BEBFE4F0A3EFF0C2AFE4F5F1ECF5F261
:10250A00AF058FF375F40175F88330FCFD90BEBFFB
:10251A00E07002A3E0603D90BEBAE0FBA3E475F070
:10252A000112084EA9F0FA120779F5FC90BEBAE03A
:10253A00FBA3E475F00112084EA9F0FA120779F527
:10254A00FDD2FE20FEFD90BEBEE024FFF090BEBD8F
:10255A00E034FFF090BEBDE0FCA3E0FDECC313FF46
:10256A00ED1390BEC1CFF0A3EFF0ED5401FFA3E449
:10257A00F0A3EFF075F88F90BEC174FFF5F0120862
:10258A004E45F0605B90BEBAE0FBA3E475F0011221
:10259A00084EA9F0FA120779F5FA90BEBAE0FBA341
:1025AA00E475F00112084EA9F0FA120779F5FB90CA
:1025BA00BEBAE0FBA3E475F00112084EA9F0FA12C4
:1025CA000779F5FC90BEBAE0FBA3E475F0011208A6
:1025DA004EA9F0FA120779F5FDD2FE30FE9980FB7A
:1025EA0090BEC3E07002A3E0603275F88C90BEBA68
:1025FA00E0FBA3E475F00112084EA9F0FA1207797C
:10260A00F5FA90BEBAE0FBA3E475F00112084EA9F0
:10261A00F0FA120779F5FBD2FE20FEFDE4F5F8D2B6
:01262A00AF00
:01262B00228C
:10423300C2AFC2D3C2D4E4F58E75C870F5CDF5CC48
:1042430075CBBC75CACDD2ADD2C8F5937594017543
:10425300950275C960F5F875F901F5A8F5B8F59AF1
:07426300F5A9F5B902433093
:104330007F007E80E4F51EF51F0FEFAC0670010EC6
:1043400014F5828C83E4F0051FE51F7002051EB48E
:0743500000E7E51EB480E266
:014357002243
:1043C90090C2F8120AD055AA5AA57B017AC279F887
:1043D90090BEBDE4F0A37402F07F047E000224992C
:044496007FF47E0130
:10449A00EF4E6010E4FD0DEDC3941840F9EF1F7064
:0444AA00EF1E80EC95
:0144AE0022EB
:103C990090C29D745AF0A374A5F0A3EEF0A3EFF0BF
:103CA900A3EBF0A3EDF090C29CE0600A90C2A3E4FC
:103CB900F0A304F08007E490C2A3F0A3F07B017A9B
:103CC900C2799D90BEBDE4F0A37404F07FB07E007C
:103CD9001224991244967B017AC2799D90BD88E499
:103CE900F0A304F07FB07E00121C3990C29DE070F1
:013CF900E2E8
:013CFA0022A7
:0541F40090C2E4EFF0B1
:1041F9007B017AC279E590BD88E4F0A37402F07F6F
:10420900A07E00121C3990C2E4E0A3F0A37401F06F
:10421900E490C2E8F07B017AC279E590BEBDF0A3D3
:0A4229007402F07FA07E00022499C9
:102DCD0090C171E0FB90C2C6F090C172E0FCA3E02F
:102DDD00FDA3E0FEA3E0FF7810120A5990C2C7EFE1
:102DED00F090C172E0FCA3E0FDA3E0FEA3E0FF784C
:102DFD0008120A5990C2C8EFF090C172A3A3A3E0C4
:102E0D0090C2C9F090C176E0FCA3E0FDEC90C2CA7F
:102E1D00F0A3EDF090C178E0FCA3E0FDEC90C2CC06
:102E2D00F0A3EDF0EBB4A52890C17AE0FBA3E0FA96
:102E3D00A3E04A4B601A90C176E0FEA3E0FF90C17B
:102E4D007AA3A3E0F990BEBDECF0A3EDF0122499A6
:102E5D007B017AC279C690BEBDE4F0A37404F07F05
:102E6D00087E001224991244967B017AC279C6908D
:102E7D00BD88E4F0A304F07F087E00121C3990C2D7
:102E8D00C6E070E290C171E0B45A2F90C17AE0FBB8
:102E9D00A3E0FAA3E04A4B602190C176E0FEA3E0E7
:102EAD00FF90C17AA3A3E0F990C178E0FDA3E09073
:102EBD00BD88CDF0A3EDF0121C397F327E000240AB
:012ECD0055AF
:102B9A0090C2A5745AF090C161E090C2A6F0640197
:102BAA00706790C162A3E090C2A7F090C164E0FC94
:102BBA00A3E0FDA3E0FEA3E0FF7810120A5990C239
:102BCA00A8EFF090C164E0FCA3E0FDA3E0FEA3E05F
:102BDA00FF7808120A5990C2A9EFF090C164A3A322
:102BEA00A3E090C2AAF090C168E0FCA3E0FDEC90DB
:102BFA00C2ABF0A3EDF090C16AE0FCA3E0FDEC905B
:102C0A00C2ADF0A3EDF0E4803B90C161E0640270D4
:102C1A0037A3E0FCA3E0FDEC90C2A7F0A3EDF0908F
:102C2A00C168E0FCA3E0FDEC90C2A9F0A3EDF0902E
:102C3A00C16FE0FCA3E0FDEC90C2ABF0A3EDF0E4C1
:102C4A00A3F0A3F0A3F0A3F07B017AC279A590BE0A
:102C5A00BDE4F0A37406F07FAA7E00122499124400
:102C6A00967B017AC279A590BD88E4F0A304F07F2F
:102C7A00AA7E00121C3990C2A5E070E290C161E000
:102C8A00B4012F90C16CE0FBA3E0FAA3E04A4B60C9
:102C9A002190C168E0FEA3E0FF90C16CA3A3E0F914
:102CAA0090C16AE0FDA3E090BD88CDF0A3EDF012DB
:092CBA001C397F327E00024055F6
:0F4557007AC37903121C2B90C303E0FEA3E0FF8D
:014566002232
:083B3E0090C2DEEEF0A3EFF0EF
:103B4600A3745AF0A37401F090C2DEE0FCA3E0FD7A
:103B5600EC90C2E2F0A3EDF07B017AC279E090BE70
:103B6600BDE4F0A37402F07F847E0012249912440F
:103B7600967B017AC279E090BD88E4F0A3740212C4
:103B86001C3490C2DEE0FEA3E0FFA3E0B506DFA38F
:103B9600E0B507DAE490C2E0F0A3F0A3F0A3F07B6F
:103BA600017AC279E090BEBDF0A37402F07F167E62
:043BB600000224994C
:0840550090BD83EEF0A3EFF033
:10405D00E4A3F0A3F090BD83E0FEA3E0FFC390BD09
:10406D0086E09F90BD85E09E5025E4FBFA7F017EA2
:10407D000012449A0BBB00010ABA01F1BB2CEE9061
:0F408D00BD86E004F070CE90BD85E004F080C6E3
:01409C002201
:10409D00EF14601814602314602E2403703974011A
:1040AD00A805088002C333D8FC42B7227401A805C5
:1040BD00088002C333D8FC42BC227401A8050880D5
:1040CD0002C333D8FC42BD22AF057401A807088096
:0840DD0002C333D8FC42BE22ED
:103FC000EF1460191460251460312403703D7401EE
:103FD000A805088002C333D8FCF452B7227401A8A4
:103FE00005088002C333D8FCF452BC227401A80532
:103FF000088002C333D8FCF452BD22AF057401A877
:0C40000007088002C333D8FCF452BE2233
:10376900EF14602D14604A14606724036003023764
:10377900FBEB600E7401A805088002C333D8FC4234
:1037890080227401A805088002C333D8FCF4528052
:1037990022EB600E7401A805088002C333D8FC42ED
:1037A90090227401A805088002C333D8FCF4529012
:1037B90022EB600E7401A805088002C333D8FC42CD
:1037C900A0227401A805088002C333D8FCF452A0D2
:1037D90022EB600E7401A805088002C333D8FC42AD
:1037E900B022AF057401A807088002C333D8FCF4DE
:0337F90052B022A9
:103E7A00EF14601A1460271460342403704274012A
:103E8A00A805088002C333D8FC5580FE803474012B
:103E9A00A805088002C333D8FC5590FE802474011B
:103EAA00A805088002C333D8FC55A0FE8014AF05CC
:103EBA007401A807088002C333D8FC55B0FE8002FB
:043ECA00E4FEAF065D
:013ECE0022D1
:102FAC007B017AC279CE90BD88E4F0A37404F07FE3
:102FBC00167E00121C3990C2CEE0645A60030230B7
:102FCC0071A3E0FFB40134A3E0FCA3E0FD90C18247
:102FDC00ECF0A3EDF090C188ECF0A3EDF090C2D230
:102FEC00E0FCA3E0FD90C186ECF0A3EDF090C1AD48
:102FFC00ECF0A3EDF0A37401F08030EFB403269055
:10300C00C180E0FFA3E090C1ADCFF0A3EFF090C181
:10301C007EE0FFA3E090C188CFF0A3EFF090C1AFAA
:10302C007402F0800690C1AF7403F090C2D0E0FF40
:10303C00A3E090C17ECFF0A3EFF090C2D2E0FFA34B
:10304C00E090C180CFF0A3EFF0E490C2CEF07B0112
:10305C007AC279CE90BEBDF0A37402F07F167E00CA
:10306C00122499801190C2CFE0FF64026003EF70CC
:0B307C0005E490C1AFF090C1AFE0FF91
:013087002226
:081A420090C2B1EEF0A3EFF039
:101A4A00122FAC90C2B3EFF0700690C17DF0FF2266
:101A5A0090C2B3E0B4010F7AC17984121C2B90C1F1
:101A6A007D7401F0FF2290C184E0FEA3E0FF90C2E2
:101A7A00B1E06E7003A3E06F60037F012290C17E24
:101A8A00E0FEA3E0FFC390C183E09FFF90C182E024
:101A9A009E90C1B0F0A3EFF090C1B0E0FCA3E0FDCE
:101AAA00FFAE041207D1EE3395E0FDFC90C2B412EA
:101ABA000AC490C180E0FEA3E0FFC390C187E09F03
:101ACA00FF90C186E09E90C1B2F0A3EFF090C1B240
:101ADA00E0FCA3E0FDFFAE041207D1EE3395E0FD72
:101AEA00FC90C2B8120AC490C2B3E0640270799042
:101AFA00C17DE06401706B7F09FEFDFC90C2B8E015
:101B0A00F8A3E0F9A3E0FAA3E0FBC3120A48501ACB
:101B1A00E47F09FEFDFC90C2B4E0F8A3E0F9A3E07B
:101B2A00FAA3E0FBC3120A484038E47F02FEFDFC38
:101B3A0090C2B8E0F8A3E0F9A3E0FAA3E0FB120927
:101B4A001E90C2B4E0F8A3E0F9A3E0FAA3E0FBD345
:101B5A00120A4890C17D50057403F0FF227404F004
:101B6A00FF2290C17DE0FF2290C17DE06401706E8A
:101B7A007F09FEFDFC90C2B8E0F8A3E0F9A3E0FA01
:101B8A00A3E0FBC3120A48501AE47F09FEFDFC9049
:101B9A00C2B4E0F8A3E0F9A3E0FAA3E0FBC3120A97
:101BAA00484038E47F02FEFDFC90C2B8E0F8A3E0AA
:101BBA00F9A3E0FAA3E0FB12091E90C2B4E0F8A36D
:101BCA00E0F9A3E0FAA3E0FBD3120A4890C17D50E2
:101BDA00057403F080087404F080037F022290C128
:101BEA007DE0B4031E90C180E0FEA3E0FFC390C174
:101BFA00AEE09FFF90C1ADE09E90C1B6F0A3EFF0BA
:101C0A007F052290C17EE0FEA3E0FFC390C189E078
:101C1A009FFF90C188E09E90C1B4F0A3EFF07F06C9
:011C2A002297
:0444C80002180000D6
:10444500758911E4F58CF58AC28CF51AF51C43893A
:0C44550001758CBC758ACDD2A9D28C22D6
:03000B00023BBAFB
:0D3BBA00C0E0C0D075D000C000C006C0073C
:103BC700C2AF758CBC758ACD051B751D0074017E4F
:103BD70000A81D088005C333CE33CED8F9FFEF55B3
:103BE7001C602DE51D25E02408F808E6161870016D
:103BF70016E51D25E02408F8E6FE08E64E7011AF2D
:103C07001D04A807088002C333D8FC421AF4521CCB
:093C1700051DE51DB408B6D2AF8D
:0B3C2000D007D006D000D0D0D0E0329A
:03002B0002450B80
:10450B00C0E0C2AFC2C6D2AF0519E51970020518DB
:03451B00D0E032BB
:1043A700C2AF7401A807088002C333D8FCFE421CC1
:1043B700EF25E02408F8A60408A605EEF4521AD261
:0243C700AF2223
:1044E100C2AF7401A807088002C333D8FCF4521C80
:0544F100521AD2AF22B7
:10451E00C2AF7401A807088002C333D8FC551AFF36
:02452E00D2AF0A
:014530002268
:0B442800D2B37F05124433D2B27F05EF
:10443300EF600EE4FE0EC3EE648094B240F71F807B
:01444300EF89
:014444002255
:0445A10053BEF722EC
:0445A50043BE0822E7
:10447C001245A5D2B3D2B27F0F124433C2B37F0F11
:0A448C00124433C2B27F0F02443322
:0A43E9007F0F12427AAF0312427AEE
:1043F3001245A5C2B3D2B27F0F124433D2B37F0F9B
:064403001244330245A142
:0F4567001245A5C2B312442AC2B27F05024433E3
:0D4585001245A5124428C2B27F050244333E
:104409001245A1124428E4FD30B30A7F0512443352
:0F4419000DEDB432F3C2B27F051244330245A554
:10426A0012427AE0FF12427A1243F312447C7F64CC
:02427A00AD078E
:10427C001245A5E4FCED30E704D2B38002C2B3EDE5
:10428C0025E0FD12442AC2B27F051244330CECB473
:05429C0008E3024409E3
:0D42A1007F0F12427A12447C7F6512427A30
:1042AE001245A1E4FC12442AED25E0FD30B305448D
:1042BE0001FD8004ED54FEFDC2B27F051244330CA5
:0642CE00ECB408E1AF05AD
:0142D40022C7
:103217001242751242A1AB071245671242AEAA07C6
:103227001245851243F3EB20E0030232C554846054
:103237000AEB547BFB1242751243E9EB54FEFBEA9F
:1032470030E713547FFA1242757F1012427AAF02A9
:1032570012427A1243F3EA4480FA1242757F10123F
:10326700427AAF0212427A1243F3EB4484FB1242D2
:10327700757F0F12427AAF0312426FE4FF12427A50
:10328700E4FF12427AE4FF12427A7F8012427A7F89
:103297000512427A7F0112427A7F0112427A7F2118
:1032A70012427A1243F3EB547BFBEA547FFA124241
:0E32B700757F1012427AAF0212426F1243E985
:0132C50022E6
:1034D1001242751242A190C305EFF01245671242E4
:1034E100AEA3EFF01245851243F3E04480F012429F
:1034F100757F1012427AE0FF12427A1243F390C3B1
:1035010005E04484F01242757F0F12426AE4FF1213
:10351100427A900006120792FF12427A9000051239
:103521000792FF12427A900004120792FF12427A28
:10353100900003120792FF12427A90000212079242
:10354100FF12427A900001120792FF12427A12078B
:1035510079FF12427A1243F390C305E0547BF0A342
:10356100E0547FF01242757F1012426A7F0F1242BF
:0C3571007A90C305E0FF12427A0243F397
:10315A00124275E4FF12427A12447C7F6512427A67
:10316A007B061242AE74BC2BF582E434C2F583EFBF
:10317A00F0124567DBEC1242AE90C2BCEFF012458A
:10318A00851243F390C2C0E0547FF0E4FB74BC2B79
:10319A00F582E434C2F583E0FFC4540FFE90C2C442
:1031AA00F0EF540FFFA3F0EE75F00AA42FFF74BCE2
:1031BA002BF582E434C2F583EFF00BEBB403CE7B3C
:1031CA000474BC2BF582E434C2F583E0FFC4540FC7
:1031DA00FE90C2C4F0EF540FFFA3F0EE75F00AA4FC
:1031EA002FFF74BC2BF582E434C2F583EFF00BEBAE
:1031FA00B407CEE490C2C3F07B017AC279BC90BE18
:0D320A00BDF0A37404F07F107E0002249933
:10453100EF75F00A84C454F0FEEF75F00A84E5F0DB
:034541004EFF2208
:0F457600EFC4540F75F00AA4FEEF540F2EFF226E
:07388D0090C2E9EBF0AB076C
:10389400ED64016004EDB4021BED240CFEE43390EE
:1038A400C2EAF0A3CEF0EB24FFFEE434FFA3F0A3BE
:1038B400CEF08012AF0590C2EAE4F0A3EFF0AF03BC
:1038C400A3E4F0A3EFF090C2EBE02401FF90C2EA7E
:1038D400E03400FE7C007D1A1207D17D0A1207E352
:1038E400AC06AD0790C2ECE0FAA3E0FBAE027802AE
:1038F400CEC313CE13D8F92BFFEA3ECF2DCF3CFE17
:1039040090C2E9E07C002FFFEC3ECF24DCCF34FFF3
:08391400FE7D071207E3AF0579
:01391C002288
:1032C6007B017AC2797990BD88E4F0A37404F07F1B
:1032D6009C7E00121C3990C279E0645A6003023366
:1032E60074A3E064A56003023374A3E0FF124531C2
:1032F60090C281EFF090C27CE0FF12453190C2820D
:10330600EFF090C27DE0FF12453190C283EFF0905E
:10331600C27BE0FFA3E0FDA3E0FB12388D90C284E0
:10332600EFF090C27EE0FF12453190C285EFF04487
:1033360080F090C27FE0FF12453190C286EFF09098
:10334600C280E0FF12453190C287EFF07B017AC25E
:1033560079811234D1E490C279F0A3F07AC27979F6
:0E33660090BEBDF0A304F07F9C7E001224995F
:013374002236
:1044AF007D027F0312409D7D037F0312409D1231D9
:0944BF005AE4F518F5190232C6A1
:103F7200AB07AA06A905A8047F007E387D317C0024
:103F82001209A9C3E49F90BD89F074049E90BD8874
:103F9200F043C9407D04E4FF12409D7D05E4FF1219
:103FA2003FC043803075D88075985090BD88E0FC42
:0D3FB200A3E0FDECF5BA8DAA43A810D2AC37
:013FBF0022DF
:10400C00AB07AA06A905A8047F007E707D627C0020
:10401C001209A9C3E49F90BD89F074049E90BD88D9
:10402C00F043C9207D06E4FF12409D7D07E4FF129A
:10403C003FC04380C0759B9090BD88E0FCA3E0FD21
:08404C00ECF5BB8D9D439A01C8
:014054002249
:10435800759680759780AB07AA06A905A8047F0003
:104368007EC07D897C011209A9AD07AC06ECF5D9A0
:07437800AF058FE743B80C0D
:01437F00221B
:1041730075A78075AB80AB07AA06A905A8047F00C5
:104183007EC07D897C011209A9AD07AC06ECF5AEB2
:10419300AF058FAF43B830E490A01BF0A3F0A3F0BA
:1041A300A3F090A023F090A01FF0A3F0A3F0A3F03E
:0141B30022E9
:103ECF00EF14601B1460291460372403704490BDF5
:103EDF0084E0FCA3E0FDA3E0FEA3E0FF023F7290AD
:103EEF00BD84E0FCA3E0FDA3E0FEA3E0FF02400CD5
:103EFF0090BD84E0FCA3E0FDA3E0FEA3E0FF02433E
:103F0F005890BD84E0FCA3E0FDA3E0FEA3E0FF1208
:033F1F00417322C9
:101DF90090C2D6EFF0A3ECF0A3EDF0A3EBF0A3EAC9
:041E0900F0A3E9F069
:101E0D00C2AFE4A3F0A3F090C2D7E0FEA3E0FFC3FE
:101E1D0090C2DDE09F90C2DCE09E4003021ED19097
:101E2D00C2D9E0FBA3E475F00112084EA9F0FA1235
:101E3D000779FF90C2D6E0FE75F009A42400F58263
:101E4D00E5F03488F583EE75F008A42583F583E07D
:101E5D00FCA3E0FD75F009EEA42400F582E5F03455
:101E6D0080F583EE75F008A42583F583E5822DF5C5
:101E7D0082E5833CF583EFF075F009EEA42400F5BF
:101E8D0082E5F03488F583EE75F008A42583F5839B
:101E9D00E475F00112083875F009EEA42400F582FE
:101EAD00E5F03488F583EE75F008A42583F583E01D
:101EBD005403F090C2DDE004F0700690C2DCE00443
:101ECD00F0021E1490C2D6E01460421460701470BB
:101EDD0003021F7924036003021FA9908808E060A4
:101EED0003021FA904F0908802E0FEA3E02400F590
:101EFD008274803EF583E0F599908803E004F070DC
:101F0D0006908802E004F0908802021FA5909011BF
:101F1D00E06003021FA904F090900BE0FEA3E02403
:101F2D0009F58274883EF583E0F59C90900CE004F1
:101F3D00F0700690900BE004F090900B805A909802
:101F4D001AE0705804F0909814E0FEA3E02412F506
:101F5D008274903EF583E0F59E909815E004F07044
:101F6D0006909814E004F0909814802C90A023E033
:101F7D00702A04F090A01DE0FEA3E0241BF58274EE
:101F8D00983EF583E0F5AC90A01EE004F07006904D
:0E1F9D00A01DE004F090A01DE05403F0D2AFB0
:011FAB002213
:0300230002391D82
:10391D00C0E0C083C082C0D075D000C006C007C251
:10392D00AF30982AC298908804E0FEA3E02400F5F9
:10393D008274843EF583E599F0908805E004F0707B
:10394D0006908804E004F0908804E05403F0309968
:10395D003FC299908802E0FEA3E0FF908800E06EE0
:10396D007003A3E06F602474002FF58274803EF520
:10397D0083E0F599908803E004F07006908802E0EA
:10398D0004F0908802E05403F08005908808E4F07C
:0F399D00D2AFD007D006D0D0D082D083D0E032C6
:03005300023CFB71
:103CFB00C0E0C083C082C0D075D000C006C007C270
:103D0B00AF5396FE909814E0FEA3E0FF909812E05C
:103D1B006E7003A3E06F602474122FF58274903ED3
:103D2B00F583E0F59E909815E004F07006909814DA
:103D3B00E004F0909814E05403F0800590981AE496
:103D4B00F0D2AFD007D006D0D0D082D083D0E03223
:03005B000240E57B
:1040E500C0E0C083C082C0D075D000C006C2AF5347
:1040F50097FE909816E0FEA3E02412F58274943E94
:10410500F583E59FF0909817E004F07006909816F7
:10411500E004F0909816E05403F0D2AFD006D0D06A
:07412500D082D083D0E0320C
:03006300023D5B00
:103D5B00C0E0C083C082C0D075D000C006C007C20F
:103D6B00AF53A7FE90A01DE0FEA3E0FF90A01BE0C9
:103D7B006E7003A3E06F6024741B2FF58274983E62
:103D8B00F583E0F5AC90A01EE004F0700690A01D4A
:103D9B00E004F090A01DE05403F0800590A023E414
:103DAB00F0D2AFD007D006D0D0D082D083D0E032C3
:03006B0002412C23
:10412C00C0E0C083C082C0D075D000C006C2AF53FF
:10413C00ABFE90A01FE0FEA3E0241BF582749C3E16
:10414C00F583E5ADF090A020E004F0700690A01F80
:10415C00E004F090A01FE05403F0D2AFD006D0D012
:07416C00D082D083D0E032C5
:030083000236CE74
:1036CE00C0E0C083C082C0D075D000C006C007C2A3
:1036DE00AFE59B30E02E759B90539BFE90900DE0D6
:1036EE00FEA3E02409F582748C3EF583E59CF090F0
:1036FE00900EE004F0700690900DE004F090900DA6
:10370E00E05403F0E59B30E143759B90539BFD9095
:10371E00900BE0FEA3E0FF909009E06E7003A3E033
:10372E006F602474092FF58274883EF583E0F59C52
:10373E0090900CE004F0700690900BE004F09090E6
:10374E000BE05403F08005909011E4F0D2AFD00757
:0B375E00D006D0D0D082D083D0E03263
:1037FC0090C300EBF0A3EAF0A3E9F07D02E4FF1222
:10380C00409D7D03E4FF123FC07B017D02E4FF126B
:10381C00376943C98075F1FFE4F5F275F36075F40F
:10382C000175F88F30FCFD90C300E0FBA3E0FAA318
:10383C00E0F9120779F5FA900001120792F5FB9066
:10384C000002120792F5FC900003120792F5FDD2CC
:10385C00FE20FEFDE4F5FAF5FBF5FCF5FDD2FE20AD
:10386C00FEFD75FAFF75FBFF75FCFF75FDFFD2FEC3
:10387C0020FEFDE4F5F8758FA0E58F20E5FBD2B9AD
:01388C002219
:10446100E5E830E51553E8DF438F407FE87E03122E
:0B447100449A538FBFE490BA28F02259
:1027A50075F1FFE4F5F275F36475F40175F88F3092
:1027B500FCFD90BA27E075F00DA42424F582E5F020
:1027C50034ADF583E0F5FAE4F5FBF5FCF5FDD2FE55
:1027D50020FEFD90BA27E0FB75F00DA42425F582B7
:1027E500E5F034ADF583E0FCA3E0FDA3E0FEA3E056
:1027F500FF7818120A598FFA75F00DEBA42425F508
:1028050082E5F034ADF583E0FCA3E0FDA3E0FEA393
:10281500E0FF7810120A598FFB90BA27E0FB75F09C
:102825000DA42425F582E5F034ADF583E0FCA3E0A5
:10283500FDA3E0FEA3E0FF7808120A598FFC75F0AE
:102845000DEBA42425F582E5F034ADF583A3A3A310
:10285500E0F5FDD2FE20FEFD90BA27E0FF75F00DF4
:10286500A42429F582E5F034ADF583E0F5FA75F099
:102875000DEFA4242AF582E5F034ADF583E0F5FBF0
:1028850090BA27E0FF75F00DA4242BF582E5F0340E
:10289500ADF583E0F5FC75F00DEFA4242CF582E58C
:1028A500F034ADF583E0F5FDD2FE20FEFD90BA27AC
:1028B500E0FF75F00DA4242DF582E5F034ADF58328
:1028C500E0F5FA75F00DEFA4242EF582E5F034ADB0
:1028D500F583E0F5FB90BA27E0FF75F00DA4242FF2
:1028E500F582E5F034ADF583E0F5FC75F00DEFA468
:1028F5002430F582E5F034ADF583E0F5FDD2FE2018
:0C290500FEFD90BA27E004F0E4F5F82293
:0617CB0090C262120AC484
:1017D100D390C268E0940090C267E094084003028D
:1017E1001A4190C266E0FB90C26230E70FE0FCA3B1
:1017F100E0FDA3E0FEA3E0FF7803800DE0FCA3E0A1
:10180100FDA3E0FEA3E0FF7815120A6C90C27112ED
:101811000AC490BA26E0FA75F00DA42424F582E5F5
:10182100F034ADF583E030E63890C271E0FCA3E01E
:10183100FDA3E0FEA3E0FF75F00DEAA42425F582E7
:10184100E5F034ADF583120AC4EB54C0FF75F00D19
:10185100EAA42424F582E5F034ADF583EFF0021A11
:101861002590C267E0FCA3E0FDAE047803CEC3136C
:10187100CE13D8F990C26FF0ED5407A3F0E490C2F3
:101881006EF090C266E054C0FFE4FCFDFE90C275AC
:10189100120AC4E490C26CF090C26FE0FF90C26C77
:1018A100E0C39F400302195090C271E0FCA3E0FD28
:1018B100A3E0FEA3E0FF90BA26E0FB75F00DA4249F
:1018C10025F582E5F034ADF583120AC490C275E0C6
:1018D100FCA3E0FDA3E0FEA3E04408FF75F00DEBDF
:1018E100A42424F582E5F034ADF583EFF0E490C251
:1018F1006DF090C26DE0FFC39408504490C269E05E
:10190100FBA3E0FAA3E0F990C26EE0F582758300D3
:10191100120792FE90BA26E075F00DA42429F582F3
:10192100E5F034ADF583E5822FF582E43583F58367
:10193100EEF090C26EE004F090C26DE004F080B26F
:1019410090BA26E004F090C26CE004F0021899907D
:10195100C270E0FB7003021A2BA3E0FCA3E0FDA31D
:10196100E0FEA3E0FF90BA26E075F00DA42425F572
:1019710082E5F034ADF583120AC4AF0390C275A3BA
:10198100E0F9A3E0FAA3E04FFF90BA26E075F00D6D
:10199100A42424F582E5F034ADF583EFF0E490C2A0
:1019A1006DF090C270E0FF90C26DE0FEC39F5044A5
:1019B10090C269E0FBA3E0FAA3E0F990C26EE0F502
:1019C10082758300120792FF90BA26E075F00DA48C
:1019D1002429F582E5F034ADF583E5822EF582E424
:1019E1003583F583EFF090C26EE004F090C26DE0B4
:1019F10004F080AE90C26DE0FFC39408502690BA07
:101A010026E075F00DA42429F582E5F034ADF583C7
:101A1100E5822FF582E43583F583E4F090C26DE031
:101A210004F080D090BA26E004F090BA28E070105B
:101A3100C2AF1227A5D2AF90BA287401F0438F0428
:011A41002282
:03004B000214712B
:10147100C0E0C0F0C083C082C0D075D000C000C041
:0D14810001C002C003C004C005C006C007C2
:10148E00C2AFE59130E70353913FE59120E60302A9
:10149E0017715391BF75F1FF75F20075F36875F40E
:1014AE000175F8AF30FCFDD2FE20FEFD90BD43E588
:1014BE00FAF0E0FF90BA24E075F00DA42424F58232
:1014CE00E5F034A0F583EFF0D2FE20FEFD90BA24B5
:1014DE00E075F00DA42425F582E5F034A0F583C067
:1014EE0083C082E0FCA3E0FDA3E0FEA3E0FF78084A
:1014FE00120A6CD082D083120AC490BA24E075F01E
:10150E000DA42425F582E5F034A0F583C083C082B6
:10151E00E0F8A3E0F9A3E0FAA3E0FBAFFAEB4FFF8C
:10152E00EAFEE9FDE8FCD082D083120AC490BA2408
:10153E00E075F00DA42425F582E5F034A0F583C006
:10154E0083C082E0FCA3E0FDA3E0FEA3E0FF7808E9
:10155E00120A6CD082D083120AC490BA24E075F0BD
:10156E000DA42425F582E5F034A0F583C083C08256
:10157E00E0F8A3E0F9A3E0FAA3E0FBAFFBEB4FFF2B
:10158E00EAFEE9FDE8FCD082D083120AC490BA24A8
:10159E00E075F00DA42425F582E5F034A0F583C0A6
:1015AE0083C082E0FCA3E0FDA3E0FEA3E0FF780889
:1015BE00120A6CD082D083120AC490BA24E075F05D
:1015CE000DA42425F582E5F034A0F583C083C082F6
:1015DE00E0F8A3E0F9A3E0FAA3E0FBAFFCEB4FFFCA
:1015EE00EAFEE9FDE8FCD082D083120AC490BA2448
:1015FE00E075F00DA42425F582E5F034A0F583C046
:10160E0083C082E0FCA3E0FDA3E0FEA3E0FF780828
:10161E00120A6CD082D083120AC490BA24E075F0FC
:10162E000DA42425F582E5F034A0F583C083C08295
:10163E00E0F8A3E0F9A3E0FAA3E0FBAFFDEB4FFF68
:10164E00EAFEE9FDE8FCD082D083120AC490BA24E7
:10165E00E075F00DA42425F582E5F034A0F583C0E5
:10166E0083C082E0FCA3E0FDA3E0FEA3E0FF7803CD
:10167E00120A59D082D083120AC490BD43E020E7EB
:10168E002D90BA24E075F00DA42425F582E5F034F2
:10169E00A0F583C083C082E0FCA3E0FDA3E0FEA31F
:1016AE00E0FF7812120A59D082D083120AC490BD7C
:1016BE0043E030E603021768D2FE20FEFD90BA2406
:1016CE00E0FF75F00DA42429F582E5F034A0F58332
:1016DE00E5FAF075F00DEFA4242AF582E5F034A0BA
:1016EE00F583E5FBF075F00DEFA4242BF582E5F004
:1016FE0034A0F583E5FCF075F00DEFA4242CF582F3
:10170E00E5F034A0F583E5FDF0D2FE20FEFD90BAA3
:10171E0024E0FF75F00DA4242DF582E5F034A0F53C
:10172E0083E5FAF075F00DEFA4242EF582E5F03482
:10173E00A0F583E5FBF075F00DEFA4242FF582E5FF
:10174E00F034A0F583E5FCF075F00DEFA42430F530
:10175E0082E5F034A0F583E5FDF075F80090BA242B
:10176E00E004F0E59130E51A5391DF90BA26E0FFE0
:10177E00A3E06F60081227A5438F04800590BA2856
:10178E00E4F0E59130E4035391EFE59130E3035338
:10179E0091F7E59130E2065391FB438F0475E80013
:0217AE00D2AFB8
:1017B000D007D006D005D004D003D002D001D0008D
:0B17C000D0D0D082D083D0F0D0E03237
:05459C0025303258003B
:0844CC0041BFF20041BFF30003
:0A45920075F90175BCFD7590FD225E
:103E1B0090C0F8EEF0A3EFF0A3EBF0A3EAF0A3E968
:013E2B00F0A6
:103E2C001244F6EF04FDE4FFEFC39D502890C0FA56
:103E3C00E0FBA3E0FAA3E0F98F82758300120792EE
:103E4C00FBEF25E024FDF582E434C0F583E4F0A318
:103E5C00EBF00F80D390C0F8E0FEA3E0FF7B017A7B
:0E3E6C00C079FD90BEBDE4F0A3EDF0022499F4
:103DBB0090C1F9EEF0A3EFF0A3EBF0A3EAF0A3E9C7
:013DCB00F007
:103DCC001244F6EF04FFE4FEEEC39F502890C1FBB3
:103DDC00E0FBA3E0FAA3E0F98E8275830012079250
:103DEC00FDEE25E024FEF582E434C1F583E4F0A376
:103DFC00EDF00E80D390C1F9E0FEA3E0FF7B017AD9
:0F3E0C00C179FE90BEBDE4F0A3743CF00224998E
:10262C00124233124445D2AF124592122ECE90BDB7
:10263C0084120AD00001C2007F03123ECFE490C086
:10264C00F7F090C0F5F090BFF5F090BFF4F01241A8
:04265C00B4121FACE9
:102660007B017ABD794490BD88E4F0A37403F07FC8
:10267000167E00121C3990BD44E0B45AE3E4F07BAE
:10268000017ABD794690BEBDF0A304F07F167E00AE
:0326900012249978
:1026930090BD45E0FF90BD4AE4F0A3EFF07B017AE3
:1026A300BD794A90BEBDE4F0A304F07F007E4012E2
:1026B30024997B017ABD794690BEBDE4F0A37402F0
:0826C300F07F007E5212249901
:0726CB0090BD45E014708E84
:1026D200E490BD4AF090BEC5E0FF90BD4AE0FEC363
:1026E2009F400302278275F009EEA424D3F582E508
:1026F200F034BEF583E0FEA3E0FF90BD46E0FCA30C
:10270200E0FDC39FEC9E406F90BD4AE0FF75F0096B
:10271200A424D7F582E5F034BEF583E0FAA3E0FB0A
:10272200D3ED9BEC9A505075F009EFA424D5F582B5
:10273200E5F034BEF583E0FEA3E0FF90BD48E0FC87
:10274200A3E0FDC39FEC9E402EA3E0FF75F009A419
:1027520024D9F582E5F034BEF583E0FAA3E0FBD399
:10276200ED9BEC9A501190BECEA3E0FAA3E0F58265
:102772008A83120B61800990BD4AE004F00226D7D9
:1027820090BD4AE0FFA3E4F0A3EFF07B017ABD79AC
:102792004B90BEBDE4F0A304F07F007E2512249985
:0327A200022660AC
:0345AD00FF45B017
:0145B00022E8
:103C2B00C2AFE4F5F1F5F275F30A75F40175F8AF6F
:103C3B0030FCFDD2FE20FEFDAFFA90C307E4F0A3EB
:103C4B00EFF0E07F00FE90C307F0A3EFF0ADFBEDCC
:103C5B00FF90C307EEF0A3EFF0E4F5F8D2AF90C3FB
:103C6B0007E0FEA3E0FF9045AD75F003120B01EEEC
:103C7B0075F003A42583F583E493FB740193FA7425
:0D3C8B000293F94A600789828A83120B6157
:013C98002209
:0445A9000F4072004D
:103A380078FC7CC27D017BFF7A4579A97E007F04F2
:103A480012075390BD84120AD00001C200E4FF128D
:103A58003ECF7B017AC279FC1237FC90BA297401F7
:103A6800F0A37484F0A37400F0A37401F0A3748825
:103A7800F0A37404F0A37401F0A37488F0A374068F
:103A8800F0A37404F0A3E4F07B01A304F0A374BAD8
:103A9800F0A3743FF0A3EBF0A374BBF0A3743FF062
:103AA800A3EBF0A374BBF0A37441F0A37401F0A3DB
:023AB800E4F038
:013ABA0022E9
:103ABB007B017ABB794390BD88E4F0A37402F07F5D
:103ACB00007E0F121C3990BB43E0645A7062F07B8E
:103ADB00017ABB794390BEBDF0A37402F07F007EE8
:103AEB000F12249990BB46E0FDC394C840027D643D
:103AFB0090BB44E0FEA3E0FBAA0690BB43745AF0D4
:103B0B00A374A5F0ED25E02404A3F0A37483F0EADD
:103B1B00A3F0A3EBF0A3EDF0AE02AF037B017ABBF6
:103B2B00794A90BD88E4F0A3EDF0121C397F012295
:023B3B007F0009
:013B3D002265
:0B0BD00090C289EBF0A3EAF0A3E9F06B
:100BDB00C2AF900003120B2D120864FFAEF090C24F
:100BEB0094EEF0A3EFF0D2AF90C289E0FBA3E0FA52
:100BFB00A3E0F9900006120B2D120864FDACF06F08
:100C0B007002EC6E7003021109C390C295E09D90C7
:100C1B00C294E09C90C289E0FBA3E0FAA3E0F950F8
:100C2B002190000912088FFF90C295E02FFF90C210
:100C3B0094E035F0CFC39DCF9C90C28CF0A3EFF026
:100C4B00801E900006120B2D120864FFC390C295F4
:100C5B00E09FFE90C294E095F090C28CF0A3CEF092
:100C6B00C390C28DE0940690C28CE0940050037F39
:100C7B00002290C289E0FBA3E0FAA3E0F990000602
:100C8B00120B2D120864FDACF090C289E0FBA3E0BF
:100C9B00FAA3E0F9120B0D8D828C83120792FF9051
:100CAB00C292E4F0A3EFF0E0F8E4F0E890C292F027
:100CBB00ED2401FFE43CFE90C296F0A3EFF090C24E
:100CCB0089E0FBA3E0FAA3E0F990000912088FFD7D
:100CDB00C3EF9DEE95F04007E490C296F0A3F0129F
:100CEB000B0D90C296E0FEA3E0F5828E8312079265
:100CFB00FF90C292E0FEA3E04FFF90C292EEF0FE97
:100D0B00A3EFF064A57003EE645A60030210B49075
:100D1B00C289E0FBA3E0FAA3E0F9900006120B2DC9
:100D2B001208642403FFE435F0FE90C296F0A3EFA3
:100D3B00F090C289E0FBA3E0FAA3E0F9900009125E
:100D4B00088FFDC3EF9DEE95F04007E490C296F03F
:100D5B00A3F0120B0D90C296E0FEA3E0F5828E83FA
:100D6B0012079264826003020EE290C289E0FBA339
:100D7B00E0FAA3E0F9900006120B2D12086424028E
:100D8B00FFE435F0FE90C296F0A3EFF090C289E03D
:100D9B00FBA3E0FAA3E0F990000912088FFDC3EF63
:100DAB009DEE95F04007E490C296F0A3F090C289B7
:100DBB00E0FBA3E0FAA3E0F9120B0D90C296E0FE64
:100DCB00A3E0F5828E831207922403FFE433FE9097
:100DDB00C28EF0A3EFF0C390C28DE09F90C28CE067
:100DEB009E5003021109E490C290F0A3F090C28EC2
:100DFB00E0FEA3E0FFA3E0FCA3E0FDC39FEC9E405D
:100E0B0003020EAE90C289E0FBA3E0FAA3E0F990D7
:100E1B000006120B2D120864FFAEF090C289E0FBA6
:100E2B00A3E0FAA3E0F9120B0D8F828E83120792C7
:100E3B00FF74432DF58274BB3CF583EFF090C289B0
:100E4B00E0FBA3E0FAA3E0F9900006120B2DE4758A
:100E5B00F0011208C790C289E0FBA3E0FAA3E0F906
:100E6B00900006120B2D120864FFAEF090C289E0C1
:100E7B00FBA3E0FAA3E0F990000912088FFDC3EF82
:100E8B009DEE95F0400C900006120B2DE4F5F01240
:100E9B0008FF90C291E004F0700690C290E004F05D
:100EAB00020DF890BB47E0FEA3E0FF7B017ABB7914
:100EBB004990BB45E024FDC313FD90BEBDE4F0A3F8
:100ECB00EDF012249990BB457403F090BB47744F1F
:100EDB00F0A3744B02106590C289E0FBA3E0FAA368
:100EEB00E0F9120B0D90C296E0FEA3E0F5828E8323
:100EFB001207926483600302106990C289E0FBA31E
:100F0B00E0FAA3E0F9900006120B2D1208642402FC
:100F1B00FFE435F0FE90C296F0A3EFF090C289E0AB
:100F2B00FBA3E0FAA3E0F990000912088FFDC3EFD1
:100F3B009DEE95F04007E490C296F0A3F090C28925
:100F4B00E0FBA3E0FAA3E0F9120B0D90C296E0FED2
:100F5B00A3E0F5828E831207922403FFE433FE9005
:100F6B00C28EF0A3EFF0C390C28DE09F90C28CE0D5
:100F7B009E5003021109E490C290F0A3F090C28E30
:100F8B00E0FEA3E0FFA3E0FCA3E0FDC39FEC9E40CB
:100F9B000302103E90C289E0FBA3E0FAA3E0F990B4
:100FAB000006120B2D120864FFAEF090C289E0FB15
:100FBB00A3E0FAA3E0F9120B0D8F828E8312079236
:100FCB00FF74432DF58274BB3CF583EFF090C2891F
:100FDB00E0FBA3E0FAA3E0F9900006120B2DE475F9
:100FEB00F0011208C790C289E0FBA3E0FAA3E0F975
:100FFB00900006120B2D120864FFAEF090C289E030
:10100B00FBA3E0FAA3E0F990000912088FFDC3EFF0
:10101B009DEE95F0400C900006120B2DE4F5F012AE
:10102B0008FF90C291E004F0700690C290E004F0CB
:10103B00020F8890BB47E0FEA3E0FF7B017ABB79F0
:10104B004AA3E0FD90BD88E4F0A3EDF0121C3990AB
:10105B00BB49E025E0240490BB45F07F012290C200
:10106B0089E0FBA3E0FAA3E0F9900006120B2DE454
:10107B0075F0011208C790C289E0FBA3E0FAA3E068
:10108B00F9900006120B2D120864FFAEF090C28986
:10109B00E0FBA3E0FAA3E0F990000912088FFDC36F
:1010AB00EF9DEE95F04057804990C289E0FBA3E09D
:1010BB00FAA3E0F9900006120B2DE475F00112086B
:1010CB00C790C289E0FBA3E0FAA3E0F990000612F7
:1010DB000B2D120864FFAEF090C289E0FBA3E0FA7F
:1010EB00A3E0F990000912088FFDC3EF9DEE95F078
:1010FB00400C900006120B2DE4F5F01208FF7F0058
:01110B0022C1
:102A5E0090BA25E0FF90BA24E06F7003022AF77552
:102A6E00F00DEFA42425F582E5F034A0F583E0FC0B
:102A7E00A3E0FDA3E0FEA3E0FFE47B23FAF9F8C395
:102A8E00120A48705E90BA25E075F00DA42424F564
:102A9E0082E5F034A0F583E0540FFFE4FEEEC39F11
:102AAE00504190BA25E075F00DA42429F582E5F089
:102ABE0034A0F583E5822EF582E43583F583E0FDBF
:102ACE0090BB3FE0FAA3E0243FF58274BA3AF58357
:102ADE00EDF090BB40E004F0700690BB3FE004F0D8
:102AEE000E80BA90BA25E004F0123ABBEF64017082
:102AFE004190BB45E02403FDE433FC7B017ABB79B6
:102B0E0043E4FF121DF9E490C266F090BB45E02449
:102B1E0003FEE43390C267F0A3CEF0A37401F0A3DA
:102B2E0074BBF0A37443F07F237E007D007C001203
:102B3E0017CB7B017ABA7929120BD0BF011590BB46
:102B4E0045E02403FDE433FC7B017ABB7943E4FFCB
:102B5E00121DF97B017ABA7934120BD0BF012CE425
:102B6E0090C266F090BB45E02403FEE43390C2674A
:102B7E00F0A3CEF0A37401F0A374BBF0A37443F0E2
:0B2B8E007F247E007D007C001217CB2E
:012B99002219
:10454400FF988103FF988104FF988101FF988100FF
:03455400351129F5
:0244D400C1091C
:10342400E490C2EEF0A3F0A374B0F0A374FAF0C277
:1034340090C2947F057E0012449AE490C2F2F09008
:10344400C2F0E0A330E704D2928002C292C2937F1A
:10345400057E0012449AD2937F057E0012449A900E
:10346400C2F1E025E0F090C2F0E033F090C2F2E067
:1034740004F0E0C3941040C7D2947F057E00124448
:103484009AE490C2F2F0C2937F057E0012449AD26D
:10349400937F057E0012449A90C2EFE025E0F090FD
:1034A400C2EEE033F0309107E0F0A3E04401F09085
:1034B400C2F2E004F0E0C3941040CBD2907F057ECA
:0C34C4000012449A90C2EEE0FEA3E0FF6C
:0134D00022D9
:10337500E490C2F3F0A3F0EFFF74FAA3CFF0A3EF4C
:10338500F0C290C2947F057E0012449AE490C2F781
:10339500F090C2F5E0A330E704D2928002C292C257
:1033A500937F057E0012449AD2937F057E001244D6
:1033B5009A90C2F6E025E0F090C2F5E033F090C2B5
:1033C500F7E004F0E0C3941040C7D2947F057E0077
:1033D50012449AE490C2F7F0C2937F057E0012442E
:1033E5009AD2937F057E0012449A90C2F4E025E0BC
:1033F500F090C2F3E033F0309107E0F0A3E0440130
:10340500F090C2F7E004F0E0C3941040CBD2907F77
:0E341500057E0012449A90C2F3E0FEA3E0FF91
:013423002286
:103F220090BD8DEFF0C290C2947F057E0012449A3C
:103F3200E490BD8CF090BD8DE030E704D292800217
:103F4200C292C2937F057E0012449AD2937F057E6D
:103F52000012449A90BD8DE025E0F090BD8CE00403
:103F6200F0E0C3940840CED2907F057E0002449ACE
:05308800E4FDFC7FB82F
:10308D0090BD8DEFF0ECA3F0A3EDF0C290C2947F54
:10309D00057E0012449AE490BD8CF090BD8DE03019
:1030AD00E704D2928002C292C2937F057E00124441
:1030BD009AD2937F057E0012449A90BD8DE025E053
:1030CD00F090BD8CE004F0E0C3940840CED2947F24
:1030DD00057E0012449AE490BD8CF090BD8FE030D7
:1030ED00E704D2928002C292C2937F057E00124401
:1030FD009AD2937F057E0012449A90BD8FE025E011
:10310D00F090BD8CE004F0E0C3940840CEE490BD97
:10311D008CF090BD8EE030E704D2928002C292C254
:10312D00937F057E0012449AD2937F057E00124450
:10313D009A90BD8EE025E0F090BD8CE004F0E0C3E8
:0D314D00940840CED2907F057E0002449A87
:063629007BFF7D047C0024
:0B362F0090BD83EBF0A3EAF0A3E9F0EC
:10363A00AE04AF05A3EEF0A3EFF07FBC12308D907D
:10364A00BD86E0FCA3E0FD7FBE12308D7FBF123F36
:10365A0022C290D2947F057E0012449A90BD86744D
:10366A00FFF5F012084E45F0605190BD83E0FBA3D0
:10367A00E475F00112084EA9F0FA12077990BD8993
:10368A00F0E490BD88F090BD88E0C3940850CDA3C3
:10369A00E030E704D2928002C292C2937F057E0094
:1036AA0012449AD2937F057E0012449A90BD89E013
:1036BA0025E0F090BD88E004F080CBD2907F057EB3
:0436CA000002449A1C
:10357D0090BD897401F0A374BDF0A37487F090BD64
:10358D0087EFF0A3EDF090BD83E4F0A37402F0FD9E
:10359D007C007FBC12308D90BD83E0FCA3E0FD7FED
:1035AD00BE12308D7FBF123F22C290D2947F0F7E0C
:1035BD000012449A90BD8374FFF5F012084E45F049
:1035CD00605190BD89E0FBA3E475F00112084EA98E
:1035DD00F0FA12077990BD86F0E490BD85F090BDAC
:1035ED0085E0C3940850CDA3E030E704D292800269
:1035FD00C292C2937F0F7E0012449AD2937F0F7EA8
:10360D000012449A90BD86E025E0F090BD85E0045F
:0C361D00F080CBD2907F0F7E0002449A18
:100103007A457944123629E4FD7F0112357DE4FDF9
:100113007F0212357D7D577F0312357D7DD37F04AA
:1001230012357DE4FD7F0512357D7D117F06123585
:100133007D7D087F0712357DE4FD7F0812357DE460
:10014300FD7F0912357D7D3F7F0A12357DE4FD7FFA
:100153000B12357DE4FD7F0C12357DE4FD7F0D121E
:10016300357DE4FD7F0E12357D7D3F7F0F12357D9A
:100173007D3F7F1012357DE4FD7F1112357DE4FD57
:100183007F1212357DE4FD7F1312357DE4FD7F146C
:1001930012357DE4FD7F1512357DE4FD7F161235A2
:1001A3007DE4FD7F1712357DE4FD7F1812357DE474
:1001B300FD7F1912357DE4FD7F1A12357DE4FD7F45
:1001C3001B12357DE4FD7F1C12357DE4FD7F1D127E
:1001D300357D7D407F1E12357D7D807F1F12357DED
:1001E3007D067F2012357D7D017F2112357DE4FD63
:1001F3007F2212357DE4FD7F2312357DE4FD7F24CC
:1002030012357DE4FD7F2512357DE4FD7F26123511
:100213007DE4FD7F2712357D7D337F2812357D7D7B
:10022300337F2912357DE4FD7F2A12357DE4FD7F7E
:100233002B12357DE4FD7F2C12357DE4FD7F2D12DD
:10024300357DE4FD7F2E12357DE4FD7F2F12357D54
:10025300E4FD7F3012357DE4FD7F3112357DE4FD11
:100263007F3212357DE4FD7F3312357DE4FD7F342B
:1002730012357DE4FD7F3512357DE4FD7F36123581
:100283007DE4FD7F3712357D7D787F3812357DE43F
:10029300FD7F3912357DE4FD7F3A12357DE4FD7F24
:1002A3003B12357DE4FD7F3C12357DE4FD7F3D123D
:1002B300357DE4FD7F3E12357DE4FD7F3F12357DC4
:1002C300E4FD7F4012357DE4FD7F4112357DE4FD81
:1002D3007F4212357DE4FD7F4312357DE4FD7F448B
:1002E30012357DE4FD7F5012357D7D237F5112351C
:1002F3007D7D457F5212357D7D677F5312357D7D30
:10030300897F5412357D7DAB7F5512357D7D017F0D
:100313005612357D7D237F5712357D7D457F5812DB
:10032300357D7D677F5912357D7D897F5A12357DF5
:100333007DAB7F5B12357D7DCD7F5C12357D7DEF9F
:100343007F5D12357DE4FD7F5E12357D7D0D7F5F20
:1003530012357D7D0D7F6012357D7D0C7F611235F9
:100363007D7D0C7F6212357D7D0F7F6312357D7D30
:100373000F7F6412357D7D0E7F6512357D7D0E7F87
:100383006612357D7D087F6712357D7D027F681299
:10039300357D7D027F6912357D7D027F6A12357D51
:1003A3007D027F6B12357D7D027F6C12357D7D0270
:1003B3007F6D12357D7D027F6E12357D7D027F6FED
:1003C30012357D7D147F7012357D7D157F71123559
:1003D3007D7D067F7212357D7D027F7312357D7DB3
:1003E300027F7412357D7D0D7F7512357D7D0D7F06
:1003F3007612357D7D0C7F7712357D7D0C7F7812EB
:10040300357D7D0F7F7912357D7D0F7F7A12357DA6
:100413007D0E7F7B12357D7D0E7F7C12357D7D08C1
:100423007F7D12357D7D027F7E12357D7D027F7F4C
:1004330012357D7D027F8012357D7D027F811235ED
:100443007D7D027F8212357D7D027F8312357D7D26
:10045300027F8412357D7D027F8512357D7D147F79
:100463008612357D7D157F8712357D7D067F881247
:10047300357D7D027F8912357D7D027F8A12357D30
:100483007A4579481236297D3B7F6E12357D7D573B
:100493007F6F12357D7D247F3A12357D7D1F7F8DE1
:1004A30012357D7DBA7F8712357D7DD17FB21235BE
:1004B3007D7D0B7F8812357D7D017F3812357DE48C
:1004C300FD7F3912357D7D077FB512357D7D757FC3
:1004D3003112357D7D987F3B12357D7BFF7A4579DF
:1004E3004C12362B7D0A7F2212357D7D097F311216
:1004F300357D7D077F3512357D7D677F5312357DD1
:100503007D847F5512357D7D867F5012357D7D82BA
:100513007F5112357D7D107F6012357DE4FD7F6252
:1005230012357DE4FD7FA012357D7D127FA112354A
:100533007D7D1F7FA212357D7D127FA312357D7DC8
:10054300167FA412357D7D297FA512357D7D1E7F03
:10055300A612357D7D1F7FA712357D7D7E7FA81274
:10056300357D7D1B7FA912357D7D287FAA12357DC0
:100573007D6D7FAB12357D7D197FAC12357D7D1886
:100583007FAD12357D7D4C7FAE12357D7D1E7FAFF5
:1005930012357D7D237FB012357D7D527FB11235BB
:1005A3007D7D6D7FB212357D7D3F7FB312357DE456
:1005B300FD7FC012357D7D127FC112357D7D207F89
:1005C300C212357D7D107FC312357D7D137FC4122A
:1005D300357D7D277FC512357D7D1B7FC612357D19
:1005E3007D1D7FC712357D7D757FC812357D7D1FCB
:1005F3007FC912357D7D287FCA12357D7D687FCB0B
:1006030012357D7D1A7FCC12357D7D187FCD123555
:100613007D7D4D7FCE12357D7D257FCF12357D7D4E
:100623002E7FD012357D7D537FD112357D7D607F46
:10063300D212357D7D3F7FD312357D7BFF7A45799D
:100643005012362B7BFF7A4579547D017C0012369C
:100653002F7F8C7E001240557BFF7A4579557D01B3
:100663007C0012362F7F787E001240557BFF7A453F
:1006730079567D017C0012362F7FAA7E00024055F9
:104303007D067C087FB112308D7D227C187FB2122E
:10431300308D7D127C687FB312308D7D207C037FCE
:0D432300B412308D7D007C057FB502308D19
:102ECE007D507C007FB712308D123088E4FDFC7F80
:102EDE00B912308D7D0A7C807FBA12308D7D067CD2
:102EEE00007FBB12308D7D017C007FB912308DE4E6
:102EFE00FDFC7FDE12308D7D027C237FC912308D6A
:102F0E007F0A7E001240551201037D517C017FB76E
:102F1E0012308D123088E4FDFC7FB912308D7D1594
:102F2E007C807FBA12308D7D057C007FBB12308D88
:102F3E007D017C007FB912308D7D027C237FC9120A
:102F4E00308D7F0A7E001240557D017C237FCA1290
:102F5E00308D7D107C057FCB12308D7D057C107FF2
:102F6E00CC12308D7DFF7C007FD012308D1243034A
:102F7E007DD37C007FB612308D7D037C007FDE1208
:102F8E00308D7D047C007FD612308D7D4B7C027F90
:0E2F9E00B712308D7F3C7E00124055D20922C2
:1042D500008003FFFFBF03FFFCBF0000306F00003D
:1042E5000007000003800000007800000C000000BB
:0E42F500300000F00000000FC00003000000C9
:0A44D60041BED100042702105489F2
:102CC30090BDA4EEF0A3EFF0A3EBF0A3EAF0A3E929
:012CD300F010
:102CD40090BDAC7424F0A37407F090BDA9E0FF90FC
:102CE400BDAEE4F0A3EFF090BDAB7402F0E490BD90
:102CF400AAF090BDA9E0FFA3E0FEC39F4003022D0C
:102D04009EEE75F009A4FF90BDA6E0FBA3E0FAA334
:102D1400E02FF9EA35F0FA90000112088FFF90BD18
:102D2400ABE025E024ACF582E434BDF583E5F0F0B6
:102D3400A3EFF090BDABE004F090000312088FFF06
:102D440090BDABE025E024ACF582E434BDF583E529
:102D5400F0F0A3EFF090BDABE004F090BDA6E0FB73
:102D6400A3E0FAA3E0F990BDAAE075F009A4F58206
:102D740085F083120792FF90BDABE025E024ACF50B
:102D840082E434BDF583E4F0A3EFF090BDABE0043E
:102D9400F090BDAAE004F0022CF690BDABE0FD2556
:102DA400E024ACF582E434BDF58374FFF0A3E4F0D1
:102DB40090BDA4E0FEA3E0FF7B017ABD79AC90BE98
:092DC400BDE4F0A3EDF002249936
:10215A0090BD91EEF0A3EFF090BD94EAF0A3EBF0FE
:10216A00E490BDA0F0A3F0A3F0A3F0ED9042D560F7
:10217A0012E493FE740193FFC3E49FFFE49E90BDB3
:10218A00A2800AE493FF74019390BDA0CFF0A3EF5D
:10219A00F0E490BD9FF090BEC5F0E4FFFEFDFC9018
:1021AA00BD98E0F8A3E0F9A3E0FAA3E0FBC3120AA2
:1021BA004870030222CE90BD98A3A3A3E05401FF66
:1021CA00E4EF70030222AC90BD9FE0FF90BEC5E031
:1021DA00FE75F009A424D2F582E5F034BEF583EF4A
:1021EA00F090BD94E0FCA3E0FD75F009EEA424D3C1
:1021FA00F582E5F034BEF583ECF0A3EDF090BD96E0
:10220A00E0FEA3E0FF90BEC5E0FD75F009A424D569
:10221A00F582E5F034BEF583EEF0A3EFF09042D5F7
:10222A00E493FE740193FF90BD95E02FFF90BD9457
:10223A00E03EFE75F009EDA424D7F582E5F034BE40
:10224A00F583EEF0A3EFF09042D5E493FE74019388
:10225A00FF90BD97E02FFF90BD96E03EFE90BEC571
:10226A00E075F009A424D9F582E5F034BEF583EED1
:10227A00F0A3EFF090BDA0E0FEA3E0FF90BD95E0D3
:10228A002FF090BD94E03EF090BDA2E0FEA3E0FFE7
:10229A0090BD97E02FF090BD96E03EF090BEC5E06D
:1022AA0004F090BD98E0FCA3E0FDA3E0FEA3E0FFEC
:1022BA007801120A5990BD98120AC490BD9FE00491
:1022CA00F00221A490BD9CE0F9A3E0FAA3E090BE3D
:1022DA00CEC9F0A3EAF0A3E9F090BD91E0FEA3E035
:1022EA00FF7B017ABE79D290BEC5E090BDA9F0020B
:0222FA002CC3F3
:0529110090BD83EFF012
:10291600E490BD88F090BD88E0FBC39408400302B4
:102926002A5DE47F01FEFDFC90BD83E075F009A4FD
:1029360024D2F582E5F034BEF583E0F9F8120A6C8C
:10294600EB25E025E024E3F582E43442F583120A20
:10295600A8EB5FFFEA5EFEE95DFDE85CFC4D4E4FCD
:102966007003022A5490BD88E025E025E024E3F5B3
:1029760082E43442F583120A8B90BED1E025E0252D
:10298600E024D7F582E43442F583120AA8EB5FFF10
:10299600EA5EFEE95DFDE85CFC90BD84120AC49027
:1029A600BD84E0F8A3E0F9A3E0FAA3E0FBC000C011
:1029B60001E47F01FEFDFC90BD83E075F009A424CF
:1029C600D2F582E5F034BEF583E0F9F8120A6C120E
:1029D6000A3BD001D000EB5FFFEA5EFEE95DFDE851
:1029E6005CFC90BD84120AC4E4FFFEFDFC90BD842D
:1029F600E0F8A3E0F9A3E0FAA3E0FBC3120A4860FB
:102A06005690BD83E0FF7E009042D5E493FC7401AE
:102A160093FD1207D1AA06AB0790BD967402F0A3E8
:102A26007420F090BD84E0FCA3E0FDA3E0FEA3E0EB
:102A3600FF90BD98120AC490BD9C74FFF0A3742247
:102A4600F0A374FCF07D017F007E9502215A90BDB3
:072A560088E004F002291BD7
:012A5D002256
:0522FC0090BD89EFF028
:10230100E4A3F090BD8AE0FBC39408400302247E5D
:10231100E47F01FEFDFC90BD89E075F009A424D2A3
:10232100F582E5F034BEF583E0F9F8120A6CEB258D
:10233100E025E024E3F582E43442F583120AA8EBB8
:102341005FFFEA5EFEE95DFDE85CFC4D4E4F700308
:102351000224757827120A9B90BD8AE025E025E0CA
:1023610024E3F582E43442F583120A8B120A3BEB33
:102371005FFFEA5EFEE95DFDE85CFC7827120AB8C2
:1023810090BD89E075F009A424D2F582E5F034BE50
:10239100F583E014600E14601324027015E490BEFE
:1023A100D1F0800E90BED17401F0800690BED17440
:1023B10002F07827120A9BC000C001E47F01FEFDF4
:1023C100FC90BD89E075F009A424D2F582E5F034D2
:1023D100BEF583E0F9F8120A6CD001D000EB4FFF93
:1023E100EA4EFEE94DFDE84CFC7827120AB890BE92
:1023F100D1E025E025E024D7F582E43442F58312CB
:102401000A8B90BD8B120AC490BD8BE0FCA3E0FD4A
:10241100A3E0FEA3E0FF7827120A9BEF5BFFEE5AD1
:10242100FEED59FDEC58FC90BD8B120AC49042D5CB
:10243100E493FE740193FFC374209F90BD97F074E1
:10244100039E90BD96F090BD8BE0FCA3E0FDA3E060
:10245100FEA3E0FF90BD98120AC490BD9C74FFF0EA
:10246100A37429F0A37411F0E4FBFAFDFF7E90122E
:0D247100215A800990BD8AE004F002230486
:10247E00E490BD8FF0A3F07B017ABD798F90BEBD45
:0B248E00F0A304F07F007E950224996B
:1041B400E490BED1F09042D593FE740193FFC37492
:1041C400209F90BD97F074039E90BD96F0782712BF
:1041D4000A7F90BD98120AC490BD9C74FFF0A3742A
:1041E40029F0A37411F0E4FBFAFDFF7E9002215A3A
:101FAC00E490BD83F0A3F0A304F0A3742CF0A3740D
:101FBC000AF0A37496F0E4A3F0A3F0A304F0A374C6
:101FCC0090F0A37401F0A3742CF0A37401F0A3742B
:101FDC0090F0A374F8F0A3E4F0A3F0A37496F0A32C
:101FEC00E4F0A374FAF0A37401F0A3742CF0A374BE
:0D1FFC0001F0A37490F0A374F8F0A3E4F0DA
:1020090090BEB77402F090BDEFE4F0A37404F090B1
:10201900BEB7E0FF90BDF1E4F0A3EFF090BDEE7420
:1020290002F0E490BDEDF090BEB7E0FF90BDEDE0A9
:10203900FEC39F4003022130E0FF75F00AA4248902
:10204900F582E434BDF583E0FCA3E0FD90BDEEE04C
:1020590025E024EFF582E434BDF583ECF0A3EDF03F
:1020690090BDEEE004F0EF75F00AA4248BF582E44C
:1020790034BDF583E0FCA3E0FD90BDEEE025E0244E
:10208900EFF582E434BDF583ECF0A3EDF090BDEEFD
:10209900E004F090BDEDE0FF75F00AA4248DF5820F
:1020A900E434BDF583E0FCA3E0FD90BDEEE025E05E
:1020B90024EFF582E434BDF583ECF0A3EDF090BD97
:1020C900EEE004F0EF75F00AA4248FF582E434BD44
:1020D900F583E0FCA3E0FD90BDEEE025E024EFF5FB
:1020E90082E434BDF583ECF0A3EDF090BDEEE0049D
:1020F900F0EE75F00AA42491F582E434BDF583E08D
:10210900FEA3E0FF90BDEEE025E024EFF582E43484
:10211900BDF583EEF0A3EFF090BDEEE004F090BDC5
:10212900EDE004F002203090BDEEE0FE25E024EF62
:10213900F582E434BDF58374FFF0A3E4F07B017A02
:10214900BD79EF90BEBDF0A3CEF07F007E70022472
:0121590099EC
:030000000239AC16
:0C39AC00787FE4F6D8FD75812A0239F31B
:1039B80002262CE493A3F8E493A34003F68001F2D3
:1039C80008DFF48029E493A3F85407240CC8C33310
:1039D800C4540F4420C8834004F456800146F6DFDF
:1039E800E4800B01020408102040809044C8E47E63
:1039F800019360BCA3FF543F30E509541FFEE493D4
:103A0800A360010ECF54C025E060A840B8E493A39A
:103A1800FAE493A3F8E493A3C8C582C8CAC583CAC5
:103A2800F0A3C8C582C8CAC583CADFE9DEE780BE7D
:0144E00000DB
:10068300E709F608DFFA8046E709F208DFFA803E59
:1006930088828C83E709F0A3DFFA8032E309F60846
:1006A300DFFA8078E309F208DFFA807088828C83AE
:1006B300E309F0A3DFFA806489828A83E0A3F60862
:1006C300DFFA805889828A83E0A3F208DFFA804C3C
:1006D30080D280FA80C680D4806980F28033801013
:1006E30080A680EA809A80A880DA80E280CA80337C
:1006F30089828A83ECFAE493A3C8C582C8CCC583F4
:10070300CCF0A3C8C582C8CCC583CCDFE9DEE780C3
:100713000D89828A83E493A3F608DFF9ECFAA9F042
:10072300EDFB2289828A83ECFAE0A3C8C582C8CC98
:10073300C583CCF0A3C8C582C8CCC583CCDFEADEB1
:10074300E880DB89828A83E493A3F208DFF980CC13
:1007530088F0EF60010E4E60C388F0ED2402B4040C
:100763000050B9F582EB2402B4040050AF232345B3
:0607730082239006D373FF
:10077900BB010689828A83E0225002E722BBFE027E
:09078900E32289828A83E49322B1
:10079200BB010CE58229F582E5833AF583E022501C
:1007A20006E92582F8E622BBFE06E92582F8E22266
:0D07B200E58229F582E5833AF583E4932280
:1007BF00BB010689828A83F0225002F722BBFE0119
:0207CF00F32213
:1007D100EF8DF0A4A8F0CF8CF0A428CE8DF0A42E3C
:0207E100FE22F6
:1007E300BC000BBE0029EF8DF084FFADF022E4CCFA
:1007F300F875F008EF2FFFEE33FEEC33FCEE9DECC3
:10080300984005FCEE9DFE0FD5F0E9E4CEFD22ED08
:10081300F8F5F0EE8420D21CFEADF075F008EF2F52
:10082300FFED33FD4007985006D5F0F222C398FD43
:050833000FD5F0EA22E0
:10083800C5F0F8A3E028F0C5F0F8E582158270024B
:060848001583E038F022E8
:10084E00A3F8E0C5F025F0F0E5821582700215835D
:06085E00E0C838F0E822BA
:10086400BB010A89828A83E0F5F0A3E0225006875F
:10087400F009E71922BBFE07E3F5F009E319228921
:0B088400828A83E493F5F07401932254
:10088F00BB0110E58229F582E5833AF583E0F5F0A7
:10089F00A3E0225009E92582F886F008E622BBFE84
:1008AF000AE92582F8E2F5F008E222E5832AF583CA
:0808BF00E993F5F0A3E993228F
:1008C700BB010789828A83020838500B09C5F027C4
:1008D700F7C5F01937F722BBFE0D09F8E325F0F34A
:1008E700C5F019E338F322F889828A8374019325C6
:0808F700F0C5F0F8E49338228B
:1008FF00BB010A89828A83F0E5F0A3F0225006F744
:0F090F0009A7F01922BBFE06F3E5F009F3192240
:10091E00E88FF0A4CC8BF0A42CFCE98EF0A42CFC78
:10092E008AF0EDA42CFCEA8EF0A4CDA8F08BF0A4F6
:10093E002DCC3825F0FDE98FF0A42CCD35F0FCEB55
:10094E008EF0A4FEA9F0EB8FF0A4CFC5F02ECD391A
:0F095E00FEE43CFCEAA42DCE35F0FDE43CFC2287
:10096D0075F008758200EF2FFFEE33FECD33CDCC41
:10097D0033CCC58233C5829BED9AEC99E5829840C4
:10098D000CF582EE9BFEED9AFDEC99FC0FD5F0D6A1
:10099D00E4CEFBE4CDFAE4CCF9A88222B800C1B9CB
:1009AD000059BA002DEC8BF084CFCECDFCE5F0CB09
:1009BD00F97818EF2FFFEE33FEED33FDEC33FCEB42
:1009CD0033FB10D703994004EB99FB0FD8E5E4F9FD
:1009DD00FA227818EF2FFFEE33FEED33FDEC33FCEA
:1009ED00C933C910D7059BE99A4007EC9BFCE99ADE
:1009FD00F90FD8E0E4C9FAE4CCFB2275F010EF2F23
:100A0D00FFEE33FEED33FDCC33CCC833C810D70722
:100A1D009BEC9AE899400AED9BFDEC9AFCE899F85D
:0E0A2D000FD5F0DAE4CDFBE4CCFAE4C8F922F0
:0D0A3B00CFF4CFCEF4CECDF4CDCCF4CC2250
:100A4800EB9FF5F0EA9E42F0E99D42F0E89C45F004
:010A5800227B
:100A5900E8600FECC313FCED13FDEE13FEEF13FF7B
:030A6900D8F1229F
:100A6C00E8600FEFC333FFEE33FEED33FDEC33FCE8
:030A7C00D8F1228C
:0C0A7F00E6FC08E6FD08E6FE08E6FF22A3
:100A8B00E493FC740193FD740293FE740393FF22B1
:0D0A9B00E6FB08E6F908E6FA08E6CBF822CB
:100AA800E493F8740193F9740293FA740393FB22A4
:0C0AB800ECF608EDF608EEF608EFF6226A
:0C0AC400ECF0A3EDF0A3EEF0A3EFF022A5
:100AD000A8828583F0D083D082120AE7120AE71237
:100AE0000AE7120AE7E473E493A3C583C5F0C5835C
:100AF000C8C582C8F0A3C583C5F0C583C8C582C870
:010B000022D2
:0C0B0100A42582F582E5F03583F58322FF
:100B0D00BB010789828A83020B6C5005E9F8020B41
:100B1D0063BBFE05E9F8020B9589828A83020B9E61
:100B2D00BB010DE58229F582E5833AF583020B6C55
:100B3D005007E92582F8020B63BBFE07E92582F811
:100B4D00020B95E58229F582E5833AF583020B9E2A
:060B5D008A838982E47323
:10110C00E522243DF582E434C2F583E005222290E9
:10111C00C23A30070390C23DE475F001120B750220
:10112C0007792000E97F2ED2008018EF540F24900D
:10113C00D43440D4FF30040BEF24BFB41A00500356
:10114C002461FFE523600215230526E526700205C0
:10115C002530070E90C23AE475F001120B75EF02C0
:10116C0007BF0243807403D2078003E4C207F52251
:10117C0090C23A120B8CE4F523F525F526E5236095
:10118C00077F2012114F80F57524FFC201C200C2E7
:10119C0002C203C205C206C20812111BFF700D3039
:1011AC0007057F00121160AF26AE2522B4255FC261
:1011BC00D5C20412111BFF24D0B40A00501A75F0CA
:1011CC000A782330D50508B6FF0106C6A426F620FA
:1011DC00D5047002D20380D924CFB41A00EF500486
:1011EC00C2E5D204021361D20180C6D20080C0D203
:1011FC000280BCD2D580BAD20580B47F2012114FA8
:10120C002002077401B5230040F112110CFF1211DA
:10121C004F021189D208D206809512110CFB1211C3
:10122C000CFA12110CF94A4B700679327A147BFFC6
:10123C0020022EE523602A7E008E82758300120721
:10124C009260060EEE652470F0C2D5EBC0E0EAC0E9
:10125C00E0E9C0E0EE1213A8D0E0F9D0E0FAD0E05B
:10126C00FB120779FF60AAEBC0E0EAC0E0E9C0E03E
:10127C0012114FD0E02401F9D0E03400FAD0E0FB99
:10128C00E5240460DCD524D980877BFF7A1379A40C
:10129C00D202809C791080027908C206C2088008AC
:1012AC00D2D5790A8004790AC2D5E524047002F5F6
:1012BC0024E4FAFDFEFF12110CFC7B082001131232
:1012CC00110CFD7B1030000A12110CFE12110CFFD8
:1012DC007B20EC3382D592D55013C3E43000069FAB
:1012EC00FFE49EFEE42001039DFDE49CFCE4CBF8AE
:1012FC00C201EC700CCFCECDCCE824F8F870F380A2
:10130C0017C3EF33FFEE33FEED33FDEC33FCEB3361
:10131C00FB994002FB0FD8E9EB300105F8D0E0C493
:10132C0048B201C0E00AEC4D4E4F78207B0070C2F1
:10133C00EAB5240040BCC0E01213AAD0F0D0E020E3
:10134C000104C4C0E0C4B201C0F0121138D0F0D511
:10135C00F0EB021189120BAA12265312A05811F7A6
:10136C004C11F34212A44F12AC4412AC49120C4370
:08137C0012B2551296461296BA
:101384004512964714525011FB2D11FF2E12222B99
:10139400120323122020143B2A11BB480000121A06
:1013A4003F3F3F00790AA2D5200314300509B91044
:1013B400020404B9080104A2D52006025001042045
:1013C40002689202B523005034C0E07F2030031934
:1013D4007F30A20272067205500F121401C202C2BB
:1013E40006C205C2087F30800F300503E9C0E01251
:1013F400114F300503D0E0F9D0E0B523CC30051708
:101404007F30B9100C12114F7F583004077F788059
:1014140003B9080312114F3002057F2D02114F7FCB
:10142400202008F87F2B2006F322920280CF286E1A
:10143400756C6C2900D20112110C3001F8C20178CC
:101444002330D50108F60211BB2D5043495812111F
:101454000C2403B405004001E490144D9312114090
:0D146400743A121140D2037523040212A045
:1044F600E4FFFE120779600C0FEF70010E09E970F8
:05450600F20A80EF2223
:090B6300E6FB08E6FA08E6F922B7
:090B6C00E0FBA3E0FAA3E0F9228A
:100B7500F8E0FBA3A3E0F925F0F0E5821582700209
:070B85001583E0FA38F022AD
:090B8C00EBF0A3EAF0A3E9F0226A
:090B9500E2FB08E2FA08E2F92291
:0C0B9E00E493FB740193FA740293F922B3
:100BAA00D083D082F8E4937012740193700DA3A3DA
:100BBA0093F8740193F5828883E4737402936860EE
:060BCA00EFA3A3A380DFEE
:10438000EFB40A07740D12438B740A309811A89980
:10439000B8130CC2983098FDA899C298B811F6309D
:0743A00099FDC299F5992275
:00000001FF
