:0B00F800FFFF4457494E543502668E4E
:0E3A6E007B0190C274E4F0A304F07F147E008C
:103A7C0090C26FEEF0A3EFF0A3EBF0A3EAF0A3E992
:013A8C00F049
:103A8D00E490C276F0A3F0A3F0A3F0A3F0A3F0A30B
:103A9D00F0A3F090C274E0FAA3E0FB4A7003023C7D
:103AAD003B90C26FE0FEA3E0FFC3E49FFFE49EFEE8
:103ABD00E4FCFD90C27E120A57AF03AE02E4FCFD9A
:103ACD0090C27EE0F8A3E0F9A3E0FAA3E0FBC312F5
:103ADD0009DB501190C27EA3A3E0FFA3E090C27456
:103AED00CFF0A3EFF090C26FE0FCA3E0FDECC313A9
:103AFD00FFED1390C276CFF0A3EFF0ED5401FFA3CD
:103B0D00E4F0A3EFF0C2AFE4F5F190C276E0FCA3D0
:103B1D00E0FDECF5F28DF375F40175F8AF30FCFDB9
:103B2D0090C278E07002A3E0603DD2FE20FEFD90D1
:103B3D00C271E0FBA3E475F0011207A6A9F0FAE546
:103B4D00FC12071790C271E0FBA3E475F001120798
:103B5D00A6A9F0FAE5FD12071790C275E024FFF053
:103B6D0090C274E034FFF090C274E0FCA3E0FDEC71
:103B7D00C313FFED1390C27ACFF0A3EFF0ED540114
:103B8D00FFA3E4F0A3EFF090C27A74FFF5F01207F3
:103B9D00A645F0605BD2FE20FEFD90C271E0FBA356
:103BAD00E475F0011207A6A9F0FAE5FA12071790CD
:103BBD00C271E0FBA3E475F0011207A6A9F0FAE5C6
:103BCD00FB12071790C271E0FBA3E475F001120719
:103BDD00A6A9F0FAE5FC12071790C271E0FBA3E469
:103BED0075F0011207A6A9F0FAE5FD1207178097E7
:103BFD0090C27CE07002A3E0602FD2FE20FEFD900B
:103C0D00C271E0FBA3E475F0011207A6A9F0FAE575
:103C1D00FA12071790C271E0FBA3E475F0011207C9
:0E3C2D00A6A9F0FAE5FB120717E4F5F8D2AFEE
:013C3B002266
:103FA60090C2ABEEF0A3EFF0A3EBF0A3EAF0A3E927
:013FB600F01A
:103FB700E490C2B2F0A3F0A3F0A3F0A3F0A3F090B3
:103FC700C2B0E07002A3E0700302413890C2ABE0D8
:103FD700FEA3E0FFC3E49FFFE49EFED390C2B1E0DF
:103FE7009F90C2B0E09E4005EEF0A3EFF090C2AB09
:103FF700E0FAA3E0FBEAC313FCEB13FDEB5401FF6C
:1040070090C2B2E4F0A3EFF0C2AFE4F5F1ECF5F241
:10401700AF058FF375F40175F88330FCFD90C2B2DC
:10402700E07002A3E0603D90C2ADE0FBA3E475F051
:10403700011207A6A9F0FA1206D1F5FC90C2ADE06D
:10404700FBA3E475F0011207A6A9F0FA1206D1F551
:10405700FDD2FE20FEFD90C2B1E024FFF090C2B079
:10406700E034FFF090C2B0E0FCA3E0FDECC313FF27
:10407700ED1390C2B4CFF0A3EFF0ED5401FFA3E42A
:10408700F0A3EFF075F88F90C2B474FFF5F0120744
:10409700A645F0605B90C2ADE0FBA3E475F00112AA
:1040A70007A6A9F0FA1206D1F5FA90C2ADE0FBA374
:1040B700E475F0011207A6A9F0FA1206D1F5FB90F4
:1040C700C2ADE0FBA3E475F0011207A6A9F0FA124E
:1040D70006D1F5FC90C2ADE0FBA3E475F001120731
:1040E700A6A9F0FA1206D1F5FDD2FE30FE9980FBA3
:1040F70090C2B6E07002A3E0603275F88C90C2AD52
:10410700E0FBA3E475F0011207A6A9F0FA1206D1A5
:10411700F5FA90C2ADE0FBA3E475F0011207A6A97A
:10412700F0FA1206D1F5FBD2FE20FEFDE4F5F8D237
:01413700AFD8
:014138002264
:1072BE00C2AFC2D3C2D4E4F58E75C870F5CDF5CC8D
:1072CE0075CBBC75CACDD2ADD2C8F5937594017588
:1072DE00950275C960F5F875F901F5A8F5B8F59A36
:0772EE00F5A9F5B90273EAEE
:1073EA007F007E80E4F533F5340FEFAC0670010EB2
:1073FA0014F5828C83E4F00534E53470020533B465
:07740A0000E7E533B480E266
:017411002258
:10750B0090C472120A6355AA5AA57B017AC4797288
:10751B0090C2B0E4F0A37402F07F047E00023FA699
:047697007FF47E01FD
:10769B00EF4E6010E4FD0DEDC3941840F9EF1F7031
:0476AB00EF1E80EC62
:0176AF0022B8
:106CFD0090C400745AF0A374A5F0A3EEF0A3EFF0C6
:106D0D00A3EBF0A3EDF090C3FFE0600A90C406E49E
:106D1D00F0A304F08007E490C406F0A3F07B017AA1
:106D2D00C4790090C2B0E4F0A37404F07FB07E008B
:106D3D00123FA61276977B017AC4790090C274E453
:106D4D00F0A304F07FB07E00123A7C90C400E07096
:016D5D00E253
:016D5E002212
:05727F0090C459EFF07E
:107284007B017AC4795A90C274E4F0A37402F07F4B
:10729400A07E00123A7C90C459E0A3F0A37401F0DC
:1072A400E490C45DF07B017AC4795A90C2B0F0A333
:0A72B4007402F07FA07E00023FA6E6
:104C750090C2EBE0FB90C43DF090C2ECE0FCA3E0F9
:104C8500FDA3E0FEA3E0FF78101209EC90C43EEF0F
:104C9500F090C2ECE0FCA3E0FDA3E0FEA3E0FF780A
:104CA500081209EC90C43FEFF090C2ECA3A3A3E077
:104CB50090C440F090C2F0E0FCA3E0FDEC90C4414C
:104CC500F0A3EDF090C2F2E0FCA3E0FDEC90C4434C
:104CD500F0A3EDF0EBB4A52890C2F4E0FBA3E0FA55
:104CE500A3E04A4B601A90C2F0E0FEA3E0FF90C239
:104CF500F4A3A3E0F990C2B0ECF0A3EDF0123FA647
:104D05007B017AC4793D90C2B0E4F0A37404F07FCE
:104D1500087E00123FA61276977B017AC4793D90F2
:104D2500C274E4F0A304F07F087E00123A7C90C4BC
:104D35003DE070E290C2EBE0B45A2F90C2F4E0FB84
:104D4500A3E0FAA3E04A4B602190C2F0E0FEA3E0A5
:104D5500FF90C2F4A3A3E0F990C2F2E0FDA3E090B6
:104D6500C274CDF0A3EDF0123A7C7F327E00027062
:014D750092AB
:1049210090C408745AF090C2DBE090C409F06401AD
:10493100706790C2DCA3E090C40AF090C2DEE0FC94
:10494100A3E0FDA3E0FEA3E0FF78101209EC90C400
:104951000BEFF090C2DEE0FCA3E0FDA3E0FEA3E0DC
:10496100FF78081209EC90C40CEFF090C2DEA3A30B
:10497100A3E090C40DF090C2E2E0FCA3E0FDEC9056
:10498100C40EF0A3EDF090C2E4E0FCA3E0FDEC90D6
:10499100C410F0A3EDF0E4803B90C2DBE064027050
:1049A10037A3E0FCA3E0FDEC90C40AF0A3EDF09086
:1049B100C2E2E0FCA3E0FDEC90C40CF0A3EDF090AA
:1049C100C2E9E0FCA3E0FDEC90C40EF0A3EDF0E43D
:1049D100A3F0A3F0A3F0A3F07B017AC4790890C2FD
:1049E100B0E4F0A37406F07FAA7E00123FA612760F
:1049F100977B017AC4790890C274E4F0A304F07F34
:104A0100AA7E00123A7C90C408E070E290C2DBE01A
:104A1100B4012F90C2E6E0FBA3E0FAA3E04A4B60A9
:104A21002190C2E2E0FEA3E0FF90C2E6A3A3E0F979
:104A310090C2E4E0FDA3E090C274CDF0A3EDF012CA
:094A41003A7C7F327E0002709283
:0F779A007AC4797D123A6E90C47DE0FEA3E0FFC1
:0177A90022BD
:086A660090C44DEEF0A3EFF027
:106A6E00A3745AF0A37401F090C44DE0FCA3E0FDB2
:106A7E00EC90C451F0A3EDF07B017AC4794F90C233
:106A8E00B0E4F0A37402F07F847E00123FA612766B
:106A9E00977B017AC4794F90C274E4F0A37402120A
:106AAE003A7790C44DE0FEA3E0FFA3E0B506DFA366
:106ABE00E0B507DAE490C44FF0A3F0A3F0A3F07BA7
:106ACE00017AC4794F90C2B0F0A37402F07F167EA3
:046ADE0000023FA6CD
:0870920090C24EEEF0A3EFF0F6
:10709A00E4A3F0A3F090C24EE0FEA3E0FFC390C2C7
:1070AA0051E09F90C250E09E5025E4FBFA7F017E9A
:1070BA000012769B0BBB00010ABA01F1BB2CEE90C1
:0F70CA00C251E004F070CE90C250E004F080C6D6
:0170D9002294
:1070DA00EF14601814602314602E240370397401AD
:1070EA00A805088002C333D8FC42B7227401A80558
:1070FA00088002C333D8FC42BC227401A805088068
:10710A0002C333D8FC42BD22AF057401A807088028
:08711A0002C333D8FC42BE227F
:106F6500EF1460191460251460312403703D740119
:106F7500A805088002C333D8FCF452B7227401A8CF
:106F850005088002C333D8FCF452BC227401A8055D
:106F9500088002C333D8FCF452BD22AF057401A8A2
:0C6FA50007088002C333D8FCF452BE225F
:10640400EF14602D14604A1460672403600302646F
:1064140096EB600E7401A805088002C333D8FC42D1
:1064240080227401A805088002C333D8FCF452808A
:1064340022EB600E7401A805088002C333D8FC4225
:1064440090227401A805088002C333D8FCF452904A
:1064540022EB600E7401A805088002C333D8FC4205
:10646400A0227401A805088002C333D8FCF452A00A
:1064740022EB600E7401A805088002C333D8FC42E5
:10648400B022AF057401A807088002C333D8FCF416
:0364940052B022E1
:106E1F00EF14601A14602714603424037042740155
:106E2F00A805088002C333D8FC5580FE8034740156
:106E3F00A805088002C333D8FC5590FE8024740146
:106E4F00A805088002C333D8FC55A0FE8014AF05F7
:106E5F007401A807088002C333D8FC55B0FE800226
:046E6F00E4FEAF0688
:016E730022FC
:105205007B017AC4794590C274E4F0A37404F07FFD
:10521500167E00123A7C90C445E0645A600302523F
:10522500CAA3E0FFB40134A3E0FCA3E0FD90C2FCF7
:10523500ECF0A3EDF090C302ECF0A3EDF090C449BF
:10524500E0FCA3E0FD90C300ECF0A3EDF090C327D4
:10525500ECF0A3EDF0A37401F08030EFB4032690D9
:10526500C2FAE0FFA3E090C327CFF0A3EFF090C20E
:10527500F8E0FFA3E090C302CFF0A3EFF090C329BD
:105285007402F0800690C3297403F090C447E0FFD0
:10529500A3E090C2F8CFF0A3EFF090C449E0FFA3DC
:1052A500E090C2FACFF0A3EFF0E490C445F07B01A3
:1052B5007AC4794590C2B0F0A37402F07F167E00DF
:1052C500123FA6801190C446E0FF64026003EF70B0
:0B52D50005E490C329F090C329E0FF1E
:0152E00022AB
:0838850090C414EEF0A3EFF073
:10388D0012520590C416EFF0700690C2F7F0FF22A9
:10389D0090C416E0B4010F7AC279FE123A6E90C24E
:1038AD00F77401F0FF2290C2FEE0FEA3E0FF90C48A
:1038BD0014E06E7003A3E06F60037F012290C2F8E5
:1038CD00E0FEA3E0FFC390C2FDE09FFF90C2FCE0CD
:1038DD009E90C32AF0A3EFF090C32AE0FCA3E0FD75
:1038ED00FFAE04120729EE3395E0FDFC90C41712CC
:1038FD000A5790C2FAE0FEA3E0FFC390C301E09F18
:10390D00FF90C300E09E90C32CF0A3EFF090C32C6A
:10391D00E0FCA3E0FDFFAE04120729EE3395E0FDB8
:10392D00FC90C41B120A5790C416E0640270799083
:10393D00C2F7E06401706B7F09FEFDFC90C41BE0D3
:10394D00F8A3E0F9A3E0FAA3E0FBC31209DB501AD8
:10395D00E47F09FEFDFC90C417E0F8A3E0F9A3E0B5
:10396D00FAA3E0FBC31209DB4038E47F02FEFDFC45
:10397D0090C41BE0F8A3E0F9A3E0FAA3E0FB120862
:10398D00A390C417E0F8A3E0F9A3E0FAA3E0FBD3FA
:10399D001209DB90C2F750057403F0FF227404F096
:1039AD00FF2290C2F7E0FF2290C2F7E06401706E33
:1039BD007F09FEFDFC90C41BE0F8A3E0F9A3E0FA3B
:1039CD00A3E0FBC31209DB501AE47F09FEFDFC9056
:1039DD00C417E0F8A3E0F9A3E0FAA3E0FBC31209D2
:1039ED00DB4038E47F02FEFDFC90C41BE0F8A3E051
:1039FD00F9A3E0FAA3E0FB1208A390C417E0F8A323
:103A0D00E0F9A3E0FAA3E0FBD31209DB90C2F75073
:103A1D00057403F080087404F080037F022290C2C5
:103A2D00F7E0B4031E90C2FAE0FEA3E0FFC390C31B
:103A3D0028E09FFF90C327E09E90C330F0A3EFF0E6
:103A4D007F052290C2F8E0FEA3E0FFC390C303E020
:103A5D009FFF90C302E09E90C32EF0A3EFF07F0670
:013A6D002236
:04736000021800000F
:10762700E4F51D758911F58CF58AC28CF51AF51CE0
:0E763700438901758CBC758ACDD2A9D28C22F4
:03000B00026AE2A4
:0D6AE200C0E0C0D075D000C000C006C007E5
:106AEF00C2AFE51D6002151D758CBC758ACD051BE7
:106AFF0075320074017E00A832088005C333CE338F
:106B0F00CED8F9FFEF551C602DE53225E02408F8AB
:106B1F0008E61618700116E53225E02408F8E6FE9F
:106B2F0008E64E7011AF3204A807088002C333D8AD
:0F6B3F00FC421AF4521C0532E532B408B6D2AF4C
:0B6B4E00D007D006D000D0D0D0E0323D
:03002B0002773B1E
:10773B00C0E0C2AFC2C6D2AF0519E5197002051879
:03774B00D0E03259
:10748500C2AF7401A807088002C333D8FCFE421CB2
:10749500EF25E02408F8A60408A605EEF4521AD252
:0274A500AF2214
:10771100C2AF7401A807088002C333D8FCF4521C1D
:05772100521AD2AF2254
:10774E00C2AF7401A807088002C333D8FC551AFFD4
:02775E00D2AFA8
:017760002206
:0B764500D2B37F05127650D2B27F0551
:10765000EF600EE4FE0EC3EE648094B240F71F802C
:01766000EF3A
:017661002206
:0477EE0053BEF7226D
:0477F20043BE082268
:10767D001277F2D2B3D2B27F0F127650C2B37F0F10
:0A768D00127650C2B27F0F02765051
:0A752B007F0F127305AF0312730502
:107535001277F2C2B3D2B27F0F127650D2B37F0F59
:067545001276500277EE01
:0F77AA001277F2C2B3127647C2B27F0502765051
:0D77D7001277F2127645C2B27F050276509D
:1075AB001277EE127645E4FD30B30A7F0512765062
:0F75BB000DEDB432F3C2B27F051276500277F2B3
:1072F500127305E0FF12730512753512767D7F64F2
:02730500AD07D2
:107307001277F2E4FCED30E704D2B38002C2B3EDAA
:1073170025E0FD127647C2B27F051276500CECB419
:0573270008E30275AB54
:0D732C007F0F12730512767D7F65127305C9
:107339001277EEE4FC127647ED25E0FD30B3054403
:1073490001FD8004ED54FEFDC2B27F051276500C9A
:06735900ECB408E1AF05F1
:01735F00220B
:105C490012730012732CAB071277AA127339AA07C1
:105C59001277D7127535EB20E003025CF7548460A4
:105C69000AEB547BFB12730012752BEB54FEFBEA13
:105C790030E713547FFA1273007F10127305AF02D5
:105C8900127305127535EA4480FA1273007F1012F7
:105C99007305AF02127305127535EB4484FB127359
:105CA900007F0F127305AF031272FAE4FF12730536
:105CB900E4FF127305E4FF1273057F801273057FF9
:105CC900051273057F011273057F011273057F2188
:105CD900127305127535EB547BFBEA547FFA127384
:0E5CE900007F10127305AF021272FA12752BB3
:015CF700228A
:105F030012730012732C90C47FEFF01277AA1273EE
:105F130039A3EFF01277D7127535E04480F012738E
:105F2300007F10127305E0FF12730512753590C4DC
:105F33007FE04484F01273007F0F1272F5E4FF12C6
:105F430073059000061206EAFF127305900005120E
:105F530006EAFF1273059000041206EAFF127305A6
:105F63009000031206EAFF1273059000021206EA7C
:105F7300FF1273059000011206EAFF127305120661
:105F8300D1FF12730512753590C47FE0547BF0A3E3
:105F9300E0547FF01273007F101272F57F0F1273BB
:0C5FA3000590C47FE0FF12730502753505
:10597100127300E4FF12730512767D7F65127305C1
:105981007B06127339741F2BF582E434C4F583EF5F
:10599100F01277AADBEC12733990C41FEFF0127783
:1059A100D712753590C423E0547FF0E4FB741F2BAC
:1059B100F582E434C4F583E0FFC4540FFE90C4279C
:1059C100F0EF540FFFA3F0EE75F00AA42FFF741F40
:1059D1002BF582E434C4F583EFF00BEBB403CE7BFB
:1059E10004741F2BF582E434C4F583E0FFC4540F23
:1059F100FE90C427F0EF540FFFA3F0EE75F00AA458
:105A01002FFF741F2BF582E434C4F583EFF00BEB09
:105A1100B407CEE490C426F07B017AC4791F90C20A
:0D5A2100B0F0A37404F07F107E00023FA6D9
:10776100EF75F00A84C454F0FEEF75F00A84E5F079
:037771004EFF22A6
:0F77B900EFC4540F75F00AA4FEEF540F2EFF22F9
:0765280090C45EEBF0AB072D
:10652F00ED64016004EDB4021BED240CFEE4339026
:10653F00C45FF0A3CEF0EB24FFFEE434FFA3F0A37F
:10654F00CEF08012AF0590C45FE4F0A3EFF0AF037D
:10655F00A3E4F0A3EFF090C460E02401FF90C45FC8
:10656F00E03400FE7C007D1A1207297D0A12073BDA
:10657F00AC06AD0790C461E0FAA3E0FBAE0278026F
:10658F00CEC313CE13D8F92BFFEA3ECF2DCF3CFE4F
:10659F0090C45EE07C002FFFEC3ECF24DCCF34FFB5
:0865AF00FE7D0712073BAF055A
:0165B70022C1
:105CF8007B017AC379DC90C274E4F0A37404F07F6A
:105D08009C7E00123A7C90C3DCE0645A6003025D1A
:105D1800A6A3E064A56003025DA6A3E0FF12776175
:105D280090C3E4EFF090C3DFE0FF12776190C3E522
:105D3800EFF090C3E0E0FF12776190C3E6EFF090D8
:105D4800C3DEE0FFA3E0FDA3E0FB12652890C3E7F4
:105D5800EFF090C3E1E0FF12776190C3E8EFF04401
:105D680080F090C3E2E0FF12776190C3E9EFF09012
:105D7800C3E3E0FF12776190C3EAEFF07B017AC3D7
:105D880079E4125F03E490C3DCF0A3F07AC379DC12
:0E5D980090C2B0F0A304F07F9C7E00123FA6E4
:015DA60022DA
:1076B0007D027F031270DA7D037F031270DA1259A4
:0976C00071E4F518F519025CF8FB
:106F1700AB07AA06A905A8047F007E387D317C004F
:106F270012092EC3E49F90C254F074049E90C2537A
:106F3700F043C9407D04E4FF1270DA7D05E4FF12D7
:106F47006F6543803075D88075985090C253E0FCC8
:0D6F5700A3E0FDECF5BA8DAA43A810D2AC62
:016F6400220A
:10704900AB07AA06A905A8047F007E707D627C00B3
:1070590012092EC3E49F90C254F074049E90C25347
:10706900F043C9207D06E4FF1270DA7D07E4FF12C0
:107079006F654380C0759B9090C253E0FCA3E0FD0F
:08708900ECF5BB8D9D439A015B
:0170910022DC
:10741200759680759780AB07AA06A905A8047F0018
:107422007EC07D897C0112092EAD07AC06ECF5D930
:07743200AF058FE743B80C22
:017439002230
:10723E0075A78075AB80AB07AA06A905A8047F00C9
:10724E007EC07D897C0112092EAD07AC06ECF5AE31
:10725E00AF058FAF43B830E490A01BF0A3F0A3F0BE
:10726E00A3F090A023F090A01FF0A3F0A3F0A3F042
:01727E0022ED
:106E7400EF14601B1460291460372403704490C21B
:106E84004FE0FCA3E0FDA3E0FEA3E0FF026F179038
:106E9400C24FE0FCA3E0FDA3E0FEA3E0FF027049C3
:106EA40090C24FE0FCA3E0FDA3E0FEA3E0FF027468
:106EB4001290C24FE0FCA3E0FDA3E0FEA3E0FF12AA
:036EC400723E22F9
:103DF30090C254EFF0A3ECF0A3EDF0A3EBF0A3EA31
:043E0300F0A3E9F04F
:103E0700C2AFE4A3F0A3F090C255E0FEA3E0FFC366
:103E170090C25BE09F90C25AE09E4003023ECB9067
:103E2700C257E0FBA3E475F0011207A6A9F0FA1246
:103E370006D1FF90C254E0FE75F009A42400F58274
:103E4700E5F03488F583EE75F008A42583F583E063
:103E5700FCA3E0FD75F009EEA42400F582E5F0343B
:103E670080F583EE75F008A42583F583E5822DF5AB
:103E770082E5833CF583EFF075F009EEA42400F5A5
:103E870082E5F03488F583EE75F008A42583F58381
:103E9700E475F00112079075F009EEA42400F5828D
:103EA700E5F03488F583EE75F008A42583F583E003
:103EB7005403F090C25BE004F0700690C25AE0042D
:103EC700F0023E0E90C254E0146042146070147009
:103ED70003023F7324036003023FA3908808E06056
:103EE70003023FA304F0908802E0FEA3E02400F55C
:103EF7008274803EF583E0F599908803E004F070C2
:103F070006908802E004F0908802023F9F9090118B
:103F1700E06003023FA304F090900BE0FEA3E024CF
:103F270009F58274883EF583E0F59C90900CE004D7
:103F3700F0700690900BE004F090900B805A9098E8
:103F47001AE0705804F0909814E0FEA3E02412F5EC
:103F57008274903EF583E0F59E909815E004F0702A
:103F670006909814E004F0909814802C90A023E019
:103F7700702A04F090A01DE0FEA3E0241BF58274D4
:103F8700983EF583E0F5AC90A01EE004F070069033
:0E3F9700A01DE004F090A01DE05403F0D2AF96
:013FA50022F9
:030023000265B8BB
:1065B800C0E0C083C082C0D075D000C006C007C28A
:1065C800AF30982AC298908804E0FEA3E02400F532
:1065D8008274843EF583E599F0908805E004F070B4
:1065E80006908804E004F0908804E05403F03099A1
:1065F8003FC299908802E0FEA3E0FF908800E06E19
:106608007003A3E06F602474002FF58274803EF558
:1066180083E0F599908803E004F07006908802E022
:1066280004F0908802E05403F08005908808E4F0B4
:0F663800D2AFD007D006D0D0D082D083D0E032FE
:03005300026D5FDC
:106D5F00C0E0C083C082C0D075D000C006C007C2DB
:106D6F00AF5396FE909814E0FEA3E0FF909812E0C8
:106D7F006E7003A3E06F602474122FF58274903E3F
:106D8F00F583E0F59E909815E004F0700690981446
:106D9F00E004F0909814E05403F0800590981AE402
:106DAF00F0D2AFD007D006D0D0D082D083D0E0328F
:03005B0002716AC5
:10716A00C0E0C083C082C0D075D000C006C2AF5391
:10717A0097FE909816E0FEA3E02412F58274943EDE
:10718A00F583E59FF0909817E004F0700690981642
:10719A00E004F0909816E05403F0D2AFD006D0D0B5
:0771AA00D082D083D0E03257
:03006300026DBF6C
:106DBF00C0E0C083C082C0D075D000C006C007C27B
:106DCF00AF53A7FE90A01DE0FEA3E0FF90A01BE035
:106DDF006E7003A3E06F6024741B2FF58274983ECE
:106DEF00F583E0F5AC90A01EE004F0700690A01DB6
:106DFF00E004F090A01DE05403F0800590A023E480
:106E0F00F0D2AFD007D006D0D0D082D083D0E0322E
:03006B000271B16E
:1071B100C0E0C083C082C0D075D000C006C2AF534A
:1071C100ABFE90A01FE0FEA3E0241BF582749C3E61
:1071D100F583E5ADF090A020E004F0700690A01FCB
:1071E100E004F090A01FE05403F0D2AFD006D0D05D
:0771F100D082D083D0E03210
:03008300026240D6
:10624000C0E0C083C082C0D075D000C006C007C205
:10625000AFE59B30E02E759B90539BFE90900DE038
:10626000FEA3E02409F582748C3EF583E59CF09052
:10627000900EE004F0700690900DE004F090900D08
:10628000E05403F0E59B30E143759B90539BFD90F8
:10629000900BE0FEA3E0FF909009E06E7003A3E096
:1062A0006F602474092FF58274883EF583E0F59CB5
:1062B00090900CE004F0700690900BE004F0909049
:1062C0000BE05403F08005909011E4F0D2AFD007BA
:0B62D000D006D0D0D082D083D0E032C6
:1064970090C47AEBF0A3EAF0A3E9F07D02E4FF12DF
:1064A70070DA7D03E4FF126F657B017D02E4FF1262
:1064B700640443C98075F1FFE4F5F275F36075F480
:1064C7000175F88F30FCFD90C47AE0FBA3E0FAA3D6
:1064D700E0F91206D1F5FA9000011206EAF5FB90F1
:1064E70000021206EAF5FC9000031206EAF5FDD257
:1064F700FE20FEFDE4F5FAF5FBF5FCF5FDD2FE20E6
:10650700FEFD75FAFF75FBFF75FCFF75FDFFD2FEFB
:1065170020FEFDE4F5F8758FA0E58F20E5FBD2B9E5
:016527002251
:10766200E5E830E51553E8DF438F407FE87E0312FB
:0B767200769B538FBFE490BA28F022F3
:1041390075F1FFE4F5F275F36475F40175F88F30E4
:10414900FCFD90BA27E075F00DA42424F582E5F072
:1041590034ADF583E0F5FAE4F5FBF5FCF5FDD2FEA7
:1041690020FEFD90BA27E0FB75F00DA42425F58209
:10417900E5F034ADF583E0FCA3E0FDA3E0FEA3E0A8
:10418900FF78181209EC8FFA75F00DEBA42425F5C8
:1041990082E5F034ADF583E0FCA3E0FDA3E0FEA3E6
:1041A900E0FF78101209EC8FFB90BA27E0FB75F05D
:1041B9000DA42425F582E5F034ADF583E0FCA3E0F8
:1041C900FDA3E0FEA3E0FF78081209EC8FFC75F06F
:1041D9000DEBA42425F582E5F034ADF583A3A3A363
:1041E900E0F5FDD2FE20FEFD90BA27E0FF75F00D47
:1041F900A42429F582E5F034ADF583E0F5FA75F0EC
:104209000DEFA4242AF582E5F034ADF583E0F5FB42
:1042190090BA27E0FF75F00DA4242BF582E5F03460
:10422900ADF583E0F5FC75F00DEFA4242CF582E5DE
:10423900F034ADF583E0F5FDD2FE20FEFD90BA27FE
:10424900E0FF75F00DA4242DF582E5F034ADF5837A
:10425900E0F5FA75F00DEFA4242EF582E5F034AD02
:10426900F583E0F5FB90BA27E0FF75F00DA4242F44
:10427900F582E5F034ADF583E0F5FC75F00DEFA4BA
:104289002430F582E5F034ADF583E0F5FDD2FE206A
:0C429900FEFD90BA27E004F0E4F5F822E6
:06341D0090C3B4120A572F
:10342300D390C3BAE0940090C3B9E0940840030278
:10343300369390C3B8E0FB90C3B430E70FE0FCA32E
:10344300E0FDA3E0FEA3E0FF7803800DE0FCA3E032
:10345300FDA3E0FEA3E0FF78151209FF90C3C3129A
:103463000A5790BA26E0FA75F00DA42424F582E5F4
:10347300F034ADF583E030E63890C3C3E0FCA3E05D
:10348300FDA3E0FEA3E0FF75F00DEAA42425F58279
:10349300E5F034ADF583120A57EB54C0FF75F00D18
:1034A300EAA42424F582E5F034ADF583EFF0023687
:1034B3007790C3B9E0FCA3E0FDAE047803CEC31359
:1034C300CE13D8F990C3C1F0ED5407A3F0E490C331
:1034D300C0F090C3B8E054C0FFE4FCFDFE90C3C746
:1034E300120A57E490C3BEF090C3C1E0FF90C3BE7D
:1034F300E0C39F40030235A290C3C3E0FCA3E0FDF9
:10350300A3E0FEA3E0FF90BA26E0FB75F00DA42430
:1035130025F582E5F034ADF583120A5790C3C7E071
:10352300FCA3E0FDA3E0FEA3E04408FF75F00DEB70
:10353300A42424F582E5F034ADF583EFF0E490C3E1
:10354300BFF090C3BFE0FFC39408504490C3BBE0F7
:10355300FBA3E0FAA3E0F990C3C0E0F58275830012
:103563001206EAFE90BA26E075F00DA42429F5822E
:10357300E5F034ADF583E5822FF582E43583F583F9
:10358300EEF090C3C0E004F090C3BFE004F080B25B
:1035930090BA26E004F090C3BEE004F00234EB904E
:1035A300C3C2E0FB700302367DA3E0FCA3E0FDA3EE
:1035B300E0FEA3E0FF90BA26E075F00DA42425F504
:1035C30082E5F034ADF583120A57AF0390C3C7A366
:1035D300E0F9A3E0FAA3E04FFF90BA26E075F00DFF
:1035E300A42424F582E5F034ADF583EFF0E490C331
:1035F300BFF090C3C2E0FF90C3BFE0FEC39F50443F
:1036030090C3BBE0FBA3E0FAA3E0F990C3C0E0F5ED
:10361300827583001206EAFF90BA26E075F00DA4C6
:103623002429F582E5F034ADF583E5822EF582E4B5
:103633003583F583EFF090C3C0E004F090C3BFE09F
:1036430004F080AE90C3BFE0FFC39408502690BA45
:1036530026E075F00DA42429F582E5F034ADF58359
:10366300E5822FF582E43583F583E4F090C3BFE070
:1036730004F080D090BA26E004F090BA28E07010ED
:10368300C2AF124139D2AF90BA287401F0438F040C
:013693002214
:03004B00022DDAA9
:102DDA00C0E0C0F0C083C082C0D075D000C000C0BF
:0D2DEA0001C002C003C004C005C006C00740
:102DF700C2AFE59130E70353913FE59120E6030227
:102E070030DA5391BF75F1FF75F20075F36875F409
:102E17000175F8AF30FCFDD2FE20FEFD90C245E5FE
:102E2700FAF0E0FF90BA24E075F00DA42424F582AF
:102E3700E5F034A0F583EFF0D2FE20FEFD90BA2432
:102E4700E075F00DA42425F582E5F034A0F583C0E4
:102E570083C082E0FCA3E0FDA3E0FEA3E0FF7808C7
:102E67001209FFD082D083120A5790BA24E075F076
:102E77000DA42425F582E5F034A0F583C083C08234
:102E8700E0F8A3E0F9A3E0FAA3E0FBAFFAEB4FFF0A
:102E9700EAFEE9FDE8FCD082D083120A5790BA24F3
:102EA700E075F00DA42425F582E5F034A0F583C084
:102EB70083C082E0FCA3E0FDA3E0FEA3E0FF780867
:102EC7001209FFD082D083120A5790BA24E075F016
:102ED7000DA42425F582E5F034A0F583C083C082D4
:102EE700E0F8A3E0F9A3E0FAA3E0FBAFFBEB4FFFA9
:102EF700EAFEE9FDE8FCD082D083120A5790BA2493
:102F0700E075F00DA42425F582E5F034A0F583C023
:102F170083C082E0FCA3E0FDA3E0FEA3E0FF780806
:102F27001209FFD082D083120A5790BA24E075F0B5
:102F37000DA42425F582E5F034A0F583C083C08273
:102F4700E0F8A3E0F9A3E0FAA3E0FBAFFCEB4FFF47
:102F5700EAFEE9FDE8FCD082D083120A5790BA2432
:102F6700E075F00DA42425F582E5F034A0F583C0C3
:102F770083C082E0FCA3E0FDA3E0FEA3E0FF7808A6
:102F87001209FFD082D083120A5790BA24E075F055
:102F97000DA42425F582E5F034A0F583C083C08213
:102FA700E0F8A3E0F9A3E0FAA3E0FBAFFDEB4FFFE6
:102FB700EAFEE9FDE8FCD082D083120A5790BA24D2
:102FC700E075F00DA42425F582E5F034A0F583C063
:102FD70083C082E0FCA3E0FDA3E0FEA3E0FF78034B
:102FE7001209ECD082D083120A5790C245E020E73D
:102FF7002D90BA24E075F00DA42425F582E5F03470
:10300700A0F583C083C082E0FCA3E0FDA3E0FEA39C
:10301700E0FF78121209ECD082D083120A5790C2CF
:1030270045E030E6030230D1D2FE20FEFD90BA24FF
:10303700E0FF75F00DA42429F582E5F034A0F583AF
:10304700E5FAF075F00DEFA4242AF582E5F034A037
:10305700F583E5FBF075F00DEFA4242BF582E5F081
:1030670034A0F583E5FCF075F00DEFA4242CF58270
:10307700E5F034A0F583E5FDF0D2FE20FEFD90BA21
:1030870024E0FF75F00DA4242DF582E5F034A0F5BA
:1030970083E5FAF075F00DEFA4242EF582E5F03400
:1030A700A0F583E5FBF075F00DEFA4242FF582E57D
:1030B700F034A0F583E5FCF075F00DEFA42430F5AE
:1030C70082E5F034A0F583E5FDF075F80090BA24A9
:1030D700E004F0E59130E51A5391DF90BA26E0FF5E
:1030E700A3E06F6008124139438F04800590BA2826
:1030F700E4F0E59130E4035391EFE59130E30353B6
:1031070091F7E59130E2065391FB438F0475E80090
:02311700D2AF35
:10311900D007D006D005D004D003D002D001D0000A
:0B312900D0D0D082D083D0F0D0E032B4
:1058A900507265666C6F77004E6F7468696E670039
:1058B90049676E6974696F6E00426567696E204950
:1058C90000496E6372656173650057656C64696E42
:1058D90067004465637265617365696E6700456E4B
:1058E90064204900436C65616E696E6700466C6FA0
:1058F9007720656E64002573202020202020202039
:1059090020202020202020256420256420256420B3
:1059190025640A0D2564410A0D252E3166560A0DA6
:10592900252E3166730A0D676F6F643A2025640A64
:105939000D6261643A20202564002564410D0A0046
:10594900252E3166760005000320FF58A9FF58B1BE
:10595900FF58B9FF58C2FF58CAFF58D3FF58DBFF99
:0859690058E7FF58EDFF58F666
:0A77E40075F90175BCFD7590FD22DA
:030003000268ECA4
:1068EC00C0E0C0F0C083C082C0D075D000C000C072
:1068FC0001C002C003C004C005C006C0077F587E9B
:10690C000212769BE5B030E0F47F587E0212769B43
:10691C00E5B030E0F47F2C7E0112769BE5B030E0E0
:10692C00F4E5B020E112E51DD394504005752C011F
:10693C008003752C00751D647F017E00127092C25D
:10694C0089C28BD007D006D005D004D003D002D09A
:0E695C0001D000D0D0D082D083D0F0D0E03275
:0300130002696A15
:10696A00C0E0C0F0C083C082C0D075D000C000C0F3
:10697A0001C002C003C004C005C006C0077F587E1C
:10698A000212769BE5B030E1F47F587E0212769BC4
:10699A00E5B030E1F47F2C7E0112769BE5B030E160
:1069AA00F4E5B020E012E51DD394504005752C03A0
:1069BA008003752C02751D647F017E00127092C2DD
:1069CA0089C28BD007D006D005D004D003D002D01C
:0E69DA0001D000D0D0D082D083D0F0D0E032F7
:104A4A007E007F647D007B017AC1790F120B3C9056
:104A5A00C2AE74FFF0A37458F0A374FFF0E52D758D
:104A6A00F003A42453F582E43459F583E493F974EA
:104A7A000193FA74029390C2B1C9F0A3EAF0A3E9D0
:104A8A00F0A3E52EF0A3E52FF0A3E530F0A3E5317E
:104A9A00F0A3E522F0A3E523F0A3E52AF0A3E52B92
:104AAA00F0A3E526F0A3E527F0AC28AD29E412012E
:104ABA00A8E4FBFA7920784112010690C2BE120AD4
:104ACA0057AC24AD25E41201A8E4FBFA7920784119
:104ADA0012010690C2C2120A5790C243E0FFA3E035
:104AEA0090C2C6CFF0A3EFF090C241E0FFA3E090DE
:104AFA00C2C8CFF0A3EFF07B017AC1790F12226608
:104B0A007B017AC1790F90C2B0E4F0A37432F07FCE
:104B1A00007E25123FA67BFF7A59794390BA9EE020
:104B2A00FCA3E0FD90C277E526F0A3E527F0126327
:104B3A0070AC28AD29E41201A8E4FBFA7920784187
:104B4A0012010690C277120A5790BAA0E0FCA3E0BD
:0A4B5A00FD7BFF7A59794902637070
:104B64007B017AC2794E90C274E4F0A37403F07F9F
:104B7400167E00123A7C90C24EE0645A6003024CE6
:104B840074F07B017AC2795090C2B0F0A304F07F34
:104B9400167E00123FA690C250E0F52EA3E0F52F3A
:104BA400A3E0F530A3E0F53190C24FE0752200F5A3
:074BB40023146003024C749E
:104BBB00E490C254F090BA49E0FF90C254E0FEC3B7
:104BCB009F4003024C6B75F009EEA42456F582E569
:104BDB00F034BBF583E0FEA3E0FF90C250E0FCA3F2
:104BEB00E0FDC39FEC9E406F90C254E0FF75F0094F
:104BFB00A4245AF582E5F034BBF583E0FAA3E0FB7D
:104C0B00D3ED9BEC9A505075F009EFA42458F58224
:104C1B00E5F034BBF583E0FEA3E0FF90C252E0FC6D
:104C2B00A3E0FDC39FEC9E402EA3E0FF75F009A40B
:104C3B00245CF582E5F034BBF583E0FAA3E0FBD30B
:104C4B00ED9BEC9A501190BAFEA3E0FAA3E0F5822B
:104C5B008A83120B3A800990C254E004F0024BC0D5
:094C6B0090C254E0752A00F52BFB
:014C7400221D
:101D730090A023E0600302220090A01FE0FEA3E0F6
:101D8300FFA3E0FCA3E0FD6F7002EC6E7003022280
:011D9300004F
:101D9400741B2DF582749C3CF583E090C24EF09048
:101DA400A022E004F0700690A021E004F090A021AD
:101DB400E05403F090C23DE014602824FD60362412
:101DC400FE605724FC7003021E95147003021EC2A9
:101DD400240B70A490C24EE0B4A59D90C23D740142
:101DE400F0809590C24EE0B4A50890C23D7404F012
:101DF40080860221EC90C24EE0FFB4A50590C17329
:101E04008007EFB45A0690C1747401F090C240EF99
:101E1400F090C23D7406F0021D7C90C24EE0FFB407
:101E2400A51790C173E0B4010890C23D7404F0801A
:101E34000D90C1737401F08005E490C173F0EFB4A8
:101E44005A1290C174E0B401030221EC90C174747D
:101E540001F08005E490C174F090C24EE0FF90C29E
:101E64003FE02475F582E434C1F583EFF090C23F7E
:101E7400E004F0A3E02402FFE433FE90C23FE06FED
:101E84007001EE6003021D7C90C23D740AF0021DD5
:101E94007C90C24EE0FFB45A0990C23D740BF0022C
:101EA4001D7CEFB4A50D90C23D7401F0E490C23FD7
:0E1EB4000221F4E490C23FF090C23D0221F4FE
:101EC200E490C250F090C24EE0FF645A601BEFB43F
:101ED200A50C90C23D7401F0E490C23F8008E490EA
:101EE200C23FF090C23D0221F490C24F7401F090C3
:101EF200C240E0FF90C24FE0FED39F501A74752E8D
:101F0200F582E434C1F583E0FE90C250E02EF090F9
:101F1200C24FE004F080D874762FF582E434C1F524
:101F220083E0FF90C250E06F6022E490C23FF090E5
:101F3200C23DF090C174F090C173F090C242E004CF
:101F4200F0700690C241E004F0021D7C90C244E0B1
:101F520004F0700690C243E004F090C176E024DA07
:101F62007003021FEE24F3700302219424F670031F
:0A1F72000221A3241860030221ECF1
:101F7C0090C177E090C251F0D3942440030221EC3D
:101F8C0090C1D974A5F0A3F0A37404F0A374A5F0C8
:101F9C00A37425F090C251E090C1DEF075F002A45C
:101FAC0024ADF582E5F034BDF583E0FCA3E090C1EF
:101FBC00DFF0ECFFA3F090C1DEE0FE90C1DDE02E7F
:101FCC00FE90C1DFE02E2F90C1E1F090C1E3745A76
:0F1FDC00F090C1E2F07B017AC179D97D0B7C00D6
:031FEB0002218D43
:101FEE0090C177E090C251F0D3942440030221ECCB
:101FFE0090C1DA74A5F090C1D9F090C251E0FD25E0
:10200E00E0240490C1DBF0A374A6F0A37426F0A321
:10201E00EDF090C1DDE02D90C253F0E490C252F08D
:10202E0090C251E0FFA3E0FEC39F4003022146EEA3
:10203E00641760030220D090BDDBF0A3F090BDD1F9
:10204E00E07004A3E06402700790BDDCE04401F090
:10205E0090BDD5E07004A3E06402700790BDDCE093
:10206E004402F090BDCFE07004A3E06402700790CC
:10207E00BDDCE04404F090BDF3E07004A3E0640224
:10208E00700790BDDCE04408F090BDD3E07004A36F
:10209E00E06402700790BDDCE04410F090BDCDE02E
:1020AE007004A3E06402700790BDDCE04440F09041
:1020BE00BDE5E07004A3E06402700790BDDCE0446F
:1020CE0080F090C252E0FF75F002A424ADF582E5D7
:1020DE00F034BDF583A3E0FEEF25E0FD2406FC24DD
:1020EE00D9F582E434C1F583EEF090C252E075F07A
:1020FE0002A424ADF582E5F034BDF583E0FFED24B6
:10210E0007FE24D9F582E434C1F583EFF074D92C9F
:10211E00F582E434C1F583E0FF90C253E02FFF74E3
:10212E00D92EF582E434C1F583E02F90C253F0909E
:10213E00C252E004F002202E90C253E0FF90C25231
:10214E00E0FE25E0FD240824D9F582E434C1F583B0
:10215E00EFF0ED240A24D9F582E434C1F583745AE4
:10216E00F0EE25E0FF240924D9F582E434C1F5838D
:10217E00745AF0EF240BFD7C007B017AC179D97F74
:04218E0003123DF308
:10219200805890C177E0FF6458604FEF14F52D80AE
:0121A20049F3
:1021A30090C179E0FE90C178E07C002400FFEC3E12
:1021B30090C251F0A3EFF090C177E0FFB4400C90D0
:1021C300C251E0F526A3E0F527801EEFB4410C9041
:1021D300C251E0F528A3E0F529800EEFB4420A903E
:0921E300C251E0F524A3E0F5254A
:1021EC00E490C23FF090C23DF090C174F090C17386
:0421FC00F0021D7C54
:0122000022BB
:106C98001272BE127627C2AF53A9FE53B9FEC2893B
:106CA800D288D2A8C28BD28AD2AAD2AF1277E412E3
:106CB800512790C24F120A630001C2007F03126E6F
:106CC80074E490C23FF090C23DF090C174F090C15E
:106CD80073F0123134122A78C2AFE52C64046008CC
:106CE800AF2C127787752C04D2AF121D73124B6428
:056CF800124A4A80E38E
:0377FA00FF77FD19
:0177FD002269
:106B5900C2AFE4F5F1F5F275F30A75F40175F8AF12
:106B690030FCFDD2FE20FEFDAFFA90C481E4F0A313
:106B7900EFF0E07F00FE90C481F0A3EFF0ADFBEDF4
:106B8900FF90C481EEF0A3EFF0E4F5F8D2AF90C422
:106B990081E0FEA3E0FF9077FA75F003120A94EE04
:106BA90075F003A42583F583E493FB740193FA74C8
:0D6BB9000293F94A600789828A83120B3A21
:016BC60022AC
:0477F6000F407200CE
:1067E60078767CC47D017BFF7A7779F67E007F041C
:1067F6001206AB90C24F120A630001C200E4FF12F8
:106806006E747B017AC4797612649790BDF5740133
:10681600F0A37484F0A37400F0A37401F0A3748849
:10682600F0A37404F0A37401F0A37488F0A37406B3
:10683600F0A37404F0A3E4F07B01A304F0A374BEF8
:10684600F0A3740BF0A3EBF0A374BFF0A3740BF0EA
:10685600A3EBF0A374BFF0A3740DF0A37401F0A32F
:02686600E4F05C
:01686800220D
:106869007B017ABF790F90C274E4F0A37402F07FC0
:10687900007E0F123A7C90BF0FE0645A7062F07B81
:10688900017ABF790F90C2B0F0A37402F07F007E45
:106899000F123FA690BF12E0FDC394C840027D6469
:1068A90090BF10E0FEA3E0FBAA0690BF0F745AF058
:1068B900A374A5F0ED25E02404A3F0A37483F0EA02
:1068C900A3F0A3EBF0A3EDF0AE02AF037B017ABF17
:1068D900791690C274E4F0A3EDF0123A7C7F01229C
:0268E9007F002E
:0168EB00228A
:0B18370090C3ECEBF0A3EAF0A3E9F093
:10184200C2AF900003120AE01207BCFFAEF090C3D1
:10185200F7EEF0A3EFF0D2AF90C3ECE0FBA3E0FA17
:10186200A3E0F9900006120AE01207BCFDACF06F8B
:101872007002EC6E7003021D70C390C3F8E09D907D
:10188200C3F7E09C90C3ECE0FBA3E0FAA3E0F950BD
:10189200219000091207E7FF90C3F8E02FFF90C3E1
:1018A200F7E035F0CFC39DCF9C90C3EFF0A3EFF0EC
:1018B200801E900006120AE01207BCFFC390C3F814
:1018C200E09FFE90C3F7E095F090C3EFF0A3CEF057
:1018D200C390C3F0E0940690C3EFE0940050037FFE
:1018E200002290C3ECE0FBA3E0FAA3E0F99000062B
:1018F200120AE01207BCFDACF090C3ECE0FBA3E0DF
:10190200FAA3E0F9120AC08D828C831206EAFF90D4
:10191200C3F5E4F0A3EFF0E0F8E4F0E890C3F5F0EB
:10192200ED2401FFE43CFE90C3F9F0A3EFF090C375
:10193200ECE0FBA3E0FAA3E0F99000091207E7FD4F
:10194200C3EF9DEE95F04007E490C3F9F0A3F012C7
:101952000AC090C3F9E0FEA3E0F5828E831206EA84
:10196200FF90C3F5E0FEA3E04FFF90C3F5EEF0FE5B
:10197200A3EFF064A57003EE645A6003021D1B908E
:10198200C3ECE0FBA3E0FAA3E0F9900006120AE040
:101992001207BC2403FFE435F0FE90C3F9F0A3EF75
:1019A200F090C3ECE0FBA3E0FAA3E0F99000091287
:1019B20007E7FDC3EF9DEE95F04007E490C3F9F011
:1019C200A3F0120AC090C3F9E0FEA3E0F5828E8371
:1019D2001206EA64826003021B4990C3ECE0FBA397
:1019E200E0FAA3E0F9900006120AE01207BC240212
:1019F200FFE435F0FE90C3F9F0A3EFF090C3ECE002
:101A0200FBA3E0FAA3E0F99000091207E7FDC3EF98
:101A12009DEE95F04007E490C3F9F0A3F090C3EC7B
:101A2200E0FBA3E0FAA3E0F9120AC090C3F9E0FEDA
:101A3200A3E0F5828E831206EA2403FFE433FE90CC
:101A4200C3F1F0A3EFF0C390C3F0E09F90C3EFE0C7
:101A52009E5003021D70E490C3F3F0A3F090C3F113
:101A6200E0FEA3E0FFA3E0FCA3E0FDC39FEC9E40E9
:101A720003021B1590C3ECE0FBA3E0FAA3E0F9908C
:101A82000006120AE01207BCFFAEF090C3ECE0FBC6
:101A9200A3E0FAA3E0F9120AC08F828E831206EA4B
:101AA200FF740F2DF58274BF3CF583EFF090C3EC09
:101AB200E0FBA3E0FAA3E0F9900006120AE0E47565
:101AC200F00112081F90C3ECE0FBA3E0FAA3E0F9D7
:101AD200900006120AE01207BCFFAEF090C3ECE0E1
:101AE200FBA3E0FAA3E0F99000091207E7FDC3EFB8
:101AF2009DEE95F0400C900006120AE0E4F5F0121B
:101B0200085790C3F4E004F0700690C3F3E004F0C9
:101B1200021A5F90BF13E0FEA3E0FF7B017ABF7958
:101B22001590BF11E024FDC313FD90C2B0E4F0A3F1
:101B3200EDF0123FA690BF117403F090BF13744FE3
:101B4200F0A3744B021CCC90C3ECE0FBA3E0FAA31D
:101B5200E0F9120AC090C3F9E0FEA3E0F5828E8399
:101B62001206EA64836003021CD090C3ECE0FBA37C
:101B7200E0FAA3E0F9900006120AE01207BC240280
:101B8200FFE435F0FE90C3F9F0A3EFF090C3ECE070
:101B9200FBA3E0FAA3E0F99000091207E7FDC3EF07
:101BA2009DEE95F04007E490C3F9F0A3F090C3ECEA
:101BB200E0FBA3E0FAA3E0F9120AC090C3F9E0FE49
:101BC200A3E0F5828E831206EA2403FFE433FE903B
:101BD200C3F1F0A3EFF0C390C3F0E09F90C3EFE036
:101BE2009E5003021D70E490C3F3F0A3F090C3F182
:101BF200E0FEA3E0FFA3E0FCA3E0FDC39FEC9E4058
:101C020003021CA590C3ECE0FBA3E0FAA3E0F99069
:101C12000006120AE01207BCFFAEF090C3ECE0FB34
:101C2200A3E0FAA3E0F9120AC08F828E831206EAB9
:101C3200FF740F2DF58274BF3CF583EFF090C3EC77
:101C4200E0FBA3E0FAA3E0F9900006120AE0E475D3
:101C5200F00112081F90C3ECE0FBA3E0FAA3E0F945
:101C6200900006120AE01207BCFFAEF090C3ECE04F
:101C7200FBA3E0FAA3E0F99000091207E7FDC3EF26
:101C82009DEE95F0400C900006120AE0E4F5F01289
:101C9200085790C3F4E004F0700690C3F3E004F038
:101CA200021BEF90BF13E0FEA3E0FF7B017ABF7936
:101CB20016A3E0FD90C274E4F0A3EDF0123A7C901A
:101CC200BF15E025E0240490BF11F07F012290C3EC
:101CD200ECE0FBA3E0FAA3E0F9900006120AE0E4CC
:101CE20075F00112081F90C3ECE0FBA3E0FAA3E039
:101CF200F9900006120AE01207BCFFAEF090C3ECA6
:101D0200E0FBA3E0FAA3E0F99000091207E7FDC3A4
:101D1200EF9DEE95F04057804990C3ECE0FBA3E0C5
:101D2200FAA3E0F9900006120AE0E475F001120845
:101D32001F90C3ECE0FBA3E0FAA3E0F990000612C7
:101D42000AE01207BCFFAEF090C3ECE0FBA3E0FA9E
:101D5200A3E0F99000091207E7FDC3EF9DEE95F0AD
:101D6200400C900006120AE0E4F5F01208577F00DA
:011D7200224E
:1047E50090BA25E0FF90BA24E06F700302487E7509
:1047F500F00DEFA42425F582E5F034A0F583E0FC67
:10480500A3E0FDA3E0FEA3E0FFE47B23FAF9F8C3F0
:104815001209DB705E90BA25E075F00DA42424F52D
:1048250082E5F034A0F583E0540FFFE4FEEEC39F6C
:10483500504190BA25E075F00DA42429F582E5F0E4
:1048450034A0F583E5822EF582E43583F583E0FD1A
:1048550090BF0BE0FAA3E0240BF58274BE3AF58312
:10486500EDF090BF0CE004F0700690BF0BE004F093
:104875000E80BA90BA25E004F0126869EF64017001
:104885004190BF11E02403FDE433FC7B017ABF793D
:104895000FE4FF123DF3E490C3B8F090BF11E0249C
:1048A50003FEE43390C3B9F0A3CEF0A37401F0A3E3
:1048B50074BFF0A3740FF07F237E007D007C00128F
:1048C500341D7B017ABD79F5121837BF011590BFEC
:1048D50011E02403FDE433FC7B017ABF790FE4FF8B
:1048E500123DF37B017ABE7900121837BF012CE423
:1048F50090C3B8F090BF11E02403FEE43390C3B930
:10490500F0A3CEF0A37401F0A374BFF0A3740FF06D
:0B4915007F247E007D007C0012341D1A
:014920002274
:10777400FF988103FF988104FF988101FF9881009D
:0377840035112993
:02736400C1095D
:105E5600E490C463F0A3F0A374B0F0A374FAF0C2A4
:105E660090C2947F057E0012769BE490C467F09002
:105E7600C465E0A330E704D2928002C292C2937F47
:105E8600057E0012769BD2937F057E0012769B904C
:105E9600C466E025E0F090C465E033F090C467E0A6
:105EA60004F0E0C3941040C7D2947F057E001276BA
:105EB6009BE490C467F0C2937F057E0012769BD266
:105EC600937F057E0012769B90C464E025E0F090F7
:105ED600C463E033F0309107E0F0A3E04401F090B2
:105EE600C467E004F0E0C3941040CBD2907F057EF7
:0C5EF6000012769B90C463E0FEA3E0FF66
:015F0200227C
:105DA700E490C468F0A3F0EFFF74FAA3CFF0A3EF79
:105DB700F0C290C2947F057E0012769BE490C46C7B
:105DC700F090C46AE0A330E704D2928002C292C284
:105DD700937F057E0012769BD2937F057E00127615
:105DE7009B90C46BE025E0F090C46AE033F090C468
:105DF7006CE004F0E0C3941040C7D2947F057E00A6
:105E070012769BE490C46CF0C2937F057E001276F5
:105E17009BD2937F057E0012769B90C469E025E0B4
:105E2700F090C468E033F0309107E0F0A3E044015C
:105E3700F090C46CE004F0E0C3941040CBD2907FA4
:0E5E4700057E0012769B90C468E0FEA3E0FF8B
:015E5500222A
:106EC70090C258EFF0C290C2947F057E0012769B65
:106ED700E490C257F090C258E030E704D2928002A3
:106EE700C292C2937F057E0012769BD2937F057E66
:106EF7000012769B90C258E025E0F090C257E0045C
:106F0700F0E0C3940840CED2907F057E0002769BC6
:05556700E4FDFC7FB82B
:10556C0090C258EFF0ECA3F0A3EDF0C290C2947F80
:10557C00057E0012769BE490C257F090C258E03042
:10558C00E704D2928002C292C2937F057E0012760B
:10559C009BD2937F057E0012769B90C258E025E04B
:1055AC00F090C257E004F0E0C3940840CED2947F50
:1055BC00057E0012769BE490C257F090C25AE03000
:1055CC00E704D2928002C292C2937F057E001276CB
:1055DC009BD2937F057E0012769B90C25AE025E009
:1055EC00F090C257E004F0E0C3940840CEE490C2BF
:1055FC0057F090C259E030E704D2928002C292C2B6
:10560C00937F057E0012769BD2937F057E001276E7
:10561C009B90C259E025E0F090C257E004F0E0C343
:0D562C00940840CED2907F057E0002769B50
:06605B007BFF7D047C00C8
:0B60610090C24EEBF0A3EAF0A3E9F0C0
:10606C00AE04AF05A3EEF0A3EFF07FBC12556C901D
:10607C00C251E0FCA3E0FD7FBE12556C7FBF126ED7
:10608C00C7C290D2947F057E0012769B90C2517449
:10609C00FFF5F01207A645F0605190C24EE0FBA34D
:1060AC00E475F0011207A6A9F0FA1206D190C254B9
:1060BC00F0E490C253F090C253E0C3940850CDA3C7
:1060CC00E030E704D2928002C292C2937F057E0038
:1060DC0012769BD2937F057E0012769B90C254E081
:1060EC0025E0F090C253E004F080CBD2907F057E87
:0460FC000002769B8D
:105FAF0090C2547401F0A374C2F0A37452F090C263
:105FBF0052EFF0A3EDF090C24EE4F0A37402F0FDA7
:105FCF007C007FBC12556C90C24EE0FCA3E0FD7FBD
:105FDF00BE12556C7FBF126EC7C290D2947F0F7ED8
:105FEF000012769B90C24E74FFF5F01207A645F093
:105FFF00605190C254E0FBA3E475F0011207A6A90B
:10600F00F0FA1206D190C251F0E490C250F090C253
:10601F0050E0C3940850CDA3E030E704D292800241
:10602F00C292C2937F0F7E0012769BD2937F0F7E18
:10603F000012769B90C251E025E0F090C250E00430
:0C604F00F080CBD2907F0F7E0002769B89
:1012B7007A77797412605BE4FD7F01125FAFE4FD1A
:1012C7007F02125FAF7D577F03125FAF7DD37F042D
:1012D700125FAFE4FD7F05125FAF7D117F06125FDE
:1012E700AF7D087F07125FAFE4FD7F08125FAFE4B1
:1012F700FD7F09125FAF7D3F7F0A125FAFE4FD7F7D
:101307000B125FAFE4FD7F0C125FAFE4FD7F0D12A0
:101317005FAFE4FD7F0E125FAF7D3F7F0F125FAFC0
:101327007D3F7F10125FAFE4FD7F11125FAFE4FDD9
:101337007F12125FAFE4FD7F13125FAFE4FD7F14EE
:10134700125FAFE4FD7F15125FAFE4FD7F16125FFA
:10135700AFE4FD7F17125FAFE4FD7F18125FAFE4C4
:10136700FD7F19125FAFE4FD7F1A125FAFE4FD7FC7
:101377001B125FAFE4FD7F1C125FAFE4FD7F1D1200
:101387005FAF7D407F1E125FAF7D807F1F125FAF13
:101397007D067F20125FAF7D017F21125FAFE4FDE5
:1013A7007F22125FAFE4FD7F23125FAFE4FD7F244E
:1013B700125FAFE4FD7F25125FAFE4FD7F26125F6A
:1013C700AFE4FD7F27125FAF7D337F28125FAF7DCC
:1013D700337F29125FAFE4FD7F2A125FAFE4FD7F01
:1013E7002B125FAFE4FD7F2C125FAFE4FD7F2D1260
:1013F7005FAFE4FD7F2E125FAFE4FD7F2F125FAF7B
:10140700E4FD7F30125FAFE4FD7F31125FAFE4FD93
:101417007F32125FAFE4FD7F33125FAFE4FD7F34AD
:10142700125FAFE4FD7F35125FAFE4FD7F36125FD9
:10143700AFE4FD7F37125FAF7D787F38125FAFE48F
:10144700FD7F39125FAFE4FD7F3A125FAFE4FD7FA6
:101457003B125FAFE4FD7F3C125FAFE4FD7F3D12BF
:101467005FAFE4FD7F3E125FAFE4FD7F3F125FAFEA
:10147700E4FD7F40125FAFE4FD7F41125FAFE4FD03
:101487007F42125FAFE4FD7F43125FAFE4FD7F440D
:10149700125FAFE4FD7F50125FAF7D237F51125F74
:1014A700AF7D457F52125FAF7D677F53125FAF7D80
:1014B700897F54125FAF7DAB7F55125FAF7D017F90
:1014C70056125FAF7D237F57125FAF7D457F58125E
:1014D7005FAF7D677F59125FAF7D897F5A125FAF1C
:1014E7007DAB7F5B125FAF7DCD7F5C125FAF7DEF22
:1014F7007F5D125FAFE4FD7F5E125FAF7D0D7F5FA3
:10150700125FAF7D0D7F60125FAF7D0C7F61125F51
:10151700AF7D0C7F62125FAF7D0F7F63125FAF7D80
:101527000F7F64125FAF7D0E7F65125FAF7D0E7F09
:1015370066125FAF7D087F67125FAF7D027F68121B
:101547005FAF7D027F69125FAF7D027F6A125FAF77
:101557007D027F6B125FAF7D027F6C125FAF7D02F2
:101567007F6D125FAF7D027F6E125FAF7D027F6F6F
:10157700125FAF7D147F70125FAF7D157F71125FB1
:10158700AF7D067F72125FAF7D027F73125FAF7D03
:10159700027F74125FAF7D0D7F75125FAF7D0D7F88
:1015A70076125FAF7D0C7F77125FAF7D0C7F78126D
:1015B7005FAF7D0F7F79125FAF7D0F7F7A125FAFCD
:1015C7007D0E7F7B125FAF7D0E7F7C125FAF7D0844
:1015D7007F7D125FAF7D027F7E125FAF7D027F7FCF
:1015E700125FAF7D027F80125FAF7D027F81125F46
:1015F700AF7D027F82125FAF7D027F83125FAF7D77
:10160700027F84125FAF7D027F85125FAF7D147FFB
:1016170086125FAF7D157F87125FAF7D067F8812C9
:101627005FAF7D027F89125FAF7D027F8A125FAF56
:101637007A77797812605B7D3B7F6E125FAF7D575B
:101647007F6F125FAF7D247F3A125FAF7D1F7F8D63
:10165700125FAF7DBA7F87125FAF7DD17FB2125F16
:10166700AF7D0B7F88125FAF7D017F38125FAFE4DC
:10167700FD7F39125FAF7D077FB5125FAF7D757F45
:1016870031125FAF7D987F3B125FAF7BFF7A77792F
:101697007C12605D7D0A7F22125FAF7D097F311268
:1016A7005FAF7D077F35125FAF7D677F53125FAFF7
:1016B7007D847F55125FAF7D867F50125FAF7D823D
:1016C7007F51125FAF7D107F60125FAFE4FD7F62D5
:1016D700125FAFE4FD7FA0125FAF7D127FA1125FA3
:1016E700AF7D1F7FA2125FAF7D127FA3125FAF7D19
:1016F700167FA4125FAF7D297FA5125FAF7D1E7F86
:10170700A6125FAF7D1F7FA7125FAF7D7E7FA812F6
:101717005FAF7D1B7FA9125FAF7D287FAA125FAFE6
:101727007D6D7FAB125FAF7D197FAC125FAF7D1808
:101737007FAD125FAF7D4C7FAE125FAF7D1E7FAF77
:10174700125FAF7D237FB0125FAF7D527FB1125F13
:10175700AF7D6D7FB2125FAF7D3F7FB3125FAFE4A6
:10176700FD7FC0125FAF7D127FC1125FAF7D207F0B
:10177700C2125FAF7D107FC3125FAF7D137FC412AC
:101787005FAF7D277FC5125FAF7D1B7FC6125FAF3F
:101797007D1D7FC7125FAF7D757FC8125FAF7D1F4D
:1017A7007FC9125FAF7D287FCA125FAF7D687FCB8D
:1017B700125FAF7D1A7FCC125FAF7D187FCD125FAE
:1017C700AF7D4D7FCE125FAF7D257FCF125FAF7D9F
:1017D7002E7FD0125FAF7D537FD1125FAF7D607FC9
:1017E700D2125FAF7D3F7FD3125FAF7BFF7A7779EE
:1017F7008012605D7BFF7A7779847D017C001260BF
:10180700617F8C7E001270927BFF7A7779857D01EC
:101817007C001260617F787E001270927BFF7A777E
:1018270079867D017C001260617FAA7E000270923A
:107394007D067C087FB112556C7D227C187FB21269
:1073A400556C7D127C687FB312556C7D207C037F05
:0D73B400B412556C7D007C057FB502556C50
:105127007D507C007FB712556C125567E4FDFC7FFC
:10513700B912556C7D0A7C807FBA12556C7D067C4E
:10514700007FBB12556C7D017C007FB912556CE462
:10515700FDFC7FDE12556C7D027C237FC912556CE6
:105167007F0A7E001270921212B77D517C017FB7C1
:1051770012556C125567E4FDFC7FB912556C7D150D
:105187007C807FBA12556C7D057C007FBB12556C05
:105197007D017C007FB912556C7D027C237FC9128B
:1051A700556C7F0A7E001270927D017C237FCA12A4
:1051B700556C7D107C057FCB12556C7D057C107F6F
:1051C700CC12556C7DFF7C007FD012556C12739406
:1051D7007DD37C007FB612556C7D037C007FDE1289
:1051E700556C7D047C007FD612556C7D4B7C027F0D
:0E51F700B712556C7F3C7E00127092D20922D6
:10712200252E3166730025646D7300256473002576
:10713200644100050003200D5A64008003FFFFDF55
:107142000000303700000003000003C00000003CD4
:1071520000000C000000300000F00000000FC00032
:0871620003000000FFFB010522
:1073660002410096024500180243028A04480210B0
:097376005445014700023FFFE00D
:0C74610090C2537401F0A3745EF07D052E
:10746D00AF05EC8FF012085790C253E0FFA3E090E8
:08747D000002CF8FF002087637
:1053BA0090C259E0FAA3E02FFBEA3EFA90C25BE002
:1053CA00F8A3E02FFFE83E90C270F0A3EFF090C27E
:0E53DA0057E090C272F090C259E0FEA3E0FFCF
:1053E80090C26AEEF0A3EFF0A3ECF0A3EDF090BA50
:1053F80049E0D39430400302549090C272E0FF9089
:10540800BA49E0FE75F009A42455F582E5F034BBED
:10541800F583EFF090C26AE0FCA3E0FD75F009EEB9
:10542800A42456F582E5F034BBF583ECF0A3EDF047
:1054380090C26CE0FEA3E0FF90BA49E0FD75F00968
:10544800A42458F582E5F034BBF583EEF0A3EFF021
:10545800AF0375F009EDA4245AF582E5F034BBF5E5
:1054680083EAF0A3EFF090C270E0FEA3E0FF75F0CE
:1054780009EDA4245CF582E5F034BBF583EEF0A3D6
:09548800EFF090BA49E004F022B3
:1054910090C261E0FAA3E0FBFFAE02C006C0079034
:1054A100C266E025E0FF90C265E033FEC390C264AE
:1054B100E09FFD90C263E09EFCEB784226FBEA1878
:1054C10036FAE0FFA3E090C270CFF0A3EFF0E4A3BF
:1054D100F0A3F090C265A3E090C274F025E0A3F0C0
:1054E100A3E4F0A37443F090C267E0FFA3E090C28D
:1054F10078CFF0A3EFF0D007D006124F5690C269D3
:10550100E0FD25E0244AF582E434BAF583EEF0A308
:10551100EFF0EDFF7E0012440A90C261E0FAA3E0D1
:10552100FBFFAE02C006C00790C266E025E0FF9017
:10553100C265E033FEC390C264E09FFD90C263E0A8
:105541009EFCEB784226FBEA1836FAE0FFA3E090D6
:10555100C270CFF0A3EFF090C269E090C272F0D0B8
:0655610007D0060253E82A
:1066D30078537CC27D017E007F041206AB78577C21
:1066E300C27D017B017AC279537E007F041206AB1F
:1066F30090C257E0FEA3E0FF90713AE493FDC3908C
:10670300C25AE09DFD90C259E09400FC1274B27825
:106713005B7CC27D017E007F041206AB90C259E010
:10672300FCA3E0FDA3E0FAA3E0FBA3E0FFA3E0905A
:10673300C267CFF0A3EFF0907139E49390C269F090
:10674300A37407F0A374E0F090C257E0FEA3E0FF48
:09675300123C3C7B017AC2795B27
:01675C00221A
:10675D0078537CC27D017E007F041206AB78577C96
:10676D00C27D017B017AC279537E007F041206AB94
:10677D0090C257E0FEA3E0FF90713AE493FD90C202
:10678D005AE02DFD90C259E03400FC1274B2785BD2
:10679D007CC27D017E007F041206AB90C259E0FCE5
:1067AD00A3E0FDA3E0FAA3E0FBA3E0FFA3E090C20A
:1067BD0067CFF0A3EFF0907139E49390C269F0A325
:1067CD007407F0A374E0F090C257E0FEA3E0FF124F
:0867DD003C3C7B017AC2795BB0
:0167E5002291
:106100007841E6FE08E6FF90C258E02FFF90C257A4
:10611000E03EFE90C259E0FCA3E0FD1274B2785B51
:106120007CC27D017E007F041206AB90C259E0FC68
:10613000A3E0FDA3E0FAA3E0FBA3E0FFA3E090C28D
:1061400067CFF0A3EFF0907139E49390C269F0A3A8
:106150007407F0A374E0F090C257E0FEA3E0FF12D2
:106160003C3C90C257E0FEA3E0FF7843E6FC08E623
:10617000FD1274B278617CC27D017E007F0412063C
:10618000AB90C265E4F0A37424F0A37407F0A37489
:0F619000FFF0A3741AF01254917B017AC2795B6D
:01619F0022DD
:104D760078537CC27D017E007F041206AB78577C97
:104D8600C27D017B017AC279537E007F041206AB95
:104D96007841E6FE08E6FF90C258E02FFF90C25722
:104DA600E03EFE90C259E0FCA3E0FD1274B2785BCF
:104DB6007CC27D017E007F041206AB90C259E0FCE6
:104DC600A3E0FDA3E0FAA3E0FBA3E0FFA3E090C20B
:104DD60067CFF0A3EFF0907139E49390C269F0A326
:104DE6007407F0A374E0F090C257E0FEA3E0FF1250
:104DF6003C3C78617CC27D017B017AC279577E009A
:104E06007F041206AB7845E6FF08E690C265CFF050
:104E1600A3EFF0A374FFF0A374E0F0A3741BF012E9
:104E2600549190C257E0FEA3E0FF7843E6FC08E603
:104E3600FD1274B278617CC27D017E007F04120689
:104E4600AB90C265E4F0A37424F0A37407F0A374D6
:0F4E5600FFF0A3741CF01254917B017AC2795BB8
:014E6500222A
:105AE3007841E6FE08E6FF90C258E02FFF90C257C8
:105AF300E03EFE90713AE493FDC390C25AE09DFDEF
:105B030090C259E09400FC1274B2785B7CC27D01B0
:105B13007E007F041206AB90C25AE024FFFD90C2C0
:105B230059E034FFFC90C25BE0FAA3E0FBA3E0FF83
:105B3300A3E090C267CFF0A3EFF0907139E49390A4
:105B4300C269F0A37407F0A374E0F090C257E0FEBB
:105B5300A3E0FF123C3C90C257E0FEA3E0FF784372
:105B6300E6FC08E6FD1274B278617CC27D017E001A
:105B73007F041206AB90C265E4F0A37424F0A3740F
:105B830007F0A374FFF0A3741DF01254917B017A04
:035B9300C2795B79
:015B960022EC
:1042A50078537CC27D017E007F041206AB78577C73
:1042B500C27D017B017AC279537E007F041206AB71
:1042C500907139E493C313FF90C25FE4F0A3EFF05C
:1042D5007841E6FE08E6FF90C258E02FFF90C257EE
:1042E500E03EFE90C259E0FCA3E0FD1274B2785B9B
:1042F5007CC27D017E007F041206AB90C259E0FCB2
:10430500A3E0FDA3E0FAA3E0FBA3E0FFA3E090C2D6
:1043150067CFF0A3EFF0907139E49390C269F0A3F1
:104325007407F0A374E0F090C257E0FEA3E0FF121B
:104335003C3C90C257E0FEA3E0FF7843E6FC08E66C
:10434500FD1274B278617CC27D017E007F04120685
:10435500AB90C265E4F0A3741EF0A37407F0A374D8
:10436500FFF0A3741FF012549178617CC27D017B2C
:10437500017AC279577E007F041206AB7845E6FFC5
:1043850008E690C265CFF0A3EFF0A374F8F0A3742C
:104395001FF0A314F01254917848120A12EE54013A
:1043A500FEEE605A7846E625E0FF18E633FE90C239
:1043B5005AE02FFD90C259E03EFC907139E49375A7
:1043C500F002A42DFDE5F03CFC90C257E0FEA3E011
:1043D500FF1274B278617CC27D017E007F041206F3
:1043E500AB7845E6FF08E690C265CFF0A3EFF0A3F2
:1043F50074FFF0A374E0F0A37429F01254917B01CB
:044405007AC2795BA3
:014409002290
:104E660078537CC27D017E007F041206AB78577CA6
:104E7600C27D017B017AC279537E007F041206ABA4
:104E86007841E6FE08E6FF90C258E02FFF90C25731
:104E9600E03EFE90C259E0FCA3E0FD1274B2785BDE
:104EA6007CC27D017E007F041206AB90C259E0FCF5
:104EB600A3E0FDA3E0FAA3E0FBA3E0FFA3E090C21A
:104EC60067CFF0A3EFF0907139E49390C269F0A335
:104ED6007407F0A374E0F090C257E0FEA3E0FF125F
:104EE6003C3C90C257E0FEA3E0FF7843E6FC08E6B0
:104EF600FD1274B278617CC27D017E007F041206C9
:104F0600AB90C265E4F0A3741EF0A37407F0A3741B
:104F1600FFF0A37421F012549178617CC27D017B6D
:104F2600017AC279577E007F041206AB7845E6FF08
:104F360008E690C265CFF0A3EFF0A374FFF0A37468
:0F4F4600E0F0A37420F01254917B017AC2795BE2
:014F55002239
:105A2E007841E6FE08E6FF90C258E02FFF90C2577D
:105A3E00E03EFE90713AE493FD90C25AE02DFD9047
:105A4E00C259E03400FC1274B2785B7CC27D017ED8
:105A5E00007F041206AB90C258E02401FF90C2579B
:105A6E00E03400FEC00790C259E0FCA3E0FDA3E0C5
:105A7E00FAA3E0FBA3E0FFA3E090C267CFF0A3EF91
:105A8E00F0907139E49390C269F0A37407F0A37497
:105A9E00E0F0D007123C3C90C257E0FEA3E0FF7846
:105AAE0043E6FC08E6FD1274B278617CC27D017E8D
:105ABE00007F041206AB90C265E4F0A37424F0A339
:105ACE007407F0A374FFF0A37424F01254917B01B9
:045ADE007AC2795BB4
:015AE20022A1
:10570B007841E6FE08E6FF90C258E02FFF90C257A3
:10571B00E03EFE90C259E0FCA3E0FD1274B2785B50
:10572B007CC27D017E007F041206AB90C259E0FC67
:10573B00A3E0FDA3E0FAA3E0FBA3E0FFA3E090C28C
:10574B0067CFF0A3EFF0907139E49390C269F0A3A7
:10575B007407F0A374E0F090C257E0FEA3E0FF12D1
:10576B003C3C90C257E0FEA3E0FF7843E6FC08E622
:10577B00FD1274B278617CC27D017E007F0412063B
:10578B00AB90C265E4F0A37424F0A37407F0A37488
:10579B00FFF0A37426F012549178617CC27D017BDB
:1057AB00017AC279577E007F041206AB7845E6FF7B
:1057BB0008E690C265CFF0A3EFF0A374FFF0A374DB
:0F57CB00E0F0A37425F01254917B017AC2795B50
:0157DA0022AC
:1061A0007841E6FE08E6FF90C258E02FFF90C25704
:1061B000E03EFE90C259E0FCA3E0FD1274B2785BB1
:1061C0007CC27D017E007F041206AB90C259E0FCC8
:1061D000A3E0FDA3E0FAA3E0FBA3E0FFA3E090C2ED
:1061E00067CFF0A3EFF0907139E49390C269F0A308
:1061F0007407F0A374E0F090C257E0FEA3E0FF1232
:106200003C3C90C257E0FEA3E0FF7843E6FC08E682
:10621000FD1274B278617CC27D017E007F0412069B
:10622000AB90C265E4F0A37424F0A37407F0A374E8
:0F623000FFF0A37427F01254917B017AC2795BBF
:01623F00223C
:105B97007841E6FE08E6FF90C258E02FFF90C25713
:105BA700E03EFE90713AE493FDC390C25AE09DFD3A
:105BB70090C259E09400FC1274B2785B7CC27D01FC
:105BC7007E007F041206AB90C259E0FCA3E0FDA360
:105BD700E0FAA3E0FBA3E0FFA3E090C267CFF0A346
:105BE700EFF0907139E49390C269F0A37407F0A3C2
:105BF70074E0F090C257E0FEA3E0FF123C3C90C275
:105C070057E0FEA3E0FF90C25DE0FCA3E0FD127445
:105C1700B278617CC27D017E007F041206AB7845B5
:105C2700E6FF08E690C265CFF0A3EFF0A374FFF09C
:105C3700A374E0F0A37428F01254917B017AC2791F
:015C47005B01
:015C48002239
:05369400E490BA49F0CA
:1036990090C259F0A3F090713C93FE740193FFC35B
:1036A90074209F90C25CF074039E90C25BF07848CE
:1036B900120A1290C25D120A57E490C258F090C2E1
:1036C90057F0E4FFFEFDFC90C25DE0F8A3E0F9A32A
:1036D900E0FAA3E0FBC31209DB70030237C690C20C
:1036E9005DA3A3A3E05401FFEF70030237A490C2C6
:1036F9005BE0FCA3E0FD90713CE493FE740193FF51
:1037090090C259E0FAA3E02FFBEA3EFA90C25BE0CF
:10371900F8A3E02FFFE83E90C270F0A3EFF090C24B
:10372900581253DB90C257E025E02429F582E4348E
:10373900BAF583E0FEA3E0FF90C258E0FD7C0012D9
:10374900754B90C257E025E02429F582E434BAF597
:1037590083E0FEA3E0FFC006C00790C259E0FEA3C4
:10376900E0FFA3E0FCA3E0FD1274B2786E7CC27D99
:10377900017E007F041206ABD007D0061276C990ED
:10378900713CE493FE740193FF90C25AE02FF090CC
:10379900C259E03EF090C257E004F090C25DE0FCEF
:1037A900A3E0FDA3E0FEA3E0FF78011209EC90C2BB
:1037B9005D120A5790C258E004F00236CB90C25B02
:1037C900E0FCA3E0FD90713CE493FE740193FF12C9
:1037D90053BA90713CE493FE740193FF90C25AE08E
:1037E9002FF090C259E03EF090C25BE0FCA3E0FDEF
:1037F9001253BA90C257E025E02429F582E434BA7D
:10380900F583E0FEA3E0FFE4FDFC12754B90C2577F
:10381900E025E02429F582E434BAF583E0FEA3E04B
:10382900FFC006C00790C259E0FEA3E0FFA3E0FC79
:10383900A3E0FD1274B2786E7CC27D017E007F0424
:103849001206ABD007D0061276C9E490C257F0E44D
:1038590090C270F0A3F0A3F0FBFAFDFCFFFE125337
:10386900E890C257E004F0E0C3940640E290BAFE43
:0B38790074FFF0A3740BF0A374B1F017
:013884002221
:050BB10090C261EFF0AD
:100BB600A3120A630000000090C266740AF090C295
:100BC60066E0FFC394105070EF25E02429F582E417
:100BD60034BAF583E0FEA3E0FF74FFFDFC12754B0B
:100BE60090C266E0FF75F009A42456F582E5F0345C
:100BF600BBF583E4F0A3F075F009EFA42458F58261
:100C0600E5F034BBF583E4F0A3F075F009EFA42416
:100C16005AF582E5F034BBF583E4F0A3F075F009EC
:100C2600EFA4245CF582E5F034BBF583E4F0A3F091
:100C360090C266E004F0808690C261E0C3940840EA
:100C460003020EF1E490C266F090C266E0FBC39424
:100C56000840030212B6E47F01FEFDFC90C261E08B
:100C660075F009A42455F582E5F034BBF583E0F967
:100C7600F81209FFEB25E025E02446F582E43471FD
:100C8600F583120A3BEB5FFFEA5EFEE95DFDE85C79
:100C9600FC4D4E4F7003020EE890C266E025E0253B
:100CA600E02446F582E43471F583120A1E7847E69D
:100CB60025E025E0243EF582E43471F583120A3BF3
:100CC600EB5FFFEA5EFEE95DFDE85CFC90C2621246
:100CD6000A5790C262E0F8A3E0F9A3E0FAA3E0FBAA
:100CE600C000C001E47F01FEFDFC90C261E075F02A
:100CF60009A42455F582E5F034BBF583E0F9F81232
:100D060009FF1209C0D001D000EB5FFFEA5EFEE9E1
:100D16005DFDE85CFC90C262120A57E4FFFEFDFC32
:100D260090C262E0F8A3E0F9A3E0FAA3E0FBC312E5
:100D360009DB70030212B6E490C267F090C26674D3
:100D46000AF090C261E0FF7E0090713CE493FA7471
:100D56000193FBFDAC0212072990C268EEF0A3EFE7
:100D6600F0EB25E0FFEA33FEC374209F90C26BF0E0
:100D760074039E90C26AF0E4FFFEFDFC90C262E03E
:100D8600F8A3E0F9A3E0FAA3E0FBC31209DB7003C2
:100D96000212B690C262A3A3A3E05401FFEF700350
:100DA600020EC6A3E025E02429F582E434BAF583D1
:100DB600E0FEA3E0FFC006C00790C268E0FEA3E025
:100DC600FFA3E0FCA3E0FD1274B2786E7CC27D0145
:100DD6007E007F041206ABD007D0061276C990C2F9
:100DE60066E025E02429F582E434BAF583E0FEA323
:100DF600E0FF90C267E0FD7C0012754B90C268E090
:100E0600FEA3E0FF90C266E0FD75F009A42456F546
:100E160082E5F034BBF583EEF0A3EFF090C26AE012
:100E2600FAA3E0FB75F009EDA42458F582E5F03449
:100E3600BBF583EAF0A3EBF090713CE493FC7401FC
:100E460093FDEF2DFFEE3CFE90C266E0FD75F009C6
:100E5600A4245AF582E5F034BBF583EEF0A3EFF057
:100E660090713CE493FE740193FF90C26BE02FFFF8
:100E760090C26AE03EFE75F009EDA4245CF582E5B9
:100E8600F034BBF583EEF0A3EFF090C267E0FF907D
:100E9600C266E075F009A42455F582E5F034BBF589
:100EA60083EFF090713CE493FE740193FFC390C20C
:100EB6006BE09FF090C26AE09EF090C266E004F09C
:100EC60090C262E0FCA3E0FDA3E0FEA3E0FF780190
:100ED6001209EC90C262120A5790C267E004F0024F
:100EE6000D7D90C266E004F0020C4F90C261E0FFF7
:100EF600D3940F401475F009EFA42455F582E5F05C
:100F060034BBF583E0FF0269E8E490C266F090C264
:100F160066E0FBC3940840030212B6E47F01FEFDBF
:100F2600FC90C261E075F009A42455F582E5F03421
:100F3600BBF583E0F9F81209FFEB25E025E024462E
:100F4600F582E43471F583120A3BEB5FFFEA5EFE3D
:100F5600E95DFDE85CFC4D4E4F70030212AD78482A
:100F6600120A2E90C266E025E025E02446F582E4CA
:100F76003471F583120A1E1209C0EB5FFFEA5EFEAA
:100F8600E95DFDE85CFC7848120A4B7848120A2EA7
:100F9600C000C001E47F01FEFDFC90C261E075F077
:100FA60009A42455F582E5F034BBF583E0F9F8127F
:100FB60009FFD001D000EB4FFFEA4EFEE94DFDE8F8
:100FC6004CFC7848120A4B90C261E075F009A424E3
:100FD60055F582E5F034BBF583E0FF7E00E4FD12B3
:100FE600268490C261E075F009A42455F582E5F0E7
:100FF60034BBF583E014605F24FB24FD505F601171
:1010060024FD6059146056240D7055E47847F68027
:101016004CE47847F690C262E0F8A3E0F9A3E0FA60
:10102600A3E0FB90714A120A1E1209C0EB5FFFEAA9
:101036005EFEE95DFDE85CFC90C262120A5790C252
:1010460062E0FCA3E0FDA3E0FEA3E04440FFEC90D9
:10105600C262120A578006784776018000122A7803
:101066007847E625E025E0243EF582E43471F583F1
:10107600120A1E08120A2EEF5BFFEE5AFEED59FD0C
:10108600EC58FC90C262120A57E490C266F090C215
:1010960066E0FFC394085020EF25E02429F582E49A
:1010A60034BAF583E0FEA3E0FF74FFFDFC12754B36
:1010B60090C266E004F080D6E490C267F090C26603
:1010C600F090C268F0A3F090713C93FE740193FF18
:1010D600C374209F90C26BF074039E90C26AF0E4C2
:1010E600FFFEFDFC90C262E0F8A3E0F9A3E0FAA3DC
:1010F600E0FBC31209DB700302124F90C262A3A386
:10110600A3E05401FFEF700302122DA3E025E024B3
:1011160029F582E434BAF583E0FEA3E0FFC006C0F9
:101126000790C268E0FEA3E0FFA3E0FCA3E0FD1287
:1011360074B2786E7CC27D017E007F041206ABD04D
:1011460007D0061276C990C266E025E02429F5820A
:10115600E434BAF583E0FEA3E0FF90C267E0FD7CCD
:101166000012754B90C268E0FEA3E0FF90C266E0F5
:10117600FD75F009A42456F582E5F034BBF583EE3F
:10118600F0A3EFF090C26AE0FAA3E0FB75F009ED78
:10119600A42458F582E5F034BBF583EAF0A3EBF01E
:1011A60090713CE493FC740193FDEF2DFFEE3CFE41
:1011B60090C266E0FD75F009A4245AF582E5F03484
:1011C600BBF583EEF0A3EFF090713CE493FE74015F
:1011D60093FF90C26BE02FFF90C26AE03EFE75F06F
:1011E60009EDA4245CF582E5F034BBF583EEF0A3AB
:1011F600EFF090C267E0FF90C266E075F009A424A4
:1012060055F582E5F034BBF583EFF090713CE4933D
:10121600FE740193FF90C269E02FF090C268E03E31
:10122600F090C266E004F090C262E0FCA3E0FDA389
:10123600E0FEA3E0FF78011209EC90C262120A57A1
:1012460090C267E004F00210E590C266E0FFC39426
:101256000A505D75F009EFA42456F582E5F034BB1B
:10126600F583E4F0A3F075F009EFA42458F582E5C0
:10127600F034BBF583E4F0A3F075F009EFA4245A2B
:10128600F582E5F034BBF583E4F0A3F075F009EFE1
:10129600A4245CF582E5F034BBF583E4F0A3F0907A
:1012A600C266E004F080A290C266E004F0020F1469
:0112B6002215
:10440A0090C270EEF0A3EFF0EE6003024560EF2475
:10441A00E6B41000400302456090443175F003A4ED
:10442A00C58325F0C58373024461024525024461B0
:10443A000244610245250244B10245250244B10203
:10444A004560024560024461024525024461024416
:10445A00EB02452502452590C271E025E0FF90C296
:10446A0070E033FE744A2FF58274BA3EF583E0FC9D
:10447A00A3E0FDC004C00574A82FF58274BA3EF506
:10448A0083E0FCA3E0FDEC1201A8E4FBFA792078B2
:10449A004112010690C277120A577BFF7A7179227C
:1044AA00D005D00402455D7BFF7A71792890C271EC
:1044BA00E025E0FF90C270E033FE744A2FF5827463
:1044CA00BA3EF583E0FCA3E0FD74A82FF58274BA26
:1044DA003EF583E0FFA3E090C277CFF0A3EFF08030
:1044EA00727BFF7A71792D90C271E025E0FF90C24C
:1044FA0070E033FE744A2FF58274BA3EF583E0FC0D
:10450A00A3E0FD74A82FF58274BA3EF583E0FFA3F9
:10451A00E090C277CFF0A3EFF080387BFF7A717911
:10452A003190C271E025E0FF90C270E033FE744A18
:10453A002FF58274BA3EF583E0FCA3E0FD74A82F40
:10454A00F58274BA3EF583E0FFA3E090C277CFF01C
:07455A00A3EFF012637022D1
:1026840090C26CEEF0A3EFF0AB05EB700302278869
:10269400E025E0FF90C26CE033FE74012FF58274F4
:1026A400BB3EF583E0FCA3E0FDAF03EF3395E0FE12
:1026B40012072990C26DE025E0FB90C26CE033FA6A
:1026C40074A82BF58274BA3AF583EE8FF012079052
:1026D40090C26CE0FEA3E07802C333CE33CED8F9C7
:1026E4002407F58274BD3EF583E0FCA3E0FD74A8E5
:1026F4002BF58274BA3AF583E0FEA3E0D39DEC6433
:1027040080F8EE648098401E90C26DE025E0FF9052
:10271400C26CE033FE74A82FF58274BA3EF583ECE4
:10272400F0A3EDF0805E90C26CE0FCA3E0FDAE048B
:102734007802C333CE33CED8F92405F58274BD3E76
:10274400F583E0FAA3E0FBED25E0FFEC33FE74A88B
:102754002FF58274BA3EF583E0FEA3E0C39BEA64DE
:1027640080F8EE648098501C90C26DE025E0FF90E4
:10277400C26CE033FE74A82FF58274BA3EF583EA86
:10278400F0A3EBF090C26CE0FEA3E0FFEE60030266
:102794002A77EFB42A004003022A779027A6F82864
:1027A40028730228F70228F70228F70228F70228DC
:1027B400F70228F70229FD022A02022A100228F74A
:1027C400022A15022A1A0228F70228F7022A2902E5
:1027D4002A2E022A33022A38022A3D022A47022AD2
:1027E40051022A64022A5A022A6E022A24022A1F49
:1027F40002282402287E02282402282402287E0299
:10280400287C02287E02287C02287E02287E022858
:102814002402287E02282402287C02287E02287EA4
:1028240090C26CE0FCA3E0FD25E0FFEC33FE74A84D
:102834002FF58274BA3EF583E0F536A3E0F537EC64
:102844007032ED24E4601414601624F9601724FE39
:102854006018240C702090BDAF801290BDB3800D21
:1028640090BDB5800890BDC3800390BDC7E536F028
:04287400A3E537F0B1
:0628780080728070806E8A
:10287E0090C26CE0FCA3E0FD25E0FFEC33FE74A8F3
:10288E002FF58274BA3EF583E0F538A3E0F539EC06
:10289E00704CED24E2601F24FE602524FE6030148F
:1028AE00603224FE601F24FD602014600E240E7022
:1028BE002D90BDB1802190BDB7801C90BDF18017C9
:1028CE0090BDBB801290BDC5800D90BDCB80089091
:1028DE00BDBF800390BDC1E538F0A3E539F090C2CD
:0928EE006CE0FEA3E0FF02440AC5
:1028F70090BDADE0FFA3E090C26ECFF0A3EFF090E4
:10290700C26CE0FEA3E0FFEE60030229EDEFB40E18
:102917000040030229ED902924F82828730229BBD7
:102927000229C702296E0229800229920229A702D9
:1029370029ED0229ED0229ED0229D90229ED022903
:10294700ED02294E02296190C26EE0FEA3E0540F0A
:102957004410FF90C26EEE0229E990C26EE0F0A328
:10296700E0540FF00229ED90C26EE054F0FEA3E0B0
:10297700FFEE440190C26E806990C26EE054F0FE93
:10298700A3E0FFEE440290C26E805790C26EE054FF
:10299700F0F0A3E0F090BDD5E4F0A37402F0804618
:1029A70090C26EE054F0F0A3E0F090BDD5E4F0A340
:1029B70004F0803290C26EE0540FF0A3E0F080265E
:1029C70090C26EE0540FFEA3E0FFEE441090C26E7B
:1029D700801090C26EE0540FFEA3E0FFEE442090FB
:1029E700C26EF0A3EFF090C26EE0FFA3E090BDAD22
:0529F700CFF0A3EFF09A
:1029FC002290BDCF805290BDCFE4F0A37402F09032
:102A0C00BDF3804D90BDF3803F90BDD1804390BD10
:102A1C00D1803590BDD3803090BDD3803490BDD95A
:102A2C00802690BDD9802A90BDD9802F90BDD980A9
:102A3C003490BDD9E4F0A37405F02290BDD9E4F034
:102A4C00A37406F02290BDD7E4F0A304F02290BD4D
:102A5C00D7E4F0A37402F02290BDD7E4F0A3740382
:0C2A6C00F02290BDD7E4F0A37404F02227
:02778700AD074C
:1077890090BAA2E0FEA3E0FFED90716693FD022698
:01779900846B
:0569E80090C26CEFF00D
:1069ED007E0090BAA2E0FCA3E0FDB50705EEB5046C
:1069FD000122ED25E0FFEC33FE744A2FF58274BAC7
:106A0D003EF583E0FEA3E0FF783FE6FC08E6FD12CD
:106A1D00758B90C26CE025E0244AF582E434BAF51A
:106A2D0083E0FEA3E0FF1274EA783FA60608A607EE
:106A3D0090C26CE025E0244AF582E434BAF583E097
:106A4D00FEA3E0FF7D1F7CF812758B90C26CE0FFFA
:086A5D0090BAA2E4F0A3EFF0EF
:016A6500220E
:103134007B017ABD796D90C253E4F0A37464F07D91
:10314400017C0012746D7ABD79711274617ABD7953
:103154007590C253E4F0A37464F07D0112746D7A27
:10316400BD797990C253E4F0A37464F012746D7A5B
:10317400BD797D1274617ABD798190C2537427F050
:10318400A37410F07D0112746D7ABD798512746197
:103194007ABD798990C2537427F0A37410F07D012D
:1031A40012746D7ABD798D90C253E4F0A374C8F0A3
:1031B4007D1412746D7ABD799190C253E4F0A374B6
:1031C40050F07D1E12746D7ABD799590C253E4F06F
:1031D400A37464F07D0112746D7ABD7999127461DF
:1031E4007ABD799D90C253E4F0A37464F07D01121A
:1031F400746D7ABD79A190C253E4F0A3743CF012CB
:10320400746D7ABD79A590C253E4F0A37464F01D83
:1032140012746D7ABD79A912746190BB35E4F0A380
:1032240004F0A3E4F0A304F0A3E4F0A304F0A3E403
:10323400F0A304F0A3E4F0A304F0A3E4F0A304F0E7
:10324400A3E4F0A304F0A3E4F0A304F0A3E4F0A344
:1032540004F0A3E4F0A304F0A3E4F0A304F0A3E4D3
:10326400F0A304F0A3E4F0A304F0A3E4F0A304F0B7
:10327400A3E4F0A304F0A3E4F0A304F090BDADF044
:10328400A3E4F0A3F0A37435F090BADCE4F0A374E3
:1032940035F090BDB1E4F0A37432F090BADEE4F0FE
:1032A400A37432F090BDB3E4F0A37414F090BAE0C8
:1032B400E4F0A37414F090BDB5E4F0A37421F0908D
:1032C400BAE2E4F0A37421F090BDB7E4F0A374640F
:1032D400F090BAE4E4F0A37464F090BDB9E4F0A310
:1032E4007402F090BAE6E4F0A37402F090BDBBE47B
:1032F400F0A37496F090BAE8E4F0A37496F090BD4D
:10330400BDE4F0A37403F090BAEAE4F0A37403F00C
:1033140090BDBFE4F0A37464F090BAECE4F0A3743D
:1033240064F090BDC1E4F0A37406F090BAEEE4F04A
:10333400A37406F090BDC3E4F0A3740BF090BAF04C
:10334400E4F0A3740BF090BDC5E4F0A3743CF090DA
:10335400BAF2E4F0A3743CF090BDC7E4F0A3740B9C
:10336400F090BAF4E4F0A3740BF090BDC9E4F0A3B8
:103374007403F090BAF6E4F0A37403F090BDCBE4C8
:10338400F0A37437F090BAF8E4F0A37437F090BD6A
:10339400CDE4F0A304F0A3E4F0A304F0A3E4F0A3C9
:1033A4007402F0A3E4F0A304F0A3E4F0A37402F025
:1033B40090BDD9E4F0A37403F0A3E4F0A304F0E413
:1033C40090BDDBF0A3F0A3F0A37418F0A3E4F0A382
:1033D4007419F0A3E4F0A3741AF0A3E4F0A3741B2B
:1033E400F0A3E4F0A37402F0A3E4F0A3741DF0A32B
:1033F400E4F0A3741EF0A3E4F0A3741FF0A3E4F0BC
:10340400A37420F0A3E4F0A37421F0A3E4F0A37464
:0934140078F0A3E4F0A304F02217
:102A780090C24EE4F0A37428F0A37402F0A3742665
:102A8800F01276FB1277C890C2757403F0A3741F16
:102A9800F0A3746BF0A3744DF07BFF7A04E4FDFCA3
:102AA800FFFE1252E190C2757402F0A3748AF0A37B
:102AB8007452F0A3748AF07BBE7A007D187C017F83
:102AC800287E001252E190BAFCEEF0A3EFF090C21B
:102AD80075E4F0A374DCF0E4A3F0A3F07BFE7A04C1
:102AE8007DD2FCFFFE1252E1E490C252F074FFFB6B
:102AF800FAE4FDFCFFFE12504490C252E025E024A7
:102B080029F582E434BAF583EEF0A3EFF090C252CF
:102B1800E004F0E0C3941040D412369490BAA2E4D2
:102B2800F0A3741EF07848120A12EF5401FFE4FE75
:082B3800FDFCEF7003022C13F9
:102B4000784176000876967845760008762390C21C
:102B50004EE0FEA3E0FFA3E0FCA3E0FD1274B27818
:102B6000577CC27D017E007F041206AB1261001209
:102B700066D3124D7678537CC27D017E007F0412AD
:102B800006AB78577CC27D017B017AC279537E0007
:102B90007F041206AB125AE31242A512675D124E71
:102BA000661266D378537CC27D017E007F041206D4
:102BB000AB78577CC27D017B017AC279537E007F5E
:102BC000041206AB125A2E78537CC27D017E007F20
:102BD000041206AB78577CC27D017B017AC279531F
:102BE0007E007F041206AB12570B12675D78537C90
:102BF000C27D017E007F041206AB78577CC27D0146
:102C00007B017AC279537E007F041206AB1261A069
:102C1000022CBC7848120A12EF5402FFE4FEFDFCBD
:062C2000EF7003022CC955
:102C26007848120A12EE5420FEEE7841600E7601C4
:102C360008762C78457600087630800C7601087682
:102C460090784576000876407DC27C017F287E001C
:102C56001274B278577CC27D011266EC124D761260
:102C6600675D1242A578537CC27D017E007F041207
:102C760006AB7848120A12EE5420FEE4FDEE601A06
