:0B00F800FFFF4457494E543502652EAF
:0E38D1007B0190C26EE4F0A304F07F147E0031
:1038DF0090C269EEF0A3EFF0A3EBF0A3EAF0A3E937
:0138EF00F0E8
:1038F000E490C270F0A3F0A3F0A3F0A3F0A3F0A3B0
:10390000F0A3F090C26EE0FAA3E0FB4A7003023A23
:103910009E90C269E0FEA3E0FFC3E49FFFE49EFE29
:10392000E4FCFD90C278120A57AF03AE02E4FCFD3E
:1039300090C278E0F8A3E0F9A3E0FAA3E0FBC31299
:1039400009DB501190C278A3A3E0FFA3E090C26E00
:10395000CFF0A3EFF090C269E0FCA3E0FDECC3134D
:10396000FFED1390C270CFF0A3EFF0ED5401FFA371
:10397000E4F0A3EFF0C2AFE4F5F190C270E0FCA375
:10398000E0FDECF5F28DF375F40175F8AF30FCFD58
:1039900090C272E07002A3E0603DD2FE20FEFD9076
:1039A000C26BE0FBA3E475F0011207A6A9F0FAE5EB
:1039B000FC12071790C26BE0FBA3E475F00112073D
:1039C000A6A9F0FAE5FD12071790C26FE024FFF0F8
:1039D00090C26EE034FFF090C26EE0FCA3E0FDEC1C
:1039E000C313FFED1390C274CFF0A3EFF0ED5401B9
:1039F000FFA3E4F0A3EFF090C27474FFF5F0120798
:103A0000A645F0605BD2FE20FEFD90C26BE0FBA3FA
:103A1000E475F0011207A6A9F0FAE5FA120717906B
:103A2000C26BE0FBA3E475F0011207A6A9F0FAE56A
:103A3000FB12071790C26BE0FBA3E475F0011207BD
:103A4000A6A9F0FAE5FC12071790C26BE0FBA3E40D
:103A500075F0011207A6A9F0FAE5FD120717809785
:103A600090C276E07002A3E0602FD2FE20FEFD90AF
:103A7000C26BE0FBA3E475F0011207A6A9F0FAE51A
:103A8000FA12071790C26BE0FBA3E475F00112076E
:0E3A9000A6A9F0FAE5FB120717E4F5F8D2AF8D
:013A9E002205
:103FB90090C29BEEF0A3EFF0A3EBF0A3EAF0A3E924
:013FC900F007
:103FCA00E490C2A2F0A3F0A3F0A3F0A3F0A3F090B0
:103FDA00C2A0E07002A3E0700302414B90C29BE0D2
:103FEA00FEA3E0FFC3E49FFFE49EFED390C2A1E0DC
:103FFA009F90C2A0E09E4005EEF0A3EFF090C29B16
:10400A00E0FAA3E0FBEAC313FCEB13FDEB5401FF58
:10401A0090C2A2E4F0A3EFF0C2AFE4F5F1ECF5F23E
:10402A00AF058FF375F40175F88330FCFD90C2A2D9
:10403A00E07002A3E0603D90C29DE0FBA3E475F04E
:10404A00011207A6A9F0FA1206D1F5FC90C29DE06A
:10405A00FBA3E475F0011207A6A9F0FA1206D1F53E
:10406A00FDD2FE20FEFD90C2A1E024FFF090C2A086
:10407A00E034FFF090C2A0E0FCA3E0FDECC313FF24
:10408A00ED1390C2A4CFF0A3EFF0ED5401FFA3E427
:10409A00F0A3EFF075F88F90C2A474FFF5F0120741
:1040AA00A645F0605B90C29DE0FBA3E475F00112A7
:1040BA0007A6A9F0FA1206D1F5FA90C29DE0FBA371
:1040CA00E475F0011207A6A9F0FA1206D1F5FB90E1
:1040DA00C29DE0FBA3E475F0011207A6A9F0FA124B
:1040EA0006D1F5FC90C29DE0FBA3E475F00112072E
:1040FA00A6A9F0FA1206D1F5FDD2FE30FE9980FB90
:10410A0090C2A6E07002A3E0603275F88C90C29D5E
:10411A00E0FBA3E475F0011207A6A9F0FA1206D192
:10412A00F5FA90C29DE0FBA3E475F0011207A6A977
:10413A00F0FA1206D1F5FBD2FE20FEFDE4F5F8D224
:01414A00AFC5
:01414B002251
:1071ED00C2AFC2D3C2D4E4F58E75C870F5CDF5CC5F
:1071FD0075CBBC75CACDD2ADD2C8F593759401755A
:10720D00950275C960F5F875F901F5A8F5B8F59A07
:07721D00F5A9F5B902731990
:107319007F007E80E4F523F5240FEFAC0670010EA3
:1073290014F5828C83E4F00524E52470020523B466
:0773390000E7E523B480E248
:01734000222A
:10743A0090C462120A6355AA5AA57B017AC479627A
:10744A0090C2A0E4F0A37402F07F047E00023FB968
:0475C6007FF47E01CF
:1075CA00EF4E6010E4FD0DEDC3941840F9EF1F7003
:0475DA00EF1E80EC34
:0175DE00228A
:106C230090C3F0745AF0A374A5F0A3EEF0A3EFF0B1
:106C3300A3EBF0A3EDF090C3EFE0600A90C3F6E49A
:106C4300F0A304F08007E490C3F6F0A3F07B017A8D
:106C5300C379F090C2A0E4F0A37404F07FB07E0087
:106C6300123FB91275C67B017AC379F090C26EE404
:106C7300F0A304F07FB07E001238DF90C3F0E07021
:016C8300E22E
:016C840022ED
:0571AE0090C449EFF060
:1071B3007B017AC4794A90C26EE4F0A37402F07F33
:1071C300A07E001238DF90C449E0A3F0A37401F05D
:1071D300E490C44DF07B017AC4794A90C2A0F0A335
:0A71E3007402F07FA07E00023FB9A5
:104D4F0090C2DBE0FB90C42DF090C2DCE0FCA3E04E
:104D5F00FDA3E0FEA3E0FF78101209EC90C42EEF44
:104D6F00F090C2DCE0FCA3E0FDA3E0FEA3E0FF783F
:104D7F00081209EC90C42FEFF090C2DCA3A3A3E0BC
:104D8F0090C430F090C2E0E0FCA3E0FDEC90C431A1
:104D9F00F0A3EDF090C2E2E0FCA3E0FDEC90C43391
:104DAF00F0A3EDF0EBB4A52890C2E4E0FBA3E0FA8A
:104DBF00A3E04A4B601A90C2E0E0FEA3E0FF90C26E
:104DCF00E4A3A3E0F990C2A0ECF0A3EDF0123FB979
:104DDF007B017AC4792D90C2A0E4F0A37404F07F14
:104DEF00087E00123FB91275C67B017AC4792D90E7
:104DFF00C26EE4F0A304F07F087E001238DF90C487
:104E0F002DE070E290C2DBE0B45A2F90C2E4E0FBD9
:104E1F00A3E0FAA3E04A4B602190C2E0E0FEA3E0DA
:104E2F00FF90C2E4A3A3E0F990C2E2E0FDA3E090FB
:104E3F00C26ECDF0A3EDF01238DF7F327E0002702C
:014E4F000959
:1047CF0090C3F8745AF090C2CBE090C3F9F0640133
:1047DF00706790C2CCA3E090C3FAF090C2CEE0FC19
:1047EF00A3E0FDA3E0FEA3E0FF78101209EC90C355
:1047FF00FBEFF090C2CEE0FCA3E0FDA3E0FEA3E050
:10480F00FF78081209EC90C3FCEFF090C2CEA3A37F
:10481F00A3E090C3FDF090C2D2E0FCA3E0FDEC90CA
:10482F00C3FEF0A3EDF090C2D4E0FCA3E0FDEC904A
:10483F00C400F0A3EDF0E4803B90C2CBE0640270C3
:10484F0037A3E0FCA3E0FDEC90C3FAF0A3EDF090EA
:10485F00C2D2E0FCA3E0FDEC90C3FCF0A3EDF0901E
:10486F00C2D9E0FCA3E0FDEC90C3FEF0A3EDF0E4B1
:10487F00A3F0A3F0A3F0A3F07B017AC379F890C261
:10488F00A0E4F0A37406F07FAA7E00123FB9127560
:10489F00C67B017AC379F890C26EE4F0A304F07F6F
:1048AF00AA7E001238DF90C3F8E070E290C2CBE02E
:1048BF00B4012F90C2D6E0FBA3E0FAA3E04A4B600D
:1048CF002190C2D2E0FEA3E0FF90C2D6A3A3E0F9ED
:1048DF0090C2D4E0FDA3E090C26ECDF0A3EDF01234
:0948EF0038DF7F327E00027009FF
:0F76C9007AC4796D1238D190C46DE0FEA3E0FF52
:0176D800228F
:08698C0090C43DEEF0A3EFF012
:10699400A3745AF0A37401F090C43DE0FCA3E0FD9D
:1069A400EC90C441F0A3EDF07B017AC4793F90C22E
:1069B400A0E4F0A37402F07F847E00123FB9127544
:1069C400C67B017AC4793F90C26EE4F0A3740212CC
:1069D40038DA90C43DE0FEA3E0FFA3E0B506DFA3F0
:1069E400E0B507DAE490C43FF0A3F0A3F0A3F07B92
:1069F400017AC4793F90C2A0F0A37402F07F167E9E
:046A040000023FB994
:0870090090C248EEF0A3EFF085
:10701100E4A3F0A3F090C248E0FEA3E0FFC390C256
:107021004BE09F90C24AE09E5025E4FBFA7F017E2F
:10703100001275CA0BBB00010ABA01F1BB2CEE901C
:0F704100C24BE004F070CE90C24AE004F080C66B
:01705000221D
:10705100EF14601814602314602E24037039740136
:10706100A805088002C333D8FC42B7227401A805E1
:10707100088002C333D8FC42BC227401A8050880F1
:1070810002C333D8FC42BD22AF057401A8070880B2
:0870910002C333D8FC42BE2209
:106EDC00EF1460191460251460312403703D7401A3
:106EEC00A805088002C333D8FCF452B7227401A859
:106EFC0005088002C333D8FCF452BC227401A805E7
:106F0C00088002C333D8FCF452BD22AF057401A82B
:0C6F1C0007088002C333D8FCF452BE22E8
:1062A400EF14602D14604A146067240360030263D2
:1062B40036EB600E7401A805088002C333D8FC4293
:1062C40080227401A805088002C333D8FCF45280EC
:1062D40022EB600E7401A805088002C333D8FC4287
:1062E40090227401A805088002C333D8FCF45290AC
:1062F40022EB600E7401A805088002C333D8FC4267
:10630400A0227401A805088002C333D8FCF452A06B
:1063140022EB600E7401A805088002C333D8FC4246
:10632400B022AF057401A807088002C333D8FCF477
:0363340052B02242
:106D4500EF14601A14602714603424037042740130
:106D5500A805088002C333D8FC5580FE8034740131
:106D6500A805088002C333D8FC5590FE8024740121
:106D7500A805088002C333D8FC55A0FE8014AF05D2
:106D85007401A807088002C333D8FC55B0FE800201
:046D9500E4FEAF0663
:016D990022D7
:105011007B017AC4793590C26EE4F0A37404F07F09
:10502100167E001238DF90C435E0645A60030250E6
:10503100D6A3E0FFB40134A3E0FCA3E0FD90C2ECF1
:10504100ECF0A3EDF090C2F2ECF0A3EDF090C439D6
:10505100E0FCA3E0FD90C2F0ECF0A3EDF090C317EB
:10506100ECF0A3EDF0A37401F08030EFB4032690CF
:10507100C2EAE0FFA3E090C317CFF0A3EFF090C224
:10508100E8E0FFA3E090C2F2CFF0A3EFF090C319E4
:105091007402F0800690C3197403F090C437E0FFE6
:1050A100A3E090C2E8CFF0A3EFF090C439E0FFA3F2
:1050B100E090C2EACFF0A3EFF0E490C435F07B01B9
:1050C1007AC4793590C2A0F0A37402F07F167E00F5
:1050D100123FB9801190C436E0FF64026003EF70A3
:0B50E10005E490C319F090C319E0FF34
:0150EC0022A1
:0836E80090C404EEF0A3EFF022
:1036F00012501190C406EFF0700690C2E7F0FF225E
:1037000090C406E0B4010F7AC279EE1238D190C2AB
:10371000E77401F0FF2290C2EEE0FEA3E0FF90C448
:1037200004E06E7003A3E06F60037F012290C2E8A3
:10373000E0FEA3E0FFC390C2EDE09FFF90C2ECE08B
:103740009E90C31AF0A3EFF090C31AE0FCA3E0FD33
:10375000FFAE04120729EE3395E0FDFC90C407127A
:103760000A5790C2EAE0FEA3E0FFC390C2F1E09FD7
:10377000FF90C2F0E09E90C31CF0A3EFF090C31C3A
:10378000E0FCA3E0FDFFAE04120729EE3395E0FD57
:10379000FC90C40B120A5790C406E0640270799042
:1037A000C2E7E06401706B7F09FEFDFC90C40BE092
:1037B000F8A3E0F9A3E0FAA3E0FBC31209DB501A77
:1037C000E47F09FEFDFC90C407E0F8A3E0F9A3E064
:1037D000FAA3E0FBC31209DB4038E47F02FEFDFCE4
:1037E00090C40BE0F8A3E0F9A3E0FAA3E0FB120811
:1037F000A390C407E0F8A3E0F9A3E0FAA3E0FBD3A9
:103800001209DB90C2E750057403F0FF227404F044
:10381000FF2290C2E7E0FF2290C2E7E06401706EF1
:103820007F09FEFDFC90C40BE0F8A3E0F9A3E0FAE9
:10383000A3E0FBC31209DB501AE47F09FEFDFC90F4
:10384000C407E0F8A3E0F9A3E0FAA3E0FBC3120980
:10385000DB4038E47F02FEFDFC90C40BE0F8A3E0FF
:10386000F9A3E0FAA3E0FB1208A390C407E0F8A3D1
:10387000E0F9A3E0FAA3E0FBD31209DB90C2E75022
:10388000057403F080087404F080037F022290C264
:10389000E7E0B4031E90C2EAE0FEA3E0FFC390C3DA
:1038A00018E09FFF90C317E09E90C320F0A3EFF0B5
:1038B0007F052290C2E8E0FEA3E0FFC390C2F3E0E0
:1038C0009FFF90C2F2E09E90C31EF0A3EFF07F0630
:0138D00022D5
:04728F0002180000E1
:10755600E4F51D758911F58CF58AC28CF51AF51CB2
:0E756600438901758CBC758ACDD2A9D28C22C6
:03000B00026A087E
:0D6A0800C0E0C0D075D000C000C006C007BF
:106A1500C2AFE51D6002151D758CBC758ACD051BC1
:106A250075220074017E00A822088005C333CE3389
:106A3500CED8F9FFEF551C602DE52225E02408F896
:106A450008E61618700116E52225E02408F8E6FE8A
:106A550008E64E7011AF2204A807088002C333D898
:0F6A6500FC421AF4521C0522E522B408B6D2AF47
:0B6A7400D007D006D000D0D0D0E03218
:03002B0002766AF0
:10766A00C0E0C2AFC2C6D2AF0519E519700205184B
:03767A00D0E0322B
:1073B400C2AF7401A807088002C333D8FCFE421C84
:1073C400EF25E02408F8A60408A605EEF4521AD224
:0273D400AF22E6
:10764000C2AF7401A807088002C333D8FCF4521CEF
:05765000521AD2AF2226
:10767D00C2AF7401A807088002C333D8FC551AFFA6
:02768D00D2AF7A
:01768F0022D8
:0B757400D2B37F0512757FD2B27F05F5
:10757F00EF600EE4FE0EC3EE648094B240F71F80FE
:01758F00EF0C
:0175900022D8
:04771D0053BEF7223E
:0477210043BE082239
:1075AC00127721D2B3D2B27F0F12757FC2B37F0F85
:0A75BC0012757FC2B27F0F02757FC7
:0A745A007F0F127234AF0312723478
:10746400127721C2B3D2B27F0F12757FD2B37F0FCE
:0674740012757F02771D76
:0F76D900127721C2B3127576C2B27F0502757F98
:0D770600127721127574C2B27F0502757FE3
:1074DA0012771D127574E4FD30B30A7F0512757FA9
:0F74EA000DEDB432F3C2B27F0512757F02772128
:10722400127234E0FF1272341274641275AC7F640B
:02723400AD07A4
:10723600127721E4FCED30E704D2B38002C2B3ED4D
:1072460025E0FD127576C2B27F0512757F0CECB48F
:0572560008E30274DAF8
:0D725B007F0F1272341275AC7F6512723411
:1072680012771DE4FC127576ED25E0FD30B3054478
:1072780001FD8004ED54FEFDC2B27F0512757F0C3E
:06728800ECB408E1AF05C3
:01728E0022DD
:105CBD0012722F12725BAB071276D9127268AA0795
:105CCD00127706127464EB20E003025D6B5484605E
:105CDD000AEB547BFB12722F12745AEB54FEFBEA43
:105CED0030E713547FFA12722F7F10127234AF0205
:105CFD00127234127464EA4480FA12722F7F1012F9
:105D0D007234AF02127234127464EB4484FB12725B
:105D1D002F7F0F127234AF03127229E4FF12723407
:105D2D00E4FF127234E4FF1272347F801272347FFA
:105D3D00051272347F011272347F011272347F2189
:105D4D00127234127464EB547BFBEA547FFA1272B4
:0E5D5D002F7F10127234AF0212722912745A84
:015D6B002215
:105F770012722F12725B90C46FEFF01276D9127201
:105F870068A3EFF0127706127464E04480F012728F
:105F97002F7F10127234E0FF12723412746490C4AF
:105FA7006FE04484F012722F7F0F127224E4FF1205
:105FB70072349000061206EAFF127234900005123E
:105FC70006EAFF1272349000041206EAFF127234D6
:105FD7009000031206EAFF1272349000021206EADA
:105FE700FF1272349000011206EAFF127234120691
:105FF700D1FF12723412746490C46FE0547BF0A323
:10600700E0547FF012722F7F101272247F0F1272EA
:0C6017003490C46FE0FF12723402746415
:1059D30012722FE4FF1272341275AC7F65127234A7
:1059E3007B06127268740F2BF582E434C4F583EFDF
:1059F300F01276D9DBEC12726890C40FEFF01277D5
:105A03000612746490C413E0547FF0E4FB740F2B0C
:105A1300F582E434C4F583E0FFC4540FFE90C41749
:105A2300F0EF540FFFA3F0EE75F00AA42FFF740FED
:105A33002BF582E434C4F583EFF00BEBB403CE7B98
:105A430004740F2BF582E434C4F583E0FFC4540FD0
:105A5300FE90C417F0EF540FFFA3F0EE75F00AA405
:105A63002FFF740F2BF582E434C4F583EFF00BEBB7
:105A7300B407CEE490C416F07B017AC4790F90C2C8
:0D5A8300A0F0A37404F07F107E00023FB974
:10769000EF75F00A84C454F0FEEF75F00A84E5F04B
:0376A0004EFF2278
:0F76E800EFC4540F75F00AA4FEEF540F2EFF22CB
:0763C80090C44EEBF0AB079F
:1063CF00ED64016004EDB4021BED240CFEE4339088
:1063DF00C44FF0A3CEF0EB24FFFEE434FFA3F0A3F1
:1063EF00CEF08012AF0590C44FE4F0A3EFF0AF03EF
:1063FF00A3E4F0A3EFF090C450E02401FF90C44F4A
:10640F00E03400FE7C007D1A1207297D0A12073B3B
:10641F00AC06AD0790C451E0FAA3E0FBAE027802E0
:10642F00CEC313CE13D8F92BFFEA3ECF2DCF3CFEB0
:10643F0090C44EE07C002FFFEC3ECF24DCCF34FF26
:08644F00FE7D0712073BAF05BB
:016457002222
:105D6C007B017AC379CC90C26EE4F0A37404F07F0B
:105D7C009C7E001238DF90C3CCE0645A6003025E54
:105D8C001AA3E064A56003025E1AA3E0FF127690EA
:105D9C0090C3D4EFF090C3CFE0FF12769090C3D5B0
:105DAC00EFF090C3D0E0FF12769090C3D6EFF09056
:105DBC00C3CEE0FFA3E0FDA3E0FB1263C890C3D702
:105DCC00EFF090C3D1E0FF12769090C3D8EFF0447F
:105DDC0080F090C3D2E0FF12769090C3D9EFF09090
:105DEC00C3D3E0FF12769090C3DAEFF07B017AC355
:105DFC0079D4125F77E490C3CCF0A3F07AC379CC5A
:0E5E0C0090C2A0F0A304F07F9C7E00123FB96C
:015E1A002265
:1075DF007D027F031270517D037F03127051125988
:0975EF00D3E4F518F519025D6CF6
:106E8E00AB07AA06A905A8047F007E387D317C00D9
:106E9E0012092EC3E49F90C24EF074049E90C24D10
:106EAE00F043C9407D04E4FF1270517D05E4FF12EA
:106EBE006EDC43803075D88075985090C24DE0FCE2
:0D6ECE00A3E0FDECF5BA8DAA43A810D2ACEC
:016EDB002294
:106FC000AB07AA06A905A8047F007E707D627C003D
:106FD00012092EC3E49F90C24EF074049E90C24DDD
:106FE000F043C9207D06E4FF1270517D07E4FF12D3
:106FF0006EDC4380C0759B9090C24DE0FCA3E0FD29
:08700000ECF5BB8D9D439A01E4
:017008002265
:10734100759680759780AB07AA06A905A8047F00EA
:107351007EC07D897C0112092EAD07AC06ECF5D902
:07736100AF058FE743B80CF4
:017368002202
:10716D0075A78075AB80AB07AA06A905A8047F009B
:10717D007EC07D897C0112092EAD07AC06ECF5AE03
:10718D00AF058FAF43B830E490A01BF0A3F0A3F090
:10719D00A3F090A023F090A01FF0A3F0A3F0A3F014
:0171AD0022BF
:106D9A00EF14601B1460291460372403704490C2F6
:106DAA0049E0FCA3E0FDA3E0FEA3E0FF026E8E90A3
:106DBA00C249E0FCA3E0FDA3E0FEA3E0FF026FC02E
:106DCA0090C249E0FCA3E0FDA3E0FEA3E0FF02734A
:106DDA004190C249E0FCA3E0FDA3E0FEA3E0FF125C
:036DEA00716D22A6
:103C560090C24EEFF0A3ECF0A3EDF0A3EBF0A3EAD5
:043C6600F0A3E9F0EE
:103C6A00C2AFE4A3F0A3F090C24FE0FEA3E0FFC30B
:103C7A0090C255E09F90C254E09E4003023D2E90B0
:103C8A00C251E0FBA3E475F0011207A6A9F0FA12EB
:103C9A0006D1FF90C24EE0FE75F009A42400F58219
:103CAA00E5F03488F583EE75F008A42583F583E002
:103CBA00FCA3E0FD75F009EEA42400F582E5F034DA
:103CCA0080F583EE75F008A42583F583E5822DF54A
:103CDA0082E5833CF583EFF075F009EEA42400F544
:103CEA0082E5F03488F583EE75F008A42583F58320
:103CFA00E475F00112079075F009EEA42400F5822C
:103D0A00E5F03488F583EE75F008A42583F583E0A1
:103D1A005403F090C255E004F0700690C254E004D7
:103D2A00F0023C7190C24EE014604214607014704C
:103D3A0003023DD624036003023E06908808E06031
:103D4A0003023E0604F0908802E0FEA3E02400F598
:103D5A008274803EF583E0F599908803E004F07060
:103D6A0006908802E004F0908802023E02909011C8
:103D7A00E06003023E0604F090900BE0FEA3E0240C
:103D8A0009F58274883EF583E0F59C90900CE00476
:103D9A00F0700690900BE004F090900B805A909887
:103DAA001AE0705804F0909814E0FEA3E02412F58B
:103DBA008274903EF583E0F59E909815E004F070C9
:103DCA0006909814E004F0909814802C90A023E0B8
:103DDA00702A04F090A01DE0FEA3E0241BF5827473
:103DEA00983EF583E0F5AC90A01EE004F0700690D2
:0E3DFA00A01DE004F090A01DE05403F0D2AF35
:013E08002297
:030023000264581C
:10645800C0E0C083C082C0D075D000C006C007C2EB
:10646800AF30982AC298908804E0FEA3E02400F593
:106478008274843EF583E599F0908805E004F07015
:1064880006908804E004F0908804E05403F0309902
:106498003FC299908802E0FEA3E0FF908800E06E7A
:1064A8007003A3E06F602474002FF58274803EF5BA
:1064B80083E0F599908803E004F07006908802E084
:1064C80004F0908802E05403F08005908808E4F016
:0F64D800D2AFD007D006D0D0D082D083D0E03260
:03005300026C85B7
:106C8500C0E0C083C082C0D075D000C006C007C2B6
:106C9500AF5396FE909814E0FEA3E0FF909812E0A3
:106CA5006E7003A3E06F602474122FF58274903E1A
:106CB500F583E0F59E909815E004F0700690981421
:106CC500E004F0909814E05403F0800590981AE4DD
:106CD500F0D2AFD007D006D0D0D082D083D0E0326A
:03005B0002709997
:10709900C0E0C083C082C0D075D000C006C2AF5363
:1070A90097FE909816E0FEA3E02412F58274943EB0
:1070B900F583E59FF0909817E004F0700690981614
:1070C900E004F0909816E05403F0D2AFD006D0D087
:0770D900D082D083D0E03229
:03006300026CE547
:106CE500C0E0C083C082C0D075D000C006C007C256
:106CF500AF53A7FE90A01DE0FEA3E0FF90A01BE010
:106D05006E7003A3E06F6024741B2FF58274983EA8
:106D1500F583E0F5AC90A01EE004F0700690A01D90
:106D2500E004F090A01DE05403F0800590A023E45A
:106D3500F0D2AFD007D006D0D0D082D083D0E03209
:03006B000270E040
:1070E000C0E0C083C082C0D075D000C006C2AF531C
:1070F000ABFE90A01FE0FEA3E0241BF582749C3E33
:10710000F583E5ADF090A020E004F0700690A01F9C
:10711000E004F090A01FE05403F0D2AFD006D0D02E
:07712000D082D083D0E032E1
:03008300026174A3
:10617400C0E0C083C082C0D075D000C006C007C2D2
:10618400AFE59B30E02E759B90539BFE90900DE005
:10619400FEA3E02409F582748C3EF583E59CF0901F
:1061A400900EE004F0700690900DE004F090900DD5
:1061B400E05403F0E59B30E143759B90539BFD90C5
:1061C400900BE0FEA3E0FF909009E06E7003A3E063
:1061D4006F602474092FF58274883EF583E0F59C82
:1061E40090900CE004F0700690900BE004F0909016
:1061F4000BE05403F08005909011E4F0D2AFD00787
:0B620400D006D0D0D082D083D0E03292
:1063370090C46AEBF0A3EAF0A3E9F07D02E4FF1250
:1063470070517D03E4FF126EDC7B017D02E4FF12D6
:1063570062A443C98075F1FFE4F5F275F36075F443
:106367000175F88F30FCFD90C46AE0FBA3E0FAA347
:10637700E0F91206D1F5FA9000011206EAF5FB9052
:1063870000021206EAF5FC9000031206EAF5FDD2B8
:10639700FE20FEFDE4F5FAF5FBF5FCF5FDD2FE2047
:1063A700FEFD75FAFF75FBFF75FCFF75FDFFD2FE5D
:1063B70020FEFDE4F5F8758FA0E58F20E5FBD2B947
:0163C70022B3
:10759100E5E830E51553E8DF438F407FE87E0312CD
:0B75A10075CA538FBFE490BA28F02297
:10414C0075F1FFE4F5F275F36475F40175F88F30D1
:10415C00FCFD90BA27E075F00DA42424F582E5F05F
:10416C0034ADF583E0F5FAE4F5FBF5FCF5FDD2FE94
:10417C0020FEFD90BA27E0FB75F00DA42425F582F6
:10418C00E5F034ADF583E0FCA3E0FDA3E0FEA3E095
:10419C00FF78181209EC8FFA75F00DEBA42425F5B5
:1041AC0082E5F034ADF583E0FCA3E0FDA3E0FEA3D3
:1041BC00E0FF78101209EC8FFB90BA27E0FB75F04A
:1041CC000DA42425F582E5F034ADF583E0FCA3E0E5
:1041DC00FDA3E0FEA3E0FF78081209EC8FFC75F05C
:1041EC000DEBA42425F582E5F034ADF583A3A3A350
:1041FC00E0F5FDD2FE20FEFD90BA27E0FF75F00D34
:10420C00A42429F582E5F034ADF583E0F5FA75F0D8
:10421C000DEFA4242AF582E5F034ADF583E0F5FB2F
:10422C0090BA27E0FF75F00DA4242BF582E5F0344D
:10423C00ADF583E0F5FC75F00DEFA4242CF582E5CB
:10424C00F034ADF583E0F5FDD2FE20FEFD90BA27EB
:10425C00E0FF75F00DA4242DF582E5F034ADF58367
:10426C00E0F5FA75F00DEFA4242EF582E5F034ADEF
:10427C00F583E0F5FB90BA27E0FF75F00DA4242F31
:10428C00F582E5F034ADF583E0F5FC75F00DEFA4A7
:10429C002430F582E5F034ADF583E0F5FDD2FE2057
:0C42AC00FEFD90BA27E004F0E4F5F822D3
:06308F0090C3A4120A57D1
:10309500D390C3AAE0940090C3A9E094084003022A
:1030A500330590C3A8E0FB90C3A430E70FE0FCA371
:1030B500E0FDA3E0FEA3E0FF7803800DE0FCA3E0C4
:1030C500FDA3E0FEA3E0FF78151209FF90C3B3123C
:1030D5000A5790BA26E0FA75F00DA42424F582E586
:1030E500F034ADF583E030E63890C3B3E0FCA3E0FF
:1030F500FDA3E0FEA3E0FF75F00DEAA42425F5820B
:10310500E5F034ADF583120A57EB54C0FF75F00DA9
:10311500EAA42424F582E5F034ADF583EFF002321C
:10312500E990C3A9E0FCA3E0FDAE047803CEC31388
:10313500CE13D8F990C3B1F0ED5407A3F0E490C3D2
:10314500B0F090C3A8E054C0FFE4FCFDFE90C3B707
:10315500120A57E490C3AEF090C3B1E0FF90C3AE3E
:10316500E0C39F400302321490C3B3E0FCA3E0FD2B
:10317500A3E0FEA3E0FF90BA26E0FB75F00DA424C2
:1031850025F582E5F034ADF583120A5790C3B7E013
:10319500FCA3E0FDA3E0FEA3E04408FF75F00DEB02
:1031A500A42424F582E5F034ADF583EFF0E490C373
:1031B500AFF090C3AFE0FFC39408504490C3ABE0B9
:1031C500FBA3E0FAA3E0F990C3B0E0F582758300B4
:1031D5001206EAFE90BA26E075F00DA42429F582C0
:1031E500E5F034ADF583E5822FF582E43583F5838B
:1031F500EEF090C3B0E004F090C3AFE004F080B20D
:1032050090BA26E004F090C3AEE004F002315D9080
:10321500C3B2E0FB70030232EFA3E0FCA3E0FDA321
:10322500E0FEA3E0FF90BA26E075F00DA42425F595
:1032350082E5F034ADF583120A57AF0390C3B7A307
:10324500E0F9A3E0FAA3E04FFF90BA26E075F00D90
:10325500A42424F582E5F034ADF583EFF0E490C3C2
:10326500AFF090C3B2E0FF90C3AFE0FEC39F504400
:1032750090C3ABE0FBA3E0FAA3E0F990C3B0E0F59F
:10328500827583001206EAFF90BA26E075F00DA458
:103295002429F582E5F034ADF583E5822EF582E447
:1032A5003583F583EFF090C3B0E004F090C3AFE051
:1032B50004F080AE90C3AFE0FFC39408502690BAE7
:1032C50026E075F00DA42429F582E5F034ADF583EB
:1032D500E5822FF582E43583F583E4F090C3AFE012
:1032E50004F080D090BA26E004F090BA28E070107F
:1032F500C2AF12414CD2AF90BA287401F0438F048B
:0133050022A5
:03004B00022A4C3A
:102A4C00C0E0C0F0C083C082C0D075D000C000C050
:0D2A5C0001C002C003C004C005C006C007D1
:102A6900C2AFE59130E70353913FE59120E60302B8
:102A79002D4C5391BF75F1FF75F20075F36875F42C
:102A89000175F8AF30FCFDD2FE20FEFD90C23FE596
:102A9900FAF0E0FF90BA24E075F00DA42424F58241
:102AA900E5F034A0F583EFF0D2FE20FEFD90BA24C4
:102AB900E075F00DA42425F582E5F034A0F583C076
:102AC90083C082E0FCA3E0FDA3E0FEA3E0FF780859
:102AD9001209FFD082D083120A5790BA24E075F008
:102AE9000DA42425F582E5F034A0F583C083C082C6
:102AF900E0F8A3E0F9A3E0FAA3E0FBAFFAEB4FFF9C
:102B0900EAFEE9FDE8FCD082D083120A5790BA2484
:102B1900E075F00DA42425F582E5F034A0F583C015
:102B290083C082E0FCA3E0FDA3E0FEA3E0FF7808F8
:102B39001209FFD082D083120A5790BA24E075F0A7
:102B49000DA42425F582E5F034A0F583C083C08265
:102B5900E0F8A3E0F9A3E0FAA3E0FBAFFBEB4FFF3A
:102B6900EAFEE9FDE8FCD082D083120A5790BA2424
:102B7900E075F00DA42425F582E5F034A0F583C0B5
:102B890083C082E0FCA3E0FDA3E0FEA3E0FF780898
:102B99001209FFD082D083120A5790BA24E075F047
:102BA9000DA42425F582E5F034A0F583C083C08205
:102BB900E0F8A3E0F9A3E0FAA3E0FBAFFCEB4FFFD9
:102BC900EAFEE9FDE8FCD082D083120A5790BA24C4
:102BD900E075F00DA42425F582E5F034A0F583C055
:102BE90083C082E0FCA3E0FDA3E0FEA3E0FF780838
:102BF9001209FFD082D083120A5790BA24E075F0E7
:102C09000DA42425F582E5F034A0F583C083C082A4
:102C1900E0F8A3E0F9A3E0FAA3E0FBAFFDEB4FFF77
:102C2900EAFEE9FDE8FCD082D083120A5790BA2463
:102C3900E075F00DA42425F582E5F034A0F583C0F4
:102C490083C082E0FCA3E0FDA3E0FEA3E0FF7803DC
:102C59001209ECD082D083120A5790C23FE020E7D4
:102C69002D90BA24E075F00DA42425F582E5F03401
:102C7900A0F583C083C082E0FCA3E0FDA3E0FEA32E
:102C8900E0FF78121209ECD082D083120A5790C261
:102C99003FE030E603022D43D2FE20FEFD90BA2428
:102CA900E0FF75F00DA42429F582E5F034A0F58341
:102CB900E5FAF075F00DEFA4242AF582E5F034A0C9
:102CC900F583E5FBF075F00DEFA4242BF582E5F013
:102CD90034A0F583E5FCF075F00DEFA4242CF58202
:102CE900E5F034A0F583E5FDF0D2FE20FEFD90BAB3
:102CF90024E0FF75F00DA4242DF582E5F034A0F54C
:102D090083E5FAF075F00DEFA4242EF582E5F03491
:102D1900A0F583E5FBF075F00DEFA4242FF582E50E
:102D2900F034A0F583E5FCF075F00DEFA42430F53F
:102D390082E5F034A0F583E5FDF075F80090BA243A
:102D4900E004F0E59130E51A5391DF90BA26E0FFEF
:102D5900A3E06F600812414C438F04800590BA28A4
:102D6900E4F0E59130E4035391EFE59130E3035347
:102D790091F7E59130E2065391FB438F0475E80022
:022D8900D2AFC7
:102D8B00D007D006D005D004D003D002D001D0009C
:0B2D9B00D0D0D082D083D0F0D0E03246
:105A9000507265666C6F77004E6F7468696E670050
:105AA00049676E6974696F6E00426567696E204967
:105AB00000496E6372656173650057656C64696E59
:105AC00067004465637265617365696E6700456E62
:105AD00064204900436C65616E696E6700466C6FB7
:105AE0007720656E64002573202020202020202050
:105AF00020202020202020256420256420256420CB
:105B000025640A0D2564410A0D252E3166560A0DBD
:105B1000252E3166730A0D676F6F643A2025640A7B
:105B20000D6261643A2025640004FF031FFF5A9050
:105B3000FF5A98FF5AA0FF5AA9FF5AB1FF5ABAFF5D
:0B5B40005AC2FF5ACEFF5AD4FF5ADDB4
:0A77130075F90175BCFD7590FD22AB
:030003000268127E
:10681200C0E0C0F0C083C082C0D075D000C000C04C
:1068220001C002C003C004C005C006C0077F587E75
:10683200021275CAE5B030E0F47F587E021275CAC2
:10684200E5B030E0F47F2C7E011275CAE5B030E08D
:10685200F4E5B020E112E51DD394504005754001E6
:106862008003754000751D647F017E00127009C2AD
:1068720089C28BD007D006D005D004D003D002D075
:0E68820001D000D0D0D082D083D0F0D0E03250
:03001300026890F0
:10689000C0E0C0F0C083C082C0D075D000C000C0CE
:1068A00001C002C003C004C005C006C0077F587EF7
:1068B000021275CAE5B030E1F47F587E021275CA43
:1068C000E5B030E1F47F2C7E011275CAE5B030E10D
:1068D000F4E5B020E012E51DD39450400575400367
:1068E0008003754002751D647F017E00127009C22D
:1068F00089C28BD007D006D005D004D003D002D0F7
:0E69000001D000D0D0D082D083D0F0D0E032D1
:1057830090C29E74FFF0A3745AF0A374E6F0E5414F
:1057930075F003A4242DF582E4345BF583E493F9D7
:1057A300740193FA74029390C2A1C9F0A3EAF0A31F
:1057B300E9F0A3E542F0A3E543F0A3E544F0A3E554
:1057C30045F0A3E536F0A3E537F0A3E53EF0A3E506
:1057D3003FF0A3E53AF0A3E53BF0AC3CAD3DE4126A
:1057E30001A8E4FBFA7920784112010690C2AE12B7
:1057F3000A57AC38AD39E41201A8E4FBFA792078F2
:105803004112010690C2B2120A5790C23DE0FFA3B3
:10581300E090C2B6CFF0A3EFF090C23BE0FFA3E06D
:1058230090C2B8CFF0A3EFF07B017AC179091222BD
:105833003A7B017AC1790990C2A0E4F0A37432F0F3
:075843007F007E25023FB942
:104B3C007B017AC2794890C26EE4F0A37403F07FD3
:104B4C00167E001238DF90C248E0645A6003024CB3
:104B5C004CF07B017AC2794A90C2A0F0A304F07F9A
:104B6C00167E00123FB990C24AE0F542A3E0F5432D
:104B7C00A3E0F544A3E0F54590C249E0753600F595
:074B8C0037146003024C4CDA
:104B9300E490C24EF090BA49E0FF90C24EE0FEC3EB
:104BA3009F4003024C4375F009EEA42450F582E5BF
:104BB300F034BBF583E0FEA3E0FF90C24AE0FCA320
:104BC300E0FDC39FEC9E406F90C24EE0FF75F0097D
:104BD300A42454F582E5F034BBF583E0FAA3E0FBAB
:104BE300D3ED9BEC9A505075F009EFA42452F58253
:104BF300E5F034BBF583E0FEA3E0FF90C24CE0FC9C
:104C0300A3E0FDC39FEC9E402EA3E0FF75F009A433
:104C13002456F582E5F034BBF583E0FAA3E0FBD339
:104C2300ED9BEC9A501190BAF8A3E0FAA3E0F58259
:104C33008A83120B3A800990C24EE004F0024B982B
:094C430090C24EE0753E00F53F01
:014C4C002245
:101D470090A023E060030221D490A01FE0FEA3E04F
:101D5700FFA3E0FCA3E0FD6F7002EC6E70030221AD
:011D6700D4A7
:101D6800741B2DF582749C3CF583E090C248F0907A
:101D7800A022E004F0700690A021E004F090A021D9
:101D8800E05403F090C237E014602824FD60362444
:101D9800FE605724FC7003021E69147003021E962D
:101DA800240B70A490C248E0B4A59D90C23774017A
:101DB800F0809590C248E0B4A50890C2377404F04A
:101DC80080860221C090C248E0FFB4A50590C16D8D
:101DD8008007EFB45A0690C16E7401F090C23AEFD2
:101DE800F090C2377406F0021D5090C248E0FFB46C
:101DF800A51790C16DE0B4010890C2377404F08053
:101E08000D90C16D7401F08005E490C16DF0EFB4E0
:101E18005A1290C16EE0B401030221C090C16E74E1
:101E280001F08005E490C16EF090C248E0FF90C2D6
:101E380039E0246FF582E434C1F583EFF090C239BC
:101E4800E004F0A3E02402FFE433FE90C239E06F1F
:101E58007001EE6003021D5090C237740AF0021D33
:101E68005090C248E0FFB45A0990C237740BF00290
:101E78001D50EFB4A50D90C2377401F0E490C2393B
:0E1E88000221C8E490C239F090C2370221C88E
:101E9600E490C24AF090C248E0FF645A601BEFB477
:101EA600A50C90C2377401F0E490C2398008E49022
:101EB600C239F090C2370221C890C2497401F0902D
:101EC600C23AE0FF90C249E0FED39F501A746F2ECB
:101ED600F582E434C1F583E0FE90C24AE02EF0902C
:101EE600C249E004F080D874702FF582E434C1F55D
:101EF60083E0FF90C24AE06F6022E490C239F0901E
:101F0600C237F090C16EF090C16DF090C23CE00413
:101F1600F0700690C23BE004F0021D5090C23EE015
:101F260004F0700690C23DE004F090C170E024DA3F
:101F36007003021FC224F3700302216824F67003A3
:0A1F4600022177241860030221C075
:101F500090C171E090C24BF0D3942440030221C0A1
:101F600090C1D374A5F0A3F0A37404F0A374A5F0FA
:101F7000A37425F090C24BE090C1D8F075F002A494
:101F800024A7F582E5F034BDF583E0FCA3E090C121
:101F9000D9F0ECFFA3F090C1D8E0FE90C1D7E02EBD
:101FA000FE90C1D9E02E2F90C1DBF090C1DD745AB4
:0F1FB000F090C1DCF07B017AC179D37D0B7C000E
:031FBF000221619B
:101FC20090C171E090C24BF0D3942440030221C02F
:101FD20090C1D474A5F090C1D3F090C24BE0FD251E
:101FE200E0240490C1D5F0A374A6F0A37426F0A354
:101FF200EDF090C1D7E02D90C24DF0E490C24CF0CC
:1020020090C24BE0FFA3E0FEC39F400302211AEE01
:10201200641760030220A490BDD5F0A3F090BDCB5D
:10202200E07004A3E06402700790BDD6E04401F0C2
:1020320090BDCFE07004A3E06402700790BDD6E0CB
:102042004402F090BDC9E07004A3E06402700790FE
:10205200BDD6E04404F090BDEDE07004A3E064025C
:10206200700790BDD6E04408F090BDCDE07004A3A7
:10207200E06402700790BDD6E04410F090BDC7E066
:102082007004A3E06402700790BDD6E04440F09073
:10209200BDDFE07004A3E06402700790BDD6E044A7
:1020A20080F090C24CE0FF75F002A424A7F582E50F
:1020B200F034BDF583A3E0FEEF25E0FD2406FC2409
:1020C200D3F582E434C1F583EEF090C24CE075F0B2
:1020D20002A424A7F582E5F034BDF583E0FFED24E8
:1020E20007FE24D3F582E434C1F583EFF074D32CD8
:1020F200F582E434C1F583E0FF90C24DE02FFF7416
:10210200D32EF582E434C1F583E02F90C24DF090D6
:10211200C24CE004F002200290C24DE0FF90C24C9B
:10212200E0FE25E0FD240824D3F582E434C1F583E2
:10213200EFF0ED240A24D3F582E434C1F583745A16
:10214200F0EE25E0FF240924D3F582E434C1F583BF
:10215200745AF0EF240BFD7C007B017AC179D37FA6
:0421620003123C56D2
:10216600805890C171E0FF6458604FEF14F54180CC
:01217600491F
:1021770090C173E0FE90C172E07C002400FFEC3E4A
:1021870090C24BF0A3EFF090C171E0FFB4400C9008
:10219700C24BE0F53AA3E0F53B801EEFB4410C904B
:1021A700C24BE0F53CA3E0F53D800EEFB4420A9048
:0921B700C24BE0F538A3E0F53954
:1021C000E490C239F090C237F090C16EF090C16DCA
:0421D000F0021D50AC
:0121D40022E8
:106BBE001271ED127556C2AF53A9FE53B9FEC289BA
:106BCE00D288D2A8C28BD28AD2AAD2AF127713128F
:106BDE004F3390C249120A630001C2007F03126D47
:106BEE009AE490C239F090C237F090C16EF090C125
:106BFE006DF0122DA61234F7C2AFE54064046008A2
:106C0E00AF401276B6754004D2AF121D47124B3C00
:056C1E0012578380E322
:03772900FF772CBB
:01772C00223A
:106A7F00C2AFE4F5F1F5F275F30A75F40175F8AFED
:106A8F0030FCFDD2FE20FEFDAFFA90C471E4F0A3FE
:106A9F00EFF0E07F00FE90C471F0A3EFF0ADFBEDDF
:106AAF00FF90C471EEF0A3EFF0E4F5F8D2AF90C40D
:106ABF0071E0FEA3E0FF90772975F003120A94EEC0
:106ACF0075F003A42583F583E493FB740193FA74A3
:0D6ADF000293F94A600789828A83120B3AFC
:016AEC002287
:047725000F4072009F
:10670C0078667CC47D017BFF7A7779257E007F04D7
:10671C001206AB90C249120A630001C200E4FF12D8
:10672C006D9A7B017AC4796612633790BDEF740160
:10673C00F0A37484F0A37400F0A37401F0A3748824
:10674C00F0A37404F0A37401F0A37488F0A374068E
:10675C00F0A37404F0A3E4F07B01A304F0A374BED3
:10676C00F0A37405F0A3EBF0A374BFF0A37405F0D1
:10677C00A3EBF0A374BFF0A37407F0A37401F0A310
:02678C00E4F037
:01678E0022E8
:10678F007B017ABF790990C26EE4F0A37402F07FA7
:10679F00007E0F1238DF90BF09E0645A7062F07B01
:1067AF00017ABF790990C2A0F0A37402F07F007E36
:1067BF000F123FB990BF0CE0FDC394C840027D6437
:1067CF0090BF0AE0FEA3E0FBAA0690BF09745AF03F
:1067DF00A374A5F0ED25E02404A3F0A37483F0EADD
:1067EF00A3F0A3EBF0A3EDF0AE02AF037B017ABFF2
:1067FF00791090C26EE4F0A3EDF01238DF7F012222
:02680F007F0008
:016811002264
:0B180B0090C3DCEBF0A3EAF0A3E9F0CF
:10181600C2AF900003120AE01207BCFFAEF090C3FD
:10182600E7EEF0A3EFF0D2AF90C3DCE0FBA3E0FA63
:10183600A3E0F9900006120AE01207BCFDACF06FB7
:101846007002EC6E7003021D44C390C3E8E09D90E5
:10185600C3E7E09C90C3DCE0FBA3E0FAA3E0F95009
:10186600219000091207E7FF90C3E8E02FFF90C31D
:10187600E7E035F0CFC39DCF9C90C3DFF0A3EFF038
:10188600801E900006120AE01207BCFFC390C3E850
:10189600E09FFE90C3E7E095F090C3DFF0A3CEF0A3
:1018A600C390C3E0E0940690C3DFE0940050037F4A
:1018B600002290C3DCE0FBA3E0FAA3E0F990000667
:1018C600120AE01207BCFDACF090C3DCE0FBA3E01B
:1018D600FAA3E0F9120AC08D828C831206EAFF9001
:1018E600C3E5E4F0A3EFF0E0F8E4F0E890C3E5F038
:1018F600ED2401FFE43CFE90C3E9F0A3EFF090C3B2
:10190600DCE0FBA3E0FAA3E0F99000091207E7FD8B
:10191600C3EF9DEE95F04007E490C3E9F0A3F01203
:101926000AC090C3E9E0FEA3E0F5828E831206EAC0
:10193600FF90C3E5E0FEA3E04FFF90C3E5EEF0FEA7
:10194600A3EFF064A57003EE645A6003021CEF90E7
:10195600C3DCE0FBA3E0FAA3E0F9900006120AE07C
:101966001207BC2403FFE435F0FE90C3E9F0A3EFB1
:10197600F090C3DCE0FBA3E0FAA3E0F990000912C3
:1019860007E7FDC3EF9DEE95F04007E490C3E9F04D
:10199600A3F0120AC090C3E9E0FEA3E0F5828E83AD
:1019A6001206EA64826003021B1D90C3DCE0FBA3FF
:1019B600E0FAA3E0F9900006120AE01207BC24023E
:1019C600FFE435F0FE90C3E9F0A3EFF090C3DCE04E
:1019D600FBA3E0FAA3E0F99000091207E7FDC3EFC5
:1019E6009DEE95F04007E490C3E9F0A3F090C3DCC8
:1019F600E0FBA3E0FAA3E0F9120AC090C3E9E0FE17
:101A0600A3E0F5828E831206EA2403FFE433FE90F8
:101A1600C3E1F0A3EFF0C390C3E0E09F90C3DFE023
:101A26009E5003021D44E490C3E3F0A3F090C3E18B
:101A3600E0FEA3E0FFA3E0FCA3E0FDC39FEC9E4015
:101A460003021AE990C3DCE0FBA3E0FAA3E0F990F5
:101A56000006120AE01207BCFFAEF090C3DCE0FB02
:101A6600A3E0FAA3E0F9120AC08F828E831206EA77
:101A7600FF74092DF58274BF3CF583EFF090C3DC4B
:101A8600E0FBA3E0FAA3E0F9900006120AE0E47591
:101A9600F00112081F90C3DCE0FBA3E0FAA3E0F913
:101AA600900006120AE01207BCFFAEF090C3DCE01D
:101AB600FBA3E0FAA3E0F99000091207E7FDC3EFE4
:101AC6009DEE95F0400C900006120AE0E4F5F01247
:101AD600085790C3E4E004F0700690C3E3E004F016
:101AE600021A3390BF0DE0FEA3E0FF7B017ABF79B7
:101AF6000F90BF0BE024FDC313FD90C2A0E4F0A33A
:101B0600EDF0123FB990BF0B7403F090BF0D744F08
:101B1600F0A3744B021CA090C3DCE0FBA3E0FAA385
:101B2600E0F9120AC090C3E9E0FEA3E0F5828E83D5
:101B36001206EA64836003021CA490C3DCE0FBA3E4
:101B4600E0FAA3E0F9900006120AE01207BC2402AC
:101B5600FFE435F0FE90C3E9F0A3EFF090C3DCE0BC
:101B6600FBA3E0FAA3E0F99000091207E7FDC3EF33
:101B76009DEE95F04007E490C3E9F0A3F090C3DC36
:101B8600E0FBA3E0FAA3E0F9120AC090C3E9E0FE85
:101B9600A3E0F5828E831206EA2403FFE433FE9067
:101BA600C3E1F0A3EFF0C390C3E0E09F90C3DFE092
:101BB6009E5003021D44E490C3E3F0A3F090C3E1FA
:101BC600E0FEA3E0FFA3E0FCA3E0FDC39FEC9E4084
:101BD60003021C7990C3DCE0FBA3E0FAA3E0F990D2
:101BE6000006120AE01207BCFFAEF090C3DCE0FB71
:101BF600A3E0FAA3E0F9120AC08F828E831206EAE6
:101C0600FF74092DF58274BF3CF583EFF090C3DCB9
:101C1600E0FBA3E0FAA3E0F9900006120AE0E475FF
:101C2600F00112081F90C3DCE0FBA3E0FAA3E0F981
:101C3600900006120AE01207BCFFAEF090C3DCE08B
:101C4600FBA3E0FAA3E0F99000091207E7FDC3EF52
:101C56009DEE95F0400C900006120AE0E4F5F012B5
:101C6600085790C3E4E004F0700690C3E3E004F084
:101C7600021BC390BF0DE0FEA3E0FF7B017ABF7994
:101C860010A3E0FD90C26EE4F0A3EDF01238DF90F1
:101C9600BF0FE025E0240490BF0BF07F012290C324
:101CA600DCE0FBA3E0FAA3E0F9900006120AE0E408
:101CB60075F00112081F90C3DCE0FBA3E0FAA3E075
:101CC600F9900006120AE01207BCFFAEF090C3DCE2
:101CD600E0FBA3E0FAA3E0F99000091207E7FDC3D1
:101CE600EF9DEE95F04057804990C3DCE0FBA3E002
:101CF600FAA3E0F9900006120AE0E475F001120872
:101D06001F90C3DCE0FBA3E0FAA3E0F99000061203
:101D16000AE01207BCFFAEF090C3DCE0FBA3E0FADA
:101D2600A3E0F99000091207E7FDC3EF9DEE95F0D9
:101D3600400C900006120AE0E4F5F01208577F0006
:011D4600227A
:1046930090BA25E0FF90BA24E06F700302472C75AF
:1046A300F00DEFA42425F582E5F034A0F583E0FCBA
:1046B300A3E0FDA3E0FEA3E0FFE47B23FAF9F8C344
:1046C3001209DB705E90BA25E075F00DA42424F581
:1046D30082E5F034A0F583E0540FFFE4FEEEC39FC0
:1046E300504190BA25E075F00DA42429F582E5F038
:1046F30034A0F583E5822EF582E43583F583E0FD6E
:1047030090BF05E0FAA3E02405F58274BE3AF58371
:10471300EDF090BF06E004F0700690BF05E004F0F2
:104723000E80BA90BA25E004F012678FEF6401702F
:104733004190BF0BE02403FDE433FC7B017ABF7996
:1047430009E4FF123C56E490C3A8F090BF0BE024A9
:1047530003FEE43390C3A9F0A3CEF0A37401F0A346
:1047630074BFF0A37409F07F237E007D007C0012E8
:10477300308F7B017ABD79EF12180BBF011590BF03
:104783000BE02403FDE433FC7B017ABF7909E4FFEA
:10479300123C567B017ABD79FA12180BBF012CE447
:1047A30090C3A8F090BF0BE02403FEE43390C3A9A9
:1047B300F0A3CEF0A37401F0A374BFF0A37409F0C7
:0B47C3007F247E007D007C0012308F00
:0147CE0022C8
:1076A300FF988103FF988104FF988101FF9881006F
:0376B30035112965
:02729300C1092F
:105ECA00E490C453F0A3F0A374B0F0A374FAF0C240
:105EDA0090C2947F057E001275CAE490C457F09070
:105EEA00C455E0A330E704D2928002C292C2937FE3
:105EFA00057E001275CAD2937F057E001275CA907C
:105F0A00C456E025E0F090C455E033F090C457E061
:105F1A0004F0E0C3941040C7D2947F057E00127546
:105F2A00CAE490C457F0C2937F057E001275CAD2A4
:105F3A00937F057E001275CA90C454E025E0F09064
:105F4A00C453E033F0309107E0F0A3E04401F0904D
:105F5A00C457E004F0E0C3941040CBD2907F057E92
:0C5F6A00001275CA90C453E0FEA3E0FFD3
:015F76002208
:105E1B00E490C458F0A3F0EFFF74FAA3CFF0A3EF14
:105E2B00F0C290C2947F057E001275CAE490C45CE8
:105E3B00F090C45AE0A330E704D2928002C292C21F
:105E4B00937F057E001275CAD2937F057E00127573
:105E5B00CA90C45BE025E0F090C45AE033F090C4E4
:105E6B005CE004F0E0C3941040C7D2947F057E0041
:105E7B001275CAE490C45CF0C2937F057E00127564
:105E8B00CAD2937F057E001275CA90C459E025E0F3
:105E9B00F090C458E033F0309107E0F0A3E04401F8
:105EAB00F090C45CE004F0E0C3941040CBD2907F40
:0E5EBB00057E001275CA90C458E0FEA3E0FFF9
:015EC90022B6
:106E3E0090C252EFF0C290C2947F057E001275CAC6
:106E4E00E490C251F090C252E030E704D292800238
:106E5E00C292C2937F057E001275CAD2937F057EC1
:106E6E00001275CA90C252E025E0F090C251E004C3
:106E7E00F0E0C3940840CED2907F057E000275CA22
:05537600E4FDFC7FB81E
:10537B0090C252EFF0ECA3F0A3EDF0C290C2947F79
:10538B00057E001275CAE490C251F090C252E03013
:10539B00E704D2928002C292C2937F057E001275FF
:1053AB00CAD2937F057E001275CA90C252E025E0E7
:1053BB00F090C251E004F0E0C3940840CED2947F49
:1053CB00057E001275CAE490C251F090C254E030D1
:1053DB00E704D2928002C292C2937F057E001275BF
:1053EB00CAD2937F057E001275CA90C254E025E0A5
:1053FB00F090C251E004F0E0C3940840CEE490C2B8
:10540B0051F090C253E030E704D2928002C292C2B4
:10541B00937F057E001275CAD2937F057E001275AD
:10542B00CA90C253E025E0F090C251E004F0E0C313
:0D543B00940840CED2907F057E000275CA15
:0660CF007BFF7D047C0054
:0B60D50090C248EBF0A3EAF0A3E9F052
:1060E000AE04AF05A3EEF0A3EFF07FBC12537B909C
:1060F000C24BE0FCA3E0FD7FBE12537B7FBF126E5C
:106100003EC290D2947F057E001275CA90C24B7435
:10611000FFF5F01207A645F0605190C248E0FBA3DE
:10612000E475F0011207A6A9F0FA1206D190C24E4A
:10613000F0E490C24DF090C24DE0C3940850CDA35E
:10614000E030E704D2928002C292C2937F057E00C3
:106150001275CAD2937F057E001275CA90C24EE0B6
:1061600025E0F090C24DE004F080CBD2907F057E18
:04617000000275CAEA
:1060230090C24E7401F0A374C2F0A3744CF090C2FA
:106033004CEFF0A3EDF090C248E4F0A37402F0FD3E
:106043007C007FBC12537B90C248E0FCA3E0FD7F41
:10605300BE12537B7FBF126E3EC290D2947F0F7EDF
:10606300001275CA90C24874FFF5F01207A645F0F6
:10607300605190C24EE0FBA3E475F0011207A6A99C
:10608300F0FA1206D190C24BF0E490C24AF090C2EB
:106093004AE0C3940850CDA3E030E704D2928002D3
:1060A300C292C2937F0F7E001275CAD2937F0F7E76
:1060B300001275CA90C24BE025E0F090C24AE0049A
:0C60C300F080CBD2907F0F7E000275CAE7
:10128B007A7679A31260CFE4FD7F01126023E4FD2F
:10129B007F021260237D577F031260237DD37F046F
:1012AB00126023E4FD7F051260237D117F0612601F
:1012BB00237D087F07126023E4FD7F08126023E47F
:1012CB00FD7F091260237D3F7F0A126023E4FD7FBF
:1012DB000B126023E4FD7F0C126023E4FD7F0D12E3
:1012EB006023E4FD7F0E1260237D3F7F0F1260238E
:1012FB007D3F7F10126023E4FD7F11126023E4FD1C
:10130B007F12126023E4FD7F13126023E4FD7F1430
:10131B00126023E4FD7F15126023E4FD7F1612603B
:10132B0023E4FD7F17126023E4FD7F18126023E492
:10133B00FD7F19126023E4FD7F1A126023E4FD7F09
:10134B001B126023E4FD7F1C126023E4FD7F1D1242
:10135B0060237D407F1E1260237D807F1F126023E0
:10136B007D067F201260237D017F21126023E4FD27
:10137B007F22126023E4FD7F23126023E4FD7F2490
:10138B00126023E4FD7F25126023E4FD7F261260AB
:10139B0023E4FD7F271260237D337F281260237D9A
:1013AB00337F29126023E4FD7F2A126023E4FD7F43
:1013BB002B126023E4FD7F2C126023E4FD7F2D12A2
:1013CB006023E4FD7F2E126023E4FD7F2F12602348
:1013DB00E4FD7F30126023E4FD7F31126023E4FDD6
:1013EB007F32126023E4FD7F33126023E4FD7F34F0
:1013FB00126023E4FD7F35126023E4FD7F3612601B
:10140B0023E4FD7F371260237D787F38126023E45D
:10141B00FD7F39126023E4FD7F3A126023E4FD7FE8
:10142B003B126023E4FD7F3C126023E4FD7F3D1201
:10143B006023E4FD7F3E126023E4FD7F3F126023B7
:10144B00E4FD7F40126023E4FD7F41126023E4FD45
:10145B007F42126023E4FD7F43126023E4FD7F444F
:10146B00126023E4FD7F501260237D237F511260B5
:10147B00237D457F521260237D677F531260237D4E
:10148B00897F541260237DAB7F551260237D017FD2
:10149B00561260237D237F571260237D457F5812A0
:1014AB0060237D677F591260237D897F5A126023E9
:1014BB007DAB7F5B1260237DCD7F5C1260237DEF64
:1014CB007F5D126023E4FD7F5E1260237D0D7F5FE5
:1014DB001260237D0D7F601260237D0C7F61126093
:1014EB00237D0C7F621260237D0F7F631260237D4F
:1014FB000F7F641260237D0E7F651260237D0E7F4C
:10150B00661260237D087F671260237D027F68125D
:10151B0060237D027F691260237D027F6A12602344
:10152B007D027F6B1260237D027F6C1260237D0234
:10153B007F6D1260237D027F6E1260237D027F6FB1
:10154B001260237D147F701260237D157F711260F2
:10155B00237D067F721260237D027F731260237DD1
:10156B00027F741260237D0D7F751260237D0D7FCA
:10157B00761260237D0C7F771260237D0C7F7812AF
:10158B0060237D0F7F791260237D0F7F7A1260239A
:10159B007D0E7F7B1260237D0E7F7C1260237D0886
:1015AB007F7D1260237D027F7E1260237D027F7F11
:1015BB001260237D027F801260237D027F81126087
:1015CB00237D027F821260237D027F831260237D45
:1015DB00027F841260237D027F851260237D147F3E
:1015EB00861260237D157F871260237D067F88120C
:1015FB0060237D027F891260237D027F8A12602324
:10160B007A7679A71260CF7D3B7F6E1260237D5770
:10161B007F6F1260237D247F3A1260237D1F7F8DA5
:10162B001260237DBA7F871260237DD17FB2126057
:10163B00237D0B7F881260237D017F38126023E4AA
:10164B00FD7F391260237D077FB51260237D757F87
:10165B00311260237D987F3B1260237BFF7A767972
:10166B00AB1260D17D0A7F221260237D097F31127C
:10167B0060237D077F351260237D677F53126023C4
:10168B007D847F551260237D867F501260237D827F
:10169B007F511260237D107F60126023E4FD7F6217
:1016AB00126023E4FD7FA01260237D127FA11260E4
:1016BB00237D1F7FA21260237D127FA31260237DE7
:1016CB00167FA41260237D297FA51260237D1E7FC8
:1016DB00A61260237D1F7FA71260237D7E7FA81239
:1016EB0060237D1B7FA91260237D287FAA126023B4
:1016FB007D6D7FAB1260237D197FAC1260237D184B
:10170B007FAD1260237D4C7FAE1260237D1E7FAFB9
:10171B001260237D237FB01260237D527FB1126054
:10172B00237D6D7FB21260237D3F7FB3126023E474
:10173B00FD7FC01260237D127FC11260237D207F4D
:10174B00C21260237D107FC31260237D137FC412EE
:10175B0060237D277FC51260237D1B7FC61260230C
:10176B007D1D7FC71260237D757FC81260237D1F8F
:10177B007FC91260237D287FCA1260237D687FCBCF
:10178B001260237D1A7FCC1260237D187FCD1260EF
:10179B00237D4D7FCE1260237D257FCF1260237D6D
:1017AB002E7FD01260237D537FD11260237D607F0B
:1017BB00D21260237D3F7FD31260237BFF7A767931
:1017CB00AF1260D17BFF7A7679B37D017C0012601A
:1017DB00D57F8C7E001270097BFF7A7679B47D0100
:1017EB007C001260D57F787E001270097BFF7A76C1
:1017FB0079B57D017C001260D57FAA7E000270094D
:1072C3007D067C087FB112537B7D227C187FB2122E
:1072D300537B7D127C687FB312537B7D207C037FBD
:0D72E300B412537B7D007C057FB502537B08
:104F33007D507C007FB712537B125376E4FDFC7FD8
:104F4300B912537B7D0A7C807FBA12537B7D067C2A
:104F5300007FBB12537B7D017C007FB912537BE43E
:104F6300FDFC7FDE12537B7D027C237FC912537BC2
:104F73007F0A7E0012700912128B7D517C017FB76C
:104F830012537B125376E4FDFC7FB912537B7D15DC
:104F93007C807FBA12537B7D057C007FBB12537BE1
:104FA3007D017C007FB912537B7D027C237FC91274
:104FB300537B7F0A7E001270097D017C237FCA1216
:104FC300537B7D107C057FCB12537B7D057C107F4B
:104FD300CC12537B7DFF7C007FD012537B1272C3B4
:104FE3007DD37C007FB612537B7D037C007FDE1272
:104FF300537B7D047C007FD612537B7D4B7C027FE9
:0E500300B712537B7F3C7E00127009D2092247
:106DED00730041006D73002500252E31667300255B
:106DFD00646D7300256473002564410004FF031F57
:106E0D000D7864008003FFFFDF00003037000000C5
:106E1D0003000003C00000003C00000C0000003027
:106E2D000000F00000000FC00003000000FFFB0198
:016E3D00054F
:1072950002480096024C0018024A028A044F021066
:0972A5005445014E000246FFE0D1
:0C73900090C24D7401F0A3745EF07D0506
:10739C00AF05EC8FF012085790C24DE0FFA3E090C0
:0873AC000002CF8FF002087609
:10529F0090C253E0FAA3E02FFBEA3EFA90C255E02A
:1052AF00F8A3E02FFFE83E90C26FF0A3EFF090C29B
:0E52BF0051E090C271F090C253E0FEA3E0FFF8
:1052CD0090C269EEF0A3EFF0A3ECF0A3EDF090BA6D
:1052DD0049E0D39430400302537590C271E0FF90C2
:1052ED00BA49E0FE75F009A4244FF582E5F034BB10
:1052FD00F583EFF090C269E0FCA3E0FD75F009EED7
:10530D00A42450F582E5F034BBF583ECF0A3EDF069
:10531D0090C26BE0FEA3E0FF90BA49E0FD75F00985
:10532D00A42452F582E5F034BBF583EEF0A3EFF043
:10533D00AF0375F009EDA42454F582E5F034BBF507
:10534D0083EAF0A3EFF090C26FE0FEA3E0FF75F0EB
:10535D0009EDA42456F582E5F034BBF583EEF0A3F8
:09536D00EFF090BA49E004F022CF
:10551A0090C25BE0FAA3E0FB24CEFFEA34FFFEC0B0
:10552A0006C00790C265E025E0FF90C264E033FE42
:10553A00C390C25EE09FFD90C25DE09EFCEB78499D
:10554A0026FFEA1836CF2432FBE43FFAE0FFA3E055
:10555A0090C26FCFF0A3EFF090C264A3E090C27143
:10556A00F090C266E0FFA3E090C272CFF0A3EFF022
:10557A00D007D0061251C690C268E0FD25E0244A41
:10558A00F582E434BAF583EEF0A3EFF0EDFF7E0086
:10559A001242B890C25BE0FAA3E0FBFFAE02C0067B
:1055AA00C00790C265E025E0FF90C264E033FEC305
:1055BA0090C25EE09FFD90C25DE09EFCEB784926BA
:1055CA00FBEA1836FAE0FFA3E090C26FCFF0A3EF30
:1055DA00F090C268E090C271F0D007D0060252CDB6
:10657300784D7CC27D017E007F041206AB78517C8E
:10658300C27D017B017AC2794D7E007F041206AB86
:1065930090C251E0FEA3E0FF906E0EE493FDC39022
:1065A300C254E09DFD90C253E09400FC1273E17865
:1065B300557CC27D017E007F041206AB90C253E07E
:1065C300FCA3E0FDA3E0FAA3E0FBA3E0FFA3E090BC
:1065D300C261CFF0A3EFF0906E0DE49390C263F02D
:1065E300A37407F0A374E0F090C251E0FEA3E0FFB0
:0965F300123A9F7B017AC279552E
:0165FC00227C
:1065FD00784D7CC27D017E007F041206AB78517C04
:10660D00C27D017B017AC2794D7E007F041206ABFB
:10661D0090C251E0FEA3E0FF906E0EE493FD90C298
:10662D0054E02DFD90C253E03400FC1273E1785517
:10663D007CC27D017E007F041206AB90C253E0FC4C
:10664D00A3E0FDA3E0FAA3E0FBA3E0FFA3E090C26B
:10665D0061CFF0A3EFF0906E0DE49390C263F0A3C1
:10666D007407F0A374E0F090C251E0FEA3E0FF12B6
:08667D003A9F7B017AC27955B6
:0166850022F2
:105B4B007848E6FE08E6FF90C252E02FFF90C25164
:105B5B00E03EFE90C253E0FCA3E0FD1273E17855EA
:105B6B007CC27D017E007F041206AB90C253E0FC29
:105B7B00A3E0FDA3E0FAA3E0FBA3E0FFA3E090C248
:105B8B0061CFF0A3EFF0906E0DE49390C263F0A39E
:105B9B007407F0A374E0F090C251E0FEA3E0FF1293
:105BAB003A9F90C251E0FEA3E0FF784AE6FC08E67C
:105BBB00FD1273E1785B7CC27D017E007F041206CF
:105BCB00AB90BAD8E0FFA3E090C25FCFF0A3EFF0A9
:105BDB00A374FFF0A3746DF0A374EDF0A3E4F0A332
:105BEB007424F0A37407F0A374FFF0A3741AF012DB
:085BFB00551A7B017AC27955AD
:015C0300227E
:1048F800784D7CC27D017E007F041206AB78517C26
:10490800C27D017B017AC2794D7E007F041206AB1D
:104918007848E6FE08E6FF90C252E02FFF90C251A9
:10492800E03EFE90C253E0FCA3E0FD1273E178552F
:104938007CC27D017E007F041206AB90C253E0FC6E
:10494800A3E0FDA3E0FAA3E0FBA3E0FFA3E090C28D
:1049580061CFF0A3EFF0906E0DE49390C263F0A3E3
:104968007407F0A374E0F090C251E0FEA3E0FF12D8
:104978003A9F785B7CC27D017B017AC279517E00C7
:104988007F041206AB90BADAE0FFA3E090C25FCFD3
:10499800F0A3EFF0A374FFF0A3746DF0A374EFF02D
:1049A800784CE6FF08E6A3CFF0A3EFF0A374FFF07E
:1049B800A374E0F0A3741BF012551A90C251E0FEE4
:1049C800A3E0FF784AE6FC08E6FD1273E1785B7C19
:1049D800C27D017E007F041206AB90BADCE0FFA323
:1049E800E090C25FCFF0A3EFF0A374FFF0A3746D63
:1049F800F0A374EDF0A3E4F0A37424F0A37407F01B
:104A0800A374FFF0A3741CF012551A7B017AC279C3
:014A18005548
:014A1900227A
:10584A007848E6FE08E6FF90C252E02FFF90C25168
:10585A00E03EFE906E0EE493FDC390C254E09DFDBF
:10586A0090C253E09400FC1273E178557CC27D012A
:10587A007E007F041206AB90C253E0FCA3E0FDA3B6
:10588A00E0FAA3E0FBA3E0FFA3E090C261CFF0A39C
:10589A00EFF0906E0DE49390C263F0A37407F0A347
:1058AA0074E0F090C251E0FEA3E0FF123A9F90C26A
:1058BA0051E0FEA3E0FF784AE6FC08E6FD1273E138
:1058CA00785B7CC27D017E007F041206AB90BADE53
:1058DA00E0FFA3E090C25FCFF0A3EFF0A374FFF064
:1058EA00A3746DF0A374EDF0A3E4F0A37424F0A301
:1058FA007407F0A374FFF0A3741DF012551A7B010C
:04590A007AC279558F
:01590E002276
:103E0900784D7CC27D017E007F041206AB78517C1F
:103E1900C27D017B017AC2794D7E007F041206AB17
:103E2900906E0DE493C313FF90C259E4F0A3EFF031
:103E39007848E6FE08E6FF90C252E02FFF90C25193
:103E4900E03EFE90C253E0FCA3E0FD1273E1785519
:103E59007CC27D017E007F041206AB90C253E0FC58
:103E6900A3E0FDA3E0FAA3E0FBA3E0FFA3E090C277
:103E790061CFF0A3EFF0906E0DE49390C263F0A3CD
:103E89007407F0A374E0F090C251E0FEA3E0FF12C2
:103E99003A9F90C251E0FEA3E0FF784AE6FC08E6AB
:103EA900FD1273E1785B7CC27D017E007F041206FE
:103EB900AB90BAE2E0FFA3E090C25FCFF0A3EFF0CE
:103EC900A374FFF0A3746DF0A374F1F0A3E4F0A35D
:103ED900741EF0A37407F0A374FFF0A3741FF0120B
:103EE900551A785B7CC27D017B017AC279517E00CB
:103EF9007F041206AB90BAE0E0FFA3E090C25FCF67
:103F0900F0A3EFF0A374FFF0A3746DF0A374EFF0C6
:103F1900784CE6FF08E6A3CFF0A3EFF0A374F8F01E
:103F2900A3741FF0A314F012551A784F120A12EE57
:103F39005401FEEE6073784DE625E0FF18E633FE86
:103F490090C254E02FFD90C253E03EFC906E0DE408
:103F59009375F002A42DFDE5F03CFC90C251E0FE02
:103F6900A3E0FF1273E1785B7CC27D017E007F04D0
:103F79001206AB90BAF6E0FFA3E090C25FCFF0A3C0
:103F8900EFF0A374FFF0A3746DF0A374EFF0784C15
:103F9900E6FF08E6A3CFF0A3EFF0A374FFF0A37444
:0F3FA900E0F0A37429F012551A7B017AC2795502
:013FB80022E6
:104A1A00784D7CC27D017E007F041206AB78517C02
:104A2A00C27D017B017AC2794D7E007F041206ABFA
:104A3A007848E6FE08E6FF90C252E02FFF90C25186
:104A4A00E03EFE90C253E0FCA3E0FD1273E178550C
:104A5A007CC27D017E007F041206AB90C253E0FC4B
:104A6A00A3E0FDA3E0FAA3E0FBA3E0FFA3E090C26A
:104A7A0061CFF0A3EFF0906E0DE49390C263F0A3C0
:104A8A007407F0A374E0F090C251E0FEA3E0FF12B5
:104A9A003A9F90C251E0FEA3E0FF784AE6FC08E69E
:104AAA00FD1273E1785B7CC27D017E007F041206F1
:104ABA00AB90BAE6E0FFA3E090C25FCFF0A3EFF0BD
:104ACA00A374FFF0A3746DF0A374F1F0A3E4F0A350
:104ADA00741EF0A37407F0A374FFF0A37421F012FC
:104AEA00551A785B7CC27D017B017AC279517E00BE
:104AFA007F041206AB90BAE4E0FFA3E090C25FCF56
:104B0A00F0A3EFF0A374FFF0A3746DF0A374EFF0B9
:104B1A00784CE6FF08E6A3CFF0A3EFF0A374FFF00A
:104B2A00A374E0F0A37420F012551A7B017AC279BB
:014B3A005525
:014B3B002257
:10590F007848E6FE08E6FF90C252E02FFF90C251A2
:10591F00E03EFE906E0EE493FD90C254E02DFD909C
:10592F00C253E03400FC1273E178557CC27D017ED6
:10593F00007F041206AB90C253E0FCA3E0FDA3E08E
:10594F00FAA3E0FBA3E0FFA3E090C261CFF0A3EFC7
:10595F00F0906E0DE49390C263F0A37407F0A374FC
:10596F00E0F090C251E0FEA3E0FF123A9F90C251C7
:10597F00E0FEA3E0FF784AE6FC08E6FD1273E1784B
:10598F005B7CC27D017E007F041206AB90BAECE017
:10599F00FFA3E090C25FCFF0A3EFF0A374FFF0A3DB
:1059AF00746DF0A374EDF0A3E4F0A37424F0A3746A
:1059BF0007F0A374FFF0A37424F012551A7B017A39
:0359CF00C2795545
:0159D20022B2
:104C4D007848E6FE08E6FF90C252E02FFF90C25171
:104C5D00E03EFE90C253E0FCA3E0FD1273E17855F7
:104C6D007CC27D017E007F041206AB90C253E0FC36
:104C7D00A3E0FDA3E0FAA3E0FBA3E0FFA3E090C255
:104C8D0061CFF0A3EFF0906E0DE49390C263F0A3AB
:104C9D007407F0A374E0F090C251E0FEA3E0FF12A0
:104CAD003A9F90C251E0FEA3E0FF784AE6FC08E689
:104CBD00FD1273E1785B7CC27D017E007F041206DC
:104CCD00AB90BAF0E0FFA3E090C25FCFF0A3EFF09E
:104CDD00A374FFF0A3746DF0A374EDF0A3E4F0A33F
:104CED007424F0A37407F0A374FFF0A37426F012DC
:104CFD00551A785B7CC27D017B017AC279517E00A9
:104D0D007F041206AB90BAEEE0FFA3E090C25FCF36
:104D1D00F0A3EFF0A374FFF0A3746DF0A374EFF0A4
:104D2D00784CE6FF08E6A3CFF0A3EFF0A374FFF0F5
:104D3D00A374E0F0A37425F012551A7B017AC279A1
:014D4D005510
:014D4E002242
:105C04007848E6FE08E6FF90C252E02FFF90C251AA
:105C1400E03EFE90C253E0FCA3E0FD1273E1785530
:105C24007CC27D017E007F041206AB90C253E0FC6F
:105C3400A3E0FDA3E0FAA3E0FBA3E0FFA3E090C28E
:105C440061CFF0A3EFF0906E0DE49390C263F0A3E4
:105C54007407F0A374E0F090C251E0FEA3E0FF12D9
:105C64003A9F90C251E0FEA3E0FF784AE6FC08E6C2
:105C7400FD1273E1785B7CC27D017E007F04120615
:105C8400AB90BAF2E0FFA3E090C25FCFF0A3EFF0D5
:105C9400A374FFF0A3746DF0A374EDF0A3E4F0A378
:105CA4007424F0A37407F0A374FFF0A37427F01214
:085CB400551A7B017AC27955F3
:015CBC0022C5
:1056B8007848E6FE08E6FF90C252E02FFF90C251FC
:1056C800E03EFE906E0EE493FDC390C254E09DFD53
:1056D80090C253E09400FC1273E178557CC27D01BE
:1056E8007E007F041206AB90C253E0FCA3E0FDA34A
:1056F800E0FAA3E0FBA3E0FFA3E090C261CFF0A330
:10570800EFF0906E0DE49390C263F0A37407F0A3DA
:1057180074E0F090C251E0FEA3E0FF123A9F90C2FD
:1057280051E0FEA3E0FF90C257E0FCA3E0FD127336
:10573800E1785B7CC27D017E007F041206AB90BAE3
:10574800F4E0FFA3E090C25FCFF0A3EFF0A374FFF3
:10575800F0A3746DF0A374F4F0784CE6FF08E6A3A8
:10576800CFF0A3EFF0A374FFF0A374E0F0A37428C4
:0A577800F012551A7B017AC2795530
:015782002204
:05330600E490BA49F05B
:10330B0090C253F0A3F0906E1093FE740193FFC321
:10331B0074209F90C256F074039E90C255F0784F64
:10332B00120A1290C257120A57E490C252F090C27E
:10333B0051F0E4FFFEFDFC90C257E0F8A3E0F9A3C7
:10334B00E0FAA3E0FBC31209DB700302343890C22E
:10335B0057A3A3A3E05401FFEF700302341690C2EE
:10336B0055E0FCA3E0FD906E10E493FE740193FF17
:10337B0090C253E0FAA3E02FFBEA3EFA90C255E06D
:10338B00F8A3E02FFFE83E90C26FF0A3EFF090C2DE
:10339B00521252C090C251E025E02429F582E43448
:1033AB00BAF583E0FEA3E0FF90C252E0FD7C001271
:1033BB00747A90C251E025E02429F582E434BAF501
:1033CB0083E0FEA3E0FFC006C00790C253E0FEA35C
:1033DB00E0FFA3E0FCA3E0FD1273E178687CC27D03
:1033EB00017E007F041206ABD007D0061275F89051
:1033FB006E10E493FE740193FF90C254E02FF09093
:10340B00C253E03EF090C251E004F090C257E0FC92
:10341B00A3E0FDA3E0FEA3E0FF78011209EC90C24C
:10342B0057120A5790C252E004F002333D90C25536
:10343B00E0FCA3E0FD906E10E493FE740193FF1289
:10344B00529F906E10E493FE740193FF90C254E070
:10345B002FF090C253E03EF090C255E0FCA3E0FD8C
:10346B0012529F90C251E025E02429F582E434BA30
:10347B00F583E0FEA3E0FFE4FDFC12747A90C251E9
:10348B00E025E02429F582E434BAF583E0FEA3E0DD
:10349B00FFC006C00790C253E0FEA3E0FFA3E0FC11
:1034AB00A3E0FD1273E178687CC27D017E007F048E
:1034BB001206ABD007D0061275F8E490C251F0E4B7
:1034CB0090C26FF0A3F0A3F0FBFAFDFCFFFE1252CB
:1034DB00CD90C251E004F0E0C3940640E290BAF8FC
:0B34EB0074FFF0A3740BF0A37485F0D5
:0134F60022B3
:050B850090C25BEFF0DF
:100B8A00A3120A630000000090C260740AF090C2C7
:100B9A0060E0FFC394105070EF25E02429F582E449
:100BAA0034BAF583E0FEA3E0FF74FFFDFC12747A09
:100BBA0090C260E0FF75F009A42450F582E5F03494
:100BCA00BBF583E4F0A3F075F009EFA42452F58293
:100BDA00E5F034BBF583E4F0A3F075F009EFA42443
:100BEA0054F582E5F034BBF583E4F0A3F075F0091F
:100BFA00EFA42456F582E5F034BBF583E4F0A3F0C4
:100C0A0090C260E004F0808690C25BE0C394084022
:100C1A0003020EC5E490C260F090C260E0FBC39488
:100C2A0008400302128AE47F01FEFDFC90C25BE0E9
:100C3A0075F009A4244FF582E5F034BBF583E0F999
:100C4A00F81209FFEB25E025E0241AF582E4346E58
:100C5A00F583120A3BEB5FFFEA5EFEE95DFDE85CA5
:100C6A00FC4D4E4F7003020EBC90C260E025E02599
:100C7A00E0241AF582E4346EF583120A1E784EE6F1
:100C8A0025E025E02412F582E4346EF583120A3B4E
:100C9A00EB5FFFEA5EFEE95DFDE85CFC90C25C1278
:100CAA000A5790C25CE0F8A3E0F9A3E0FAA3E0FBDC
:100CBA00C000C001E47F01FEFDFC90C25BE075F05C
:100CCA0009A4244FF582E5F034BBF583E0F9F81264
:100CDA0009FF1209C0D001D000EB5FFFEA5EFEE90E
:100CEA005DFDE85CFC90C25C120A57E4FFFEFDFC65
:100CFA0090C25CE0F8A3E0F9A3E0FAA3E0FBC31218
:100D0A0009DB700302128AE490C261F090C2607437
:100D1A000AF090C25BE0FF7E00906E10E493FA74D2
:100D2A000193FBFDAC0212072990C262EEF0A3EF19
:100D3A00F0EB25E0FFEA33FEC374209F90C265F012
:100D4A0074039E90C264F0E4FFFEFDFC90C25CE076
:100D5A00F8A3E0F9A3E0FAA3E0FBC31209DB7003EE
:100D6A0002128A90C25CA3A3A3E05401FFEF7003AE
:100D7A00020E9AA3E025E02429F582E434BAF58329
:100D8A00E0FEA3E0FFC006C00790C262E0FEA3E057
:100D9A00FFA3E0FCA3E0FD1273E178687CC27D0149
:100DAA007E007F041206ABD007D0061275F890C2F7
:100DBA0060E025E02429F582E434BAF583E0FEA355
:100DCA00E0FF90C261E0FD7C0012747A90C262E09A
:100DDA00FEA3E0FF90C260E0FD75F009A42450F57F
:100DEA0082E5F034BBF583EEF0A3EFF090C264E045
:100DFA00FAA3E0FB75F009EDA42452F582E5F0347C
:100E0A00BBF583EAF0A3EBF0906E10E493FC740157
:100E1A0093FDEF2DFFEE3CFE90C260E0FD75F009F8
:100E2A00A42454F582E5F034BBF583EEF0A3EFF089
:100E3A00906E10E493FE740193FF90C265E02FFF59
:100E4A0090C264E03EFE75F009EDA42456F582E5F1
:100E5A00F034BBF583EEF0A3EFF090C261E0FF90AF
:100E6A00C260E075F009A4244FF582E5F034BBF5C1
:100E7A0083EFF0906E10E493FE740193FFC390C267
:100E8A0065E09FF090C264E09EF090C260E004F0DA
:100E9A0090C25CE0FCA3E0FDA3E0FEA3E0FF7801C2
:100EAA001209EC90C25C120A5790C261E004F00287
:100EBA000D5190C260E004F0020C2390C25BE0FF87
:100ECA00D3940F401475F009EFA4244FF582E5F08E
:100EDA0034BBF583E0FF02690EE490C260F090C271
:100EEA0060E0FBC39408400302128AE47F01FEFD1E
:100EFA00FC90C25BE075F009A4244FF582E5F0345A
:100F0A00BBF583E0F9F81209FFEB25E025E0241A86
:100F1A00F582E4346EF583120A3BEB5FFFEA5EFE6C
:100F2A00E95DFDE85CFC4D4E4F7003021281784F7B
:100F3A00120A2E90C260E025E025E0241AF582E428
:100F4A00346EF583120A1E1209C0EB5FFFEA5EFED9
:100F5A00E95DFDE85CFC784F120A4B784F120A2EC5
:100F6A00C000C001E47F01FEFDFC90C25BE075F0A9
:100F7A0009A4244FF582E5F034BBF583E0F9F812B1
:100F8A0009FFD001D000EB4FFFEA4EFEE94DFDE824
:100F9A004CFC784F120A4B90C25BE075F009A4240E
:100FAA004FF582E5F034BBF583E0FF7E00E4FD12E5
:100FBA00265890C25BE075F009A4244FF582E5F04B
:100FCA0034BBF583E014605F24FB24FD505F60119D
:100FDA0024FD6059146056240D7055E4784EF6804D
:100FEA004CE4784EF690C25CE0F8A3E0F9A3E0FA8C
:100FFA00A3E0FB906E1E120A1E1209C0EB5FFFEA05
:10100A005EFEE95DFDE85CFC90C25C120A5790C284
:10101A005CE0FCA3E0FDA3E0FEA3E04440FFEC900B
:10102A00C25C120A578006784E760180001234F7A5
:10103A00784EE625E025E02412F582E4346EF58345
:10104A00120A1E08120A2EEF5BFFEE5AFEED59FD38
:10105A00EC58FC90C25C120A57E490C260F090C24D
:10106A0060E0FFC394085020EF25E02429F582E4CC
:10107A0034BAF583E0FEA3E0FF74FFFDFC12747A34
:10108A0090C260E004F080D6E490C261F090C26041
:10109A00F090C262F0A3F0906E1093FE740193FF79
:1010AA00C374209F90C265F074039E90C264F0E4FA
:1010BA00FFFEFDFC90C25CE0F8A3E0F9A3E0FAA30E
:1010CA00E0FBC31209DB700302122390C25CA3A3E4
:1010DA00A3E05401FFEF7003021201A3E025E0240C
:1010EA0029F582E434BAF583E0FEA3E0FFC006C026
:1010FA000790C262E0FEA3E0FFA3E0FCA3E0FD12BA
:10110A0073E178687CC27D017E007F041206ABD051
:10111A0007D0061275F890C260E025E02429F5820E
:10112A00E434BAF583E0FEA3E0FF90C261E0FD7CFF
:10113A000012747A90C262E0FEA3E0FF90C260E0FF
:10114A00FD75F009A42450F582E5F034BBF583EE71
:10115A00F0A3EFF090C264E0FAA3E0FB75F009EDAA
:10116A00A42452F582E5F034BBF583EAF0A3EBF050
:10117A00906E10E493FC740193FDEF2DFFEE3CFE9C
:10118A0090C260E0FD75F009A42454F582E5F034BC
:10119A00BBF583EEF0A3EFF0906E10E493FE7401BA
:1011AA0093FF90C265E02FFF90C264E03EFE75F0A7
:1011BA0009EDA42456F582E5F034BBF583EEF0A3DD
:1011CA00EFF090C261E0FF90C260E075F009A424DC
:1011DA004FF582E5F034BBF583EFF0906E10E4939F
:1011EA00FE740193FF90C263E02FF090C262E03E6A
:1011FA00F090C260E004F090C25CE0FCA3E0FDA3C2
:10120A00E0FEA3E0FF78011209EC90C25C120A57D3
:10121A0090C261E004F00210B990C260E0FFC3948A
:10122A000A505D75F009EFA42450F582E5F034BB4D
:10123A00F583E4F0A3F075F009EFA42452F582E5F2
:10124A00F034BBF583E4F0A3F075F009EFA424545D
:10125A00F582E5F034BBF583E4F0A3F075F009EF0D
:10126A00A42456F582E5F034BBF583E4F0A3F090AC
:10127A00C260E004F080A290C260E004F0020EE8CE
:01128A002241
:1042B80090C26AEEF0A3EFF0EE600302440EEF2422
:1042C800E6B41000400302440E9042DF75F003A4E8
:1042D800C58325F0C5837302430F0243D302430FFE
:1042E80002430F0243D302435F0243D302435F02F8
:1042F800440E02440E02430F0243D302430F02430B
:10430800990243D30243D390C26BE025E0FF90C2E9
:104318006AE033FE744A2FF58274BA3EF583E0FCF6
:10432800A3E0FDC004C00574A42FF58274BA3EF55D
:1043380083E0FCA3E0FDEC1201A8E4FBFA79207805
:104348004112010690C271120A577BFF7A6D79F605
:10435800D005D00402440B7BFF7A6D79FC90C26BC8
:10436800E025E0FF90C26AE033FE744A2FF58274BC
:10437800BA3EF583E0FCA3E0FD74A42FF58274BA7D
:104388003EF583E0FFA3E090C271CFF0A3EFF08089
:10439800727BFF7A6E790190C26BE025E0FF90C2D4
:1043A8006AE033FE744A2FF58274BA3EF583E0FC66
:1043B800A3E0FD74A42FF58274BA3EF583E0FFA351
:1043C800E090C271CFF0A3EFF080387BFF7A6E796E
:1043D8000590C26BE025E0FF90C26AE033FE744AA4
:1043E8002FF58274BA3EF583E0FCA3E0FD74A42F98
:1043F800F58274BA3EF583E0FFA3E090C271CFF076
:07440800A3EFF0126686220B
:1026580090C266EEF0A3EFF0AB05EB700302275CC7
:10266800E025E0FF90C266E033FE74FB2FF582742C
:10267800BA3EF583E0FCA3E0FDAF03EF3395E0FE3F
:1026880012072990C267E025E0FB90C266E033FAA2
:1026980074A42BF58274BA3AF583EE8FF012079082
:1026A80090C266E0FEA3E07802C333CE33CED8F9F9
:1026B8002401F58274BD3EF583E0FCA3E0FD74A41B
:1026C8002BF58274BA3AF583E0FEA3E0D39DEC645F
:1026D80080F8EE648098401E90C267E025E0FF9085
:1026E800C266E033FE74A42FF58274BA3EF583EC1B
:1026F800F0A3EDF0805E90C266E0FCA3E0FDAE04BE
:102708007802C333CE33CED8F924FFF58274BC3EA9
:10271800F583E0FAA3E0FBED25E0FFEC33FE74A4BB
:102728002FF58274BA3EF583E0FEA3E0C39BEA640A
:1027380080F8EE648098501C90C267E025E0FF9016
:10274800C266E033FE74A42FF58274BA3EF583EABC
:10275800F0A3EBF090C266E0FEA3E0FFEE60030298
:102768002A4BEFB42A004003022A4B90277AF82814
:1027780028730228CB0228CB0228CB0228CB0228B8
:10278800CB0228CB0229D10229D60229E40228CB80
:102798000229E90229EE0228CB0228CB0229FD02F0
:1027A8002A02022A07022A0C022A11022A1B022ADA
:1027B80025022A38022A2E022A420229F80229F37F
:1027C8000227F80228520227F80227F802285202A4
:1027D8002850022852022850022852022852022762
:1027E800F80228520227F8022850022852022852DA
:1027F80090C266E0FCA3E0FD25E0FFEC33FE74A484
:102808002FF58274BA3EF583E0F523A3E0F524ECB6
:102818007032ED24E4601414601624F9601724FE65
:102828006018240C702090BDA9801290BDAD800D59
:1028380090BDAF800890BDBD800390BDC1E523F079
:04284800A3E524F0F0
:06284C0080728070806EB6
:1028520090C266E0FCA3E0FD25E0FFEC33FE74A429
:102862002FF58274BA3EF583E0F525A3E0F526EC58
:10287200704CED24E2601F24FE602524FE603014BB
:10288200603224FE601F24FD602014600E240E704E
:102892002D90BDAB802190BDB1801C90BDEB801707
:1028A20090BDB5801290BDBF800D90BDC5800890CF
:1028B200BDB9800390BDBBE525F0A3E526F090C22B
:0928C20066E0FEA3E0FF0242B84B
:1028CB0090BDA7E0FFA3E090C268CFF0A3EFF0901C
:1028DB00C266E0FEA3E0FFEE60030229C1EFB40E77
:1028EB000040030229C19028F8F828287302298F89
:1028FB0002299B02294202295402296602297B02E2
:10290B0029C10229C10229C10229AD0229C102290B
:10291B00C102292202293590C268E0FEA3E0540FC0
:10292B004410FF90C268EE0229BD90C268E0F0A38C
:10293B00E0540FF00229C190C268E054F0FEA3E00E
:10294B00FFEE440190C268806990C268E054F0FECB
:10295B00A3E0FFEE440290C268805790C268E05437
:10296B00F0F0A3E0F090BDCFE4F0A37402F080464A
:10297B0090C268E054F0F0A3E0F090BDCFE4F0A378
:10298B0004F0803290C268E0540FF0A3E0F0802690
:10299B0090C268E0540FFEA3E0FFEE441090C268B3
:1029AB00801090C268E0540FFEA3E0FFEE4420902D
:1029BB00C268F0A3EFF090C268E0FFA3E090BDA760
:0529CB00CFF0A3EFF0C6
:1029D0002290BDC9805290BDC9E4F0A37402F0906A
:1029E000BDED804D90BDED803F90BDCB804390BD4F
:1029F000CB803590BDCD803090BDCD803490BDD39F
:102A0000802690BDD3802A90BDD3802F90BDD380E7
:102A10003490BDD3E4F0A37405F02290BDD3E4F06C
:102A2000A37406F02290BDD1E4F0A304F02290BD7F
:102A3000D1E4F0A37402F02290BDD1E4F0A37403BA
:0C2A4000F02290BDD1E4F0A37404F02259
:0276B600AD071E
:1076B80090BA9EE0FEA3E0FFED906E3A93FD02269D
:0176C8005869
:05690E0090C266EFF0ED
:106913007E0090BA9EE0FCA3E0FDB50705EEB5044A
:106923000122ED25E0FFEC33FE744A2FF58274BAA1
:106933003EF583E0FEA3E0FF7846E6FC08E6FD12A1
:1069430074BA90C266E025E0244AF582E434BAF5CD
:1069530083E0FEA3E0FF1274197846A60608A60793
:1069630090C266E025E0244AF582E434BAF583E078
:10697300FEA3E0FF7D1F7CF81274BA90C266E0FFAD
:0869830090BA9EE4F0A3EFF0CE
:01698B0022E9
:102DA6007B017ABD796790C24DE4F0A37464F07D2F
:102DB600017C0012739C7ABD796B1273907ABD798F
:102DC6006F90C24DE4F0A37464F07D0112739C7A97
:102DD600BD797390C24DE4F0A37464F012739C7ACB
:102DE600BD79771273907ABD797B90C24D7427F0C6
:102DF600A37410F07D0112739C7ABD797F127390D3
:102E06007ABD798390C24D7427F0A37410F07D01CA
:102E160012739C7ABD798790C24DE4F0A374C8F012
:102E26007D1412739C7ABD798B90C24DE4F0A37425
:102E360050F07D1E12739C7ABD798F90C24DE4F0DE
:102E4600A37464F07D0112739C7ABD79931273901A
:102E56007ABD799790C24DE4F0A37464F07D0112B7
:102E6600739C7ABD799B90C24DE4F0A3743CF0123A
:102E7600739C7ABD799F90C24DE4F0A37464F01DF3
:102E860012739C7ABD79A312739090BB2FE4F0A3C2
:102E960004F0A3E4F0A304F0A3E4F0A304F0A3E495
:102EA600F0A304F0A3E4F0A304F0A3E4F0A304F079
:102EB600A3E4F0A304F0A3E4F0A304F0A3E4F0A3D6
:102EC60004F0A3E4F0A304F0A3E4F0A304F0A3E465
:102ED600F0A304F0A3E4F0A304F0A3E4F0A304F049
:102EE600A3E4F0A304F0A3E4F0A304F090BDA7F0DC
:102EF600A3E4F0A3F0A37435F090BAD8E4F0A37479
:102F060035F090BDABE4F0A37432F090BADAE4F099
:102F1600A37432F090BDADE4F0A37414F090BADC63
:102F2600E4F0A37414F090BDAFE4F0A37421F09024
:102F3600BADEE4F0A37421F090BDB1E4F0A37464AA
:102F4600F090BAE0E4F0A37464F090BDB3E4F0A3AB
:102F56007402F090BAE2E4F0A37402F090BDB5E416
:102F6600F0A37496F090BAE4E4F0A37496F090BDE2
:102F7600B7E4F0A37403F090BAE6E4F0A37403F0A8
:102F860090BDB9E4F0A37464F090BAE8E4F0A374D9
:102F960064F090BDBBE4F0A37406F090BAEAE4F0E6
:102FA600A37406F090BDBDE4F0A3740BF090BAECE8
:102FB600E4F0A3740BF090BDBFE4F0A3743CF09072
:102FC600BAEEE4F0A3743CF090BDC1E4F0A3740B38
:102FD600F090BAF0E4F0A3740BF090BDC3E4F0A354
:102FE6007403F090BAF2E4F0A37403F090BDC5E464
:102FF600F0A37437F090BAF4E4F0A37437F090BD00
:10300600C7E4F0A304F0A3E4F0A304F0A3E4F0A360
:103016007402F0A3E4F0A304F0A3E4F0A37402F0B6
:1030260090BDD3E4F0A37403F0A3E4F0A304F0E4AA
:1030360090BDD5F0A3F0A3F0A37418F0A3E4F0A319
:103046007419F0A3E4F0A3741AF0A3E4F0A3741BBC
:10305600F0A3E4F0A37402F0A3E4F0A3741DF0A3BC
:10306600E4F0A3741EF0A3E4F0A3741FF0A3E4F04D
:10307600A37420F0A3E4F0A37421F0A3E4F0A374F6
:0930860078F0A3E4F0A304F022A9
:1034F70090C248E4F0A37428F0A37402F0A37426E2
:10350700F012762A1276F7E490C24CF074FFFBFAB9
:10351700E4FDFCFFFE124E5090C24CE025E024294A
:10352700F582E434BAF583EEF0A3EFF090C24CE0F5
:1035370004F0E0C3941040D412330690BA9EE4F02E
:10354700A3741EF0784F120A12EF5401FFE4FEFD38
:07355700FCEF7003023631A6
:10355E0078487600087696784C760008762390C2E6
:10356E0048E0FEA3E0FFA3E0FCA3E0FD1273E178C8
:10357E00517CC27D017E007F041206AB125B4B12A2
:10358E0065731248F8784D7CC27D017E007F04126F
:10359E0006AB78517CC27D017B017AC2794D7E00EB
:1035AE007F041206AB12584A123E091265FD124AEA
:1035BE001A126573784D7CC27D017E007F0412065F
:1035CE00AB78517CC27D017B017AC2794D7E007F42
:1035DE00041206AB12590F784D7CC27D017E007F1E
:1035EE00041206AB78517CC27D017B017AC2794D03
:1035FE007E007F041206AB124C4D1265FD784D7C99
