:0B00F800FFFF4457494E5435024748B3
:0E2730007B0190BA76E4F0A304F07F147E00E3
:10273E0090BA71EEF0A3EFF0A3EBF0A3EAF0A3E9E9
:01274E00F09A
:10274F00E490BA78F0A3F0A3F0A3F0A3F0A3F0A362
:10275F00F0A3F090BA76E0FAA3E0FB4A70030228E8
:10276F00FD90BA71E0FEA3E0FFC3E49FFFE49EFE7D
:10277F00E4FCFD90BA801215C9AF03AE02E4FCFD74
:10278F0090BA80E0F8A3E0F9A3E0FAA3E0FBC3124C
:10279F00154D501190BA80A3A3E0FFA3E090BA7635
:1027AF00CFF0A3EFF090BA71E0FCA3E0FDECC31300
:1027BF00FFED1390BA78CFF0A3EFF0ED5401FFA324
:1027CF00E4F0A3EFF0C2AFE4F5F190BA78E0FCA328
:1027DF00E0FDECF5F28DF375F40175F8AF30FCFD0B
:1027EF0090BA7AE07002A3E0603DD2FE20FEFD9029
:1027FF00BA73E0FBA3E475F001121353A9F0FAE5E5
:10280F00FC1212C490BA73E0FBA3E475F00112132B
:10281F0053A9F0FAE5FD1212C490BA77E024FFF045
:10282F0090BA76E034FFF090BA76E0FCA3E0FDECCE
:10283F00C313FFED1390BA7CCFF0A3EFF0ED54016B
:10284F00FFA3E4F0A3EFF090BA7C74FFF5F012133E
:10285F005345F0605BD2FE20FEFD90BA73E0FBA300
:10286F00E475F001121353A9F0FAE5FA1212C490AD
:10287F00BA73E0FBA3E475F001121353A9F0FAE564
:10288F00FB1212C490BA73E0FBA3E475F0011213AC
:10289F0053A9F0FAE5FC1212C490BA73E0FBA3E45B
:1028AF0075F001121353A9F0FAE5FD1212C48097C7
:1028BF0090BA7EE07002A3E0602FD2FE20FEFD9062
:1028CF00BA73E0FBA3E475F001121353A9F0FAE514
:1028DF00FA1212C490BA73E0FBA3E475F00112135D
:0E28EF0053A9F0FAE5FB1212C4E4F5F8D2AFDB
:0128FD0022B8
:102F8B0090BD5AEEF0A3EFF0A3EBF0A3EAF0A3E9A8
:012F9B00F045
:102F9C00E490BD61F0A3F0A3F0A3F0A3F0A3F09034
:102FAC00BD5FE07002A3E0700302311D90BD5AE0DA
:102FBC00FEA3E0FFC3E49FFFE49EFED390BD60E060
:102FCC009F90BD5FE09E4005EEF0A3EFF090BD5AE0
:102FDC00E0FAA3E0FBEAC313FCEB13FDEB5401FF97
:102FEC0090BD61E4F0A3EFF0C2AFE4F5F1ECF5F2C3
:102FFC00AF058FF375F40175F88330FCFD90BD615E
:10300C00E07002A3E0603D90BD5CE0FBA3E475F0D2
:10301C0001121353A9F0FA12127EF5FC90BD5CE07C
:10302C00FBA3E475F001121353A9F0FA12127EF50A
:10303C00FDD2FE20FEFD90BD60E024FFF090BD5F50
:10304C00E034FFF090BD5FE0FCA3E0FDECC313FFA8
:10305C00ED1390BD63CFF0A3EFF0ED5401FFA3E4AB
:10306C00F0A3EFF075F88F90BD6374FFF5F01213B9
:10307C005345F0605B90BD5CE0FBA3E475F001127E
:10308C001353A9F0FA12127EF5FA90BD5CE0FBA383
:10309C00E475F001121353A9F0FA12127EF5FB90AD
:1030AC00BD5CE0FBA3E475F001121353A9F0FA1216
:1030BC00127EF5FC90BD5CE0FBA3E475F0011213ED
:1030CC0053A9F0FA12127EF5FDD2FE30FE9980FB68
:1030DC0090BD65E07002A3E0603275F88C90BD5C29
:1030EC00E0FBA3E475F001121353A9F0FA12127E5F
:1030FC00F5FA90BD5CE0FBA3E475F001121353A943
:10310C00F0FA12127EF5FBD2FE20FEFDE4F5F8D2A9
:01311C00AF03
:01311D00228F
:104F8E00C2AFC2D3C2D4E4F58E75C870F5CDF5CCE0
:104F9E0075CBBC75CACDD2ADD2C8F59375940175DB
:104FAE00950275C960F5F875F901F5A8F5B8F59A89
:074FBE00F5A9F5B90250C08E
:1050C0007F007E80E4F528F5290FEFAC0670010E15
:1050D00014F5828C83E4F00529E52970020528B4D3
:0750E00000E7E528B480E2BF
:0150E70022A6
:1051590090C4B71215D555AA5AA57B017AC479B757
:1051690090BD5FE4F0A37402F07F047E00022F8BF0
:045246007FF47E0172
:10524A00EF4E6010E4FD0DEDC3941840F9EF1F70A6
:04525A00EF1E80ECD7
:01525E00222D
:1049F40090C45C745AF0A374A5F0A3EEF0A3EFF096
:104A0400A3EBF0A3EDF090C45BE0600A90C462E411
:104A1400F0A304F08007E490C462F0A3F07B017A71
:104A2400C4795C90BD5FE4F0A37404F07FB07E00B1
:104A3400122F8B1252467B017AC4795C90BA76E4C9
:104A4400F0A304F07FB07E0012273E90C45CE070B7
:014A5400E27F
:014A5500223E
:054F4F0090C4A3EFF087
:104F54007B017AC479A490BA76E4F0A37402F07F5A
:104F6400A07E0012273E90C4A3E0A3F0A37401F036
:104F7400E490C4A7F07B017AC479A490BD5FF0A348
:0A4F84007402F07FA07E00022F8B64
:1039FE0090C330E0FB90C485F090C331E0FCA3E0AF
:103A0E00FDA3E0FEA3E0FF781012155E90C486EFD2
:103A1E00F090C331E0FCA3E0FDA3E0FEA3E0FF784D
:103A2E000812155E90C487EFF090C331A3A3A3E0F4
:103A3E0090C488F090C335E0FCA3E0FDEC90C489FF
:103A4E00F0A3EDF090C337E0FCA3E0FDEC90C48B47
:103A5E00F0A3EDF0EBB4A52890C339E0FBA3E0FA98
:103A6E00A3E04A4B601A90C335E0FEA3E0FF90C37B
:103A7E0039A3A3E0F990BD5FECF0A3EDF0122F8B0C
:103A8E007B017AC4798590BD5FE4F0A37404F07F66
:103A9E00087E00122F8B1252467B017AC4798590D4
:103AAE00BA76E4F0A304F07F087E0012273E90C49D
:103ABE0085E070E290C330E0B45A2F90C339E0FB3A
:103ACE00A3E0FAA3E04A4B602190C335E0FEA3E0E9
:103ADE00FF90C339A3A3E0F990C337E0FDA3E090B4
:103AEE00BA76CDF0A3EDF012273E7F327E00024D66
:013AFE00B017
:1037CB0090C464745AF090C320E090C465F0640117
:1037DB00706790C321A3E090C466F090C323E0FC14
:1037EB00A3E0FDA3E0FEA3E0FF781012155E90C4EA
:1037FB0067EFF090C323E0FCA3E0FDA3E0FEA3E0A2
:10380B00FF780812155E90C468EFF090C323A3A352
:10381B00A3E090C469F090C327E0FCA3E0FDEC901B
:10382B00C46AF0A3EDF090C329E0FCA3E0FDEC909B
:10383B00C46CF0A3EDF0E4803B90C320E064027015
:10384B0037A3E0FCA3E0FDEC90C466F0A3EDF09091
:10385B00C327E0FCA3E0FDEC90C468F0A3EDF0906F
:10386B00C32EE0FCA3E0FDEC90C46AF0A3EDF0E402
:10387B00A3F0A3F0A3F0A3F07B017AC4796490BD0D
:10388B005FE4F0A37406F07FAA7E00122F8B125216
:10389B00467B017AC4796490BA76E4F0A304F07F96
:1038AB00AA7E0012273E90C464E070E290C320E031
:1038BB00B4012F90C32BE0FBA3E0FAA3E04A4B60CB
:1038CB002190C327E0FEA3E0FF90C32BA3A3E0F955
:1038DB0090C329E0FDA3E090BA76CDF0A3EDF012F2
:0938EB00273E7F327E00024DB041
:0F5315007AC479C212273090C4C2E0FEA3E0FF31
:015324002266
:0848930090C49DEEF0A3EFF0CC
:10489B00A3745AF0A37401F090C49DE0FCA3E0FD57
:1048AB00EC90C4A1F0A3EDF07B017AC4799F90BD8D
:1048BB005FE4F0A37402F07F847E00122F8B125200
:1048CB00467B017AC4799F90BA76E4F0A374021206
:1048DB00273990C49DE0FEA3E0FFA3E0B506DFA35C
:1048EB00E0B507DAE490C49FF0A3F0A3F0A3F07B4C
:1048FB00017AC4799F90BD5FF0A37402F07F167E9E
:04490B0000022F8BEC
:084DB00090BA71EEF0A3EFF0E0
:104DB800E4A3F0A3F090BA71E0FEA3E0FFC390BAB9
:104DC80074E09F90BA73E09E5025E4FBFA7F017E61
:104DD8000012524A0BBB00010ABA01F1BB2CEE903B
:0F4DE800BA74E004F070CE90BA73E004F080C6A5
:014DF7002299
:104DF800EF14601814602314602E240370397401B2
:104E0800A805088002C333D8FC42B7227401A8055C
:104E1800088002C333D8FC42BC227401A80508806C
:104E280002C333D8FC42BD22AF057401A80708802D
:084E380002C333D8FC42BE2284
:104D1B00EF1460191460251460312403703D740185
:104D2B00A805088002C333D8FCF452B7227401A83B
:104D3B0005088002C333D8FCF452BC227401A805C9
:104D4B00088002C333D8FCF452BD22AF057401A80E
:0C4D5B0007088002C333D8FCF452BE22CB
:10443200EF14602D14604A14606724036003024481
:10444200C4EB600E7401A805088002C333D8FC4295
:1044520080227401A805088002C333D8FCF452807C
:1044620022EB600E7401A805088002C333D8FC4217
:1044720090227401A805088002C333D8FCF452903C
:1044820022EB600E7401A805088002C333D8FC42F7
:10449200A0227401A805088002C333D8FCF452A0FC
:1044A20022EB600E7401A805088002C333D8FC42D7
:1044B200B022AF057401A807088002C333D8FCF408
:0344C20052B022D3
:104BD500EF14601A146027146034240370427401C2
:104BE500A805088002C333D8FC5580FE80347401C3
:104BF500A805088002C333D8FC5590FE80247401B3
:104C0500A805088002C333D8FC55A0FE8014AF0563
:104C15007401A807088002C333D8FC55B0FE800292
:044C2500E4FEAF06F4
:014C29002268
:103BDD007B017AC4798D90BA76E4F0A37404F07FFA
:103BED00167E0012273E90C48DE0645A6003023C9D
:103BFD00A2A3E0FFB40134A3E0FCA3E0FD90C34118
:103C0D00ECF0A3EDF090C347ECF0A3EDF090C49170
:103C1D00E0FCA3E0FD90C345ECF0A3EDF090C36C88
:103C2D00ECF0A3EDF0A37401F08030EFB403269017
:103C3D00C33FE0FFA3E090C36CCFF0A3EFF090C3C0
:103C4D003DE0FFA3E090C347CFF0A3EFF090C36E2C
:103C5D007402F0800690C36E7403F090C48FE0FF81
:103C6D00A3E090C33DCFF0A3EFF090C491E0FFA38C
:103C7D00E090C33FCFF0A3EFF0E490C48DF07B0153
:103C8D007AC4798D90BD5FF0A37402F07F167E002B
:103C9D00122F8B801190C48EE0FF64026003EF70D1
:0B3CAD0005E490C36EF090C36EE0FFD2
:013CB80022E9
:0825470090C470EEF0A3EFF068
:10254F00123BDD90C472EFF0700690C33CF0FF2297
:10255F0090C472E0B4010F7AC3794312273090C34D
:10256F003C7401F0FF2290C343E0FEA3E0FF90C450
:10257F0070E06E7003A3E06F60037F012290C33D94
:10258F00E0FEA3E0FFC390C342E09FFF90C341E092
:10259F009E90C36FF0A3EFF090C36FE0FCA3E0FD3C
:1025AF00FFAE041212D6EE3395E0FDFC90C4731209
:1025BF0015C990C33FE0FEA3E0FFC390C346E09F61
:1025CF00FF90C345E09E90C371F0A3EFF090C371ED
:1025DF00E0FCA3E0FDFFAE041212D6EE3395E0FD52
:1025EF00FC90C4771215C990C472E06402707990A0
:1025FF00C33CE06401706B7F09FEFDFC90C477E083
:10260F00F8A3E0F9A3E0FAA3E0FBC312154D501AAB
:10261F00E47F09FEFDFC90C473E0F8A3E0F9A3E0AA
:10262F00FAA3E0FBC312154D4038E47F02FEFDFC18
:10263F0090C477E0F8A3E0F9A3E0FAA3E0FB12144B
:10264F002390C473E0F8A3E0F9A3E0FAA3E0FBD36F
:10265F0012154D90C33C50057403F0FF227404F023
:10266F00FF2290C33CE0FF2290C33CE06401706EF8
:10267F007F09FEFDFC90C477E0F8A3E0F9A3E0FA30
:10268F00A3E0FBC312154D501AE47F09FEFDFC9029
:10269F00C473E0F8A3E0F9A3E0FAA3E0FBC31215BB
:1026AF004D4038E47F02FEFDFC90C477E0F8A3E0D4
:1026BF00F9A3E0FAA3E0FB12142390C473E0F8A38C
:1026CF00E0F9A3E0FAA3E0FBD312154D90C33C5001
:1026DF00057403F080087404F080037F022290C316
:1026EF003CE0B4031E90C33FE0FEA3E0FFC390C3E2
:1026FF006DE09FFF90C36CE09E90C375F0A3EFF069
:10270F007F052290C33DE0FEA3E0FFC390C348E0E6
:10271F009FFF90C347E09E90C373F0A3EFF07F0637
:01272F002287
:0451D60002180000BB
:1051B800E4F51D758911F58CF58AC28CF51AF51C74
:0E51C800438901758CBC758ACDD2A9D28C2288
:03000B0002490F98
:0D490F00C0E0C0D075D000C000C006C007D9
:10491C00C2AFE51D6002151D758CBC758ACD051BDB
:10492C0075270074017E00A827088005C333CE3399
:10493C00CED8F9FFEF551C602DE52725E02408F8AB
:10494C0008E61618700116E52725E02408F8E6FE9F
:10495C0008E64E7011AF2704A807088002C333D8AD
:0F496C00FC421AF4521C0527E527B408B6D2AF57
:0B497B00D007D006D000D0D0D0E03232
:03002B000252B6C8
:1052B600C0E0C2AFC2C6D2AF0519E5197002051823
:0352C600D0E03203
:10513700C2AF7401A807088002C333D8FCFE421C23
:10514700EF25E02408F8A60408A605EEF4521AD2C3
:02515700AF2285
:10527800C2AF7401A807088002C333D8FCF4521CDB
:05528800521AD2AF2212
:1052C900C2AF7401A807088002C333D8FC551AFF7E
:0252D900D2AF52
:0152DB0022B0
:0B51F400D2B37F051251FFD2B27F053D
:1051FF00EF600EE4FE0EC3EE648094B240F71F80A2
:01520F00EFAF
:01521000227B
:04535F0053BEF72220
:0453630043BE08221B
:10522C00125363D2B3D2B27F0F1251FFC2B37F0FAE
:0A523C001251FFC2B27F0F0251FFB2
:0A5179007F0F124FD5AF03124FD580
:10518300125363C2B3D2B27F0F1251FFD2B37F0F58
:065193001251FF02535F00
:0F532500125363C2B31251F6C2B27F050251FF99
:0D5343001253631251F4C2B27F050251FFF4
:1051990012535F1251F4E4FD30B30A7F051251FF37
:0F51A9000DEDB432F3C2B27F051251FF02536312
:104FC500124FD5E0FF124FD512518312522C7F6438
:024FD500AD0726
:104FD700125363E4FCED30E704D2B38002C2B3EDB1
:104FE70025E0FD1251F6C2B27F051251FF0CECB459
:054FF70008E3025199DE
:0D5031007F0F124FD512522C7F65124FD504
:10503E0012535FE4FC1251F6ED25E0FD30B305444A
:10504E0001FD8004ED54FEFDC2B27F051251FF0C2E
:06505E00ECB408E1AF050F
:015064002229
:103E4800124FD0125031AB0712532512503EAA0719
:103E5800125343125183EB20E003023EF654846070
:103E68000AEB547BFB124FD0125179EB54FEFBEA5C
:103E780030E713547FFA124FD07F10124FD5AF029C
:103E8800124FD5125183EA4480FA124FD07F101294
:103E98004FD5AF02124FD5125183EB4484FB124F1A
:103EA800D07F0F124FD5AF03124FCAE4FF124FD580
:103EB800E4FF124FD5E4FF124FD57F80124FD57F14
:103EC80005124FD57F01124FD57F01124FD57F21A3
:103ED800124FD5125183EB547BFBEA547FFA124FF1
:0E3EE800D07F10124FD5AF02124FCA1251797F
:013EF60022A9
:10410200124FD012503190C4C4EFF0125325125006
:104112003EA3EFF0125343125183E04480F0124F5A
:10412200D07F10124FD5E0FF124FD512518390C4A9
:10413200C4E04484F0124FD07F0F124FC5E4FF1247
:104142004FD5900006121297FF124FD5900005121C
:104152001297FF124FD5900004121297FF124FD5FB
:10416200900003121297FF124FD59000021212977D
:10417200FF124FD5900001121297FF124FD5121263
:104182007EFF124FD512518390C4C4E0547BF0A33A
:10419200E0547FF0124FD07F10124FC57F0F124FA5
:0C41A200D590C4C4E0FF124FD502518339
:103D8B00124FD0E4FF124FD512522C7F65124FD534
:103D9B007B0612503E747B2BF582E434C4F583EF23
:103DAB00F0125325DBEC12503E90C47BEFF0125314
:103DBB004312518390C47FE0547FF0E4FB747B2B60
:103DCB00F582E434C4F583E0FFC4540FFE90C48342
:103DDB00F0EF540FFFA3F0EE75F00AA42FFF747BE6
:103DEB002BF582E434C4F583EFF00BEBB403CE7BFD
:103DFB0004747B2BF582E434C4F583E0FFC4540FC9
:103E0B00FE90C483F0EF540FFFA3F0EE75F00AA4FD
:103E1B002FFF747B2BF582E434C4F583EFF00BEBAF
:103E2B00B407CEE490C482F07B017AC4797B90BD59
:0D3E3B005FF0A37404F07F107E00022F8B57
:1052DC00EF75F00A84C454F0FEEF75F00A84E5F023
:0352EC004EFF2250
:0F533400EFC4540F75F00AA4FEEF540F2EFF22A2
:0745560090C4A8EBF0AB07D5
:10455D00ED64016004EDB4021BED240CFEE4339018
:10456D00C4A9F0A3CEF0EB24FFFEE434FFA3F0A327
:10457D00CEF08012AF0590C4A9E4F0A3EFF0AF0325
:10458D00A3E4F0A3EFF090C4AAE02401FF90C4A926
:10459D00E03400FE7C007D1A1212D67D0A1212E85C
:1045AD00AC06AD0790C4ABE0FAA3E0FBAE02780217
:1045BD00CEC313CE13D8F92BFFEA3ECF2DCF3CFE41
:1045CD0090C4A8E07C002FFFEC3ECF24DCCF34FF5D
:0845DD00FE7D071212E8AF0594
:0145E50022B3
:103EF7007B017AC4793890BA76E4F0A37404F07F32
:103F07009C7E0012273E90C438E0645A6003023F4B
:103F1700A5A3E064A56003023FA5A3E0FF1252DC5E
:103F270090C440EFF090C43BE0FF1252DC90C441D4
:103F3700EFF090C43CE0FF1252DC90C442EFF090E7
:103F4700C43AE0FFA3E0FDA3E0FB12455690C4434B
:103F5700EFF090C43DE0FF1252DC90C444EFF04410
:103F670080F090C43EE0FF1252DC90C445EFF09021
:103F7700C43FE0FF1252DC90C446EFF07B017AC4E5
:103F87007940124102E490C438F0A3F07AC479383A
:0E3F970090BD5FF0A304F07F9C7E00122F8B84
:013FA50022F9
:10525F007D027F03124DF87D037F03124DF8123D3F
:09526F008BE4F518F519023EF775
:104CCD00AB07AA06A905A8047F007E387D317C00BC
:104CDD001214AEC3E49F90BA77F074049E90BA7626
:104CED00F043C9407D04E4FF124DF87D05E4FF1249
:104CFD004D1B43803075D88075985090BA76E0FC86
:0D4D0D00A3E0FDECF5BA8DAA43A810D2ACCE
:014D1A002276
:104D6700AB07AA06A905A8047F007E707D627C00B8
:104D77001214AEC3E49F90BA77F074049E90BA768B
:104D8700F043C9207D06E4FF124DF87D07E4FF12CA
:104D97004D1B4380C0759B9090BA76E0FCA3E0FD65
:084DA700ECF5BB8D9D439A0160
:014DAF0022E1
:1050E800759680759780AB07AA06A905A8047F0066
:1050F8007EC07D897C011214AEAD07AC06ECF5D9F3
:07510800AF058FE743B80C6F
:01510F00227D
:104ECE0075A78075AB80AB07AA06A905A8047F005D
:104EDE007EC07D897C011214AEAD07AC06ECF5AE3A
:104EEE00AF058FAF43B830E490A01BF0A3F0A3F052
:104EFE00A3F090A023F090A01FF0A3F0A3F0A3F0D6
:014F0E002280
:104C2A00EF14601B1460291460372403704490BA8F
:104C3A0072E0FCA3E0FDA3E0FEA3E0FF024CCD90EE
:104C4A00BA72E0FCA3E0FDA3E0FEA3E0FF024D6719
:104C5A0090BA72E0FCA3E0FDA3E0FEA3E0FF0250DD
:104C6A00E890BA72E0FCA3E0FDA3E0FEA3E0FF1225
:034C7A004ECE22F9
:1028FE0090C495EFF0A3ECF0A3EDF0A3EBF0A3EAF8
:04290E00F0A3E9F059
:10291200C2AFE4A3F0A3F090C496E0FEA3E0FFC32D
:1029220090C49CE09F90C49BE09E40030229D690F5
:10293200C498E0FBA3E475F001121353A9F0FA1254
:10294200127EFF90C495E0FE75F009A42400F58282
:10295200E5F03488F583EE75F008A42583F583E06D
:10296200FCA3E0FD75F009EEA42400F582E5F03445
:1029720080F583EE75F008A42583F583E5822DF5B5
:1029820082E5833CF583EFF075F009EEA42400F5AF
:1029920082E5F03488F583EE75F008A42583F5838B
:1029A200E475F00112133D75F009EEA42400F582DE
:1029B200E5F03488F583EE75F008A42583F583E00D
:1029C2005403F090C49CE004F0700690C49BE004B1
:1029D200F002291990C495E01460421460701470DA
:1029E20003022A7E24036003022AAE908808E06074
:1029F20003022AAE04F0908802E0FEA3E02400F570
:102A02008274803EF583E0F599908803E004F070CB
:102A120006908802E004F0908802022AAA9090119F
:102A2200E06003022AAE04F090900BE0FEA3E024E3
:102A320009F58274883EF583E0F59C90900CE004E1
:102A4200F0700690900BE004F090900B805A9098F2
:102A52001AE0705804F0909814E0FEA3E02412F5F6
:102A62008274903EF583E0F59E909815E004F07034
:102A720006909814E004F0909814802C90A023E023
:102A8200702A04F090A01DE0FEA3E0241BF58274DE
:102A9200983EF583E0F5AC90A01EE004F07006903D
:0E2AA200A01DE004F090A01DE05403F0D2AFA0
:012AB0002203
:030023000245E6AD
:1045E600C0E0C083C082C0D075D000C006C007C27C
:1045F600AF30982AC298908804E0FEA3E02400F524
:104606008274843EF583E599F0908805E004F070A5
:1046160006908804E004F0908804E05403F0309992
:104626003FC299908802E0FEA3E0FF908800E06E0A
:104636007003A3E06F602474002FF58274803EF54A
:1046460083E0F599908803E004F07006908802E014
:1046560004F0908802E05403F08005908808E4F0A6
:0F466600D2AFD007D006D0D0D082D083D0E032F0
:03005300024A5608
:104A5600C0E0C083C082C0D075D000C006C007C207
:104A6600AF5396FE909814E0FEA3E0FF909812E0F4
:104A76006E7003A3E06F602474122FF58274903E6B
:104A8600F583E0F59E909815E004F0700690981472
:104A9600E004F0909814E05403F0800590981AE42E
:104AA600F0D2AFD007D006D0D0D082D083D0E032BB
:03005B00024E4012
:104E4000C0E0C083C082C0D075D000C006C2AF53DE
:104E500097FE909816E0FEA3E02412F58274943E2B
:104E6000F583E59FF0909817E004F070069098168F
:104E7000E004F0909816E05403F0D2AFD006D0D002
:074E8000D082D083D0E032A4
:03006300024AB698
:104AB600C0E0C083C082C0D075D000C006C007C2A7
:104AC600AF53A7FE90A01DE0FEA3E0FF90A01BE061
:104AD6006E7003A3E06F6024741B2FF58274983EFA
:104AE600F583E0F5AC90A01EE004F0700690A01DE2
:104AF600E004F090A01DE05403F0800590A023E4AC
:104B0600F0D2AFD007D006D0D0D082D083D0E0325A
:03006B00024E87BB
:104E8700C0E0C083C082C0D075D000C006C2AF5397
:104E9700ABFE90A01FE0FEA3E0241BF582749C3EAE
:104EA700F583E5ADF090A020E004F0700690A01F18
:104EB700E004F090A01FE05403F0D2AFD006D0D0AA
:074EC700D082D083D0E0325D
:030083000242FF37
:1042FF00C0E0C083C082C0D075D000C006C007C266
:10430F00AFE59B30E02E759B90539BFE90900DE098
:10431F00FEA3E02409F582748C3EF583E59CF090B2
:10432F00900EE004F0700690900DE004F090900D68
:10433F00E05403F0E59B30E143759B90539BFD9058
:10434F00900BE0FEA3E0FF909009E06E7003A3E0F6
:10435F006F602474092FF58274883EF583E0F59C15
:10436F0090900CE004F0700690900BE004F09090A9
:10437F000BE05403F08005909011E4F0D2AFD0071A
:0B438F00D006D0D0D082D083D0E03226
:1044C50090C4BFEBF0A3EAF0A3E9F07D02E4FF128C
:1044D5004DF87D03E4FF124D1B7B017D02E4FF12C5
:1044E500443243C98075F1FFE4F5F275F36075F464
:1044F5000175F88F30FCFD90C4BFE0FBA3E0FAA383
:10450500E0F912127EF5FA900001121297F5FB9070
:104515000002121297F5FC900003121297F5FDD2D6
:10452500FE20FEFDE4F5FAF5FBF5FCF5FDD2FE20D7
:10453500FEFD75FAFF75FBFF75FCFF75FDFFD2FEED
:1045450020FEFDE4F5F8758FA0E58F20E5FBD2B9D7
:014555002243
:10521100E5E830E51553E8DF438F407FE87E031270
:0B522100524A538FBFE490BA28F022DD
:10311E0075F1FFE4F5F275F36475F40175F88F300F
:10312E00FCFD90BA27E075F00DA42424F582E5F09D
:10313E0034ADF583E0F5FAE4F5FBF5FCF5FDD2FED2
:10314E0020FEFD90BA27E0FB75F00DA42425F58234
:10315E00E5F034ADF583E0FCA3E0FDA3E0FEA3E0D3
:10316E00FF781812155E8FFA75F00DEBA42425F575
:10317E0082E5F034ADF583E0FCA3E0FDA3E0FEA311
:10318E00E0FF781012155E8FFB90BA27E0FB75F00A
:10319E000DA42425F582E5F034ADF583E0FCA3E023
:1031AE00FDA3E0FEA3E0FF780812155E8FFC75F01C
:1031BE000DEBA42425F582E5F034ADF583A3A3A38E
:1031CE00E0F5FDD2FE20FEFD90BA27E0FF75F00D72
:1031DE00A42429F582E5F034ADF583E0F5FA75F017
:1031EE000DEFA4242AF582E5F034ADF583E0F5FB6E
:1031FE0090BA27E0FF75F00DA4242BF582E5F0348C
:10320E00ADF583E0F5FC75F00DEFA4242CF582E509
:10321E00F034ADF583E0F5FDD2FE20FEFD90BA2729
:10322E00E0FF75F00DA4242DF582E5F034ADF583A5
:10323E00E0F5FA75F00DEFA4242EF582E5F034AD2D
:10324E00F583E0F5FB90BA27E0FF75F00DA4242F6F
:10325E00F582E5F034ADF583E0F5FC75F00DEFA4E5
:10326E002430F582E5F034ADF583E0F5FDD2FE2095
:0C327E00FEFD90BA27E004F0E4F5F82211
:0622D00090C4211215C9A3
:1022D600D390C427E0940090C426E09408400302FB
:1022E600254690C425E0FB90C42130E70FE0FCA30F
:1022F600E0FDA3E0FEA3E0FF7803800DE0FCA3E091
:10230600FDA3E0FEA3E0FF781512157190C430120C
:1023160015C990BA26E0FA75F00DA42424F582E5D5
:10232600F034ADF583E030E63890C430E0FCA3E04D
:10233600FDA3E0FEA3E0FF75F00DEAA42425F582D7
:10234600E5F034ADF5831215C9EB54C0FF75F00DF9
:10235600EAA42424F582E5F034ADF583EFF00225F6
:102366002A90C426E0FCA3E0FDAE047803CEC31396
:10237600CE13D8F990C42EF0ED5407A3F0E490C420
:102386002DF090C425E054C0FFE4FCFDFE90C4345B
:102396001215C9E490C42BF090C42EE0FF90C42B14
:1023A600E0C39F400302245590C430E0FCA3E0FD47
:1023B600A3E0FEA3E0FF90BA26E0FB75F00DA4248F
:1023C60025F582E5F034ADF5831215C990C434E0E5
:1023D600FCA3E0FDA3E0FEA3E04408FF75F00DEBCF
:1023E600A42424F582E5F034ADF583EFF0E490C43F
:1023F6002CF090C42CE0FFC39408504490C428E00D
:10240600FBA3E0FAA3E0F990C42DE0F58275830002
:10241600121297FE90BA26E075F00DA42429F582D3
:10242600E5F034ADF583E5822FF582E43583F58357
:10243600EEF090C42DE004F090C42CE004F080B2DD
:1024460090BA26E004F090C42BE004F002239E909C
:10245600C42FE0FB7003022530A3E0FCA3E0FDA33C
:10246600E0FEA3E0FF90BA26E075F00DA42425F562
:1024760082E5F034ADF5831215C9AF0390C434A3D9
:10248600E0F9A3E0FAA3E04FFF90BA26E075F00D5D
:10249600A42424F582E5F034ADF583EFF0E490C48E
:1024A6002CF090C42FE0FF90C42CE0FEC39F504454
:1024B60090C428E0FBA3E0FAA3E0F990C42DE0F570
:1024C60082758300121297FF90BA26E075F00DA46C
:1024D6002429F582E5F034ADF583E5822EF582E414
:1024E6003583F583EFF090C42DE004F090C42CE022
:1024F60004F080AE90C42CE0FFC39408502690BA36
:1025060026E075F00DA42429F582E5F034ADF583B7
:10251600E5822FF582E43583F583E4F090C42CE060
:1025260004F080D090BA26E004F090BA28E070104B
:10253600C2AF12311ED2AF90BA287401F0438F0495
:012546002272
:03004B00021F761B
:101F7600C0E0C0F0C083C082C0D075D000C000C031
:0D1F860001C002C003C004C005C006C007B2
:101F9300C2AFE59130E70353913FE59120E6030299
:101FA30022765391BF75F1FF75F20075F36875F4EE
:101FB3000175F8AF30FCFDD2FE20FEFD90BA29E595
:101FC300FAF0E0FF90BA24E075F00DA42424F58222
:101FD300E5F034A0F583EFF0D2FE20FEFD90BA24A5
:101FE300E075F00DA42425F582E5F034A0F583C057
:101FF30083C082E0FCA3E0FDA3E0FEA3E0FF78083A
:10200300121571D082D0831215C990BA24E075F0ED
:102013000DA42425F582E5F034A0F583C083C082A6
:10202300E0F8A3E0F9A3E0FAA3E0FBAFFAEB4FFF7C
:10203300EAFEE9FDE8FCD082D0831215C990BA24E8
:10204300E075F00DA42425F582E5F034A0F583C0F6
:1020530083C082E0FCA3E0FDA3E0FEA3E0FF7808D9
:10206300121571D082D0831215C990BA24E075F08D
:102073000DA42425F582E5F034A0F583C083C08246
:10208300E0F8A3E0F9A3E0FAA3E0FBAFFBEB4FFF1B
:10209300EAFEE9FDE8FCD082D0831215C990BA2488
:1020A300E075F00DA42425F582E5F034A0F583C096
:1020B30083C082E0FCA3E0FDA3E0FEA3E0FF780879
:1020C300121571D082D0831215C990BA24E075F02D
:1020D3000DA42425F582E5F034A0F583C083C082E6
:1020E300E0F8A3E0F9A3E0FAA3E0FBAFFCEB4FFFBA
:1020F300EAFEE9FDE8FCD082D0831215C990BA2428
:10210300E075F00DA42425F582E5F034A0F583C035
:1021130083C082E0FCA3E0FDA3E0FEA3E0FF780818
:10212300121571D082D0831215C990BA24E075F0CC
:102133000DA42425F582E5F034A0F583C083C08285
:10214300E0F8A3E0F9A3E0FAA3E0FBAFFDEB4FFF58
:10215300EAFEE9FDE8FCD082D0831215C990BA24C7
:10216300E075F00DA42425F582E5F034A0F583C0D5
:1021730083C082E0FCA3E0FDA3E0FEA3E0FF7803BD
:1021830012155ED082D0831215C990BA29E020E7D8
:102193002D90BA24E075F00DA42425F582E5F034E2
:1021A300A0F583C083C082E0FCA3E0FDA3E0FEA30F
:1021B300E0FF781212155ED082D0831215C990BA4F
:1021C30029E030E60302226DD2FE20FEFD90BA2400
:1021D300E0FF75F00DA42429F582E5F034A0F58322
:1021E300E5FAF075F00DEFA4242AF582E5F034A0AA
:1021F300F583E5FBF075F00DEFA4242BF582E5F0F4
:1022030034A0F583E5FCF075F00DEFA4242CF582E2
:10221300E5F034A0F583E5FDF0D2FE20FEFD90BA93
:1022230024E0FF75F00DA4242DF582E5F034A0F52C
:1022330083E5FAF075F00DEFA4242EF582E5F03472
:10224300A0F583E5FBF075F00DEFA4242FF582E5EF
:10225300F034A0F583E5FCF075F00DEFA42430F520
:1022630082E5F034A0F583E5FDF075F80090BA241B
:10227300E004F0E59130E51A5391DF90BA26E0FFD0
:10228300A3E06F600812311E438F04800590BA28C3
:10229300E4F0E59130E4035391EFE59130E3035328
:1022A30091F7E59130E2065391FB438F0475E80003
:0222B300D2AFA8
:1022B500D007D006D005D004D003D002D001D0007D
:0B22C500D0D0D082D083D0F0D0E03227
:05535A0025303258006F
:0D51DA0042C2B4000041C1AE0041C1AF00AF
:0A53500075F90175BCFD7590FD2292
:104B760090C2B7EEF0A3EFF0A3EBF0A3EAF0A3E93F
:014B8600F03E
:104B870012528DEF04FDE4FFEFC39D502890C2B988
:104B9700E0FBA3E0FAA3E0F98F8275830012129776
:104BA700FBEF25E024BCF582E434C2F583E4F0A3EF
:104BB700EBF00F80D390C2B7E0FEA3E0FF7B017A52
:0E4BC700C279BC90BD5FE4F0A3EDF0022F8B2D
:104B160090C3B8EEF0A3EFF0A3EBF0A3EAF0A3E99D
:014B2600F09E
:104B270012528DEF04FFE4FEEEC39F502890C3BAE4
:104B3700E0FBA3E0FAA3E0F98E82758300121297D7
:104B4700FDEE25E024BDF582E434C3F583E4F0A34C
:104B5700EDF00E80D390C3B8E0FEA3E0FF7B017AAF
:0F4B6700C379BD90BD5FE4F0A3743CF0022F8BC7
:1052EF0053A9FE53B9FEC289D288D2A8C28BD28AE3
:0352FF00D2AA220E
:030003000246753D
:10467500C0E0C0F0C083C082C0D075D000C000C00B
:1046850001C002C003C004C005C006C007C2AF7F99
:10469500207E0312524AE5B030E0F47F207E0312FB
:1046A500524AE5B030E0F47F2C7E0112524AE5B063
:1046B50030E0F4E5B020E11CE51DD3945090C2B57F
:1046C500E0400424FB800224FFF090C2B4E034FFF4
:1046D500F0751D647F017E00124DB0C289C28BD278
:1046E500AFD007D006D005D004D003D002D001D07A
:0C46F50000D0D0D082D083D0F0D0E032D2
:0300130002439A0B
:10439A00C0E0C0F0C083C082C0D075D000C000C0E9
:1043AA0001C002C003C004C005C006C007C2AF7F77
:1043BA00207E0312524AE5B030E1F47F207E0312D8
:1043CA00524AE5B030E1F47F2C7E0112524AE5B040
:1043DA0030E1F4E5B020E028E51DD3945040109078
:1043EA00C2B5E02405F090C2B4E03400F0800E902B
:1043FA00C2B5E004F0700690C2B4E004F0751D6422
:10440A007F017E00124DB0C289C28BD2AFD007D0D5
:10441A0006D005D004D003D002D001D000D0D0D02D
:08442A0082D083D0F0D0E03213
:1052A200E4FFE5B020E0037402FFE5B020E604EF7E
:0352B2004401FFB5
:0152B50022D6
:102DF000124F8E1251B81252EFD2AF125350123AF4
:102E0000FF90BA721215D50001C2007F03124C2A3E
:102E1000E490C2B6F090C2B1F090C1B1F090C1B0F0
:0A2E2000F0124F0F12010312536F5E
:102E2A00C2AF7B017AC279B490BD5FE4F0A304F02B
:102E3A007F007E30122F8BD2AF7B017ABA79329023
:102E4A00BA76E4F0A37403F07F167E0012273E9050
:102E5A00BA32E0B45ACAE4F07B017ABA793490BD46
:0C2E6A005FF0A304F07F167E00122F8B97
:102E760090BA33E0FF90BA38E4F0A3EFF07B017A22
:102E8600BA793890BD5FE4F0A304F07F007E40126B
:102E96002F8B7B017ABA793490BD5FE4F0A374027C
:082EA600F07F007E52122F8B19
:0A2EAE0090BA33E0146003022E2AEC
:102EB800E490BA38F090C081E0FF90BA38E0FEC3E1
:102EC8009F4003022F6875F009EEA4248FF582E570
:102ED800F034C0F583E0FEA3E0FF90BA34E0FCA331
:102EE800E0FDC39FEC9E406F90BA38E0FF75F00993
:102EF800A42493F582E5F034C0F583E0FAA3E0FB5F
:102F0800D3ED9BEC9A505075F009EFA42491F5820B
:102F1800E5F034C0F583E0FEA3E0FF90BA36E0FCAC
:102F2800A3E0FDC39FEC9E402EA3E0FF75F009A42B
:102F38002495F582E5F034C0F583E0FAA3E0FBD3ED
:102F4800ED9BEC9A501190C08AA3E0FAA3E0F582B9
:102F58008A83121666800990BA38E004F0022EBD02
:102F680090BA38E0FFA3E4F0A3EFF07B017ABA79D6
:102F78003990BD5FE4F0A304F07F007E25122F8B0B
:032F8800022E2AEC
:03536B00FF536E7F
:01536E00221C
:10498600C2AFE4F5F1F5F275F30A75F40175F8AF07
:1049960030FCFDD2FE20FEFDAFFA90C4C6E4F0A3C3
:1049A600EFF0E07F00FE90C4C6F0A3EFF0ADFBEDA4
:1049B600FF90C4C6EEF0A3EFF0E4F5F8D2AF90C4D2
:1049C600C6E0FEA3E0FF90536B75F003121606EEE9
:1049D60075F003A42583F583E493FB740193FA74BD
:0D49E6000293F94A600789828A83121666DF
:0149F30022A1
:045367000F40720081
:10478D0078BB7CC47D017BFF7A5379677E007F0403
:10479D0012125890BA721215D50001C200E4FF1220
:1047AD004C2A7B017AC479BB1244C590BD67740154
:1047BD00F0A37484F0A37400F0A37401F0A37488C3
:1047CD00F0A37404F0A37401F0A37488F0A374062D
:1047DD00F0A37404F0A3E4F07B01A304F0A374BD73
:1047ED00F0A3747DF0A3EBF0A374BEF0A3747DF081
:1047FD00A3EBF0A374BEF0A3747FF0A37401F0A338
:02480D00E4F0D5
:01480F002286
:104810007B017ABE798190BA76E4F0A37402F07FCE
:10482000007E0F12273E90BE81E0645A7062F07BDA
:10483000017ABE798190BD5FF0A37402F07F007EA3
:104840000F122F8B90BE84E0FDC394C840027D649C
:1048500090BE82E0FEA3E0FBAA0690BE81745AF0EF
:10486000A374A5F0ED25E02404A3F0A37483F0EA7B
:10487000A3F0A3EBF0A3EDF0AE02AF037B017ABE91
:10488000798890BA76E4F0A3EDF012273E7F0122FA
:024890007F00A7
:014892002203
:0B16D50090C448EBF0A3EAF0A3E9F09A
:1016E000C2AF900003121632121369FFAEF090C41D
:1016F00053EEF0A3EFF0D2AF90C448E0FBA3E0FAC2
:10170000A3E0F9900006121632121369FDACF06FD7
:101710007002EC6E7003021C0EC390C454E09D90E6
:10172000C453E09C90C448E0FBA3E0FAA3E0F95066
:1017300021900009121394FF90C454E02FFF90C42D
:1017400053E035F0CFC39DCF9C90C44BF0A3EFF096
:10175000801E900006121632121369FFC390C45403
:10176000E09FFE90C453E095F090C44BF0A3CEF000
:10177000C390C44CE0940690C44BE0940050037FA7
:10178000002290C448E0FBA3E0FAA3E0F990000631
:10179000121632121369FDACF090C448E0FBA3E0CE
:1017A000FAA3E0F91216128D828C83121297FF9021
:1017B000C451E4F0A3EFF0E0F8E4F0E890C451F095
:1017C000ED2401FFE43CFE90C455F0A3EFF090C47B
:1017D00048E0FBA3E0FAA3E0F9900009121394FD9E
:1017E000C3EF9DEE95F04007E490C455F0A3F012CE
:1017F000161290C455E0FEA3E0F5828E8312129774
:10180000FF90C451E0FEA3E04FFF90C451EEF0FE04
:10181000A3EFF064A57003EE645A6003021BB99055
:10182000C448E0FBA3E0FAA3E0F9900006121632E8
:101830001213692403FFE435F0FE90C455F0A3EFC2
:10184000F090C448E0FBA3E0FAA3E0F9900009128D
:101850001394FDC3EF9DEE95F04007E490C455F05E
:10186000A3F012161290C455E0FEA3E0F5828E8319
:10187000121297648260030219E790C448E0FBA348
:10188000E0FAA3E0F990000612163212136924025E
:10189000FFE435F0FE90C455F0A3EFF090C448E0AB
:1018A000FBA3E0FAA3E0F9900009121394FDC3EF43
:1018B0009DEE95F04007E490C455F0A3F090C44825
:1018C000E0FBA3E0FAA3E0F912161290C455E0FE83
:1018D000A3E0F5828E831212972403FFE433FE9077
:1018E000C44DF0A3EFF0C390C44CE09F90C44BE014
:1018F0009E5003021C0EE490C44FF0A3F090C44D20
:10190000E0FEA3E0FFA3E0FCA3E0FDC39FEC9E404C
:10191000030219B390C448E0FBA3E0FAA3E0F990F6
:101920000006121632121369FFAEF090C448E0FBB5
:10193000A3E0FAA3E0F91216128F828E8312129797
:10194000FF74812DF58274BE3CF583EFF090C4489E
:10195000E0FBA3E0FAA3E0F9900006121632E4756A
:10196000F0011213CC90C448E0FBA3E0FAA3E0F925
:10197000900006121632121369FFAEF090C448E0D0
:10198000FBA3E0FAA3E0F9900009121394FDC3EF62
:101990009DEE95F0400C900006121632E4F5F01220
:1019A000140490C450E004F0700690C44FE004F0BA
:1019B0000218FD90BE85E0FEA3E0FF7B017ABE79B0
:1019C0008790BE83E024FDC313FD90BD5FE4F0A3C8
:1019D000EDF0122F8B90BE837403F090BE85744F90
:1019E000F0A3744B021B6A90C448E0FBA3E0FAA387
:1019F000E0F912161290C455E0FEA3E0F5828E8342
:101A000012129764836003021B6E90C448E0FBA32C
:101A1000E0FAA3E0F99000061216321213692402CC
:101A2000FFE435F0FE90C455F0A3EFF090C448E019
:101A3000FBA3E0FAA3E0F9900009121394FDC3EFB1
:101A40009DEE95F04007E490C455F0A3F090C44893
:101A5000E0FBA3E0FAA3E0F912161290C455E0FEF1
:101A6000A3E0F5828E831212972403FFE433FE90E5
:101A7000C44DF0A3EFF0C390C44CE09F90C44BE082
:101A80009E5003021C0EE490C44FF0A3F090C44D8E
:101A9000E0FEA3E0FFA3E0FCA3E0FDC39FEC9E40BB
:101AA00003021B4390C448E0FBA3E0FAA3E0F990D3
:101AB0000006121632121369FFAEF090C448E0FB24
:101AC000A3E0FAA3E0F91216128F828E8312129706
:101AD000FF74812DF58274BE3CF583EFF090C4480D
:101AE000E0FBA3E0FAA3E0F9900006121632E475D9
:101AF000F0011213CC90C448E0FBA3E0FAA3E0F994
:101B0000900006121632121369FFAEF090C448E03E
:101B1000FBA3E0FAA3E0F9900009121394FDC3EFD0
:101B20009DEE95F0400C900006121632E4F5F0128E
:101B3000140490C450E004F0700690C44FE004F028
:101B4000021A8D90BE85E0FEA3E0FF7B017ABE798C
:101B500088A3E0FD90BA76E4F0A3EDF012273E9062
:101B6000BE87E025E0240490BE83F07F012290C46C
:101B700048E0FBA3E0FAA3E0F9900006121632E475
:101B800075F0011213CC90C448E0FBA3E0FAA3E087
:101B9000F9900006121632121369FFAEF090C44895
:101BA000E0FBA3E0FAA3E0F9900009121394FDC34F
:101BB000EF9DEE95F04057804990C448E0FBA3E0CC
:101BC000FAA3E0F9900006121632E475F001121340
:101BD000CC90C448E0FBA3E0FAA3E0F99000061221
:101BE0001632121369FFAEF090C448E0FBA3E0FA8E
:101BF000A3E0F9900009121394FDC3EF9DEE95F058
:101C0000400C900006121632E4F5F01214047F0026
:011C100022B1
:10368F0090BA25E0FF90BA24E06F700302372875D7
:10369F00F00DEFA42425F582E5F034A0F583E0FCCE
:1036AF00A3E0FDA3E0FEA3E0FFE47B23FAF9F8C358
:1036BF0012154D705E90BA25E075F00DA42424F517
:1036CF0082E5F034A0F583E0540FFFE4FEEEC39FD4
:1036DF00504190BA25E075F00DA42429F582E5F04C
:1036EF0034A0F583E5822EF582E43583F583E0FD82
:1036FF0090BE7DE0FAA3E0247DF58274BD3AF58398
:10370F00EDF090BE7EE004F0700690BE7DE004F018
:10371F000E80BA90BA25E004F0124810EF640170E1
:10372F004190BE83E02403FDE433FC7B017ABE7934
:10373F0081E4FF1228FEE490C425F090BE83E024BC
:10374F0003FEE43390C426F0A3CEF0A37401F0A3DC
:10375F0074BEF0A37481F07F237E007D007C001285
:10376F0022D07B017ABD79671216D5BF011590BEA5
:10377F0083E02403FDE433FC7B017ABE7981E4FF0F
:10378F001228FE7B017ABD79721216D5BF012CE487
:10379F0090C425F090BE83E02403FEE43390C4264A
:1037AF00F0A3CEF0A37401F0A374BEF0A37481F064
:0B37BF007F247E007D007C001222D0E1
:0137CA0022DC
:10530200FF988103FF988104FF988101FF98810033
:0353120035112929
:0251E700C109FC
:10405500E490C4ADF0A3F0A374B0F0A374FAF0C279
:1040650090C2947F057E0012524AE490C4B1F0904C
:10407500C4AFE0A330E704D2928002C292C2937F1C
:10408500057E0012524AD2937F057E0012524A9055
:10409500C4B0E025E0F090C4AFE033F090C4B1E0E7
:1040A50004F0E0C3941040C7D2947F057E001252FD
:1040B5004AE490C4B1F0C2937F057E0012524AD201
:1040C500937F057E0012524A90C4AEE025E0F09041
:1040D500C4ADE033F0309107E0F0A3E04401F09087
:1040E500C4B1E004F0E0C3941040CBD2907F057ECC
:0C40F5000012524A90C4ADE0FEA3E0FFB0
:01410100229B
:103FA600E490C4B2F0A3F0EFFF74FAA3CFF0A3EF4E
:103FB600F0C290C2947F057E0012524AE490C4B6C5
:103FC600F090C4B4E0A330E704D2928002C292C259
:103FD600937F057E0012524AD2937F057E001252CD
:103FE6004A90C4B5E025E0F090C4B4E033F090C444
:103FF600B6E004F0E0C3941040C7D2947F057E007B
:1040060012524AE490C4B6F0C2937F057E00125263
:104016004AD2937F057E0012524A90C4B3E025E04F
:10402600F090C4B2E033F0309107E0F0A3E0440131
:10403600F090C4B6E004F0E0C3941040CBD2907F79
:0E404600057E0012524A90C4B2E0FEA3E0FFD5
:014054002249
:104C7D0090BA7BEFF0C290C2947F057E0012524A2B
:104C8D00E490BA7AF090BA7BE030E704D2928002D9
:104C9D00C292C2937F057E0012524AD2937F057E47
:104CAD000012524A90BA7BE025E0F090BA7AE00407
:104CBD00F0E0C3940840CED2907F057E0002524AA8
:053CB900E4FDFC7FB8F2
:103CBE0090BA7BEFF0ECA3F0A3EDF0C290C2947F2C
:103CCE00057E0012524AE490BA7AF090BA7BE03048
:103CDE00E704D2928002C292C2937F057E001252F6
:103CEE004AD2937F057E0012524A90BA7BE025E0BD
:103CFE00F090BA7AE004F0E0C3940840CED2947FFC
:103D0E00057E0012524AE490BA7AF090BA7DE03005
:103D1E00E704D2928002C292C2937F057E001252B5
:103D2E004AD2937F057E0012524A90BA7DE025E07A
:103D3E00F090BA7AE004F0E0C3940840CEE490BA72
:103D4E007AF090BA7CE030E704D2928002C292C23E
:103D5E00937F057E0012524AD2937F057E00125247
:103D6E004A90BA7CE025E0F090BA7AE004F0E0C325
:0D3D7E00940840CED2907F057E0002524A8C
:06425A007BFF7D047C00E7
:0B42600090BA71EBF0A3EAF0A3E9F0C4
:10426B00AE04AF05A3EEF0A3EFF07FBC123CBE9003
:10427B00BA74E0FCA3E0FD7FBE123CBE7FBF124CC4
:10428B007DC290D2947F057E0012524A90BA74740C
:10429B00FFF5F012135345F0605190BA71E0FBA398
:1042AB00E475F001121353A9F0FA12127E90BA774B
:1042BB00F0E490BA76F090BA76E0C3940850CDA3B0
:1042CB00E030E704D2928002C292C2937F057E0057
:1042DB0012524AD2937F057E0012524A90BA77E06F
:1042EB0025E0F090BA76E004F080CBD2907F057E8B
:0442FB000002524A21
:1041AE0090BA777401F0A374BAF0A37475F090BA54
:1041BE0075EFF0A3EDF090BA71E4F0A37402F0FD88
:1041CE007C007FBC123CBE90BA71E0FCA3E0FD7F88
:1041DE00BE123CBE7FBF124C7DC290D2947F0F7E2A
:1041EE000012524A90BA7174FFF5F012135345F053
:1041FE00605190BA77E0FBA3E475F001121353A956
:10420E00F0FA12127E90BA74F0E490BA73F090BA8B
:10421E0073E0C3940850CDA3E030E704D29280023D
:10422E00C292C2937F0F7E0012524AD2937F0F7EAC
:10423E000012524A90BA74E025E0F090BA73E0048E
:0C424E00F080CBD2907F0F7E0002524A1D
:100C08007A53790212425AE4FD7F011241AEE4FDA3
:100C18007F021241AE7D577F031241AE7DD37F0420
:100C28001241AEE4FD7F051241AE7D117F061241EF
:100C3800AE7D087F071241AEE4FD7F081241AEE4A5
:100C4800FD7F091241AE7D3F7F0A1241AEE4FD7F70
:100C58000B1241AEE4FD7F0C1241AEE4FD7F0D1294
:100C680041AEE4FD7F0E1241AE7D3F7F0F1241AED3
:100C78007D3F7F101241AEE4FD7F111241AEE4FDCD
:100C88007F121241AEE4FD7F131241AEE4FD7F14E2
:100C98001241AEE4FD7F151241AEE4FD7F1612410C
:100CA800AEE4FD7F171241AEE4FD7F181241AEE4B9
:100CB800FD7F191241AEE4FD7F1A1241AEE4FD7FBB
:100CC8001B1241AEE4FD7F1C1241AEE4FD7F1D12F4
:100CD80041AE7D407F1E1241AE7D807F1F1241AE26
:100CE8007D067F201241AE7D017F211241AEE4FDD9
:100CF8007F221241AEE4FD7F231241AEE4FD7F2442
:100D08001241AEE4FD7F251241AEE4FD7F2612417B
:100D1800AEE4FD7F271241AE7D337F281241AE7DC0
:100D2800337F291241AEE4FD7F2A1241AEE4FD7FF4
:100D38002B1241AEE4FD7F2C1241AEE4FD7F2D1253
:100D480041AEE4FD7F2E1241AEE4FD7F2F1241AE8D
:100D5800E4FD7F301241AEE4FD7F311241AEE4FD87
:100D68007F321241AEE4FD7F331241AEE4FD7F34A1
:100D78001241AEE4FD7F351241AEE4FD7F361241EB
:100D8800AEE4FD7F371241AE7D787F381241AEE484
:100D9800FD7F391241AEE4FD7F3A1241AEE4FD7F9A
:100DA8003B1241AEE4FD7F3C1241AEE4FD7F3D12B3
:100DB80041AEE4FD7F3E1241AEE4FD7F3F1241AEFD
:100DC800E4FD7F401241AEE4FD7F411241AEE4FDF7
:100DD8007F421241AEE4FD7F431241AEE4FD7F4401
:100DE8001241AEE4FD7F501241AE7D237F51124186
:100DF800AE7D457F521241AE7D677F531241AE7D75
:100E0800897F541241AE7DAB7F551241AE7D017F83
:100E1800561241AE7D237F571241AE7D457F581251
:100E280041AE7D677F591241AE7D897F5A1241AE2E
:100E38007DAB7F5B1241AE7DCD7F5C1241AE7DEF15
:100E48007F5D1241AEE4FD7F5E1241AE7D0D7F5F96
:100E58001241AE7D0D7F601241AE7D0C7F61124163
:100E6800AE7D0C7F621241AE7D0F7F631241AE7D75
:100E78000F7F641241AE7D0E7F651241AE7D0E7FFD
:100E8800661241AE7D087F671241AE7D027F68120F
:100E980041AE7D027F691241AE7D027F6A1241AE8A
:100EA8007D027F6B1241AE7D027F6C1241AE7D02E6
:100EB8007F6D1241AE7D027F6E1241AE7D027F6F63
:100EC8001241AE7D147F701241AE7D157F711241C3
:100ED800AE7D067F721241AE7D027F731241AE7DF8
:100EE800027F741241AE7D0D7F751241AE7D0D7F7C
:100EF800761241AE7D0C7F771241AE7D0C7F781261
:100F080041AE7D0F7F791241AE7D0F7F7A1241AEDF
:100F18007D0E7F7B1241AE7D0E7F7C1241AE7D0837
:100F28007F7D1241AE7D027F7E1241AE7D027F7FC2
:100F38001241AE7D027F801241AE7D027F81124157
:100F4800AE7D027F821241AE7D027F831241AE7D6B
:100F5800027F841241AE7D027F851241AE7D147FEF
:100F6800861241AE7D157F871241AE7D067F8812BD
:100F780041AE7D027F891241AE7D027F8A1241AE69
:100F88007A53790612425A7D3B7F6E1241AE7D57E5
:100F98007F6F1241AE7D247F3A1241AE7D1F7F8D57
:100FA8001241AE7DBA7F871241AE7DD17FB2124128
:100FB800AE7D0B7F881241AE7D017F381241AEE4D1
:100FC800FD7F391241AE7D077FB51241AE7D757F39
:100FD800311241AE7D987F3B1241AE7BFF7A537947
:100FE8000A12425C7D0A7F221241AE7D097F3112CE
:100FF80041AE7D077F351241AE7D677F531241AE0A
:101008007D847F551241AE7D867F501241AE7D8230
:101018007F511241AE7D107F601241AEE4FD7F62C8
:101028001241AEE4FD7FA01241AE7D127FA11241B4
:10103800AE7D1F7FA21241AE7D127FA31241AE7D0D
:10104800167FA41241AE7D297FA51241AE7D1E7F79
:10105800A61241AE7D1F7FA71241AE7D7E7FA812EA
:1010680041AE7D1B7FA91241AE7D287FAA1241AEF9
:101078007D6D7FAB1241AE7D197FAC1241AE7D18FC
:101088007FAD1241AE7D4C7FAE1241AE7D1E7FAF6B
:101098001241AE7D237FB01241AE7D527FB1124125
:1010A800AE7D6D7FB21241AE7D3F7FB31241AEE49B
:1010B800FD7FC01241AE7D127FC11241AE7D207FFF
:1010C800C21241AE7D107FC31241AE7D137FC412A0
:1010D80041AE7D277FC51241AE7D1B7FC61241AE52
:1010E8007D1D7FC71241AE7D757FC81241AE7D1F41
:1010F8007FC91241AE7D287FCA1241AE7D687FCB81
:101108001241AE7D1A7FCC1241AE7D187FCD1241BF
:10111800AE7D4D7FCE1241AE7D257FCF1241AE7D93
:101128002E7FD01241AE7D537FD11241AE7D607FBC
:10113800D21241AE7D3F7FD31241AE7BFF7A537905
:101148000E12425C7BFF7A5379127D017C001242B9
:10115800607F8C7E00124DB07BFF7A5379137D013E
:101168007C001242607F787E00124DB07BFF7A537C
:1011780079147D017C001242607FAA7E00024DB086
:105093007D067C087FB1123CBE7D227C187FB21254
:1050A3003CBE7D127C687FB3123CBE7D207C037FB7
:0D50B300B4123CBE7D007C057FB5023CBE02
:103AFF007D507C007FB7123CBE123CB9E4FDFC7FC9
:103B0F00B9123CBE7D0A7C807FBA123CBE7D067C1A
:103B1F00007FBB123CBE7D017C007FB9123CBEE42E
:103B2F00FDFC7FDE123CBE7D027C237FC9123CBEB2
:103B3F007F0A7E00124DB0120C087D517C017FB7B9
:103B4F00123CBE123CB9E4FDFC7FB9123CBE7D15A0
:103B5F007C807FBA123CBE7D057C007FBB123CBED1
:103B6F007D017C007FB9123CBE7D027C237FC91290
:103B7F003CBE7F0A7E00124DB07D017C237FCA12AE
:103B8F003CBE7D107C057FCB123CBE7D057C107F3B
:103B9F00CC123CBE7DFF7C007FD0123CBE125093F6
:103BAF007DD37C007FB6123CBE7D037C007FDE128E
:103BBF003CBE7D047C007FD6123CBE7D4B7C027FD9
:0E3BCF00B7123CBE7F3C7E00124DB0D20922E0
:10506500008003FFFFBF03FFFCBF0000306F00009F
:105075000007000003800000007800000C0000001D
:0E508500300000F00000000FC000030000002B
:0A51E90041C08D00042A0210548911
:1038F40090BA92EEF0A3EFF0A3EBF0A3EAF0A3E901
:01390400F0D2
:1039050090BA9A7424F0A37407F090BA97E0FF90E8
:10391500BA9CE4F0A3EFF090BA997402F0E490BA7F
:1039250098F090BA97E0FFA3E0FEC39F40030239E9
:10393500CFEE75F009A4FF90BA94E0FBA3E0FAA3DB
:10394500E02FF9EA35F0FA900001121394FF90BACE
:1039550099E025E0249AF582E434BAF583E5F0F0A0
:10396500A3EFF090BA99E004F0900003121394FFCE
:1039750090BA99E025E0249AF582E434BAF583E516
:10398500F0F0A3EFF090BA99E004F090BA94E0FB60
:10399500A3E0FAA3E0F990BA98E075F009A4F582DE
:1039A50085F083121297FF90BA99E025E0249AF5E5
:1039B50082E434BAF583E4F0A3EFF090BA99E00419
:1039C500F090BA98E004F002392790BA99E0FD2505
:1039D500E0249AF582E434BAF58374FFF0A3E4F0A9
:1039E50090BA92E0FEA3E0FF7B017ABA799A90BD86
:0939F5005FE4F0A3EDF0022F8B5A
:102AB10090BA7FEEF0A3EFF090BA82EAF0A3EBF0C8
:102AC100E490BA8EF0A3F0A3F0A3F0ED905065600E
:102AD10012E493FE740193FFC3E49FFFE49E90BA56
:102AE10090800AE493FF74019390BA8ECFF0A3EF24
:102AF100F0E490BA8DF090C081F0E4FFFEFDFC900F
:102B0100BA86E0F8A3E0F9A3E0FAA3E0FBC312154B
:102B11004D7003022C2590BA86A3A3A3E05401FFB4
:102B2100E4EF7003022C0390BA8DE0FF90C081E0C6
:102B3100FE75F009A4248EF582E5F034C0F583EF2B
:102B4100F090BA82E0FCA3E0FD75F009EEA4248FB9
:102B5100F582E5F034C0F583ECF0A3EDF090BA8492
:102B6100E0FEA3E0FF90C081E0FD75F009A424918F
:102B7100F582E5F034C0F583EEF0A3EFF0905065F7
:102B8100E493FE740193FF90BA83E02FFF90BA8221
:102B9100E03EFE75F009EDA42493F582E5F034C022
:102BA100F583EEF0A3EFF0905065E493FE7401938A
:102BB100FF90BA85E02FFF90BA84E03EFE90C0817D
:102BC100E075F009A42495F582E5F034C0F583EEB3
:102BD100F0A3EFF090BA8EE0FEA3E0FF90BA83E09D
:102BE1002FF090BA82E03EF090BA90E0FEA3E0FFB1
:102BF10090BA85E02FF090BA84E03EF090C081E079
:102C010004F090BA86E0FCA3E0FDA3E0FEA3E0FFA0
:102C1100780112155E90BA861215C990BA8DE0043A
:102C2100F0022AFB90BA8AE0F9A3E0FAA3E090C08F
:102C31008AC9F0A3EAF0A3E9F090BA7FE0FEA3E02D
:102C4100FF7B017AC0798E90C081E090BA97F00243
:022C510038F455
:0535420090BA71EFF0EA
:10354700E490BA76F090BA76E0FBC39408400302A1
:10355700368EE47F01FEFDFC90BA71E075F009A498
:10356700248EF582E5F034C0F583E0F9F812157181
:10357700EB25E025E02473F582E43450F58312153A
:10358700ADEB5FFFEA5EFEE95DFDE85CFC4D4E4F8B
:10359700700302368590BA76E025E025E02473F5BE
:1035A70082E43450F58312159090C08DE025E02514
:1035B700E02467F582E43450F5831215ADEB5FFF25
:1035C700EA5EFEE95DFDE85CFC90BA721215C990EF
:1035D700BA72E0F8A3E0F9A3E0FAA3E0FBC000C0E9
:1035E70001E47F01FEFDFC90BA71E075F009A424A7
:1035F7008EF582E5F034C0F583E0F9F81215711203
:103607001540D001D000EB5FFFEA5EFEE95DFDE803
:103617005CFC90BA721215C9E4FFFEFDFC90BA7209
:10362700E0F8A3E0F9A3E0FAA3E0FBC312154D60AD
:103637005690BA71E0FF7E00905065E493FC7401E8
:1036470093FD1212D6AA06AB0790BA847402F0A3B0
:103657007420F090BA72E0FCA3E0FDA3E0FEA3E0C3
:10366700FF90BA861215C990BA8A74FFF0A3742C1A
:10367700F0A37453F07D017F007E95022AB190BAC2
:0736870076E004F002354C6F
:01368E002219
:052C530090BA77EFF0DC
:102C5800E4A3F090BA78E0FBC394084003022DD5B2
:102C6800E47F01FEFDFC90BA77E075F009A4248E9C
:102C7800F582E5F034C0F583E0F9F8121571EB251B
:102C8800E025E02473F582E43450F5831215ADEBAA
:102C98005FFFEA5EFEE95DFDE85CFC4D4E4F7003A8
:102CA800022DCC782A1215A090BA78E025E025E00C
:102CB8002473F582E43450F583121590121540EB15
:102CC8005FFFEA5EFEE95DFDE85CFC782A1215BD4F
:102CD80090BA77E075F009A4248EF582E5F034C047
:102CE800F583E014600E14601324027015E490C09C
:102CF8008DF0800E90C08D7401F0800690C08D74A8
:102D080002F0782A1215A0C000C001E47F01FEFD80
:102D1800FC90BA77E075F009A4248EF582E5F034CA
:102D2800C0F583E0F9F8121571D001D000EB4FFF20
:102D3800EA4EFEE94DFDE84CFC782A1215BD90C01C
:102D48008DE025E025E02467F582E43450F5831210
:102D5800159090BA791215C990BA79E0FCA3E0FDF4
:102D6800A3E0FEA3E0FF782A1215A0EF5BFFEE5A5E
:102D7800FEED59FDEC58FC90BA791215C9905065D2
:102D8800E493FE740193FFC374209F90BA85F07496
:102D9800039E90BA84F090BA79E0FCA3E0FDA3E02A
:102DA800FEA3E0FF90BA861215C990BA8A74FFF0A4
:102DB800A37435F0A37442F0E4FBFAFDFF7E901291
:0D2DC8002AB1800990BA78E004F0022C5B7B
:102DD500E490BA7DF0A3F07B017ABA797D90BD5F6E
:0B2DE500F0A304F07F007E95022F8B0E
:104F0F00E490C08DF090506593FE740193FFC374CD
:104F1F00209F90BA85F074039E90BA84F0782A127D
:104F2F00158490BA861215C990BA8A74FFF0A374CB
:104F3F0035F0A37442F0E4FBFAFDFF7E90022AB134
:104FFC009DFFE090BC169CC313FEEF13FFED2FFF3B
:0E500C00EC3ECF24D0CF34FFFEE0FCA3E0FD4D
:10501A0090BC3AEEF0A3EFF0AF05A3ECF0A3EFF0EB
:06502A007B017ABC793A1B
:01503000225D
:10328A0090BC3AEEF0A3EFF0A3EBF0A3EAF0A3E9C7
:01329A00F043
:10329B0090BC42E4F0A37404F090BC3FE0FF90BC00
:1032AB0044E4F0A3EFF090BC417402F0E490BC4016
:1032BB00F090BC3FE0FFA3E0C39F40030233B49008
:1032CB00BC3CE0FBA3E0FAA3E0F990BC40E0FF7547
:1032DB00F00AA4F58285F083121394FDACF090BC38
:1032EB0041E075F002A42442F582E5F034BCF5838D
:1032FB00ECF0A3EDF090BC41E004F0EF75F00AA404
:10330B00FFE92FF9EA35F0FA900002121394FFAEA1
:10331B00F090BC41E075F002A42442F582E5F03454
:10332B00BCF583EEF0A3EFF090BC41E004F090000D
:10333B0004121394FFAEF090BC41E075F002A4248C
:10334B0042F582E5F034BCF583EEF0A3EFF090BCD0
:10335B0041E004F0900006121394FFAEF090BC41D4
:10336B00E075F002A42442F582E5F034BCF583EE5F
:10337B00F0A3EFF090BC41E004F09000081213941E
:10338B00FFAEF090BC41E075F002A42442F582E55B
:10339B00F034BCF583EEF0A3EFF090BC41E004F009
:1033AB0090BC40E004F00232BC90BC41E0FD75F0F3
:1033BB0002A42442F582E5F034BCF58374FFF0A33C
:1033CB00E4F090BC3AE0FEA3E0FF7B017ABC7942CB
:0B33DB0090BD5FE4F0A3EDF0022F8B2B
:1033E60090BC3AEEF0A3EFF0A3EBF0A3EAF0A3E96A
:0133F600F0E6
:1033F70090BC42E4F0A3740AF090BC3FE0FF90BC9D
:1034070044E4F0A3EFF090BC417402F0E490BC40B8
:10341700F090BC3FE0FFA3E0FEC39F4003023513DB
:10342700EE75F00AA4FF90BC3CE0FBA3E0FAA3E032
:103437002FF9EA35F0FA900008121394FF90BC4177
:10344700E025E02442F582E434BCF583E5F0F0A3FF
:10345700EFF090BC41E004F090BC3CE0FBA3E0FA45
:10346700A3E0F990BC40E0FF75F00AA4F58285F06F
:1034770083121394FD90BC41E025E02442F582E4D9
:1034870034BCF583E5F0F0A3EDF090BC41E004F027
:10349700EF75F00AA4FFE92FF9EA35F0FA90000278
:1034A700121394FF90BC41E025E02442F582E434F6
:1034B700BCF583E5F0F0A3EFF090BC41E004F09099
:1034C7000004121394FF90BC41E025E02442F582EA
:1034D700E434BCF583E5F0F0A3EFF090BC41E004E1
:1034E700F0900006121394FF90BC41E025E02442BF
:1034F700F582E434BCF583E5F0F0A3EFF090BC412E
:10350700E004F090BC40E004F002341890BC41E0C5
:10351700FD25E02442F582E434BCF58374FFF0A373
:10352700E4F090BC3AE0FEA3E0FF7B017ABC79426D
:0B35370090BD5FE4F0A3EDF0022F8BCD
:10010300E490BA71F0A3F0A304F0A374F4F0A37421
:100113000BF0A37496F0A37478F0A374F8F0A3E43F
:10012300F07D267C027F28FE12501A78FC7CBB7D72
:10013300017F0412125890BA76E0FF90BBFDE02FC6
:10014300FF90BBFCE03400FE90BBFE12501578001C
:100153007CBC7D017E007F0412125890BC00E0FE3F
:10016300A3E0FF90BA77E0FDC390BC03E09DFD9050
:10017300BC02E09400FC12501A78047CBC7D017E22
:10018300007F0412125890BA76E0FF90BC05E02F6E
:10019300FF90BC04E03400FE90BC061250157808B2
:1001A3007CBC7D017E007F0412125890BA76E0FF7A
:1001B30090BC09E02FFF90BC08E03400FE90BA77B2
:1001C300E0FDC390BC0BE09DFD90BC0AE09400FCF5
:1001D30012501A780C7CBC7D017E007F04121258E9
:1001E30090BA76E0FF90BC0DE02FFF90BC0CE0349A
:1001F30000FE90BC0E12501578107CBC7D017E0071
:100203007F0412125890BC10E0FEA3E0FF90BA776F
:10021300E0FD90BC13E02DFD90BC12E03400FC1215
:10022300501A78147CBC7D017E007F041212589012
:10023300BA76E0FF90BC15E02FFF90BC14E03400C9
:10024300FE90BC1612501578187CBC7D017E007F91
:100253000412125890BC18E0FEA3E0FF90BA77E0B6
:10026300FDC390BC1BE09DFD90BC1AE09400FC1202
:10027300501A781C7CBC7D017E007F0412125890BA
:10028300BA76E0FF90BC1DE02FFF90BC1CE0340069
:10029300FE90BA77E0FD90BC1FE02DFD90BC1EE000
:1002A3003400FC12501A78207CBC7D017E007F0450
:1002B30012125890BA76E0FF90BC21E02FFF90BC59
:1002C30020E03400FE90BC2212501578247CBC7DC3
:1002D300017E007F0412125890BC24E0FEA3E0FFCD
:1002E30090BA77E0FD90BC27E02DFD90BC26E0346A
:1002F30000FC12501A78287CBC7D017E007F04121A
:10030300125890BA76E0FF90BC29E02FFF90BC28EA
:10031300E03400FE90BC2A125015782C7CBC7D0181
:100323007E007F0412125890BBE27430F0A3E4F015
:1003330090BBE87407F0A374FFF0E4A3F0A3742068
:10034300F0A37402F0A314F0E4A3F0A3F0A37402E7
:10035300F0A3746DF0A37473F0E4A3F090BBFCE01E
:10036300FCA3E0FDC390BC01E09DFF90BC00E090C6
:10037300BC0212500278E47CBB7D017E007F041234
:1003830012587B017ABB79E290BD5FE4F0A3740D50
:10039300F07F007E10122F8B90BC04E0FCA3E0FDE5
:1003A300C390BC09E09DFF90BC08E09CC313FEEF23
:1003B30013FFED2FFFEC3ECF24D0CF34FFFE90BCD4
:1003C3000BE024BAFD90BC0AE034FFFC12501A780B
:1003D300E47CBB7D017E007F041212587B017ABB53
:1003E30079E290BD5FE4F0A3740DF07F307E1012CC
:1003F3002F8B90BC04E0FCA3E0FDC390BC09E09DFF
:10040300FF90BC08E09CC313FEEF13FFED2FFFEC3E
:100413003ECF24D0CF34FFFE90BC0A12501578E4AF
:100423007CBB7D017E007F041212587B017ABB796D
:10043300E290BD5FE4F0A3740DF07F607E10122F95
:100443008B90BC08E0FCA3E0FDC390BC0DE09DFFD6
:1004530090BC0CE09CC313FEEF13FFED2FFFEC3EAB
:10046300CF24D0CF34FFFE90BC0A12501578E47C21
:10047300BB7D017E007F041212587B017ABB79E2B7
:1004830090BD5FE4F0A3740DF07F907E10122F8B6C
:1004930090BBF0E0FF90BBEDE02FFFE433FE90BB99
:1004A300EBE0FD7C001212D6EEC313FCEF13FD90BC
:1004B300BC0CE0FEA3E0FFC390BC11E09FFF90BC27
:1004C30010E09EC313FEEF13FF90BC0DE02FFF90CF
:1004D300BC0CE03ECFC39DCF9CFE90BC13E024BA7E
:1004E300FD90BC12E034FFFC12501A78E47CBB7D13
:1004F300017E007F041212587B017ABB79E290BD22
:100503005FE4F0A3740DF07F207E11122F8B90BC5B
:1005130010E0FCA3E0FDC390BC15E090BC14124FA7
:10052300FC78E47CBB7D017E007F041212587B01C2
:100533007ABB79E290BD5FE4F0A3740DF07F507E47
:1005430011122F8B90BC14E0FCA3E0FDC390BC19E7
:10055300E09DFF90BC18E09CC313FEEF13FFED2F4B
:10056300FFEC3ECF24D0CF34FFFE90BC17E024BA7B
:10057300FD90BC16E034FFFC12501A78E47CBB7D7E
:10058300017E007F041212587B017ABB79E290BD91
:100593005FE4F0A3740DF07F807E11122F8B90BC6B
:1005A30014E0FCA3E0FDC390BC19E090BC18124F0B
:1005B300FC78E47CBB7D017E007F041212587B0132
:1005C3007ABB79E290BD5FE4F0A3740DF07F107EF7
:1005D30012122F8B90BC1CE0FCA3E0FDC390BC2146
:1005E300E09DFF90BC20E09CC313FEEF13FFED2FB3
:1005F300FFEC3ECF24D0CF34FFFE90BC2212501527
:1006030078E47CBB7D017E007F041212587B017A63
:10061300BB79E290BD5FE4F0A3740DF07F407E12DE
:03062300122F8B08
:1006260090BA75E0C313FF90BC31F0C390BBFDE0F8
:100636009FFF90BBFCE09400FE90BC31E0FDC390B0
:10064600BBFFE09DFD90BBFEE09400FC12501A78C3
:100656007A7CBA7D017E007F0412125890BC31E08C
:10066600FF90BC01E02FFF90BC00E03400FE90BC80
:1006760031E0FD90BC03E02DFD90BC02E03400FCAF
:1006860012501A787E7CBA7D017E007F04121258C1
:1006960090BC31E0FFC390BC05E09FFF90BC04E036
:1006A6009400FE90BC31E0FDC390BC07E09DFD9038
:1006B600BC06E09400FC12501A78847CBA7D017E58
:1006C600007F0412125890BC31E0FF90BC01E02F6D
:1006D600FF90BC00E03400FE90BC31E0FD90BC030E
:1006E600E02DFD90BC02E03400FC12501A78887CA4
:1006F600BA7D017E007F0412125890BC31E0FFC320
:1007060090BC05E09FFF90BC04E09400FE90BC31D5
:10071600E0FDC390BC07E09DFD90BC06E09400FCA4
:1007260012501A788E7CBA7D017E007F0412125810
:1007360090BC31E0FF90BC09E02FFF90BC08E0348C
:1007460000FE90BC31E0FD90BC0BE02DFD90BC0A94
:10075600E03400FC12501A78927CBA7D017E007F4C
:100766000412125890BC31E0FFC390BC0DE09FFF0D
:1007760090BC0CE09400FE90BC31E0FDC390BC0F31
:10078600E09DFD90BC0EE09400FC12501A78987C17
:10079600BA7D017E007F0412125890BC31E0FF90B2
:1007A600BC11E02FFF90BC10E03400FE90BC31E09D
:1007B600FD90BC13E02DFD90BC12E03400FC1250FD
:0E07C6001A789C7CBA7D017E007F04121258C6
:1007D40090BA92E0FEA3E0FF90BA75E0FDC390BA30
:1007E40095E09DFD90BA94E09400CD2401CD3400B1
:1007F400FC12501A78327CBC7D017E007F041212F8
:100804005878367CBC7D017B017ABA79987E007F6A
:1008140004121258E490BC30F090BC30E0FFC39452
:100824000B507CEF75F00AA424DEF974BA35F0A8F5
:1008340001FC7D017B017ABC79327E007F041212B7
:100844005890BC30E075F00AA424E2F974BA35F08B
:10085400A801FC7D017B017ABC79367E007F0412FD
:10086400125890BC30E075F00AA424E6F582E43412
:10087400BAF5837407F0A374FFF090BC35E004F07C
:10088400700690BC34E004F090BC39E004F07006CB
:0F08940090BC38E004F090BC30E004F002081D86
:1008A30090BC31E0FDFFC390BC11E09FFF90BC10F2
:1008B300E09400FEC390BC13E09DFD90BC12E09455
:1008C30000FC12501A78A27CBA7D017E007F0412CC
:1008D300125890BC31E0FDFF90BC15E02FFF90BC97
:1008E30014E03400FE90BC17E02DFD90BC16E034FC
:1008F30000FC12501A78A67CBA7D017E007F041298
:10090300125890BC31E0FDFFC390BC15E09FFF90EF
:10091300BC14E09400FEC390BC17E09DFD90BC1690
:10092300E09400FC12501A78AC7CBA7D017E007F03
:100933000412125890BC31E0FDFF90BC19E02FFF68
:1009430090BC18E03400FE90BC1BE02DFD90BC1A57
:10095300E03400FC12501A78B07CBA7D017E007F2F
:100963000412125890BC31E0FDFFC390BC1DE09F00
:10097300FF90BC1CE09400FEC390BC1FE09DFD9063
:10098300BC1EE09400FC12501A78B67CBA7D017E3E
:10099300007F0412125890BC31E0FDFF90BC19E0B7
:1009A3002FFF90BC18E03400FE90BC1BE02DFD909F
:1009B300BC1AE03400FC12501A78BA7CBA7D017E6E
:1009C300007F0412125890BC31E0FDFFC390BC219C
:1009D300E09FFF90BC20E09400FEC390BC23E09D09
:1009E300FD90BC22E09400FC12501A78C07CBA7DC2
:1009F300017E007F0412125890BC31E0FDFF90BCD1
:100A030025E02FFF90BC24E03400FE90BC27E02DAE
:100A1300FD90BC26E03400FC12501A78C47CBA7DE9
:080A2300017E007F041212584D
:100A2B0090BABAE0FEA3E0FF90BAB8125015783234
:100A3B007CBC7D017E007F0412125878367CBC7D15
:100A4B00017B017ABA79C07E007F0412125890BCE8
:100A5B0030740BF090BC30E0FFC39416507CEF75F4
:100A6B00F00AA424DEF974BA35F0A801FC7D017BF1
:100A7B00017ABC79327E007F0412125890BC30E0B0
:100A8B0075F00AA424E2F974BA35F0A801FC7D01D3
:100A9B007B017ABC79367E007F0412125890BC30F1
:100AAB00E075F00AA424E6F582E434BAF583740702
:100ABB00F0A374FFF090BC35E004F0700690BC34EA
:100ACB00E004F090BC39E004F0700690BC38E00410
:0A0ADB00F090BC30E004F0020A5F66
:100AE50090BC31E0FDFFC390BC25E09FFF90BC2486
:100AF500E09400FEC390BC27E09DFD90BC26E094E9
:100B050000FC12501A78CA7CBA7D017E007F04125F
:100B1500125890BC31E0FDFF90BC29E02FFF90BC3E
:100B250028E03400FE90BC2BE02DFD90BC2AE0347B
:100B350000FC12501A78CE7CBA7D017E007F04122B
:100B4500125890BC31E0FDFFC390BC29E09FFF9097
:100B5500BC28E09400FEC390BC2BE09DFD90BC2A10
:100B6500E09400FC12501A78D47CBA7D017E007F97
:100B75000412125890BC31E0FDFF90BC2DE02FFF10
:100B850090BC2CE03400FE90BC2FE02DFD90BC2ED7
:100B9500E03400FC12501A78D87CBA7D017E007FC3
:100BA50004121258E490BC30F090BC30E0FFC394BE
:100BB5000A501BEF75F00AA42482F582E434BAF5D5
:100BC5008374FFF0A3F090BC30E004F080DB90BAB2
:0D0BD50078E0FFA3E090BAA0CFF0A3EFF00E
:100BE2007B017ABA797A90BC3F740AF07F007E70FA
:100BF20012328A7B017ABA79DE90BC3F7416F07F9A
:060C0200007E750233E6DE
:01536F00221B
:03000000024701B3
:0C470100787FE4F6D8FD75812D02474852
:10470D00022DF0E493A3F8E493A34003F68001F2A5
:10471D0008DFF48029E493A3F85407240CC8C333AD
:10472D00C4540F4420C8834004F456800146F6DF7C
:10473D00E4800B01020408102040809051D6E47EE5
:10474D00019360BCA3FF543F30E509541FFEE49371
:10475D00A360010ECF54C025E060A840B8E493A338
:10476D00FAE493A3F8E493A3C8C582C8CAC583CA63
:10477D00F0A3C8C582C8CAC583CADFE9DEE780BE1B
:0151F30000BB
:10118800E709F608DFFA8046E709F208DFFA803E49
:1011980088828C83E709F0A3DFFA8032E309F60836
:1011A800DFFA8078E309F208DFFA807088828C839E
:1011B800E309F0A3DFFA806489828A83E0A3F60852
:1011C800DFFA805889828A83E0A3F208DFFA804C2C
:1011D80080D280FA80C680D4806980F28033801003
:1011E80080A680EA809A80A880DA80E280CA80336C
:1011F80089828A83ECFAE493A3C8C582C8CCC583E4
:10120800CCF0A3C8C582C8CCC583CCDFE9DEE780B3
:101218000D89828A83E493A3F608DFF9ECFAA9F032
:10122800EDFB2289828A83ECFAE0A3C8C582C8CC88
:10123800C583CCF0A3C8C582C8CCC583CCDFEADEA1
:10124800E880DB89828A83E493A3F208DFF980CC03
:1012580088F0EF60010E4E60C388F0ED2402B404FC
:101268000050B9F582EB2402B4040050AF232345A3
:0612780082239011D873DF
:10127E00BB010689828A83E0225002E722BBFE026E
:09128E00E32289828A83E49322A1
:10129700BB010CE58229F582E5833AF583E022500C
:1012A70006E92582F8E622BBFE06E92582F8E22256
:0D12B700E58229F582E5833AF583E4932270
:1012C400BB010689828A83F0225002F722BBFE0109
:0212D400F32203
:1012D600EF8DF0A4A8F0CF8CF0A428CE8DF0A42E2C
:0212E600FE22E6
:1012E800BC000BBE0029EF8DF084FFADF022E4CCEA
:1012F800F875F008EF2FFFEE33FEEC33FCEE9DECB3
:10130800984005FCEE9DFE0FD5F0E9E4CEFD22EDF8
:10131800F8F5F0EE8420D21CFEADF075F008EF2F42
:10132800FFED33FD4007985006D5F0F222C398FD33
:051338000FD5F0EA22D0
:10133D00C5F0F8A3E028F0C5F0F8E582158270023B
:06134D001583E038F022D8
:10135300A3F8E0C5F025F0F0E5821582700215834D
:06136300E0C838F0E822AA
:10136900BB010A89828A83E0F5F0A3E0225006874F
:10137900F009E71922BBFE07E3F5F009E319228911
:0B138900828A83E493F5F07401932244
:10139400BB0110E58229F582E5833AF583E0F5F097
:1013A400A3E0225009E92582F886F008E622BBFE74
:1013B4000AE92582F8E2F5F008E222E5832AF583BA
:0813C400E993F5F0A3E993227F
:1013CC00BB010789828A8302133D500B09C5F027A4
:1013DC00F7C5F01937F722BBFE0D09F8E325F0F33A
:1013EC00C5F019E338F322F889828A8374019325B6
:0813FC00F0C5F0F8E49338227B
:10140400BB010A89828A83F0E5F0A3F0225006F733
:0F14140009A7F01922BBFE06F3E5F009F3192230
:10142300E88FF0A4CC8BF0A42CFCE98EF0A42CFC68
:101433008AF0EDA42CFCEA8EF0A4CDA8F08BF0A4E6
:101443002DCC3825F0FDE98FF0A42CCD35F0FCEB45
:101453008EF0A4FEA9F0EB8FF0A4CFC5F02ECD390A
:0F146300FEE43CFCEAA42DCE35F0FDE43CFC2277
:1014720075F008758200EF2FFFEE33FECD33CDCC31
:1014820033CCC58233C5829BED9AEC99E5829840B4
:101492000CF582EE9BFEED9AFDEC99FC0FD5F0D691
:1014A200E4CEFBE4CDFAE4CCF9A88222B800C1B9BB
:1014B2000059BA002DEC8BF084CFCECDFCE5F0CBF9
:1014C200F97818EF2FFFEE33FEED33FDEC33FCEB32
:1014D20033FB10D703994004EB99FB0FD8E5E4F9ED
:1014E200FA227818EF2FFFEE33FEED33FDEC33FCDA
:1014F200C933C910D7059BE99A4007EC9BFCE99ACE
:10150200F90FD8E0E4C9FAE4CCFB2275F010EF2F12
:10151200FFEE33FEED33FDCC33CCC833C810D70712
:101522009BEC9AE899400AED9BFDEC9AFCE899F84D
:0E1532000FD5F0DAE4CDFBE4CCFAE4C8F922E0
:0D154000CFF4CFCEF4CECDF4CDCCF4CC2240
:10154D00EB9FF5F0EA9E42F0E99D42F0E89C45F0F4
:01155D00226B
:10155E00E8600FECC313FCED13FDEE13FEEF13FF6B
:03156E00D8F1228F
:10157100E8600FEFC333FFEE33FEED33FDEC33FCD8
:03158100D8F1227C
:0C158400E6FC08E6FD08E6FE08E6FF2293
:10159000E493FC740193FD740293FE740393FF22A1
:0D15A000E6FB08E6F908E6FA08E6CBF822BB
:1015AD00E493F8740193F9740293FA740393FB2294
:0C15BD00ECF608EDF608EEF608EFF6225A
:0C15C900ECF0A3EDF0A3EEF0A3EFF02295
:1015D500A8828583F0D083D0821215EC1215EC1207
:1015E50015EC1215ECE473E493A3C583C5F0C5832C
:1015F500C8C582C8F0A3C583C5F0C583C8C582C860
:0116050022C2
:0C160600A42582F582E5F03583F58322EF
:10161200BB010789828A830216715005E9F8021616
:1016220068BBFE05E9F802169A89828A830216A32C
:10163200BB010DE58229F582E5833AF58302167135
:101642005007E92582F8021668BBFE07E92582F8F1
:1016520002169AE58229F582E5833AF5830216A3FA
:061662008A838982E47313
:101C1100E52224FCF582E434C3F583E00522229019
:101C2100C3F930070390C3FCE475F00112167A0280
:101C3100127E2000E97F2ED2008018EF540F2490ED
:101C4100D43440D4FF30040BEF24BFB41A00500346
:101C51002461FFE523600215230526E526700205B0
:101C61002530070E90C3F9E475F00112167AEF02E0
:101C710012C40251107403D2078003E4C207F52293
:101C810090C3F9121691E4F523F525F526E52360B5
:101C9100077F20121C5480F57524FFC201C200C2C7
:101CA10002C203C205C206C208121C20FF700D3019
:101CB10007057F00121C65AF26AE2522B4255FC241
:101CC100D5C204121C20FF24D0B40A00501A75F0AA
:101CD1000A782330D50508B6FF0106C6A426F620EA
:101CE100D5047002D20380D924CFB41A00EF500476
:101CF100C2E5D204021E66D20180C6D20080C0D2E3
:101D01000280BCD2D580BAD20580B47F20121C5487
:101D11002002077401B5230040F1121C11FF121CAF
:101D210054021C8ED208D2068095121C11FB121C83
:101D310011FA121C11F94A4B700679377A1F7BFF91
:101D410020022EE523602A7E008E82758300121206
:101D51009760060EEE652470F0C2D5EBC0E0EAC0D4
:101D6100E0E9C0E0EE121EADD0E0F9D0E0FAD0E03B
:101D7100FB12127EFF60AAEBC0E0EAC0E0E9C0E01E
:101D8100121C54D0E02401F9D0E03400FAD0E0FB79
:101D9100E5240460DCD524D980877BFF7A1E79A9EC
:101DA100D202809C791080027908C206C20880089C
:101DB100D2D5790A8004790AC2D5E524047002F5E6
:101DC10024E4FAFDFEFF121C11FC7B082001131212
:101DD1001C11FD7B1030000A121C11FE121C11FF98
:101DE1007B20EC3382D592D55013C3E43000069F9B
:101DF100FFE49EFEE42001039DFDE49CFCE4CBF89E
:101E0100C201EC700CCFCECDCCE824F8F870F38091
:101E110017C3EF33FFEE33FEED33FDEC33FCEB3351
:101E2100FB994002FB0FD8E9EB300105F8D0E0C483
:101E310048B201C0E00AEC4D4E4F78207B0070C2E1
:101E4100EAB5240040BCC0E0121EAFD0F0D0E020C3
:101E51000104C4C0E0C4B201C0F0121C3DD0F0D5F1
:101E6100F0EB021C8E1216AF1D2B531DA5581CFC46
:101E71004C1CF8421DA94F1DB1441DB1491D114310
:081E81001DB7551D9B461D9B7A
:101E8900451D9B471F57501D002D1D042E1D272B37
:101E99001D08231D25201F402A1CC04800001D1FA6
:101EA9003F3F3F00790AA2D5200314300509B91034
:101EB900020404B9080104A2D52006025001042035
:101EC90002689202B523005034C0E07F2030031924
:101ED9007F30A20272067205500F121F06C202C29B
:101EE90006C205C2087F30800F300503E9C0E01241
:101EF9001C54300503D0E0F9D0E0B523CC300517E8
:101F09007F30B9100C121C547F583004077F788039
:101F190003B90803121C543002057F2D021C547F9B
:101F2900202008F87F2B2006F322920280CF286E0A
:101F3900756C6C2900D201121C113001F8C20178AC
:101F49002330D50108F6021CC02D50434958121CF4
:101F5900112403B405004001E4901F5293121C455B
:0D1F6900743A121C45D203752304021DA515
:10528D00E4FFFE12127E600C0FEF70010E09E97043
:05529D00F20A80EF227F
:09166800E6FB08E6FA08E6F922A7
:09167100E0FBA3E0FAA3E0F9227A
:10167A00F8E0FBA3A3E0F925F0F0E58215827002F9
:07168A001583E0FA38F0229D
:09169100EBF0A3EAF0A3E9F0225A
:09169A00E2FB08E2FA08E2F92281
:0C16A300E493FB740193FA740293F922A3
:1016AF00D083D082F8E4937012740193700DA3A3CA
:1016BF0093F8740193F5828883E4737402936860DE
:0616CF00EFA3A3A380DFDE
:10511000EFB40A07740D12511B740A309811A89944
:10512000B8130CC2983098FDA899C298B811F630FF
:0751300099FDC299F59922D7
:00000001FF
