:0B00F800FFFF4457494E5435024218E8
:0E235A007B0190BD88E4F0A304F07F147E00A8
:1023680090BD83EEF0A3EFF0A3EBF0A3EAF0A3E9AE
:01237800F074
:10237900E490BD8AF0A3F0A3F0A3F0A3F0A3F0A327
:10238900F0A3F090BD88E0FAA3E0FB4A70030225B0
:102399002790BD83E0FEA3E0FFC3E49FFFE49EFE18
:1023A900E4FCFD90BD921211F3AF03AE02E4FCFD13
:1023B90090BD92E0F8A3E0F9A3E0FAA3E0FBC31211
:1023C9001177501190BD92A3A3E0FFA3E090BD88BF
:1023D900CFF0A3EFF090BD83E0FCA3E0FDECC313C5
:1023E900FFED1390BD8ACFF0A3EFF0ED5401FFA3E9
:1023F900E4F0A3EFF0C2AFE4F5F190BD8AE0FCA3ED
:10240900E0FDECF5F28DF375F40175F8AF30FCFDE4
:1024190090BD8CE07002A3E0603DD2FE20FEFD90ED
:10242900BD85E0FBA3E475F001120F7DA9F0FAE583
:10243900FC120EEE90BD85E0FBA3E475F001120FCE
:102449007DA9F0FAE5FD120EEE90BD89E024FFF0BA
:1024590090BD88E034FFF090BD88E0FCA3E0FDEC7E
:10246900C313FFED1390BD8ECFF0A3EFF0ED540130
:10247900FFA3E4F0A3EFF090BD8E74FFF5F0120F07
:102489007D45F0605BD2FE20FEFD90BD85E0FBA39B
:10249900E475F001120F7DA9F0FAE5FA120EEE903B
:1024A900BD85E0FBA3E475F001120F7DA9F0FAE503
:1024B900FB120EEE90BD85E0FBA3E475F001120F4F
:1024C9007DA9F0FAE5FC120EEE90BD85E0FBA3E4D0
:1024D90075F001120F7DA9F0FAE5FD120EEE809755
:1024E90090BD90E07002A3E0602FD2FE20FEFD9027
:1024F900BD85E0FBA3E475F001120F7DA9F0FAE5B3
:10250900FA120EEE90BD85E0FBA3E475F001120FFF
:0E2519007DA9F0FAE5FB120EEEE4F5F8D2AF64
:012527002291
:102A1A0090C01AEEF0A3EFF0A3EBF0A3EAF0A3E95B
:012A2A00F0BB
:102A2B00E490C021F0A3F0A3F0A3F0A3F0A3F090E7
:102A3B00C01FE07002A3E07003022BAC90C01AE041
:102A4B00FEA3E0FFC3E49FFFE49EFED390C020E013
:102A5B009F90C01FE09E4005EEF0A3EFF090C01AD0
:102A6B00E0FAA3E0FBEAC313FCEB13FDEB5401FF0D
:102A7B0090C021E4F0A3EFF0C2AFE4F5F1ECF5F276
:102A8B00AF058FF375F40175F88330FCFD90C02111
:102A9B00E07002A3E0603D90C01CE0FBA3E475F086
:102AAB0001120F7DA9F0FA120EA8F5FC90C01CE0E4
:102ABB00FBA3E475F001120F7DA9F0FA120EA8F535
:102ACB00FDD2FE20FEFD90C020E024FFF090C01F41
:102ADB00E034FFF090C01FE0FCA3E0FDECC313FF5C
:102AEB00ED1390C023CFF0A3EFF0ED5401FFA3E45F
:102AFB00F0A3EFF075F88F90C02374FFF5F0120F71
:102B0B007D45F0605B90C01CE0FBA3E475F0011207
:102B1B000F7DA9F0FA120EA8F5FA90C01CE0FBA3EA
:102B2B00E475F001120F7DA9F0FA120EA8F5FB90D7
:102B3B00C01CE0FBA3E475F001120F7DA9F0FA12A3
:102B4B000EA8F5FC90C01CE0FBA3E475F001120F7E
:102B5B007DA9F0FA120EA8F5FDD2FE30FE9980FB8E
:102B6B0090C025E07002A3E0603275F88C90C01C19
:102B7B00E0FBA3E475F001120F7DA9F0FA120EA889
:102B8B00F5FA90C01CE0FBA3E475F001120F7DA9D0
:102B9B00F0FA120EA8F5FBD2FE20FEFDE4F5F8D2FA
:012BAB00AF7A
:012BAC002206
:104A9600C2AFC2D3C2D4E4F58E75C870F5CDF5CCDD
:104AA60075CBBC75CACDD2ADD2C8F59375940175D8
:104AB600950275C960F5F875F901F5A8F5B8F59A86
:074AC600F5A9F5B9024B93BD
:104B93007F007E80E4F51EF51F0FEFAC0670010E5B
:104BA30014F5828C83E4F0051FE51F7002051EB423
:074BB30000E7E51EB480E2FB
:014BBA0022D8
:104C2C0090C45A1211FF55AA5AA57B017AC4795A1D
:104C3C0090C01FE4F0A37402F07F047E00022A1AD5
:044CF9007FF47E01C5
:104CFD00EF4E6010E4FD0DEDC3941840F9EF1F70F9
:044D0D00EF1E80EC29
:014D1100227F
:1044BE0090C3FF745AF0A374A5F0A3EEF0A3EFF02F
:1044CE00A3EBF0A3EDF090C3FEE0600A90C405E408
:1044DE00F0A304F08007E490C405F0A3F07B017A0A
:1044EE00C379FF90C01FE4F0A37404F07FB07E0088
:1044FE00122A1A124CF97B017AC379FF90BD88E417
:10450E00F0A304F07FB07E0012236890C3FFE0702A
:01451E00E2BA
:01451F002279
:054A190090C446EFF01F
:104A1E007B017AC4794790BD88E4F0A37402F07FDD
:104A2E00A07E0012236890C446E0A3F0A37401F0A8
:104A3E00E490C44AF07B017AC4794790C01FF0A37A
:0A4A4E007402F07FA07E00022A1A15
:1035F20090C2D3E0FB90C428F090C2D4E0FCA3E0D8
:10360200FDA3E0FEA3E0FF781012118890C429EF19
:10361200F090C2D4E0FCA3E0FDA3E0FEA3E0FF78BB
:103622000812118890C42AEFF090C2D4A3A3A3E099
:1036320090C42BF090C2D8E0FCA3E0FDEC90C42C27
:10364200F0A3EDF090C2DAE0FCA3E0FDEC90C42E12
:10365200F0A3EDF0EBB4A52890C2DCE0FBA3E0FA06
:10366200A3E04A4B601A90C2D8E0FEA3E0FF90C2EA
:10367200DCA3A3E0F990C01FECF0A3EDF0122A1A2C
:103682007B017AC4792890C01FE4F0A37404F07F10
:10369200087E00122A1A124CF97B017AC47928900A
:1036A200BD88E4F0A304F07F087E0012236890C472
:1036B20028E070E290C2D3E0B45A2F90C2DCE0FB63
:1036C200A3E0FAA3E04A4B602190C2D8E0FEA3E057
:1036D200FF90C2DCA3A3E0F990C2DAE0FDA3E09080
:1036E200BD88CDF0A3EDF01223687F327E00024840
:0136F2007A5D
:1033BF0090C407745AF090C2C3E090C408F064013F
:1033CF00706790C2C4A3E090C409F090C2C6E0FC3D
:1033DF00A3E0FDA3E0FEA3E0FF781012118890C4D4
:1033EF000AEFF090C2C6E0FCA3E0FDA3E0FEA3E06D
:1033FF00FF780812118890C40BEFF090C2C6A3A3F8
:10340F00A3E090C40CF090C2CAE0FCA3E0FDEC90E6
:10341F00C40DF0A3EDF090C2CCE0FCA3E0FDEC9066
:10342F00C40FF0A3EDF0E4803B90C2C3E0640270E0
:10343F0037A3E0FCA3E0FDEC90C409F0A3EDF090FE
:10344F00C2CAE0FCA3E0FDEC90C40BF0A3EDF0903A
:10345F00C2D1E0FCA3E0FDEC90C40DF0A3EDF0E4CD
:10346F00A3F0A3F0A3F0A3F07B017AC4790790C077
:10347F001FE4F0A37406F07FAA7E00122A1A124CE2
:10348F00F97B017AC4790790BD88E4F0A304F07F3B
:10349F00AA7E0012236890C407E070E290C2C3E0D6
:1034AF00B4012F90C2CEE0FBA3E0FAA3E04A4B6039
:1034BF002190C2CAE0FEA3E0FF90C2CEA3A3E0F921
:1034CF0090C2CCE0FDA3E090BD88CDF0A3EDF0124B
:0934DF0023687F327E0002487A66
:0F4DBA007AC4796512235A90C465E0FEA3E0FF26
:014DC90022C7
:0843630090C440EEF0A3EFF05E
:10436B00A3745AF0A37401F090C440E0FCA3E0FDE9
:10437B00EC90C444F0A3EDF07B017AC4794290C079
:10438B001FE4F0A37402F07F847E00122A1A124CF1
:10439B00F97B017AC4794290BD88E4F0A3740212D0
:1043AB00236390C440E0FEA3E0FFA3E0B506DFA3C8
:1043BB00E0B507DAE490C442F0A3F0A3F0A3F07BDE
:1043CB00017AC4794290C01FF0A37402F07F167E6D
:0443DB0000022A1A98
:08487A0090BD83EEF0A3EFF006
:10488200E4A3F0A3F090BD83E0FEA3E0FFC390BDDC
:1048920086E09F90BD85E09E5025E4FBFA7F017E75
:1048A20000124CFD0BBB00010ABA01F1BB2CEE90C9
:0F48B200BD86E004F070CE90BD85E004F080C6B6
:0148C10022D4
:1048C200EF14601814602314602E240370397401ED
:1048D200A805088002C333D8FC42B7227401A80598
:1048E200088002C333D8FC42BC227401A8050880A8
:1048F20002C333D8FC42BD22AF057401A807088069
:0849020002C333D8FC42BE22BF
:1047E500EF1460191460251460312403703D7401C1
:1047F500A805088002C333D8FCF452B7227401A877
:1048050005088002C333D8FCF452BC227401A80504
:10481500088002C333D8FCF452BD22AF057401A849
:0C48250007088002C333D8FCF452BE2206
:103F8E00EF14602D14604A1460672403600302402E
:103F9E0020EB600E7401A805088002C333D8FC42E2
:103FAE0080227401A805088002C333D8FCF4528025
:103FBE0022EB600E7401A805088002C333D8FC42C0
:103FCE0090227401A805088002C333D8FCF45290E5
:103FDE0022EB600E7401A805088002C333D8FC42A0
:103FEE00A0227401A805088002C333D8FCF452A0A5
:103FFE0022EB600E7401A805088002C333D8FC4280
:10400E00B022AF057401A807088002C333D8FCF4B0
:03401E0052B0227B
:10469F00EF14601A146027146034240370427401FD
:1046AF00A805088002C333D8FC5580FE80347401FE
:1046BF00A805088002C333D8FC5590FE80247401EE
:1046CF00A805088002C333D8FC55A0FE8014AF059F
:1046DF007401A807088002C333D8FC55B0FE8002CE
:0446EF00E4FEAF0630
:0146F30022A4
:1037D1007B017AC4793090BD88E4F0A37404F07F52
:1037E100167E0012236890C430E0645A60030238E8
:1037F10096A3E0FFB40134A3E0FCA3E0FD90C2E492
:10380100ECF0A3EDF090C2EAECF0A3EDF090C4343B
:10381100E0FCA3E0FD90C2E8ECF0A3EDF090C30F53
:10382100ECF0A3EDF0A37401F08030EFB403269027
:10383100C2E2E0FFA3E090C30FCFF0A3EFF090C28C
:10384100E0E0FFA3E090C2EACFF0A3EFF090C31154
:103851007402F0800690C3117403F090C432E0FF4B
:10386100A3E090C2E0CFF0A3EFF090C434E0FFA357
:10387100E090C2E2CFF0A3EFF0E490C430F07B011E
:103881007AC4793090C01FF0A37402F07F167E00D5
:10389100122A1A801190C431E0FF64026003EF70B4
:0B38A10005E490C311F090C311E0FF9C
:0138AC0022F9
:0821710090C413EEF0A3EFF09F
:102179001237D190C415EFF0700690C2DFF0FF223C
:1021890090C415E0B4010F7AC279E612235A90C2BD
:10219900DF7401F0FF2290C2E6E0FEA3E0FF90C4E5
:1021A90013E06E7003A3E06F60037F012290C2E029
:1021B900E0FEA3E0FFC390C2E5E09FFF90C2E4E028
:1021C9009E90C312F0A3EFF090C312E0FCA3E0FDD0
:1021D900FFAE04120F00EE3395E0FDFC90C4161219
:1021E90011F390C2E2E0FEA3E0FFC390C2E9E09FD1
:1021F900FF90C2E8E09E90C314F0A3EFF090C314DF
:10220900E0FCA3E0FDFFAE04120F00EE3395E0FD04
:10221900FC90C41A1211F390C415E064027079900D
:10222900C2DFE06401706B7F09FEFDFC90C41AE017
:10223900F8A3E0F9A3E0FAA3E0FBC3121177501A5F
:10224900E47F09FEFDFC90C416E0F8A3E0F9A3E0E1
:10225900FAA3E0FBC31211774038E47F02FEFDFCCC
:1022690090C41AE0F8A3E0F9A3E0FAA3E0FB121086
:102279004D90C416E0F8A3E0F9A3E0FAA3E0FBD37C
:1022890012117790C2DF50057403F0FF227404F035
:10229900FF2290C2DFE0FF2290C2DFE06401706E8E
:1022A9007F09FEFDFC90C41AE0F8A3E0F9A3E0FA67
:1022B900A3E0FBC3121177501AE47F09FEFDFC90DD
:1022C900C416E0F8A3E0F9A3E0FAA3E0FBC31211F6
:1022D900774038E47F02FEFDFC90C41AE0F8A3E0E1
:1022E900F9A3E0FAA3E0FB12104D90C416E0F8A39D
:1022F900E0F9A3E0FAA3E0FBD312117790C2DF5013
:10230900057403F080087404F080037F022290C2F0
:10231900DFE0B4031E90C2E2E0FEA3E0FFC390C376
:1023290010E09FFF90C30FE09E90C318F0A3EFF059
:102339007F052290C2E0E0FEA3E0FFC390C2EBE07C
:102349009FFF90C2EAE09E90C316F0A3EFF07F06CC
:012359002261
:044D2B00021800006A
:104CA800758911E4F58CF58AC28CF51AF51C4389CF
:0C4CB80001758CBC758ACDD2A9D28C226B
:03000B000243DFCE
:0D43DF00C0E0C0D075D000C000C006C0070F
:1043EC00C2AF758CBC758ACD051B751D0074017E22
:1043FC0000A81D088005C333CE33CED8F9FFEF5586
:10440C001C602DE51D25E02408F808E6161870013F
:10441C0016E51D25E02408F8E6FE08E64E7011AFFF
:10442C001D04A807088002C333D8FC421AF4521C9E
:09443C00051DE51DB408B6D2AF60
:0B444500D007D006D000D0D0D0E0326D
:03002B00024D6E15
:104D6E00C0E0C2AFC2C6D2AF0519E5197002051870
:034D7E00D0E03250
:104C0A00C2AF7401A807088002C333D8FCFE421C55
:104C1A00EF25E02408F8A60408A605EEF4521AD2F5
:024C2A00AF22B7
:104D4400C2AF7401A807088002C333D8FCF4521C14
:054D5400521AD2AF224B
:104D8100C2AF7401A807088002C333D8FC551AFFCB
:024D9100D2AF9F
:014D930022FD
:0B4C8B00D2B37F05124C96D2B27F0519
:104C9600EF600EE4FE0EC3EE648094B240F71F8010
:014CA600EF1E
:014CA70022EA
:044E040053BEF72280
:044E080043BE08227B
:104CDF00124E08D2B3D2B27F0F124C96C2B37F0FCF
:0A4CEF00124C96C2B27F0F024C96E1
:0A4C4C007F0F124ADDAF03124ADDAC
:104C5600124E08C2B3D2B27F0F124C96D2B37F0F58
:064C6600124C96024E0400
:0F4DCA00124E08C2B3124C8DC2B27F05024C9636
:0D4DE800124E08124C8BC2B27F05024C9691
:104C6C00124E04124C8BE4FD30B30A7F05124C96A5
:0F4C7C000DEDB432F3C2B27F05124C96024E0812
:104ACD00124ADDE0FF124ADD124C56124CDF7F64B4
:024ADD00AD0723
:104ADF00124E08E4FCED30E704D2B38002C2B3ED0E
:104AEF0025E0FD124C8DC2B27F05124C960CECB432
:054AFF0008E3024C6C0D
:0D4B04007F0F124ADD124CDF7F65124ADD83
:104B1100124E04E4FC124C8DED25E0FD30B305444A
:104B210001FD8004ED54FEFDC2B27F05124C960CCE
:064B3100ECB408E1AF0541
:014B3700225B
:103A3C00124AD8124B04AB07124DCA124B11AA07EB
:103A4C00124DE8124C56EB20E003023AEA54846023
:103A5C000AEB547BFB124AD8124C4CEB54FEFBEA9B
:103A6C0030E713547FFA124AD87F10124ADDAF02A6
:103A7C00124ADD124C56EA4480FA124AD87F1012D0
:103A8C004ADDAF02124ADD124C56EB4484FB124A5B
:103A9C00D87F0F124ADDAF03124AD2E4FF124ADD7F
:103AAC00E4FF124ADDE4FF124ADD7F80124ADD7F1B
:103ABC0005124ADD7F01124ADD7F01124ADD7F21AA
:103ACC00124ADD124C56EB547BFBEA547FFA124A35
:0E3ADC00D87F10124ADDAF02124AD2124C4CB3
:013AEA0022B9
:103CF600124AD8124B0490C467EFF0124DCA124B09
:103D060011A3EFF0124DE8124C56E04480F0124A2F
:103D1600D87F10124ADDE0FF124ADD124C5690C4DD
:103D260067E04484F0124AD87F0F124ACDE4FF12AE
:103D36004ADD900006120EC1FF124ADD9000051200
:103D46000EC1FF124ADD900004120EC1FF124ADDB9
:103D5600900003120EC1FF124ADD900002120EC13E
:103D6600FF124ADD900001120EC1FF124ADD120E4B
:103D7600A8FF124ADD124C5690C467E0547BF0A3AC
:103D8600E0547FF0124AD87F10124ACD7F0F124AB4
:0C3D9600DD90C467E0FF124ADD024C56CD
:10397F00124AD8E4FF124ADD124CDF7F65124ADD8E
:10398F007B06124B11741E2BF582E434C4F583EFC2
:10399F00F0124DCADBEC124B1190C41EEFF0124D1A
:1039AF00E8124C5690C422E0547FF0E4FB741E2BB7
:1039BF00F582E434C4F583E0FFC4540FFE90C426AF
:1039CF00F0EF540FFFA3F0EE75F00AA42FFF741E53
:1039DF002BF582E434C4F583EFF00BEBB403CE7B0D
:1039EF0004741E2BF582E434C4F583E0FFC4540F36
:1039FF00FE90C426F0EF540FFFA3F0EE75F00AA46B
:103A0F002FFF741E2BF582E434C4F583EFF00BEB1C
:103A1F00B407CEE490C425F07B017AC4791E90C020
:0D3A2F001FF0A37404F07F107E00022A1A1D
:104D9400EF75F00A84C454F0FEEF75F00A84E5F070
:034DA4004EFF229D
:0F4DD900EFC4540F75F00AA4FEEF540F2EFF2203
:0740B20090C44BEBF0AB07DB
:1040B900ED64016004EDB4021BED240CFEE43390C1
:1040C900C44CF0A3CEF0EB24FFFEE434FFA3F0A32D
:1040D900CEF08012AF0590C44CE4F0A3EFF0AF032B
:1040E900A3E4F0A3EFF090C44DE02401FF90C44C89
:1040F900E03400FE7C007D1A120F007D0A120F12B7
:10410900AC06AD0790C44EE0FAA3E0FBAE0278021C
:10411900CEC313CE13D8F92BFFEA3ECF2DCF3CFEE9
:1041290090C44BE07C002FFFEC3ECF24DCCF34FF62
:08413900FE7D07120F12AF0515
:01414100225B
:103AEB007B017AC379DB90BD88E4F0A37404F07F8B
:103AFB009C7E0012236890C3DBE0645A6003023B98
:103B0B0099A3E064A56003023B99A3E0FF124D94D7
:103B1B0090C3E3EFF090C3DEE0FF124D9490C3E44B
:103B2B00EFF090C3DFE0FF124D9490C3E5EFF09000
:103B3B00C3DDE0FFA3E0FDA3E0FB1240B290C3E6C0
:103B4B00EFF090C3E0E0FF124D9490C3E7EFF04429
:103B5B0080F090C3E1E0FF124D9490C3E8EFF0903A
:103B6B00C3E2E0FF124D9490C3E9EFF07B017AC3FF
:103B7B0079E3123CF6E490C3DBF0A3F07AC379DB74
:0E3B8B0090C01FF0A304F07F9C7E00122A1A47
:013B99002209
:104D12007D027F031248C27D037F031248C212390B
:094D22007FE4F518F519023AEBE3
:10479700AB07AA06A905A8047F007E387D317C00F7
:1047A7001210D8C3E49F90BD89F074049E90BD8811
:1047B700F043C9407D04E4FF1248C27D05E4FF12BF
:1047C70047E543803075D88075985090BD88E0FCE8
:0D47D700A3E0FDECF5BA8DAA43A810D2AC0A
:0147E40022B2
:10483100AB07AA06A905A8047F007E707D627C00F3
:104841001210D8C3E49F90BD89F074049E90BD8876
:10485100F043C9207D06E4FF1248C27D07E4FF1240
:1048610047E54380C0759B9090BD88E0FCA3E0FDC7
:08487100ECF5BB8D9D439A019B
:01487900221C
:104BBB00759680759780AB07AA06A905A8047F0098
:104BCB007EC07D897C011210D8AD07AC06ECF5D9FF
:074BDB00AF058FE743B80CA2
:014BE20022B0
:1049980075A78075AB80AB07AA06A905A8047F0098
:1049A8007EC07D897C011210D8AD07AC06ECF5AE4F
:1049B800AF058FAF43B830E490A01BF0A3F0A3F08D
:1049C800A3F090A023F090A01FF0A3F0A3F0A3F011
:0149D80022BC
:1046F400EF14601B1460291460372403704490BDC8
:1047040084E0FCA3E0FDA3E0FEA3E0FF0247979052
:10471400BD84E0FCA3E0FDA3E0FEA3E0FF0248317A
:1047240090BD84E0FCA3E0FDA3E0FEA3E0FF024B08
:10473400BB90BD84E0FCA3E0FDA3E0FEA3E0FF1278
:034744004998226F
:1025280090C438EFF0A3ECF0A3EDF0A3EBF0A3EA2E
:04253800F0A3E9F033
:10253C00C2AFE4A3F0A3F090C439E0FEA3E0FFC364
:10254C0090C43FE09F90C43EE09E40030226009062
:10255C00C43BE0FBA3E475F001120F7DA9F0FA1265
:10256C000EA8FF90C438E0FE75F009A42400F58293
:10257C00E5F03488F583EE75F008A42583F583E047
:10258C00FCA3E0FD75F009EEA42400F582E5F0341F
:10259C0080F583EE75F008A42583F583E5822DF58F
:1025AC0082E5833CF583EFF075F009EEA42400F589
:1025BC0082E5F03488F583EE75F008A42583F58365
:1025CC00E475F001120F6775F009EEA42400F58292
:1025DC00E5F03488F583EE75F008A42583F583E0E7
:1025EC005403F090C43FE004F0700690C43EE00445
:1025FC00F002254390C438E01460421460701470EB
:10260C00030226A8240360030226D8908808E06001
:10261C00030226D804F0908802E0FEA3E02400F523
:10262C008274803EF583E0F599908803E004F070A5
:10263C0006908802E004F09088020226D490901153
:10264C00E060030226D804F090900BE0FEA3E02497
:10265C0009F58274883EF583E0F59C90900CE004BB
:10266C00F0700690900BE004F090900B805A9098CC
:10267C001AE0705804F0909814E0FEA3E02412F5D0
:10268C008274903EF583E0F59E909815E004F0700E
:10269C0006909814E004F0909814802C90A023E0FD
:1026AC00702A04F090A01DE0FEA3E0241BF58274B8
:1026BC00983EF583E0F5AC90A01EE004F070069017
:0E26CC00A01DE004F090A01DE05403F0D2AF7A
:0126DA0022DD
:0300230002414255
:10414200C0E0C083C082C0D075D000C006C007C224
:10415200AF30982AC298908804E0FEA3E02400F5CC
:104162008274843EF583E599F0908805E004F0704E
:1041720006908804E004F0908804E05403F030993B
:104182003FC299908802E0FEA3E0FF908800E06EB3
:104192007003A3E06F602474002FF58274803EF5F3
:1041A20083E0F599908803E004F07006908802E0BD
:1041B20004F0908802E05403F08005908808E4F04F
:0F41C200D2AFD007D006D0D0D082D083D0E03299
:0300530002452043
:10452000C0E0C083C082C0D075D000C006C007C242
:10453000AF5396FE909814E0FEA3E0FF909812E02F
:104540006E7003A3E06F602474122FF58274903EA6
:10455000F583E0F59E909815E004F07006909814AD
:10456000E004F0909814E05403F0800590981AE469
:10457000F0D2AFD007D006D0D0D082D083D0E032F6
:03005B0002490A4D
:10490A00C0E0C083C082C0D075D000C006C2AF5319
:10491A0097FE909816E0FEA3E02412F58274943E66
:10492A00F583E59FF0909817E004F07006909816CA
:10493A00E004F0909816E05403F0D2AFD006D0D03D
:07494A00D082D083D0E032DF
:03006300024580D3
:10458000C0E0C083C082C0D075D000C006C007C2E2
:10459000AF53A7FE90A01DE0FEA3E0FF90A01BE09C
:1045A0006E7003A3E06F6024741B2FF58274983E35
:1045B000F583E0F5AC90A01EE004F0700690A01D1D
:1045C000E004F090A01DE05403F0800590A023E4E7
:1045D000F0D2AFD007D006D0D0D082D083D0E03296
:03006B00024951F6
:10495100C0E0C083C082C0D075D000C006C2AF53D2
:10496100ABFE90A01FE0FEA3E0241BF582749C3EE9
:10497100F583E5ADF090A020E004F0700690A01F53
:10498100E004F090A01FE05403F0D2AFD006D0D0E5
:07499100D082D083D0E03298
:03008300023EF347
:103EF300C0E0C083C082C0D075D000C006C007C276
:103F0300AFE59B30E02E759B90539BFE90900DE0A8
:103F1300FEA3E02409F582748C3EF583E59CF090C2
:103F2300900EE004F0700690900DE004F090900D78
:103F3300E05403F0E59B30E143759B90539BFD9068
:103F4300900BE0FEA3E0FF909009E06E7003A3E006
:103F53006F602474092FF58274883EF583E0F59C25
:103F630090900CE004F0700690900BE004F09090B9
:103F73000BE05403F08005909011E4F0D2AFD0072A
:0B3F8300D006D0D0D082D083D0E03236
:1040210090C462EBF0A3EAF0A3E9F07D02E4FF1291
:1040310048C27D03E4FF1247E57B017D02E4FF12E4
:104041003F8E43C98075F1FFE4F5F275F36075F4B5
:104051000175F88F30FCFD90C462E0FBA3E0FAA388
:10406100E0F9120EA8F5FA900001120EC1F5FB90CD
:104071000002120EC1F5FC900003120EC1F5FDD233
:10408100FE20FEFDE4F5FAF5FBF5FCF5FDD2FE2080
:10409100FEFD75FAFF75FBFF75FCFF75FDFFD2FE96
:1040A10020FEFDE4F5F8758FA0E58F20E5FBD2B980
:0140B10022EC
:104CC400E5E830E51553E8DF438F407FE87E0312C3
:0B4CD4004CFD538FBFE490BA28F02283
:102D290075F1FFE4F5F275F36475F40175F88F3008
:102D3900FCFD90BA27E075F00DA42424F582E5F096
:102D490034ADF583E0F5FAE4F5FBF5FCF5FDD2FECB
:102D590020FEFD90BA27E0FB75F00DA42425F5822D
:102D6900E5F034ADF583E0FCA3E0FDA3E0FEA3E0CC
:102D7900FF78181211888FFA75F00DEBA42425F548
:102D890082E5F034ADF583E0FCA3E0FDA3E0FEA30A
:102D9900E0FF78101211888FFB90BA27E0FB75F0DD
:102DA9000DA42425F582E5F034ADF583E0FCA3E01C
:102DB900FDA3E0FEA3E0FF78081211888FFC75F0EF
:102DC9000DEBA42425F582E5F034ADF583A3A3A387
:102DD900E0F5FDD2FE20FEFD90BA27E0FF75F00D6B
:102DE900A42429F582E5F034ADF583E0F5FA75F010
:102DF9000DEFA4242AF582E5F034ADF583E0F5FB67
:102E090090BA27E0FF75F00DA4242BF582E5F03484
:102E1900ADF583E0F5FC75F00DEFA4242CF582E502
:102E2900F034ADF583E0F5FDD2FE20FEFD90BA2722
:102E3900E0FF75F00DA4242DF582E5F034ADF5839E
:102E4900E0F5FA75F00DEFA4242EF582E5F034AD26
:102E5900F583E0F5FB90BA27E0FF75F00DA4242F68
:102E6900F582E5F034ADF583E0F5FC75F00DEFA4DE
:102E79002430F582E5F034ADF583E0F5FDD2FE208E
:0C2E8900FEFD90BA27E004F0E4F5F8220A
:061EFA0090C3C41211F3B5
:101F0000D390C3CAE0940090C3C9E0940840030290
:101F1000217090C3C8E0FB90C3C430E70FE0FCA37E
:101F2000E0FDA3E0FEA3E0FF7803800DE0FCA3E06A
:101F3000FDA3E0FEA3E0FF781512119B90C3D3121E
:101F400011F390BA26E0FA75F00DA42424F582E589
:101F5000F034ADF583E030E63890C3D3E0FCA3E085
:101F6000FDA3E0FEA3E0FF75F00DEAA42425F582B1
:101F7000E5F034ADF5831211F3EB54C0FF75F00DAD
:101F8000EAA42424F582E5F034ADF583EFF00221D4
:101F90005490C3C9E0FCA3E0FDAE047803CEC313A4
:101FA000CE13D8F990C3D1F0ED5407A3F0E490C359
:101FB000D0F090C3C8E054C0FFE4FCFDFE90C3D74E
:101FC0001211F3E490C3CEF090C3D1E0FF90C3CEE2
:101FD000E0C39F400302207F90C3D3E0FCA3E0FD59
:101FE000A3E0FEA3E0FF90BA26E0FB75F00DA42469
:101FF00025F582E5F034ADF5831211F390C3D7E0F7
:10200000FCA3E0FDA3E0FEA3E04408FF75F00DEBA8
:10201000A42424F582E5F034ADF583EFF0E490C319
:10202000CFF090C3CFE0FFC39408504490C3CBE0FF
:10203000FBA3E0FAA3E0F990C3D0E0F5827583003A
:10204000120EC1FE90BA26E075F00DA42429F58287
:10205000E5F034ADF583E5822FF582E43583F58331
:10206000EEF090C3D0E004F090C3CFE004F080B273
:1020700090BA26E004F090C3CEE004F0021FC890AE
:10208000C3D2E0FB700302215AA3E0FCA3E0FDA34E
:10209000E0FEA3E0FF90BA26E075F00DA42425F53C
:1020A00082E5F034ADF5831211F3AF0390C3D7A3EB
:1020B000E0F9A3E0FAA3E04FFF90BA26E075F00D37
:1020C000A42424F582E5F034ADF583EFF0E490C369
:1020D000CFF090C3D2E0FF90C3CFE0FEC39F504447
:1020E00090C3CBE0FBA3E0FAA3E0F990C3D0E0F506
:1020F00082758300120EC1FF90BA26E075F00DA420
:102100002429F582E5F034ADF583E5822EF582E4ED
:102110003583F583EFF090C3D0E004F090C3CFE0B7
:1021200004F080AE90C3CFE0FFC39408502690BA6D
:1021300026E075F00DA42429F582E5F034ADF58391
:10214000E5822FF582E43583F583E4F090C3CFE098
:1021500004F080D090BA26E004F090BA28E0701025
:10216000C2AF122D29D2AF90BA287401F0438F0468
:01217000224C
:03004B00021BA0F5
:101BA000C0E0C0F0C083C082C0D075D000C000C00B
:0D1BB00001C002C003C004C005C006C0078C
:101BBD00C2AFE59130E70353913FE59120E6030273
:101BCD001EA05391BF75F1FF75F20075F36875F4A2
:101BDD000175F8AF30FCFDD2FE20FEFD90BD43E552
:101BED00FAF0E0FF90BA24E075F00DA42424F582FC
:101BFD00E5F034A0F583EFF0D2FE20FEFD90BA247F
:101C0D00E075F00DA42425F582E5F034A0F583C030
:101C1D0083C082E0FCA3E0FDA3E0FEA3E0FF780813
:101C2D0012119BD082D0831211F390BA24E075F07B
:101C3D000DA42425F582E5F034A0F583C083C08280
:101C4D00E0F8A3E0F9A3E0FAA3E0FBAFFAEB4FFF56
:101C5D00EAFEE9FDE8FCD082D0831211F390BA249C
:101C6D00E075F00DA42425F582E5F034A0F583C0D0
:101C7D0083C082E0FCA3E0FDA3E0FEA3E0FF7808B3
:101C8D0012119BD082D0831211F390BA24E075F01B
:101C9D000DA42425F582E5F034A0F583C083C08220
:101CAD00E0F8A3E0F9A3E0FAA3E0FBAFFBEB4FFFF5
:101CBD00EAFEE9FDE8FCD082D0831211F390BA243C
:101CCD00E075F00DA42425F582E5F034A0F583C070
:101CDD0083C082E0FCA3E0FDA3E0FEA3E0FF780853
:101CED0012119BD082D0831211F390BA24E075F0BB
:101CFD000DA42425F582E5F034A0F583C083C082C0
:101D0D00E0F8A3E0F9A3E0FAA3E0FBAFFCEB4FFF93
:101D1D00EAFEE9FDE8FCD082D0831211F390BA24DB
:101D2D00E075F00DA42425F582E5F034A0F583C00F
:101D3D0083C082E0FCA3E0FDA3E0FEA3E0FF7808F2
:101D4D0012119BD082D0831211F390BA24E075F05A
:101D5D000DA42425F582E5F034A0F583C083C0825F
:101D6D00E0F8A3E0F9A3E0FAA3E0FBAFFDEB4FFF32
:101D7D00EAFEE9FDE8FCD082D0831211F390BA247B
:101D8D00E075F00DA42425F582E5F034A0F583C0AF
:101D9D0083C082E0FCA3E0FDA3E0FEA3E0FF780397
:101DAD00121188D082D0831211F390BD43E020E749
:101DBD002D90BA24E075F00DA42425F582E5F034BC
:101DCD00A0F583C083C082E0FCA3E0FDA3E0FEA3E9
:101DDD00E0FF7812121188D082D0831211F390BDDA
:101DED0043E030E603021E97D2FE20FEFD90BA249A
:101DFD00E0FF75F00DA42429F582E5F034A0F583FC
:101E0D00E5FAF075F00DEFA4242AF582E5F034A083
:101E1D00F583E5FBF075F00DEFA4242BF582E5F0CD
:101E2D0034A0F583E5FCF075F00DEFA4242CF582BC
:101E3D00E5F034A0F583E5FDF0D2FE20FEFD90BA6D
:101E4D0024E0FF75F00DA4242DF582E5F034A0F506
:101E5D0083E5FAF075F00DEFA4242EF582E5F0344C
:101E6D00A0F583E5FBF075F00DEFA4242FF582E5C9
:101E7D00F034A0F583E5FCF075F00DEFA42430F5FA
:101E8D0082E5F034A0F583E5FDF075F80090BA24F5
:101E9D00E004F0E59130E51A5391DF90BA26E0FFAA
:101EAD00A3E06F6008122D29438F04800590BA2896
:101EBD00E4F0E59130E4035391EFE59130E3035302
:101ECD0091F7E59130E2065391FB438F0475E800DD
:021EDD00D2AF82
:101EDF00D007D006D005D004D003D002D001D00057
:0B1EEF00D0D0D082D083D0F0D0E03201
:054DFF002530325800D0
:084D2F0041C1540041C15500CF
:0A4DF50075F90175BCFD7590FD22F3
:1046400090C25AEEF0A3EFF0A3EBF0A3EAF0A3E9D7
:01465000F079
:10465100124D59EF04FDE4FFEFC39D502890C25C59
:10466100E0FBA3E0FAA3E0F98F82758300120EC18B
:10467100FBEF25E0245FF582E434C2F583E4F0A387
:10468100EBF00F80D390C25AE0FEA3E0FF7B017AEA
:0E469100C2795F90C01FE4F0A3EDF0022A1A78
:1045E00090C35BEEF0A3EFF0A3EBF0A3EAF0A3E936
:0145F000F0DA
:1045F100124D59EF04FFE4FEEEC39F502890C35DB6
:10460100E0FBA3E0FAA3E0F98E82758300120EC1EC
:10461100FDEE25E02460F582E434C3F583E4F0A3E4
:10462100EDF00E80D390C35BE0FEA3E0FF7B017A47
:0F463100C3796090C01FE4F0A3743CF0022A1A12
:102BAD00124A96124CA8D2AF124DF51236F390BDC3
:102BBD00841211FF0001C2007F031246F4E490C29B
:102BCD0059F090C257F090C157F090C156F012498C
:072BDD00D9120103124E148E
:102BE4007B017ABD794490BD88E4F0A37403F07F3F
:102BF400167E0012236890BD44E0B45AE3E4F07BEF
:102C0400017ABD794690C01FF0A304F07F167E00C0
:032C1400122A1A67
:102C170090BD45E0FF90BD4AE4F0A3EFF07B017A59
:102C2700BD794A90C01FE4F0A304F07F007E4012F4
:102C37002A1A7B017ABD794690C01FE4F0A374027B
:082C4700F07F007E52122A1AF0
:072C4F0090BD45E014708EFA
:102C5600E490BD4AF090C027E0FF90BD4AE0FEC375
:102C66009F4003022D0675F009EEA42435F582E592
:102C7600F034C0F583E0FEA3E0FF90BD46E0FCA380
:102C8600E0FDC39FEC9E406F90BD4AE0FF75F009E2
:102C9600A42439F582E5F034C0F583E0FAA3E0FB1D
:102CA600D3ED9BEC9A505075F009EFA42437F582CA
:102CB600E5F034C0F583E0FEA3E0FF90BD48E0FCFC
:102CC600A3E0FDC39FEC9E402EA3E0FF75F009A490
:102CD600243BF582E5F034C0F583E0FAA3E0FBD3AC
:102CE600ED9BEC9A501190C030A3E0FAA3E0F58278
:102CF6008A83121290800990BD4AE004F0022C5B90
:102D060090BD4AE0FFA3E4F0A3EFF07B017ABD7922
:102D16004B90C01FE4F0A304F07F007E25122A1A10
:032D2600022BE499
:034E1000FF4E133F
:014E1300227C
:10445000C2AFE4F5F1F5F275F30A75F40175F8AF42
:1044600030FCFDD2FE20FEFDAFFA90C469E4F0A35B
:10447000EFF0E07F00FE90C469F0A3EFF0ADFBED3C
:10448000FF90C469EEF0A3EFF0E4F5F8D2AF90C46A
:1044900069E0FEA3E0FF904E1075F003121230EEBB
:1044A00075F003A42583F583E493FB740193FA74F8
:0D44B0000293F94A600789828A83121290F4
:0144BD0022DC
:044E0C000F407200E1
:10425D00785E7CC47D017BFF7A4E790C7E007F04F5
:10426D00120E8290BD841211FF0001C200E4FF12F4
:10427D0046F47B017AC4795E12402190BA2974010B
:10428D00F0A37484F0A37400F0A37401F0A37488F8
:10429D00F0A37404F0A37401F0A37488F0A3740662
:1042AD00F0A37404F0A3E4F07B01A304F0A374BAAB
:1042BD00F0A3743FF0A3EBF0A374BBF0A3743FF035
:1042CD00A3EBF0A374BBF0A37441F0A37401F0A3AE
:0242DD00E4F00B
:0142DF0022BC
:1042E0007B017ABB794390BD88E4F0A37402F07F30
:1042F000007E0F12236890BB43E0645A7062F07B2B
:10430000017ABB794390C01FF0A37402F07F007E56
:104310000F122A1A90BB46E0FDC394C840027D6488
:1043200090BB44E0FEA3E0FBAA0690BB43745AF0A6
:10433000A374A5F0ED25E02404A3F0A37483F0EAB0
:10434000A3F0A3EBF0A3EDF0AE02AF037B017ABBC9
:10435000794A90BD88E4F0A3EDF01223687F012232
:024360007F00DC
:014362002238
:0B12FF0090C3EBEBF0A3EAF0A3E9F0D2
:10130A00C2AF90000312125C120F93FFAEF090C3AB
:10131A00F6EEF0A3EFF0D2AF90C3EBE0FBA3E0FA56
:10132A00A3E0F990000612125C120F93FDACF06F65
:10133A007002EC6E7003021838C390C3F7E09D90F8
:10134A00C3F6E09C90C3EBE0FBA3E0FAA3E0F950FC
:10135A0021900009120FBEFF90C3F7E02FFF90C340
:10136A00F6E035F0CFC39DCF9C90C3EEF0A3EFF02B
:10137A00801E90000612125C120F93FFC390C3F7EF
:10138A00E09FFE90C3F6E095F090C3EEF0A3CEF096
:10139A00C390C3EFE0940690C3EEE0940050037F3D
:1013AA00002290C3EBE0FBA3E0FAA3E0F990000669
:1013BA0012125C120F93FDACF090C3EBE0FBA3E0BA
:1013CA00FAA3E0F912123C8D828C83120EC1FF90AF
:1013DA00C3F4E4F0A3EFF0E0F8E4F0E890C3F4F02B
:1013EA00ED2401FFE43CFE90C3F8F0A3EFF090C3B4
:1013FA00EBE0FBA3E0FAA3E0F9900009120FBEFDAF
:10140A00C3EF9DEE95F04007E490C3F8F0A3F01205
:10141A00123C90C3F8E0FEA3E0F5828E83120EC15F
:10142A00FF90C3F4E0FEA3E04FFF90C3F4EEF0FE9A
:10143A00A3EFF064A57003EE645A60030217E39009
:10144A00C3EBE0FBA3E0FAA3E0F990000612125CFA
:10145A00120F932403FFE435F0FE90C3F8F0A3EFD4
:10146A00F090C3EBE0FBA3E0FAA3E0F990000912C5
:10147A000FBEFDC3EF9DEE95F04007E490C3F8F070
:10148A00A3F012123C90C3F8E0FEA3E0F5828E832B
:10149A00120EC16482600302161190C3EBE0FBA333
:1014AA00E0FAA3E0F990000612125C120F932402EC
:1014BA00FFE435F0FE90C3F8F0A3EFF090C3EBE041
:1014CA00FBA3E0FAA3E0F9900009120FBEFDC3EFF7
:1014DA009DEE95F04007E490C3F8F0A3F090C3EBBB
:1014EA00E0FBA3E0FAA3E0F912123C90C3F8E0FE95
:1014FA00A3E0F5828E83120EC12403FFE433FE902B
:10150A00C3F0F0A3EFF0C390C3EFE09F90C3EEE007
:10151A009E5003021838E490C3F2F0A3F090C3F08F
:10152A00E0FEA3E0FFA3E0FCA3E0FDC39FEC9E4026
:10153A00030215DD90C3EBE0FBA3E0FAA3E0F99008
:10154A00000612125C120F93FFAEF090C3EBE0FBA1
:10155A00A3E0FAA3E0F912123C8F828E83120EC125
:10156A00FF74432DF58274BB3CF583EFF090C3EB17
:10157A00E0FBA3E0FAA3E0F990000612125CE4751E
:10158A00F001120FF690C3EBE0FBA3E0FAA3E0F937
:10159A0090000612125C120F93FFAEF090C3EBE0BC
:1015AA00FBA3E0FAA3E0F9900009120FBEFDC3EF16
:1015BA009DEE95F0400C90000612125CE4F5F012D4
:1015CA00102E90C3F3E004F0700690C3F2E004F02A
:1015DA0002152790BB47E0FEA3E0FF7B017ABB79A7
:1015EA004990BB45E024FDC313FD90C01FE4F0A35E
:1015FA00EDF0122A1A90BB457403F090BB47744F62
:10160A00F0A3744B02179490C3EBE0FBA3E0FAA398
:10161A00E0F912123C90C3F8E0FEA3E0F5828E8353
:10162A00120EC16483600302179890C3EBE0FBA318
:10163A00E0FAA3E0F990000612125C120F9324025A
:10164A00FFE435F0FE90C3F8F0A3EFF090C3EBE0AF
:10165A00FBA3E0FAA3E0F9900009120FBEFDC3EF65
:10166A009DEE95F04007E490C3F8F0A3F090C3EB29
:10167A00E0FBA3E0FAA3E0F912123C90C3F8E0FE03
:10168A00A3E0F5828E83120EC12403FFE433FE9099
:10169A00C3F0F0A3EFF0C390C3EFE09F90C3EEE076
:1016AA009E5003021838E490C3F2F0A3F090C3F0FE
:1016BA00E0FEA3E0FFA3E0FCA3E0FDC39FEC9E4095
:1016CA000302176D90C3EBE0FBA3E0FAA3E0F990E5
:1016DA00000612125C120F93FFAEF090C3EBE0FB10
:1016EA00A3E0FAA3E0F912123C8F828E83120EC194
:1016FA00FF74432DF58274BB3CF583EFF090C3EB86
:10170A00E0FBA3E0FAA3E0F990000612125CE4758C
:10171A00F001120FF690C3EBE0FBA3E0FAA3E0F9A5
:10172A0090000612125C120F93FFAEF090C3EBE02A
:10173A00FBA3E0FAA3E0F9900009120FBEFDC3EF84
:10174A009DEE95F0400C90000612125CE4F5F01242
:10175A00102E90C3F3E004F0700690C3F2E004F098
:10176A000216B790BB47E0FEA3E0FF7B017ABB7984
:10177A004AA3E0FD90BD88E4F0A3EDF0122368903F
:10178A00BB49E025E0240490BB45F07F012290C3C9
:10179A00EBE0FBA3E0FAA3E0F990000612125CE486
:1017AA0075F001120FF690C3EBE0FBA3E0FAA3E099
:1017BA00F990000612125C120F93FFAEF090C3EB81
:1017CA00E0FBA3E0FAA3E0F9900009120FBEFDC303
:1017DA00EF9DEE95F04057804990C3EBE0FBA3E004
:1017EA00FAA3E0F990000612125CE475F001120FF8
:1017FA00F690C3EBE0FBA3E0FAA3E0F9900006122F
:10180A00125C120F93FFAEF090C3EBE0FBA3E0FA79
:10181A00A3E0F9900009120FBEFDC3EF9DEE95F00B
:10182A00400C90000612125CE4F5F012102E7F00B4
:01183A00228B
:1032830090BA25E0FF90BA24E06F700302331C75F7
:10329300F00DEFA42425F582E5F034A0F583E0FCDE
:1032A300A3E0FDA3E0FEA3E0FFE47B23FAF9F8C368
:1032B300121177705E90BA25E075F00DA42424F501
:1032C30082E5F034A0F583E0540FFFE4FEEEC39FE4
:1032D300504190BA25E075F00DA42429F582E5F05C
:1032E30034A0F583E5822EF582E43583F583E0FD92
:1032F30090BB3FE0FAA3E0243FF58274BA3AF5832A
:10330300EDF090BB40E004F0700690BB3FE004F0AA
:103313000E80BA90BA25E004F01242E0EF64017027
:103323004190BB45E02403FDE433FC7B017ABB7988
:1033330043E4FF122528E490C3C8F090BB45E02482
:1033430003FEE43390C3C9F0A3CEF0A37401F0A34A
:1033530074BBF0A37443F07F237E007D007C0012D6
:103363001EFA7B017ABA79291212FFBF011590BBAD
:1033730045E02403FDE433FC7B017ABB7943E4FF9E
:103383001225287B017ABA79341212FFBF012CE48B
:1033930090C3C8F090BB45E02403FEE43390C3C957
:1033A300F0A3CEF0A37401F0A374BBF0A37443F0B5
:0B33B3007F247E007D007C00121EFACB
:0133BE0022EC
:104DA700FF988103FF988104FF988101FF98810094
:034DB7003511298A
:024D3700C109B0
:103C4900E490C450F0A3F0A374B0F0A374FAF0C2E6
:103C590090C2947F057E00124CFDE490C454F0900C
:103C6900C452E0A330E704D2928002C292C2937F89
:103C7900057E00124CFDD2937F057E00124CFD900B
:103C8900C453E025E0F090C452E033F090C454E00E
:103C990004F0E0C3941040C7D2947F057E00124C13
:103CA900FDE490C454F0C2937F057E00124CFDD20E
:103CB900937F057E00124CFD90C451E025E0F09001
:103CC900C450E033F0309107E0F0A3E04401F090F4
:103CD900C454E004F0E0C3941040CBD2907F057E39
:0C3CE90000124CFD90C450E0FEA3E0FF70
:013CF50022AC
:103B9A00E490C455F0A3F0EFFF74FAA3CFF0A3EFBB
:103BAA00F0C290C2947F057E00124CFDE490C45985
:103BBA00F090C457E0A330E704D2928002C292C2C6
:103BCA00937F057E00124CFDD2937F057E00124C36
:103BDA00FD90C458E025E0F090C457E033F090C45B
:103BEA0059E004F0E0C3941040C7D2947F057E00E8
:103BFA00124CFDE490C459F0C2937F057E00124C2A
:103C0A00FDD2937F057E00124CFD90C456E025E05C
:103C1A00F090C455E033F0309107E0F0A3E044019E
:103C2A00F090C459E004F0E0C3941040CBD2907FE6
:0E3C3A00057E00124CFD90C455E0FEA3E0FF95
:013C48002259
:1047470090BD8DEFF0C290C2947F057E00124CFDA4
:10475700E490BD8CF090BD8DE030E704D2928002EA
:10476700C292C2937F057E00124CFDD2937F057ED5
:1047770000124CFD90BD8DE025E0F090BD8CE0046B
:10478700F0E0C3940840CED2907F057E00024CFD36
:0538AD00E4FDFC7FB802
:1038B20090BD8DEFF0ECA3F0A3EDF0C290C2947F27
:1038C200057E00124CFDE490BD8CF090BD8DE03081
:1038D200E704D2928002C292C2937F057E00124C0C
:1038E200FDD2937F057E00124CFD90BD8DE025E058
:1038F200F090BD8CE004F0E0C3940840CED2947FF7
:10390200057E00124CFDE490BD8CF090BD8FE0303E
:10391200E704D2928002C292C2937F057E00124CCB
:10392200FDD2937F057E00124CFD90BD8FE025E015
:10393200F090BD8CE004F0E0C3940840CEE490BD6A
:103942008CF090BD8EE030E704D2928002C292C227
:10395200937F057E00124CFDD2937F057E00124CB0
:10396200FD90BD8EE025E0F090BD8CE004F0E0C358
:0D397200940840CED2907F057E00024CFDEF
:063E4E007BFF7D047C00F7
:0B3E540090BD83EBF0A3EAF0A3E9F0BF
:103E5F00AE04AF05A3EEF0A3EFF07FBC1238B29023
:103E6F00BD86E0FCA3E0FD7FBE1238B27FBF1247D4
:103E7F0047C290D2947F057E00124CFD90BD867490
:103E8F00FFF5F0120F7D45F0605190BD83E0FBA36D
:103E9F00E475F001120F7DA9F0FA120EA890BD89FA
:103EAF00F0E490BD88F090BD88E0C3940850CDA396
:103EBF00E030E704D2928002C292C2937F057E0067
:103ECF00124CFDD2937F057E00124CFD90BD89E010
:103EDF0025E0F090BD88E004F080CBD2907F057E86
:043EEF0000024CFD84
:103DA20090BD897401F0A374BDF0A37487F090BD37
:103DB20087EFF0A3EDF090BD83E4F0A37402F0FD71
:103DC2007C007FBC1238B290BD83E0FCA3E0FD7F93
:103DD200BE1238B27FBF124747C290D2947F0F7E85
:103DE20000124CFD90BD8374FFF5F0120F7D45F07B
:103DF200605190BD89E0FBA3E475F001120F7DA92B
:103E0200F0FA120EA890BD86F0E490BD85F090BD48
:103E120085E0C3940850CDA3E030E704D29280023B
:103E2200C292C2937F0F7E00124CFDD2937F0F7E0F
:103E320000124CFD90BD86E025E0F090BD85E004C7
:0C3E4200F080CBD2907F0F7E00024CFD80
:100832007A4D79A7123E4EE4FD7F01123DA2E4FDFE
:100842007F02123DA27D577F03123DA27DD37F041A
:10085200123DA2E4FD7F05123DA27D117F06123DED
:10086200A27D087F07123DA2E4FD7F08123DA2E4AB
:10087200FD7F09123DA27D3F7F0A123DA2E4FD7F6A
:100882000B123DA2E4FD7F0C123DA2E4FD7F0D128E
:100892003DA2E4FD7F0E123DA27D3F7F0F123DA2DD
:1008A2007D3F7F10123DA2E4FD7F11123DA2E4FDC7
:1008B2007F12123DA2E4FD7F13123DA2E4FD7F14DC
:1008C200123DA2E4FD7F15123DA2E4FD7F16123D0A
:1008D200A2E4FD7F17123DA2E4FD7F18123DA2E4BF
:1008E200FD7F19123DA2E4FD7F1A123DA2E4FD7FB5
:1008F2001B123DA2E4FD7F1C123DA2E4FD7F1D12EE
:100902003DA27D407F1E123DA27D807F1F123DA22F
:100912007D067F20123DA27D017F21123DA2E4FDD2
:100922007F22123DA2E4FD7F23123DA2E4FD7F243B
:10093200123DA2E4FD7F25123DA2E4FD7F26123D79
:10094200A2E4FD7F27123DA27D337F28123DA27DC6
:10095200337F29123DA2E4FD7F2A123DA2E4FD7FEE
:100962002B123DA2E4FD7F2C123DA2E4FD7F2D124D
:100972003DA2E4FD7F2E123DA2E4FD7F2F123DA297
:10098200E4FD7F30123DA2E4FD7F31123DA2E4FD81
:100992007F32123DA2E4FD7F33123DA2E4FD7F349B
:1009A200123DA2E4FD7F35123DA2E4FD7F36123DE9
:1009B200A2E4FD7F37123DA27D787F38123DA2E48A
:1009C200FD7F39123DA2E4FD7F3A123DA2E4FD7F94
:1009D2003B123DA2E4FD7F3C123DA2E4FD7F3D12AD
:1009E2003DA2E4FD7F3E123DA2E4FD7F3F123DA207
:1009F200E4FD7F40123DA2E4FD7F41123DA2E4FDF1
:100A02007F42123DA2E4FD7F43123DA2E4FD7F44FA
:100A1200123DA2E4FD7F50123DA27D237F51123D83
:100A2200A27D457F52123DA27D677F53123DA27D7A
:100A3200897F54123DA27DAB7F55123DA27D017F7D
:100A420056123DA27D237F57123DA27D457F58124B
:100A52003DA27D677F59123DA27D897F5A123DA238
:100A62007DAB7F5B123DA27DCD7F5C123DA27DEF0F
:100A72007F5D123DA2E4FD7F5E123DA27D0D7F5F90
:100A8200123DA27D0D7F60123DA27D0C7F61123D61
:100A9200A27D0C7F62123DA27D0F7F63123DA27D7B
:100AA2000F7F64123DA27D0E7F65123DA27D0E7FF7
:100AB20066123DA27D087F67123DA27D027F681209
:100AC2003DA27D027F69123DA27D027F6A123DA294
:100AD2007D027F6B123DA27D027F6C123DA27D02E0
:100AE2007F6D123DA27D027F6E123DA27D027F6F5D
:100AF200123DA27D147F70123DA27D157F71123DC1
:100B0200A27D067F72123DA27D027F73123DA27DFD
:100B1200027F74123DA27D0D7F75123DA27D0D7F75
:100B220076123DA27D0C7F77123DA27D0C7F78125A
:100B32003DA27D0F7F79123DA27D0F7F7A123DA2E9
:100B42007D0E7F7B123DA27D0E7F7C123DA27D0831
:100B52007F7D123DA27D027F7E123DA27D027F7FBC
:100B6200123DA27D027F80123DA27D027F81123D55
:100B7200A27D027F82123DA27D027F83123DA27D71
:100B8200027F84123DA27D027F85123DA27D147FE9
:100B920086123DA27D157F87123DA27D067F8812B7
:100BA2003DA27D027F89123DA27D027F8A123DA273
:100BB2007A4D79AB123E4E7D3B7F6E123DA27D5740
:100BC2007F6F123DA27D247F3A123DA27D1F7F8D51
:100BD200123DA27DBA7F87123DA27DD17FB2123D26
:100BE200A27D0B7F88123DA27D017F38123DA2E4D7
:100BF200FD7F39123DA27D077FB5123DA27D757F33
:100C020031123DA27D987F3B123DA27BFF7A4D7946
:100C1200AF123E507D0A7F22123DA27D097F311222
:100C22003DA27D077F35123DA27D677F53123DA213
:100C32007D847F55123DA27D867F50123DA27D822A
:100C42007F51123DA27D107F60123DA2E4FD7F62C2
:100C5200123DA2E4FD7FA0123DA27D127FA1123DB2
:100C6200A27D1F7FA2123DA27D127FA3123DA27D13
:100C7200167FA4123DA27D297FA5123DA27D1E7F73
:100C8200A6123DA27D1F7FA7123DA27D7E7FA812E4
:100C92003DA27D1B7FA9123DA27D287FAA123DA203
:100CA2007D6D7FAB123DA27D197FAC123DA27D18F6
:100CB2007FAD123DA27D4C7FAE123DA27D1E7FAF65
:100CC200123DA27D237FB0123DA27D527FB1123D23
:100CD200A27D6D7FB2123DA27D3F7FB3123DA2E4A1
:100CE200FD7FC0123DA27D127FC1123DA27D207FF9
:100CF200C2123DA27D107FC3123DA27D137FC4129A
:100D02003DA27D277FC5123DA27D1B7FC6123DA25B
:100D12007D1D7FC7123DA27D757FC8123DA27D1F3A
:100D22007FC9123DA27D287FCA123DA27D687FCB7A
:100D3200123DA27D1A7FCC123DA27D187FCD123DBD
:100D4200A27D4D7FCE123DA27D257FCF123DA27D99
:100D52002E7FD0123DA27D537FD1123DA27D607FB6
:100D6200D2123DA27D3F7FD3123DA27BFF7A4D7905
:100D7200B3123E507BFF7A4D79B77D017C00123E63
:100D8200547F8C7E0012487A7BFF7A4D79B87D01C0
:100D92007C00123E547F787E0012487A7BFF7A4DA7
:100DA20079B97D017C00123E547FAA7E0002487A06
:104B66007D067C087FB11238B27D227C187FB21296
:104B760038B27D127C687FB31238B27D207C037F09
:0D4B8600B41238B27D007C057FB50238B254
:1036F3007D507C007FB71238B21238ADE4FDFC7FF9
:10370300B91238B27D0A7C807FBA1238B27D067C4A
:10371300007FBB1238B27D017C007FB91238B2E45E
:10372300FDFC7FDE1238B27D027C237FC91238B2E2
:103733007F0A7E0012487A1208327D517C017FB7DE
:103743001238B21238ADE4FDFC7FB91238B27D15E0
:103753007C807FBA1238B27D057C007FBB1238B201
:103763007D017C007FB91238B27D027C237FC912B0
:1037730038B27F0A7E0012487A7D017C237FCA1209
:1037830038B27D107C057FCB1238B27D057C107F6B
:10379300CC1238B27DFF7C007FD01238B2124B6658
:1037A3007DD37C007FB61238B27D037C007FDE12AE
:1037B30038B27D047C007FD61238B27D4B7C027F09
:0E37C300B71238B27F3C7E0012487AD209223B
:104B3800008003FFFFBF03FFFCBF0000306F0000D1
:104B48000007000003800000007800000C0000004F
:0E4B5800300000F00000000FC000030000005D
:0A4D390041C0330004270210548922
:1034E80090BDA4EEF0A3EFF0A3EBF0A3EAF0A3E9FC
:0134F800F0E3
:1034F90090BDAC7424F0A37407F090BDA9E0FF90CF
:10350900BDAEE4F0A3EFF090BDAB7402F0E490BD62
:10351900AAF090BDA9E0FFA3E0FEC39F40030235D6
:10352900C3EE75F009A4FF90BDA6E0FBA3E0FAA3E2
:10353900E02FF9EA35F0FA900001120FBEFF90BDB5
:10354900ABE025E024ACF582E434BDF583E5F0F089
:10355900A3EFF090BDABE004F0900003120FBEFFA3
:1035690090BDABE025E024ACF582E434BDF583E5FC
:10357900F0F0A3EFF090BDABE004F090BDA6E0FB46
:10358900A3E0FAA3E0F990BDAAE075F009A4F582D9
:1035990085F083120EC1FF90BDABE025E024ACF5A8
:1035A90082E434BDF583E4F0A3EFF090BDABE00411
:1035B900F090BDAAE004F002351B90BDABE0FD25FB
:1035C900E024ACF582E434BDF58374FFF0A3E4F0A4
:1035D90090BDA4E0FEA3E0FF7B017ABD79AC90C069
:0935E9001FE4F0A3EDF0022A1A20
:1026DB0090BD91EEF0A3EFF090BD94EAF0A3EBF078
:1026EB00E490BDA0F0A3F0A3F0A3F0ED904B386005
:1026FB0012E493FE740193FFC3E49FFFE49E90BD2D
:10270B00A2800AE493FF74019390BDA0CFF0A3EFD6
:10271B00F0E490BD9FF090C027F0E4FFFEFDFC902D
:10272B00BD98E0F8A3E0F9A3E0FAA3E0FBC3121114
:10273B0077700302284F90BD98A3A3A3E05401FF29
:10274B00E4EF700302282D90BD9FE0FF90C027E0BF
:10275B00FE75F009A42434F582E5F034C0F583EF5F
:10276B00F090BD94E0FCA3E0FD75F009EEA42435D8
:10277B00F582E5F034C0F583ECF0A3EDF090BD9657
:10278B00E0FEA3E0FF90C027E0FD75F009A424371D
:10279B00F582E5F034C0F583EEF0A3EFF0904B3803
:1027AB00E493FE740193FF90BD95E02FFF90BD94D1
:1027BB00E03EFE75F009EDA42439F582E5F034C056
:1027CB00F583EEF0A3EFF0904B38E493FE74019396
:1027DB00FF90BD97E02FFF90BD96E03EFE90C02787
:1027EB00E075F009A4243BF582E5F034C0F583EEE7
:1027FB00F0A3EFF090BDA0E0FEA3E0FF90BD95E04D
:10280B002FF090BD94E03EF090BDA2E0FEA3E0FF60
:10281B0090BD97E02FF090BD96E03EF090C027E082
:10282B0004F090BD98E0FCA3E0FDA3E0FEA3E0FF65
:10283B00780112118890BD981211F390BD9FE0049E
:10284B00F002272590BD9CE0F9A3E0FAA3E090C02D
:10285B0030C9F0A3EAF0A3E9F090BD91E0FEA3E04C
:10286B00FF7B017AC0793490C027E090BDA9F002BC
:02287B0034E83F
:052FF10090BD83EFF02C
:102FF600E490BD88F090BD88E0FBC39408400302CE
:10300600313DE47F01FEFDFC90BD83E075F009A42F
:103016002434F582E5F034C0F583E0F9F812119B0B
:10302600EB25E025E02446F582E4344BF5831211C6
:10303600D7EB5FFFEA5EFEE95DFDE85CFC4D4E4FB7
:10304600700302313490BD88E025E025E02446F582
:1030560082E4344BF5831211BA90C033E025E025A3
:10306600E0243AF582E4344BF5831211D7EB5FFF87
:10307600EA5EFEE95DFDE85CFC90BD841211F3900A
:10308600BD84E0F8A3E0F9A3E0FAA3E0FBC000C02A
:1030960001E47F01FEFDFC90BD83E075F009A424E8
:1030A60034F582E5F034C0F583E0F9F812119B128D
:1030B600116AD001D000EB5FFFEA5EFEE95DFDE834
:1030C6005CFC90BD841211F3E4FFFEFDFC90BD8410
:1030D600E0F8A3E0F9A3E0FAA3E0FBC312117760DE
:1030E6005690BD83E0FF7E00904B38E493FC74015C
:1030F60093FD120F00AA06AB0790BD967402F0A3CB
:103106007420F090BD84E0FCA3E0FDA3E0FEA3E004
:10311600FF90BD981211F390BD9C74FFF0A3742824
:10312600F0A3747DF07D017F007E950226DB90BDC5
:0731360088E004F0022FFB0A
:01313D00226F
:05287D0090BD89EFF0A1
:10288200E4A3F090BD8AE0FBC3940840030229FF51
:10289200E47F01FEFDFC90BD89E075F009A42434BB
:1028A200F582E5F034C0F583E0F9F812119BEB25CF
:1028B200E025E02446F582E4344BF5831211D7EB90
:1028C2005FFFEA5EFEE95DFDE85CFC4D4E4F700382
:1028D2000229F678271211CA90BD8AE025E025E088
:1028E2002446F582E4344BF5831211BA12116AEBD5
:1028F2005FFFEA5EFEE95DFDE85CFC78271211E706
:1029020090BD89E075F009A42434F582E5F034C065
:10291200F583E014600E14601324027015E490C075
:1029220033F0800E90C0337401F0800690C033748F
:1029320002F078271211CAC000C001E47F01FEFD37
:10294200FC90BD89E075F009A42434F582E5F034E9
:10295200C0F583E0F9F812119BD001D000EB4FFFD4
:10296200EA4EFEE94DFDE84CFC78271211E790C0D3
:1029720033E025E025E0243AF582E4344BF5831276
:1029820011BA90BD8B1211F390BD8BE0FCA3E0FD58
:10299200A3E0FEA3E0FF78271211CAEF5BFFEE5A15
:1029A200FEED59FDEC58FC90BD8B1211F3904B38A3
:1029B200E493FE740193FFC374209F90BD97F0745B
:1029C200039E90BD96F090BD8BE0FCA3E0FDA3E0DA
:1029D200FEA3E0FF90BD981211F390BD9C74FFF02E
:1029E200A3742FF0A374F1F0E4FBFAFDFF7E9012C2
:0D29F20026DB800990BD8AE004F0022885F4
:1029FF00E490BD8FF0A3F07B017ABD798F90C01F5B
:0B2A0F00F0A304F07F007E95022A1A5D
:1049D900E490C033F0904B3893FE740193FFC37495
:1049E900209F90BD97F074039E90BD96F078271292
:1049F90011AE90BD981211F390BD9C74FFF0A37491
:104A09002FF0A374F1F0E4FBFAFDFF7E900226DBA0
:104A58009DFFE09CC313FEEF13FFED2FFFEC3EFE1E
:104A680090BEDFE0C313FDC3EF9DFFEE940090BE40
:074A7800F6FEE0FCA3E0FDE7
:104A7F0090BF22EEF0A3EFF0AF05A3ECF0A3EFF0A1
:064A8F007B017ABF7922D1
:014A950022FE
:10313E0090BF22EEF0A3EFF0A3EBF0A3EAF0A3E929
:01314E00F090
:10314F0090BF2AE4F0A37404F090BF27E0FF90BF74
:10315F002CE4F0A3EFF090BF297402F0E490BF28A5
:10316F00F090BF27E0FFA3E0C39F400302325490CB
:10317F00BF24E0FBA3E0FAA3E0F990BF28E0FF75BE
:10318F00F00AA4F58285F083120FBEFD90BF29E0EF
:10319F0025E0242AF582E434BFF583E5F0F0A3EDB2
:1031AF00F090BF29E004F0EF75F00AA4FFE92FF9C2
:1031BF00EA35F0FA900002120FBEFF90BF29E0250A
:1031CF00E0242AF582E434BFF583E5F0F0A3EFF0B5
:1031DF0090BF29E004F0900004120FBEFF90BF29AA
:1031EF00E025E0242AF582E434BFF583E5F0F0A36F
:1031FF00EFF090BF29E004F0900006120FBEFF9091
:10320F00BF29E025E0242AF582E434BFF583E5F0F9
:10321F00F0A3EFF090BF29E004F0900008120FBE6A
:10322F00FF90BF29E025E0242AF582E434BFF5831F
:10323F00E5F0F0A3EFF090BF29E004F090BF28E095
:10324F0004F002317090BF29E0FD25E0242AF582B9
:10325F00E434BFF58374FFF0A3E4F090BF22E0FEE7
:10326F00A3E0FF7B017ABF792A90C01FE4F0A3EDA2
:04327F00F0022A1A15
:102E950090BF22EEF0A3EFF0A3EBF0A3EAF0A3E9D5
:012EA500F03C
:102EA60090BF2AE4F0A3740AF090BF27E0FF90BF1A
:102EB6002CE4F0A3EFF090BF297402F0E490BF2851
:102EC600F090BF27E0FFA3E0FEC39F4003022FC29E
:102ED600EE75F00AA4FF90BF24E0FBA3E0FAA3E09E
:102EE6002FF9EA35F0FA900008120FBEFF90BF29BD
:102EF600E025E0242AF582E434BFF583E5F0F0A36B
:102F0600EFF090BF29E004F090BF24E0FBA3E0FAC5
:102F1600A3E0F990BF28E0FF75F00AA4F58285F0DA
:102F260083120FBEFD90BF29E025E0242AF582E436
:102F360034BFF583E5F0F0A3EDF090BF29E004F08F
:102F4600EF75F00AA4FFE92FF9EA35F0FA900002CE
:102F5600120FBEFF90BF29E025E0242AF582E43453
:102F6600BFF583E5F0F0A3EFF090BF29E004F09001
:102F76000004120FBEFF90BF29E025E0242AF58247
:102F8600E434BFF583E5F0F0A3EFF090BF29E00449
:102F9600F0900006120FBEFF90BF29E025E0242A1C
:102FA600F582E434BFF583E5F0F0A3EFF090BF2996
:102FB600E004F090BF28E004F0022EC790BF29E09D
:102FC600FD25E0242AF582E434BFF58374FFF0A3DF
:102FD600E4F090BF22E0FEA3E0FF7B017ABF792AEE
:0B2FE60090C01FE4F0A3EDF0022A1AD7
:10010300E490BD83F0A3F0A304F0A374F4F0A3740C
:100113000BF0A37496F0A37478F0A374F8F0A3E43F
:10012300F07DF47C017F28FE124A7F78F07CBE7D4F
:10013300017F04120E8290BD88E0FF90BEF1E02F94
:10014300FF90BEF0E0340090BEF2124A7978F47C5E
:10015300BE7D017E007F04120E8290BEF4E0FEA3FA
:10016300E0FF90BD89E0FDC390BEF7E09DFD90BE2A
:10017300F6E09400FC124A7F78F87CBE7D017E0095
:100183007F04120E8290BD88E0FF90BEF9E02FFF3E
:1001930090BEF8E03400FE90BEFA124A7A78FC7CF6
:1001A300BE7D017E007F04120E8290BD88E0FF9029
:1001B300BEFDE02FFF90BEFCE03400FE90BD89E061
:1001C300FDC390BEFFE09DFD90BEFEE09400FC12D7
:1001D3004A7F78007CBF7D017E007F04120E8290EF
:1001E300BD88E075F002A4FF90BF01E02FFF90BF30
:1001F30000E035F0FE90BF02124A7A78047CBF7D9E
:10020300017E007F04120E8290BD88E0FF90BF053F
:10021300E02FFF90BF04E03400FE90BD89E0FD9025
:10022300BF07E02DFD90BF06E03400FC124A7F7843
:10023300087CBF7D017E007F04120E8290BD88E0A2
:10024300FF90BF09E02FFF90BF08E03400FE90BF8E
:100253000A124A7A780C7CBF7D017E007F04120E5D
:100263008290BF0CE0FEA3E0FF90BD89E0FD90BF4C
:100273000FE02DFD90BF0EE03400FC124A7F781092
:100283007CBF7D017E007F04120E8290BD88E0FF5B
:1002930090BF11E02FFF90BF10E03400FE90BF121B
:1002A300124A7A78147CBF7D017E007F04120E828D
:1002B30090BED67430F0A3E4F090BEDC7407F0A3D4
:1002C30074FFF0E4A3F0A37420F0E4A3F0A3740399
:1002D300F0E4A3F0A3F0A3F090BEF0E0FCA3E0FDF4
:1002E300C390BEF5E090BEF4124A5878D87CBE7D28
:1002F300017E007F04120E827B017ABE79D690C004
:100303001FE4F0A3740DF07F007E10122A1A90BE32
:10031300F8E0FCA3E0FDC390BEFDE090BEFC124AF2
:100323005878D87CBE7D017E007F04120E827B014B
:100333007ABE79D690C01FE4F0A3740DF07F307EAF
:1003430010122A1A90BEFCE0FCA3E0FDC390BF018B
:10035300E09DFF90BF00124A5A78D87CBE7D017E93
:10036300007F04120E827B017ABE79D690C01FE40F
:0C037300F0A3740DF07F607E10122A1AB7
:10037F0090BD87E0C31390BF19F0E0FDFFC390BE9F
:10038F00F1E09FFF90BEF0E09400FEC390BEF3E05B
:10039F009DFD90BEF2E09400FC124A7F788C7CBDEC
:1003AF007D017E007F04120E8290BF19E0FDFF9049
:1003BF00BEF5E02FFF90BEF4E03400FE90BEF7E0F4
:1003CF002DFD90BEF6E03400FC124A7F78907CBD84
:1003DF007D017E007F04120E8290BF19E0FDFFC3E6
:1003EF0090BEF9E09FFF90BEF8E09400FEC390BE70
:1003FF00FBE09DFD90BEFAE09400FC124A7F7896D8
:10040F007CBD7D017E007F04120E8290BF19E0FD3E
:10041F00FF90BEF5E02FFF90BEF4E03400FE90BEDB
:10042F00F7E02DFD90BEF6E03400FC124A7F789A7B
:10043F007CBD7D017E007F04120E8290BF19E0FD0E
:10044F00FFC390BEF9E09FFF90BEF8E09400FEC39B
:10045F0090BEFBE09DFD90BEFAE09400FC124A7F37
:10046F0078A07CBD7D017E007F04120E8290BF19A3
:10047F00E0FDFF90BEFDE02FFF90BEFCE03400FEDC
:10048F0090BEFFE02DFD90BEFEE03400FC124A7FCF
:10049F0078A47CBD7D017E007F04120E8290BF196F
:1004AF00E0FDFFC390BF01E09FFF90BF00E094000D
:1004BF00FEC390BF03E09DFD90BF02E09400FC12CD
:1004CF004A7F78AA7CBD7D017E007F04120E829048
:1004DF00BF19E0FDFF90BF05E02FFF90BF04E03490
:1004EF0000FE90BF07E02DFD90BF06E03400FC1228
:0F04FF004A7F78AE7CBD7D017E007F04120E82A5
:10050E0090BDA4E0FEA3E0FF90BD87E0FDC390BDCB
:10051E00A7E09DFD90BDA6E09400CD2401CD340052
:10052E00FC124A7F781A7CBF7D017E007F04120E7A
:10053E0082781E7CBF7D017B017ABD79AA7E007F09
:10054E0004120E82E490BF18F090BF18E0FFC3941F
:10055E000B507CEF75F00AA424D2F974BD35F0A8C7
:10056E0001FC7D017B017ABF791A7E007F04120E99
:10057E008290BF18E075F00AA424D6F974BD35F048
:10058E00A801FC7D017B017ABF791E7E007F0412DB
:10059E000E8290BF18E075F00AA424DAF582E434D6
:1005AE00BDF5837407F0A374FFF090BF1DE004F057
:1005BE00700690BF1CE004F090BF21E004F07006BE
:0F05CE0090BF20E004F090BF18E004F002055742
:1005DD0090BF19E0FDFFC390BF09E09FFF90BF08DA
:1005ED00E09400FEC390BF0BE09DFD90BF0AE09428
:1005FD0000FC124A7F78B47CBD7D017E007F041221
:10060D000E8290BF19E0FDFF90BF0DE02FFF90BF50
:10061D000CE03400FE90BF0FE02DFD90BF0EE034D6
:10062D0000FC124A7F78B87CBD7D017E007F0412EC
:02063D000E822B
:10063F0090BDAEE0FEA3E0FF90BD87E0FDC390BD8F
:10064F00B1E09DFD90BDB0E09400CD2401CD34000C
:10065F00FC124A7F781A7CBF7D017E007F04120E48
:10066F0082781E7CBF7D017B017ABD79B47E007FCD
:10067F0004120E8290BF18740BF090BF18E0FFC3E6
:10068F009416507CEF75F00AA424D2F974BD35F09E
:10069F00A801FC7D017B017ABF791A7E007F0412CD
:1006AF000E8290BF18E075F00AA424D6F974BD35F8
:1006BF00F0A801FC7D017B017ABF791E7E007F04CB
:1006CF00120E8290BF18E075F00AA424DAF582E4C6
:1006DF0034BDF5837407F0A374FFF090BF1DE004E1
:1006EF00F0700690BF1CE004F090BF21E004F070A2
:1006FF000690BF20E004F090BF18E004F0020689D6
:10070F0090BF19E0FDFFC390BF0DE09FFF90BF0C9E
:10071F00E09400FEC390BF0FE09DFD90BF0EE094EC
:10072F0000FC124A7F78BE7CBD7D017E007F0412E3
:10073F000E8290BF19E0FDFF90BF11E02FFF90BF19
:10074F0010E03400FE90BF13E02DFD90BF12E03497
:10075F0000FC124A7F78C27CBD7D017E007F0412AF
:10076F000E8290BF19E0FDFFC390BF11E09FFF9075
:10077F00BF10E09400FEC390BF13E09DFD90BF1229
:10078F00E09400FC124A7F78C87CBD7D017E007F1B
:10079F0004120E8290BF19E0FDFF90BF15E02FFFEE
:1007AF0090BF14E03400FE90BF17E02DFD90BF16F0
:1007BF00E03400FC124A7F78CC7CBD7D017E007F47
:1007CF0004120E82E490BF18F090BF18E0FFC3949C
:1007DF0007501BEF75F00AA42494F582E434BDF59D
:1007EF008374FFF0A3F090BF18E004F080DB90BD9E
:0D07FF008AE0FFA3E090BDB2CFF0A3EFF0C1
:10080C007B017ABD798C90BF277407F07F007E70D6
:10081C0012313E7B017ABD79D290BF277416F07FDE
:06082C00007E75022E950E
:014E1400227B
:030000000241D1E9
:0C41D100787FE4F6D8FD75812A024218C0
:1041DD00022BADE493A3F8E493A34003F68001F220
:1041ED0008DFF48029E493A3F85407240CC8C333E3
:1041FD00C4540F4420C8834004F456800146F6DFB2
:10420D00E4800B0102040810204080904D2BE47EC9
:10421D00019360BCA3FF543F30E509541FFEE493A6
:10422D00A360010ECF54C025E060A840B8E493A36D
:10423D00FAE493A3F8E493A3C8C582C8CAC583CA98
:10424D00F0A3C8C582C8CAC583CADFE9DEE780BE50
:014D4300006F
:100DB200E709F608DFFA8046E709F208DFFA803E23
:100DC20088828C83E709F0A3DFFA8032E309F60810
:100DD200DFFA8078E309F208DFFA807088828C8378
:100DE200E309F0A3DFFA806489828A83E0A3F6082C
:100DF200DFFA805889828A83E0A3F208DFFA804C06
:100E020080D280FA80C680D4806980F280338010DC
:100E120080A680EA809A80A880DA80E280CA803345
:100E220089828A83ECFAE493A3C8C582C8CCC583BD
:100E3200CCF0A3C8C582C8CCC583CCDFE9DEE7808D
:100E42000D89828A83E493A3F608DFF9ECFAA9F00C
:100E5200EDFB2289828A83ECFAE0A3C8C582C8CC62
:100E6200C583CCF0A3C8C582C8CCC583CCDFEADE7B
:100E7200E880DB89828A83E493A3F208DFF980CCDD
:100E820088F0EF60010E4E60C388F0ED2402B404D6
:100E92000050B9F582EB2402B4040050AF2323457D
:060EA2008223900E027392
:100EA800BB010689828A83E0225002E722BBFE0248
:090EB800E32289828A83E493227B
:100EC100BB010CE58229F582E5833AF583E02250E6
:100ED10006E92582F8E622BBFE06E92582F8E22230
:0D0EE100E58229F582E5833AF583E493224A
:100EEE00BB010689828A83F0225002F722BBFE01E3
:020EFE00F322DD
:100F0000EF8DF0A4A8F0CF8CF0A428CE8DF0A42E05
:020F1000FE22BF
:100F1200BC000BBE0029EF8DF084FFADF022E4CCC3
:100F2200F875F008EF2FFFEE33FEEC33FCEE9DEC8C
:100F3200984005FCEE9DFE0FD5F0E9E4CEFD22EDD2
:100F4200F8F5F0EE8420D21CFEADF075F008EF2F1C
:100F5200FFED33FD4007985006D5F0F222C398FD0D
:050F62000FD5F0EA22AA
:100F6700C5F0F8A3E028F0C5F0F8E5821582700215
:060F77001583E038F022B2
:100F7D00A3F8E0C5F025F0F0E58215827002158327
:060F8D00E0C838F0E82284
:100F9300BB010A89828A83E0F5F0A3E02250068729
:100FA300F009E71922BBFE07E3F5F009E3192289EB
:0B0FB300828A83E493F5F0740193221E
:100FBE00BB0110E58229F582E5833AF583E0F5F071
:100FCE00A3E0225009E92582F886F008E622BBFE4E
:100FDE000AE92582F8E2F5F008E222E5832AF58394
:080FEE00E993F5F0A3E9932259
:100FF600BB010789828A83020F67500B09C5F02758
:10100600F7C5F01937F722BBFE0D09F8E325F0F313
:10101600C5F019E338F322F889828A83740193258F
:08102600F0C5F0F8E493382254
:10102E00BB010A89828A83F0E5F0A3F0225006F70D
:0F103E0009A7F01922BBFE06F3E5F009F319220A
:10104D00E88FF0A4CC8BF0A42CFCE98EF0A42CFC42
:10105D008AF0EDA42CFCEA8EF0A4CDA8F08BF0A4C0
:10106D002DCC3825F0FDE98FF0A42CCD35F0FCEB1F
:10107D008EF0A4FEA9F0EB8FF0A4CFC5F02ECD39E4
:0F108D00FEE43CFCEAA42DCE35F0FDE43CFC2251
:10109C0075F008758200EF2FFFEE33FECD33CDCC0B
:1010AC0033CCC58233C5829BED9AEC99E58298408E
:1010BC000CF582EE9BFEED9AFDEC99FC0FD5F0D66B
:1010CC00E4CEFBE4CDFAE4CCF9A88222B800C1B995
:1010DC000059BA002DEC8BF084CFCECDFCE5F0CBD3
:1010EC00F97818EF2FFFEE33FEED33FDEC33FCEB0C
:1010FC0033FB10D703994004EB99FB0FD8E5E4F9C7
:10110C00FA227818EF2FFFEE33FEED33FDEC33FCB3
:10111C00C933C910D7059BE99A4007EC9BFCE99AA7
:10112C00F90FD8E0E4C9FAE4CCFB2275F010EF2FEC
:10113C00FFEE33FEED33FDCC33CCC833C810D707EC
:10114C009BEC9AE899400AED9BFDEC9AFCE899F827
:0E115C000FD5F0DAE4CDFBE4CCFAE4C8F922BA
:0D116A00CFF4CFCEF4CECDF4CDCCF4CC221A
:10117700EB9FF5F0EA9E42F0E99D42F0E89C45F0CE
:011187002245
:10118800E8600FECC313FCED13FDEE13FEEF13FF45
:03119800D8F12269
:10119B00E8600FEFC333FFEE33FEED33FDEC33FCB2
:0311AB00D8F12256
:0C11AE00E6FC08E6FD08E6FE08E6FF226D
:1011BA00E493FC740193FD740293FE740393FF227B
:0D11CA00E6FB08E6F908E6FA08E6CBF82295
:1011D700E493F8740193F9740293FA740393FB226E
:0C11E700ECF608EDF608EEF608EFF62234
:0C11F300ECF0A3EDF0A3EEF0A3EFF0226F
:1011FF00A8828583F0D083D0821212161212161293
:10120F001216121216E473E493A3C583C5F0C583B7
:10121F00C8C582C8F0A3C583C5F0C583C8C582C839
:01122F00229C
:0C123000A42582F582E5F03583F58322C9
:10123C00BB010789828A8302129B5005E9F80212CE
:10124C0092BBFE05E9F80212C489828A830212CD90
:10125C00BB010DE58229F582E5833AF58302129BE9
:10126C005007E92582F8021292BBFE07E92582F8A5
:10127C000212C4E58229F582E5833AF5830212CD88
:06128C008A838982E473ED
:10183B00E522249FF582E434C3F583E00522229050
:10184B00C39C30070390C39FE475F0011212A402EE
:10185B000EA82000E97F2ED2008018EF540F2490A1
:10186B00D43440D4FF30040BEF24BFB41A00500320
:10187B002461FFE523600215230526E5267002058A
:10188B002530070E90C39CE475F0011212A4EF02F1
:10189B000EEE024BE37403D2078003E4C207F5227A
:1018AB0090C39C1212BBE4F523F525F526E52360C6
:1018BB00077F2012187E80F57524FFC201C200C27B
:1018CB0002C203C205C206C20812184AFF700D30CD
:1018DB0007057F0012188FAF26AE2522B4255FC2F5
:1018EB00D5C20412184AFF24D0B40A00501A75F05E
:1018FB000A782330D50508B6FF0106C6A426F620C4
:10190B00D5047002D20380D924CFB41A00EF50044F
:10191B00C2E5D204021A90D20180C6D20080C0D296
:10192B000280BCD2D580BAD20580B47F2012187E3B
:10193B002002077401B5230040F112183BFF121867
:10194B007E0218B8D208D206809512183BFB1218EB
:10195B003BFA12183BF94A4B700679617A1B7BFFF5
:10196B0020022EE523602A7E008E82758300120EE4
:10197B00C160060EEE652470F0C2D5EBC0E0EAC084
:10198B00E0E9C0E0EE121AD7D0E0F9D0E0FAD0E0EF
:10199B00FB120EA8FF60AAEBC0E0EAC0E0E9C0E0D2
:1019AB0012187ED0E02401F9D0E03400FAD0E0FB2D
:1019BB00E5240460DCD524D980877BFF7A1A79D3A0
:1019CB00D202809C791080027908C206C208800876
:1019DB00D2D5790A8004790AC2D5E524047002F5C0
:1019EB0024E4FAFDFEFF12183BFC7B0820011312C6
:1019FB00183BFD7B1030000A12183BFE12183BFF00
:101A0B007B20EC3382D592D55013C3E43000069F74
:101A1B00FFE49EFEE42001039DFDE49CFCE4CBF877
:101A2B00C201EC700CCFCECDCCE824F8F870F3806B
:101A3B0017C3EF33FFEE33FEED33FDEC33FCEB332B
:101A4B00FB994002FB0FD8E9EB300105F8D0E0C45D
:101A5B0048B201C0E00AEC4D4E4F78207B0070C2BB
:101A6B00EAB5240040BCC0E0121AD9D0F0D0E02077
:101A7B000104C4C0E0C4B201C0F0121867D0F0D5A5
:101A8B00F0EB0218B81212D919555319CF58192661
:101A9B004C19224219D34F19DB4419DB49193B432B
:081AAB0019E15519C54619C5E2
:101AB3004519C5471B8150192A2D192E2E19512B53
:101AC300193223194F201B6A2A18EA4800001949C2
:101AD3003F3F3F00790AA2D5200314300509B9100E
:101AE300020404B9080104A2D5200602500104200F
:101AF30002689202B523005034C0E07F20300319FE
:101B03007F30A20272067205500F121B30C202C24E
:101B130006C205C2087F30800F300503E9C0E0121A
:101B2300187E300503D0E0F9D0E0B523CC3005179B
:101B33007F30B9100C12187E7F583004077F7880ED
:101B430003B9080312187E3002057F2D02187E7F29
:101B5300202008F87F2B2006F322920280CF286EE4
:101B6300756C6C2900D20112183B3001F8C2017860
:101B73002330D50108F60218EA2D504349581218AC
:101B83003B2403B405004001E4901B7C9312186FBF
:0D1B9300743A12186FD2037523040219CFA3
:104D5900E4FFFE120EA8600C0FEF70010E09E97056
:054D6900F20A80EF22B8
:09129200E6FB08E6FA08E6F92281
:09129B00E0FBA3E0FAA3E0F92254
:1012A400F8E0FBA3A3E0F925F0F0E58215827002D3
:0712B4001583E0FA38F02277
:0912BB00EBF0A3EAF0A3E9F02234
:0912C400E2FB08E2FA08E2F9225B
:0C12CD00E493FB740193FA740293F9227D
:1012D900D083D082F8E4937012740193700DA3A3A4
:1012E90093F8740193F5828883E4737402936860B8
:0612F900EFA3A3A380DFB8
:104BE300EFB40A07740D124BEE740A309811A899AA
:104BF300B8130CC2983098FDA899C298B811F63032
:074C030099FDC299F5992209
:00000001FF
