:0B00F800FFFF4457494E54350267F9E2
:0E3932007B0190C397E4F0A304F07F147E00A5
:1039400090C392EEF0A3EFF0A3EBF0A3EAF0A3E9AB
:01395000F086
:10395100E490C399F0A3F0A3F0A3F0A3F0A3F0A324
:10396100F0A3F090C397E0FAA3E0FB4A7003023A98
:10397100FF90C392E0FEA3E0FFC3E49FFFE49EFE3D
:10398100E4FCFD90C3A1120A79AF03AE02E4FCFD91
:1039910090C3A1E0F8A3E0F9A3E0FAA3E0FBC3120E
:1039A10009FD501190C3A1A3A3E0FFA3E090C39729
:1039B100CFF0A3EFF090C392E0FCA3E0FDECC313C2
:1039C100FFED1390C399CFF0A3EFF0ED5401FFA3E6
:1039D100E4F0A3EFF0C2AFE4F5F190C399E0FCA3EA
:1039E100E0FDECF5F28DF375F40175F8AF30FCFDF7
:1039F10090C39BE07002A3E0603DD2FE20FEFD90EB
:103A0100C394E0FBA3E475F0011207C8A9F0FAE53D
:103A1100FC12071790C394E0FBA3E475F0011207B1
:103A2100C8A9F0FAE5FD12071790C398E024FFF04A
:103A310090C397E034FFF090C397E0FCA3E0FDEC66
:103A4100C313FFED1390C39DCFF0A3EFF0ED54012D
:103A5100FFA3E4F0A3EFF090C39D74FFF5F012070C
:103A6100C845F0605BD2FE20FEFD90C394E0FBA34D
:103A7100E475F0011207C8A9F0FAE5FA12071790E8
:103A8100C394E0FBA3E475F0011207C8A9F0FAE5BD
:103A9100FB12071790C394E0FBA3E475F001120732
:103AA100C8A9F0FAE5FC12071790C394E0FBA3E460
:103AB10075F0011207C8A9F0FAE5FD120717809702
:103AC10090C39FE07002A3E0602FD2FE20FEFD9024
:103AD100C394E0FBA3E475F0011207C8A9F0FAE56D
:103AE100FA12071790C394E0FBA3E475F0011207E3
:0E3AF100C8A9F0FAE5FB120717E4F5F8D2AF0A
:013AFF0022A4
:1040240090C3DEEEF0A3EFF0A3EBF0A3EAF0A3E974
:01403400F09B
:10403500E490C3E5F0A3F0A3F0A3F0A3F0A3F09000
:10404500C3E3E07002A3E070030241B690C3DEE073
:10405500FEA3E0FFC3E49FFFE49EFED390C3E4E02C
:104065009F90C3E3E09E4005EEF0A3EFF090C3DE22
:10407500E0FAA3E0FBEAC313FCEB13FDEB5401FFED
:1040850090C3E5E4F0A3EFF0C2AFE4F5F1ECF5F28F
:10409500AF058FF375F40175F88330FCFD90C3E52A
:1040A500E07002A3E0603D90C3E0E0FBA3E475F09F
:1040B500011207C8A9F0FA1206D1F5FC90C3E0E099
:1040C500FBA3E475F0011207C8A9F0FA1206D1F5B1
:1040D500FDD2FE20FEFD90C3E4E024FFF090C3E393
:1040E500E034FFF090C3E3E0FCA3E0FDECC313FF75
:1040F500ED1390C3E7CFF0A3EFF0ED5401FFA3E478
:10410500F0A3EFF075F88F90C3E774FFF5F0120791
:10411500C845F0605B90C3E0E0FBA3E475F00112D5
:1041250007C8A9F0FA1206D1F5FA90C3E0E0FBA39F
:10413500E475F0011207C8A9F0FA1206D1F5FB9053
:10414500C3E0E0FBA3E475F0011207C8A9F0FA1279
:1041550006D1F5FC90C3E0E0FBA3E475F00112077E
:10416500C8A9F0FA1206D1F5FDD2FE30FE9980FB02
:1041750090C3E9E07002A3E0603275F88C90C3E06B
:10418500E0FBA3E475F0011207C8A9F0FA1206D105
:10419500F5FA90C3E0E0FBA3E475F0011207C8A9A6
:1041A500F0FA1206D1F5FBD2FE20FEFDE4F5F8D2B9
:0141B500AF5A
:0141B60022E6
:10753900C2AFC2D3C2D4E4F58E75C870F5CDF5CC0F
:1075490075CBBC75CACDD2ADD2C8F593759401750A
:10755900950275C960F5F875F901F5A8F5B8F59AB8
:07756900F5A9F5B902763126
:107631007F007E80E4F533F5340FEFAC0670010E68
:1076410014F5828C83E4F00534E53470020533B41B
:0776510000E7E533B480E21D
:01765800220F
:1077520090C587120A8555AA5AA57B017AC57987F1
:1077620090C3E3E4F0A37402F07F047E000240249D
:0478DE007FF47E01B4
:1078E200EF4E6010E4FD0DEDC3941840F9EF1F70E8
:0478F200EF1E80EC19
:0178F600226F
:106EEE0090C510745AF0A374A5F0A3EEF0A3EFF0C2
:106EFE00A3EBF0A3EDF090C50FE0600A90C516E489
:106F0E00F0A304F08007E490C516F0A3F07B017A9D
:106F1E00C5791090C3E3E4F0A37404F07FB07E0053
:106F2E001240241278DE7B017AC5791090C397E463
:106F3E00F0A304F07FB07E0012394090C510E070CF
:016F4E00E260
:016F4F00221F
:0574C20090C569EFF028
:1074C7007B017AC5796A90C397E4F0A37402F07FD1
:1074D700A07E0012394090C569E0A3F0A37401F0C3
:1074E700E490C56DF07B017AC5796A90C3E3F0A398
:0A74F7007402F07FA07E0002402422
:1050B70090C3FBE0FB90C54DF090C3FCE0FCA3E080
:1050C700FDA3E0FEA3E0FF7810120A0E90C54EEF95
:1050D700F090C3FCE0FCA3E0FDA3E0FEA3E0FF78B3
:1050E70008120A0E90C54FEFF090C3FCA3A3A3E0EC
:1050F70090C550F090C400E0FCA3E0FDEC90C551D2
:10510700F0A3EDF090C402E0FCA3E0FDEC90C553E2
:10511700F0A3EDF0EBB4A52890C404E0FBA3E0FAFC
:10512700A3E04A4B601A90C400E0FEA3E0FF90C4DE
:1051370004A3A3E0F990C3E3ECF0A3EDF01240243D
:105147007B017AC5794D90C3E3E4F0A37404F07F43
:10515700087E001240241278DE7B017AC5794D90D3
:10516700C397E4F0A304F07F087E0012394090C58E
:105177004DE070E290C3FBE0B45A2F90C404E0FB0B
:10518700A3E0FAA3E04A4B602190C400E0FEA3E04D
:10519700FF90C404A3A3E0F990C402E0FDA3E0904C
:1051A700C397CDF0A3EDF01239407F327E00027233
:0151B700D91E
:104B220090C518745AF090C3EBE090C519F0640177
:104B3200706790C3ECA3E090C51AF090C3EEE0FC5E
:104B4200A3E0FDA3E0FEA3E0FF7810120A0E90C5D9
:104B52001BEFF090C3EEE0FCA3E0FDA3E0FEA3E0B8
:104B6200FF7808120A0E90C51CEFF090C3EEA3A3C3
:104B7200A3E090C51DF090C3F2E0FCA3E0FDEC9031
:104B8200C51EF0A3EDF090C3F4E0FCA3E0FDEC90B1
:104B9200C520F0A3EDF0E4803B90C3EBE06402702B
:104BA20037A3E0FCA3E0FDEC90C51AF0A3EDF09072
:104BB200C3F2E0FCA3E0FDEC90C51CF0A3EDF09085
:104BC200C3F9E0FCA3E0FDEC90C51EF0A3EDF0E418
:104BD200A3F0A3F0A3F0A3F07B017AC5791890C3E8
:104BE200E3E4F0A37406F07FAA7E00124024127858
:104BF200DE7B017AC5791890C397E4F0A304F07FB5
:104C0200AA7E0012394090C518E070E290C3EBE032
:104C1200B4012F90C3F6E0FBA3E0FAA3E04A4B6095
:104C22002190C3F2E0FEA3E0FF90C3F6A3A3E0F954
:104C320090C3F4E0FDA3E090C397CDF0A3EDF01292
:094C420039407F327E000272D974
:0F79E1007AC5799212393290C592E0FEA3E0FF89
:0179F0002274
:086C570090C55DEEF0A3EFF023
:106C5F00A3745AF0A37401F090C55DE0FCA3E0FDAE
:106C6F00EC90C561F0A3EDF07B017AC5795F90C31D
:106C7F00E3E4F0A37402F07F847E001240241278C4
:106C8F00DE7B017AC5795F90C397E4F0A37402129B
:106C9F00393B90C55DE0FEA3E0FFA3E0B506DFA39F
:106CAF00E0B507DAE490C55FF0A3F0A3F0A3F07BA3
:106CBF00017AC5795F90C3E3F0A37402F07F167E6B
:046CCF00000240245B
:0872D90090C371EEF0A3EFF089
:1072E100E4A3F0A3F090C371E0FEA3E0FFC390C359
:1072F10074E09F90C373E09E5025E4FBFA7F017E0A
:10730100001278E20BBB00010ABA01F1BB2CEE902E
:0F731100C374E004F070CE90C373E004F080C644
:01732000224A
:10732100EF14601814602314602E24037039740163
:10733100A805088002C333D8FC42B7227401A8050E
:10734100088002C333D8FC42BC227401A80508801E
:1073510002C333D8FC42BD22AF057401A8070880DF
:0873610002C333D8FC42BE2236
:1071AC00EF1460191460251460312403703D7401D0
:1071BC00A805088002C333D8FCF452B7227401A886
:1071CC0005088002C333D8FCF452BC227401A80514
:1071DC00088002C333D8FCF452BD22AF057401A859
:0C71EC0007088002C333D8FCF452BE2216
:10656F00EF14602D14604A14606724036003026601
:10657F0001EB600E7401A805088002C333D8FC42FA
:10658F0080227401A805088002C333D8FCF452801E
:10659F0022EB600E7401A805088002C333D8FC42B9
:1065AF0090227401A805088002C333D8FCF45290DE
:1065BF0022EB600E7401A805088002C333D8FC4299
:1065CF00A0227401A805088002C333D8FCF452A09E
:1065DF0022EB600E7401A805088002C333D8FC4279
:1065EF00B022AF057401A807088002C333D8FCF4AA
:0365FF0052B02275
:10706600EF14601A1460271460342403704274010C
:10707600A805088002C333D8FC5580FE803474010D
:10708600A805088002C333D8FC5590FE80247401FD
:10709600A805088002C333D8FC55A0FE8014AF05AE
:1070A6007401A807088002C333D8FC55B0FE8002DD
:0470B600E4FEAF063F
:0170BA0022B3
:105473007B017AC5795590C397E4F0A37404F07F58
:10548300167E0012394090C555E0645A60030255F8
:1054930038A3E0FFB40134A3E0FCA3E0FD90C40C07
:1054A300ECF0A3EDF090C412ECF0A3EDF090C5592D
:1054B300E0FCA3E0FD90C410ECF0A3EDF090C43742
:1054C300ECF0A3EDF0A37401F08030EFB403269069
:1054D300C40AE0FFA3E090C437CFF0A3EFF090C479
:1054E30008E0FFA3E090C412CFF0A3EFF090C4391B
:1054F3007402F0800690C4397403F090C557E0FF3E
:10550300A3E090C408CFF0A3EFF090C559E0FFA348
:10551300E090C40ACFF0A3EFF0E490C555F07B010F
:105523007AC5795590C3E3F0A37402F07F167E0029
:10553300124024801190C556E0FF64026003EF70AF
:0B55430005E490C439F090C439E0FF8B
:01554E00223A
:0837490090C524EEF0A3EFF09F
:1037510012547390C526EFF0700690C407F0FF2253
:1037610090C526E0B4010F7AC4790E12393290C4A3
:10377100077401F0FF2290C40EE0FEA3E0FF90C5A4
:1037810024E06E7003A3E06F60037F012290C40800
:10379100E0FEA3E0FFC390C40DE09FFF90C40CE0E6
:1037A1009E90C43AF0A3EFF090C43AE0FCA3E0FD90
:1037B100FFAE0412074BEE3395E0FDFC90C52712D6
:1037C1000A7990C40AE0FEA3E0FFC390C411E09F10
:1037D100FF90C410E09E90C43CF0A3EFF090C43C75
:1037E100E0FCA3E0FDFFAE0412074BEE3395E0FDD4
:1037F100FC90C52B120A7990C526E064027079907D
:10380100C407E06401706B7F09FEFDFC90C52BE0ED
:10381100F8A3E0F9A3E0FAA3E0FBC31209FD501AF3
:10382100E47F09FEFDFC90C527E0F8A3E0F9A3E0E1
:10383100FAA3E0FBC31209FD4038E47F02FEFDFC60
:1038410090C52BE0F8A3E0F9A3E0FAA3E0FB12088E
:10385100C590C527E0F8A3E0F9A3E0FAA3E0FBD304
:103861001209FD90C40750057403F0FF227404F09F
:10387100FF2290C407E0FF2290C407E06401706E4C
:103881007F09FEFDFC90C52BE0F8A3E0F9A3E0FA67
:10389100A3E0FBC31209FD501AE47F09FEFDFC9071
:1038A100C527E0F8A3E0F9A3E0FAA3E0FBC31209FE
:1038B100FD4038E47F02FEFDFC90C52BE0F8A3E05B
:1038C100F9A3E0FAA3E0FB1208C590C527E0F8A32D
:1038D100E0F9A3E0FAA3E0FBD31209FD90C407507D
:1038E100057403F080087404F080037F022290C401
:1038F10007E0B4031E90C40AE0FEA3E0FFC390C436
:1039010038E09FFF90C437E09E90C440F0A3EFF0F1
:103911007F052290C408E0FEA3E0FFC390C413E03A
:103921009FFF90C412E09E90C43EF0A3EFF07F068B
:013931002273
:04750100021800006C
:10786E00E4F51D758911F58CF58AC28CF51AF51C97
:0E787E00438901758CBC758ACDD2A9D28C22AB
:03000B00026CD3B1
:0D6CD300C0E0C0D075D000C000C006C007F2
:106CE000C2AFE51D6002151D758CBC758ACD051BF4
:106CF00075320074017E00A832088005C333CE339C
:106D0000CED8F9FFEF551C602DE53225E02408F8B8
:106D100008E61618700116E53225E02408F8E6FEAC
:106D200008E64E7011AF3204A807088002C333D8BA
:0F6D3000FC421AF4521C0532E532B408B6D2AF59
:0B6D3F00D007D006D000D0D0D0E0324A
:03002B00027982D5
:10798200C0E0C2AFC2C6D2AF0519E5197002051830
:03799200D0E03210
:1076CC00C2AF7401A807088002C333D8FCFE421C69
:1076DC00EF25E02408F8A60408A605EEF4521AD209
:0276EC00AF22CB
:10795800C2AF7401A807088002C333D8FCF4521CD4
:05796800521AD2AF220B
:10799500C2AF7401A807088002C333D8FC551AFF8B
:0279A500D2AF5F
:0179A70022BD
:0B788C00D2B37F05127897D2B27F05BF
:10789700EF600EE4FE0EC3EE648094B240F71F80E3
:0178A700EFF1
:0178A80022BD
:047A410053BEF72217
:047A450043BE082212
:1078C400127A45D2B3D2B27F0F127897C2B37F0F28
:0A78D400127897C2B27F0F02789776
:0A7772007F0F127580AF03127580BF
:10777C00127A45C2B3D2B27F0F127897D2B37F0F71
:06778C00127897027A4119
:0F79F100127A45C2B312788EC2B27F0502789720
:0D7A1E00127A4512788CC2B27F050278976B
:1077F200127A4112788CE4FD30B30A7F0512789731
:0F7802000DEDB432F3C2B27F05127897027A45CA
:10757000127580E0FF12758012777C1278C47F64E8
:02758000AD0755
:10758200127A45E4FCED30E704D2B38002C2B3EDD7
:1075920025E0FD12788EC2B27F051278970CECB40A
:0575A20008E30277F28E
:0D75A7007F0F1275801278C47F6512758009
:1075B400127A41E4FC12788EED25E0FD30B30544E7
:1075C40001FD8004ED54FEFDC2B27F051278970CD4
:0675D400ECB408E1AF0574
:0175DA00228E
:105F880012757B1275A7AB071279F11275B4AA07BF
:105F9800127A1E12777CEB20E0030260365484608C
:105FA8000AEB547BFB12757B127772EB54FEFBEA0B
:105FB80030E713547FFA12757B7F10127580AF0299
:105FC80012758012777CEA4480FA12757B7F101272
:105FD8007580AF0212758012777CEB4484FB1275D2
:105FE8007B7F0F127580AF03127575E4FF12758001
:105FF800E4FF127580E4FF1275807F801275807F40
:10600800051275807F011275807F011275807F21CE
:1060180012758012777CEB547BFBEA547FFA127579
:0E6028007B7F10127580AF02127575127772B1
:016036002247
:1062420012757B1275A790C594EFF01279F1127551
:10625200B4A3EFF0127A1E12777CE04480F012753C
:106262007B7F10127580E0FF12758012777C90C5DB
:1062720094E04484F012757B7F0F127570E4FF1274
:1062820075809000061206EAFF12758090000512D2
:1062920006EAFF1275809000041206EAFF1275806A
:1062A2009000031206EAFF1275809000021206EABD
:1062B200FF1275809000011206EAFF127580120625
:1062C200D1FF12758012777C90C594E0547BF0A3C5
:1062D200E0547FF012757B7F101275707F0F12757C
:0C62E2008090C594E0FF12758002777C6C
:105C970012757BE4FF1275801278C47F65127580D8
:105CA7007B061275B4742F2BF582E434C5F583EFA8
:105CB700F01279F1DBEC1275B490C52FEFF0127A80
:105CC7001E12777C90C533E0547FF0E4FB742F2BD2
:105CD700F582E434C5F583E0FFC4540FFE90C53761
:105CE700F0EF540FFFA3F0EE75F00AA42FFF742F07
:105CF7002BF582E434C5F583EFF00BEBB403CE7BD1
:105D070004742F2BF582E434C5F583E0FFC4540FE8
:105D1700FE90C537F0EF540FFFA3F0EE75F00AA41D
:105D27002FFF742F2BF582E434C5F583EFF00BEBCF
:105D3700B407CEE490C536F07B017AC5792F90C3BE
:0D5D4700E3F0A37404F07F107E00024024FE
:1079A800EF75F00A84C454F0FEEF75F00A84E5F030
:0379B8004EFF225D
:0F7A0000EFC4540F75F00AA4FEEF540F2EFF22AF
:0766930090C56EEBF0AB07B0
:10669A00ED64016004EDB4021BED240CFEE43390BA
:1066AA00C56FF0A3CEF0EB24FFFEE434FFA3F0A302
:1066BA00CEF08012AF0590C56FE4F0A3EFF0AF0300
:1066CA00A3E4F0A3EFF090C570E02401FF90C56F3A
:1066DA00E03400FE7C007D1A12074B7D0A12075D2A
:1066EA00AC06AD0790C571E0FAA3E0FBAE027802F2
:1066FA00CEC313CE13D8F92BFFEA3ECF2DCF3CFEE3
:10670A0090C56EE07C002FFFEC3ECF24DCCF34FF37
:08671A00FE7D0712075DAF05CB
:016722002254
:106037007B017AC479EC90C397E4F0A37404F07FF2
:106047009C7E0012394090C4ECE0645A6003026001
:10605700E5A3E064A560030260E5A3E0FF1279A869
:1060670090C4F4EFF090C4EFE0FF1279A890C4F564
:10607700EFF090C4F0E0FF1279A890C4F6EFF0902B
:10608700C4EEE0FFA3E0FDA3E0FB12669390C4F724
:10609700EFF090C4F1E0FF1279A890C4F8EFF04454
:1060A70080F090C4F2E0FF1279A890C4F9EFF09065
:1060B700C4F3E0FF1279A890C4FAEFF07B017AC429
:1060C70079F4126242E490C4ECF0A3F07AC479EC5C
:0E60D70090C3E3F0A304F07F9C7E00124024EF
:0160E5002298
:1078F7007D027F031273217D037F03127321125CC4
:0979070097E4F518F51902603748
:10715E00AB07AA06A905A8047F007E387D317C0006
:10716E00120950C3E49F90C377F074049E90C376C7
:10717E00F043C9407D04E4FF1273217D05E4FF1244
:10718E0071AC43803075D88075985090C376E0FC12
:0D719E00A3E0FDECF5BA8DAA43A810D2AC19
:0171AB0022C1
:10729000AB07AA06A905A8047F007E707D627C006A
:1072A000120950C3E49F90C377F074049E90C37694
:1072B000F043C9207D06E4FF1273217D07E4FF122D
:1072C00071AC4380C0759B9090C376E0FCA3E0FD59
:0872D000ECF5BB8D9D439A0112
:0172D8002293
:10765900759680759780AB07AA06A905A8047F00CF
:107669007EC07D897C01120950AD07AC06ECF5D9C5
:07767900AF058FE743B80CD9
:0176800022E7
:1074810075A78075AB80AB07AA06A905A8047F0084
:107491007EC07D897C01120950AD07AC06ECF5AECA
:1074A100AF058FAF43B830E490A01BF0A3F0A3F079
:1074B100A3F090A023F090A01FF0A3F0A3F0A3F0FD
:0174C10022A8
:1070BB00EF14601B1460291460372403704490C3D1
:1070CB0072E0FCA3E0FDA3E0FEA3E0FF02715E9083
:1070DB00C372E0FCA3E0FDA3E0FEA3E0FF0272900D
:1070EB0090C372E0FCA3E0FDA3E0FEA3E0FF0276F9
:1070FB005990C372E0FCA3E0FDA3E0FEA3E0FF12F6
:03710B007481226A
:103E710090C379EFF0A3ECF0A3EDF0A3EBF0A3EA8C
:043E8100F0A3E9F0D1
:103E8500C2AFE4A3F0A3F090C37AE0FEA3E0FFC3C2
:103E950090C380E09F90C37FE09E4003023F49901E
:103EA500C37CE0FBA3E475F0011207C8A9F0FA1280
:103EB50006D1FF90C379E0FE75F009A42400F582D0
:103EC500E5F03488F583EE75F008A42583F583E0E5
:103ED500FCA3E0FD75F009EEA42400F582E5F034BD
:103EE50080F583EE75F008A42583F583E5822DF52D
:103EF50082E5833CF583EFF075F009EEA42400F527
:103F050082E5F03488F583EE75F008A42583F58302
:103F1500E475F0011207B275F009EEA42400F582EC
:103F2500E5F03488F583EE75F008A42583F583E084
:103F35005403F090C380E004F0700690C37FE00462
:103F4500F0023E8C90C379E01460421460701470E6
:103F550003023FF124036003024021908808E060DA
:103F65000302402104F0908802E0FEA3E02400F55E
:103F75008274803EF583E0F599908803E004F07043
:103F850006908802E004F090880202401D9090118E
:103F9500E0600302402104F090900BE0FEA3E024D2
:103FA50009F58274883EF583E0F59C90900CE00459
:103FB500F0700690900BE004F090900B805A90986A
:103FC5001AE0705804F0909814E0FEA3E02412F56E
:103FD5008274903EF583E0F59E909815E004F070AC
:103FE50006909814E004F0909814802C90A023E09B
:103FF500702A04F090A01DE0FEA3E0241BF5827456
:10400500983EF583E0F5AC90A01EE004F0700690B4
:0E401500A01DE004F090A01DE05403F0D2AF17
:01402300227A
:030023000267234E
:10672300C0E0C083C082C0D075D000C006C007C21D
:10673300AF30982AC298908804E0FEA3E02400F5C5
:106743008274843EF583E599F0908805E004F07047
:1067530006908804E004F0908804E05403F0309934
:106763003FC299908802E0FEA3E0FF908800E06EAC
:106773007003A3E06F602474002FF58274803EF5EC
:1067830083E0F599908803E004F07006908802E0B6
:1067930004F0908802E05403F08005908808E4F048
:0F67A300D2AFD007D006D0D0D082D083D0E03292
:03005300026F50E9
:106F5000C0E0C083C082C0D075D000C006C007C2E8
:106F6000AF5396FE909814E0FEA3E0FF909812E0D5
:106F70006E7003A3E06F602474122FF58274903E4C
:106F8000F583E0F59E909815E004F0700690981453
:106F9000E004F0909814E05403F0800590981AE40F
:106FA000F0D2AFD007D006D0D0D082D083D0E0329C
:03005B00027369C4
:10736900C0E0C083C082C0D075D000C006C2AF5390
:1073790097FE909816E0FEA3E02412F58274943EDD
:10738900F583E59FF0909817E004F0700690981641
:10739900E004F0909816E05403F0D2AFD006D0D0B4
:0773A900D082D083D0E03256
:03006300026FB079
:106FB000C0E0C083C082C0D075D000C006C007C288
:106FC000AF53A7FE90A01DE0FEA3E0FF90A01BE042
:106FD0006E7003A3E06F6024741B2FF58274983EDB
:106FE000F583E0F5AC90A01EE004F0700690A01DC3
:106FF000E004F090A01DE05403F0800590A023E48D
:10700000F0D2AFD007D006D0D0D082D083D0E0323B
:03006B000273B06D
:1073B000C0E0C083C082C0D075D000C006C2AF5349
:1073C000ABFE90A01FE0FEA3E0241BF582749C3E60
:1073D000F583E5ADF090A020E004F0700690A01FCA
:1073E000E004F090A01FE05403F0D2AFD006D0D05C
:0773F000D082D083D0E0320F
:0300830002643FD5
:10643F00C0E0C083C082C0D075D000C006C007C204
:10644F00AFE59B30E02E759B90539BFE90900DE037
:10645F00FEA3E02409F582748C3EF583E59CF09051
:10646F00900EE004F0700690900DE004F090900D07
:10647F00E05403F0E59B30E143759B90539BFD90F7
:10648F00900BE0FEA3E0FF909009E06E7003A3E095
:10649F006F602474092FF58274883EF583E0F59CB4
:1064AF0090900CE004F0700690900BE004F0909048
:1064BF000BE05403F08005909011E4F0D2AFD007B9
:0B64CF00D006D0D0D082D083D0E032C5
:1066020090C58FEBF0A3EAF0A3E9F07D02E4FF125C
:1066120073217D03E4FF1271AC7B017D02E4FF1262
:10662200656F43C98075F1FFE4F5F275F36075F4A7
:106632000175F88F30FCFD90C58FE0FBA3E0FAA353
:10664200E0F91206D1F5FA9000011206EAF5FB9084
:1066520000021206EAF5FC9000031206EAF5FDD2EA
:10666200FE20FEFDE4F5FAF5FBF5FCF5FDD2FE2079
:10667200FEFD75FAFF75FBFF75FCFF75FDFFD2FE8F
:1066820020FEFDE4F5F8758FA0E58F20E5FBD2B979
:0166920022E5
:1078A900E5E830E51553E8DF438F407FE87E0312B2
:0B78B90078E2538FBFE490BA28F02261
:1044C80075F1FFE4F5F275F36475F40175F88F3052
:1044D800FCFD90BA27E075F00DA42424F582E5F0E0
:1044E80034ADF583E0F5FAE4F5FBF5FCF5FDD2FE15
:1044F80020FEFD90BA27E0FB75F00DA42425F58277
:10450800E5F034ADF583E0FCA3E0FDA3E0FEA3E015
:10451800FF7818120A0E8FFA75F00DEBA42425F512
:1045280082E5F034ADF583E0FCA3E0FDA3E0FEA353
:10453800E0FF7810120A0E8FFB90BA27E0FB75F0A7
:104548000DA42425F582E5F034ADF583E0FCA3E065
:10455800FDA3E0FEA3E0FF7808120A0E8FFC75F0B9
:104568000DEBA42425F582E5F034ADF583A3A3A3D0
:10457800E0F5FDD2FE20FEFD90BA27E0FF75F00DB4
:10458800A42429F582E5F034ADF583E0F5FA75F059
:104598000DEFA4242AF582E5F034ADF583E0F5FBB0
:1045A80090BA27E0FF75F00DA4242BF582E5F034CE
:1045B800ADF583E0F5FC75F00DEFA4242CF582E54C
:1045C800F034ADF583E0F5FDD2FE20FEFD90BA276C
:1045D800E0FF75F00DA4242DF582E5F034ADF583E8
:1045E800E0F5FA75F00DEFA4242EF582E5F034AD70
:1045F800F583E0F5FB90BA27E0FF75F00DA4242FB2
:10460800F582E5F034ADF583E0F5FC75F00DEFA427
:104618002430F582E5F034ADF583E0F5FDD2FE20D7
:0C462800FEFD90BA27E004F0E4F5F82253
:062CA20090C4C4120A797F
:102CA800D390C4CAE0940090C4C9E09408400302D9
:102CB8002F1890C4C8E0FB90C4C430E70FE0FCA311
:102CC800E0FDA3E0FEA3E0FF7803800DE0FCA3E0B5
:102CD800FDA3E0FEA3E0FF7815120A2190C4D312E9
:102CE8000A7990BA26E0FA75F00DA42424F582E555
:102CF800F034ADF583E030E63890C4D3E0FCA3E0CF
:102D0800FDA3E0FEA3E0FF75F00DEAA42425F582FB
:102D1800E5F034ADF583120A79EB54C0FF75F00D78
:102D2800EAA42424F582E5F034ADF583EFF0022E11
:102D3800FC90C4C9E0FCA3E0FDAE047803CEC31345
:102D4800CE13D8F990C4D1F0ED5407A3F0E490C4A1
:102D5800D0F090C4C8E054C0FFE4FCFDFE90C4D796
:102D6800120A79E490C4CEF090C4D1E0FF90C4CEAA
:102D7800E0C39F4003022E2790C4D3E0FCA3E0FDEC
:102D8800A3E0FEA3E0FF90BA26E0FB75F00DA424B3
:102D980025F582E5F034ADF583120A7990C4D7E0C1
:102DA800FCA3E0FDA3E0FEA3E04408FF75F00DEBF3
:102DB800A42424F582E5F034ADF583EFF0E490C463
:102DC800CFF090C4CFE0FFC39408504490C4CBE048
:102DD800FBA3E0FAA3E0F990C4D0E0F58275830084
:102DE8001206EAFE90BA26E075F00DA42429F582B1
:102DF800E5F034ADF583E5822FF582E43583F5837C
:102E0800EEF090C4D0E004F090C4CFE004F080B2BB
:102E180090BA26E004F090C4CEE004F0022D709041
:102E2800C4D2E0FB7003022F02A3E0FCA3E0FDA3E1
:102E3800E0FEA3E0FF90BA26E075F00DA42425F586
:102E480082E5F034ADF583120A79AF0390C4D7A3B5
:102E5800E0F9A3E0FAA3E04FFF90BA26E075F00D81
:102E6800A42424F582E5F034ADF583EFF0E490C4B2
:102E7800CFF090C4D2E0FF90C4CFE0FEC39F50448F
:102E880090C4CBE0FBA3E0FAA3E0F990C4D0E0F54E
:102E9800827583001206EAFF90BA26E075F00DA449
:102EA8002429F582E5F034ADF583E5822EF582E438
:102EB8003583F583EFF090C4D0E004F090C4CFE000
:102EC80004F080AE90C4CFE0FFC39408502690BAB7
:102ED80026E075F00DA42429F582E5F034ADF583DC
:102EE800E5822FF582E43583F583E4F090C4CFE0E2
:102EF80004F080D090BA26E004F090BA28E0701070
:102F0800C2AF1244C8D2AF90BA287401F0438F04FC
:012F18002296
:03004B0002263852
:10263800C0E0C0F0C083C082C0D075D000C000C068
:0D26480001C002C003C004C005C006C007E9
:10265500C2AFE59130E70353913FE59120E60302D0
:1026650029385391BF75F1FF75F20075F36875F45C
:102675000175F8AF30FCFDD2FE20FEFD90C366E586
:10268500FAF0E0FF90BA24E075F00DA42424F58259
:10269500E5F034A0F583EFF0D2FE20FEFD90BA24DC
:1026A500E075F00DA42425F582E5F034A0F583C08E
:1026B50083C082E0FCA3E0FDA3E0FEA3E0FF780871
:1026C500120A21D082D083120A7990BA24E075F0DB
:1026D5000DA42425F582E5F034A0F583C083C082DE
:1026E500E0F8A3E0F9A3E0FAA3E0FBAFFAEB4FFFB4
:1026F500EAFEE9FDE8FCD082D083120A7990BA247B
:10270500E075F00DA42425F582E5F034A0F583C02D
:1027150083C082E0FCA3E0FDA3E0FEA3E0FF780810
:10272500120A21D082D083120A7990BA24E075F07A
:102735000DA42425F582E5F034A0F583C083C0827D
:10274500E0F8A3E0F9A3E0FAA3E0FBAFFBEB4FFF52
:10275500EAFEE9FDE8FCD082D083120A7990BA241A
:10276500E075F00DA42425F582E5F034A0F583C0CD
:1027750083C082E0FCA3E0FDA3E0FEA3E0FF7808B0
:10278500120A21D082D083120A7990BA24E075F01A
:102795000DA42425F582E5F034A0F583C083C0821D
:1027A500E0F8A3E0F9A3E0FAA3E0FBAFFCEB4FFFF1
:1027B500EAFEE9FDE8FCD082D083120A7990BA24BA
:1027C500E075F00DA42425F582E5F034A0F583C06D
:1027D50083C082E0FCA3E0FDA3E0FEA3E0FF780850
:1027E500120A21D082D083120A7990BA24E075F0BA
:1027F5000DA42425F582E5F034A0F583C083C082BD
:10280500E0F8A3E0F9A3E0FAA3E0FBAFFDEB4FFF8F
:10281500EAFEE9FDE8FCD082D083120A7990BA2459
:10282500E075F00DA42425F582E5F034A0F583C00C
:1028350083C082E0FCA3E0FDA3E0FEA3E0FF7803F4
:10284500120A0ED082D083120A7990C366E020E77F
:102855002D90BA24E075F00DA42425F582E5F03419
:10286500A0F583C083C082E0FCA3E0FDA3E0FEA346
:10287500E0FF7812120A0ED082D083120A7990C333
:1028850066E030E60302292FD2FE20FEFD90BA2431
:10289500E0FF75F00DA42429F582E5F034A0F58359
:1028A500E5FAF075F00DEFA4242AF582E5F034A0E1
:1028B500F583E5FBF075F00DEFA4242BF582E5F02B
:1028C50034A0F583E5FCF075F00DEFA4242CF5821A
:1028D500E5F034A0F583E5FDF0D2FE20FEFD90BACB
:1028E50024E0FF75F00DA4242DF582E5F034A0F564
:1028F50083E5FAF075F00DEFA4242EF582E5F034AA
:10290500A0F583E5FBF075F00DEFA4242FF582E526
:10291500F034A0F583E5FCF075F00DEFA42430F557
:1029250082E5F034A0F583E5FDF075F80090BA2452
:10293500E004F0E59130E51A5391DF90BA26E0FF07
:10294500A3E06F60081244C8438F04800590BA283D
:10295500E4F0E59130E4035391EFE59130E303535F
:1029650091F7E59130E2065391FB438F0475E8003A
:02297500D2AFDF
:10297700D007D006D005D004D003D002D001D000B4
:0B298700D0D0D082D083D0F0D0E0325E
:105ECD00507265666C6F77004E6F7468696E67000F
:105EDD0049676E6974696F6E00426567696E204926
:105EED0000496E6372656173650057656C64696E18
:105EFD0067004465637265617365696E6700456E21
:105F0D0064204900436C65616E696E6700466C6F75
:105F1D007720656E6400257320202020202020200E
:105F2D002020202020202025642025642025642089
:105F3D0025640A0D2564410A0D252E3166560A0D7C
:105F4D00252E3166730A0D676F6F643A2025640A3A
:105F5D000D6261643A2025640004FF031FFF5ECDCE
:105F6D00FF5ED5FF5EDDFF5EE6FF5EEEFF5EF7FFD7
:0B5F7D005EFFFF5F0BFF5F11FF5F1A6C
:0A7A370075F90175BCFD7590FD2284
:03000300026ADDB1
:106ADD00C0E0C0F0C083C082C0D075D000C000C07F
:106AED0001C002C003C004C005C006C0077F587EA8
:106AFD00021278E2E5B030E0F47F587E021278E2BF
:106B0D00E5B030E0F47F2C7E011278E2E5B030E0A4
:106B1D00F4E5B020E112E51DD394504005752C012C
:106B2D008003752C00751D647F017E001272D9C221
:106B3D0089C28BD007D006D005D004D003D002D0A7
:0E6B4D0001D000D0D0D082D083D0F0D0E03282
:03001300026B5B22
:106B5B00C0E0C0F0C083C082C0D075D000C000C000
:106B6B0001C002C003C004C005C006C0077F587E29
:106B7B00021278E2E5B030E1F47F587E021278E23F
:106B8B00E5B030E1F47F2C7E011278E2E5B030E124
:106B9B00F4E5B020E012E51DD394504005752C03AD
:106BAB008003752C02751D647F017E001272D9C2A1
:106BBB0089C28BD007D006D005D004D003D002D029
:0E6BCB0001D000D0D0D082D083D0F0D0E03204
:1051B80090C31A7401F0A3E4F0A3F0A37435F0A32C
:1051C800E4F0A37432F0A3E4F0A37414F0A3E4F0C1
:1051D800A37421F0A3E4F0A37464F0A3E4F0A3742F
:1051E80002F0A3E4F0A37496F0A3E4F0A37403F030
:1051F800A3E4F0A37464F0A3E4F0A37406F0A3E4BA
:10520800F0A3740BF0A3E4F0A3743CF0A3E4F0A3C0
:10521800740BF0A3E4F0A37403F0A3E4F0A37437D1
:10522800F0A3E4F0A304F0A3E4F0A304F0A3E4F0F3
:10523800A37402F0A3E4F0A304F0A3E4F0A37402BF
:10524800F090C346E4F0A37403F0A3E4F0A304F0E1
:10525800E490C348F0A3F0A3F0A37418F0A3E4F01B
:10526800A37419F0A3E4F0A3741AF0A3E4F0A374F0
:105278001BF0A3E4F0A37402F0A3E4F0A3741DF000
:10528800A3E4F0A3741EF0A3E4F0A3741FF0A3E456
:10529800F0A37420F0A3E4F0A37421F0A3E4F0A336
:0A52A8007478F0A3E4F0A304F022F0
:105BD00090C3AC74FFF0A3745FF0A37423F0E52DC1
:105BE00075F003A4246AF582E4345FF583E493F945
:105BF000740193FA74029390C3AFC9F0A3EAF0A3BF
:105C0000E9F0A3E52EF0A3E52FF0A3E530F0A3E53E
:105C100031F0A3E522F0A3E523F0A3E52AF0A3E504
:105C20002BF0A3E526F0A3E527F0AC28AD29E4127C
:105C300001A8E4FBFA7920784112010690C3BC1256
:105C40000A79AC24AD25E41201A8E4FBFA792078A6
:105C50004112010690C3C0120A7990C364E0FFA309
:105C6000E090C3C4CFF0A3EFF090C362E0FFA3E0E5
:105C700090C3C6CFF0A3EFF07B017AC179E812227E
:105C80001A7B017AC179E890C3E3E4F0A37432F09F
:075C90007F007E2502402485
:10299200EFB424004003022CA19029A2F828287346
:1029A200022A0E022B1B022B20022B25022B2A02AB
:1029B2002B2F022B34022B39022B3E022B43022BEC
:1029C20048022B4D022B52022B57022B5C022B6129
:1029D200022B6F022B72022B83022B98022BA9026D
:1029E2002C35022BBC022C82022B6F022B6F022B86
:1029F2006F022B6F022C88022B6F022B6F022B6F40
:0C2A0200022B6F022B6F022B66022C8D42
:102A0E0090C379E0F0A3E054F0F0784B120A34EE64
:102A1E005420FEE4FDFCEE90C379600AE0FEA3E0D4
:102A2E00540F44108008E0FEA3E0540F4420FF90A2
:102A3E00C379EEF0A3EFF0784B120A34EF5410FF87
:102A4E00E4FEFDFCEF7010784B120A34EF5420FFB9
:102A5E00E4FEFDFCEF600F90C379E054F0FEA3E0BE
:102A6E00FFEE4401803C784B120A34EF5404FFE42D
:102A7E00FEFDFCEF600F90C379E054F0FEA3E0FF83
:102A8E00EE4402801D784B120A34EF5408FFE4FE28
:102A9E00FDFCEF601490C379E054F0FEA3E0FFEE6E
:102AAE00440390C379F0A3EFF0784B120A34EF543D
:102ABE0001FFE4FEFDFCEF600F90C379E0540FFEC2
:102ACE00A3E0FFEE44108039784B120A34E4FFEE97
:102ADE005402FEE4FDFCEE600F90C379E0540FFE4D
:102AEE00A3E0FFEE44308019784B120A34EF540203
:102AFE00FFEF601490C379E0540FFEA3E0FFEE44A5
:0D2B0E002090C379F0A3EFF090C379804EC2
:102B1B0090BBFF804990BC01804490BC03803F90E8
:102B2B00BC05803A90BC07803590BC09803090BCC6
:102B3B000B802B90BC0D802690BC0F802190BC117C
:102B4B00801C90BC13801790BC15801290BC178012
:102B5B000D90BC19800890BC1B800390BC1DE0FE3F
:102B6B00A3E0FF22022C84784B120A34EF5440FF6F
:102B7B00E4FEEF60627F0122784B120A34E4FFEE31
:102B8B005408FEEE7E0060020F227F0222784B1269
:102B9B000A34E4FFFEEC540260020F228039784BBA
:102BAB00120A34EF5420FFE4FEEF60037F01228012
:102BBB0026784B120A34E4FFEE5440FEE4FDFCEEA3
:102BCB0060047E000F22784B120A34E4FFEE54802F
:102BDB00FEE4FDFCEE60057E007F0222784B120ABC
:102BEB0034E4FFFEED5401FDE4FCED60037F0322B2
:102BFB00784B120A34E4FFFEED5402FDE4FCED6069
:102C0B00037F0422784B120A34E4FFFEED5404FDDB
:102C1B00E4FCED60037F0522784B120A34E4FFFEDF
:102C2B00ED5408FDED606F7F0622784B120A34E4F9
:102C3B00FFFEED5410FDE4FCED60020F22784B1209
:102C4B000A34E4FFFEED5440FDE4FCED60037F022B
:102C5B0022784B120A34E4FFFEED5420FDE4FCED28
:102C6B0060037F0322784B120A34E4FFFEED54809D
:102C7B00FDED60227F04228004E4FEFF227E007FB4
:102C8B000122784B120A34E4FFEE5401FEEE7E0073
:072C9B0060020F227F0222FC
:104E9D007B017AC3797190C397E4F0A37403F07F1B
:104EAD00167E0012394090C371E0645A6003024FC0
:104EBD00ADF07B017AC3797390C3E3F0A304F07F67
:104ECD00167E0012402490C373E0F52EA3E0F52F5B
:104EDD00A3E0F530A3E0F53190C372E0752200F543
:074EED0023146003024FAD26
:104EF400E490C377F090BA4AE0FF90C377E0FEC332
:104F04009F4003024FA475F009EEA42477F582E5CF
:104F1400F034BCF583E0FEA3E0FF90C373E0FCA390
:104F2400E0FDC39FEC9E406F90C377E0FF75F009EE
:104F3400A4247BF582E5F034BCF583E0FAA3E0FB1E
:104F4400D3ED9BEC9A505075F009EFA42479F582C7
:104F5400E5F034BCF583E0FEA3E0FF90C375E0FC0C
:104F6400A3E0FDC39FEC9E402EA3E0FF75F009A4CF
:104F7400247DF582E5F034BCF583E0FAA3E0FBD3AD
:104F8400ED9BEC9A501190BC1FA3E0FAA3E0F582CC
:104F94008A83120B5C800990C377E004F0024EF917
:094FA40090C377E0752A00F52B9B
:014FAD0022E1
:101D2E0090A023E060030221B490A01FE0FEA3E088
:101D3E00FFA3E0FCA3E0FD6F7002EC6E70030221C6
:011D4E00B4E0
:101D4F00741B2DF582749C3CF583E090C371F09069
:101D5F00A022E004F0700690A021E004F090A021F2
:101D6F00E05403F090C316E014602824FD6036247D
:101D7F00FE605724FC7003021E50147003021E7D78
:101D8F00240B70A490C371E0B4A59D90C316740189
:101D9F00F0809590C371E0B4A50890C3167404F059
:101DAF0080860221A090C371E0FFB4A50590C24CBC
:101DBF008007EFB45A0690C24D7401F090C319EF2B
:101DCF00F090C3167406F0021D3790C371E0FFB494
:101DDF00A51790C24CE0B4010890C3167404F080AC
:101DEF000D90C24C7401F08005E490C24CF0EFB43A
:101DFF005A1290C24DE0B401030221A090C24D745B
:101E0F0001F08005E490C24DF090C371E0FF90C3E4
:101E1F0018E0244EF582E434C2F583EFF090C31836
:101E2F00E004F0A3E02402FFE433FE90C318E06F58
:101E3F007001EE6003021D3790C316740AF0021D85
:101E4F003790C371E0FFB45A0990C316740BF002B8
:101E5F001D37EFB4A50D90C3167401F0E490C318AD
:0E1E6F000221A8E490C318F090C3160221A827
:101E7D00E490C373F090C371E0FF645A601BEFB43C
:101E8D00A50C90C3167401F0E490C3188008E4907B
:101E9D00C318F090C3160221A890C3727401F0907C
:101EAD00C319E0FF90C372E0FED39F501A744E2EFB
:101EBD00F582E434C2F583E0FE90C373E02EF0901A
:101ECD00C372E004F080D8744F2FF582E434C2F56C
:101EDD0083E0FF90C373E06F6022E490C318F0902D
:101EED00C316F090C24DF090C24CF090C363E00465
:101EFD00F0700690C362E004F0021D3790C365E0F8
:101F0D0004F0700690C364E004F090C24FE024DA50
:101F1D007003021FB324F3700302214824F67003EB
:0A1F2D00022157241860030221A0CE
:101F370090C250E090C374F0D3942440030221A0D0
:101F470090C2B274A5F0A3F0A37404F0A374A5F033
:101F5700A37425F090C374E0FF90C2B7F0FD90C35F
:101F670075E4F0A3EDF012299290C375EEF0A3EF9C
:101F7700F090C375E0FCA3E090C2B8F0ECFFA3F0CB
:101F870090C2B7E0FE90C2B6E02EFE90C2B8E02E37
:101F97002F90C2BAF090C2BC745AF090C2BBF07BCB
:091FA700017AC279B27D0B7C00C5
:031FB000022141CA
:101FB30090C250E090C374F0D3942440030221A054
:101FC30090C2B374A5F090C2B2F090C374E0FD2543
:101FD300E0240290C2B4F0A374A6F0A37426F0A385
:101FE300EDF090C2B6E02D90C376F0E490C375F0A7
:0F1FF30090C374E0FEA3E0FFC39E40030220FAF8
:1020020012299290C377EEF0A3EFF090C375E0F936
:10201200641760030220A490C348F0A3F090C33E6B
:10202200E07004A3E06402700790C349E04401F049
:1020320090C342E07004A3E06402700790C349E0D9
:102042004402F090C33CE07004A3E0640270079085
:10205200C349E04404F090C360E07004A3E064026A
:10206200700790C349E04408F090C340E07004A3B5
:10207200E06402700790C349E04410F090C33AE074
:102082007004A3E06402700790C349E04440F090FA
:10209200C352E07004A3E06402700790C349E044B5
:1020A20080F090C377E0FEA3E0FDE925E0FC240484
:1020B200FB24B2F582E434C2F583EDF0EEFFEC24AA
:1020C20005FE24B2F582E434C2F583EFF074B22B3C
:1020D200F582E434C2F583E0FF90C376E02FFF740B
:0F20E200B22EF582E434C2F583E02F90C376F07E
:1020F10090C375E004F0021FF390C376E0FF90C334
:1021010075E0FE25E0FD240624B2F582E434C2F533
:1021110083EFF0ED240824B2F582E434C2F5837430
:102121005AF0EE25E0FF240724B2F582E434C2F52B
:1021310083745AF0EF2409FD7C007B017AC279B2E5
:052141007F03123E7156
:10214600805890C250E0FF6458604FEF14F52D8020
:01215600493F
:1021570090C252E0FE90C251E07C002400FFEC3EAA
:1021670090C374F0A3EFF090C250E0FFB4400C901E
:10217700C374E0F526A3E0F527801EEFB4410C9069
:10218700C374E0F528A3E0F529800EEFB4420A9066
:09219700C374E0F524A3E0F52572
:1021A000E490C318F090C316F090C24DF090C24C6A
:0421B000F0021D37E5
:0121B4002208
:106E890012753912786EC2AF53A9FE53B9FEC28981
:106E9900D288D2A8C28BD28AD2AAD2AF127A37129A
:106EA900539590C372120A850001C2007F031270C4
:106EB900BBE490C318F090C316F090C24DF090C295
:106EC9004CF01233641251B8C2AFE52C6404600867
:106ED900AF2C1279CE752C04D2AF121D2E124E9DF5
:056EE900125BD080E304
:037A4D00FF7A506D
:017A50002213
:106D4A00C2AFE4F5F1F5F275F30A75F40175F8AF1F
:106D5A0030FCFDD2FE20FEFDAFFA90C596E4F0A30A
:106D6A00EFF0E07F00FE90C596F0A3EFF0ADFBEDEB
:106D7A00FF90C596EEF0A3EFF0E4F5F8D2AF90C518
:106D8A0096E0FEA3E0FF907A4D75F003120AB6EE84
:106D9A0075F003A42583F583E493FB740193FA74D5
:0D6DAA000293F94A600789828A83120B5C0C
:016DB70022B9
:047A49000F40720078
:1069D700788B7CC57D017BFF7A7A79497E007F04BD
:1069E7001206AB90C372120A850001C200E4FF12BF
:1069F70070BB7B017AC5798B12660290BECE74019B
:106A0700F0A37484F0A37400F0A37401F0A3748856
:106A1700F0A37404F0A37401F0A37488F0A37406C0
:106A2700F0A37404F0A3E4F07B01A304F0A374BE05
:106A3700F0A374E4F0A3EBF0A374BFF0A374E4F045
:106A4700A3EBF0A374BFF0A374E6F0A37401F0A363
:026A5700E4F069
:016A5900221A
:106A5A007B017ABF79E890C397E4F0A37402F07FD0
:106A6A00007E0F12394090BFE8E0645A7062F07BF2
:106A7A00017ABF79E890C3E3F0A37402F07F007E45
:106A8A000F12402490BFEBE0FDC394C840027D641E
:106A9A0090BFE9E0FEA3E0FBAA0690BFE8745AF0B3
:106AAA00A374A5F0ED25E02404A3F0A37483F0EA0F
:106ABA00A3F0A3EBF0A3EDF0AE02AF037B017ABF24
:106ACA0079EF90C397E4F0A3EDF01239407F0122E9
:026ADA007F003B
:016ADC002297
:0B17F20090C4FCEBF0A3EAF0A3E9F0C8
:1017FD00C2AF900003120B021207DEFFAEF090C5D0
:10180D0007EEF0A3EFF0D2AF90C4FCE0FBA3E0FA3B
:10181D00A3E0F9900006120B021207DEFDACF06F8B
:10182D007002EC6E7003021D2BC390C508E09D90F5
:10183D00C507E09C90C4FCE0FBA3E0FAA3E0F950DF
:10184D0021900009120809FF90C508E02FFF90C5EF
:10185D0007E035F0CFC39DCF9C90C4FFF0A3EFF010
:10186D00801E900006120B021207DEFFC390C50802
:10187D00E09FFE90C507E095F090C4FFF0A3CEF079
:10188D00C390C500E0940690C4FFE0940050037F20
:10189D00002290C4FCE0FBA3E0FAA3E0F99000065F
:1018AD00120B021207DEFDACF090C4FCE0FBA3E0CE
:1018BD00FAA3E0F9120AE28D828C831206EAFF90F8
:1018CD00C505E4F0A3EFF0E0F8E4F0E890C505F00D
:1018DD00ED2401FFE43CFE90C509F0A3EFF090C4A8
:1018ED00FCE0FBA3E0FAA3E0F9900009120809FD62
:1018FD00C3EF9DEE95F04007E490C509F0A3F012FB
:10190D000AE290C509E0FEA3E0F5828E831206EA95
:10191D00FF90C505E0FEA3E04FFF90C505EEF0FE7C
:10192D00A3EFF064A57003EE645A6003021CD69019
:10193D00C4FCE0FBA3E0FAA3E0F9900006120B0251
:10194D001207DE2403FFE435F0FE90C509F0A3EF86
:10195D00F090C4FCE0FBA3E0FAA3E0F990000912BB
:10196D000809FDC3EF9DEE95F04007E490C509F021
:10197D00A3F0120AE290C509E0FEA3E0F5828E8382
:10198D001206EA64826003021B0490C4FCE0FBA310
:10199D00E0FAA3E0F9900006120B021207DE240212
:1019AD00FFE435F0FE90C509F0A3EFF090C4FCE024
:1019BD00FBA3E0FAA3E0F9900009120809FDC3EFBB
:1019CD009DEE95F04007E490C509F0A3F090C4FC9E
:1019DD00E0FBA3E0FAA3E0F9120AE290C509E0FEEC
:1019ED00A3E0F5828E831206EA2403FFE433FE9012
:1019FD00C501F0A3EFF0C390C500E09F90C4FFE0D8
:101A0D009E5003021D2BE490C503F0A3F090C50179
:101A1D00E0FEA3E0FFA3E0FCA3E0FDC39FEC9E402E
:101A2D0003021AD090C4FCE0FBA3E0FAA3E0F99006
:101A3D000006120B021207DEFFAEF090C4FCE0FBB5
:101A4D00A3E0FAA3E0F9120AE28F828E831206EA6E
:101A5D00FF74E82DF58274BF3CF583EFF090C4FC64
:101A6D00E0FBA3E0FAA3E0F9900006120B02E47587
:101A7D00F00112084190C4FCE0FBA3E0FAA3E0F9E9
:101A8D00900006120B021207DEFFAEF090C4FCE0D0
:101A9D00FBA3E0FAA3E0F9900009120809FDC3EFDA
:101AAD009DEE95F0400C900006120B02E4F5F0123D
:101ABD00087990C504E004F0700690C503E004F0C9
:101ACD00021A1A90BFECE0FEA3E0FF7B017ABF790A
:101ADD00EE90BFEAE024FDC313FD90C3E3E4F0A351
:101AED00EDF012402490BFEA7403F090BFEC744FF8
:101AFD00F0A3744B021C8790C4FCE0FBA3E0FAA397
:101B0D00E0F9120AE290C509E0FEA3E0F5828E83AA
:101B1D001206EA64836003021C8B90C4FCE0FBA3F5
:101B2D00E0FAA3E0F9900006120B021207DE240280
:101B3D00FFE435F0FE90C509F0A3EFF090C4FCE092
:101B4D00FBA3E0FAA3E0F9900009120809FDC3EF29
:101B5D009DEE95F04007E490C509F0A3F090C4FC0C
:101B6D00E0FBA3E0FAA3E0F9120AE290C509E0FE5A
:101B7D00A3E0F5828E831206EA2403FFE433FE9080
:101B8D00C501F0A3EFF0C390C500E09F90C4FFE046
:101B9D009E5003021D2BE490C503F0A3F090C501E8
:101BAD00E0FEA3E0FFA3E0FCA3E0FDC39FEC9E409D
:101BBD0003021C6090C4FCE0FBA3E0FAA3E0F990E3
:101BCD000006120B021207DEFFAEF090C4FCE0FB24
:101BDD00A3E0FAA3E0F9120AE28F828E831206EADD
:101BED00FF74E82DF58274BF3CF583EFF090C4FCD3
:101BFD00E0FBA3E0FAA3E0F9900006120B02E475F6
:101C0D00F00112084190C4FCE0FBA3E0FAA3E0F957
:101C1D00900006120B021207DEFFAEF090C4FCE03E
:101C2D00FBA3E0FAA3E0F9900009120809FDC3EF48
:101C3D009DEE95F0400C900006120B02E4F5F012AB
:101C4D00087990C504E004F0700690C503E004F037
:101C5D00021BAA90BFECE0FEA3E0FF7B017ABF79E7
:101C6D00EFA3E0FD90C397E4F0A3EDF0123940909F
:101C7D00BFEEE025E0240490BFEAF07F012290C47E
:101C8D00FCE0FBA3E0FAA3E0F9900006120B02E4DE
:101C9D0075F00112084190C4FCE0FBA3E0FAA3E04B
:101CAD00F9900006120B021207DEFFAEF090C4FC95
:101CBD00E0FBA3E0FAA3E0F9900009120809FDC3C7
:101CCD00EF9DEE95F04057804990C4FCE0FBA3E0FA
:101CDD00FAA3E0F9900006120B02E475F001120868
:101CED004190C4FCE0FBA3E0FAA3E0F990000612DA
:101CFD000B021207DEFFAEF090C4FCE0FBA3E0FA8E
:101D0D00A3E0F9900009120809FDC3EF9DEE95F0CF
:101D1D00400C900006120B02E4F5F01208797F00DA
:011D2D002293
:1048B80090BA25E0FF90BA24E06F70030249517561
:1048C800F00DEFA42425F582E5F034A0F583E0FC93
:1048D800A3E0FDA3E0FEA3E0FFE47B23FAF9F8C31D
:1048E8001209FD705E90BA25E075F00DA42424F538
:1048F80082E5F034A0F583E0540FFFE4FEEEC39F99
:10490800504190BA25E075F00DA42429F582E5F010
:1049180034A0F583E5822EF582E43583F583E0FD46
:1049280090BFE4E0FAA3E024E4F58274BE3AF5838C
:10493800EDF090BFE5E004F0700690BFE4E004F00D
:104948000E80BA90BA25E004F0126A5AEF6401703A
:104958004190BFEAE02403FDE433FC7B017ABF7990
:10496800E8E4FF123E71E490C4C8F090BFEAE02486
:1049780003FEE43390C4C9F0A3CEF0A37401F0A3FE
:1049880074BFF0A374E8F07F237E007D007C0012E2
:104998002CA27B017ABE79CE1217F2BF011590BF07
:1049A800EAE02403FDE433FC7B017ABF79E8E4FF05
:1049B800123E717B017ABE79D91217F2BF012CE43D
:1049C80090C4C8F090BFEAE02403FEE43390C4C961
:1049D800F0A3CEF0A37401F0A374BFF0A374E8F0C1
:0B49E8007F247E007D007C00122CA2CA
:0149F30022A1
:1079BB00FF988103FF988104FF988101FF98810054
:0379CB003511294A
:02750500C109BA
:10619500E490C573F0A3F0A374B0F0A374FAF0C251
:1061A50090C2947F057E001278E2E490C577F09066
:1061B500C575E0A330E704D2928002C292C2937FF4
:1061C500057E001278E2D2937F057E001278E29078
:1061D500C576E025E0F090C575E033F090C577E031
:1061E50004F0E0C3941040C7D2947F057E00127876
:1061F500E2E490C577F0C2937F057E001278E2D283
:10620500937F057E001278E290C574E025E0F0905A
:10621500C573E033F0309107E0F0A3E04401F0905E
:10622500C577E004F0E0C3941040CBD2907F057EA3
:0C623500001278E290C573E0FEA3E0FFC9
:01624100223A
:1060E600E490C578F0A3F0EFFF74FAA3CFF0A3EF26
:1060F600F0C290C2947F057E001278E2E490C57CDF
:10610600F090C57AE0A330E704D2928002C292C230
:10611600937F057E001278E2D2937F057E00127887
:10612600E290C57BE025E0F090C57AE033F090C5BB
:106136007CE004F0E0C3941040C7D2947F057E0053
:106146001278E2E490C57CF0C2937F057E00127857
:10615600E2D2937F057E001278E290C579E025E0D1
:10616600F090C578E033F0309107E0F0A3E0440109
:10617600F090C57CE004F0E0C3941040CBD2907F51
:0E618600057E001278E290C578E0FEA3E0FFEF
:0161940022E8
:10710E0090C37BEFF0C290C2947F057E001278E2AE
:10711E00E490C37AF090C37BE030E704D292800211
:10712E00C292C2937F057E001278E2D2937F057ED3
:10713E00001278E290C37BE025E0F090C37AE00481
:10714E00F0E0C3940840CED2907F057E000278E234
:0556FF00E4FDFC7FB892
:1057040090C37BEFF0ECA3F0A3EDF0C290C2947FC2
:10571400057E001278E2E490C37AF090C37BE03017
:10572400E704D2928002C292C2937F057E0012786F
:10573400E2D2937F057E001278E290C37BE025E0FD
:10574400F090C37AE004F0E0C3940840CED2947F92
:10575400057E001278E2E490C37AF090C37DE030D5
:10576400E704D2928002C292C2937F057E0012782F
:10577400E2D2937F057E001278E290C37DE025E0BB
:10578400F090C37AE004F0E0C3940840CEE490C300
:105794007AF090C37CE030E704D2928002C292C2D5
:1057A400937F057E001278E2D2937F057E00127803
:1057B400E290C37CE025E0F090C37AE004F0E0C31B
:0D57C400940840CED2907F057E000278E26E
:06639A007BFF7D047C0086
:0B63A00090C371EBF0A3EAF0A3E9F05A
:1063AB00AE04AF05A3EEF0A3EFF07FBC1257049041
:1063BB00C374E0FCA3E0FD7FBE1257047FBF1271D4
:1063CB000EC290D2947F057E001278E290C3747453
:1063DB00FFF5F01207C845F0605190C371E0FBA3C5
:1063EB00E475F0011207C8A9F0FA1206D190C37731
:1063FB00F0E490C376F090C376E0C3940850CDA33D
:10640B00E030E704D2928002C292C2937F057E00F5
:10641B001278E2D2937F057E001278E290C377E088
:10642B0025E0F090C376E004F080CBD2907F057E20
:04643B00000278E201
:1062EE0090C3777401F0A374C3F0A37475F090C3D8
:1062FE0075EFF0A3EDF090C371E4F0A37402F0FD1E
:10630E007C007FBC12570490C371E0FCA3E0FD7FBC
:10631E00BE1257047FBF12710EC290D2947F0F7EB1
:10632E00001278E290C37174FFF5F01207C845F0C1
:10633E00605190C377E0FBA3E475F0011207C8A982
:10634E00F0FA1206D190C374F0E490C373F090C3C8
:10635E0073E0C3940850CDA3E030E704D2928002DC
:10636E00C292C2937F0F7E001278E2D2937F0F7E8D
:10637E00001278E290C374E025E0F090C373E0045D
:0C638E00F080CBD2907F0F7E000278E2FE
:101272007A7979BB12639AE4FD7F011262EEE4FD92
:101282007F021262EE7D577F031262EE7DD37F04EE
:101292001262EEE4FD7F051262EE7D117F0612629C
:1012A200EE7D087F071262EEE4FD7F081262EEE433
:1012B200FD7F091262EE7D3F7F0A1262EEE4FD7F3E
:1012C2000B1262EEE4FD7F0C1262EEE4FD7F0D1262
:1012D20062EEE4FD7F0E1262EE7D3F7F0F1262EE40
:1012E2007D3F7F101262EEE4FD7F111262EEE4FD9B
:1012F2007F121262EEE4FD7F131262EEE4FD7F14B0
:101302001262EEE4FD7F151262EEE4FD7F161262B8
:10131200EEE4FD7F171262EEE4FD7F181262EEE446
:10132200FD7F191262EEE4FD7F1A1262EEE4FD7F88
:101332001B1262EEE4FD7F1C1262EEE4FD7F1D12C1
:1013420062EE7D407F1E1262EE7D807F1F1262EE92
:101352007D067F201262EE7D017F211262EEE4FDA6
:101362007F221262EEE4FD7F231262EEE4FD7F240F
:101372001262EEE4FD7F251262EEE4FD7F26126228
:10138200EEE4FD7F271262EE7D337F281262EE7D4E
:10139200337F291262EEE4FD7F2A1262EEE4FD7FC2
:1013A2002B1262EEE4FD7F2C1262EEE4FD7F2D1221
:1013B20062EEE4FD7F2E1262EEE4FD7F2F1262EEFA
:1013C200E4FD7F301262EEE4FD7F311262EEE4FD55
:1013D2007F321262EEE4FD7F331262EEE4FD7F346F
:1013E2001262EEE4FD7F351262EEE4FD7F36126298
:1013F200EEE4FD7F371262EE7D787F381262EEE412
:10140200FD7F391262EEE4FD7F3A1262EEE4FD7F67
:101412003B1262EEE4FD7F3C1262EEE4FD7F3D1280
:1014220062EEE4FD7F3E1262EEE4FD7F3F1262EE69
:10143200E4FD7F401262EEE4FD7F411262EEE4FDC4
:101442007F421262EEE4FD7F431262EEE4FD7F44CE
:101452001262EEE4FD7F501262EE7D237F51126232
:10146200EE7D457F521262EE7D677F531262EE7D02
:10147200897F541262EE7DAB7F551262EE7D017F51
:10148200561262EE7D237F571262EE7D457F58121F
:1014920062EE7D677F591262EE7D897F5A1262EE9B
:1014A2007DAB7F5B1262EE7DCD7F5C1262EE7DEFE3
:1014B2007F5D1262EEE4FD7F5E1262EE7D0D7F5F64
:1014C2001262EE7D0D7F601262EE7D0C7F61126210
:1014D200EE7D0C7F621262EE7D0F7F631262EE7D03
:1014E2000F7F641262EE7D0E7F651262EE7D0E7FCB
:1014F200661262EE7D087F671262EE7D027F6812DD
:1015020062EE7D027F691262EE7D027F6A1262EEF6
:101512007D027F6B1262EE7D027F6C1262EE7D02B3
:101522007F6D1262EE7D027F6E1262EE7D027F6F30
:101532001262EE7D147F701262EE7D157F7112626F
:10154200EE7D067F721262EE7D027F731262EE7D85
:10155200027F741262EE7D0D7F751262EE7D0D7F49
:10156200761262EE7D0C7F771262EE7D0C7F78122E
:1015720062EE7D0F7F791262EE7D0F7F7A1262EE4C
:101582007D0E7F7B1262EE7D0E7F7C1262EE7D0805
:101592007F7D1262EE7D027F7E1262EE7D027F7F90
:1015A2001262EE7D027F801262EE7D027F81126204
:1015B200EE7D027F821262EE7D027F831262EE7DF9
:1015C200027F841262EE7D027F851262EE7D147FBD
:1015D200861262EE7D157F871262EE7D067F88128B
:1015E20062EE7D027F891262EE7D027F8A1262EED6
:1015F2007A7979BF12639A7D3B7F6E1262EE7D57D4
:101602007F6F1262EE7D247F3A1262EE7D1F7F8D24
:101612001262EE7DBA7F871262EE7DD17FB21262D4
:10162200EE7D0B7F881262EE7D017F381262EEE45E
:10163200FD7F391262EE7D077FB51262EE7D757F06
:10164200311262EE7D987F3B1262EE7BFF7A7979EE
:10165200C312639C7D0A7F221262EE7D097F3112E2
:1016620062EE7D077F351262EE7D677F531262EE76
:101672007D847F551262EE7D867F501262EE7D82FE
:101682007F511262EE7D107F601262EEE4FD7F6296
:101692001262EEE4FD7FA01262EE7D127FA1126261
:1016A200EE7D1F7FA21262EE7D127FA31262EE7D9B
:1016B200167FA41262EE7D297FA51262EE7D1E7F47
:1016C200A61262EE7D1F7FA71262EE7D7E7FA812B8
:1016D20062EE7D1B7FA91262EE7D287FAA1262EE66
:1016E2007D6D7FAB1262EE7D197FAC1262EE7D18CA
:1016F2007FAD1262EE7D4C7FAE1262EE7D1E7FAF39
:101702001262EE7D237FB01262EE7D527FB11262D1
:10171200EE7D6D7FB21262EE7D3F7FB31262EEE428
:10172200FD7FC01262EE7D127FC11262EE7D207FCC
:10173200C21262EE7D107FC31262EE7D137FC4126D
:1017420062EE7D277FC51262EE7D1B7FC61262EEBE
:101752007D1D7FC71262EE7D757FC81262EE7D1F0E
:101762007FC91262EE7D287FCA1262EE7D687FCB4E
:101772001262EE7D1A7FCC1262EE7D187FCD12626C
:10178200EE7D4D7FCE1262EE7D257FCF1262EE7D21
:101792002E7FD01262EE7D537FD11262EE7D607F8A
:1017A200D21262EE7D3F7FD31262EE7BFF7A7979AD
:1017B200C712639C7BFF7A7979CB7D017C0012632F
:1017C200A07F8C7E001272D97BFF7A7979CC7D0161
:1017D2007C001263A07F787E001272D97BFF7A7937
:1017E20079CD7D017C001263A07FAA7E000272D9AE
:1075DB007D067C087FB11257047D227C187FB21286
:1075EB0057047D127C687FB31257047D207C037F88
:0D75FB00B41257047D007C057FB5025704D3
:105395007D507C007FB71257041256FFE4FDFC7F59
:1053A500B91257047D0A7C807FBA1257047D067CAA
:1053B500007FBB1257047D017C007FB9125704E4BE
:1053C500FDFC7FDE1257047D027C237FC912570442
:1053D5007F0A7E001272D91212727D517C017FB74D
:1053E5001257041256FFE4FDFC7FB91257047D15D0
:1053F5007C807FBA1257047D057C007FBB12570461
:105405007D017C007FB91257047D027C237FC91280
:1054150057047F0A7E001272D97D017C237FCA1250
:1054250057047D107C057FCB1257047D057C107FCA
:10543500CC1257047DFF7C007FD01257041275DB18
:105445007DD37C007FB61257047D037C007FDE127E
:1054550057047D047C007FD61257047D4B7C027F68
:0E546500B71257047F3C7E001272D9D2092282
:107010002564257300730041006D73002500252E43
:10702000316673002564730025646D730025644127
:107030000004FF031F0D7864008003FFFFDF0000E2
:10704000303700000003000003C00000003C0000D7
:107050000C000000300000F00000000FC000030032
:067060000000FFFB01052A
:1075070002440096024800180246028A044B021001
:0D7517005445014A0041BA29000242FFE03C
:0C76A80090C3837401F0A3745EF07D05B4
:1076B400AF05EC8FF012087990C383E0FFA3E0904C
:0876C4000002CF8FF0020898CC
:057A2B0090C59EEFF084
:067A300090BA29E004F009
:017A3600222D
:1056280090C37CE0FAA3E02FFBEA3EFA90C37EE049
:10563800F8A3E02FFFE83E90C3AFF0A3EFF090C3CC
:0E5648007AE090C3B1F090C37CE0FEA3E0FFD7
:1056560090C3A9EEF0A3EFF0A3ECF0A3EDF090BA9F
:105666004AE0D3943040030256FE90C3B1E0FF9067
:10567600BA4AE0FE75F009A42476F582E5F034BC5A
:10568600F583EFF090C3A9E0FCA3E0FD75F009EE09
:10569600A42477F582E5F034BCF583ECF0A3EDF0B5
:1056A60090C3ABE0FEA3E0FF90BA4AE0FD75F009B7
:1056B600A42479F582E5F034BCF583EEF0A3EFF08F
:1056C600AF0375F009EDA4247BF582E5F034BCF553
:1056D60083EAF0A3EFF090C3AFE0FEA3E0FF75F01E
:1056E60009EDA4247DF582E5F034BCF583EEF0A344
:0956F600EFF090BA4AE004F02242
:10314D0090C388E0FEA3E0FFC3940AEE9400500AFA
:10315D0090C393E4F0A304F0803AC3EF9464EE942B
:10316D0000500B90C393E4F0A37402F08026C3EFDC
:10317D0094E8EE9403500B90C393E4F0A37403F022
:10318D008012C3EF9410EE9427500990C393E4F08E
:10319D00A37404F090C38BE0FBA3E0FAA3E0F91253
:1031AD00796D90C38AE02FFF90C392E075F007A46C
:1031BD0024A3F582E5F034BAF583EFF090C38FE0E8
:1031CD0025E0FF90C38EE033FEC390C387E09FFFE1
:1031DD0090C386E09EFE907035E493FDC3EF9DFD98
:1031ED00EE9400FC90C384E0FEA3E0FF1276F9C0DC
:1031FD000190C392E075F007A4249FF974BA35F0DD
:10320D00A801FC7D01D0017E007F041206AB90C3A6
:10321D008EE0FEA3E0FF90C392E0FD75F007A424BD
:10322D00A4F582E5F034BAF583EEF0A3EFF075F076
:10323D0007EDA424A3F582E5F034BAF583E0FF9001
:10324D00C394E02FF090C393E03400F090C3AC74BE
:10325D00FFF0A37470F0A37410F090C388E0FFA387
:10326D00E090C3AFCFF0A3EFF090C38BE0F9A3E0F4
:10327D00FAA3E090C3B1C9F0A3EAF0A3E9F07B0192
:10328D007AC3799512221A90C384E0FAA3E0FB2445
:10329D00CEFFEA34FFFEC006C00790C38FE025E0E5
:1032AD00FF90C38EE033FEC390C387E09FFD90C3B4
:1032BD0086E09EFCEB784526FFEA1836CF2432FBDC
:1032CD00E43FFAE0FFA3E090C3AFCFF0A3EFF0A38C
:1032DD007401F0A374C3F0A37495F090C38EA3E0B2
:1032ED0090C3B4F090C390E0FFA3E090C3B5CFF0CE
:1032FD00A3EFF0D007D0061241B790C392E0F925A5
:10330D00E0244BF582E434BAF583EEF0A3EFF090B0
:10331D00C384E0FAA3E0FBFFAE02C006C00790C372
:10332D008FE025E0FF90C38EE033FEC390C387E0AE
:10333D009FFD90C386E09EFCEB784526FBEA183690
:10334D00FAE0FFA3E090C3AFCFF0A3EFF0A3E9F055
:07335D00D007D0060256560E
:0B49F40090C57DEFF0A3ECF0A3EDF008
:1049FF00C3940AEC94005008A3E4F0A304F0803FA2
:104A0F0090C57EE0FEA3E0FFC39464EE94005009CE
:104A1F00A3E4F0A37402F08026C3EF94E8EE9403AE
:104A2F00500B90C580E4F0A37403F08012C3EF9491
:104A3F0010EE9427500990C580E4F0A37404F09011
:104A4F00C57DE0FF75F007A424A3F582E5F034BA25
:104A5F00F583E0FD90C581E02DF090C580E0340036
:104A6F00F0EF25E0244BF582E434BAF583E0FEA3A2
:104A7F00E0FFC006C00790C57DE075F007A424A431
:104A8F00F582E5F034BAF583E0FCA3E0FD90C58034
:104A9F00E0FEA3E0FF12074BC37845E69FFF18E641
:104AAF009EFEE4FCFD7B02FAF9F812743D90C57D81
:104ABF00E0FD75F007A4249FF582E5F034BAF58385
:104ACF00E0FAA3E02FFFEA3EFE75F007EDA424A164
:104ADF00F582E5F034BAF583E0FCA3E0FD1276F938
:104AEF0078657CC57D017E007F041206ABD007D0B0
:104AFF000612792990C57DE025E0244BF582E43438
:104B0F00BAF583E0FEA3E0FF90C57EE0FCA3E0FDD5
:034B1F00025971C7
:10683E0078767CC37D017E007F041206AB787A7C6D
:10684E00C37D017B017AC379767E007F041206AB8D
:10685E0090C37AE0FEA3E0FF907036E493FDC39000
:10686E00C37DE09DFD90C37CE09400FC1276F97828
:10687E007E7CC37D017E007F041206AB90C37CE05C
:10688E00FCA3E0FDA3E0FAA3E0FBA3E0FFA3E090EE
:10689E00C38ACFF0A3EFF0907035E49390C38CF0E1
:1068AE00A37407F0A374E0F090C37AE0FEA3E0FFB8
:0968BE00123CBA7B017AC3797E19
:0168C70022AE
:1068C80078767CC37D017E007F041206AB787A7CE3
:1068D800C37D017B017AC379767E007F041206AB03
:1068E80090C37AE0FEA3E0FF907036E493FD90C376
:1068F8007DE02DFD90C37CE03400FC1276F9787EB3
:106908007CC37D017E007F041206AB90C37CE0FC53
:10691800A3E0FDA3E0FAA3E0FBA3E0FFA3E090C39C
:106928008ACFF0A3EFF0907035E49390C38CF0A376
:106938007407F0A374E0F090C37AE0FEA3E0FF12BE
:086948003CBA7B017AC3797EA1
:016950002224
:105D54007844E6FE08E6FF90C37BE02FFF90C37A09
:105D6400E03EFE90C37CE0FCA3E0FD1276F9787E71
:105D74007CC37D017E007F041206AB90C37CE0FCF3
:105D8400A3E0FDA3E0FAA3E0FBA3E0FFA3E090C33C
:105D94008ACFF0A3EFF0907035E49390C38CF0A316
:105DA4007407F0A374E0F090C37AE0FEA3E0FF125E
:105DB4003CBA90C37AE0FEA3E0FF7846E6FC08E62E
:105DC400FD1276F978847CC37D017E007F0412067F
:105DD400AB90BBFFE0FFA3E090C388CFF0A3EFF04C
:105DE400A37401F0A374FFF0A37470F0A37415F00E
:105DF400A3E4F0A37424F0A37407F0A374FFF0A346
:0C5E0400741AF012314D7B017AC3797ED4
:015E1000226F
:104C4B0078767CC37D017E007F041206AB787A7C7C
:104C5B00C37D017B017AC379767E007F041206AB9C
:104C6B007844E6FE08E6FF90C37BE02FFF90C37A03
:104C7B00E03EFE90C37CE0FCA3E0FD1276F9787E6B
:104C8B007CC37D017E007F041206AB90C37CE0FCED
:104C9B00A3E0FDA3E0FAA3E0FBA3E0FFA3E090C336
:104CAB008ACFF0A3EFF0907035E49390C38CF0A310
:104CBB007407F0A374E0F090C37AE0FEA3E0FF1258
:104CCB003CBA78847CC37D017B017AC3797A7E0000
:104CDB007F041206AB90BC01E0FFA3E090C388CF2A
:104CEB00F0A3EFF0E4A3F0A374FFF0A37470F0A3B0
:104CFB007417F07848E6FF08E6A3CFF0A3EFF0A314
:104D0B0074FFF0A374E0F0A3741BF012314D90C349
:104D1B007AE0FEA3E0FF7846E6FC08E6FD1276F9A2
:104D2B0078847CC37D017E007F041206AB90BC03AC
:104D3B00E0FFA3E090C388CFF0A3EFF0A37401F0E2
:104D4B00A374FFF0A37470F0A37415F0A3E4F0A3A5
:104D5B007424F0A37407F0A374FFF0A3741CF01277
:084D6B00314D7B017AC3797E12
:014D7300221D
:105A3F007844E6FE08E6FF90C37BE02FFF90C37A21
:105A4F00E03EFE907036E493FDC390C37DE09DFD74
:105A5F0090C37CE09400FC1276F9787E7CC37D01C4
:105A6F007E007F041206AB90C37CE0FCA3E0FDA395
:105A7F00E0FAA3E0FBA3E0FFA3E090C38ACFF0A37B
:105A8F00EFF0907035E49390C38CF0A37407F0A3FC
:105A9F0074E0F090C37AE0FEA3E0FF123CBA90C32B
:105AAF007AE0FEA3E0FF7846E6FC08E6FD1276F901
:105ABF0078847CC37D017E007F041206AB90BC0509
:105ACF00E0FFA3E090C388CFF0A3EFF0A37401F041
:105ADF00A374FFF0A37470F0A37415F0A3E4F0A304
:105AEF007424F0A37407F0A374FFF0A3741DF012D5
:085AFF00314D7B017AC3797E71
:015B0700227B
:103B000078767CC37D017E007F041206AB787A7CD8
:103B1000C37D017B017AC379767E007F041206ABF8
:103B2000907035E493C313FF90C382E4F0A3EFF0E9
:103B30007844E6FE08E6FF90C37BE02FFF90C37A4F
:103B4000E03EFE90C37CE0FCA3E0FD1276F9787EB7
:103B50007CC37D017E007F041206AB90C37CE0FC39
:103B6000A3E0FDA3E0FAA3E0FBA3E0FFA3E090C382
:103B70008ACFF0A3EFF0907035E49390C38CF0A35C
:103B80007407F0A374E0F090C37AE0FEA3E0FF12A4
:103B90003CBA90C37AE0FEA3E0FF7846E6FC08E674
:103BA000FD1276F978847CC37D017E007F041206C5
:103BB000AB90BC09E0FFA3E090C388CFF0A3EFF087
:103BC000A37403F0A374FFF0A37470F0A37419F04E
:103BD000A3E4F0A3741EF0A37407F0A374FFF0A392
:103BE000741FF012314D78847CC37D017B017AC350
:103BF000797A7E007F041206AB90BC07E0FFA3E059
:103C000090C388CFF0A3EFF0E4A3F0A374FFF0A378
:103C10007470F0A37417F07848E6FF08E6A3CFF0BD
:103C2000A3EFF0A374F8F0A3741FF0A314F0123103
:103C30004D784B120A34EE5401FEEE60767849E678
:103C400025E0FF18E633FE90C37DE02FFD90C37C96
:103C5000E03EFC907035E49375F002A42DFDE5F094
:103C60003CFC90C37AE0FEA3E0FF1276F978847CF6
:103C7000C37D017E007F041206AB90BC1DE0FFA354
:103C8000E090C388CFF0A3EFF0E4A3F0A374FFF0BB
:103C9000A37470F0A37417F07848E6FF08E6A3CF8A
:103CA000F0A3EFF0A374FFF0A374E0F0A37429F085
:093CB00012314D7B017AC3797ECB
:013CB90022E8
:104D740078767CC37D017E007F041206AB787A7C52
:104D8400C37D017B017AC379767E007F041206AB72
:104D94007844E6FE08E6FF90C37BE02FFF90C37AD9
:104DA400E03EFE90C37CE0FCA3E0FD1276F9787E41
:104DB4007CC37D017E007F041206AB90C37CE0FCC3
:104DC400A3E0FDA3E0FAA3E0FBA3E0FFA3E090C30C
:104DD4008ACFF0A3EFF0907035E49390C38CF0A3E6
:104DE4007407F0A374E0F090C37AE0FEA3E0FF122E
:104DF4003CBA90C37AE0FEA3E0FF7846E6FC08E6FE
:104E0400FD1276F978847CC37D017E007F0412064E
:104E1400AB90BC0DE0FFA3E090C388CFF0A3EFF00C
:104E2400A37403F0A374FFF0A37470F0A37419F0D7
:104E3400A3E4F0A3741EF0A37407F0A374FFF0A31B
:104E44007421F012314D78847CC37D017B017AC3D7
:104E5400797A7E007F041206AB90BC0BE0FFA3E0DE
:104E640090C388CFF0A3EFF0E4A3F0A374FFF0A302
:104E74007470F0A37417F07848E6FF08E6A3CFF047
:104E8400A3EFF0A374FFF0A374E0F0A37420F01276
:084E9400314D7B017AC3797EE8
:014E9C0022F3
:105B08007844E6FE08E6FF90C37BE02FFF90C37A57
:105B1800E03EFE907036E493FD90C37DE02DFD904D
:105B2800C37CE03400FC1276F9787E7CC37D017E6C
:105B3800007F041206AB90C37CE0FCA3E0FDA3E069
:105B4800FAA3E0FBA3E0FFA3E090C38ACFF0A3EFA2
:105B5800F0907035E49390C38CF0A37407F0A374AD
:105B6800E0F090C37AE0FEA3E0FF123CBA90C37A5B
:105B7800E0FEA3E0FF7846E6FC08E6FD1276F97839
:105B8800847CC37D017E007F041206AB90BC13E0C9
:105B9800FFA3E090C388CFF0A3EFF0A37401F0A3B4
:105BA80074FFF0A37470F0A37415F0A3E4F0A37469
:105BB80024F0A37407F0A374FFF0A37424F0123147
:075BC8004D7B017AC3797ED9
:015BCF0022B3
:104FAE007844E6FE08E6FF90C37BE02FFF90C37ABD
:104FBE00E03EFE90C37CE0FCA3E0FD1276F9787E25
:104FCE007CC37D017E007F041206AB90C37CE0FCA7
:104FDE00A3E0FDA3E0FAA3E0FBA3E0FFA3E090C3F0
:104FEE008ACFF0A3EFF0907035E49390C38CF0A3CA
:104FFE007407F0A374E0F090C37AE0FEA3E0FF1212
:10500E003CBA90C37AE0FEA3E0FF7846E6FC08E6E1
:10501E00FD1276F978847CC37D017E007F04120632
:10502E00AB90BC17E0FFA3E090C388CFF0A3EFF0E6
:10503E00A37401F0A374FFF0A37470F0A37415F0C1
:10504E00A3E4F0A37424F0A37407F0A374FFF0A3F9
:10505E007426F012314D78847CC37D017B017AC3B6
:10506E00797A7E007F041206AB90BC15E0FFA3E0B8
:10507E0090C388CFF0A3EFF0E4A3F0A374FFF0A3E6
:10508E007470F0A37417F07848E6FF08E6A3CFF02B
:10509E00A3EFF0A374FFF0A374E0F0A37425F01255
:0850AE00314D7B017AC3797ECC
:0150B60022D7
:105E11007844E6FE08E6FF90C37BE02FFF90C37A4B
:105E2100E03EFE90C37CE0FCA3E0FD1276F9787EB3
:105E31007CC37D017E007F041206AB90C37CE0FC35
:105E4100A3E0FDA3E0FAA3E0FBA3E0FFA3E090C37E
:105E51008ACFF0A3EFF0907035E49390C38CF0A358
:105E61007407F0A374E0F090C37AE0FEA3E0FF12A0
:105E71003CBA90C37AE0FEA3E0FF7846E6FC08E670
:105E8100FD1276F978847CC37D017E007F041206C1
:105E9100AB90BC19E0FFA3E090C388CFF0A3EFF073
:105EA100E4A3F0A374FFF0A37470F0A37415F0A33E
:105EB100E4F0A37424F0A37407F0A374FFF0A374B7
:0B5EC10027F012314D7B017AC3797E7F
:015ECC0022B3
:1058A3007844E6FE08E6FF90C37BE02FFF90C37ABF
:1058B300E03EFE907036E493FDC390C37DE09DFD12
:1058C30090C37CE09400FC1276F9787E7CC37D0162
:1058D3007E007F041206AB90C37CE0FCA3E0FDA333
:1058E300E0FAA3E0FBA3E0FFA3E090C38ACFF0A319
:1058F300EFF0907035E49390C38CF0A37407F0A39A
:1059030074E0F090C37AE0FEA3E0FF123CBA90C3C8
:105913007AE0FEA3E0FF90C380E0FCA3E0FD1276F3
:10592300F978847CC37D017E007F041206AB90BCB2
:105933001BE0FFA3E090C388CFF0A3EFF0E4A3F054
:10594300A374FFF0A37470F0A3741CF07848E6FF0F
:1059530008E6A3CFF0A3EFF0A374FFF0A374E0F085
:0D596300A37428F012314D7B017AC3797EC8
:015970002214
:05355800E490BA4AF006
:10355D0090C37CF0A3F090703893FE740193FFC379
:10356D0074209F90C37FF074039E90C37EF0784BC0
:10357D00120A3490C380120A79E490C37BF090C391
:10358D007AF0E4FFFEFDFC90C380E0F8A3E0F9A320
:10359D00E0FAA3E0FBC31209FD700302368A90C363
:1035AD0080A3A3A3E05401FFEF700302366890C31C
:1035BD007EE0FCA3E0FD907038E493FE740193FF70
:1035CD0090C37CE0FAA3E02FFBEA3EFA90C37EE0C5
:1035DD00F8A3E02FFFE83E90C3AFF0A3EFF090C348
:1035ED007B12564990C37AE025E0242AF582E43413
:1035FD00BAF583E0FEA3E0FF90C37BE0FD7C0012F3
:10360D00779290C37AE025E0242AF582E434BAF566
:10361D0083E0FEA3E0FFC006C00790C37CE0FEA3DD
:10362D00E0FFA3E0FCA3E0FD1276F978917CC37D69
:10363D00017E007F041206ABD007D00612791090E0
:10364D007038E493FE740193FF90C37DE02FF090EA
:10365D00C37CE03EF090C37AE004F090C380E0FCC0
:10366D00A3E0FDA3E0FEA3E0FF7801120A0E90C3D4
:10367D0080120A7990C37BE004F002358F90C37EEF
:10368D00E0FCA3E0FD907038E493FE740193FF120B
:10369D005628907038E493FE740193FF90C37DE03B
:1036AD002FF090C37CE03EF090C37EE0FCA3E0FDE4
:1036BD0012562890C37AE025E0242AF582E434BA24
:1036CD00F583E0FEA3E0FFE4FDFC12779290C37A50
:1036DD00E025E0242AF582E434BAF583E0FEA3E088
:1036ED00FFC006C00790C37CE0FEA3E0FFA3E0FC93
:1036FD00A3E0FD1276F978917CC37D017E007F04F5
:10370D001206ABD007D006127910E490C37AF0E41C
:10371D0090C3AFF0A3F0A3F0FBFAFDFCFFFE125631
:10372D005690C37AE004F0E0C3940640E290BC1FCB
:0B373D0074FFF0A3740BF0A37485F080
:01374800225E
:050B850090C384EFF0B5
:100B8A00A3120A850000000090C389740AF090C37A
:100B9A0089E0FFC394105070EF25E0242AF582E41F
:100BAA0034BAF583E0FEA3E0FF74FFFDFC127792EE
:100BBA0090C389E0FF75F009A42477F582E5F03443
:100BCA00BCF583E4F0A3F075F009EFA42479F5826B
:100BDA00E5F034BCF583E4F0A3F075F009EFA42442
:100BEA007BF582E5F034BCF583E4F0A3F075F009F7
:100BFA00EFA4247DF582E5F034BCF583E4F0A3F09C
:100C0A0090C389E004F0808690C384E0C3940840CE
:100C1A0003020EC5E490C389F090C389E0FBC39434
:100C2A00084003021271E47F01FEFDFC90C384E0D8
:100C3A0075F009A42476F582E5F034BCF583E0F971
:100C4A00F8120A21EB25E025E02442F582E434700B
:100C5A00F583120A5DEB5FFFEA5EFEE95DFDE85C83
:100C6A00FC4D4E4F7003020EBC90C389E025E0256F
:100C7A00E02442F582E43470F583120A40784AE6A9
:100C8A0025E025E0243AF582E43470F583120A5D02
:100C9A00EB5FFFEA5EFEE95DFDE85CFC90C385124E
:100CAA000A7990C385E0F8A3E0F9A3E0FAA3E0FB90
:100CBA00C000C001E47F01FEFDFC90C384E075F032
:100CCA0009A42476F582E5F034BCF583E0F9F8123C
:100CDA000A211209E2D001D000EB5FFFEA5EFEE9C9
:100CEA005DFDE85CFC90C385120A79E4FFFEFDFC19
:100CFA0090C385E0F8A3E0F9A3E0FAA3E0FBC312EE
:100D0A0009FD7003021271E490C38AF090C38974DA
:100D1A000AF090C384E0FF7E00907038E493FA747E
:100D2A000193FBFDAC0212074B90C38BEEF0A3EFCD
:100D3A00F0EB25E0FFEA33FEC374209F90C38EF0E8
:100D4A0074039E90C38DF0E4FFFEFDFC90C385E022
:100D5A00F8A3E0F9A3E0FAA3E0FBC31209FD7003CC
:100D6A0002127190C385A3A3A3E05401FFEF70039D
:100D7A00020E9AA3E025E0242AF582E434BAF58328
:100D8A00E0FEA3E0FFC006C00790C38BE0FEA3E02D
:100D9A00FFA3E0FCA3E0FD1276F978917CC37D0104
:100DAA007E007F041206ABD007D00612791090C3DA
:100DBA0089E025E0242AF582E434BAF583E0FEA32B
:100DCA00E0FF90C38AE0FD7C0012779290C38BE02B
:100DDA00FEA3E0FF90C389E0FD75F009A42477F52E
:100DEA0082E5F034BCF583EEF0A3EFF090C38DE01A
:100DFA00FAA3E0FB75F009EDA42479F582E5F03455
:100E0A00BCF583EAF0A3EBF0907038E493FC74012C
:100E1A0093FDEF2DFFEE3CFE90C389E0FD75F009CE
:100E2A00A4247BF582E5F034BCF583EEF0A3EFF061
:100E3A00907038E493FE740193FF90C38EE02FFF05
:100E4A0090C38DE03EFE75F009EDA4247DF582E5A0
:100E5A00F034BCF583EEF0A3EFF090C38AE0FF9084
:100E6A00C389E075F009A42476F582E5F034BCF56F
:100E7A0083EFF0907038E493FE740193FFC390C33C
:100E8A008EE09FF090C38DE09EF090C389E004F05D
:100E9A0090C385E0FCA3E0FDA3E0FEA3E0FF780198
:100EAA00120A0E90C385120A7990C38AE004F002EE
:100EBA000D5190C389E004F0020C2390C384E0FF33
:100ECA00D3940F401475F009EFA42476F582E5F067
:100EDA0034BCF583E0FF026BD9E490C389F090C378
:100EEA0089E0FBC394084003021271E47F01FEFD0E
:100EFA00FC90C384E075F009A42476F582E5F03409
:100F0A00BCF583E0F9F8120A21EB25E025E024423A
:100F1A00F582E43470F583120A5DEB5FFFEA5EFE48
:100F2A00E95DFDE85CFC4D4E4F7003021268784B98
:100F3A00120A5090C389E025E025E02442F582E4B4
:100F4A003470F583120A401209E2EB5FFFEA5EFE93
:100F5A00E95DFDE85CFC784B120A6D784B120A5089
:100F6A00C000C001E47F01FEFDFC90C384E075F07F
:100F7A0009A42476F582E5F034BCF583E0F9F81289
:100F8A000A21D001D000EB4FFFEA4EFEE94DFDE801
:100F9A004CFC784B120A6D90C384E075F009A424C6
:100FAA0076F582E5F034BCF583E014605F24FB2417
:100FBA00FD5061601124FD605B146058240D705768
:100FCA00E4784AF6804CE4784AF690C385E0F8A3C0
:100FDA00E0F9A3E0FAA3E0FB907046120A40120976
:100FEA00E2EB5FFFEA5EFEE95DFDE85CFC90C3852B
:100FFA00120A7990C385E0FCA3E0FDA3E0FEA3E01A
:10100A004440FFEC90C385120A798006784A76013B
:10101A0080028000123364784AE625E025E0243A0B
:10102A00F582E43470F583120A4008120A50EF5B25
:10103A00FFEE5AFEED59FDEC58FC90C385120A7971
:10104A00E490C389F090C389E0FFC394085020EF6D
:10105A0025E0242AF582E434BAF583E0FEA3E0FF12
:10106A0074FFFDFC12779290C389E004F080D6E405
:10107A0090C38AF090C389F090C38BF0A3F090706C
:10108A003893FE740193FFC374209F90C38EF0744B
:10109A00039E90C38DF0E4FFFEFDFC90C385E0F84B
:1010AA00A3E0F9A3E0FAA3E0FBC31209FD7003026F
:1010BA00120A90C385A3A3A3E05401FFEF700302B1
:1010CA0011E8A3E025E0242AF582E434BAF583E0A6
:1010DA00FEA3E0FFC006C00790C38BE0FEA3E0FFBB
:1010EA00A3E0FCA3E0FD1276F978917CC37D017E32
:1010FA00007F041206ABD007D00612791090C3897C
:10110A00E025E0242AF582E434BAF583E0FEA3E080
:10111A00FF90C38AE0FD7C0012779290C38BE0FEB9
:10112A00A3E0FF90C389E0FD75F009A42477F58256
:10113A00E5F034BCF583EEF0A3EFF090C38DE0FA4E
:10114A00A3E0FB75F009EDA42479F582E5F034BC3F
:10115A00F583EAF0A3EBF0907038E493FC74019302
:10116A00FDEF2DFFEE3CFE90C389E0FD75F009A46A
:10117A00247BF582E5F034BCF583EEF0A3EFF09022
:10118A007038E493FE740193FF90C38EE02FFF90B2
:10119A00C38DE03EFE75F009EDA4247DF582E5F0ED
:1011AA0034BCF583EEF0A3EFF090C38AE0FF90C35E
:1011BA0089E075F009A42476F582E5F034BCF5835C
:1011CA00EFF0907038E493FE740193FF90C38CE0C3
:1011DA002FF090C38BE03EF090C389E004F090C3F7
:1011EA0085E0FCA3E0FDA3E0FEA3E0FF7801120A7C
:1011FA000E90C385120A7990C38AE004F00210A007
:10120A0090C389E0FFC3940A505D75F009EFA424E6
:10121A0077F582E5F034BCF583E4F0A3F075F009C4
:10122A00EFA42479F582E5F034BCF583E4F0A3F069
:10123A0075F009EFA4247BF582E5F034BCF583E46C
:10124A00F0A3F075F009EFA4247DF582E5F034BC33
:10125A00F583E4F0A3F090C389E004F080A290C380
:07126A0089E004F0020EE828
:01127100225A
:102F190090C371EEF0A3EFF0AB05E025E0FF90C39D
:102F290071E033FE74222FF58274BC3EF583E0FC18
:102F3900A3E0FDAF03EF3395E0FE12074B90C37298
:102F4900E025E0FB90C371E033FA74CB2BF5827472
:102F5900BB3AF583EE8FF01207B290C371E0FEA37E
:102F6900E07802C333CE33CED8F92428F58274BE73
:102F79003EF583E0FCA3E0FD74CB2BF58274BB3AEC
:102F8900F583E0FEA3E0D39DEC6480F8EE648098BD
:102F9900401E90C372E025E0FF90C371E033FE74D8
:102FA900CB2FF58274BB3EF583ECF0A3EDF0805E88
:102FB90090C371E0FCA3E0FDAE047802C333CE33C5
:102FC900CED8F92426F58274BE3EF583E0FAA3E053
:102FD900FBED25E0FFEC33FE74CB2FF58274BB3E8D
:102FE900F583E0FEA3E0C39BEA6480F8EE64809871
:102FF900501C90C372E025E0FF90C371E033FE746A
:0E300900CB2FF58274BB3EF583EAF0A3EBF00B
:1030170090C371E0FEA3E0FFEE6003023111EF24DD
:10302700E4602314602024FE70030230D724FE706E
:10303700030230D724FD600E24FE600A1460572473
:103047000D600302311190C372E025E0FF90C37158
:10305700E033FE744B2FF58274BA3EF583E0FCA390
:10306700E0FDC004C00574CB2FF58274BB3EF58329
:10307700E0FCA3E0FDEC1201A8E4FBFA792078411B
:1030870012010690C37A120A797BFF7A70791ED0F3
:1030970005D0040231497BFF7A70792490C372E02E
:1030A70025E0FF90C371E033FE744B2FF58274BAAD
:1030B7003EF583E0FCA3E0FD74CB2FF58274BB3EA5
:1030C700F583E0FFA3E090C37ACFF0A3EFF080721F
:1030D7007BFF7A70792890C372E025E0FF90C37177
:1030E700E033FE744B2FF58274BA3EF583E0FCA300
:1030F700E0FD74CB2FF58274BB3EF583E0FFA3E0C0
:1031070090C37ACFF0A3EFF080387BFF7A70792DE8
:1031170090C372E025E0FF90C371E033FE744B2F3C
:10312700F58274BA3EF583E0FCA3E0FD74CB2FF57E
:103137008274BB3EF583E0FFA3E090C37ACFF0A390
:05314700EFF0126951D8
:01314C002260
:0279CE00AD0703
:1079D00090BBC5E0FEA3E0FFED90706293FD022F27
:0179E000198D
:056BD90090C38FEFF0F6
:106BDE007E0090BBC5E0FCA3E0FDB50705EEB50455
:106BEE000122ED25E0FFEC33FE744B2FF58274BAD3
:106BFE003EF583E0FEA3E0FF7842E6FC08E6FD12D8
:106C0E0077D290C38FE025E0244BF582E434BAF5B9
:106C1E0083E0FEA3E0FF1277317842A60608A607AE
:106C2E0090C38FE025E0244BF582E434BAF583E07F
:106C3E00FEA3E0FF7D1F7CF81277D290C38FE0FF9A
:086C4E0090BBC5E4F0A3EFF0D8
:016C5600221B
:10434A007B017ABE798E90C383E4F0A37464F07D16
:10435A00017C001276B47ABE79921276A87ABE7976
:10436A009690C383E4F0A37464F07D011276B47A64
:10437A00BE799A90C383E4F0A37464F01276B47A97
:10438A00BE799E1276A87ABE79A290C3837427F06A
:10439A00A37410F07D011276B47ABE79A61276A8BB
:1043AA007ABE79AA90C3837427F0A37410F07D01B2
