:0B00F800FFFF4457494E5435024727D4
:0E1E2B007B0190C0C9E4F0A304F07F147E0098
:101E390090C0C4EEF0A3EFF0A3EBF0A3EAF0A3E99E
:011E4900F0A8
:101E4A00E490C0CBF0A3F0A3F0A3F0A3F0A3F0A317
:101E5A00F0A3F090C0C9E0FAA3E0FB4A7003021FA6
:101E6A00F890C0C4E0FEA3E0FFC3E49FFFE49EFE37
:101E7A00E4FCFD90C0D3120AC4AF03AE02E4FCFD39
:101E8A0090C0D3E0F8A3E0F9A3E0FAA3E0FBC31201
:101E9A000A48501190C0D3A3A3E0FFA3E090C0C9A1
:101EAA00CFF0A3EFF090C0C4E0FCA3E0FDECC313B5
:101EBA00FFED1390C0CBCFF0A3EFF0ED5401FFA3D9
:101ECA00E4F0A3EFF0C2AFE4F5F190C0CBE0FCA3DD
:101EDA00E0FDECF5F28DF375F40175F8AF30FCFD19
:101EEA0090C0CDE07002A3E0603DD2FE20FEFD90DE
:101EFA00C0C6E0FBA3E475F00112084EA9F0FAE5AA
:101F0A00FC1207BF90C0C6E0FBA3E475F0011208FB
:101F1A004EA9F0FAE5FD1207BF90C0CAE024FFF00F
:101F2A0090C0C9E034FFF090C0C9E0FCA3E0FDEC2A
:101F3A00C313FFED1390C0CFCFF0A3EFF0ED540120
:101F4A00FFA3E4F0A3EFF090C0CF74FFF5F01208FE
:101F5A004E45F0605BD2FE20FEFD90C0C6E0FBA3BA
:101F6A00E475F00112084EA9F0FAE5FA1207BF90DB
:101F7A00C0C6E0FBA3E475F00112084EA9F0FAE529
:101F8A00FB1207BF90C0C6E0FBA3E475F00112087C
:101F9A004EA9F0FAE5FC1207BF90C0C6E0FBA3E425
:101FAA0075F00112084EA9F0FAE5FD1207BF8097F5
:101FBA0090C0D1E07002A3E0602FD2FE20FEFD9017
:101FCA00C0C6E0FBA3E475F00112084EA9F0FAE5D9
:101FDA00FA1207BF90C0C6E0FBA3E475F00112082D
:0E1FEA004EA9F0FAE5FB1207BFE4F5F8D2AFFE
:011FF80022C6
:1023630090C0E5EEF0A3EFF0A3EBF0A3EAF0A3E94E
:01237300F079
:10237400E490C0ECF0A3F0A3F0A3F0A3F0A3F090DA
:10238400C0EAE07002A3E070030224F590C0E5E027
:10239400FEA3E0FFC3E49FFFE49EFED390C0EBE006
:1023A4009F90C0EAE09E4005EEF0A3EFF090C0E5F8
:1023B400E0FAA3E0FBEAC313FCEB13FDEB5401FFCB
:1023C40090C0ECE4F0A3EFF0C2AFE4F5F1ECF5F269
:1023D400AF058FF375F40175F88330FCFD90C0EC04
:1023E400E07002A3E0603D90C0E7E0FBA3E475F079
:1023F4000112084EA9F0FA120779F5FC90C0E7E043
:10240400FBA3E475F00112084EA9F0FA120779F55E
:10241400FDD2FE20FEFD90C0EBE024FFF090C0EA68
:10242400E034FFF090C0EAE0FCA3E0FDECC313FF4E
:10243400ED1390C0EECFF0A3EFF0ED5401FFA3E451
:10244400F0A3EFF075F88F90C0EE74FFF5F012086A
:102454004E45F0605B90C0E7E0FBA3E475F0011229
:10246400084EA9F0FA120779F5FA90C0E7E0FBA349
:10247400E475F00112084EA9F0FA120779F5FB9001
:10248400C0E7E0FBA3E475F00112084EA9F0FA12CC
:102494000779F5FC90C0E7E0FBA3E475F0011208AE
:1024A4004EA9F0FA120779F5FDD2FE30FE9980FBB1
:1024B40090C0F0E07002A3E0603275F88C90C0E741
:1024C400E0FBA3E475F00112084EA9F0FA120779B3
:1024D400F5FA90C0E7E0FBA3E475F00112084EA9F9
:1024E400F0FA120779F5FBD2FE20FEFDE4F5F8D2EE
:0124F400AF38
:0124F50022C4
:10527E00C2AFC2D3C2D4E4F58E75C870F5CDF5CCED
:10528E0075CBBC75CACDD2ADD2C8F59375940175E8
:10529E00950275C960F5F875F901F5A8F5B8F59A96
:0752AE00F5A9F5B90253A8B0
:1053A8007F007E80E4F528F5290FEFAC0670010E2A
:1053B80014F5828C83E4F00529E52970020528B4E8
:0753C80000E7E528B480E2D4
:0153CF0022BB
:1054630090C343120AD055AA5AA57B017AC3794344
:1054730090C0EAE4F0A37402F07F047E0002236389
:0455EF007FF47E01C6
:1055F300EF4E6010E4FD0DEDC3941840F9EF1F70FA
:04560300EF1E80EC2A
:015607002280
:104C020090C278745AF0A374A5F0A3EEF0A3EFF06B
:104C1200A3EBF0A3EDF090C277E0600A90C27EE4CD
:104C2200F0A304F08007E490C27EF0A3F07B017A47
:104C3200C2797890C0EAE4F0A37404F07FB07E00F9
:104C42001223631255EF7B017AC2797890C0C9E4CE
:104C5200F0A304F07FB07E00121E3990C278E0709B
:014C6200E26F
:014C6300222E
:0552060090C32FEFF042
:10520B007B017AC3793090C0C9E4F0A37402F07FBC
:10521B00A07E00121E3990C32FE0A3F0A37401F0FF
:10522B00E490C333F07B017AC3793090C0EAF0A3EA
:0A523B007402F07FA07E00022363DE
:1030E50090C102E0FB90C2B5F090C103E0FCA3E003
:1030F500FDA3E0FEA3E0FF7810120A5990C2B6EFD7
:10310500F090C103E0FCA3E0FDA3E0FEA3E0FF789F
:1031150008120A5990C2B7EFF090C103A3A3A3E028
:1031250090C2B8F090C107E0FCA3E0FDEC90C2B9F5
:10313500F0A3EDF090C109E0FCA3E0FDEC90C2BB6B
:10314500F0A3EDF0EBB4A52890C10BE0FBA3E0FAEA
:10315500A3E04A4B601A90C107E0FEA3E0FF90C1CF
:103165000BA3A3E0F990C0EAECF0A3EDF012236302
:103175007B017AC279B590C0EAE4F0A37404F07FCC
:10318500087E001223631255EF7B017AC279B59050
:10319500C0C9E4F0A304F07F087E00121E3990C276
:1031A500B5E070E290C102E0B45A2F90C10BE0FB8C
:1031B500A3E0FAA3E04A4B602190C107E0FEA3E03B
:1031C500FF90C10BA3A3E0F990C109E0FDA3E09036
:1031D500C0C9CDF0A3EDF0121E397F327E00024F3B
:0131E5009752
:102FBC0090C280745AF090C0F2E090C281F064012B
:102FCC00706790C0F3A3E090C282F090C0F5E0FC73
:102FDC00A3E0FDA3E0FEA3E0FF7810120A5990C213
:102FEC0083EFF090C0F5E0FCA3E0FDA3E0FEA3E0CE
:102FFC00FF7808120A5990C284EFF090C0F5A3A391
:10300C00A3E090C285F090C0F9E0FCA3E0FDEC9049
:10301C00C286F0A3EDF090C0FBE0FCA3E0FDEC90C9
:10302C00C288F0A3EDF0E4803B90C0F2E064027043
:10303C0037A3E0FCA3E0FDEC90C282F0A3EDF0908E
:10304C00C0F9E0FCA3E0FDEC90C284F0A3EDF0909D
:10305C00C100E0FCA3E0FDEC90C286F0A3EDF0E42F
:10306C00A3F0A3F0A3F0A3F07B017AC2798090C007
:10307C00EAE4F0A37406F07FAA7E001223631255D3
:10308C00EF7B017AC2798090C0C9E4F0A304F07F91
:10309C00AA7E00121E3990C280E070E290C0F2E06D
:1030AC00B4012F90C0FDE0FBA3E0FAA3E04A4B6013
:1030BC002190C0F9E0FEA3E0FF90C0FDA3A3E0F9CE
:1030CC0090C0FBE0FDA3E090C0C9CDF0A3EDF012E1
:0930DC001E397F327E00024F977D
:0F56D5007AC37958121E2B90C358E0FEA3E0FF52
:0156E40022A3
:0848720090C31DEEF0A3EFF06E
:10487A00A3745AF0A37401F090C31DE0FCA3E0FDF9
:10488A00EC90C321F0A3EDF07B017AC3791F90C0AD
:10489A00EAE4F0A37402F07F847E001223631255C7
:1048AA00EF7B017AC3791F90C0C9E4F0A3740212A6
:1048BA001E3490C31DE0FEA3E0FFA3E0B506DFA30C
:1048CA00E0B507DAE490C31FF0A3F0A3F0A3F07BEE
:1048DA00017AC3791F90C0EAF0A37402F07F167EB2
:0448EA000002236342
:084F970090C0C4EEF0A3EFF09E
:104F9F00E4A3F0A3F090C0C4E0FEA3E0FFC390C071
:104FAF00C7E09F90C0C6E09E5025E4FBFA7F017ECC
:104FBF00001255F30BBB00010ABA01F1BB2CEE90A6
:0F4FCF00C0C7E004F070CE90C0C6E004F080C60A
:014FDE0022B0
:104FDF00EF14601814602314602E240370397401C9
:104FEF00A805088002C333D8FC42B7227401A80574
:104FFF00088002C333D8FC42BC227401A805088084
:10500F0002C333D8FC42BD22AF057401A807088044
:08501F0002C333D8FC42BE229B
:104E6A00EF1460191460251460312403703D740135
:104E7A00A805088002C333D8FCF452B7227401A8EB
:104E8A0005088002C333D8FCF452BC227401A80579
:104E9A00088002C333D8FCF452BD22AF057401A8BE
:0C4EAA0007088002C333D8FCF452BE227B
:10449D00EF14602D14604A14606724036003024515
:1044AD002FEB600E7401A805088002C333D8FC42BF
:1044BD0080227401A805088002C333D8FCF4528011
:1044CD0022EB600E7401A805088002C333D8FC42AC
:1044DD0090227401A805088002C333D8FCF45290D1
:1044ED0022EB600E7401A805088002C333D8FC428C
:1044FD00A0227401A805088002C333D8FCF452A091
:10450D0022EB600E7401A805088002C333D8FC426B
:10451D00B022AF057401A807088002C333D8FCF49C
:03452D0052B02267
:104D2400EF14601A14602714603424037042740171
:104D3400A805088002C333D8FC5580FE8034740172
:104D4400A805088002C333D8FC5590FE8024740162
:104D5400A805088002C333D8FC55A0FE8014AF0513
:104D64007401A807088002C333D8FC55B0FE800242
:044D7400E4FEAF06A4
:014D78002218
:103799007B017AC279BD90C0C9E4F0A37404F07FBB
:1037A900167E00121E3990C2BDE0645A60030238C9
:1037B9005EA3E0FFB40134A3E0FCA3E0FD90C113D4
:1037C900ECF0A3EDF090C119ECF0A3EDF090C2C1BB
:1037D900E0FCA3E0FD90C117ECF0A3EDF090C13E31
:1037E900ECF0A3EDF0A37401F08030EFB403269060
:1037F900C111E0FFA3E090C13ECFF0A3EFF090C16B
:103809000FE0FFA3E090C119CFF0A3EFF090C14002
:103819007402F0800690C1407403F090C2BFE0FFCB
:10382900A3E090C10FCFF0A3EFF090C2C1E0FFA3D6
:10383900E090C111CFF0A3EFF0E490C2BDF07B019D
:103849007AC279BD90C0EAF0A37402F07F167E00B7
:10385900122363801190C2BEE0FF64026003EF701F
:0B38690005E490C140F090C140E0FF7A
:013874002231
:081A640090C28CEEF0A3EFF03C
:101A6C0012379990C28EEFF0700690C10EF0FF22E3
:101A7C0090C28EE0B4010F7AC17915121E2B90C161
:101A8C000E7401F0FF2290C115E0FEA3E0FF90C29E
:101A9C008CE06E7003A3E06F60037F012290C10F96
:101AAC00E0FEA3E0FFC390C114E09FFF90C113E0E0
:101ABC009E90C141F0A3EFF090C141E0FCA3E0FD8A
:101ACC00FFAE041207D1EE3395E0FDFC90C28F12ED
:101ADC000AC490C111E0FEA3E0FFC390C118E09FBF
:101AEC00FF90C117E09E90C143F0A3EFF090C1436B
:101AFC00E0FCA3E0FDFFAE041207D1EE3395E0FD50
:101B0C00FC90C293120AC490C28EE0640270799069
:101B1C00C10EE06401706B7F09FEFDFC90C293E086
:101B2C00F8A3E0F9A3E0FAA3E0FBC3120A48501AA9
:101B3C00E47F09FEFDFC90C28FE0F8A3E0F9A3E07E
:101B4C00FAA3E0FBC3120A484038E47F02FEFDFC16
:101B5C0090C293E0F8A3E0F9A3E0FAA3E0FB12092A
:101B6C001E90C28FE0F8A3E0F9A3E0FAA3E0FBD348
:101B7C00120A4890C10E50057403F0FF227404F051
:101B8C00FF2290C10EE0FF2290C10EE06401706E46
:101B9C007F09FEFDFC90C293E0F8A3E0F9A3E0FA04
:101BAC00A3E0FBC3120A48501AE47F09FEFDFC9027
:101BBC00C28FE0F8A3E0F9A3E0FAA3E0FBC3120A9A
:101BCC00484038E47F02FEFDFC90C293E0F8A3E0AD
:101BDC00F9A3E0FAA3E0FB12091E90C28FE0F8A370
:101BEC00E0F9A3E0FAA3E0FBD3120A4890C10E502F
:101BFC00057403F080087404F080037F022290C106
:101C0C000EE0B4031E90C111E0FEA3E0FFC390C12F
:101C1C003FE09FFF90C13EE09E90C147F0A3EFF0E4
:101C2C007F052290C10FE0FEA3E0FFC390C11AE034
:101C3C009FFF90C119E09E90C145F0A3EFF07F0685
:011C4C002275
:0450B50002180000DD
:10557F00E4F51D758911F58CF58AC28CF51AF51CA9
:0E558F00438901758CBC758ACDD2A9D28C22BD
:03000B000249E2C5
:0D49E200C0E0C0D075D000C000C006C00706
:1049EF00C2AFE51D6002151D758CBC758ACD051B08
:1049FF0075270074017E00A827088005C333CE33C6
:104A0F00CED8F9FFEF551C602DE52725E02408F8D7
:104A1F0008E61618700116E52725E02408F8E6FECB
:104A2F0008E64E7011AF2704A807088002C333D8D9
:0F4A3F00FC421AF4521C0527E527B408B6D2AF83
:0B4A4E00D007D006D000D0D0D0E0325E
:03002B0002566416
:10566400C0E0C2AFC2C6D2AF0519E5197002051871
:03567400D0E03251
:10541F00C2AF7401A807088002C333D8FCFE421C38
:10542F00EF25E02408F8A60408A605EEF4521AD2D8
:02543F00AF229A
:10563A00C2AF7401A807088002C333D8FCF4521C15
:05564A00521AD2AF224C
:10567700C2AF7401A807088002C333D8FC551AFFCC
:02568700D2AFA0
:0156890022FE
:0B559D00D2B37F051255A8D2B27F05E3
:1055A800EF600EE4FE0EC3EE648094B240F71F80F5
:0155B800EF03
:0155B90022CF
:04573B0053BEF72240
:04573F0043BE08223B
:1055D50012573FD2B3D2B27F0F1255A8C2B37F0F75
:0A55E5001255A8C2B27F0F0255A8AC
:0A5483007F0F1252C5AF031252C58D
:10548D0012573FC2B3D2B27F0F1255A8D2B37F0FBE
:06549D001255A802573B66
:0F56E50012573FC2B312559FC2B27F050255A89C
:0D57030012573F12559DC2B27F050255A8F6
:1055030012573B12559DE4FD30B30A7F051255A88F
:0F5513000DEDB432F3C2B27F051255A802573F17
:1052B5001252C5E0FF1252C512548D1255D57F64A6
:0252C500AD0733
:1052C70012573FE4FCED30E704D2B38002C2B3EDDE
:1052D70025E0FD12559FC2B27F051255A80CECB40C
:0552E70008E30255037D
:0D52EC007F0F1252C51255D57F651252C5B5
:1052F90012573BE4FC12559FED25E0FD30B3054400
:1053090001FD8004ED54FEFDC2B27F051255A80CC3
:06531900ECB408E1AF0551
:01531F00226B
:103EA2001252C01252ECAB071256E51252F9AA078F
:103EB20012570312548DEB20E003023F50548460EA
:103EC2000AEB547BFB1252C0125483EB54FEFBEA02
:103ED20030E713547FFA1252C07F101252C5AF025C
:103EE2001252C512548DEA4480FA1252C07F101247
:103EF20052C5AF021252C512548DEB4484FB1252CA
:103F0200C07F0F1252C5AF031252BAE4FF1252C55C
:103F1200E4FF1252C5E4FF1252C57F801252C57FE0
:103F2200051252C57F011252C57F011252C57F216F
:103F32001252C512548DEB547BFBEA547FFA125293
:0E3F4200C07F101252C5AF021252BA12548341
:013F5000224E
:10415C001252C01252EC90C35AEFF01256E51252A2
:10416C00F9A3EFF012570312548DE04480F0125271
:10417C00C07F101252C5E0FF1252C512548D90C36D
:10418C005AE04484F01252C07F0F1252B5E4FF1271
:10419C0052C5900006120792FF1252C590000512EC
:1041AC000792FF1252C5900004120792FF1252C5DB
:1041BC00900003120792FF1252C590000212079250
:1041CC00FF1252C5900001120792FF1252C512073E
:1041DC0079FF1252C512548D90C35AE0547BF0A350
:1041EC00E0547FF01252C07F101252B57F0F125262
:0C41FC00C590C35AE0FF1252C502548D5A
:103C77001252C0E4FF1252C51255D57F651252C5C4
:103C87007B061252F974972BF582E434C2F583EF61
:103C9700F01256E5DBEC1252F990C297EFF012578B
:103CA7000312548D90C29BE0547FF0E4FB74972B72
:103CB700F582E434C2F583E0FFC4540FFE90C29F3F
:103CC700F0EF540FFFA3F0EE75F00AA42FFF7497DF
:103CD7002BF582E434C2F583EFF00BEBB403CE7B14
:103CE7000474972BF582E434C2F583E0FFC4540FC4
:103CF700FE90C29FF0EF540FFFA3F0EE75F00AA4F9
:103D07002FFF74972BF582E434C2F583EFF00BEBAA
:103D1700B407CEE490C29EF07B017AC2799790C037
:0D3D2700EAF0A37404F07F107E0002236315
:10568A00EF75F00A84C454F0FEEF75F00A84E5F071
:03569A004EFF229E
:0F56F400EFC4540F75F00AA4FEEF540F2EFF22DF
:0745C10090C334EBF0AB07DF
:1045C800ED64016004EDB4021BED240CFEE43390AD
:1045D800C335F0A3CEF0EB24FFFEE434FFA3F0A331
:1045E800CEF08012AF0590C335E4F0A3EFF0AF032F
:1045F800A3E4F0A3EFF090C336E02401FF90C335A5
:10460800E03400FE7C007D1A1207D17D0A1207E310
:10461800AC06AD0790C337E0FAA3E0FBAE02780220
:10462800CEC313CE13D8F92BFFEA3ECF2DCF3CFED5
:1046380090C334E07C002FFFEC3ECF24DCCF34FF66
:08464800FE7D071207E3AF0538
:014650002247
:103F51007B017AC2794690C0C9E4F0A37404F07F72
:103F61009C7E00121E3990C246E0645A6003023FF3
:103F7100FFA3E064A56003023FFFA3E0FF12568A9E
:103F810090C24EEFF090C249E0FF12568A90C24FA4
:103F9100EFF090C24AE0FF12568A90C250EFF090C3
:103FA100C248E0FFA3E0FDA3E0FB1245C190C2516E
:103FB100EFF090C24BE0FF12568A90C252EFF044EC
:103FC10080F090C24CE0FF12568A90C253EFF090FD
:103FD100C24DE0FF12568A90C254EFF07B017AC2C3
:103FE100794E12415CE490C246F0A3F07AC2794660
:0E3FF10090C0EAF0A304F07F9C7E00122363D0
:013FFF00229F
:105608007D027F03124FDF7D037F03124FDF123CC1
:0956180077E4F518F519023F5181
:104E1C00AB07AA06A905A8047F007E387D317C006B
:104E2C001209A9C3E49F90C0CAF074049E90C0C933
:104E3C00F043C9407D04E4FF124FDF7D05E4FF120F
:104E4C004E6A43803075D88075985090C0C9E0FC8C
:0D4E5C00A3E0FDECF5BA8DAA43A810D2AC7E
:014E69002226
:104F4E00AB07AA06A905A8047F007E707D627C00CF
:104F5E001209A9C3E49F90C0CAF074049E90C0C900
:104F6E00F043C9207D06E4FF124FDF7D07E4FF12F8
:104F7E004E6A4380C0759B9090C0C9E0FCA3E0FDD3
:084F8E00ECF5BB8D9D439A0177
:014F960022F8
:1053D000759680759780AB07AA06A905A8047F007B
:1053E0007EC07D897C011209A9AD07AC06ECF5D918
:0753F000AF058FE743B80C85
:0153F7002293
:1051C50075A78075AB80AB07AA06A905A8047F0063
:1051D5007EC07D897C011209A9AD07AC06ECF5AE50
:1051E500AF058FAF43B830E490A01BF0A3F0A3F058
:1051F500A3F090A023F090A01FF0A3F0A3F0A3F0DC
:015205002286
:104D7900EF14601B1460291460372403704490C039
:104D8900C5E0FCA3E0FDA3E0FEA3E0FF024E1C90FA
:104D9900C0C5E0FCA3E0FDA3E0FEA3E0FF024F4E87
:104DA90090C0C5E0FCA3E0FDA3E0FEA3E0FF025331
:104DB900D090C0C5E0FCA3E0FDA3E0FEA3E0FF1294
:034DC90051C522AF
:1021B00090C2C5EFF0A3ECF0A3EDF0A3EBF0A3EA1F
:0421C000F0A3E9F0AF
:1021C400C2AFE4A3F0A3F090C2C6E0FEA3E0FFC355
:1021D40090C2CCE09F90C2CBE09E40030222889044
:1021E400C2C8E0FBA3E475F00112084EA9F0FA128C
:1021F4000779FF90C2C5E0FE75F009A42400F582BA
:10220400E5F03488F583EE75F008A42583F583E0C2
:10221400FCA3E0FD75F009EEA42400F582E5F0349A
:1022240080F583EE75F008A42583F583E5822DF50A
:1022340082E5833CF583EFF075F009EEA42400F504
:1022440082E5F03488F583EE75F008A42583F583E0
:10225400E475F00112083875F009EEA42400F58243
:10226400E5F03488F583EE75F008A42583F583E062
:102274005403F090C2CCE004F0700690C2CBE004AA
:10228400F00221CB90C2C5E0146042146070147057
:102294000302233024036003022360908808E06073
:1022A4000302236004F0908802E0FEA3E02400F51A
:1022B4008274803EF583E0F599908803E004F07021
:1022C40006908802E004F090880202235C9090114A
:1022D400E0600302236004F090900BE0FEA3E0248E
:1022E40009F58274883EF583E0F59C90900CE00437
:1022F400F0700690900BE004F090900B805A909848
:102304001AE0705804F0909814E0FEA3E02412F54B
:102314008274903EF583E0F59E909815E004F07089
:1023240006909814E004F0909814802C90A023E078
:10233400702A04F090A01DE0FEA3E0241BF5827433
:10234400983EF583E0F5AC90A01EE004F070069092
:0E235400A01DE004F090A01DE05403F0D2AFF5
:012362002258
:0300230002465141
:10465100C0E0C083C082C0D075D000C006C007C210
:10466100AF30982AC298908804E0FEA3E02400F5B8
:104671008274843EF583E599F0908805E004F0703A
:1046810006908804E004F0908804E05403F0309927
:104691003FC299908802E0FEA3E0FF908800E06E9F
:1046A1007003A3E06F602474002FF58274803EF5DF
:1046B10083E0F599908803E004F07006908802E0A9
:1046C10004F0908802E05403F08005908808E4F03B
:0F46D100D2AFD007D006D0D0D082D083D0E03285
:03005300024C64F8
:104C6400C0E0C083C082C0D075D000C006C007C2F7
:104C7400AF5396FE909814E0FEA3E0FF909812E0E4
:104C84006E7003A3E06F602474122FF58274903E5B
:104C9400F583E0F59E909815E004F0700690981462
:104CA400E004F0909814E05403F0800590981AE41E
:104CB400F0D2AFD007D006D0D0D082D083D0E032AB
:03005B0002502729
:10502700C0E0C083C082C0D075D000C006C2AF53F5
:1050370097FE909816E0FEA3E02412F58274943E42
:10504700F583E59FF0909817E004F07006909816A6
:10505700E004F0909816E05403F0D2AFD006D0D019
:07506700D082D083D0E032BB
:03006300024CC488
:104CC400C0E0C083C082C0D075D000C006C007C297
:104CD400AF53A7FE90A01DE0FEA3E0FF90A01BE051
:104CE4006E7003A3E06F6024741B2FF58274983EEA
:104CF400F583E0F5AC90A01EE004F0700690A01DD2
:104D0400E004F090A01DE05403F0800590A023E49B
:104D1400F0D2AFD007D006D0D0D082D083D0E0324A
:03006B0002506ED2
:10506E00C0E0C083C082C0D075D000C006C2AF53AE
:10507E00ABFE90A01FE0FEA3E0241BF582749C3EC5
:10508E00F583E5ADF090A020E004F0700690A01F2F
:10509E00E004F090A01FE05403F0D2AFD006D0D0C1
:0750AE00D082D083D0E03274
:0300830002440232
:10440200C0E0C083C082C0D075D000C006C007C261
:10441200AFE59B30E02E759B90539BFE90900DE094
:10442200FEA3E02409F582748C3EF583E59CF090AE
:10443200900EE004F0700690900DE004F090900D64
:10444200E05403F0E59B30E143759B90539BFD9054
:10445200900BE0FEA3E0FF909009E06E7003A3E0F2
:104462006F602474092FF58274883EF583E0F59C11
:1044720090900CE004F0700690900BE004F09090A5
:104482000BE05403F08005909011E4F0D2AFD00716
:0B449200D006D0D0D082D083D0E03222
:1045300090C34FEBF0A3EAF0A3E9F07D02E4FF1291
:104540004FDF7D03E4FF124E6A7B017D02E4FF1220
:10455000449D43C98075F1FFE4F5F275F36075F48D
:104560000175F88F30FCFD90C34FE0FBA3E0FAA388
:10457000E0F9120779F5FA900001120792F5FB9025
:104580000002120792F5FC900003120792F5FDD28B
:10459000FE20FEFDE4F5FAF5FBF5FCF5FDD2FE206C
:1045A000FEFD75FAFF75FBFF75FCFF75FDFFD2FE82
:1045B00020FEFDE4F5F8758FA0E58F20E5FBD2B96C
:0145C00022D8
:1055BA00E5E830E51553E8DF438F407FE87E0312C4
:0B55CA0055F3538FBFE490BA28F02285
:1027E70075F1FFE4F5F275F36475F40175F88F3050
:1027F700FCFD90BA27E075F00DA42424F582E5F0DE
:1028070034ADF583E0F5FAE4F5FBF5FCF5FDD2FE12
:1028170020FEFD90BA27E0FB75F00DA42425F58274
:10282700E5F034ADF583E0FCA3E0FDA3E0FEA3E013
:10283700FF7818120A598FFA75F00DEBA42425F5C5
:1028470082E5F034ADF583E0FCA3E0FDA3E0FEA351
:10285700E0FF7810120A598FFB90BA27E0FB75F05A
:102867000DA42425F582E5F034ADF583E0FCA3E063
:10287700FDA3E0FEA3E0FF7808120A598FFC75F06C
:102887000DEBA42425F582E5F034ADF583A3A3A3CE
:10289700E0F5FDD2FE20FEFD90BA27E0FF75F00DB2
:1028A700A42429F582E5F034ADF583E0F5FA75F057
:1028B7000DEFA4242AF582E5F034ADF583E0F5FBAE
:1028C70090BA27E0FF75F00DA4242BF582E5F034CC
:1028D700ADF583E0F5FC75F00DEFA4242CF582E54A
:1028E700F034ADF583E0F5FDD2FE20FEFD90BA276A
:1028F700E0FF75F00DA4242DF582E5F034ADF583E6
:10290700E0F5FA75F00DEFA4242EF582E5F034AD6D
:10291700F583E0F5FB90BA27E0FF75F00DA4242FAF
:10292700F582E5F034ADF583E0F5FC75F00DEFA425
:102937002430F582E5F034ADF583E0F5FDD2FE20D5
:0C294700FEFD90BA27E004F0E4F5F82251
:0617ED0090C20D120AC4B7
:1017F300D390C213E0940090C212E0940840030215
:101803001A6390C211E0FB90C20D30E70FE0FCA316
:10181300E0FDA3E0FEA3E0FF7803800DE0FCA3E07E
:10182300FDA3E0FEA3E0FF7815120A6C90C21C1220
:101833000AC490BA26E0FA75F00DA42424F582E5D3
:10184300F034ADF583E030E63890C21CE0FCA3E051
:10185300FDA3E0FEA3E0FF75F00DEAA42425F582C5
:10186300E5F034ADF583120AC4EB54C0FF75F00DF7
:10187300EAA42424F582E5F034ADF583EFF0021AEF
:101883004790C212E0FCA3E0FDAE047803CEC3137D
:10189300CE13D8F990C21AF0ED5407A3F0E490C226
:1018A30019F090C211E054C0FFE4FCFDFE90C22089
:1018B300120AC4E490C217F090C21AE0FF90C21754
:1018C300E0C39F400302197290C21CE0FCA3E0FD39
:1018D300A3E0FEA3E0FF90BA26E0FB75F00DA4247D
:1018E30025F582E5F034ADF583120AC490C220E0F9
:1018F300FCA3E0FDA3E0FEA3E04408FF75F00DEBBD
:10190300A42424F582E5F034ADF583EFF0E490C22E
:1019130018F090C218E0FFC39408504490C214E03A
:10192300FBA3E0FAA3E0F990C219E0F58275830006
:10193300120792FE90BA26E075F00DA42429F582D1
:10194300E5F034ADF583E5822FF582E43583F58345
:10195300EEF090C219E004F090C218E004F080B2F7
:1019630090BA26E004F090C217E004F00218BB908E
:10197300C21BE0FB7003021A4DA3E0FCA3E0FDA32E
:10198300E0FEA3E0FF90BA26E075F00DA42425F550
:1019930082E5F034ADF583120AC4AF0390C220A3ED
:1019A300E0F9A3E0FAA3E04FFF90BA26E075F00D4B
:1019B300A42424F582E5F034ADF583EFF0E490C27E
:1019C30018F090C21BE0FF90C218E0FEC39F504482
:1019D30090C214E0FBA3E0FAA3E0F990C219E0F58A
:1019E30082758300120792FF90BA26E075F00DA46A
:1019F3002429F582E5F034ADF583E5822EF582E402
:101A03003583F583EFF090C219E004F090C218E03B
:101A130004F080AE90C218E0FFC39408502690BA39
:101A230026E075F00DA42429F582E5F034ADF583A5
:101A3300E5822FF582E43583F583E4F090C218E064
:101A430004F080D090BA26E004F090BA28E0701039
:101A5300C2AF1227E7D2AF90BA287401F0438F04C4
:011A63002260
:03004B0002149309
:10149300C0E0C0F0C083C082C0D075D000C000C01F
:0D14A30001C002C003C004C005C006C007A0
:1014B000C2AFE59130E70353913FE59120E6030287
:1014C00017935391BF75F1FF75F20075F36875F4CA
:1014D0000175F8AF30FCFDD2FE20FEFD90C07CE52A
:1014E000FAF0E0FF90BA24E075F00DA42424F58210
:1014F000E5F034A0F583EFF0D2FE20FEFD90BA2493
:10150000E075F00DA42425F582E5F034A0F583C044
:1015100083C082E0FCA3E0FDA3E0FEA3E0FF780827
:10152000120A6CD082D083120AC490BA24E075F0FB
:101530000DA42425F582E5F034A0F583C083C08294
:10154000E0F8A3E0F9A3E0FAA3E0FBAFFAEB4FFF6A
:10155000EAFEE9FDE8FCD082D083120AC490BA24E6
:10156000E075F00DA42425F582E5F034A0F583C0E4
:1015700083C082E0FCA3E0FDA3E0FEA3E0FF7808C7
:10158000120A6CD082D083120AC490BA24E075F09B
:101590000DA42425F582E5F034A0F583C083C08234
:1015A000E0F8A3E0F9A3E0FAA3E0FBAFFBEB4FFF09
:1015B000EAFEE9FDE8FCD082D083120AC490BA2486
:1015C000E075F00DA42425F582E5F034A0F583C084
:1015D00083C082E0FCA3E0FDA3E0FEA3E0FF780867
:1015E000120A6CD082D083120AC490BA24E075F03B
:1015F0000DA42425F582E5F034A0F583C083C082D4
:10160000E0F8A3E0F9A3E0FAA3E0FBAFFCEB4FFFA7
:10161000EAFEE9FDE8FCD082D083120AC490BA2425
:10162000E075F00DA42425F582E5F034A0F583C023
:1016300083C082E0FCA3E0FDA3E0FEA3E0FF780806
:10164000120A6CD082D083120AC490BA24E075F0DA
:101650000DA42425F582E5F034A0F583C083C08273
:10166000E0F8A3E0F9A3E0FAA3E0FBAFFDEB4FFF46
:10167000EAFEE9FDE8FCD082D083120AC490BA24C5
:10168000E075F00DA42425F582E5F034A0F583C0C3
:1016900083C082E0FCA3E0FDA3E0FEA3E0FF7803AB
:1016A000120A59D082D083120AC490C07CE020E78D
:1016B0002D90BA24E075F00DA42425F582E5F034D0
:1016C000A0F583C083C082E0FCA3E0FDA3E0FEA3FD
:1016D000E0FF7812120A59D082D083120AC490C057
:1016E0007CE030E60302178AD2FE20FEFD90BA2489
:1016F000E0FF75F00DA42429F582E5F034A0F58310
:10170000E5FAF075F00DEFA4242AF582E5F034A097
:10171000F583E5FBF075F00DEFA4242BF582E5F0E1
:1017200034A0F583E5FCF075F00DEFA4242CF582D0
:10173000E5F034A0F583E5FDF0D2FE20FEFD90BA81
:1017400024E0FF75F00DA4242DF582E5F034A0F51A
:1017500083E5FAF075F00DEFA4242EF582E5F03460
:10176000A0F583E5FBF075F00DEFA4242FF582E5DD
:10177000F034A0F583E5FCF075F00DEFA42430F50E
:1017800082E5F034A0F583E5FDF075F80090BA2409
:10179000E004F0E59130E51A5391DF90BA26E0FFBE
:1017A000A3E06F60081227E7438F04800590BA28F2
:1017B000E4F0E59130E4035391EFE59130E3035316
:1017C00091F7E59130E2065391FB438F0475E800F1
:0217D000D2AF96
:1017D200D007D006D005D004D003D002D001D0006B
:0B17E200D0D0D082D083D0F0D0E03215
:09573200253032580004FF031F6A
:0D50B90042C078000041BF720041BF73008B
:0A57280075F90175BCFD7590FD22B6
:10569D0053A9FE53B9FEC289D288D2A8C28BD28A31
:0356AD00D2AA225C
:030003000248EEC2
:1048EE00C0E0C0F0C083C082C0D075D000C000C090
:1048FE0001C002C003C004C005C006C007C2AF7F1E
:10490E00207E031255F3E5B030E0F47F207E0312D3
:10491E0055F3E5B030E0F47F2C7E011255F3E5B08F
:10492E0030E0F4E5B020E10AE51DD3945040037564
:10493E001D647F017E00124F97C289C28BD2AFD009
:10494E0007D006D005D004D003D002D001D000D0BD
:0A495E00D0D082D083D0F0D0E03238
:0300130002496837
:10496800C0E0C0F0C083C082C0D075D000C000C015
:1049780001C002C003C004C005C006C007C2AF7FA3
:10498800207E031255F3E5B030E1F47F207E031258
:1049980055F3E5B030E1F47F2C7E011255F3E5B014
:1049A80030E1F4E5B020E00AE51DD39450400375EA
:1049B8001D647F017E00124F97C289C28BD2AFD08F
:1049C80007D006D005D004D003D002D001D000D043
:0A49D800D0D082D083D0F0D0E032BE
:1026710012527E12557FD2AF1257281236BB90C02C
:10268100C5120AD00001C2007F03124D79E490C047
:102691007AF090C075F090BF75F090BF74F0125150
:0126A10082B6
:1026A2007B017AC0798590C0C9E4F0A37403F07FFE
:1026B200167E00121E3990C085E0B45AE3E4F07B26
:1026C200017AC0798790C0EAF0A304F07F167E00F9
:0326D2001223636D
:1026D50090C086E0FF90C08BE4F0A3EFF07B017A19
:1026E500C0798790C0EAE4F0A37402F07F007E40D1
:1026F5001223637B017AC0798B90C0EAE4F0A304CE
:08270500F07F027E4012236305
:07270D0090C086E014708EFD
:10271400E490C08BF090BD64E0FF90C08BE0FEC3FA
:102724009F40030227C475F009EEA424C3F582E593
:10273400F034BDF583E0FEA3E0FF90C087E0FCA386
:10274400E0FDC39FEC9E406F90C08BE0FF75F009E5
:10275400A424C7F582E5F034BDF583E0FAA3E0FBD9
:10276400D3ED9BEC9A505075F009EFA424C5F58283
:10277400E5F034BDF583E0FEA3E0FF90C089E0FC02
:10278400A3E0FDC39FEC9E402EA3E0FF75F009A4D7
:1027940024C9F582E5F034BDF583E0FAA3E0FBD368
:1027A400ED9BEC9A501190BDBEA3E0FAA3E0F58234
:1027B4008A83120B61800990C08BE004F002271910
:1027C40090C08BE0FFA3E4F0A3EFF07B017AC07923
:1027D4008C90C0EAE4F0A304F07F037E40122363EC
:0327E4000226A228
:03574700FF574ABF
:01574A00223C
:104A5900C2AFE4F5F1F5F275F30A75F40175F8AF33
:104A690030FCFDD2FE20FEFDAFFA90C35CE4F0A35A
:104A7900EFF0E07F00FE90C35CF0A3EFF0ADFBED3B
:104A8900FF90C35CEEF0A3EFF0E4F5F8D2AF90C36A
:104A99005CE0FEA3E0FF90574775F003120B01EEAF
:104AA90075F003A42583F583E493FB740193FA74E9
:0D4AB9000293F94A600789828A83120B611B
:014AC60022CD
:045743000F407200A1
:10476C0078477CC37D017BFF7A5779437E007F04B9
:10477C0012075390C0C5120AD00001C200E4FF1208
:10478C004D797B017AC3794712453090BA2974016F
:10479C00F0A37484F0A37400F0A37401F0A37488E4
:1047AC00F0A37404F0A37401F0A37488F0A374064E
:1047BC00F0A37404F0A3E4F07B01A304F0A374BA97
:1047CC00F0A3743FF0A3EBF0A374BBF0A3743FF021
:1047DC00A3EBF0A374BBF0A37441F0A37401F0A39A
:0247EC00E4F0F7
:0147EE0022A8
:1047EF007B017ABB794390C0C9E4F0A37402F07FD8
:1047FF00007E0F121E3990BB43E0645A7062F07B4B
:10480F00017ABB794390C0EAF0A37402F07F007E77
:10481F000F12236390BB46E0FDC394C840027D6432
:10482F0090BB44E0FEA3E0FBAA0690BB43745AF092
:10483F00A374A5F0ED25E02404A3F0A37483F0EA9C
:10484F00A3F0A3EBF0A3EDF0AE02AF037B017ABBB5
:10485F00794A90C0C9E4F0A3EDF0121E397F01220E
:02486F007F00C8
:014871002224
:0B0BF20090C256EBF0A3EAF0A3E9F07C
:100BFD00C2AF900003120B2D120864FFAEF090C22D
:100C0D0061EEF0A3EFF0D2AF90C256E0FBA3E0FA95
:100C1D00A3E0F9900006120B2D120864FDACF06FE5
:100C2D007002EC6E700302112BC390C262E09D90B6
:100C3D00C261E09C90C256E0FBA3E0FAA3E0F9503C
:100C4D002190000912088FFF90C262E02FFF90C221
:100C5D0061E035F0CFC39DCF9C90C259F0A3EFF06A
:100C6D00801E900006120B2D120864FFC390C26205
:100C7D00E09FFE90C261E095F090C259F0A3CEF0D6
:100C8D00C390C25AE0940690C259E0940050037F7D
:100C9D00002290C256E0FBA3E0FAA3E0F990000613
:100CAD00120B2D120864FDACF090C256E0FBA3E0D0
:100CBD00FAA3E0F9120B0D8D828C83120792FF902F
:100CCD00C25FE4F0A3EFF0E0F8E4F0E890C25FF06B
:100CDD00ED2401FFE43CFE90C263F0A3EFF090C25F
:100CED0056E0FBA3E0FAA3E0F990000912088FFD8E
:100CFD00C3EF9DEE95F04007E490C263F0A3F012B0
:100D0D000B0D90C263E0FEA3E0F5828E8312079275
:100D1D00FF90C25FE0FEA3E04FFF90C25FEEF0FEDA
:100D2D00A3EFF064A57003EE645A60030210D69031
:100D3D00C256E0FBA3E0FAA3E0F9900006120B2DDA
:100D4D001208642403FFE435F0FE90C263F0A3EFB4
:100D5D00F090C256E0FBA3E0FAA3E0F9900009126F
:100D6D00088FFDC3EF9DEE95F04007E490C263F050
:100D7D00A3F0120B0D90C263E0FEA3E0F5828E830B
:100D8D0012079264826003020F0490C256E0FBA327
:100D9D00E0FAA3E0F9900006120B2D12086424026C
:100DAD00FFE435F0FE90C263F0A3EFF090C256E081
:100DBD00FBA3E0FAA3E0F990000912088FFDC3EF41
:100DCD009DEE95F04007E490C263F0A3F090C256FB
:100DDD00E0FBA3E0FAA3E0F9120B0D90C263E0FE75
:100DED00A3E0F5828E831207922403FFE433FE9075
:100DFD00C25BF0A3EFF0C390C25AE09F90C259E0DE
:100E0D009E500302112BE490C25DF0A3F090C25BE3
:100E1D00E0FEA3E0FFA3E0FCA3E0FDC39FEC9E403A
:100E2D0003020ED090C256E0FBA3E0FAA3E0F990C6
:100E3D000006120B2D120864FFAEF090C256E0FBB7
:100E4D00A3E0FAA3E0F9120B0D8F828E83120792A5
:100E5D00FF74432DF58274BB3CF583EFF090C256C1
:100E6D00E0FBA3E0FAA3E0F9900006120B2DE47568
:100E7D00F0011208C790C256E0FBA3E0FAA3E0F917
:100E8D00900006120B2D120864FFAEF090C256E0D2
:100E9D00FBA3E0FAA3E0F990000912088FFDC3EF60
:100EAD009DEE95F0400C900006120B2DE4F5F0121E
:100EBD0008FF90C25EE004F0700690C25DE004F0A1
:100ECD00020E1A90BB47E0FEA3E0FF7B017ABB79CF
:100EDD004990BB45E024FDC313FD90C0EAE4F0A3A7
:100EED00EDF012236390BB457403F090BB47744F34
:100EFD00F0A3744B02108790C256E0FBA3E0FAA357
:100F0D00E0F9120B0D90C263E0FEA3E0F5828E8333
:100F1D001207926483600302108B90C256E0FBA30C
:100F2D00E0FAA3E0F9900006120B2D1208642402DA
:100F3D00FFE435F0FE90C263F0A3EFF090C256E0EF
:100F4D00FBA3E0FAA3E0F990000912088FFDC3EFAF
:100F5D009DEE95F04007E490C263F0A3F090C25669
:100F6D00E0FBA3E0FAA3E0F9120B0D90C263E0FEE3
:100F7D00A3E0F5828E831207922403FFE433FE90E3
:100F8D00C25BF0A3EFF0C390C25AE09F90C259E04C
:100F9D009E500302112BE490C25DF0A3F090C25B52
:100FAD00E0FEA3E0FFA3E0FCA3E0FDC39FEC9E40A9
:100FBD000302106090C256E0FBA3E0FAA3E0F990A3
:100FCD000006120B2D120864FFAEF090C256E0FB26
:100FDD00A3E0FAA3E0F9120B0D8F828E8312079214
:100FED00FF74432DF58274BB3CF583EFF090C25630
:100FFD00E0FBA3E0FAA3E0F9900006120B2DE475D7
:10100D00F0011208C790C256E0FBA3E0FAA3E0F985
:10101D00900006120B2D120864FFAEF090C256E040
:10102D00FBA3E0FAA3E0F990000912088FFDC3EFCE
:10103D009DEE95F0400C900006120B2DE4F5F0128C
:10104D0008FF90C25EE004F0700690C25DE004F00F
:10105D00020FAA90BB47E0FEA3E0FF7B017ABB79AC
:10106D004AA3E0FD90C0C9E4F0A3EDF0121E399043
:10107D00BB49E025E0240490BB45F07F012290C2DE
:10108D0056E0FBA3E0FAA3E0F9900006120B2DE465
:10109D0075F0011208C790C256E0FBA3E0FAA3E079
:1010AD00F9900006120B2D120864FFAEF090C25697
:1010BD00E0FBA3E0FAA3E0F990000912088FFDC34D
:1010CD00EF9DEE95F04057804990C256E0FBA3E0AE
:1010DD00FAA3E0F9900006120B2DE475F001120849
:1010ED00C790C256E0FBA3E0FAA3E0F99000061208
:1010FD000B2D120864FFAEF090C256E0FBA3E0FA90
:10110D00A3E0F990000912088FFDC3EF9DEE95F055
:10111D00400C900006120B2DE4F5F01208FF7F0035
:01112D00229F
:102D440090BA25E0FF90BA24E06F7003022DDD7580
:102D5400F00DEFA42425F582E5F034A0F583E0FC22
:102D6400A3E0FDA3E0FEA3E0FFE47B23FAF9F8C3AC
:102D7400120A48705E90BA25E075F00DA42424F57B
:102D840082E5F034A0F583E0540FFFE4FEEEC39F28
:102D9400504190BA25E075F00DA42429F582E5F0A0
:102DA40034A0F583E5822EF582E43583F583E0FDD6
:102DB40090BB3FE0FAA3E0243FF58274BA3AF5836E
:102DC400EDF090BB40E004F0700690BB3FE004F0EF
:102DD4000E80BA90BA25E004F01247EFEF64017058
:102DE4004190BB45E02403FDE433FC7B017ABB79CD
:102DF40043E4FF1221B0E490C211F090BB45E024FB
:102E040003FEE43390C212F0A3CEF0A37401F0A346
:102E140074BBF0A37443F07F237E007D007C00121A
:102E240017ED7B017ABA7929120BF2BF011590BB19
:102E340045E02403FDE433FC7B017ABB7943E4FFE2
:102E44001221B07B017ABA7934120BF2BF012CE45F
:102E540090C211F090BB45E02403FEE43390C2120B
:102E6400F0A3CEF0A37401F0A374BBF0A37443F0F9
:0B2E74007F247E007D007C001217ED23
:012E7F002230
:1056B000FF988103FF988104FF988101FF98810082
:0356C00035112978
:0250C600C1091E
:1040AF00E490C339F0A3F0A374B0F0A374FAF0C294
:1040BF0090C2947F057E001255F3E490C33DF090BB
:1040CF00C33BE0A330E704D2928002C292C2937F37
:1040DF00057E001255F3D2937F057E001255F390A3
:1040EF00C33CE025E0F090C33BE033F090C33DE0EC
:1040FF0004F0E0C3941040C7D2947F057E001255A0
:10410F00F3E490C33DF0C2937F057E001255F3D2C6
:10411F00937F057E001255F390C33AE025E0F090AF
:10412F00C339E033F0309107E0F0A3E04401F090A1
:10413F00C33DE004F0E0C3941040CBD2907F057EE6
:0C414F00001255F390C339E0FEA3E0FF1E
:01415B002241
:10400000E490C33EF0A3F0EFFF74FAA3CFF0A3EF68
:10401000F0C290C2947F057E001255F3E490C34233
:10402000F090C340E0A330E704D2928002C292C273
:10403000937F057E001255F3D2937F057E001255C3
:10404000F390C341E025E0F090C340E033F090C32B
:1040500042E004F0E0C3941040C7D2947F057E0094
:104060001255F3E490C342F0C2937F057E001255CF
:10407000F3D2937F057E001255F390C33FE025E015
:10408000F090C33EE033F0309107E0F0A3E044014C
:10409000F090C342E004F0E0C3941040CBD2907F94
:0E40A000057E001255F390C33EE0FEA3E0FF44
:0140AE0022EF
:104DCC0090C0CEEFF0C290C2947F057E001255F3D6
:104DDC00E490C0CDF090C0CEE030E704D2928002D7
:104DEC00C292C2937F057E001255F3D2937F057E4B
:104DFC00001255F390C0CEE025E0F090C0CDE00459
:104E0C00F0E0C3940840CED2907F057E000255F3AB
:05394E00E4FDFC7FB860
:1039530090C0CEEFF0ECA3F0A3EDF0C290C2947F41
:10396300057E001255F3E490C0CDF090C0CEE03058
:10397300E704D2928002C292C2937F057E00125561
:10398300F3D2937F057E001255F390C0CEE025E07D
:10399300F090C0CDE004F0E0C3940840CED2947F11
:1039A300057E001255F3E490C0CDF090C0D0E03016
:1039B300E704D2928002C292C2937F057E00125521
:1039C300F3D2937F057E001255F390C0D0E025E03B
:1039D300F090C0CDE004F0E0C3940840CEE490C082
:1039E300CDF090C0CFE030E704D2928002C292C201
:1039F300937F057E001255F3D2937F057E00125507
:103A0300F390C0CFE025E0F090C0CDE004F0E0C338
:0D3A1300940840CED2907F057E000255F34E
:06435D007BFF7D047C00E3
:0B43630090C0C4EBF0A3EAF0A3E9F067
:10436E00AE04AF05A3EEF0A3EFF07FBC123953906D
:10437E00C0C7E0FCA3E0FD7FBE1239537FBF124DD4
:10438E00CCC290D2947F057E001255F390C0C774B4
:10439E00FFF5F012084E45F0605190C0C4E0FBA34B
:1043AE00E475F00112084EA9F0FA12077990C0CA0E
:1043BE00F0E490C0C9F090C0C9E0C3940850CDA3FA
:1043CE00E030E704D2928002C292C2937F057E0053
:1043DE001255F3D2937F057E001255F390C0CAE0BA
:1043EE0025E0F090C0C9E004F080CBD2907F057E2E
:0443FE00000255F371
:1042080090C0CA7401F0A374C0F0A374C8F090C041
:10421800C8EFF0A3EDF090C0C4E4F0A37402F0FD81
:104228007C007FBC12395390C0C4E0FCA3E0FD7F42
:10423800BE1239537FBF124DCCC290D2947F0F7EED
:10424800001255F390C0C474FFF5F012084E45F003
:10425800605190C0CAE0FBA3E475F00112084EA9B2
:10426800F0FA12077990C0C7F0E490C0C6F090C089
:10427800C6E0C3940850CDA3E030E704D292800290
:10428800C292C2937F0F7E001255F3D2937F0F7EA6
:10429800001255F390C0C7E025E0F090C0C6E004D6
:0C42A800F080CBD2907F0F7E000255F317
:100103007A5679B012435DE4FD7F01124208E4FDA3
:100113007F021242087D577F031242087DD37F047A
:10012300124208E4FD7F051242087D117F06124248
:10013300087D087F07124208E4FD7F08124208E4A5
:10014300FD7F091242087D3F7F0A124208E4FD7FCA
:100153000B124208E4FD7F0C124208E4FD7F0D12EE
:100163004208E4FD7F0E1242087D3F7F0F124208D2
:100173007D3F7F10124208E4FD7F11124208E4FD27
:100183007F12124208E4FD7F13124208E4FD7F143C
:10019300124208E4FD7F15124208E4FD7F16124265
:1001A30008E4FD7F17124208E4FD7F18124208E4B9
:1001B300FD7F19124208E4FD7F1A124208E4FD7F15
:1001C3001B124208E4FD7F1C124208E4FD7F1D124E
:1001D30042087D407F1E1242087D807F1F12420825
:1001E3007D067F201242087D017F21124208E4FD33
:1001F3007F22124208E4FD7F23124208E4FD7F249C
:10020300124208E4FD7F25124208E4FD7F261242D4
:1002130008E4FD7F271242087D337F281242087DC0
:10022300337F29124208E4FD7F2A124208E4FD7F4E
:100233002B124208E4FD7F2C124208E4FD7F2D12AD
:100243004208E4FD7F2E124208E4FD7F2F1242088C
:10025300E4FD7F30124208E4FD7F31124208E4FDE1
:100263007F32124208E4FD7F33124208E4FD7F34FB
:10027300124208E4FD7F35124208E4FD7F36124244
:1002830008E4FD7F371242087D787F38124208E484
:10029300FD7F39124208E4FD7F3A124208E4FD7FF4
:1002A3003B124208E4FD7F3C124208E4FD7F3D120D
:1002B3004208E4FD7F3E124208E4FD7F3F124208FC
:1002C300E4FD7F40124208E4FD7F41124208E4FD51
:1002D3007F42124208E4FD7F43124208E4FD7F445B
:1002E300124208E4FD7F501242087D237F511242DF
:1002F300087D457F521242087D677F531242087D75
:10030300897F541242087DAB7F551242087D017FDD
:10031300561242087D237F571242087D457F5812AB
:1003230042087D677F591242087D897F5A1242082D
:100333007DAB7F5B1242087DCD7F5C1242087DEF6F
:100343007F5D124208E4FD7F5E1242087D0D7F5FF0
:100353001242087D0D7F601242087D0C7F611242BC
:10036300087D0C7F621242087D0F7F631242087D75
:100373000F7F641242087D0E7F651242087D0E7F57
:10038300661242087D087F671242087D027F681269
:1003930042087D027F691242087D027F6A12420889
:1003A3007D027F6B1242087D027F6C1242087D0240
:1003B3007F6D1242087D027F6E1242087D027F6FBD
:1003C3001242087D147F701242087D157F7112421C
:1003D300087D067F721242087D027F731242087DF8
:1003E300027F741242087D0D7F751242087D0D7FD6
:1003F300761242087D0C7F771242087D0C7F7812BB
:1004030042087D0F7F791242087D0F7F7A124208DE
:100413007D0E7F7B1242087D0E7F7C1242087D0891
:100423007F7D1242087D027F7E1242087D027F7F1C
:100433001242087D027F801242087D027F811242B0
:10044300087D027F821242087D027F831242087D6B
:10045300027F841242087D027F851242087D147F49
:10046300861242087D157F871242087D067F881217
:1004730042087D027F891242087D027F8A12420868
:100483007A5679B412435D7D3B7F6E1242087D57E5
:100493007F6F1242087D247F3A1242087D1F7F8DB1
:1004A3001242087DBA7F871242087DD17FB2124281
:1004B300087D0B7F881242087D017F38124208E4D1
:1004C300FD7F391242087D077FB51242087D757F93
:1004D300311242087D987F3B1242087BFF7A56799E
:1004E300B812435F7D0A7F221242087D097F3112D1
:1004F30042087D077F351242087D677F5312420809
:100503007D847F551242087D867F501242087D828A
:100513007F511242087D107F60124208E4FD7F6222
:10052300124208E4FD7FA01242087D127FA112420D
:10053300087D1F7FA21242087D127FA31242087D0D
:10054300167FA41242087D297FA51242087D1E7FD3
:10055300A61242087D1F7FA71242087D7E7FA81244
:1005630042087D1B7FA91242087D287FAA124208F8
:100573007D6D7FAB1242087D197FAC1242087D1856
:100583007FAD1242087D4C7FAE1242087D1E7FAFC5
:100593001242087D237FB01242087D527FB112427E
:1005A300087D6D7FB21242087D3F7FB3124208E49B
:1005B300FD7FC01242087D127FC11242087D207F59
:1005C300C21242087D107FC31242087D137FC412FA
:1005D30042087D277FC51242087D1B7FC612420851
:1005E3007D1D7FC71242087D757FC81242087D1F9B
:1005F3007FC91242087D287FCA1242087D687FCBDB
:100603001242087D1A7FCC1242087D187FCD124218
:10061300087D4D7FCE1242087D257FCF1242087D93
:100623002E7FD01242087D537FD11242087D607F16
:10063300D21242087D3F7FD31242087BFF7A56795C
:10064300BC12435F7BFF7A5679C07D017C00124365
:10065300637F8C7E00124F977BFF7A5679C17D01B1
:100663007C001243637F787E00124F977BFF7A569C
:1006730079C27D017C001243637FAA7E00024F97FB
:105352007D067C087FB11239537D227C187FB21200
:1053620039537D127C687FB31239537D207C037FD1
:0D537200B41239537D007C057FB50239531C
:1036BB007D507C007FB712395312394EE4FDFC7FED
:1036CB00B91239537D0A7C807FBA1239537D067C3F
:1036DB00007FBB1239537D017C007FB9123953E453
:1036EB00FDFC7FDE1239537D027C237FC9123953D7
:1036FB007F0A7E00124F971201037D517C017FB729
:10370B0012395312394EE4FDFC7FB91239537D1532
:10371B007C807FBA1239537D057C007FBB123953F5
:10372B007D017C007FB91239537D027C237FC91246
:10373B0039537F0A7E00124F977D017C237FCA127B
:10374B0039537D107C057FCB1239537D057C107F5F
:10375B00CC1239537DFF7C007FD012395312535258
:10376B007DD37C007FB61239537D037C007FDE1244
:10377B0039537D047C007FD61239537D4B7C027FFD
:0E378B00B71239537F3C7E00124F97D20922AD
:105245007300410004FF031F0D786403FFFFBF03D4
:10525500FFFCBF0000306F00000007000003800066
:1052650000007800000C000000300000F000000095
:095275000FC000030000000080DE
:1050C800022A0096022F0018022D028A04310210CB
:1050D800548941BDC10041BD6500012C1C41BD433F
:0150E80000C7
:0557100090C368EFF0FA
:0657150090BD43E004F02A
:01571B00226B
:0E1C4D0090C225ECF0A3EDF0A3EAF0A3EBF0BB
:101C5B00E490C231F0A3F0A3F0A3F0EF90527C60BC
:101C6B0012E493FE740193FFC3E49FFFE49E90C2C2
:101C7B0033800AE493FF74019390C231CFF0A3EF4A
:101C8B00F0E490C230F0E4FFFEFDFC90C229E0F8D6
:101C9B00A3E0F9A3E0FAA3E0FBC3120A4870030226
:101CAB001DBB90C229A3A3A3E05401FFE4EF700373
:101CBB00021D9990C230E0FF90BD64E0FE75F00903
:101CCB00A424C2F582E5F034BDF583EFF090C22574
:101CDB00E0FCA3E0FD75F009EEA424C3F582E5F06A
:101CEB0034BDF583ECF0A3EDF090C227E0FEA3E04A
:101CFB00FF90BD64E0FD75F009A424C5F582E5F005
:101D0B0034BDF583EEF0A3EFF090527CE493FE74B8
:101D1B000193FF90C226E02FFF90C225E03EFE7597
:101D2B00F009EDA424C7F582E5F034BDF583EEF0A0
:101D3B00A3EFF090527CE493FE740193FF90C228C2
:101D4B00E02FFF90C227E03EFE90BD64E075F009E6
:101D5B00A424C9F582E5F034BDF583EEF0A3EFF0D2
:101D6B0090C231E0FEA3E0FF90C226E02FF090C2BC
:101D7B0025E03EF090C233E0FEA3E0FF90C228E0E6
:101D8B002FF090C227E03EF090BD64E004F090C2CB
:101D9B0029E0FCA3E0FDA3E0FEA3E0FF7801120A1B
:101DAB005990C229120AC490C230E004F0021C916F
:101DBB0090C22DE0F9A3E0FAA3E090BDBEC9F0A359
:101DCB00EAF0A3E9F0E490C230F090BD64E0FF903C
:101DDB00C230E0FBC39F5047E0FD75F009A424C35C
:101DEB00F582E5F034BDF583E0FEA3E0FF75F00965
:101DFB00EDA424C5F582E5F034BDF583E0FCA3E04A
:101E0B00FD75F009EBA424C2F582E5F034BDF58332
:0F1E1B00E0FB7A001235D890C230E004F080ABC3
:011E2A002295
:0531E60090C323EFF08F
:1031EB00E490C328F090C328E0FBC394084003028B
:1031FB0032E3E47F01FEFDFC90C323E075F009A4EC
:10320B0024C2F582E5F034BDF583E0F9F8120A6CBF
:10321B00EB25E025E0245CF582E43452F583120AB9
:10322B00A8EB5FFFEA5EFEE95DFDE85CFC4D4E4FEF
:10323B0070030232DA90C328E025E025E0245CF528
:10324B0082E43452F583120A8B90BDC1E025E02550
:10325B00E02450F582E43452F583120AA8EB5FFFA9
:10326B00EA5EFEE95DFDE85CFC90C324120AC490A3
:10327B00C324E0F8A3E0F9A3E0FAA3E0FBC000C08D
:10328B0001E47F01FEFDFC90C323E075F009A4244B
:10329B00C2F582E5F034BDF583E0F9F8120A6C1241
:1032AB000A3BD001D000EB5FFFEA5EFEE95DFDE873
:1032BB005CFC90C324120AC4E4FFFEFDFC90C32403
:1032CB00E0F8A3E0F9A3E0FAA3E0FBC3020A4890FD
:0832DB00C328E004F00231F009
:0132E30022C8
:052E800090C329EFF0F2
:102E8500E4A3F090C32AE0FBC394084003022FBBE0
:102E9500E47F01FEFDFC90C329E075F009A424C27E
:102EA500F582E5F034BDF583E0F9F8120A6CEB25FF
:102EB500E025E0245CF582E43452F583120AA8EBA0
:102EC5005FFFEA5EFEE95DFDE85CFC4D4E4F700379
:102ED500022FB27831120A9B90C32AE025E025E043
:102EE500245CF582E43452F583120A8B120A3BEB1B
:102EF5005FFFEA5EFEE95DFDE85CFC7831120AB829
:102F050090C329E075F009A424C2F582E5F034BD2B
:102F1500F583E014600E14601324027015E490BD6F
:102F2500C1F0800E90BDC17401F0800690BDC174E2
:102F350002F07831120A9BC000C001E47F01FEFD5A
:102F4500FC90C329E075F009A424C2F582E5F034AC
:102F5500BDF583E0F9F8120A6CD001D000EB4FFF04
:102F6500EA4EFEE94DFDE84CFC7831120AB890BDF9
:102F7500C1E025E025E02450F582E43452F58312C2
:102F85000A8B90C32B120AC490C32BE0FCA3E0FD6F
:102F9500A3E0FEA3E0FF7831120A9BEF5BFFEE5A38
:102FA500FEED59FDEC58FC90C32B020AC490C32AD0
:062FB500E004F0022E888A
:012FBB0022F3
:01574B00223B
:1042B40090C0D3EEF0A3EFF0A3ECF0A3EDF090BD2B
:1042C40064E0D39430400302435C90C0DBE0FF9091
:1042D400BD64E0FE75F009A424C2F582E5F034BDA6
:1042E400F583EFF090C0D3E0FCA3E0FD75F009EE98
:1042F400A424C3F582E5F034BDF583ECF0A3EDF01E
:1043040090C0D5E0FEA3E0FF90BD64E0FD75F00928
:10431400A424C5F582E5F034BDF583EEF0A3EFF0F7
:10432400AF0375F009EDA424C7F582E5F034BDF5BB
:1043340083EAF0A3EFF090C0D9E0FEA3E0FF75F0AC
:1043440009EDA424C9F582E5F034BDF583EEF0A3AC
:09435400EFF090BD64E004F022DA
:1029530090C239E0FEA3E0FFC3940AEE9400500A4C
:1029630090C244E4F0A304F0803AC3EF9464EE947D
:1029730000500B90C244E4F0A37402F08026C3EF2E
:1029830094E8EE9403500B90C244E4F0A37403F074
:102993008012C3EF9410EE9427500990C244E4F0E0
:1029A300A37404F090C23CE0FBA3E0FAA3E0F912A5
:1029B300564F90C23BE07C002FFFEC3EFE90C24599
:1029C300E02FF090C244E03EF090C23FE0FCA3E071
:1029D300FD90C244E0FEA3E0FF1207D1C3782BE6CB
:1029E3009FFF18E69EFEE4FCFD7B02FAF9F8125104
:1029F3003E90C236E02FFF90C235E03EFEC006C0D7
:102A03000790C240E025E0FF90C23FE033FEC39051
:102A1300C238E09FFF90C237E09EFE90524DE49390
:102A2300FDC3EF9DFDEE9400FC90C23BE090C1B866
:102A3300F090C23CE0F9A3E0FAA3E090C1B9C9F079
:102A4300A3EAF0A3E9F090C23FA3E090C1BCF090E9
:102A5300C241E0FFA3E090C1BDCFF0A3EFF090C26D
:102A630039E0FAA3E0FBD007D006122C0190C2355F
:102A7300E0FAA3E0FBFFAE02C006C00790C240E04D
:102A830025E0FF90C23FE033FEC390C238E09FFDD4
:102A930090C237E09EFCEB782B26FBEA1836FAE06F
:102AA300FFA3E090C0D9CFF0A3EFF090C243E09032
:0A2AB300C0DBF0D007D0060242B4E9
:104AC70090C2CDE0FEA3E0FF90524EE493FDC39069
:104AD700C2D0E09DFD90C2CFE09400FC12544C7808
:104AE700D17CC27D017E007F0412075390C2CFE0C4
:104AF700FCA3E0FDA3E0FAA3E0FBA3E0FFA3E090A3
:104B0700C26BCFF0A3EFF090524DE49390C26DF0DB
:104B1700A37407F0A374E0F090C2CDE0FEA3E0FF1A
:094B2700121FF97B017AC279D159
:014B30002262
:104B310090C2D5E0FEA3E0FF90524EE493FD90C2F7
:104B4100D8E02DFD90C2D7E03400FC12544C78D946
:104B51007CC27D017E007F0412075390C2D7E0FC26
:104B6100A3E0FDA3E0FAA3E0FBA3E0FFA3E090C272
:104B71006BCFF0A3EFF090524DE49390C26DF0A390
:104B81007407F0A374E0F090C2D5E0FEA3E0FF1239
:084B91001FF97B017AC279D9FA
:014B990022F9
:103D3400782AE6FE08E6FF90C2DEE02FFF90C2DD9F
:103D4400E03EFE90C2DFE0FCA3E0FD12544C78E1BB
:103D54007CC27D017E007F0412075390C2DFE0FC29
:103D6400A3E0FDA3E0FAA3E0FBA3E0FFA3E090C27D
:103D74006BCFF0A3EFF090524DE49390C26DF0A39B
:103D84007407F0A374E0F090C2DDE0FEA3E0FF123C
:103D94001FF990C2DDE0FEA3E0FF782DE6FC08E603
:103DA400FD12544C78357CC27D017E007F041207DD
:103DB4005390C239E4F0A3740AF0A37401F0A3741D
:103DC400FFF0A37452F0A37445F0A3E4F0A3741EAF
:103DD400F0A37407F0A374FFF0A3741AF01229532C
:063DE4007B017AC279E1C7
:013DEA0022B6
:1032E400782AE6FE08E6FF90C2E6E02FFF90C2E5EA
:1032F400E03EFE90C2E7E0FCA3E0FD12544C78E906
:103304007CC27D017E007F0412075390C2E7E0FC7B
:10331400A3E0FDA3E0FAA3E0FBA3E0FFA3E090C2D7
:103324006BCFF0A3EFF090524DE49390C26DF0A3F5
:103334007407F0A374E0F090C2E5E0FEA3E0FF128E
:103344001FF978357CC27D017B017AC279E57E0064
:103354007F0412075390C239E4F0A37463F0E4A32A
:10336400F0A374FFF0A37452F0A37447F0782FE62F
:10337400FF08E6A3CFF0A3EFF0A374F8F0A3E4F002
:10338400A3741BF012295390C2E5E0FEA3E0FF787A
:103394002DE6FC08E6FD12544C78357CC27D017E96
:1033A400007F0412075390C239E4F0A37463F0A3BE
:1033B4007401F0A374FFF0A37452F0A37445F0A356
:1033C400E4F0A3741EF0A37407F0A374FFF0A374D5
:0B33D4001CF01229537B017AC279E93A
:0133DF0022CB
:103AF200782AE6FE08E6FF90C2EEE02FFF90C2EDC4
:103B0200E03EFE90524EE493FDC390C2F0E09DFD74
:103B120090C2EFE09400FC12544C78F17CC27D011B
:103B22007E007F0412075390C2EFE0FCA3E0FDA3E6
:103B3200E0FAA3E0FBA3E0FFA3E090C26BCFF0A307
:103B4200EFF090524DE49390C26DF0A37407F0A38E
:103B520074E0F090C2EDE0FEA3E0FF121FF990C204
:103B6200EDE0FEA3E0FF782DE6FC08E6FD12544CE2
:103B720078357CC27D017E007F0412075390C239E2
:103B8200E4F0A37463F0A37401F0A374FFF0A374D0
:103B920052F0A37445F0A3E4F0A3741EF0A37407DB
:103BA200F0A374FFF0A3741DF01229537B017AC2B3
:023BB20079F1A7
:013BB40022EE
:1024F60090524DE493C313FF90C2A9E4F0A3EFF00A
:10250600782AE6FE08E6FF90C2A2E02FFF90C2A15D
:10251600E03EFE90C2A3E0FCA3E0FD12544C78A579
:102526007CC27D017E007F0412075390C2A3E0FCAB
:10253600A3E0FDA3E0FAA3E0FBA3E0FFA3E090C2C3
:102546006BCFF0A3EFF090524DE49390C26DF0A3E1
:102556007407F0A374E0F090C2A1E0FEA3E0FF12BE
:102566001FF990C2A1E0FEA3E0FF782DE6FC08E685
:10257600FD12544C78357CC27D017E007F04120723
:102586005390C239E4F0A37463F0A37401F0A3740A
:10259600FFF0A37452F0A37445F0A3E4F0A3741EF5
:1025A600F0A37407F0A374FFF0A3741FF01229536D
:1025B60078357CC27D017B017AC279A17E007F04D9
:1025C60012075390C239E4F0A37463F0E4A3F0A3B6
:1025D60074FFF0A37452F0A37447F0782FE6FF0857
:1025E600E6A3CFF0A3EFF0A374F8F0A3E4F0A3748E
:1025F6001EF01229537830E625E0FF18E633FE90E8
:10260600C2A4E02FFD90C2A3E03EFC90524DE4939D
:1026160075F002A42DFDE5F03CFC90C2A1E0FEA3FE
:10262600E0FF12544C78357CC27D017E007F041297
:10263600075390C239E4F0A37463F0E4A3F0A374E3
:10264600FFF0A37452F0A37447F0782FE6FF08E674
:10265600A3CFF0A3EFF0A374F8F0A3E4F0A37429DA
:0A266600F01229537B017AC279A516
:012670002247
:1033E000782AE6FE08E6FF90C2F6E02FFF90C2F5CD
:1033F000E03EFE90C2F7E0FCA3E0FD12544C78F9E9
:103400007CC27D017E007F0412075390C2F7E0FC6E
:10341000A3E0FDA3E0FAA3E0FBA3E0FFA3E090C2DA
:103420006BCFF0A3EFF090524DE49390C26DF0A3F8
:103430007407F0A374E0F090C2F5E0FEA3E0FF1281
:103440001FF990C2F5E0FEA3E0FF782DE6FC08E648
:10345000FD12544C78357CC27D017E007F0412073A
:103460005390C239E4F0A37463F0A37401F0A37421
:10347000FFF0A37452F0A37445F0A3E4F0A3741E0C
:10348000F0A37407F0A374FFF0A37421F012295382
:1034900078357CC27D017B017AC279F57E007F049C
:1034A00012075390C239E4F0A37463F0E4A3F0A3CD
:1034B00074FFF0A37452F0A37447F0782FE6FF086E
:1034C000E6A3CFF0A3EFF0A374F8F0A3E4F0A374A5
:0B34D00020F01229537B017AC279F929
:0134DB0022CE
:103BB500782AE6FE08E6FF90C2FEE02FFF90C2FDE0
:103BC500E03EFE90524EE493FD90C300E02DFD9043
:103BD500C2FFE03400FC12544C78017CC37D017EA9
:103BE500007F0412075390C2FFE0FCA3E0FDA3E0B1
:103BF500FAA3E0FBA3E0FFA3E090C26BCFF0A3EF35
:103C0500F090524DE49390C26DF0A37407F0A37445
:103C1500E0F090C2FDE0FEA3E0FF121FF990C2FDA7
:103C2500E0FEA3E0FF782DE6FC08E6FD12544C7893
:103C3500357CC27D017E007F0412075390C239E4B2
:103C4500F0A37463F0A37401F0A374FFF0A374529E
:103C5500F0A37445F0A3E4F0A3741EF0A37407F079
:103C6500A374FFF0A37424F01229537B017AC3795E
:013C7500014D
:013C7600222B
:1034DC00782AE6FE08E6FF90C306E02FFF90C305AE
:1034EC00E03EFE90C307E0FCA3E0FD12544C7809CB
:1034FC007CC37D017E007F0412075390C307E0FC60
:10350C00A3E0FDA3E0FAA3E0FBA3E0FFA3E090C2DD
:10351C006BCFF0A3EFF090524DE49390C26DF0A3FB
:10352C007407F0A374E0F090C305E0FEA3E0FF1273
:10353C001FF990C305E0FEA3E0FF782DE6FC08E63A
:10354C00FD12544C78357CC27D017E007F0412073D
:10355C005390C239E4F0A37463F0A37401F0A37424
:10356C00FFF0A37452F0A37445F0A3E4F0A3741E0F
:10357C00F0A37407F0A374FFF0A37426F012295380
:10358C0078357CC27D017B017AC379057E007F048E
:10359C0012075390C239E4F0A37463F0E4A3F0A3D0
:1035AC0074FFF0A37452F0A37447F0782FE6FF0871
:1035BC00E6A3CFF0A3EFF0A374F8F0A3E4F0A374A8
:0B35CC0025F01229537B017AC3790916
:0135D70022D1
:103DEB00782AE6FE08E6FF90C30EE02FFF90C30D86
:103DFB00E03EFE90C30FE0FCA3E0FD12544C7811A3
:103E0B007CC37D017E007F0412075390C30FE0FC3F
:103E1B00A3E0FDA3E0FAA3E0FBA3E0FFA3E090C2C5
:103E2B006BCFF0A3EFF090524DE49390C26DF0A3E3
:103E3B007407F0A374E0F090C30DE0FEA3E0FF1253
:103E4B001FF990C30DE0FEA3E0FF782DE6FC08E61A
:103E5B00FD12544C78357CC27D017E007F04120725
:103E6B005390C239E4F0A37463F0A37401F0A3740C
:103E7B00FFF0A37452F0A37445F0A3E4F0A3741EF7
:103E8B00F0A37407F0A374FFF0A37427F012295367
:063E9B007B017AC37911DE
:013EA10022FE
:10532000782AE6FE08E6FF90C316E02FFF90C3152B
:10533000E03EFE90C317E0FCA3E0FD12544C781948
:105340007CC37D017E007F041207537B017AC37901
:015350001943
:015351002239
:092ABD00E490BDC1F090BD64F08D
:102AC60090C0CBF0A3F090527C93FE740193FFC3A9
:102AD60074209F90C0CEF074039E90C0CDF07831E4
:102AE600120A7F90C0CF120AC4E490C0CAF090C008
:102AF600C9F0E4FFFEFDFC90C0CFE0F8A3E0F9A327
:102B0600E0FAA3E0FBC3120A487003022C0090C04F
:102B1600CFA3A3A3E05401FFEF7003022BDE90C006
:102B2600CDE0FCA3E0FD90527CE493FE740193FF9C
:102B360090C0CBE0FAA3E02FFBEA3EFA90C0CDE0CE
:102B4600F8A3E02FFFE83E90C0D9F0A3EFF090C0C5
:102B5600C9E090C0DBF090C0CBE0FEA3E0FF1242DC
:102B6600B490C0C9E025E02444F582E434BDF58381
:102B7600E0FEA3E0FF90C0CAE0FD7C001254A390E3
:102B8600C0C9E025E02444F582E434BDF583E0FEC7
:102B9600A3E0FFC006C00790C0CBE0FEA3E0FFA302
:102BA600E0FCA3E0FD12544C78D57CC07D017E008C
:102BB6007F04120753D007D00612562190527CE4A8
:102BC60093FE740193FF90C0CCE02FF090C0CBE051
:102BD6003EF090C0C9E004F090C0CFE0FCA3E0FD59
:102BE600A3E0FEA3E0FF7801120A5990C0CF120AB3
:0A2BF600C490C0CAE004F0022AF8FF
:012C000022B1
:1051820090C0C4E4F0A37428F0A37402F0A37426C0
:01519200F02C
:10519300E4A3F074FFFBFAE4FDFCFFFE1235D890A4
:1051A300C0C8E025E02444F582E434BDF583EEF085
:0F51B300A3EFF090C0C8E004F0E0C3941040D424
:0351C200022ABD01
:1050FA0004FF031FF210F1F0F1D0F1B0F190F1705A
:10510A00F150F130F110F0F0F0D0F0B0F090F07012
:10511A00F050F030F500F4D0F4A0F470F440F4103C
:10512A00F3E0F3B0F380F350F320F2F0F2C0F29020
:04513A00F260F230FD
:1050E90041C34D0041C34B0041C34E0041C34C0075
:0B544100E0FEA3E0FFA3E0FCA3E0FD01
:10544C0090C0E5EEF0A3EFF0AF05A3ECF0A3EFF006
:06545C007B017AC079E536
:015462002227
:1056C300E490C34DF090C34BF090C34EF090C34CA5
:0256D300F022C3
:0C571C00125522124EB6124F02025541E7
:09537F00AF03AE02E0FCA3E0FD67
:10538800D39050FA7401939FE4939E4010D39050A9
:10539800FC7401939DE4939C40037F01227F0022CB
:0E3A200090C1D5EEF0A3EFF0A3ECF0A3EDF013
:103A2E00125388EF600990C1DB12537FEF7004E4EC
:103A3E00FEFF2290C1DDE0FFA3E090C1E3CFF0A333
:103A4E00EFF090C1D5E0FFA3E090C1E5CFF0A3EF7A
:103A5E00F090C1D7E0FFA3E090C1E7CFF0A3EFF065
:103A6E00AF03A3EAF0A3EFF090C1DBE0FFA3E09079
:103A7E00C1EBCFF0A3EFF0A374FFF0A3E4F090C17D
:103A8E00DFF0A3740AF07B017AC179DF90C0EAE41B
:0C3A9E00F0A37402F07F007E301223635E
:103AAA0090C34EE0FF7E007C007D051207D1EF2413
:103ABA0002FFEE3430FE90C1EFF0A3EFF090C34E58
:103ACA00E004F0E0FD90C1E1ECF0A3EDF07B017AB7
:103ADA00C179E390C0EAE4F0A37406F0122363907C
:073AEA00C1EFE0FEA3E0FFC5
:013AF10022B2
:10552200E490C35EF0A3F090C34EF07B017AC3799E
:0F5532005E90C0EAF0A304F07F007E3002236396
:0E38750090C1F1EEF0A3EFF0A3ECF0A3EDF0A4
:10388300125388EF600990C1F712537FEF7004E47D
:10389300FEFF2290C1F1E0FFA3E090C1FFCFF0A3B0
:1038A300EFF090C1F3E0FFA3E090C201CFF0A3EFEC
:1038B300F0AF03A3EAF0A3EFF090C1F7E0FFA3E0BA
:1038C30090C205CFF0A3EFF090C1F9E0FFA3E09021
:1038D300C207CFF0A3EFF0A374FFF0A3E4F090C10D
:0638E300FBF0A37404F0E9
:1038E90090C34DE0FF7E007C007D051207D1EF24D7
:1038F90002FFEE341090C20BF0A3EFF090C34DE03D
:1039090004F0E0FF90C1FDE4F0A3EFF07B017AC180
:1039190079FB90C0EAE4F0A37402F07F007E1012F4
:10392900236390C20BE0FEA3E0FF7B017AC179FF1C
:1039390090C0EAE4F0A37406F012236390C20BE08E
:04394900FEA3E0FFFA
:01394D002257
:10554100E490C360F0A3F090C34DF07B017AC3797E
:0F5551006090C0EAF0A304F07F007E1002236395
:101FF90090C265EEF0A3EFF0A3ECF0A3EDF0A3EA35
:04200900F0A3EBF065
:10200D0090C26DE0C31390C270F090C265E06A702B
:10201D0003A3E06B601790C26BE0FEA3E0FF90C2DC
:0D202D0067E06E7003A3E06F600302210402
:10203A0090C269E0FEA3E0FF90C265E0FCA3E0FD68
:10204A00D39FEC9E401890C271ECF0A3EDF090C2C1
:10205A0065EEF0A3EFF090C269ECF0A3EDF090C248
:10206A006BE0FEA3E0FF90C267E0FCA3E0FDD39F14
:10207A00EC9E401890C271ECF0A3EDF090C267EEAE
:0C208A00F0A3EFF090C26BECF0A3EDF0BF
:1020960090C270E0FD7C00C390C266E09DFF90C2D6
:1020A60065E09CFEF0A3EFF0C390C268E09DF0905F
:1020B600C267E09CF090C26AE02DF090C269E03CF5
:1020C600F090C26CE02DF090C26BE03CF0C007903F
:1020D600C267E0FCA3E0FDA3E0FAA3E0FBA3E0FFF8
:1020E600A3E090C1F7CFF0A3EFF090C26EE0FFA39C
:0E20F600E090C1F9CFF0A3EFF0D007023875EB
:1021040090C270E0FFFD7C0090C266E02DF090C2AA
:1021140065E03CF0C390C268E09DF090C267E09C2B
:10212400F07E00C390C26AE09FF090C269E09EF026
:10213400C390C26CE09FF090C26BE09EF0E490C24A
:1021440071F090C26DE0FF90C271E0D39F5059903E
:10215400C267E0FCA3E0FDA3E0FAA3E0FBA3E0FF79
:10216400A3E090C1DBCFF0A3EFF090C26EE0FFA339
:10217400E090C1DDCFF0A3EFF090C265E0FEA3E0F4
:10218400FF123A2090C268E004F0700690C267E043
:1021940004F090C26CE004F0700690C26BE004F0AE
:0821A40090C271E004F0809A82
:0321AC00E4FEFF4F
:0121AF00220D
:10556000E490C362F0A3F090C34DF07B017AC3795D
:0F5570006290C0EAF0A304F07F007E1002236374
:1035D80090C0C9EEF0A3EFF0A3ECF0A3EDF0A3EADE
:0435E800F0A3EBF071
:1035EC0090C34BE0C394104004E4FEFF2290C0C98A
:1035FC00E0FEA3E0FFA3125383EF7003FEFF2290C3
:10360C00C0C912544178D17CC07D017E007F041268
:10361C000753E490C0D5F0A3F0A3F0A37429F0E411
:10362C00A3F0A3F0A3F0A37429F0A37424F0A37463
:10363C0001F0A3F0A374FFF0E4A3F0A304F090C393
:10364C004BE025E024FEF582E43450F583740193BD
:10365C00240AFFE4933400FE90C0CFF0A3EFF07B7C
:10366C00017AC079CD90C0EAE4F0A304F012236390
:10367C0090C34BE025E024FEF582E43450F583E45E
:10368C0093FE740193FF90C0E3EEF0A3EFF07B0187
:10369C007AC079CF90C0EAE4F0A3740AF0122363E5
:0E36AC0090C34BE004F090C0E3E0FEA3E0FF0B
:0136BA0022ED
:104EB60074FF90C353F0A3F0E490C34BF090C35239
:104EC600F090C352E0FFC394105030EF25E024FE6B
:104ED600F582E43450F583740193240AFFE4933495
:104EE60000FE7B017AC3795390C0EAE4F0A304F094
:0B4EF60012236390C352E004F080C65A
:014F0100228D
:1054A30090C0D3ECF0A3EDF0EF240AFFE43EFE7BC3
:1054B300017AC079D390C0EAE4F0A304F002236335
:10562100EF2401FFE43EFE7B017AC079D590C0EA08
:09563100E4F0A37402F00223630B
:102C010090C1B2EEF0A3EFF0A3ECF0A3EDF0A3EAD4
:042C1100F0A3EBF051
:102C150090C34CE0C394104004E4FEFF2290C1B67B
:102C2500E0FEA3E0FFC3940AEE9400500890C1CAE9
:102C35007401F08031C3EF9464EE9400500890C1A4
:102C4500CA7402F08020C3EF94E8EE940350089014
:102C5500C1CA7403F0800FC3EF9410EE9427500699
:102C650090C1CA7404F090C1B9E0FBA3E0FAA3E0F7
:102C7500F912564F90C1CDEFF090C1B21254417880
:102C8500C17CC17D017E007F0412075390C1BDE068
:102C9500FFA3E090C1C5CFF0A3EFF0E4A3F090C18E
:102CA500BCE090C1C8F0E4A3F090C1B8E090C1CBFE
:102CB500F0E4A3F090C1B9E0F9A3E0FAA3E090C273
:102CC500AEC9F0A3EAF0A3E9F0A3E4F0A37405F01C
:092CD5007B017AC179CE124B9A01
:102CDE0090C34CE025E0241EF582E43451F583E4E4
:102CEE0093FE740193FF90C1D3EEF0A3EFF090C367
:102CFE004CE004F0EF240AFFE43EFE90C1BFF0A3C7
:102D0E00EFF07B017AC179B690C0EAE4F0A304F04B
:102D1E0012236390C1D3E0FEA3E0FF7B017AC17959
:102D2E00BF90C0EAE4F0A3740AF012236390C1D3FB
:052D3E00E0FEA3E0FF30
:012D4300226D
:104F020090C3567405F0A3E4F090C34CF090C355DF
:104F1200F090C355E0FFC394105030EF25E0241EFB
:104F2200F582E43451F5837401932401FFE4933450
:104F320000FE7B017AC3795690C0EAE4F0A304F044
:0B4F420012236390C355E004F080C60A
:014F4D002241
:1054C30090C364ECF0A3EDF0EF2403FFE43EFE7B16
:1054D300017AC3796490C0EAE4F0A304F002236381
:1054E30090C366ECF0A3EDF0EF240AFFE43EFE7BED
:1054F300017AC3796690C0EAE4F0A304F00223635F
:030000000246E0D5
:0C46E000787FE4F6D8FD7581340247278E
:1046EC00022671E493A3F8E493A34003F68001F24D
:1046FC0008DFF48029E493A3F85407240CC8C333CF
:10470C00C4540F4420C8834004F456800146F6DF9D
:10471C00E4800B01020408102040809050B5E47E28
:10472C00019360BCA3FF543F30E509541FFEE49392
:10473C00A360010ECF54C025E060A840B8E493A359
:10474C00FAE493A3F8E493A3C8C582C8CAC583CA84
:10475C00F0A3C8C582C8CAC583CADFE9DEE780BE3C
:0150F90000B6
:10068300E709F608DFFA8046E709F208DFFA803E59
:1006930088828C83E709F0A3DFFA8032E309F60846
:1006A300DFFA8078E309F208DFFA807088828C83AE
:1006B300E309F0A3DFFA806489828A83E0A3F60862
:1006C300DFFA805889828A83E0A3F208DFFA804C3C
:1006D30080D280FA80C680D4806980F28033801013
:1006E30080A680EA809A80A880DA80E280CA80337C
:1006F30089828A83ECFAE493A3C8C582C8CCC583F4
:10070300CCF0A3C8C582C8CCC583CCDFE9DEE780C3
:100713000D89828A83E493A3F608DFF9ECFAA9F042
:10072300EDFB2289828A83ECFAE0A3C8C582C8CC98
:10073300C583CCF0A3C8C582C8CCC583CCDFEADEB1
:10074300E880DB89828A83E493A3F208DFF980CC13
:1007530088F0EF60010E4E60C388F0ED2402B4040C
:100763000050B9F582EB2402B4040050AF232345B3
:0607730082239006D373FF
:10077900BB010689828A83E0225002E722BBFE027E
:09078900E32289828A83E49322B1
:10079200BB010CE58229F582E5833AF583E022501C
:1007A20006E92582F8E622BBFE06E92582F8E22266
:0D07B200E58229F582E5833AF583E4932280
:1007BF00BB010689828A83F0225002F722BBFE0119
:0207CF00F32213
:1007D100EF8DF0A4A8F0CF8CF0A428CE8DF0A42E3C
:0207E100FE22F6
:1007E300BC000BBE0029EF8DF084FFADF022E4CCFA
:1007F300F875F008EF2FFFEE33FEEC33FCEE9DECC3
:10080300984005FCEE9DFE0FD5F0E9E4CEFD22ED08
:10081300F8F5F0EE8420D21CFEADF075F008EF2F52
:10082300FFED33FD4007985006D5F0F222C398FD43
:050833000FD5F0EA22E0
:10083800C5F0F8A3E028F0C5F0F8E582158270024B
:060848001583E038F022E8
:10084E00A3F8E0C5F025F0F0E5821582700215835D
:06085E00E0C838F0E822BA
:10086400BB010A89828A83E0F5F0A3E0225006875F
:10087400F009E71922BBFE07E3F5F009E319228921
:0B088400828A83E493F5F07401932254
:10088F00BB0110E58229F582E5833AF583E0F5F0A7
:10089F00A3E0225009E92582F886F008E622BBFE84
:1008AF000AE92582F8E2F5F008E222E5832AF583CA
:0808BF00E993F5F0A3E993228F
:1008C700BB010789828A83020838500B09C5F027C4
:1008D700F7C5F01937F722BBFE0D09F8E325F0F34A
:1008E700C5F019E338F322F889828A8374019325C6
:0808F700F0C5F0F8E49338228B
:1008FF00BB010A89828A83F0E5F0A3F0225006F744
:0F090F0009A7F01922BBFE06F3E5F009F3192240
:10091E00E88FF0A4CC8BF0A42CFCE98EF0A42CFC78
:10092E008AF0EDA42CFCEA8EF0A4CDA8F08BF0A4F6
:10093E002DCC3825F0FDE98FF0A42CCD35F0FCEB55
:10094E008EF0A4FEA9F0EB8FF0A4CFC5F02ECD391A
:0F095E00FEE43CFCEAA42DCE35F0FDE43CFC2287
:10096D0075F008758200EF2FFFEE33FECD33CDCC41
:10097D0033CCC58233C5829BED9AEC99E5829840C4
:10098D000CF582EE9BFEED9AFDEC99FC0FD5F0D6A1
:10099D00E4CEFBE4CDFAE4CCF9A88222B800C1B9CB
:1009AD000059BA002DEC8BF084CFCECDFCE5F0CB09
:1009BD00F97818EF2FFFEE33FEED33FDEC33FCEB42
:1009CD0033FB10D703994004EB99FB0FD8E5E4F9FD
:1009DD00FA227818EF2FFFEE33FEED33FDEC33FCEA
:1009ED00C933C910D7059BE99A4007EC9BFCE99ADE
:1009FD00F90FD8E0E4C9FAE4CCFB2275F010EF2F23
:100A0D00FFEE33FEED33FDCC33CCC833C810D70722
:100A1D009BEC9AE899400AED9BFDEC9AFCE899F85D
:0E0A2D000FD5F0DAE4CDFBE4CCFAE4C8F922F0
:10513E00C2D5E830E70FB2D5E4C39BFBE49AFAE49C
:10514E0099F9E498F8EC30E717B2D51251741209B8
:10515E00A9E4C39BFBE49AFAE499F9E498F8800376
:10516E001209A930D50DE4C39FFFE49EFEE49DFD18
:04517E00E49CFC228F
:0D0A3B00CFF4CFCEF4CECDF4CDCCF4CC2250
:100A4800EB9FF5F0EA9E42F0E99D42F0E89C45F004
:010A5800227B
:100A5900E8600FECC313FCED13FDEE13FEEF13FF7B
:030A6900D8F1229F
:100A6C00E8600FEFC333FFEE33FEED33FDEC33FCE8
:030A7C00D8F1228C
:0C0A7F00E6FC08E6FD08E6FE08E6FF22A3
:100A8B00E493FC740193FD740293FE740393FF22B1
:0D0A9B00E6FB08E6F908E6FA08E6CBF822CB
:100AA800E493F8740193F9740293FA740393FB22A4
:0C0AB800ECF608EDF608EEF608EFF6226A
:0C0AC400ECF0A3EDF0A3EEF0A3EFF022A5
:100AD000A8828583F0D083D082120AE7120AE71237
:100AE0000AE7120AE7E473E493A3C583C5F0C5835C
:100AF000C8C582C8F0A3C583C5F0C583C8C582C870
:010B000022D2
:0C0B0100A42582F582E5F03583F58322FF
:100B0D00BB010789828A83020B8E5005E9F8020B1F
:100B1D0085BBFE05E9F8020BB789828A83020BC0FB
:100B2D00BB010DE58229F582E5833AF583020B8E33
:100B3D005007E92582F8020B85BBFE07E92582F8EF
:100B4D00020BB7E58229F582E5833AF583020BC0E6
:060B5D008A838982E47323
:10112E00E522248DF582E434C1F583E00522229078
:10113E00C18A30070390C18DE475F001120B97023E
:10114E0007792000E97F2ED2008018EF540F2490EB
:10115E00D43440D4FF30040BEF24BFB41A00500334
:10116E002461FFE523600215230526E5267002059E
:10117E002530070E90C18AE475F001120B97EF022D
:10118E0007BF0253F87403D2078003E4C207F522A7
:10119E0090C18A120BAEE4F523F525F526E5236002
:1011AE00077F2012117180F57524FFC201C200C2A3
:1011BE0002C203C205C206C20812113DFF700D30F5
:1011CE0007057F00121182AF26AE2522B4255FC21D
:1011DE00D5C20412113DFF24D0B40A00501A75F086
:1011EE000A782330D50508B6FF0106C6A426F620D8
:1011FE00D5047002D20380D924CFB41A00EF500464
:10120E00C2E5D204021383D20180C6D20080C0D2BE
:10121E000280BCD2D580BAD20580B47F2012117163
:10122E002002077401B5230040F112112EFF121196
:10123E00710211ABD208D206809512112EFB12113B
:10124E002EFA12112EF94A4B700679547A147BFF3E
:10125E0020022EE523602A7E008E827583001207FF
:10126E009260060EEE652470F0C2D5EBC0E0EAC0C7
:10127E00E0E9C0E0EE1213CAD0E0F9D0E0FAD0E017
:10128E00FB120779FF60AAEBC0E0EAC0E0E9C0E01C
:10129E00121171D0E02401F9D0E03400FAD0E0FB55
:1012AE00E5240460DCD524D980877BFF7A1379C6C8
:1012BE00D202809C791080027908C206C20880088A
:1012CE00D2D5790A8004790AC2D5E524047002F5D4
:1012DE0024E4FAFDFEFF12112EFC7B0820011312EE
:1012EE00112EFD7B1030000A12112EFE12112EFF50
:1012FE007B20EC3382D592D55013C3E43000069F89
:10130E00FFE49EFEE42001039DFDE49CFCE4CBF88B
:10131E00C201EC700CCFCECDCCE824F8F870F3807F
:10132E0017C3EF33FFEE33FEED33FDEC33FCEB333F
:10133E00FB994002FB0FD8E9EB300105F8D0E0C471
:10134E0048B201C0E00AEC4D4E4F78207B0070C2CF
:10135E00EAB5240040BCC0E01213CCD0F0D0E0209F
:10136E000104C4C0E0C4B201C0F012115AD0F0D5CD
:10137E00F0EB0211AB120BCC12485312C2581219D9
:10138E004C12154212C64F12CE4412CE49122E43A3
:08139E0012D45512B84612B832
:1013A6004512B847147450121D2D12212E12442BCB
:1013B600122523124220145D2A11DD480000123C3A
:1013C6003F3F3F00790AA2D5200314300509B91022
:1013D600020404B9080104A2D52006025001042023
:1013E60002689202B523005034C0E07F2030031912
:1013F6007F30A20272067205500F121423C202C277
:1014060006C205C2087F30800F300503E9C0E0122E
:101416001171300503D0E0F9D0E0B523CC300517C3
:101426007F30B9100C1211717F583004077F788015
:1014360003B908031211713002057F2D0211717F65
:10144600202008F87F2B2006F322920280CF286EF8
:10145600756C6C2900D20112112E3001F8C2017888
:101466002330D50108F60211DD2D504349581211DB
:101476002E2403B405004001E490146F9312116208
:0D148600743A121162D2037523040212C2DF
:104B9A0090C2ABEBF0A3EAF0A3E9F0E490C2B3F061
:104BAA00A3F090C2B174FFF5F012084E45F0603CD4
:104BBA0090C2AEE0FBA3E0FAA3E0F9120779FF90F6
:104BCA00C2ABE0FBA3E0FAA3E0F990C2B3E475F04C
:104BDA000112084E85F082F583EF120B63EF60C273
:104BEA0090C2AFE475F00112083880B690C2ABE00B
:084BFA00FBA3E0FAA3E0F9229D
:10564F00E4FFFE120779600C0FEF70010E09E9708D
:05565F00F20A80EF22B9
:100B6300F8BB010DE58229F582E5833AF583E8F0C8
:100B7300225006E92582C8F622BBFE05E92582C874
:020B8300F2225C
:090B8500E6FB08E6FA08E6F92295
:090B8E00E0FBA3E0FAA3E0F92268
:100B9700F8E0FBA3A3E0F925F0F0E58215827002E7
:070BA7001583E0FA38F0228B
:090BAE00EBF0A3EAF0A3E9F02248
:090BB700E2FB08E2FA08E2F9226F
:0C0BC000E493FB740193FA740293F92291
:100BCC00D083D082F8E4937012740193700DA3A3B8
:100BDC0093F8740193F5828883E4737402936860CC
:060BEC00EFA3A3A380DFCC
:1053F800EFB40A07740D125403740A309811A8996F
:10540800B8130CC2983098FDA899C298B811F63014
:0754180099FDC299F59922EC
:00000001FF
