:0B00F800FFFF4457494E543502647B63
:0E35BA007B0190C398E4F0A304F07F147E0020
:1035C80090C393EEF0A3EFF0A3EBF0A3EAF0A3E926
:0135D800F002
:1035D900E490C39AF0A3F0A3F0A3F0A3F0A3F0A39F
:1035E900F0A3F090C398E0FAA3E0FB4A7003023716
:1035F9008790C393E0FEA3E0FFC3E49FFFE49EFE30
:10360900E4FCFD90C3A2120AAFAF03AE02E4FCFDD5
:1036190090C3A2E0F8A3E0F9A3E0FAA3E0FBC31288
:103629000A33501190C3A2A3A3E0FFA3E090C3986B
:10363900CFF0A3EFF090C393E0FCA3E0FDECC3133C
:10364900FFED1390C39ACFF0A3EFF0ED5401FFA360
:10365900E4F0A3EFF0C2AFE4F5F190C39AE0FCA364
:10366900E0FDECF5F28DF375F40175F8AF30FCFD72
:1036790090C39CE07002A3E0603DD2FE20FEFD9065
:10368900C395E0FBA3E475F0011207FEA9F0FAE582
:10369900FC12071790C395E0FBA3E475F00112072C
:1036A900FEA9F0FAE5FD12071790C399E024FFF08F
:1036B90090C398E034FFF090C398E0FCA3E0FDECE0
:1036C900C313FFED1390C39ECFF0A3EFF0ED5401A8
:1036D900FFA3E4F0A3EFF090C39E74FFF5F0120787
:1036E900FE45F0605BD2FE20FEFD90C395E0FBA392
:1036F900E475F0011207FEA9F0FAE5FA120717902E
:10370900C395E0FBA3E475F0011207FEA9F0FAE501
:10371900FB12071790C395E0FBA3E475F0011207AC
:10372900FEA9F0FAE5FC12071790C395E0FBA3E4A4
:1037390075F0011207FEA9F0FAE5FD120717809747
:1037490090C3A0E07002A3E0602FD2FE20FEFD909E
:10375900C395E0FBA3E475F0011207FEA9F0FAE5B1
:10376900FA12071790C395E0FBA3E475F00112075D
:0E377900FEA9F0FAE5FB120717E4F5F8D2AF4F
:01378700221F
:103CAC0090C3DFEEF0A3EFF0A3EBF0A3EAF0A3E9EF
:013CBC00F017
:103CBD00E490C3E6F0A3F0A3F0A3F0A3F0A3F0907B
:103CCD00C3E4E07002A3E07003023E3E90C3DFE068
:103CDD00FEA3E0FFC3E49FFFE49EFED390C3E5E0A7
:103CED009F90C3E4E09E4005EEF0A3EFF090C3DF9C
:103CFD00E0FAA3E0FBEAC313FCEB13FDEB5401FF69
:103D0D0090C3E6E4F0A3EFF0C2AFE4F5F1ECF5F209
:103D1D00AF058FF375F40175F88330FCFD90C3E6A4
:103D2D00E07002A3E0603D90C3E1E0FBA3E475F019
:103D3D00011207FEA9F0FA1206D1F5FC90C3E1E0DD
:103D4D00FBA3E475F0011207FEA9F0FA1206D1F5F6
:103D5D00FDD2FE20FEFD90C3E5E024FFF090C3E40C
:103D6D00E034FFF090C3E4E0FCA3E0FDECC313FFEF
:103D7D00ED1390C3E8CFF0A3EFF0ED5401FFA3E4F2
:103D8D00F0A3EFF075F88F90C3E874FFF5F012070C
:103D9D00FE45F0605B90C3E1E0FBA3E475F001121A
:103DAD0007FEA9F0FA1206D1F5FA90C3E1E0FBA3E4
:103DBD00E475F0011207FEA9F0FA1206D1F5FB9099
:103DCD00C3E1E0FBA3E475F0011207FEA9F0FA12BE
:103DDD0006D1F5FC90C3E1E0FBA3E475F0011207F9
:103DED00FEA9F0FA1206D1F5FDD2FE30FE9980FB48
:103DFD0090C3EAE07002A3E0603275F88C90C3E1E5
:103E0D00E0FBA3E475F0011207FEA9F0FA1206D14A
:103E1D00F5FA90C3E1E0FBA3E475F0011207FEA9EA
:103E2D00F0FA1206D1F5FBD2FE20FEFDE4F5F8D234
:013E3D00AFD5
:013E3E002261
:1071C500C2AFC2D3C2D4E4F58E75C870F5CDF5CC87
:1071D50075CBBC75CACDD2ADD2C8F5937594017582
:1071E500950275C960F5F875F901F5A8F5B8F59A30
:0771F500F5A9F5B90272BD16
:1072BD007F007E80E4F532F5330FEFAC0670010EE2
:1072CD0014F5828C83E4F00533E53370020532B496
:0772DD0000E7E532B480E296
:0172E4002287
:1073DE0090C588120ABB55AA5AA57B017AC5798831
:1073EE0090C3E4E4F0A37402F07F047E00023CAC90
:04756A007FF47E012B
:10756E00EF4E6010E4FD0DEDC3941840F9EF1F705F
:04757E00EF1E80EC90
:0175820022E6
:106B850090C511745AF0A374A5F0A3EEF0A3EFF02D
:106B9500A3EBF0A3EDF090C510E0600A90C517E4F3
:106BA500F0A304F08007E490C517F0A3F07B017A09
:106BB500C5791190C3E4E4F0A37404F07FB07E00BE
:106BC500123CAC12756A7B017AC5791190C398E4C1
:106BD500F0A304F07FB07E001235C890C511E070B7
:016BE500E2CD
:016BE600228C
:05714E0090C56AEFF09E
:107153007B017AC5796B90C398E4F0A37402F07F46
:10716300A07E001235C890C56AE0A3F0A37401F0B5
:10717300E490C56EF07B017AC5796B90C3E4F0A30C
:0A7183007402F07FA07E00023CAC15
:104D4B0090C3FCE0FB90C54EF090C3FDE0FCA3E0EC
:104D5B00FDA3E0FEA3E0FF7810120A4490C54FEFCD
:104D6B00F090C3FDE0FCA3E0FDA3E0FEA3E0FF7821
:104D7B0008120A4490C550EFF090C3FDA3A3A3E023
:104D8B0090C551F090C401E0FCA3E0FDEC90C5523E
:104D9B00F0A3EDF090C403E0FCA3E0FDEC90C55450
:104DAB00F0A3EDF0EBB4A52890C405E0FBA3E0FA6B
:104DBB00A3E04A4B601A90C401E0FEA3E0FF90C44D
:104DCB0005A3A3E0F990C3E4ECF0A3EDF0123CAC27
:104DDB007B017AC5794E90C3E4E4F0A37404F07FB1
:104DEB00087E00123CAC12756A7B017AC5794E9035
:104DFB00C398E4F0A304F07F087E001235C890C579
:104E0B004EE070E290C3FCE0B45A2F90C405E0FB77
:104E1B00A3E0FAA3E04A4B602190C401E0FEA3E0BB
:104E2B00FF90C405A3A3E0F990C403E0FDA3E090B9
:104E3B00C398CDF0A3EDF01235C87F327E00026F20
:014E4B006501
:1047B60090C519745AF090C3ECE090C51AF06401E4
:1047C600706790C3EDA3E090C51BF090C3EFE0FCCB
:1047D600A3E0FDA3E0FEA3E0FF7810120A4490C513
:1047E6001CEFF090C3EFE0FCA3E0FDA3E0FEA3E026
:1047F600FF7808120A4490C51DEFF090C3EFA3A3FB
:10480600A3E090C51EF090C3F3E0FCA3E0FDEC909E
:10481600C51FF0A3EDF090C3F5E0FCA3E0FDEC901E
:10482600C521F0A3EDF0E4803B90C3ECE064027098
:1048360037A3E0FCA3E0FDEC90C51BF0A3EDF090E0
:10484600C3F3E0FCA3E0FDEC90C51DF0A3EDF090F2
:10485600C3FAE0FCA3E0FDEC90C51FF0A3EDF0E485
:10486600A3F0A3F0A3F0A3F07B017AC5791990C356
:10487600E4E4F0A37406F07FAA7E00123CAC127545
:104886006A7B017AC5791990C398E4F0A304F07F96
:10489600AA7E001235C890C519E070E290C3ECE01C
:1048A600B4012F90C3F7E0FBA3E0FAA3E04A4B6004
:1048B6002190C3F3E0FEA3E0FF90C3F7A3A3E0F9C2
:1048C60090C3F5E0FDA3E090C398CDF0A3EDF01200
:0948D60035C87F327E00026F65D7
:0F766D007AC579931235BA90C593E0FEA3E0FF7A
:01767C0022EB
:0868DE0090C55EEEF0A3EFF09F
:1068E600A3745AF0A37401F090C55EE0FCA3E0FD2A
:1068F600EC90C562F0A3EDF07B017AC5796090C398
:10690600E4E4F0A37402F07F847E00123CAC1275BE
:106916006A7B017AC5796090C398E4F0A374021289
:1069260035C390C55EE0FEA3E0FFA3E0B506DFA396
:10693600E0B507DAE490C560F0A3F0A3F0A3F07B1E
:10694600017AC5796090C3E4F0A37402F07F167EE5
:0469560000023CAC53
:086F650090C372EEF0A3EFF0FF
:106F6D00E4A3F0A3F090C372E0FEA3E0FFC390C3CF
:106F7D0075E09F90C374E09E5025E4FBFA7F017E7F
:106F8D000012756E0BBB00010ABA01F1BB2CEE901D
:0F6F9D00C375E004F070CE90C374E004F080C6BA
:016FAC0022C2
:106FAD00EF14601814602314602E240370397401DB
:106FBD00A805088002C333D8FC42B7227401A80586
:106FCD00088002C333D8FC42BC227401A805088096
:106FDD0002C333D8FC42BD22AF057401A807088057
:086FED0002C333D8FC42BE22AE
:106DED00EF1460191460251460312403703D740193
:106DFD00A805088002C333D8FCF452B7227401A849
:106E0D0005088002C333D8FCF452BC227401A805D6
:106E1D00088002C333D8FCF452BD22AF057401A81B
:0C6E2D0007088002C333D8FCF452BE22D8
:1061F100EF14602D14604A14606724036003026287
:1062010083EB600E7401A805088002C333D8FC42F9
:1062110080227401A805088002C333D8FCF452809F
:1062210022EB600E7401A805088002C333D8FC423A
:1062310090227401A805088002C333D8FCF452905F
:1062410022EB600E7401A805088002C333D8FC421A
:10625100A0227401A805088002C333D8FCF452A01F
:1062610022EB600E7401A805088002C333D8FC42FA
:10627100B022AF057401A807088002C333D8FCF42B
:0362810052B022F6
:106CA700EF14601A146027146034240370427401CF
:106CB700A805088002C333D8FC5580FE80347401D0
:106CC700A805088002C333D8FC5590FE80247401C0
:106CD700A805088002C333D8FC55A0FE8014AF0571
:106CE7007401A807088002C333D8FC55B0FE8002A0
:046CF700E4FEAF0602
:016CFB002276
:105103007B017AC5795690C398E4F0A37404F07FC9
:10511300167E001235C890C556E0645A60030251EA
:10512300C8A3E0FFB40134A3E0FCA3E0FD90C40DE9
:10513300ECF0A3EDF090C413ECF0A3EDF090C55A9E
:10514300E0FCA3E0FD90C411ECF0A3EDF090C438B3
:10515300ECF0A3EDF0A37401F08030EFB4032690DC
:10516300C40BE0FFA3E090C438CFF0A3EFF090C4EA
:1051730009E0FFA3E090C413CFF0A3EFF090C43A8B
:105183007402F0800690C43A7403F090C558E0FFAF
:10519300A3E090C409CFF0A3EFF090C55AE0FFA3BA
:1051A300E090C40BCFF0A3EFF0E490C556F07B0181
:1051B3007AC5795690C3E4F0A37402F07F167E009B
:1051C300123CAC801190C557E0FF64026003EF709E
:0B51D30005E490C43AF090C43AE0FFFD
:0151DE0022AE
:0831F10090C525EEF0A3EFF0FC
:1031F90012510390C527EFF0700690C408F0FF2222
:1032090090C527E0B4010F7AC4790F1235BA90C47A
:10321900087401F0FF2290C40FE0FEA3E0FF90C5FF
:1032290025E06E7003A3E06F60037F012290C4095B
:10323900E0FEA3E0FFC390C40EE09FFF90C40DE041
:103249009E90C43BF0A3EFF090C43BE0FCA3E0FDEB
:10325900FFAE0412074BEE3395E0FDFC90C5281232
:103269000AAF90C40BE0FEA3E0FFC390C412E09F35
:10327900FF90C411E09E90C43DF0A3EFF090C43DCF
:10328900E0FCA3E0FDFFAE0412074BEE3395E0FD31
:10329900FC90C52C120AAF90C527E06402707990A2
:1032A900C408E06401706B7F09FEFDFC90C52CE049
:1032B900F8A3E0F9A3E0FAA3E0FBC3120A33501A1A
:1032C900E47F09FEFDFC90C528E0F8A3E0F9A3E03E
:1032D900FAA3E0FBC3120A334038E47F02FEFDFC87
:1032E90090C52CE0F8A3E0F9A3E0FAA3E0FB1208EB
:1032F900FB90C528E0F8A3E0F9A3E0FAA3E0FBD32B
:10330900120A3390C40850057403F0FF227404F0C4
:10331900FF2290C408E0FF2290C408E06401706EA7
:103329007F09FEFDFC90C52CE0F8A3E0F9A3E0FAC3
:10333900A3E0FBC3120A33501AE47F09FEFDFC9097
:10334900C528E0F8A3E0F9A3E0FAA3E0FBC3120A59
:10335900334038E47F02FEFDFC90C52CE0F8A3E081
:10336900F9A3E0FAA3E0FB1208FB90C528E0F8A353
:10337900E0F9A3E0FAA3E0FBD3120A3390C40850A2
:10338900057403F080087404F080037F022290C45E
:1033990008E0B4031E90C40BE0FEA3E0FFC390C491
:1033A90039E09FFF90C438E09E90C441F0A3EFF04C
:1033B9007F052290C409E0FEA3E0FFC390C414E096
:1033C9009FFF90C413E09E90C43FF0A3EFF07F06E7
:0133D90022D1
:04718D0002180000E4
:1074FA00E4F51D758911F58CF58AC28CF51AF51C0F
:0E750A00438901758CBC758ACDD2A9D28C2222
:03000B0002695A2D
:0D695A00C0E0C0D075D000C000C006C0076E
:10696700C2AFE51D6002151D758CBC758ACD051B70
:1069770075310074017E00A831088005C333CE331A
:10698700CED8F9FFEF551C602DE53125E02408F836
:1069970008E61618700116E53125E02408F8E6FE2A
:1069A70008E64E7011AF3104A807088002C333D838
:0F69B700FC421AF4521C0531E531B408B6D2AFD8
:0B69C600D007D006D000D0D0D0E032C7
:03002B0002760E4C
:10760E00C0E0C2AFC2C6D2AF0519E51970020518A7
:03761E00D0E03287
:10735800C2AF7401A807088002C333D8FCFE421CE0
:10736800EF25E02408F8A60408A605EEF4521AD280
:02737800AF2242
:1075E400C2AF7401A807088002C333D8FCF4521C4C
:0575F400521AD2AF2283
:10762100C2AF7401A807088002C333D8FC551AFF02
:02763100D2AFD6
:017633002234
:0B751800D2B37F05127523D2B27F05AD
:10752300EF600EE4FE0EC3EE648094B240F71F805A
:01753300EF68
:017534002234
:0476CD0053BEF7228F
:0476D10043BE08228A
:107550001276D1D2B3D2B27F0F127523C2B37F0F8E
:0A756000127523C2B27F0F027523DB
:0A73FE007F0F12720CAF0312720C25
:107408001276D1C2B3D2B27F0F127523D2B37F0FD7
:067418001275230276CD7F
:0F767D001276D1C2B312751AC2B27F05027523FD
:0D76AA001276D1127518C2B27F0502752349
:10747E001276CD127518E4FD30B30A7F051275230E
:0F748E000DEDB432F3C2B27F051275230276D131
:1071FC0012720CE0FF12720C1274081275507F643C
:02720C00AD07CC
:10720E001276D1E4FCED30E704D2B38002C2B3EDC6
:10721E0025E0FD12751AC2B27F051275230CECB46F
:05722E0008E302747E7C
:0D7233007F0F12720C1275507F6512720CE5
:107240001276CDE4FC12751AED25E0FD30B305444D
:1072500001FD8004ED54FEFDC2B27F051275230CC2
:06726000ECB408E1AF05EB
:017266002205
:105B5D00127207127233AB0712767D127240AA07CA
:105B6D001276AA127408EB20E003025C0B548460D9
:105B7D000AEB547BFB1272071273FEEB54FEFBEA29
:105B8D0030E713547FFA1272077F1012720CAF02B6
:105B9D0012720C127408EA4480FA1272077F101206
:105BAD00720CAF0212720C127408EB4484FB127269
:105BBD00077F0F12720CAF03127201E4FF12720C09
:105BCD00E4FF12720CE4FF12720C7F8012720C7FD4
:105BDD000512720C7F0112720C7F0112720C7F2163
:105BED0012720C127408EB547BFBEA547FFA12729A
:0E5BFD00077F1012720CAF021272011273FEBB
:015C0B002276
:105EC40012720712723390C595EFF012767D12723A
:105ED40040A3EFF01276AA127408E04480F0127224
:105EE400077F1012720CE0FF12720C12740890C536
:105EF40095E04484F01272077F0F1271FCE4FF12E4
:105F0400720C9000061206EAFF12720C9000051241
:105F140006EAFF12720C9000041206EAFF12720CD9
:105F24009000031206EAFF12720C9000021206EAB5
:105F3400FF12720C9000011206EAFF12720C120694
:105F4400D1FF12720C12740890C595E0547BF0A333
:105F5400E0547FF01272077F101271FC7F0F1272EF
:0C5F64000C90C595E0FF12720C0274084E
:10592700127207E4FF12720C1275507F6512720C27
:105937007B0612724074302BF582E434C5F583EF91
:10594700F012767DDBEC12724090C530EFF01276E4
:10595700AA12740890C534E0547FF0E4FB74302B2E
:10596700F582E434C5F583E0FFC4540FFE90C538D3
:10597700F0EF540FFFA3F0EE75F00AA42FFF743079
:105987002BF582E434C5F583EFF00BEBB403CE7B44
:105997000474302BF582E434C5F583E0FFC4540F5B
:1059A700FE90C538F0EF540FFFA3F0EE75F00AA490
:1059B7002FFF74302BF582E434C5F583EFF00BEB42
:1059C700B407CEE490C537F07B017AC5793090C330
:0D59D700E4F0A37404F07F107E00023CACED
:10763400EF75F00A84C454F0FEEF75F00A84E5F0A7
:037644004EFF22D4
:0F768C00EFC4540F75F00AA4FEEF540F2EFF2227
:0763150090C56FEBF0AB0730
:10631C00ED64016004EDB4021BED240CFEE433903B
:10632C00C570F0A3CEF0EB24FFFEE434FFA3F0A382
:10633C00CEF08012AF0590C570E4F0A3EFF0AF0380
:10634C00A3E4F0A3EFF090C571E02401FF90C570B9
:10635C00E03400FE7C007D1A12074B7D0A12075DAB
:10636C00AC06AD0790C572E0FAA3E0FBAE02780272
:10637C00CEC313CE13D8F92BFFEA3ECF2DCF3CFE64
:10638C0090C56FE07C002FFFEC3ECF24DCCF34FFB8
:08639C00FE7D0712075DAF054D
:0163A40022D6
:105C0C007B017AC479ED90C398E4F0A37404F07F1F
:105C1C009C7E001235C890C4EDE0645A6003025CAF
:105C2C00BAA3E064A56003025CBAA3E0FF12763469
:105C3C0090C4F5EFF090C4F0E0FF12763490C4F607
:105C4C00EFF090C4F1E0FF12763490C4F7EFF090CF
:105C5C00C4EFE0FFA3E0FDA3E0FB12631590C4F8D2
:105C6C00EFF090C4F2E0FF12763490C4F9EFF044F8
:105C7C0080F090C4F3E0FF12763490C4FAEFF09009
:105C8C00C4F4E0FF12763490C4FBEFF07B017AC4CD
:105C9C0079F5125EC4E490C4EDF0A3F07AC479ED0A
:0E5CAC0090C3E4F0A304F07F9C7E00123CAC99
:015CBA0022C7
:107583007D027F03126FAD7D037F03126FAD12592E
:0975930027E4F518F519025C0C5F
:106D9F00AB07AA06A905A8047F007E387D317C00C9
:106DAF00120986C3E49F90C378F074049E90C37752
:106DBF00F043C9407D04E4FF126FAD7D05E4FF127F
:106DCF006DED43803075D88075985090C377E0FC97
:0D6DDF00A3E0FDECF5BA8DAA43A810D2ACDC
:016DEC002284
:106F1C00AB07AA06A905A8047F007E707D627C00E1
:106F2C00120986C3E49F90C378F074049E90C377D3
:106F3C00F043C9207D06E4FF126FAD7D07E4FF121C
:106F4C006DED4380C0759B9090C377E0FCA3E0FD92
:086F5C00ECF5BB8D9D439A0189
:016F6400220A
:1072E500759680759780AB07AA06A905A8047F0047
:1072F5007EC07D897C01120986AD07AC06ECF5D907
:07730500AF058FE743B80C50
:01730C00225E
:10710D0075A78075AB80AB07AA06A905A8047F00FB
:10711D007EC07D897C01120986AD07AC06ECF5AE0B
:10712D00AF058FAF43B830E490A01BF0A3F0A3F0F0
:10713D00A3F090A023F090A01FF0A3F0A3F0A3F074
:01714D00221F
:106CFC00EF14601B1460291460372403704490C394
:106D0C0073E0FCA3E0FDA3E0FEA3E0FF026D9F9007
:106D1C00C373E0FCA3E0FDA3E0FEA3E0FF026F1C45
:106D2C0090C373E0FCA3E0FDA3E0FEA3E0FF0272BE
:106D3C00E590C373E0FCA3E0FDA3E0FEA3E0FF122B
:036D4C00710D22A4
:103AF90090C378EFF0A3ECF0A3EDF0A3EBF0A3EA09
:043B0900F0A3E9F04C
:103B0D00C2AFE4A3F0A3F090C379E0FEA3E0FFC33E
:103B1D0090C37FE09F90C37EE09E4003023BD19017
:103B2D00C37BE0FBA3E475F0011207FEA9F0FA12C6
:103B3D0006D1FF90C378E0FE75F009A42400F5824C
:103B4D00E5F03488F583EE75F008A42583F583E060
:103B5D00FCA3E0FD75F009EEA42400F582E5F03438
:103B6D0080F583EE75F008A42583F583E5822DF5A8
:103B7D0082E5833CF583EFF075F009EEA42400F5A2
:103B8D0082E5F03488F583EE75F008A42583F5837E
:103B9D00E475F0011207E875F009EEA42400F58232
:103BAD00E5F03488F583EE75F008A42583F583E000
:103BBD005403F090C37FE004F0700690C37EE004E0
:103BCD00F0023B1490C378E01460421460701470DE
:103BDD0003023C7924036003023CA9908808E0604D
:103BED0003023CA904F0908802E0FEA3E02400F556
:103BFD008274803EF583E0F599908803E004F070BF
:103C0D0006908802E004F0908802023CA590901185
:103C1D00E06003023CA904F090900BE0FEA3E024C9
:103C2D0009F58274883EF583E0F59C90900CE004D4
:103C3D00F0700690900BE004F090900B805A9098E5
:103C4D001AE0705804F0909814E0FEA3E02412F5E9
:103C5D008274903EF583E0F59E909815E004F07027
:103C6D0006909814E004F0909814802C90A023E016
:103C7D00702A04F090A01DE0FEA3E0241BF58274D1
:103C8D00983EF583E0F5AC90A01EE004F070069030
:0E3C9D00A01DE004F090A01DE05403F0D2AF93
:013CAB0022F6
:030023000263A5D0
:1063A500C0E0C083C082C0D075D000C006C007C29F
:1063B500AF30982AC298908804E0FEA3E02400F547
:1063C5008274843EF583E599F0908805E004F070C9
:1063D50006908804E004F0908804E05403F03099B6
:1063E5003FC299908802E0FEA3E0FF908800E06E2E
:1063F5007003A3E06F602474002FF58274803EF56E
:1064050083E0F599908803E004F07006908802E037
:1064150004F0908802E05403F08005908808E4F0C9
:0F642500D2AFD007D006D0D0D082D083D0E03213
:03005300026BE756
:106BE700C0E0C083C082C0D075D000C006C007C255
:106BF700AF5396FE909814E0FEA3E0FF909812E042
:106C07006E7003A3E06F602474122FF58274903EB8
:106C1700F583E0F59E909815E004F07006909814BF
:106C2700E004F0909814E05403F0800590981AE47B
:106C3700F0D2AFD007D006D0D0D082D083D0E03208
:03005B00026FF53C
:106FF500C0E0C083C082C0D075D000C006C2AF5308
:1070050097FE909816E0FEA3E02412F58274943E54
:10701500F583E59FF0909817E004F07006909816B8
:10702500E004F0909816E05403F0D2AFD006D0D02B
:07703500D082D083D0E032CD
:03006300026C47E5
:106C4700C0E0C083C082C0D075D000C006C007C2F4
:106C5700AF53A7FE90A01DE0FEA3E0FF90A01BE0AE
:106C67006E7003A3E06F6024741B2FF58274983E47
:106C7700F583E0F5AC90A01EE004F0700690A01D2F
:106C8700E004F090A01DE05403F0800590A023E4F9
:106C9700F0D2AFD007D006D0D0D082D083D0E032A8
:03006B0002703CE4
:10703C00C0E0C083C082C0D075D000C006C2AF53C0
:10704C00ABFE90A01FE0FEA3E0241BF582749C3ED7
:10705C00F583E5ADF090A020E004F0700690A01F41
:10706C00E004F090A01FE05403F0D2AFD006D0D0D3
:07707C00D082D083D0E03286
:030083000260C157
:1060C100C0E0C083C082C0D075D000C006C007C286
:1060D100AFE59B30E02E759B90539BFE90900DE0B9
:1060E100FEA3E02409F582748C3EF583E59CF090D3
:1060F100900EE004F0700690900DE004F090900D89
:10610100E05403F0E59B30E143759B90539BFD9078
:10611100900BE0FEA3E0FF909009E06E7003A3E016
:106121006F602474092FF58274883EF583E0F59C35
:1061310090900CE004F0700690900BE004F09090C9
:106141000BE05403F08005909011E4F0D2AFD0073A
:0B615100D006D0D0D082D083D0E03246
:1062840090C590EBF0A3EAF0A3E9F07D02E4FF12DD
:106294006FAD7D03E4FF126DED7B017D02E4FF121F
:1062A40061F143C98075F1FFE4F5F275F36075F4AB
:1062B4000175F88F30FCFD90C590E0FBA3E0FAA3D4
:1062C400E0F91206D1F5FA9000011206EAF5FB9006
:1062D40000021206EAF5FC9000031206EAF5FDD26C
:1062E400FE20FEFDE4F5FAF5FBF5FCF5FDD2FE20FB
:1062F400FEFD75FAFF75FBFF75FCFF75FDFFD2FE11
:1063040020FEFDE4F5F8758FA0E58F20E5FBD2B9FA
:016314002266
:10753500E5E830E51553E8DF438F407FE87E031229
:0B754500756E538FBFE490BA28F0224F
:10415C0075F1FFE4F5F275F36475F40175F88F30C1
:10416C00FCFD90BA27E075F00DA42424F582E5F04F
:10417C0034ADF583E0F5FAE4F5FBF5FCF5FDD2FE84
:10418C0020FEFD90BA27E0FB75F00DA42425F582E6
:10419C00E5F034ADF583E0FCA3E0FDA3E0FEA3E085
:1041AC00FF7818120A448FFA75F00DEBA42425F54C
:1041BC0082E5F034ADF583E0FCA3E0FDA3E0FEA3C3
:1041CC00E0FF7810120A448FFB90BA27E0FB75F0E1
:1041DC000DA42425F582E5F034ADF583E0FCA3E0D5
:1041EC00FDA3E0FEA3E0FF7808120A448FFC75F0F3
:1041FC000DEBA42425F582E5F034ADF583A3A3A340
:10420C00E0F5FDD2FE20FEFD90BA27E0FF75F00D23
:10421C00A42429F582E5F034ADF583E0F5FA75F0C8
:10422C000DEFA4242AF582E5F034ADF583E0F5FB1F
:10423C0090BA27E0FF75F00DA4242BF582E5F0343D
:10424C00ADF583E0F5FC75F00DEFA4242CF582E5BB
:10425C00F034ADF583E0F5FDD2FE20FEFD90BA27DB
:10426C00E0FF75F00DA4242DF582E5F034ADF58357
:10427C00E0F5FA75F00DEFA4242EF582E5F034ADDF
:10428C00F583E0F5FB90BA27E0FF75F00DA4242F21
:10429C00F582E5F034ADF583E0F5FC75F00DEFA497
:1042AC002430F582E5F034ADF583E0F5FDD2FE2047
:0C42BC00FEFD90BA27E004F0E4F5F822C3
:06297E0090C4C5120AAF6F
:10298400D390C4CBE0940090C4CAE09408400302FE
:102994002BF490C4C9E0FB90C4C530E70FE0FCA35E
:1029A400E0FDA3E0FEA3E0FF7803800DE0FCA3E0DC
:1029B400FDA3E0FEA3E0FF7815120A5790C4D412D9
:1029C4000AAF90BA26E0FA75F00DA42424F582E546
:1029D400F034ADF583E030E63890C4D4E0FCA3E0F5
:1029E400FDA3E0FEA3E0FF75F00DEAA42425F58223
:1029F400E5F034ADF583120AAFEB54C0FF75F00D6A
:102A0400EAA42424F582E5F034ADF583EFF0022B3B
:102A1400D890C4CAE0FCA3E0FDAE047803CEC3138F
:102A2400CE13D8F990C4D2F0ED5407A3F0E490C4C7
:102A3400D1F090C4C9E054C0FFE4FCFDFE90C4D8BA
:102A4400120AAFE490C4CFF090C4D2E0FF90C4CF98
:102A5400E0C39F4003022B0390C4D4E0FCA3E0FD39
:102A6400A3E0FEA3E0FF90BA26E0FB75F00DA424DA
:102A740025F582E5F034ADF583120AAF90C4D8E0B1
:102A8400FCA3E0FDA3E0FEA3E04408FF75F00DEB1A
:102A9400A42424F582E5F034ADF583EFF0E490C48A
:102AA400D0F090C4D0E0FFC39408504490C4CCE06C
:102AB400FBA3E0FAA3E0F990C4D1E0F582758300AA
:102AC4001206EAFE90BA26E075F00DA42429F582D8
:102AD400E5F034ADF583E5822FF582E43583F583A3
:102AE400EEF090C4D1E004F090C4D0E004F080B2E1
:102AF40090BA26E004F090C4CFE004F0022A4C908F
:102B0400C4D3E0FB7003022BDEA3E0FCA3E0FDA32F
:102B1400E0FEA3E0FF90BA26E075F00DA42425F5AD
:102B240082E5F034ADF583120AAFAF0390C4D8A3A5
:102B3400E0F9A3E0FAA3E04FFF90BA26E075F00DA8
:102B4400A42424F582E5F034ADF583EFF0E490C4D9
:102B5400D0F090C4D3E0FF90C4D0E0FEC39F5044B3
:102B640090C4CCE0FBA3E0FAA3E0F990C4D1E0F573
:102B7400827583001206EAFF90BA26E075F00DA470
:102B84002429F582E5F034ADF583E5822EF582E45F
:102B94003583F583EFF090C4D1E004F090C4D0E025
:102BA40004F080AE90C4D0E0FFC39408502690BADD
:102BB40026E075F00DA42429F582E5F034ADF58303
:102BC400E5822FF582E43583F583E4F090C4D0E008
:102BD40004F080D090BA26E004F090BA28E0701097
:102BE400C2AF12415CD2AF90BA287401F0438F0493
:012BF40022BE
:03004B0002262466
:10262400C0E0C0F0C083C082C0D075D000C000C07C
:0D26340001C002C003C004C005C006C007FD
:10264100C2AFE59130E70353913FE59120E60302E4
:1026510029245391BF75F1FF75F20075F36875F484
:102661000175F8AF30FCFDD2FE20FEFD90C367E599
:10267100FAF0E0FF90BA24E075F00DA42424F5826D
:10268100E5F034A0F583EFF0D2FE20FEFD90BA24F0
:10269100E075F00DA42425F582E5F034A0F583C0A2
:1026A10083C082E0FCA3E0FDA3E0FEA3E0FF780885
:1026B100120A57D082D083120AAF90BA24E075F083
:1026C1000DA42425F582E5F034A0F583C083C082F2
:1026D100E0F8A3E0F9A3E0FAA3E0FBAFFAEB4FFFC8
:1026E100EAFEE9FDE8FCD082D083120AAF90BA2459
:1026F100E075F00DA42425F582E5F034A0F583C042
:1027010083C082E0FCA3E0FDA3E0FEA3E0FF780824
:10271100120A57D082D083120AAF90BA24E075F022
:102721000DA42425F582E5F034A0F583C083C08291
:10273100E0F8A3E0F9A3E0FAA3E0FBAFFBEB4FFF66
:10274100EAFEE9FDE8FCD082D083120AAF90BA24F8
:10275100E075F00DA42425F582E5F034A0F583C0E1
:1027610083C082E0FCA3E0FDA3E0FEA3E0FF7808C4
:10277100120A57D082D083120AAF90BA24E075F0C2
:102781000DA42425F582E5F034A0F583C083C08231
:10279100E0F8A3E0F9A3E0FAA3E0FBAFFCEB4FFF05
:1027A100EAFEE9FDE8FCD082D083120AAF90BA2498
:1027B100E075F00DA42425F582E5F034A0F583C081
:1027C10083C082E0FCA3E0FDA3E0FEA3E0FF780864
:1027D100120A57D082D083120AAF90BA24E075F062
:1027E1000DA42425F582E5F034A0F583C083C082D1
:1027F100E0F8A3E0F9A3E0FAA3E0FBAFFDEB4FFFA4
:10280100EAFEE9FDE8FCD082D083120AAF90BA2437
:10281100E075F00DA42425F582E5F034A0F583C020
:1028210083C082E0FCA3E0FDA3E0FEA3E0FF780308
:10283100120A44D082D083120AAF90C367E020E726
:102841002D90BA24E075F00DA42425F582E5F0342D
:10285100A0F583C083C082E0FCA3E0FDA3E0FEA35A
:10286100E0FF7812120A44D082D083120AAF90C3DB
:1028710067E030E60302291BD2FE20FEFD90BA2458
:10288100E0FF75F00DA42429F582E5F034A0F5836D
:10289100E5FAF075F00DEFA4242AF582E5F034A0F5
:1028A100F583E5FBF075F00DEFA4242BF582E5F03F
:1028B10034A0F583E5FCF075F00DEFA4242CF5822E
:1028C100E5F034A0F583E5FDF0D2FE20FEFD90BADF
:1028D10024E0FF75F00DA4242DF582E5F034A0F578
:1028E10083E5FAF075F00DEFA4242EF582E5F034BE
:1028F100A0F583E5FBF075F00DEFA4242FF582E53B
:10290100F034A0F583E5FCF075F00DEFA42430F56B
:1029110082E5F034A0F583E5FDF075F80090BA2466
:10292100E004F0E59130E51A5391DF90BA26E0FF1B
:10293100A3E06F600812415C438F04800590BA28C0
:10294100E4F0E59130E4035391EFE59130E3035373
:1029510091F7E59130E2065391FB438F0475E8004E
:02296100D2AFF3
:10296300D007D006D005D004D003D002D001D000C8
:0B297300D0D0D082D083D0F0D0E03272
:105D6A00507265666C6F77004E6F7468696E670073
:105D7A0049676E6974696F6E00426567696E20498A
:105D8A0000496E6372656173650057656C64696E7C
:105D9A0067004465637265617365696E6700456E85
:105DAA0064204900436C65616E696E6700466C6FDA
:105DBA007720656E640025732025642025642025DC
:105DCA00642025640A0D2564410A0D252E31665684
:105DDA000A0D252E3166730A0D676F6F643A202506
:105DEA00640A0D6261643A2025640004FF031FFF00
:105DFA005D6AFF5D72FF5D7AFF5D83FF5D8BFF5D0C
:0D5E0A0094FF5D9CFF5DA8FF5DAEFF5DB7DE
:0A76C30075F90175BCFD7590FD22FC
:030003000267E0B1
:1067E000C0E0C0F0C083C082C0D075D000C000C07F
:1067F00001C002C003C004C005C006C0077F587EA8
:106800000212756EE5B030E0F47F587E0212756EAC
:10681000E5B030E0F47F2C7E0112756EE5B030E01B
:10682000F4E5B020E114E51DD3945090C319400560
:106830007401F08002E4F0751D647F017E00126F28
:1068400065C289C28BD007D006D005D004D003D052
:1068500002D001D000D0D0D082D083D0F0D0E032AE
:0300130002675F22
:10675F00C0E0C0F0C083C082C0D075D000C000C000
:10676F0001C002C003C004C005C006C0077F587E29
:10677F000212756EE5B030E1F47F587E0212756E2D
:10678F00E5B030E1F47F2C7E0112756EE5B030E19B
:10679F00F4E5B020E015E51DD3945090C3194005E2
:1067AF007403F080037402F0751D647F017E001284
:1067BF006F65C289C28BD007D006D005D004D00335
:1067CF00D002D001D000D0D0D082D083D0F0D0E092
:0167DF003287
:104E4C0090C31B7401F0A3E4F0A3F0A37435F0A39A
:104E5C00E4F0A37432F0A3E4F0A37414F0A3E4F030
:104E6C00A37421F0A3E4F0A37464F0A3E4F0A3749E
:104E7C0002F0A3E4F0A37496F0A3E4F0A37403F09F
:104E8C00A3E4F0A37464F0A3E4F0A37406F0A3E429
:104E9C00F0A3740BF0A3E4F0A3743CF0A3E4F0A330
:104EAC00740BF0A3E4F0A37403F0A3E4F0A3743741
:104EBC00F0A3E4F0A304F0A3E4F0A304F0A3E4F063
:104ECC00A37402F0A3E4F0A304F0A3E4F0A374022F
:104EDC00F0A3E4F0A37403F0A3E4F0A304F0E4A3C0
:104EEC00F0A3F0A3F0A37418F0A3E4F0A37419F0EA
:104EFC00A3E4F0A3741AF0A3E4F0A3741BF0A3E4EE
:104F0C00F0A37402F0A3E4F0A3741DF0A3E4F0A3E7
:104F1C00741EF0A3E4F0A3741FF0A3E4F0A37420B8
:104F2C00F0A3E4F0A37421F0A3E4F0A37478F0A34D
:064F3C00E4F0A304F022E2
:1058600090C3B274FFF0A3745DF0A374C0F0E52C94
:1058700075F003A424F9F582E4345DF583E493F92B
:10588000740193FA74029390C3B5C9F0A3EAF0A32C
:10589000E9F0A3E52DF0A3E52EF0A3E52FF0A3E5B5
:1058A00030F0A3E522F0A3E523F0A3E52AF0A3E579
:1058B0002BF0A3E526F0A3E527F0AC28AD29E412F0
:1058C00001A8E4FBFA7920784112010690C3C212C4
:1058D0000AAFAC24AD25E41201A8E4FBFA792078E4
:1058E0004112010690C3C6120AAF90C365E0FFA340
:1058F000E090C3CACFF0A3EFF090C363E0FFA3E052
:1059000090C3CCCFF0A3EFF07B017AC179E81222EB
:10591000067B017AC179E890C3E4E4F0A37432F025
:075920007F007E25023CAC74
:104B31007B017AC3797290C398E4F0A37403F07F88
:104B4100167E001235C890C372E0645A6003024CAD
:104B510041F07B017AC3797490C3E4F0A304F07F40
:104B6100167E00123CAC90C374E0F52DA3E0F52E47
:104B7100A3E0F52FA3E0F53090C373E0752200F5B3
:074B810023146003024C4104
:104B8800E490C378F090BA4AE0FF90C378E0FEC39F
:104B98009F4003024C3875F009EEA42477F582E5AE
:104BA800F034BCF583E0FEA3E0FF90C374E0FCA3FF
:104BB800E0FDC39FEC9E406F90C378E0FF75F0095D
:104BC800A4247BF582E5F034BCF583E0FAA3E0FB8E
:104BD800D3ED9BEC9A505075F009EFA42479F58237
:104BE800E5F034BCF583E0FEA3E0FF90C376E0FC7B
:104BF800A3E0FDC39FEC9E402EA3E0FF75F009A43F
:104C0800247DF582E5F034BCF583E0FAA3E0FBD31C
:104C1800ED9BEC9A501190BC1FA3E0FAA3E0F5823B
:104C28008A83120B92800990C378E004F0024B8DBE
:094C380090C378E0752A00F52B09
:014C41002250
:101D140090A023E060030221A090A01FE0FEA3E0B6
:101D2400FFA3E0FCA3E0FD6F7002EC6E70030221E0
:011D3400A00E
:101D3500741B2DF582749C3CF583E090C372F09082
:101D4500A022E004F0700690A021E004F090A0210C
:101D5500E05403F090C316E014602824FD60362497
:101D6500FE605724FC7003021E38147003021E65C2
:101D7500240B70A490C372E0B4A59D90C3167401A2
:101D8500F0809590C372E0B4A50890C3167404F072
:101D9500808602218C90C372E0FFB4A50590C24CE9
:101DA5008007EFB45A0690C24D7401F090C31AEF44
:101DB500F090C3167406F0021D1D90C372E0FFB4C7
:101DC500A51790C24CE0B4010890C3167404F080C6
:101DD5000D90C24C7401F08005E490C24CF0EFB454
:101DE5005A1290C24DE0B4010302218C90C24D7489
:101DF50001F08005E490C24DF090C372E0FF90C3FE
:101E050018E0244EF582E434C2F583EFF090C31850
:101E1500E004F090C31AE02402FFE433FE90C318F7
:101E2500E06F7001EE6003021D1D90C316740AF089
:101E3500021D1D90C372E0FFB45A0990C316740BBE
:101E4500F0021D1DEFB4A50D90C3167401F0E490CA
:101E5500C318022194E490C318F090C3160221948C
:101E6500E490C374F090C372E0FF645A601BEFB452
:101E7500A50C90C3167401F0E490C3188008E49093
:101E8500C318F090C31602219490C3737401F090A7
:101E9500C31AE0FF90C373E0FED39F501A744E2E11
:101EA500F582E434C2F583E0FE90C374E02EF09031
:101EB500C373E004F080D8744F2FF582E434C2F583
:101EC50083E0FF90C374E06F6022E490C318F09044
:101ED500C316F090C24DF090C24CF090C364E0047C
:101EE500F0700690C363E004F0021D1D90C366E028
:101EF50004F0700690C365E004F090C24FE024DA68
:101F05007003021F9324F3700302213424F6700337
:0A1F15000221432418600302218C0E
:101F1F0090C250E090C375F0D39424400302218CFB
:101F2F0090C2B374A5F090C2B2F090C2B47404F032
:101F3F00A374A5F0A37425F090C375E090C2B7F019
:101F4F0025E0241BF582E434C3F583E0FCA3E09085
:101F5F00C2B8F0ECFFA3EFF090C2B7E0FE90C2B6AC
:101F6F00E02EFE90C2B8E02E2F90C2BAF090C2BC05
:101F7F00745AF090C2BBF07B017AC279B27D0B7CB0
:011F8F000051
:031F900002212DFE
:101F930090C250E090C375F0D39424400302218C87
:101FA30090C2B374A5F090C2B2F090C375E0FD2562
:101FB300E0240290C2B4F0A374A6F0A37426F0A3A5
:101FC300EDF090C2B6E02D90C377F090C376740124
:101FD300F090C375E0FFA3E0FEC39F40030220E639
:101FE300EE6417600302207690C349F0A3F090C318
:101FF3003FE07004A3E06402700790C34AE0440129
:10200300F090C343E07004A3E06402700790C34AF6
:10201300E04402F090C33DE07004A3E06402700763
:1020230090C34AE04404F090C361E07004A3E06409
:1020330002700790C34AE04408F090C341E0700483
:10204300A3E06402700790C34AE04410F090C33BDE
:10205300E07004A3E06402700790C34AE04440F0D8
:1020630090C353E07004A3E06402700790C34AE096
:102073004480F090C376E0FF25E0241BF582E4342E
:10208300C3F583A3E0FEEF25E0FD2404FC24B2F5B1
:1020930082E434C2F583EEF090C376E025E0241B9E
:1020A300F582E434C3F583E0FFED2405FE24B2F5A5
:1020B30082E434C2F583EFF074B22CF582E434C2C7
:1020C300F583E0FF90C377E02FFF74B22EF582E42F
:1020D30034C2F583E02F90C377F090C376E004F029
:1020E300021FD490C377E0FF90C376E0FE25E0FDA6
:1020F300240624B2F582E434C2F583EFF0ED24081C
:1021030024B2F582E434C2F583745AF0EE25E0FF7D
:10211300240724B2F582E434C2F583745AF0EF2421
:0F21230009FD7C007B017AC279B27F03123AF981
:10213200805890C250E0FF6458604FEF14F52C8035
:012142004953
:1021430090C252E0FE90C251E07C002400FFEC3EBE
:1021530090C375F0A3EFF090C250E0FFB4400C9031
:10216300C375E0F526A3E0F527801EEFB4410C907C
:10217300C375E0F528A3E0F529800EEFB4420A9079
:09218300C375E0F524A3E0F52585
:10218C00E490C318F090C316F090C24DF090C24C7E
:04219C00F0021D1D13
:0121A000221C
:1069D1001271C51274FAC2AF53A9FE53B9FEC2892E
:1069E100D288D2A8C28BD28AD2AAD2AF1276C312CF
:1069F100502590C373120ABB0001C2007F03126CC1
:106A0100FCE490C318F090C316F090C24DF090C210
:106A11004CF0122E0C124E4C121D14124B317F01F0
:106A2100127621EF700A7DFAFCFF1273581258603A
:106A3100C2AF90C319E0FF600812765AE490C319FF
:056A4100F0D2AF80D38C
:0376D900FF76DC5D
:0176DC00228B
:106A4600C2AFE4F5F1F5F275F30A75F40175F8AF26
:106A560030FCFDD2FE20FEFDAFFA90C597E4F0A310
:106A6600EFF0E07F00FE90C597F0A3EFF0ADFBEDF1
:106A7600FF90C597EEF0A3EFF0E4F5F8D2AF90C51E
:106A860097E0FEA3E0FF9076D975F003120AECEECC
:106A960075F003A42583F583E493FB740193FA74DC
:0D6AA6000293F94A600789828A83120B92DD
:016AB30022C0
:0476D5000F407200F0
:10665900788C7CC57D017BFF7A7679D57E007F04B5
:106669001206AB90C373120ABB0001C200E4FF1209
:106679006CFC7B017AC5798C12628490BECE740160
:10668900F0A37484F0A37400F0A37401F0A37488D8
:10669900F0A37404F0A37401F0A37488F0A3740642
:1066A900F0A37404F0A3E4F07B01A304F0A374BE87
:1066B900F0A374E4F0A3EBF0A374BFF0A374E4F0C7
:1066C900A3EBF0A374BFF0A374E6F0A37401F0A3E5
:0266D900E4F0EB
:0166DB00229C
:1066DC007B017ABF79E890C398E4F0A37402F07F51
:1066EC00007E0F1235C890BFE8E0645A7062F07BF0
:1066FC00017ABF79E890C3E4F0A37402F07F007EC6
:10670C000F123CAC90BFEBE0FDC394C840027D641B
:10671C0090BFE9E0FEA3E0FBAA0690BFE8745AF034
:10672C00A374A5F0ED25E02404A3F0A37483F0EA90
:10673C00A3F0A3EBF0A3EDF0AE02AF037B017ABFA5
:10674C0079EF90C398E4F0A3EDF01235C87F0122E5
:02675C007F00BC
:01675E002218
:0B17D80090C4FDEBF0A3EAF0A3E9F0E1
:1017E300C2AF900003120B38120814FFAEF090C57D
:1017F30008EEF0A3EFF0D2AF90C4FDE0FBA3E0FA54
:10180300A3E0F9900006120B38120814FDACF06F38
:101813007002EC6E7003021D11C390C509E09D9028
:10182300C508E09C90C4FDE0FBA3E0FAA3E0F950F7
:101833002190000912083FFF90C509E02FFF90C5D2
:1018430008E035F0CFC39DCF9C90C500F0A3EFF027
:10185300801E900006120B38120814FFC390C509AE
:10186300E09FFE90C508E095F090C500F0A3CEF090
:10187300C390C501E0940690C500E0940050037F37
:10188300002290C4FDE0FBA3E0FAA3E0F990000678
:10189300120B38120814FDACF090C4FDE0FBA3E07A
:1018A300FAA3E0F9120B188D828C831206EAFF90DB
:1018B300C506E4F0A3EFF0E0F8E4F0E890C506F025
:1018C300ED2401FFE43CFE90C50AF0A3EFF090C4C1
:1018D300FDE0FBA3E0FAA3E0F990000912083FFD45
:1018E300C3EF9DEE95F04007E490C50AF0A3F01214
:1018F3000B1890C50AE0FEA3E0F5828E831206EA78
:10190300FF90C506E0FEA3E04FFF90C506EEF0FE94
:10191300A3EFF064A57003EE645A6003021CBC904D
:10192300C4FDE0FBA3E0FAA3E0F9900006120B3834
:101933001208142403FFE435F0FE90C50AF0A3EF68
:10194300F090C4FDE0FBA3E0FAA3E0F990000912D4
:10195300083FFDC3EF9DEE95F04007E490C50AF004
:10196300A3F0120B1890C50AE0FEA3E0F5828E8364
:101973001206EA64826003021AEA90C4FDE0FBA344
:10198300E0FAA3E0F9900006120B381208142402BF
:10199300FFE435F0FE90C50AF0A3EFF090C4FDE03C
:1019A300FBA3E0FAA3E0F990000912083FFDC3EF9F
:1019B3009DEE95F04007E490C50AF0A3F090C4FDB6
:1019C300E0FBA3E0FAA3E0F9120B1890C50AE0FECE
:1019D300A3E0F5828E831206EA2403FFE433FE902C
:1019E300C502F0A3EFF0C390C501E09F90C500E0EE
:1019F3009E5003021D11E490C504F0A3F090C502AC
:101A0300E0FEA3E0FFA3E0FCA3E0FDC39FEC9E4048
:101A130003021AB690C4FDE0FBA3E0FAA3E0F99039
:101A23000006120B38120814FFAEF090C4FDE0FB61
:101A3300A3E0FAA3E0F9120B188F828E831206EA51
:101A4300FF74E82DF58274BF3CF583EFF090C4FD7D
:101A5300E0FBA3E0FAA3E0F9900006120B38E4756B
:101A6300F00112087790C4FDE0FBA3E0FAA3E0F9CC
:101A7300900006120B38120814FFAEF090C4FDE07C
:101A8300FBA3E0FAA3E0F990000912083FFDC3EFBE
:101A93009DEE95F0400C900006120B38E4F5F01221
:101AA30008AF90C505E004F0700690C504E004F0AB
:101AB300021A0090BFECE0FEA3E0FF7B017ABF793E
:101AC300EE90BFEAE024FDC313FD90C3E4E4F0A36A
:101AD300EDF0123CAC90BFEA7403F090BFEC744F8E
:101AE300F0A3744B021C6D90C4FDE0FBA3E0FAA3CA
:101AF300E0F9120B1890C50AE0FEA3E0F5828E838D
:101B03001206EA64836003021C7190C4FDE0FBA328
:101B1300E0FAA3E0F9900006120B3812081424022D
:101B2300FFE435F0FE90C50AF0A3EFF090C4FDE0AA
:101B3300FBA3E0FAA3E0F990000912083FFDC3EF0D
:101B43009DEE95F04007E490C50AF0A3F090C4FD24
:101B5300E0FBA3E0FAA3E0F9120B1890C50AE0FE3C
:101B6300A3E0F5828E831206EA2403FFE433FE909A
:101B7300C502F0A3EFF0C390C501E09F90C500E05C
:101B83009E5003021D11E490C504F0A3F090C5021A
:101B9300E0FEA3E0FFA3E0FCA3E0FDC39FEC9E40B7
:101BA30003021C4690C4FDE0FBA3E0FAA3E0F99016
:101BB3000006120B38120814FFAEF090C4FDE0FBD0
:101BC300A3E0FAA3E0F9120B188F828E831206EAC0
:101BD300FF74E82DF58274BF3CF583EFF090C4FDEC
:101BE300E0FBA3E0FAA3E0F9900006120B38E475DA
:101BF300F00112087790C4FDE0FBA3E0FAA3E0F93B
:101C0300900006120B38120814FFAEF090C4FDE0EA
:101C1300FBA3E0FAA3E0F990000912083FFDC3EF2C
:101C23009DEE95F0400C900006120B38E4F5F0128F
:101C330008AF90C505E004F0700690C504E004F019
:101C4300021B9090BFECE0FEA3E0FF7B017ABF791B
:101C5300EFA3E0FD90C398E4F0A3EDF01235C89034
:101C6300BFEEE025E0240490BFEAF07F012290C498
:101C7300FDE0FBA3E0FAA3E0F9900006120B38E4C1
:101C830075F00112087790C4FDE0FBA3E0FAA3E02E
:101C9300F9900006120B38120814FFAEF090C4FD41
:101CA300E0FBA3E0FAA3E0F990000912083FFDC3AB
:101CB300EF9DEE95F04057804990C4FDE0FBA3E013
:101CC300FAA3E0F9900006120B38E475F00112084C
:101CD3007790C4FDE0FBA3E0FAA3E0F990000612BD
:101CE3000B38120814FFAEF090C4FDE0FBA3E0FA3A
:101CF300A3E0F990000912083FFDC3EF9DEE95F0B4
:101D0300400C900006120B38E4F5F01208AF7F0088
:011D130022AD
:10454C0090BA25E0FF90BA24E06F70030245E57540
:10455C00F00DEFA42425F582E5F034A0F583E0FC02
:10456C00A3E0FDA3E0FEA3E0FFE47B23FAF9F8C38C
:10457C00120A33705E90BA25E075F00DA42424F570
:10458C0082E5F034A0F583E0540FFFE4FEEEC39F08
:10459C00504190BA25E075F00DA42429F582E5F080
:1045AC0034A0F583E5822EF582E43583F583E0FDB6
:1045BC0090BFE4E0FAA3E024E4F58274BE3AF583FC
:1045CC00EDF090BFE5E004F0700690BFE4E004F07D
:1045DC000E80BA90BA25E004F01266DCEF6401702C
:1045EC004190BFEAE02403FDE433FC7B017ABF7900
:1045FC00E8E4FF123AF9E490C4C9F090BFEAE02471
:10460C0003FEE43390C4CAF0A3CEF0A37401F0A36C
:10461C0074BFF0A374E8F07F237E007D007C001251
:10462C00297E7B017ABE79CE1217D8BF011590BFB7
:10463C00EAE02403FDE433FC7B017ABF79E8E4FF74
:10464C00123AF97B017ABE79D91217D8BF012CE442
:10465C0090C4C9F090BFEAE02403FEE43390C4CACE
:10466C00F0A3CEF0A37401F0A374BFF0A374E8F030
:0B467C007F247E007D007C0012297E60
:014687002210
:10764700FF988103FF988104FF988101FF988100CB
:03765700351129C1
:02719100C10932
:105E1700E490C574F0A3F0A374B0F0A374FAF0C2D1
:105E270090C2947F057E0012756EE490C578F0905D
:105E3700C576E0A330E704D2928002C292C2937F74
:105E4700057E0012756ED2937F057E0012756E90E7
:105E5700C577E025E0F090C576E033F090C578E0AF
:105E670004F0E0C3941040C7D2947F057E001275FA
:105E77006EE490C578F0C2937F057E0012756ED2EE
:105E8700937F057E0012756E90C575E025E0F09052
:105E9700C574E033F0309107E0F0A3E04401F090DF
:105EA700C578E004F0E0C3941040CBD2907F057E24
:0C5EB7000012756E90C574E0FEA3E0FFC1
:015EC30022BC
:105CBB00E490C579F0A3F0EFFF74FAA3CFF0A3EF54
:105CCB00F0C290C2947F057E0012756EE490C57D84
:105CDB00F090C57BE0A330E704D2928002C292C25F
:105CEB00937F057E0012756ED2937F057E00127531
:105CFB006E90C57CE025E0F090C57BE033F090C55D
:105D0B007DE004F0E0C3941040C7D2947F057E0081
:105D1B0012756EE490C57DF0C2937F057E001275FF
:105D2B006ED2937F057E0012756E90C57AE025E0EA
:105D3B00F090C579E033F0309107E0F0A3E0440137
:105D4B00F090C57DE004F0E0C3941040CBD2907F7F
:0E5D5B00057E0012756E90C579E0FEA3E0FF94
:015D69002217
:106D4F0090C37CEFF0C290C2947F057E0012756EE7
:106D5F00E490C37BF090C37CE030E704D2928002D2
:106D6F00C292C2937F057E0012756ED2937F057E0D
:106D7F000012756E90C37CE025E0F090C37BE004B9
:106D8F00F0E0C3940840CED2907F057E0002756E6E
:05538F00E4FDFC7FB805
:1053940090C37CEFF0ECA3F0A3EDF0C290C2947F35
:1053A400057E0012756EE490C37BF090C37CE03000
:1053B400E704D2928002C292C2937F057E001275E6
:1053C4006ED2937F057E0012756E90C37CE025E05B
:1053D400F090C37BE004F0E0C3940840CED2947F05
:1053E400057E0012756EE490C37BF090C37EE030BE
:1053F400E704D2928002C292C2937F057E001275A6
:105404006ED2937F057E0012756E90C37EE025E018
:10541400F090C37BE004F0E0C3940840CEE490C372
:105424007BF090C37DE030E704D2928002C292C246
:10543400937F057E0012756ED2937F057E001275F0
:105444006E90C37DE025E0F090C37BE004F0E0C300
:0D545400940840CED2907F057E0002756E58
:06601C007BFF7D047C0007
:0B60220090C372EBF0A3EAF0A3E9F0DA
:10602D00AE04AF05A3EEF0A3EFF07FBC1253949036
:10603D00C375E0FCA3E0FD7FBE1253947FBF126DCC
:10604D004FC290D2947F057E0012756E90C3757409
:10605D00FFF5F01207FE45F0605190C372E0FBA30F
:10606D00E475F0011207FEA9F0FA1206D190C3787B
:10607D00F0E490C377F090C377E0C3940850CDA3BC
:10608D00E030E704D2928002C292C2937F057E0077
:10609D0012756ED2937F057E0012756E90C378E0F7
:1060AD0025E0F090C377E004F080CBD2907F057EA1
:0460BD000002756EFA
:105F700090C3787401F0A374C3F0A37476F090C357
:105F800076EFF0A3EDF090C372E4F0A37402F0FD9D
:105F90007C007FBC12539490C372E0FCA3E0FD7FB1
:105FA000BE1253947FBF126D4FC290D2947F0F7E6A
:105FB0000012756E90C37274FFF5F01207FE45F083
:105FC000605190C378E0FBA3E475F0011207FEA9CD
:105FD000F0FA1206D190C375F0E490C374F090C348
:105FE00074E0C3940850CDA3E030E704D29280025D
:105FF000C292C2937F0F7E0012756ED2937F0F7E86
:106000000012756E90C375E025E0F090C374E00453
:0C601000F080CBD2907F0F7E0002756EF6
:101258007A76794712601CE4FD7F01125F70E4FD25
:101268007F02125F707D577F03125F707DD37F040A
:10127800125F70E4FD7F05125F707D117F06125FBB
:10128800707D087F07125F70E4FD7F08125F70E4CD
:10129800FD7F09125F707D3F7F0A125F70E4FD7F5A
:1012A8000B125F70E4FD7F0C125F70E4FD7F0D127E
:1012B8005F70E4FD7F0E125F707D3F7F0F125F70DD
:1012C8007D3F7F10125F70E4FD7F11125F70E4FDB7
:1012D8007F12125F70E4FD7F13125F70E4FD7F14CC
:1012E800125F70E4FD7F15125F70E4FD7F16125FD8
:1012F80070E4FD7F17125F70E4FD7F18125F70E4E1
:10130800FD7F19125F70E4FD7F1A125F70E4FD7FA4
:101318001B125F70E4FD7F1C125F70E4FD7F1D12DD
:101328005F707D407F1E125F707D807F1F125F702F
:101338007D067F20125F707D017F21125F70E4FDC2
:101348007F22125F70E4FD7F23125F70E4FD7F242B
:10135800125F70E4FD7F25125F70E4FD7F26125F47
:1013680070E4FD7F27125F707D337F28125F707DE8
:10137800337F29125F70E4FD7F2A125F70E4FD7FDE
:101388002B125F70E4FD7F2C125F70E4FD7F2D123D
:101398005F70E4FD7F2E125F70E4FD7F2F125F7097
:1013A800E4FD7F30125F70E4FD7F31125F70E4FD71
:1013B8007F32125F70E4FD7F33125F70E4FD7F348B
:1013C800125F70E4FD7F35125F70E4FD7F36125FB7
:1013D80070E4FD7F37125F707D787F38125F70E4AC
:1013E800FD7F39125F70E4FD7F3A125F70E4FD7F84
:1013F8003B125F70E4FD7F3C125F70E4FD7F3D129D
:101408005F70E4FD7F3E125F70E4FD7F3F125F7006
:10141800E4FD7F40125F70E4FD7F41125F70E4FDE0
:101428007F42125F70E4FD7F43125F70E4FD7F44EA
:10143800125F70E4FD7F50125F707D237F51125F51
:10144800707D457F52125F707D677F53125F707D9C
:10145800897F54125F707DAB7F55125F707D017F6D
:1014680056125F707D237F57125F707D457F58123B
:101478005F707D677F59125F707D897F5A125F7038
:101488007DAB7F5B125F707DCD7F5C125F707DEFFF
:101498007F5D125F70E4FD7F5E125F707D0D7F5F80
:1014A800125F707D0D7F60125F707D0C7F61125F2F
:1014B800707D0C7F62125F707D0F7F63125F707D9D
:1014C8000F7F64125F707D0E7F65125F707D0E7FE7
:1014D80066125F707D087F67125F707D027F6812F9
:1014E8005F707D027F69125F707D027F6A125F7094
:1014F8007D027F6B125F707D027F6C125F707D02D0
:101508007F6D125F707D027F6E125F707D027F6F4C
:10151800125F707D147F70125F707D157F71125F8E
:10152800707D067F72125F707D027F73125F707D1F
:10153800027F74125F707D0D7F75125F707D0D7F65
:1015480076125F707D0C7F77125F707D0C7F78124A
:101558005F707D0F7F79125F707D0F7F7A125F70E9
:101568007D0E7F7B125F707D0E7F7C125F707D0821
:101578007F7D125F707D027F7E125F707D027F7FAC
:10158800125F707D027F80125F707D027F81125F23
:10159800707D027F82125F707D027F83125F707D93
:1015A800027F84125F707D027F85125F707D147FD9
:1015B80086125F707D157F87125F707D067F8812A7
:1015C8005F707D027F89125F707D027F8A125F7073
:1015D8007A76794B12601C7D3B7F6E125F707D5767
:1015E8007F6F125F707D247F3A125F707D1F7F8D41
:1015F800125F707DBA7F87125F707DD17FB2125FF4
:10160800707D0B7F88125F707D017F38125F70E4F8
:10161800FD7F39125F707D077FB5125F707D757F22
:1016280031125F707D987F3B125F707BFF7A76790D
:101638004F12601E7D0A7F22125F707D097F311272
:101648005F707D077F35125F707D677F53125F7013
:101658007D847F55125F707D867F50125F707D821A
:101668007F51125F707D107F60125F70E4FD7F62B2
:10167800125F70E4FD7FA0125F707D127FA1125F80
:10168800707D1F7FA2125F707D127FA3125F707D35
:10169800167FA4125F707D297FA5125F707D1E7F63
:1016A800A6125F707D1F7FA7125F707D7E7FA812D4
:1016B8005F707D1B7FA9125F707D287FAA125F7003
:1016C8007D6D7FAB125F707D197FAC125F707D18E6
:1016D8007FAD125F707D4C7FAE125F707D1E7FAF55
:1016E800125F707D237FB0125F707D527FB1125FF1
:1016F800707D6D7FB2125F707D3F7FB3125F70E4C3
:10170800FD7FC0125F707D127FC1125F707D207FE8
:10171800C2125F707D107FC3125F707D137FC41289
:101728005F707D277FC5125F707D1B7FC6125F705B
:101738007D1D7FC7125F707D757FC8125F707D1F2A
:101748007FC9125F707D287FCA125F707D687FCB6A
:10175800125F707D1A7FCC125F707D187FCD125F8B
:10176800707D4D7FCE125F707D257FCF125F707DBB
:101778002E7FD0125F707D537FD1125F707D607FA6
:10178800D2125F707D3F7FD3125F707BFF7A7679CC
:101798005312601E7BFF7A7679577D017C001260B8
:1017A800227F8C7E00126F657BFF7A7679587D01E7
:1017B8007C001260227F787E00126F657BFF7A764C
:1017C80079597D017C001260227FAA7E00026F6534
:107267007D067C087FB11253947D227C187FB21271
:1072770053947D127C687FB31253947D207C037FE7
:0D728700B41253947D007C057FB502539432
:105025007D507C007FB712539412538FE4FDFC7FB3
:10503500B91253947D0A7C807FBA1253947D067C05
:10504500007FBB1253947D017C007FB9125394E419
:10505500FDFC7FDE1253947D027C237FC91253949D
:105065007F0A7E00126F651212587D517C017FB751
:1050750012539412538FE4FDFC7FB91253947D159E
:105085007C807FBA1253947D057C007FBB125394BC
:105095007D017C007FB91253947D027C237FC91268
:1050A50053947F0A7E00126F657D017C237FCA12AF
:1050B50053947D107C057FCB1253947D057C107F26
:1050C500CC1253947DFF7C007FD0125394127267EB
:1050D5007DD37C007FB61253947D037C007FDE1266
:1050E50053947D047C007FD61253947D4B7C027FC4
:0E50F500B71253947F3C7E00126F65D20922E1
:106ED1002564257300730041006D7300250025644E
:106EE100410004FF031F0D7864008003FFFFBF030F
:106EF100FFFCBF0000306F000000070000038000AE
:106F010000007800000C000000300000F0000000DC
:0B6F11000FC00003000000FFFB0105A3
:1071930002390096023D0018023B028A04400210A5
:0D71A3005489013F0041BA29000237FFE086
:0C73340090C3847401F0A3745EF07D052A
:10734000AF05EC8FF01208AF90C384E0FFA3E0908C
:087350000002CF8FF00208CE0D
:0576B70090C59FEFF0FB
:0676BC0090BA29E004F081
:0176C20022A5
:1052B80090C37DE0FAA3E02FFBEA3EFA90C37FE0BB
:1052C800F8A3E02FFFE83E90C3B0F0A3EFF090C33F
:0E52D8007BE090C3B2F090C37DE0FEA3E0FF48
:1052E60090C3AAEEF0A3EFF0A3ECF0A3EDF090BA12
:1052F6004AE0D39430400302538E90C3B2E0FF904D
:10530600BA4AE0FE75F009A42476F582E5F034BCCD
:10531600F583EFF090C3AAE0FCA3E0FD75F009EE7B
:10532600A42477F582E5F034BCF583ECF0A3EDF028
:1053360090C3ACE0FEA3E0FF90BA4AE0FD75F00929
:10534600A42479F582E5F034BCF583EEF0A3EFF002
:10535600AF0375F009EDA4247BF582E5F034BCF5C6
:1053660083EAF0A3EFF090C3B0E0FEA3E0FF75F090
:1053760009EDA4247DF582E5F034BCF583EEF0A3B7
:09538600EFF090BA4AE004F022B5
:102BF50090C389E0FEA3E0FFC3940AEE9400500A57
:102C050090C394E4F0A304F0803AC3EF9464EE9487
:102C150000500B90C394E4F0A37402F08026C3EF38
:102C250094E8EE9403500B90C394E4F0A37403F07E
:102C35008012C3EF9410EE9427500990C394E4F0EA
:102C4500A37404F090C38CE0FBA3E0FAA3E0F912AF
:102C550075F990C38BE02FFF90C393E075F007A43F
:102C650024A3F582E5F034BAF583EFF090C390E044
:102C750025E0FF90C38FE033FEC390C388E09FFF3C
:102C850090C387E09EFE906EE7E493FDC3EF9DFD44
:102C9500EE9400FC90C385E0FEA3E0FF127385C0AF
:102CA5000190C393E075F007A4249FF974BA35F039
:102CB500A801FC7D01D0017E007F041206AB90C304
:102CC5008FE0FEA3E0FF90C393E0FD75F007A42419
:102CD500A4F582E5F034BAF583EEF0A3EFF075F0D4
:102CE50007EDA424A3F582E5F034BAF583E0FF905F
:102CF500C395E02FF090C394E03400F090C3B27414
:102D0500FFF0A3746EF0A374D1F090C389E0FFA324
:102D1500E090C3B5CFF0A3EFF090C38CE0F9A3E04A
:102D2500FAA3E090C3B7C9F0A3EAF0A3E9F07B01E9
:102D35007AC3799612220690C385E0FAA3E0FB24B4
:102D4500CEFFEA34FFFEC006C00790C390E025E041
:102D5500FF90C38FE033FEC390C388E09FFD90C30F
:102D650087E09EFCEB783A26FFEA1836CF2432FB43
:102D7500E43FFAE0FFA3E090C3B0CFF0A3EFF0A3E8
:102D85007401F0A374C3F0A37496F090C38FA3E00D
:102D950090C3B5F090C391E0FFA3E090C3B6CFF028
:102DA500A3EFF0D007D006123E3F90C393E0F9257C
:102DB500E0244BF582E434BAF583EEF0A3EFF0900E
:102DC500C385E0FAA3E0FBFFAE02C006C00790C3CF
:102DD50090E025E0FF90C38FE033FEC390C388E009
:102DE5009FFD90C387E09EFCEB783A26FBEA1836F8
:102DF500FAE0FFA3E090C3B0CFF0A3EFF0A3E9F0B2
:072E0500D007D0060252E6DF
:0B46880090C57EEFF0A3ECF0A3EDF076
:10469300C3940AEC94005008A3E4F0A304F0803F11
:1046A30090C57FE0FEA3E0FFC39464EE940050093D
:1046B300A3E4F0A37402F08026C3EF94E8EE94031E
:1046C300500B90C581E4F0A37403F08012C3EF9400
:1046D30010EE9427500990C581E4F0A37404F09080
:1046E300C57EE0FF75F007A424A3F582E5F034BA94
:1046F300F583E0FD90C582E02DF090C581E03400A4
:10470300F0EF25E0244BF582E434BAF583E0FEA311
:10471300E0FFC006C00790C57EE075F007A424A49F
:10472300F582E5F034BAF583E0FCA3E0FD90C581A2
:10473300E0FEA3E0FF12074BC3783AE69FFF18E6BB
:104743009EFEE4FCFD7B02FAF9F81270C990C57E67
:10475300E0FD75F007A4249FF582E5F034BAF583F4
:10476300E0FAA3E02FFFEA3EFE75F007EDA424A1D3
:10477300F582E5F034BAF583E0FCA3E0FD1273851E
:1047830078667CC57D017E007F041206ABD007D01E
:10479300061275B590C57EE025E0244BF582E4341E
:1047A300BAF583E0FEA3E0FF90C57FE0FCA3E0FD44
:0347B300025601AA
:1064C00078777CC37D017E007F041206AB787B7CED
:1064D000C37D017B017AC379777E007F041206AB0E
:1064E00090C37BE0FEA3E0FF906EE8E493FDC390D1
:1064F000C37EE09DFD90C37DE09400FC127385781F
:106500007F7CC37D017E007F041206AB90C37DE0DB
:10651000FCA3E0FDA3E0FAA3E0FBA3E0FFA3E0906F
:10652000C38BCFF0A3EFF0906EE7E49390C38DF0B0
:10653000A37407F0A374E0F090C37BE0FEA3E0FF38
:096540001239427B017AC3797F14
:01654900222F
:10654A0078777CC37D017E007F041206AB787B7C62
:10655A00C37D017B017AC379777E007F041206AB83
:10656A0090C37BE0FEA3E0FF906EE8E493FD90C346
:10657A007EE02DFD90C37DE03400FC127385787FA8
:10658A007CC37D017E007F041206AB90C37DE0FCD4
:10659A00A3E0FDA3E0FAA3E0FBA3E0FFA3E090C31E
:1065AA008BCFF0A3EFF0906EE7E49390C38DF0A346
:1065BA007407F0A374E0F090C37BE0FEA3E0FF123F
:0865CA0039427B017AC3797F9D
:0165D20022A6
:1059E4007839E6FE08E6FF90C37CE02FFF90C37B86
:1059F400E03EFE90C37DE0FCA3E0FD127385787F5A
:105A04007CC37D017E007F041206AB90C37DE0FC65
:105A1400A3E0FDA3E0FAA3E0FBA3E0FFA3E090C3AF
:105A24008BCFF0A3EFF0906EE7E49390C38DF0A3D7
:105A34007407F0A374E0F090C37BE0FEA3E0FF12D0
:105A4400394290C37BE0FEA3E0FF783BE6FC08E626
:105A5400FD12738578857CC37D017E007F04120668
:105A6400AB90BBFFE0FFA3E090C389CFF0A3EFF0BE
:105A7400A37401F0A374FFF0A3746EF0A374D6F0C2
:105A8400A3E4F0A37424F0A37407F0A374FFF0A3B9
:0C5A9400741AF0122BF57B017AC3797FA5
:015AA00022E3
:1048DF0078777CC37D017E007F041206AB787B7CEA
:1048EF00C37D017B017AC379777E007F041206AB0B
:1048FF007839E6FE08E6FF90C37CE02FFF90C37B7C
:10490F00E03EFE90C37DE0FCA3E0FD127385787F4F
:10491F007CC37D017E007F041206AB90C37DE0FC5B
:10492F00A3E0FDA3E0FAA3E0FBA3E0FFA3E090C3A5
:10493F008BCFF0A3EFF0906EE7E49390C38DF0A3CD
:10494F007407F0A374E0F090C37BE0FEA3E0FF12C6
:10495F00394278857CC37D017B017AC3797B7E00E8
:10496F007F041206AB90BC01E0FFA3E090C389CF98
:10497F00F0A3EFF0E4A3F0A374FFF0A3746EF0A321
:10498F0074D8F0783DE6FF08E6A3CFF0A3EFF0A3CD
:10499F0074FFF0A374E0F0A3741BF0122BF590C317
:1049AF007BE0FEA3E0FF783BE6FC08E6FD12738593
:1049BF0078857CC37D017E007F041206AB90BC031B
:1049CF00E0FFA3E090C389CFF0A3EFF0A37401F051
:1049DF00A374FFF0A3746EF0A374D6F0A3E4F0A356
:1049EF007424F0A37407F0A374FFF0A3741CF012E7
:0849FF002BF57B017AC3797FDF
:014A0700228C
:1056CF007839E6FE08E6FF90C37CE02FFF90C37B9E
:1056DF00E03EFE906EE8E493FDC390C37EE09DFD37
:1056EF0090C37DE09400FC127385787F7CC37D01AD
:1056FF007E007F041206AB90C37DE0FCA3E0FDA308
:10570F00E0FAA3E0FBA3E0FFA3E090C38BCFF0A3ED
:10571F00EFF0906EE7E49390C38DF0A37407F0A3BE
:10572F0074E0F090C37BE0FEA3E0FF12394290C318
:10573F007BE0FEA3E0FF783BE6FC08E6FD127385F5
:10574F0078857CC37D017E007F041206AB90BC057B
:10575F00E0FFA3E090C389CFF0A3EFF0A37401F0B3
:10576F00A374FFF0A3746EF0A374D6F0A3E4F0A3B8
:10577F007424F0A37407F0A374FFF0A3741DF01248
:08578F002BF57B017AC3797F41
:0157970022EF
:1037880078777CC37D017E007F041206AB787B7C52
:10379800C37D017B017AC379777E007F041206AB73
:1037A800906EE7E493C313FF90C383E4F0A3EFF0B4
:1037B8007839E6FE08E6FF90C37CE02FFF90C37BD4
:1037C800E03EFE90C37DE0FCA3E0FD127385787FA8
:1037D8007CC37D017E007F041206AB90C37DE0FCB4
:1037E800A3E0FDA3E0FAA3E0FBA3E0FFA3E090C3FE
:1037F8008BCFF0A3EFF0906EE7E49390C38DF0A326
:103808007407F0A374E0F090C37BE0FEA3E0FF121E
:10381800394290C37BE0FEA3E0FF783BE6FC08E674
:10382800FD12738578857CC37D017E007F041206B6
:10383800AB90BC09E0FFA3E090C389CFF0A3EFF001
:10384800A37403F0A374FFF0A3746EF0A374DAF00A
:10385800A3E4F0A3741EF0A37407F0A374FFF0A30D
:10386800741FF0122BF578857CC37D017B017AC328
:10387800797B7E007F041206AB90BC07E0FFA3E0D3
:1038880090C389CFF0A3EFF0E4A3F0A374FFF0A3F3
:10389800746EF0A374D8F0783DE6FF08E6A3CFF085
:1038A800A3EFF0A374F8F0A3741FF0A314F0122B85
:1038B800F57840120A6AEE5402FEEE6076783EE62B
:1038C80025E0FF18E633FE90C37EE02FFD90C37D10
:1038D800E03EFC906EE7E49375F002A42DFDE5F060
:1038E8003CFC90C37BE0FEA3E0FF12738578857CE7
:1038F800C37D017E007F041206AB90BC1DE0FFA3D0
:10390800E090C389CFF0A3EFF0E4A3F0A374FFF035
:10391800A3746EF0A374D8F0783DE6FF08E6A3CF51
:10392800F0A3EFF0A374FFF0A374E0F0A37429F000
:09393800122BF57B017AC3797FA3
:013941002263
:104A080078777CC37D017E007F041206AB787B7CBF
:104A1800C37D017B017AC379777E007F041206ABE0
:104A28007839E6FE08E6FF90C37CE02FFF90C37B51
:104A3800E03EFE90C37DE0FCA3E0FD127385787F25
:104A48007CC37D017E007F041206AB90C37DE0FC31
:104A5800A3E0FDA3E0FAA3E0FBA3E0FFA3E090C37B
:104A68008BCFF0A3EFF0906EE7E49390C38DF0A3A3
:104A78007407F0A374E0F090C37BE0FEA3E0FF129C
:104A8800394290C37BE0FEA3E0FF783BE6FC08E6F2
:104A9800FD12738578857CC37D017E007F04120634
:104AA800AB90BC0DE0FFA3E090C389CFF0A3EFF07B
:104AB800A37403F0A374FFF0A3746EF0A374DAF088
:104AC800A3E4F0A3741EF0A37407F0A374FFF0A38B
:104AD8007421F0122BF578857CC37D017B017AC3A4
:104AE800797B7E007F041206AB90BC0BE0FFA3E04D
:104AF80090C389CFF0A3EFF0E4A3F0A374FFF0A371
:104B0800746EF0A374D8F0783DE6FF08E6A3CFF002
:104B1800A3EFF0A374FFF0A374E0F0A37420F012E5
:084B28002BF57B017AC3797FB4
:014B30002262
:105798007839E6FE08E6FF90C37CE02FFF90C37BD4
:1057A800E03EFE906EE8E493FD90C37EE02DFD9010
:1057B800C37DE03400FC127385787F7CC37D017E55
:1057C800007F041206AB90C37DE0FCA3E0FDA3E0DC
:1057D800FAA3E0FBA3E0FFA3E090C38BCFF0A3EF15
:1057E800F0906EE7E49390C38DF0A37407F0A37470
:1057F800E0F090C37BE0FEA3E0FF12394290C37B48
:10580800E0FEA3E0FF783BE6FC08E6FD127385782E
:10581800857CC37D017E007F041206AB90BC13E03B
:10582800FFA3E090C389CFF0A3EFF0A37401F0A326
:1058380074FFF0A3746EF0A374D6F0A3E4F0A3741D
:1058480024F0A37407F0A374FFF0A37424F0122BC0
:07585800F57B017AC3797FA3
:01585F002226
:104C42007839E6FE08E6FF90C37CE02FFF90C37B35
:104C5200E03EFE90C37DE0FCA3E0FD127385787F09
:104C62007CC37D017E007F041206AB90C37DE0FC15
:104C7200A3E0FDA3E0FAA3E0FBA3E0FFA3E090C35F
:104C82008BCFF0A3EFF0906EE7E49390C38DF0A387
:104C92007407F0A374E0F090C37BE0FEA3E0FF1280
:104CA200394290C37BE0FEA3E0FF783BE6FC08E6D6
:104CB200FD12738578857CC37D017E007F04120618
:104CC200AB90BC17E0FFA3E090C389CFF0A3EFF055
:104CD200A37401F0A374FFF0A3746EF0A374D6F072
:104CE200A3E4F0A37424F0A37407F0A374FFF0A369
:104CF2007426F0122BF578857CC37D017B017AC383
:104D0200797B7E007F041206AB90BC15E0FFA3E026
:104D120090C389CFF0A3EFF0E4A3F0A374FFF0A354
:104D2200746EF0A374D8F0783DE6FF08E6A3CFF0E6
:104D3200A3EFF0A374FFF0A374E0F0A37425F012C4
:084D42002BF57B017AC3797F98
:014D4A002246
:105AA1007839E6FE08E6FF90C37CE02FFF90C37BC8
:105AB100E03EFE90C37DE0FCA3E0FD127385787F9C
:105AC1007CC37D017E007F041206AB90C37DE0FCA8
:105AD100A3E0FDA3E0FAA3E0FBA3E0FFA3E090C3F2
:105AE1008BCFF0A3EFF0906EE7E49390C38DF0A31A
:105AF1007407F0A374E0F090C37BE0FEA3E0FF1213
:105B0100394290C37BE0FEA3E0FF783BE6FC08E668
:105B1100FD12738578857CC37D017E007F041206AA
:105B2100AB90BC19E0FFA3E090C389CFF0A3EFF0E5
:105B3100E4A3F0A374FFF0A3746EF0A374D6F0A3F2
:105B4100E4F0A37424F0A37407F0A374FFF0A3742A
:0B5B510027F0122BF57B017AC3797F4F
:015B5C002226
:105533007839E6FE08E6FF90C37CE02FFF90C37B3B
:10554300E03EFE906EE8E493FDC390C37EE09DFDD4
:1055530090C37DE09400FC127385787F7CC37D014A
:105563007E007F041206AB90C37DE0FCA3E0FDA3A5
:10557300E0FAA3E0FBA3E0FFA3E090C38BCFF0A38B
:10558300EFF0906EE7E49390C38DF0A37407F0A35C
:1055930074E0F090C37BE0FEA3E0FF12394290C3B6
:1055A3007BE0FEA3E0FF90C381E0FCA3E0FD127368
:1055B3008578857CC37D017E007F041206AB90BC99
:1055C3001BE0FFA3E090C389CFF0A3EFF0E4A3F0C7
:1055D300A374FFF0A3746EF0A374DDF0783DE6FFCF
:1055E30008E6A3CFF0A3EFF0A374FFF0A374E0F0F9
:0D55F300A37428F0122BF57B017AC3797F99
:015600002287
:05300000E490BA4AF063
:1030050090C37DF0A3F0906EEA93FE740193FFC325
:1030150074209F90C380F074039E90C37FF0784026
:10302500120A6A90C381120AAFE490C37CF090C380
:103035007BF0E4FFFEFDFC90C381E0F8A3E0F9A37B
:10304500E0FAA3E0FBC3120A33700302313290C3E6
:1030550081A3A3A3E05401FFEF700302311090C3D5
:103065007FE0FCA3E0FD906EEAE493FE740193FF1C
:1030750090C37DE0FAA3E02FFBEA3EFA90C37FE020
:10308500F8A3E02FFFE83E90C3B0F0A3EFF090C3A4
:103095007C1252D990C37BE025E0242AF582E434E2
:1030A500BAF583E0FEA3E0FF90C37CE0FD7C00124F
:1030B500741E90C37BE025E0242AF582E434BAF53A
:1030C50083E0FEA3E0FFC006C00790C37DE0FEA33A
:1030D500E0FFA3E0FCA3E0FD12738578927CC37D3D
:1030E500017E007F041206ABD007D00612759C90B6
:1030F5006EEAE493FE740193FF90C37EE02FF09097
:10310500C37DE03EF090C37BE004F090C381E0FC1A
:10311500A3E0FDA3E0FEA3E0FF7801120A4490C3FB
:1031250081120AAF90C37CE004F002303790C37F70
:10313500E0FCA3E0FD906EEAE493FE740193FF12B8
:1031450052B8906EEAE493FE740193FF90C37EE05B
:103155002FF090C37DE03EF090C37FE0FCA3E0FD3F
:103165001252B890C37BE025E0242AF582E434BAF4
:10317500F583E0FEA3E0FFE4FDFC12741E90C37B23
:10318500E025E0242AF582E434BAF583E0FEA3E0E5
:10319500FFC006C00790C37DE0FEA3E0FFA3E0FCEF
:1031A500A3E0FD12738578927CC37D017E007F04C8
:1031B5001206ABD007D00612759CE490C37BF0E4F1
:1031C50090C3B0F0A3F0A3F0FBFAFDFCFFFE125292
:1031D500E690C37BE004F0E0C3940640E290BC1F98
:0B31E50074FFF0A3740BF0A374BBF0A8
:0131F00022BC
:050BBB0090C385EFF07E
:100BC000A3120ABB0000000090C38A740AF090C30D
:100BD0008AE0FFC394105070EF25E0242AF582E4E8
:100BE00034BAF583E0FEA3E0FF74FFFDFC12741E2F
:100BF00090C38AE0FF75F009A42477F582E5F0340C
:100C0000BCF583E4F0A3F075F009EFA42479F58234
:100C1000E5F034BCF583E4F0A3F075F009EFA4240B
:100C20007BF582E5F034BCF583E4F0A3F075F009C0
:100C3000EFA4247DF582E5F034BCF583E4F0A3F065
:100C400090C38AE004F0808690C385E0C394084096
:100C500003020EFBE490C38AF090C38AE0FBC394C6
:100C6000084003021257E47F01FEFDFC90C385E0BB
:100C700075F009A42476F582E5F034BCF583E0F93B
:100C8000F8120A57EB25E025E024F8F582E4346EEB
:100C9000F583120A93EB5FFFEA5EFEE95DFDE85C17
:100CA000FC4D4E4F7003020EF290C38AE025E02502
:100CB000E024F8F582E4346EF583120A76783FE694
:100CC00025E025E024ECF582E4346EF583120A93E6
:100CD000EB5FFFEA5EFEE95DFDE85CFC90C3861217
:100CE0000AAF90C386E0F8A3E0F9A3E0FAA3E0FB23
:100CF000C000C001E47F01FEFDFC90C385E075F0FB
:100D000009A42476F582E5F034BCF583E0F9F81205
:100D10000A57120A18D001D000EB5FFFEA5EFEE925
:100D20005DFDE85CFC90C386120AAFE4FFFEFDFCAB
:100D300090C386E0F8A3E0F9A3E0FAA3E0FBC312B6
:100D40000A337003021257E490C38BF090C38A7485
:100D50000AF090C385E0FF7E00906EEAE493FA7497
:100D60000193FBFDAC0212074B90C38CEEF0A3EF96
:100D7000F0EB25E0FFEA33FEC374209F90C38FF0B1
:100D800074039E90C38EF0E4FFFEFDFC90C386E0EA
:100D9000F8A3E0F9A3E0FAA3E0FBC3120A3370035F
:100DA00002125790C386A3A3A3E05401FFEF700380
:100DB000020ED0A3E025E0242AF582E434BAF583BC
:100DC000E0FEA3E0FFC006C00790C38CE0FEA3E0F6
:100DD000FFA3E0FCA3E0FD12738578927CC37D0144
:100DE0007E007F041206ABD007D00612759C90C31C
:100DF0008AE025E0242AF582E434BAF583E0FEA3F4
:100E0000E0FF90C38BE0FD7C0012741E90C38CE069
:100E1000FEA3E0FF90C38AE0FD75F009A42477F5F6
:100E200082E5F034BCF583EEF0A3EFF090C38EE0E2
:100E3000FAA3E0FB75F009EDA42479F582E5F0341E
:100E4000BCF583EAF0A3EBF0906EEAE493FC740146
:100E500093FDEF2DFFEE3CFE90C38AE0FD75F00997
:100E6000A4247BF582E5F034BCF583EEF0A3EFF02B
:100E7000906EEAE493FE740193FF90C38FE02FFF1E
:100E800090C38EE03EFE75F009EDA4247DF582E569
:100E9000F034BCF583EEF0A3EFF090C38BE0FF904D
:100EA000C38AE075F009A42476F582E5F034BCF538
:100EB00083EFF0906EEAE493FE740193FFC390C356
:100EC0008FE09FF090C38EE09EF090C38AE004F024
:100ED00090C386E0FCA3E0FDA3E0FEA3E0FF780161
:100EE000120A4490C386120AAF90C38BE004F0024A
:100EF0000D8790C38AE004F0020C5990C385E0FF8F
:100F0000D3940F401475F009EFA42476F582E5F030
:100F100034BCF583E0FF026860E490C38AF090C3BC
:100F20008AE0FBC394084003021257E47F01FEFDF0
:100F3000FC90C385E075F009A42476F582E5F034D1
:100F4000BCF583E0F9F8120A57EB25E025E024F818
:100F5000F582E4346EF583120A93EB5FFFEA5EFEDE
:100F6000E95DFDE85CFC4D4E4F700302124E784087
:100F7000120A8690C38AE025E025E024F8F582E491
:100F8000346EF583120A76120A18EB5FFFEA5EFEF2
:100F9000E95DFDE85CFC7840120AA37840120A86FD
:100FA000C000C001E47F01FEFDFC90C385E075F048
:100FB00009A42476F582E5F034BCF583E0F9F81253
:100FC0000A57D001D000EB4FFFEA4EFEE94DFDE895
:100FD0004CFC7840120AA390C385E075F009A42464
:100FE00076F582E5F034BCF583E0FF24FD500F2454
:100FF000FC24FD500F24FE600B1460088009783F2C
:10100000A6078000122E0C783FE625E025E024ECB0
:10101000F582E4346EF583120A7608120A86EF5BD5
:10102000FFEE5AFEED59FDEC58FC90C386120AAF54
:10103000E490C38AF090C38AE0FFC394085020EF85
:1010400025E0242AF582E434BAF583E0FEA3E0FF2C
:1010500074FFFDFC12741E90C38AE004F080D6E495
:1010600090C38BF090C38AF090C38CF0A3F0906E85
:10107000EA93FE740193FFC374209F90C38FF074B2
:10108000039E90C38EF0E4FFFEFDFC90C386E0F863
:10109000A3E0F9A3E0FAA3E0FBC3120A3370030252
:1010A00011F090C386A3A3A3E05401FFEF700302E5
:1010B00011CEA3E025E0242AF582E434BAF583E0DA
:1010C000FEA3E0FFC006C00790C38CE0FEA3E0FFD4
:1010D000A3E0FCA3E0FD12738578927CC37D017EC2
:1010E000007F041206ABD007D00612759C90C38A0D
:1010F000E025E0242AF582E434BAF583E0FEA3E09B
:10110000FF90C38BE0FD7C0012741E90C38CE0FE48
:10111000A3E0FF90C38AE0FD75F009A42477F5826F
:10112000E5F034BCF583EEF0A3EFF090C38EE0FA67
:10113000A3E0FB75F009EDA42479F582E5F034BC59
:10114000F583EAF0A3EBF0906EEAE493FC7401936C
:10115000FDEF2DFFEE3CFE90C38AE0FD75F009A483
:10116000247BF582E5F034BCF583EEF0A3EFF0903C
:101170006EEAE493FE740193FF90C38FE02FFF901B
:10118000C38EE03EFE75F009EDA4247DF582E5F006
:1011900034BCF583EEF0A3EFF090C38BE0FF90C377
:1011A0008AE075F009A42476F582E5F034BCF58375
:1011B000EFF0906EEAE493FE740193FF90C38DE02C
:1011C0002FF090C38CE03EF090C38AE004F090C30F
:1011D00086E0FCA3E0FDA3E0FEA3E0FF7801120A95
:1011E0004490C386120AAF90C38BE004F0021086CD
:1011F00090C38AE0FFC3940A505D75F009EFA42400
:1012000077F582E5F034BCF583E4F0A3F075F009DE
:10121000EFA42479F582E5F034BCF583E4F0A3F083
:1012200075F009EFA4247BF582E5F034BCF583E486
:10123000F0A3F075F009EFA4247DF582E5F034BC4D
:10124000F583E4F0A3F090C38AE004F080A290C399
:071250008AE004F0020F1E0A
:011257002274
:1033DA0090C372EEF0A3EFF0AB05E025E0FF90C3D7
:1033EA0072E033FE74222FF58274BC3EF583E0FC52
:1033FA00A3E0FDAF03EF3395E0FE12074B90C373D2
:10340A00E025E0FB90C372E033FA74CB2BF58274AB
:10341A00BB3AF583EE8FF01207E890C372E0FEA381
:10342A00E07802C333CE33CED8F92428F58274BEAD
:10343A003EF583E0FCA3E0FD74CB2BF58274BB3A26
:10344A00F583E0FEA3E0D39DEC6480F8EE648098F7
:10345A00401E90C373E025E0FF90C372E033FE7410
:10346A00CB2FF58274BB3EF583ECF0A3EDF0805EC2
:10347A0090C372E0FCA3E0FDAE047802C333CE33FE
:10348A00CED8F92426F58274BE3EF583E0FAA3E08D
:10349A00FBED25E0FFEC33FE74CB2FF58274BB3EC7
:1034AA00F583E0FEA3E0C39BEA6480F8EE648098AB
:1034BA00501C90C373E025E0FF90C372E033FE74A2
:0E34CA00CB2FF58274BB3EF583EAF0A3EBF046
:1034D80090C372E0FEA3E0FFEE600302357EEF24A6
:1034E800E670030235B924FE70030235B91470037F
:1034F8000235B924FE601A24FE601624FD7003020A
:1035080035B924FE70030235B91470030235B98049
:1035180065EF25E0FFEE33FE74CB2FF58274BB3EDA
:10352800F583E0FEA3E0FFC394E8EE648094834053
:103538000F7C037DE81207B290C374EEF0A3EFF09E
:1035480090C373E025E0FF90C372E033FE74CB2F85
:10355800F58274BB3EF583E0FEA3E0FFC39464EEFE
:1035680064809480404B7C007D641207B290C374E1
:10357800EEF0A3EFF0227BFF7A6E79DF90C373E061
:1035880025E0FF90C372E033FE744B2FF58274BAC6
:103598003EF583E0FCA3E0FD74CB2FF58274BB3EBF
:1035A800F583E0FFA3E090C37BCFF0A3EFF01265B3
:0135B800D33F
:0135B90022EF
:02765A00AD077A
:10765C0090BBC5E0FEA3E0FFED906F1893FD0233E5
:01766C00DA43
:0568600090C390EFF071
:106865007E0090BBC5E0FCA3E0FDB50705EEB504D1
:106875000122ED25E0FFEC33FE744B2FF58274BA4F
:106885003EF583E0FEA3E0FF7837E6FC08E6FD125F
:10689500745E90C390E025E0244BF582E434BAF5AC
:1068A50083E0FEA3E0FF1273BD7837A60608A607AE
:1068B50090C390E025E0244BF582E434BAF583E0FB
:1068C500FEA3E0FF7D1F7CF812745E90C390E0FF8D
:0868D50090BBC5E4F0A3EFF055
:0168DD002298
:103FD2007B017ABE798E90C3847427F0A37410F0AB
:103FE2007D647C001273407ABE79921273347ABE79
:103FF200799690C3847427F0A37410F07D641273D1
:10400200407ABE799A90C3847427F0A37410F01298
:1040120073407ABE799E1273347ABE79A290C384B9
:104022007427F0A37410F07D011273407ABE79A652
:104032001273347ABE79AA90C3847427F0A37410E1
:10404200F07D011273407ABE79AE90C384E4F0A38E
:1040520074C8F07D141273407ABE79B290C384E4BE
:10406200F0A37450F07D1E1273407ABE79B690C3ED
:10407200847427F0A37410F07D641273407ABE79C1
:10408200BA1273347ABE79BE90C3847427F0A374D3
:1040920010F07D641273407ABE79C290C384E4F05A
:1040A200A3743CF07D011273407ABE79C690C3843A
:1040B200E4F0A37464F01D1273407ABE79CA1273DD
:1040C2003490BC56E4F0A37464F0A3E4F0A304F0CB
:1040D200A3E4F0A37464F0A3E4F0A37464F0A3E493
:1040E200F0A304F0A3E4F0A304F0A3E4F0A304F02B
:1040F200A3E4F0A304F0A3E4F0A304F0A3E4F0A388
:104102007405F0A3E4F0A37464F0A3E4F0A304F054
:10411200A3E4F0A37464F0A3E4F0A304F0A3E4F036
:09412200A304F0A3E4F0A304F0EF
:10412B0090C37BF0A374BBF0A374CBF0E4A3F0902B
:10413B00C37BE0FBA3E475F0021207FEA9F0FAE4DF
:10414B0075F00A1208AF90C37EE004F0E0B42ADFEA
:01415B002241
:102E0C0090C372E4F0A37428F0A37402F0A37426A8
:102E1C00F01275CE12769B123FD2E490C376F0740A
:102E2C00FFFBFAE4FDFCFFFE124F4290C376E02557
:102E3C00E0242AF582E434BAF583EEF0A3EFF090A7
:102E4C00C376E004F0E0C3941040D412300090BB81
:102E5C00C5E4F0A3741EF07840120A6AEF5401FF27
:0A2E6C00E4FEFDFCEF7003022F49A5
:102E760078397600087696783D760008762390C3F2
:102E860072E0FEA3E0FFA3E0FCA3E0FD12738578E9
:102E96007B7CC37D017E007F041206AB1259E412CF
:102EA60064C01248DF78777CC37D017E007F041200
:102EB60006AB787B7CC37D017B017AC379777E0084
:102EC6007F041206AB1256CF12378812654A124A91
:102ED600081264C078777CC37D017E007F041206E9
:102EE600AB787B7CC37D017B017AC379777E007FDB
:102EF600041206AB12579878777CC37D017E007F5B
:102F0600041206AB787B7CC37D017B017AC379779B
:102F16007E007F041206AB124C4212654A78777C1B
:102F2600C37D017E007F041206AB787B7CC37D01E6
:102F36007B017AC379777E007F041206AB125AA111
:102F4600022FF27840120A6AEF5404FFE4FEFDFCF9
:062F5600EF7003022FFFE3
:102F5C007840120A6AEE5420FEEE7839600E760143
:102F6C0008762C783D7600087630800C7601087651
:102F7C0090783D76000876407DC27C017F287E00EB
:102F8C00127385787B7CC37D011264D91248DF12E1
:102F9C00654A12378878777CC37D017E007F0412E6
:102FAC0006AB7840120A6AEE5420FEE4FDEE601A7D
:102FBC007B01787B7CC30D1264D5124A0878777C30
:102FCC00C37D017E007F041206AB787B7CC37D0140
:102FDC007B017AC379777E007F041206AB125533DE
:102FEC0012654A12654A78777CC37D017E007F04A6
:032FFC001206AB0F
:012FFF0022AF
:106AB400256425730004FF031FF210F1F0F1D0F1F7
:106AC400B0F190F170F150F130F110F0F0F0D0F03D
:106AD400B0F090F070F050F030F500F4D0F4A0F481
:106AE40070F440F410F3E0F3B0F380F350F320F2C9
:106AF400F0F2C0F290F260F23020002030206020EA
:106B04009021202150218022102240227023002332
:096B14003023602390242024505A
:1071B00041C5850041C5830041C5870041C58400A4
:0471C00041C586003F
:0B737A00E0FEA3E0FFA3E0FCA3E0FDA9
