:0B00F800FFFF4457494E54350266EDEF
:0E39B0007B0190C278E4F0A304F07F147E0047
:1039BE0090C273EEF0A3EFF0A3EBF0A3EAF0A3E94D
:0139CE00F008
:1039CF00E490C27AF0A3F0A3F0A3F0A3F0A3F0A3C6
:1039DF00F0A3F090C278E0FAA3E0FB4A7003023B39
:1039EF007D90C273E0FEA3E0FFC3E49FFFE49EFE61
:1039FF00E4FCFD90C282120A7FAF03AE02E4FCFD2D
:103A0F0090C282E0F8A3E0F9A3E0FAA3E0FBC312AF
:103A1F000A28501190C282A3A3E0FFA3E090C278BE
:103A2F00CFF0A3EFF090C273E0FCA3E0FDECC31363
:103A3F00FFED1390C27ACFF0A3EFF0ED5401FFA387
:103A4F00E4F0A3EFF0C2AFE4F5F190C27AE0FCA38B
:103A5F00E0FDECF5F28DF375F40175F8AF30FCFD78
:103A6F0090C27CE07002A3E0603DD2FE20FEFD908C
:103A7F00C275E0FBA3E475F0011207A6A9F0FAE501
:103A8F00FC12071790C275E0FBA3E475F001120753
:103A9F00A6A9F0FAE5FD12071790C279E024FFF00E
:103AAF0090C278E034FFF090C278E0FCA3E0FDEC28
:103ABF00C313FFED1390C27ECFF0A3EFF0ED5401CF
:103ACF00FFA3E4F0A3EFF090C27E74FFF5F01207AE
:103ADF00A645F0605BD2FE20FEFD90C275E0FBA311
:103AEF00E475F0011207A6A9F0FAE5FA120717908C
:103AFF00C275E0FBA3E475F0011207A6A9F0FAE581
:103B0F00FB12071790C275E0FBA3E475F0011207D3
:103B1F00A6A9F0FAE5FC12071790C275E0FBA3E423
:103B2F0075F0011207A6A9F0FAE5FD1207178097A5
:103B3F0090C280E07002A3E0602FD2FE20FEFD90C5
:103B4F00C275E0FBA3E475F0011207A6A9F0FAE530
:103B5F00FA12071790C275E0FBA3E475F001120784
:0E3B6F00A6A9F0FAE5FB120717E4F5F8D2AFAD
:013B7D002225
:105B490090C2D1EBF0A3EAF0A3E9F0AD07AC06905F
:105B5900C2D474FFF5F01207A645F07003025BFF8B
:105B6900E4F5F1ECC313FAED13FBEAF5F28BF375E7
:105B7900F8AF30FCFDD2FE20FEFDE4F5F8ECC313CE
:105B8900FAED13FBEAF5F28BF375F88F30FCFDEDB6
:105B990090C2D130E029E0FBA3E475F0011207A619
:105BA900A9F0FA1206D1F5FC90C2D1E0FBA3E47585
:105BB900F0011207A6A9F0FA1206D1F5FD8027E037
:105BC900FBA3E475F0011207A6A9F0FA1206D1F5B4
:105BD900FA90C2D1E0FBA3E475F0011207A6A9F07F
:105BE900FA1206D1F5FB0DBD00010CD2FE20FEFD17
:075BF900E4F5F8025B5822FD
:10721400C2AFC2D3C2D4E4F58E75C870F5CDF5CC37
:1072240075CBBC75CACDD2ADD2C8F5937594017532
:10723400950275C960F5F875F901F5A8F5B8F59AE0
:07724400F5A9F5B90273176B
:107317007F007E80E4F536F5370FEFAC0670010E7F
:1073270014F5828C83E4F00537E53770020536B42F
:0773370000E7E536B480E237
:01733E00222C
:1074380090C48B120A8B55AA5AA57B017AC4798B02
:1074480090C2D4E4F0A37402F07F047E00025B498A
:047604007FF47E0190
:10760800EF4E6010E4FD0DEDC3941840F9EF1F70C4
:04761800EF1E80ECF5
:01761C00224B
:106C9B0090C413745AF0A374A5F0A3EEF0A3EFF015
:106CAB00A3EBF0A3EDF090C412E0600A90C419E4DA
:106CBB00F0A304F08007E490C419F0A3F07B017AF1
:106CCB00C4791390C2D4E4F0A37404F07FB07E00B7
:106CDB00125B491276047B017AC4791390C278E473
:106CEB00F0A304F07FB07E001239BE90C413E070A5
:016CFB00E2B6
:016CFC002275
:0571D50090C472EFF010
:1071DA007B017AC4797390C278E4F0A37402F07FD9
:1071EA00A07E001239BE90C472E0A3F0A37401F02D
:1071FA00E490C476F07B017AC4797390C2D4F0A388
:0A720A007402F07FA07E00025B49D1
:104C7D0090C30FE0FB90C450F090C310E0FCA3E094
:104C8D00FDA3E0FEA3E0FF7810120A3990C451EFA6
:104C9D00F090C310E0FCA3E0FDA3E0FEA3E0FF78DD
:104CAD0008120A3990C452EFF090C310A3A3A3E0E9
:104CBD0090C453F090C314E0FCA3E0FDEC90C454F9
:104CCD00F0A3EDF090C316E0FCA3E0FDEC90C4560C
:104CDD00F0A3EDF0EBB4A52890C318E0FBA3E0FA28
:104CED00A3E04A4B601A90C314E0FEA3E0FF90C30B
:104CFD0018A3A3E0F990C2D4ECF0A3EDF0125B4938
:104D0D007B017AC4795090C2D4E4F0A37404F07F8F
:104D1D00087E00125B491276047B017AC4795090AB
:104D2D00C278E4F0A304F07F087E001239BE90C46F
:104D3D0050E070E290C30FE0B45A2F90C318E0FB1F
:104D4D00A3E0FAA3E04A4B602190C314E0FEA3E078
:104D5D00FF90C318A3A3E0F990C316E0FDA3E09064
:104D6D00C278CDF0A3EDF01239BE7F327E00027015
:014D7D003005
:1047270090C41B745AF090C2FFE090C41CF064015F
:10473700706790C300A3E090C41DF090C302E0FC33
:10474700A3E0FDA3E0FEA3E0FF7810120A3990C4AE
:104757001EEFF090C302E0FCA3E0FDA3E0FEA3E0A0
:10476700FF7808120A3990C41FEFF090C302A3A381
:10477700A3E090C420F090C306E0FCA3E0FDEC901A
:10478700C421F0A3EDF090C308E0FCA3E0FDEC909A
:10479700C423F0A3EDF0E4803B90C2FFE064027015
:1047A70037A3E0FCA3E0FDEC90C41DF0A3EDF0906F
:1047B700C306E0FCA3E0FDEC90C41FF0A3EDF0906E
:1047C700C30DE0FCA3E0FDEC90C421F0A3EDF0E401
:1047D700A3F0A3F0A3F0A3F07B017AC4791B90C2E6
:1047E700D4E4F0A37406F07FAA7E00125B49127628
:1047F700047B017AC4791B90C278E4F0A304F07FAC
:10480700AA7E001239BE90C41BE070E290C2FFE09E
:10481700B4012F90C30AE0FBA3E0FAA3E04A4B6080
:104827002190C306E0FEA3E0FF90C30AA3A3E0F92B
:1048370090C308E0FDA3E090C278CDF0A3EDF0129D
:0948470039BE7F327E00027030A0
:0F771A007AC4799F1239B090C49FE0FEA3E0FFBC
:01772900223D
:0868C30090C460EEF0A3EFF0B9
:1068CB00A3745AF0A37401F090C460E0FCA3E0FD44
:1068DB00EC90C464F0A3EDF07B017AC4796290C2B2
:1068EB00D4E4F0A37402F07F847E00125B4912762D
:1068FB00047B017AC4796290C278E4F0A37402122B
:10690B0039B990C460E0FEA3E0FFA3E0B506DFA3B6
:10691B00E0B507DAE490C462F0A3F0A3F0A3F07B38
:10692B00017AC4796290C2D4F0A37402F07F167E10
:04693B0000025B49B2
:0870300090C252EEF0A3EFF054
:10703800E4A3F0A3F090C252E0FEA3E0FFC390C225
:1070480055E09F90C254E09E5025E4FBFA7F017EF4
:10705800001276080BBB00010ABA01F1BB2CEE90B6
:0F706800C255E004F070CE90C254E004F080C630
:0170770022F6
:10707800EF14601814602314602E2403703974010F
:10708800A805088002C333D8FC42B7227401A805BA
:10709800088002C333D8FC42BC227401A8050880CA
:1070A80002C333D8FC42BD22AF057401A80708808B
:0870B80002C333D8FC42BE22E2
:106F0300EF1460191460251460312403703D74017B
:106F1300A805088002C333D8FCF452B7227401A831
:106F230005088002C333D8FCF452BC227401A805BF
:106F3300088002C333D8FCF452BD22AF057401A804
:0C6F430007088002C333D8FCF452BE22C1
:10646300EF14602D14604A14606724036003026410
:10647300F5EB600E7401A805088002C333D8FC4213
:1064830080227401A805088002C333D8FCF452802B
:1064930022EB600E7401A805088002C333D8FC42C6
:1064A30090227401A805088002C333D8FCF45290EB
:1064B30022EB600E7401A805088002C333D8FC42A6
:1064C300A0227401A805088002C333D8FCF452A0AB
:1064D30022EB600E7401A805088002C333D8FC4286
:1064E300B022AF057401A807088002C333D8FCF4B7
:0364F30052B02282
:106DBD00EF14601A146027146034240370427401B8
:106DCD00A805088002C333D8FC5580FE80347401B9
:106DDD00A805088002C333D8FC5590FE80247401A9
:106DED00A805088002C333D8FC55A0FE8014AF055A
:106DFD007401A807088002C333D8FC55B0FE800289
:046E0D00E4FEAF06EA
:016E1100225E
:105408007B017AC4795890C278E4F0A37404F07FE1
:10541800167E001239BE90C458E0645A60030254E4
:10542800CDA3E0FFB40134A3E0FCA3E0FD90C320CA
:10543800ECF0A3EDF090C326ECF0A3EDF090C45C83
:10544800E0FCA3E0FD90C324ECF0A3EDF090C34B87
:10545800ECF0A3EDF0A37401F08030EFB4032690D4
:10546800C31EE0FFA3E090C34BCFF0A3EFF090C3BF
:105478001CE0FFA3E090C326CFF0A3EFF090C34D4C
:105488007402F0800690C34D7403F090C45AE0FF94
:10549800A3E090C31CCFF0A3EFF090C45CE0FFA39F
:1054A800E090C31ECFF0A3EFF0E490C458F07B0166
:1054B8007AC4795890C2D4F0A37402F07F167E00A3
:1054C800125B49801190C459E0FF64026003EF70D9
:0B54D80005E490C34DF090C34DE0FFD1
:0154E30022A6
:0837C70090C427EEF0A3EFF01F
:1037CF0012540890C429EFF0700690C31BF0FF222B
:1037DF0090C429E0B4010F7AC379221239B090C393
:1037EF001B7401F0FF2290C322E0FEA3E0FF90C400
:1037FF0027E06E7003A3E06F60037F012290C31C6C
:10380F00E0FEA3E0FFC390C321E09FFF90C320E041
:10381F009E90C34EF0A3EFF090C34EE0FCA3E0FDEB
:10382F00FFAE04120729EE3395E0FDFC90C42A1277
:10383F000A7F90C31EE0FEA3E0FFC390C325E09F65
:10384F00FF90C324E09E90C350F0A3EFF090C350BD
:10385F00E0FCA3E0FDFFAE04120729EE3395E0FD77
:10386F00FC90C42E120A7F90C429E06402707990F4
:10387F00C31BE06401706B7F09FEFDFC90C42EE05A
:10388F00F8A3E0F9A3E0FAA3E0FBC3120A28501A49
:10389F00E47F09FEFDFC90C42AE0F8A3E0F9A3E061
:1038AF00FAA3E0FBC3120A284038E47F02FEFDFCB6
:1038BF0090C42EE0F8A3E0F9A3E0FAA3E0FB12080E
:1038CF00F090C42AE0F8A3E0F9A3E0FAA3E0FBD359
:1038DF00120A2890C31B50057403F0FF227404F0E2
:1038EF00FF2290C31BE0FF2290C31BE06401706EA8
:1038FF007F09FEFDFC90C42EE0F8A3E0F9A3E0FAE7
:10390F00A3E0FBC3120A28501AE47F09FEFDFC90C6
:10391F00C42AE0F8A3E0F9A3E0FAA3E0FBC3120A7C
:10392F00284038E47F02FEFDFC90C42EE0F8A3E0AF
:10393F00F9A3E0FAA3E0FB1208F090C42AE0F8A381
:10394F00E0F9A3E0FAA3E0FBD3120A2890C31B50BF
:10395F00057403F080087404F080037F022290C383
:10396F001BE0B4031E90C31EE0FEA3E0FFC390C391
:10397F004CE09FFF90C34BE09E90C354F0A3EFF039
:10398F007F052290C31CE0FEA3E0FFC390C327E096
:10399F009FFF90C326E09E90C352F0A3EFF07F06E7
:0139AF0022F5
:0472B60002180000BA
:10759400E4F51D758911F58CF58AC28CF51AF51C74
:0E75A400438901758CBC758ACDD2A9D28C2288
:03000B0002693F48
:0D693F00C0E0C0D075D000C000C006C00789
:10694C00C2AFE51D6002151D758CBC758ACD051B8B
:10695C0075350074017E00A835088005C333CE332D
:10696C00CED8F9FFEF551C602DE53525E02408F84D
:10697C0008E61618700116E53525E02408F8E6FE41
:10698C0008E64E7011AF3504A807088002C333D84F
:0F699C00FC421AF4521C0535E535B408B6D2AFEB
:0B69AB00D007D006D000D0D0D0E032E2
:03002B000276A8B2
:1076A800C0E0C2AFC2C6D2AF0519E519700205180D
:0376B800D0E032ED
:1073B200C2AF7401A807088002C333D8FCFE421C86
:1073C200EF25E02408F8A60408A605EEF4521AD226
:0273D200AF22E8
:10767E00C2AF7401A807088002C333D8FCF4521CB1
:05768E00521AD2AF22E8
:1076BB00C2AF7401A807088002C333D8FC551AFF68
:0276CB00D2AF3C
:0176CD00229A
:0B75B200D2B37F051275BDD2B27F0579
:1075BD00EF600EE4FE0EC3EE648094B240F71F80C0
:0175CD00EFCE
:0175CE00229A
:04776E0053BEF722ED
:0477720043BE0822E8
:1075EA00127772D2B3D2B27F0F1275BDC2B37F0FB8
:0A75FA001275BDC2B27F0F0275BD0D
:0A7458007F0F12725BAF0312725B2C
:10746200127772C2B3D2B27F0F1275BDD2B37F0F41
:067472001275BD02776EE9
:0F772A00127772C2B31275B4C2B27F050275BD79
:0D7757001277721275B2C2B27F050275BDC5
:1075180012776E1275B2E4FD30B30A7F051275BD9D
:0F7528000DEDB432F3C2B27F051275BD0277725A
:10724B0012725BE0FF12725B1274621275EA7F645A
:02725B00AD077D
:10725D00127772E4FCED30E704D2B38002C2B3EDD5
:10726D0025E0FD1275B4C2B27F051275BD0CECB4EC
:05727D0008E302751892
:0D7282007F0F12725B1275EA7F6512725B5E
:10728F0012776EE4FC1275B4ED25E0FD30B30544C2
:10729F0001FD8004ED54FEFDC2B27F051275BD0CD9
:0672AF00ECB408E1AF059C
:0172B50022B6
:105C0000127256127282AB0712772A12728FAA078B
:105C1000127757127462EB20E003025CAE5484608A
:105C20000AEB547BFB127256127458EB54FEFBEADB
:105C300030E713547FFA1272567F1012725BAF0274
:105C400012725B127462EA4480FA1272567F10126A
:105C5000725BAF0212725B127462EB4484FB1272CD
:105C6000567F0F12725BAF03127250E4FF12725B29
:105C7000E4FF12725BE4FF12725B7F8012725B7F43
:105C80000512725B7F0112725B7F0112725B7F21D2
:105C900012725B127462EB547BFBEA547FFA12724D
:0E5CA000567F1012725BAF02127250127458CF
:015CAE0022D3
:105EBA0012725612728290C4A1EFF012772A1272ED
:105ECA008FA3EFF0127757127462E04480F01272D7
:105EDA00567F1012725BE0FF12725B12746290C4FA
:105EEA00A1E04484F01272567F0F12724BE4FF1243
:105EFA00725B9000061206EAFF12725B90000512AE
:105F0A0006EAFF12725B9000041206EAFF12725B45
:105F1A009000031206EAFF12725B9000021206EA70
:105F2A00FF12725B9000011206EAFF12725B120600
:105F3A00D1FF12725B12746290C4A1E0547BF0A389
:105F4A00E0547FF01272567F1012724B7F0F12725A
:0C5F5A005B90C4A1E0FF12725B02746255
:105A8C00127256E4FF12725B1275EA7F6512725B3A
:105A9C007B0612728F74322BF582E434C4F583EFDB
:105AAC00F012772ADBEC12728F90C432EFF012777F
:105ABC005712746290C436E0547FF0E4FB74322BBE
:105ACC00F582E434C4F583E0FFC4540FFE90C43A6D
:105ADC00F0EF540FFFA3F0EE75F00AA42FFF743211
:105AEC002BF582E434C4F583EFF00BEBB403CE7BDF
:105AFC000474322BF582E434C4F583E0FFC4540FF4
:105B0C00FE90C43AF0EF540FFFA3F0EE75F00AA428
:105B1C002FFF74322BF582E434C4F583EFF00BEBDA
:105B2C00B407CEE490C439F07B017AC4793290C2C8
:0D5B3C00D4F0A37404F07F107E00025B49DA
:1076CE00EF75F00A84C454F0FEEF75F00A84E5F00D
:0376DE004EFF223A
:0F773900EFC4540F75F00AA4FEEF540F2EFF2279
:0765870090C477EBF0AB07B5
:10658E00ED64016004EDB4021BED240CFEE43390C7
:10659E00C478F0A3CEF0EB24FFFEE434FFA3F0A307
:1065AE00CEF08012AF0590C478E4F0A3EFF0AF0305
:1065BE00A3E4F0A3EFF090C479E02401FF90C47837
:1065CE00E03400FE7C007D1A1207297D0A12073B7B
:1065DE00AC06AD0790C47AE0FAA3E0FBAE027802F7
:1065EE00CEC313CE13D8F92BFFEA3ECF2DCF3CFEF0
:1065FE0090C477E07C002FFFEC3ECF24DCCF34FF3D
:08660E00FE7D0712073BAF05FA
:016616002261
:105CAF007B017AC379EF90C278E4F0A37404F07F9C
:105CBF009C7E001239BE90C3EFE0645A6003025D10
:105CCF005DA3E064A56003025D5DA3E0FF1276CEE5
:105CDF0090C3F7EFF090C3F2E0FF1276CE90C3F8C7
:105CEF00EFF090C3F3E0FF1276CE90C3F9EFF09090
:105CFF00C3F1E0FFA3E0FDA3E0FB12658790C3FAB9
:105D0F00EFF090C3F4E0FF1276CE90C3FBEFF044B8
:105D1F0080F090C3F5E0FF1276CE90C3FCEFF090C9
:105D2F00C3F6E0FF1276CE90C3FDEFF07B017AC38E
:105D3F0079F7125EBAE490C3EFF0A3F07AC379EF6C
:0E5D4F0090C2D4F0A304F07F9C7E00125B494A
:015D5D002223
:10761D007D027F031270787D037F03127078125AFA
:09762D008CE4F518F519025CAFBC
:106EB500AB07AA06A905A8047F007E387D317C00B2
:106EC50012097BC3E49F90C258F074049E90C25788
:106ED500F043C9407D04E4FF1270787D05E4FF129C
:106EE5006F0343803075D88075985090C257E0FC89
:0D6EF500A3E0FDECF5BA8DAA43A810D2ACC5
:016F0200226C
:106FE700AB07AA06A905A8047F007E707D627C0016
:106FF70012097BC3E49F90C258F074049E90C25755
:10700700F043C9207D06E4FF1270787D07E4FF1284
:107017006F034380C0759B9090C257E0FCA3E0FDCF
:08702700ECF5BB8D9D439A01BD
:01702F00223E
:10733F00759680759780AB07AA06A905A8047F00EC
:10734F007EC07D897C0112097BAD07AC06ECF5D9B7
:07735F00AF058FE743B80CF6
:017366002204
:1071940075A78075AB80AB07AA06A905A8047F0074
:1071A4007EC07D897C0112097BAD07AC06ECF5AE8F
:1071B400AF058FAF43B830E490A01BF0A3F0A3F069
:1071C400A3F090A023F090A01FF0A3F0A3F0A3F0ED
:0171D4002298
:106E1200EF14601B1460291460372403704490C27D
:106E220053E0FCA3E0FDA3E0FEA3E0FF026EB590F9
:106E3200C253E0FCA3E0FDA3E0FEA3E0FF026FE784
:106E420090C253E0FCA3E0FDA3E0FEA3E0FF0273C7
:106E52003F90C253E0FCA3E0FDA3E0FEA3E0FF12DB
:036E620071942206
:103EEA0090C258EFF0A3ECF0A3EDF0A3EBF0A3EA35
:043EFA00F0A3E9F058
:103EFE00C2AFE4A3F0A3F090C259E0FEA3E0FFC36B
:103F0E0090C25FE09F90C25EE09E4003023FC2906F
:103F1E00C25BE0FBA3E475F0011207A6A9F0FA124A
:103F2E0006D1FF90C258E0FE75F009A42400F58278
:103F3E00E5F03488F583EE75F008A42583F583E06B
:103F4E00FCA3E0FD75F009EEA42400F582E5F03443
:103F5E0080F583EE75F008A42583F583E5822DF5B3
:103F6E0082E5833CF583EFF075F009EEA42400F5AD
:103F7E0082E5F03488F583EE75F008A42583F58389
:103F8E00E475F00112079075F009EEA42400F58295
:103F9E00E5F03488F583EE75F008A42583F583E00B
:103FAE005403F090C25FE004F0700690C25EE0042D
:103FBE00F0023F0590C258E0146042146070147015
:103FCE000302406A2403600302409A908808E0606E
:103FDE000302409A04F0908802E0FEA3E02400F56C
:103FEE008274803EF583E0F599908803E004F070CA
:103FFE0006908802E004F09088020240969090119C
:10400E00E0600302409A04F090900BE0FEA3E024DF
:10401E0009F58274883EF583E0F59C90900CE004DF
:10402E00F0700690900BE004F090900B805A9098F0
:10403E001AE0705804F0909814E0FEA3E02412F5F4
:10404E008274903EF583E0F59E909815E004F07032
:10405E0006909814E004F0909814802C90A023E021
:10406E00702A04F090A01DE0FEA3E0241BF58274DC
:10407E00983EF583E0F5AC90A01EE004F07006903B
:0E408E00A01DE004F090A01DE05403F0D2AF9E
:01409C002201
:030023000266175B
:10661700C0E0C083C082C0D075D000C006C007C22A
:10662700AF30982AC298908804E0FEA3E02400F5D2
:106637008274843EF583E599F0908805E004F07054
:1066470006908804E004F0908804E05403F0309941
:106657003FC299908802E0FEA3E0FF908800E06EB9
:106667007003A3E06F602474002FF58274803EF5F9
:1066770083E0F599908803E004F07006908802E0C3
:1066870004F0908802E05403F08005908808E4F055
:0F669700D2AFD007D006D0D0D082D083D0E0329F
:03005300026CFD3F
:106CFD00C0E0C083C082C0D075D000C006C007C23E
:106D0D00AF5396FE909814E0FEA3E0FF909812E02A
:106D1D006E7003A3E06F602474122FF58274903EA1
:106D2D00F583E0F59E909815E004F07006909814A8
:106D3D00E004F0909814E05403F0800590981AE464
:106D4D00F0D2AFD007D006D0D0D082D083D0E032F1
:03005B000270C070
:1070C000C0E0C083C082C0D075D000C006C2AF533C
:1070D00097FE909816E0FEA3E02412F58274943E89
:1070E000F583E59FF0909817E004F07006909816ED
:1070F000E004F0909816E05403F0D2AFD006D0D060
:07710000D082D083D0E03201
:03006300026D5DCE
:106D5D00C0E0C083C082C0D075D000C006C007C2DD
:106D6D00AF53A7FE90A01DE0FEA3E0FF90A01BE097
:106D7D006E7003A3E06F6024741B2FF58274983E30
:106D8D00F583E0F5AC90A01EE004F0700690A01D18
:106D9D00E004F090A01DE05403F0800590A023E4E2
:106DAD00F0D2AFD007D006D0D0D082D083D0E03291
:03006B0002710718
:10710700C0E0C083C082C0D075D000C006C2AF53F4
:10711700ABFE90A01FE0FEA3E0241BF582749C3E0B
:10712700F583E5ADF090A020E004F0700690A01F75
:10713700E004F090A01FE05403F0D2AFD006D0D007
:07714700D082D083D0E032BA
:0300830002620A0C
:10620A00C0E0C083C082C0D075D000C006C007C23B
:10621A00AFE59B30E02E759B90539BFE90900DE06E
:10622A00FEA3E02409F582748C3EF583E59CF09088
:10623A00900EE004F0700690900DE004F090900D3E
:10624A00E05403F0E59B30E143759B90539BFD902E
:10625A00900BE0FEA3E0FF909009E06E7003A3E0CC
:10626A006F602474092FF58274883EF583E0F59CEB
:10627A0090900CE004F0700690900BE004F090907F
:10628A000BE05403F08005909011E4F0D2AFD007F0
:0B629A00D006D0D0D082D083D0E032FC
:1064F60090C493EBF0A3EAF0A3E9F07D02E4FF1267
:1065060070787D03E4FF126F037B017D02E4FF12C6
:10651600646343C98075F1FFE4F5F275F36075F4C1
:106526000175F88F30FCFD90C493E0FBA3E0FAA35D
:10653600E0F91206D1F5FA9000011206EAF5FB9091
:1065460000021206EAF5FC9000031206EAF5FDD2F7
:10655600FE20FEFDE4F5FAF5FBF5FCF5FDD2FE2086
:10656600FEFD75FAFF75FBFF75FCFF75FDFFD2FE9C
:1065760020FEFDE4F5F8758FA0E58F20E5FBD2B986
:0165860022F2
:1075CF00E5E830E51553E8DF438F407FE87E03128F
:0B75DF007608538FBFE490BA28F0221A
:10409D0075F1FFE4F5F275F36475F40175F88F3081
:1040AD00FCFD90BA27E075F00DA42424F582E5F00F
:1040BD0034ADF583E0F5FAE4F5FBF5FCF5FDD2FE44
:1040CD0020FEFD90BA27E0FB75F00DA42425F582A6
:1040DD00E5F034ADF583E0FCA3E0FDA3E0FEA3E045
:1040ED00FF7818120A398FFA75F00DEBA42425F517
:1040FD0082E5F034ADF583E0FCA3E0FDA3E0FEA383
:10410D00E0FF7810120A398FFB90BA27E0FB75F0AB
:10411D000DA42425F582E5F034ADF583E0FCA3E094
:10412D00FDA3E0FEA3E0FF7808120A398FFC75F0BD
:10413D000DEBA42425F582E5F034ADF583A3A3A3FF
:10414D00E0F5FDD2FE20FEFD90BA27E0FF75F00DE3
:10415D00A42429F582E5F034ADF583E0F5FA75F088
:10416D000DEFA4242AF582E5F034ADF583E0F5FBDF
:10417D0090BA27E0FF75F00DA4242BF582E5F034FD
:10418D00ADF583E0F5FC75F00DEFA4242CF582E57B
:10419D00F034ADF583E0F5FDD2FE20FEFD90BA279B
:1041AD00E0FF75F00DA4242DF582E5F034ADF58317
:1041BD00E0F5FA75F00DEFA4242EF582E5F034AD9F
:1041CD00F583E0F5FB90BA27E0FF75F00DA4242FE1
:1041DD00F582E5F034ADF583E0F5FC75F00DEFA457
:1041ED002430F582E5F034ADF583E0F5FDD2FE2007
:0C41FD00FEFD90BA27E004F0E4F5F82283
:0631430090C3D8120A7FC0
:10314900D390C3DEE0940090C3DDE094084003020D
:1031590033B990C3DCE0FB90C3D830E70FE0FCA3A0
:10316900E0FDA3E0FEA3E0FF7803800DE0FCA3E00F
:10317900FDA3E0FEA3E0FF7815120A4C90C3E71205
:103189000A7F90BA26E0FA75F00DA42424F582E5A9
:10319900F034ADF583E030E63890C3E7E0FCA3E016
:1031A900FDA3E0FEA3E0FF75F00DEAA42425F58256
:1031B900E5F034ADF583120A7FEB54C0FF75F00DCD
:1031C900EAA42424F582E5F034ADF583EFF0023367
:1031D9009D90C3DDE0FCA3E0FDAE047803CEC313EC
:1031E900CE13D8F990C3E5F0ED5407A3F0E490C3EA
:1031F900E4F090C3DCE054C0FFE4FCFDFE90C3EBB7
:10320900120A7FE490C3E2F090C3E5E0FF90C3E2C5
:10321900E0C39F40030232C890C3E7E0FCA3E0FD8E
:10322900A3E0FEA3E0FF90BA26E0FB75F00DA4240D
:1032390025F582E5F034ADF583120A7F90C3EBE002
:10324900FCA3E0FDA3E0FEA3E04408FF75F00DEB4D
:10325900A42424F582E5F034ADF583EFF0E490C3BE
:10326900E3F090C3E3E0FFC39408504490C3DFE068
:10327900FBA3E0FAA3E0F990C3E4E0F582758300CB
:103289001206EAFE90BA26E075F00DA42429F5820B
:10329900E5F034ADF583E5822FF582E43583F583D6
:1032A900EEF090C3E4E004F090C3E3E004F080B2F0
:1032B90090BA26E004F090C3E2E004F002321190E3
:1032C900C3E6E0FB70030233A3A3E0FCA3E0FDA384
:1032D900E0FEA3E0FF90BA26E075F00DA42425F5E1
:1032E90082E5F034ADF583120A7FAF0390C3EBA3F7
:1032F900E0F9A3E0FAA3E04FFF90BA26E075F00DDC
:10330900A42424F582E5F034ADF583EFF0E490C30D
:10331900E3F090C3E6E0FF90C3E3E0FEC39F5044AF
:1033290090C3DFE0FBA3E0FAA3E0F990C3E4E0F582
:10333900827583001206EAFF90BA26E075F00DA4A3
:103349002429F582E5F034ADF583E5822EF582E492
:103359003583F583EFF090C3E4E004F090C3E3E034
:1033690004F080AE90C3E3E0FFC39408502690BAFE
:1033790026E075F00DA42429F582E5F034ADF58336
:10338900E5822FF582E43583F583E4F090C3E3E029
:1033990004F080D090BA26E004F090BA28E07010CA
:1033A900C2AF12409DD2AF90BA287401F0438F0486
:0133B90022F1
:03004B00022AE1A5
:102AE100C0E0C0F0C083C082C0D075D000C000C0BB
:0D2AF10001C002C003C004C005C006C0073C
:102AFE00C2AFE59130E70353913FE59120E6030223
:102B0E002DE15391BF75F1FF75F20075F36875F401
:102B1E000175F8AF30FCFDD2FE20FEFD90C249E5F6
:102B2E00FAF0E0FF90BA24E075F00DA42424F582AB
:102B3E00E5F034A0F583EFF0D2FE20FEFD90BA242E
:102B4E00E075F00DA42425F582E5F034A0F583C0E0
:102B5E0083C082E0FCA3E0FDA3E0FEA3E0FF7808C3
:102B6E00120A4CD082D083120A7F90BA24E075F0FC
:102B7E000DA42425F582E5F034A0F583C083C08230
:102B8E00E0F8A3E0F9A3E0FAA3E0FBAFFAEB4FFF06
:102B9E00EAFEE9FDE8FCD082D083120A7F90BA24C7
:102BAE00E075F00DA42425F582E5F034A0F583C080
:102BBE0083C082E0FCA3E0FDA3E0FEA3E0FF780863
:102BCE00120A4CD082D083120A7F90BA24E075F09C
:102BDE000DA42425F582E5F034A0F583C083C082D0
:102BEE00E0F8A3E0F9A3E0FAA3E0FBAFFBEB4FFFA5
:102BFE00EAFEE9FDE8FCD082D083120A7F90BA2467
:102C0E00E075F00DA42425F582E5F034A0F583C01F
:102C1E0083C082E0FCA3E0FDA3E0FEA3E0FF780802
:102C2E00120A4CD082D083120A7F90BA24E075F03B
:102C3E000DA42425F582E5F034A0F583C083C0826F
:102C4E00E0F8A3E0F9A3E0FAA3E0FBAFFCEB4FFF43
:102C5E00EAFEE9FDE8FCD082D083120A7F90BA2406
:102C6E00E075F00DA42425F582E5F034A0F583C0BF
:102C7E0083C082E0FCA3E0FDA3E0FEA3E0FF7808A2
:102C8E00120A4CD082D083120A7F90BA24E075F0DB
:102C9E000DA42425F582E5F034A0F583C083C0820F
:102CAE00E0F8A3E0F9A3E0FAA3E0FBAFFDEB4FFFE2
:102CBE00EAFEE9FDE8FCD082D083120A7F90BA24A6
:102CCE00E075F00DA42425F582E5F034A0F583C05F
:102CDE0083C082E0FCA3E0FDA3E0FEA3E0FF780347
:102CEE00120A39D082D083120A7F90C249E020E7BF
:102CFE002D90BA24E075F00DA42425F582E5F0346C
:102D0E00A0F583C083C082E0FCA3E0FDA3E0FEA398
:102D1E00E0FF7812120A39D082D083120A7F90C255
:102D2E0049E030E603022DD8D2FE20FEFD90BA24F3
:102D3E00E0FF75F00DA42429F582E5F034A0F583AB
:102D4E00E5FAF075F00DEFA4242AF582E5F034A033
:102D5E00F583E5FBF075F00DEFA4242BF582E5F07D
:102D6E0034A0F583E5FCF075F00DEFA4242CF5826C
:102D7E00E5F034A0F583E5FDF0D2FE20FEFD90BA1D
:102D8E0024E0FF75F00DA4242DF582E5F034A0F5B6
:102D9E0083E5FAF075F00DEFA4242EF582E5F034FC
:102DAE00A0F583E5FBF075F00DEFA4242FF582E579
:102DBE00F034A0F583E5FCF075F00DEFA42430F5AA
:102DCE0082E5F034A0F583E5FDF075F80090BA24A5
:102DDE00E004F0E59130E51A5391DF90BA26E0FF5A
:102DEE00A3E06F600812409D438F04800590BA28BF
:102DFE00E4F0E59130E4035391EFE59130E30353B2
:102E0E0091F7E59130E2065391FB438F0475E8008C
:022E1E00D2AF31
:102E2000D007D006D005D004D003D002D001D00006
:0B2E3000D0D0D082D083D0F0D0E032B0
:103D350049444C450072657175657374696E672FEA
:103D4500726563656976696E6720706172616D651C
:103D5500746572730067617320666C6F77206265A6
:103D6500666F72652077656C64696E670069676E5A
:103D75006974696F6E006E6F2063757272656E741B
:103D850020286E6F742069676E6974656429006EFA
:103D95006F2063757272656E74206166746572203A
:103DA50069676E6974696F6E20287768656E206330
:103DB5006865636B696E67290069676E6974696F09
:103DC5006E2070756C73650070756C736520746911
:103DD5006D6520697320696E636F72726563740027
:103DE500696E697469616C2063757272656E7400C1
:103DF500696E6372656173650077656C64696E678A
:103E050000646563726561736500656E64204900D1
:103E1500636C65616E696E672074686520656C65A5
:103E25006374726F64650067617320666C6F7720D9
:103E350061742074686520656E64007761697469D2
:103E45006E6720666F72207468652072656C6561A7
:103E55007365206F662074686520627574746F6E73
:103E6500206F6E2074686520746F72636800257317
:103E75000A0D25642025642025642025640A0D2566
:103E850064410A0D252E3166560A0D252E316673BD
:103E95000A0D676F6F643A2025640A0D6261643A02
:103EA50020202564002564410D0A00252E31667603
:103EB5000005000320FF3D35FF3D3AFF3D5AFF3D1C
:103EC50072FF3D7BFF3D94FF3DBEFF3DCDFF3DE5D0
:103ED500FF3DF5FF3DFEFF3E06FF3E0FFF3E15FF92
:053EE5003E2CFF3E40F1
:0A77640075F90175BCFD7590FD225A
:03000300026B6A23
:106B6A00C0E0C0F0C083C082C0D075D000C000C0F1
:106B7A0001C002C003C004C005C006C0077F587E1A
:106B8A0002127608E5B030E0F4E5B020E112E51D26
:106B9A00D394504005752C018003752C00751D6433
:106BAA007F017E00127030C289C28BD007D006D016
:106BBA0005D004D003D002D001D000D0D0D082D0EA
:066BCA0083D0F0D0E032A0
:03001300026BD0AD
:106BD000C0E0C0F0C083C082C0D075D000C000C08B
:106BE00001C002C003C004C005C006C0077F587EB4
:106BF00002127608E5B030E1F4E5B020E012E51DC0
:106C0000D394504005752C038003752C02751D64C8
:106C10007F017E00127030C289C28BD007D006D0AF
:106C200005D004D003D002D001D000D0D0D082D083
:066C300083D0F0D0E03239
:1058F8007E007F647D007B017AC17917120B64906A
:10590800C2D274FFF0A3743EF0A37473F0E53C7543
:10591800F003A424BAF582E4343EF583E493F974E1
:105928000193FA74029390C2D5C9F0A3EAF0A3E9EF
:10593800F0A3E531F0A3E532F0A3E533F0A3E534B5
:10594800F0A3E522F0A3E523F0A3E52AF0A3E52BD5
:10595800F0A3E526F0A3E527F0AC28AD29E4120171
:10596800A8E4FBFA7920784112010690C2E2120AF3
:105978007FAC24AD25E41201A8E4FBFA7920784134
:1059880012010690C2E6120A7F90C2EAE52FF0A340
:10599800E530F0A3E52DF0A3E52EF07B017AC1797F
:1059A800171226C37B017AC1791790C2D4E4F0A3F9
:0A59B8007432F07F007E25025B4987
:104D7E007B007A00793690C278E4F0A37403F07F5A
:104D8E00167E001239BEE536645A6003024E78F57F
:104D9E0036FB7A00793890C2D4F0A304F07F167EE9
:104DAE0000125B49853831853932853A33853B347B
:0E4DBE00752200853723E537146003024E7816
:104DCC00E490C252F090BB08E0FF90C252E0FEC3E8
:104DDC009F507C75F009EEA4245EF582E5F034BB9F
:104DEC00F583E0FEA3E0D39539EE9538505890C288
:104DFC0052E0FF75F009A42462F582E5F034BBF5AE
:104E0C0083E0FCA3E0C39539EC9538403975F00983
:104E1C00EFA42460F582E5F034BBF583E0FEA3E05B
:104E2C00D3953BEE953A501E90C252E075F009A412
:104E3C002464F582E5F034BBF583E0FEA3E0C39572
:104E4C003BEE953A500990C252E004F0024DD190DD
:104E5C00C252E0FF90BB05A3E0FAA3E0F5828A837F
:0C4E6C00120B6290C252E0752A00F52B78
:014E78002217
:101C9A0090A023E0600302218190A01FE0FEA3E050
:101CAA00FFA3E0FCA3E0FD6F7002EC6E700302215B
:011CBA0081A8
:101CBB00741B2DF582749C3CF583E090C252F0901E
:101CCB00A022E004F0700690A021E004F090A02187
:101CDB00E05403F090C245E014602824FD603624E4
:101CEB00FE605724FC7003021DBC147003021DE937
:101CFB00240B70A490C252E0B4A59D90C245740110
:101D0B00F0809590C252E0B4A50890C2457404F0DF
:101D1B00808602216D90C252E0FFB4A50590C17B75
:101D2B008007EFB45A0690C17C7401F090C248EF63
:101D3B00F090C2457406F0021CA390C252E0FFB4AF
:101D4B00A51790C17BE0B4010890C2457404F080E4
:101D5B000D90C17B7401F08005E490C17BF0EFB472
:101D6B005A1290C17CE0B4010302216D90C17C74C6
:101D7B0001F08005E490C17CF090C252E0FF90C26C
:101D8B0047E0247DF582E434C1F583EFF090C24740
:101D9B00E004F0A3E02402FFE433FE90C247E06FBF
:101DAB007001EE6003021CA390C245740AF0021C82
:101DBB00A390C252E0FFB45A0990C245740BF002D3
:101DCB001CA3EFB4A50D90C2457401F0E490C2477B
:0E1DDB00022175E490C247F090C245022175C6
:101DE900E490C254F090C252E0FF645A601BEFB411
:101DF900A50C90C2457401F0E490C2478008E490B4
:101E0900C247F090C24502217590C2537401F09007
:101E1900C248E0FF90C253E0FED39F501A747D2E52
:101E2900F582E434C1F583E0FE90C254E02EF090CF
:101E3900C253E004F080D8747E2FF582E434C1F5F2
:101E490083E0FF90C254E06F601CE490C247F090B9
:101E5900C245F090C17CF090C17BF0052EE52E7053
:101E690002052D021CA30530E5307002052F90C133
:101E79007EE024DA7003021F0A24F370030220B102
:0E1E890024F670030220DC2418600302216D91
:101E970090C17FE090C255F0D39424400302216D96
:101EA70090C1E174A5F0A3F0A37404F0A374A5F0A6
:101EB700A37425F090C255E090C1E6F075F002A436
:101EC70024B5F582E5F034BDF583E0FCA3E090C1CD
:101ED700E7F0ECFFA3EFF090C1E6E0FE90C1E5E08C
:101EE7002EFE90C1E7E02E2F90C1E9F090C1EB7470
:101EF7005AF090C1EAF07B017AC179E17D0B7C0051
:031F07000220A90C
:101F0A0090C17FE090C255F0D39424400302216D22
:101F1A0090C1E274A5F090C1E1F090C255E0FD25B0
:101F2A00E0240490C1E3F0A374A6F0A37426F0A3FE
:101F3A00EDF090C1E5E02D90C257F0E490C256F062
:101F4A0090C255E0FFA3E0FEC39F4003022062EE69
:101F5A0064176003021FEC90BDE3F0A3F090BDD9B3
:101F6A00E07004A3E06402700790BDE4E04401F06D
:101F7A0090BDDDE07004A3E06402700790BDE4E068
:101F8A004402F090BDD7E07004A3E06402700790A9
:101F9A00BDE4E04404F090BDFBE07004A3E06402F9
:101FAA00700790BDE4E04408F090BDDBE07004A344
:101FBA00E06402700790BDE4E04410F090BDD5E003
:101FCA007004A3E06402700790BDE4E04440F0901E
:101FDA00BDEDE07004A3E06402700790BDE4E04444
:101FEA0080F090C256E0FF75F002A424B5F582E5B0
:101FFA00F034BDF583A3E0FEEF25E0FD2406FC24C2
:10200A00E1F582E434C1F583EEF090C256E075F052
:10201A0002A424B5F582E5F034BDF583E0FFED2492
:10202A0007FE24E1F582E434C1F583EFF074E12C74
:10203A00F582E434C1F583E0FF90C257E02FFF74C4
:10204A00E12EF582E434C1F583E02F90C257F09077
:10205A00C256E004F0021F4A90C257E0FF90C256EF
:10206A00E0FE25E0FD240824E1F582E434C1F5838D
:10207A00EFF0ED240A24E1F582E434C1F583745AC1
:10208A00F0EE25E0FF240924E1F582E434C1F5836A
:10209A00745AF0EF240BFD7C007B017AC179E17F51
:0420AA0003123EEAF5
:0320AE0002216D9F
:1020B10090C17FE090C255F064586016E0FF644E15
:1020C10060108F3CE53C6408600302216D120BD95E
:0820D1008056E4F53C120BD926
:0320D90002216D74
:1020DC0090C181E0FE90C180E07C002400FFEC3ECA
:1020EC0090C255F0A3EFF090C17FE0FFB4400C908C
:1020FC00C255E0F526A3E0F527801EEFB4410C9005
:10210C00C255E0F528A3E0F529800EEFB4420A9001
:10211C00C255E0F524A3E0F525E53C60447BFF7A4D
:10212C003E79AA90BA9DE0FCA3E0FD90C29BE52607
:10213C00F0A3E527F012633BAC28AD29E41201A80B
:10214C00E4FBFA7920784112010690C29B120A7FB7
:10215C0090BAA1E0FCA3E0FD7BFF7A3E79B012635C
:01216C003B37
:10216D00E490C247F090C245F090C17CF090C17BE5
:04217D00F0021CA3AD
:01218100223B
:106C3600127214127594C2AF53A9FE53B9FEC289DB
:106C4600D288D2A8C28BD28AD2AAD2AF12776412C5
:106C5600532A90C253120A8B0001C2007F03126EA0
:106C660012E490C247F090C245F090C17CF090C10A
:106C76007BF0122E3B120BD9C2AFE52C64046008E0
:106C8600AF2C1276F4752C04D2AF121C9A124D7EDC
:056C96001258F880E334
:03777A00FF777D19
:01777D0022E9
:106A2B00C2AFE4F5F1F5F275F30A75F40175F8AF41
:106A3B0030FCFDD2FE20FEFDAFFA90C4A3E4F0A320
:106A4B00EFF0E07F00FE90C4A3F0A3EFF0ADFBED01
:106A5B00FF90C4A3EEF0A3EFF0E4F5F8D2AF90C42F
:106A6B00A3E0FEA3E0FF90777A75F003120ABCEE69
:106A7B0075F003A42583F583E493FB740193FA74F7
:0D6A8B000293F94A600789828A83120B6228
:016A980022DB
:047776000F4072004E
:1067BD00788F7CC47D017BFF7A7779767E007F04AC
:1067CD001206AB90C253120A8B0001C200E4FF12F5
:1067DD006E127B017AC4798F1264F690BDFD74013F
:1067ED00F0A37484F0A37400F0A37401F0A3748873
:1067FD00F0A37404F0A37401F0A37488F0A37406DD
:10680D00F0A37404F0A3E4F07B01A304F0A374BE21
:10681D00F0A37413F0A3EBF0A374BFF0A37413F003
:10682D00A3EBF0A374BFF0A37415F0A37401F0A350
:02683D00E4F085
:01683F002236
:106840007B017ABF791790C278E4F0A37402F07FDD
:10685000007E0F1239BE90BF17E0645A7062F07B61
:10686000017ABF791790C2D4F0A37402F07F007E42
:106870000F125B4990BF1AE0FDC394C840027D64CB
:1068800090BF18E0FEA3E0FBAA0690BF17745AF071
:10689000A374A5F0ED25E02404A3F0A37483F0EA2B
:1068A000A3F0A3EBF0A3EDF0AE02AF037B017ABF40
:1068B000791E90C278E4F0A3EDF01239BE7F012278
:0268C0007F0057
:0168C20022B3
:0B175E0090C3FFEBF0A3EAF0A3E9F05A
:10176900C2AF900003120B081207BCFFAEF090C481
:101779000AEEF0A3EFF0D2AF90C3FFE0FBA3E0FACB
:10178900A3E0F9900006120B081207BCFDACF06F3C
:101799007002EC6E7003021C97C390C40BE09D901D
:1017A900C40AE09C90C3FFE0FBA3E0FAA3E0F95070
:1017B900219000091207E7FF90C40BE02FFF90C4A6
:1017C9000AE035F0CFC39DCF9C90C402F0A3EFF09F
:1017D900801E900006120B081207BCFFC390C40BB1
:1017E900E09FFE90C40AE095F090C402F0A3CEF009
:1017F900C390C403E0940690C402E0940050037FB0
:10180900002290C3FFE0FBA3E0FAA3E0F9900006F1
:10181900120B081207BCFDACF090C3FFE0FBA3E07C
:10182900FAA3E0F9120AE88D828C831206EAFF9086
:10183900C408E4F0A3EFF0E0F8E4F0E890C408F09D
:10184900ED2401FFE43CFE90C40CF0A3EFF090C33B
:10185900FFE0FBA3E0FAA3E0F99000091207E7FD16
:10186900C3EF9DEE95F04007E490C40CF0A3F0128D
:101879000AE890C40CE0FEA3E0F5828E831206EA22
:10188900FF90C408E0FEA3E04FFF90C408EEF0FE0D
:10189900A3EFF064A57003EE645A6003021C429042
:1018A900C3FFE0FBA3E0FAA3E0F9900006120B08DE
:1018B9001207BC2403FFE435F0FE90C40CF0A3EF3B
:1018C900F090C3FFE0FBA3E0FAA3E0F9900009124E
:1018D90007E7FDC3EF9DEE95F04007E490C40CF0D7
:1018E900A3F0120AE890C40CE0FEA3E0F5828E830F
:1018F9001206EA64826003021A7090C3FFE0FBA338
:10190900E0FAA3E0F9900006120B081207BC2402C2
:10191900FFE435F0FE90C40CF0A3EFF090C3FFE0B4
:10192900FBA3E0FAA3E0F99000091207E7FDC3EF72
:101939009DEE95F04007E490C40CF0A3F090C3FF2E
:10194900E0FBA3E0FAA3E0F9120AE890C40CE0FE78
:10195900A3E0F5828E831206EA2403FFE433FE90A6
:10196900C404F0A3EFF0C390C403E09F90C402E065
:101979009E5003021C97E490C406F0A3F090C4049F
:10198900E0FEA3E0FFA3E0FCA3E0FDC39FEC9E40C3
:1019990003021A3C90C3FFE0FBA3E0FAA3E0F9902D
:1019A9000006120B081207BCFFAEF090C3FFE0FB64
:1019B900A3E0FAA3E0F9120AE88F828E831206EAFD
:1019C900FF74172DF58274BF3CF583EFF090C3FFC8
:1019D900E0FBA3E0FAA3E0F9900006120B08E47516
:1019E900F00112081F90C3FFE0FBA3E0FAA3E0F99E
:1019F900900006120B081207BCFFAEF090C3FFE07F
:101A0900FBA3E0FAA3E0F99000091207E7FDC3EF91
:101A19009DEE95F0400C900006120B08E4F5F012CB
:101A290008A490C407E004F0700690C406E004F02E
:101A390002198690BF1BE0FEA3E0FF7B017ABF7904
:101A49001D90BF19E024FDC313FD90C2D4E4F0A397
:101A5900EDF0125B4990BF197403F090BF1B744FEE
:101A6900F0A3744B021BF390C3FFE0FBA3E0FAA3BE
:101A7900E0F9120AE890C40CE0FEA3E0F5828E8337
:101A89001206EA64836003021BF790C3FFE0FBA31D
:101A9900E0FAA3E0F9900006120B081207BC240231
:101AA900FFE435F0FE90C40CF0A3EFF090C3FFE023
:101AB900FBA3E0FAA3E0F99000091207E7FDC3EFE1
:101AC9009DEE95F04007E490C40CF0A3F090C3FF9D
:101AD900E0FBA3E0FAA3E0F9120AE890C40CE0FEE7
:101AE900A3E0F5828E831206EA2403FFE433FE9015
:101AF900C404F0A3EFF0C390C403E09F90C402E0D4
:101B09009E5003021C97E490C406F0A3F090C4040D
:101B1900E0FEA3E0FFA3E0FCA3E0FDC39FEC9E4031
:101B290003021BCC90C3FFE0FBA3E0FAA3E0F9900A
:101B39000006120B081207BCFFAEF090C3FFE0FBD2
:101B4900A3E0FAA3E0F9120AE88F828E831206EA6B
:101B5900FF74172DF58274BF3CF583EFF090C3FF36
:101B6900E0FBA3E0FAA3E0F9900006120B08E47584
:101B7900F00112081F90C3FFE0FBA3E0FAA3E0F90C
:101B8900900006120B081207BCFFAEF090C3FFE0ED
:101B9900FBA3E0FAA3E0F99000091207E7FDC3EF00
:101BA9009DEE95F0400C900006120B08E4F5F0123A
:101BB90008A490C407E004F0700690C406E004F09D
:101BC900021B1690BF1BE0FEA3E0FF7B017ABF79E1
:101BD9001EA3E0FD90C278E4F0A3EDF01239BE90A7
:101BE900BF1DE025E0240490BF19F07F012290C3B6
:101BF900FFE0FBA3E0FAA3E0F9900006120B08E46A
:101C090075F00112081F90C3FFE0FBA3E0FAA3E0FF
:101C1900F9900006120B081207BCFFAEF090C3FF43
:101C2900E0FBA3E0FAA3E0F99000091207E7FDC37E
:101C3900EF9DEE95F04057804990C3FFE0FBA3E08C
:101C4900FAA3E0F9900006120B08E475F0011208F6
:101C59001F90C3FFE0FBA3E0FAA3E0F9900006128E
:101C69000B081207BCFFAEF090C3FFE0FBA3E0FA3C
:101C7900A3E0F99000091207E7FDC3EF9DEE95F087
:101C8900400C900006120B08E4F5F01208A47F003E
:011C99002228
:1045EB0090BA25E0FF90BA24E06F70030246847501
:1045FB00F00DEFA42425F582E5F034A0F583E0FC63
:10460B00A3E0FDA3E0FEA3E0FFE47B23FAF9F8C3EC
:10461B00120A28705E90BA25E075F00DA42424F5DB
:10462B0082E5F034A0F583E0540FFFE4FEEEC39F68
:10463B00504190BA25E075F00DA42429F582E5F0E0
:10464B0034A0F583E5822EF582E43583F583E0FD16
:10465B0090BF13E0FAA3E02413F58274BE3AF583FE
:10466B00EDF090BF14E004F0700690BF13E004F07F
:10467B000E80BA90BA25E004F0126840EF64017026
:10468B004190BF19E02403FDE433FC7B017ABF7931
:10469B0017E4FF123EEAE490C3DCF090BF19E0246C
:1046AB0003FEE43390C3DDF0A3CEF0A37401F0A3BB
:1046BB0074BFF0A37417F07F237E007D007C001283
:1046CB0031437B017ABD79FD12175EBF011590BF97
:1046DB0019E02403FDE433FC7B017ABF7917E4FF77
:1046EB00123EEA7B017ABE790812175EBF012CE4F9
:1046FB0090C3DCF090BF19E02403FEE43390C3DDDC
:10470B00F0A3CEF0A37401F0A374BFF0A37417F061
:0B471B007F247E007D007C00123143F3
:014726002270
:1076E100FF988103FF988104FF988101FF98810031
:0376F10035112927
:0272BA00C10908
:105E0D00E490C47CF0A3F0A374B0F0A374FAF0C2D4
:105E1D0090C2947F057E00127608E490C480F090C5
:105E2D00C47EE0A330E704D2928002C292C2937F77
:105E3D00057E00127608D2937F057E0012760890BB
:105E4D00C47FE025E0F090C47EE033F090C480E0A4
:105E5D0004F0E0C3941040C7D2947F057E00127603
:105E6D0008E490C480F0C2937F057E00127608D2BC
:105E7D00937F057E0012760890C47DE025E0F090BA
:105E8D00C47CE033F0309107E0F0A3E04401F090E2
:105E9D00C480E004F0E0C3941040CBD2907F057E27
:0C5EAD000012760890C47CE0FEA3E0FF29
:015EB90022C6
:105D5E00E490C481F0A3F0EFFF74FAA3CFF0A3EFA9
:105D6E00F0C290C2947F057E00127608E490C4853E
:105D7E00F090C483E0A330E704D2928002C292C2B4
:105D8E00937F057E00127608D2937F057E001276F1
:105D9E000890C484E025E0F090C483E033F090C412
:105DAE0085E004F0E0C3941040C7D2947F057E00D6
:105DBE00127608E490C485F0C2937F057E001276B9
:105DCE0008D2937F057E0012760890C482E025E00B
:105DDE00F090C481E033F0309107E0F0A3E044018D
:105DEE00F090C485E004F0E0C3941040CBD2907FD5
:0E5DFE00057E0012760890C481E0FEA3E0FF4F
:015E0C002273
:106E650090C25CEFF0C290C2947F057E0012760856
:106E7500E490C25BF090C25CE030E704D2928002FD
:106E8500C292C2937F057E00127608D2937F057E5B
:106E95000012760890C25CE025E0F090C25BE00449
:106EA500F0E0C3940840CED2907F057E00027608BC
:0555BF00E4FDFC7FB8D3
:1055C40090C25CEFF0ECA3F0A3EDF0C290C2947F24
:1055D400057E00127608E490C25BF090C25CE03075
:1055E400E704D2928002C292C2937F057E001276B3
:1055F40008D2937F057E0012760890C25CE025E015
:10560400F090C25BE004F0E0C3940840CED2947FF3
:10561400057E00127608E490C25BF090C25EE03032
:10562400E704D2928002C292C2937F057E00127672
:1056340008D2937F057E0012760890C25EE025E0D2
:10564400F090C25BE004F0E0C3940840CEE490C262
:105654005BF090C25DE030E704D2928002C292C255
:10566400937F057E00127608D2937F057E00127622
:105674000890C25DE025E0F090C25BE004F0E0C376
:0D568400940840CED2907F057E000276088B
:066165007BFF7D047C00BD
:0B616B0090C252EBF0A3EAF0A3E9F0B1
:10617600AE04AF05A3EEF0A3EFF07FBC1255C490BA
:10618600C255E0FCA3E0FD7FBE1255C47FBF126E70
:1061960065C290D2947F057E0012760890C255742F
:1061A600FFF5F01207A645F0605190C252E0FBA33E
:1061B600E475F0011207A6A9F0FA1206D190C258AA
:1061C600F0E490C257F090C257E0C3940850CDA3B4
:1061D600E030E704D2928002C292C2937F057E002D
:1061E600127608D2937F057E0012760890C258E098
:1061F60025E0F090C257E004F080CBD2907F057E78
:046206000002760814
:105F660090C2587401F0A374C2F0A37456F090C2A4
:105F760056EFF0A3EDF090C252E4F0A37402F0FDE8
:105F86007C007FBC1255C490C252E0FCA3E0FD7FAA
:105F9600BE1255C47FBF126E65C290D2947F0F7E2B
:105FA6000012760890C25274FFF5F01207A645F06B
:105FB600605190C258E0FBA3E475F0011207A6A950
:105FC600F0FA1206D190C255F0E490C254F090C295
:105FD60054E0C3940850CDA3E030E704D292800287
:105FE600C292C2937F0F7E00127608D2937F0F7EF5
:105FF6000012760890C255E025E0F090C254E00405
:0C600600F080CBD2907F0F7E0002760865
:1011DE007A7679E1126165E4FD7F01125F66E4FDC6
:1011EE007F02125F667D577F03125F667DD37F0499
:1011FE00125F66E4FD7F05125F667D117F06125F4A
:10120E00667D087F07125F66E4FD7F08125F66E465
:10121E00FD7F09125F667D3F7F0A125F66E4FD7FE8
:10122E000B125F66E4FD7F0C125F66E4FD7F0D120C
:10123E005F66E4FD7F0E125F667D3F7F0F125F6675
:10124E007D3F7F10125F66E4FD7F11125F66E4FD45
:10125E007F12125F66E4FD7F13125F66E4FD7F145A
:10126E00125F66E4FD7F15125F66E4FD7F16125F66
:10127E0066E4FD7F17125F66E4FD7F18125F66E479
:10128E00FD7F19125F66E4FD7F1A125F66E4FD7F33
:10129E001B125F66E4FD7F1C125F66E4FD7F1D126C
:1012AE005F667D407F1E125F667D807F1F125F66C8
:1012BE007D067F20125F667D017F21125F66E4FD51
:1012CE007F22125F66E4FD7F23125F66E4FD7F24BA
:1012DE00125F66E4FD7F25125F66E4FD7F26125FD6
:1012EE0066E4FD7F27125F667D337F28125F667D81
:1012FE00337F29125F66E4FD7F2A125F66E4FD7F6D
:10130E002B125F66E4FD7F2C125F66E4FD7F2D12CB
:10131E005F66E4FD7F2E125F66E4FD7F2F125F662F
:10132E00E4FD7F30125F66E4FD7F31125F66E4FDFF
:10133E007F32125F66E4FD7F33125F66E4FD7F3419
:10134E00125F66E4FD7F35125F66E4FD7F36125F45
:10135E0066E4FD7F37125F667D787F38125F66E444
:10136E00FD7F39125F66E4FD7F3A125F66E4FD7F12
:10137E003B125F66E4FD7F3C125F66E4FD7F3D122B
:10138E005F66E4FD7F3E125F66E4FD7F3F125F669F
:10139E00E4FD7F40125F66E4FD7F41125F66E4FD6F
:1013AE007F42125F66E4FD7F43125F66E4FD7F4479
:1013BE00125F66E4FD7F50125F667D237F51125FE0
:1013CE00667D457F52125F667D677F53125F667D35
:1013DE00897F54125F667DAB7F55125F667D017FFC
:1013EE0056125F667D237F57125F667D457F5812CA
:1013FE005F667D677F59125F667D897F5A125F66D1
:10140E007DAB7F5B125F667DCD7F5C125F667DEF8D
:10141E007F5D125F66E4FD7F5E125F667D0D7F5F0E
:10142E00125F667D0D7F60125F667D0C7F61125FBD
:10143E00667D0C7F62125F667D0F7F63125F667D35
:10144E000F7F64125F667D0E7F65125F667D0E7F75
:10145E0066125F667D087F67125F667D027F681287
:10146E005F667D027F69125F667D027F6A125F662C
:10147E007D027F6B125F667D027F6C125F667D025E
:10148E007F6D125F667D027F6E125F667D027F6FDB
:10149E00125F667D147F70125F667D157F71125F1D
:1014AE00667D067F72125F667D027F73125F667DB8
:1014BE00027F74125F667D0D7F75125F667D0D7FF4
:1014CE0076125F667D0C7F77125F667D0C7F7812D9
:1014DE005F667D0F7F79125F667D0F7F7A125F6682
:1014EE007D0E7F7B125F667D0E7F7C125F667D08B0
:1014FE007F7D125F667D027F7E125F667D027F7F3B
:10150E00125F667D027F80125F667D027F81125FB1
:10151E00667D027F82125F667D027F83125F667D2B
:10152E00027F84125F667D027F85125F667D147F67
:10153E0086125F667D157F87125F667D067F881235
:10154E005F667D027F89125F667D027F8A125F660B
:10155E007A7679E51261657D3B7F6E125F667D5707
:10156E007F6F125F667D247F3A125F667D1F7F8DCF
:10157E00125F667DBA7F87125F667DD17FB2125F82
:10158E00667D0B7F88125F667D017F38125F66E491
:10159E00FD7F39125F667D077FB5125F667D757FB1
:1015AE0031125F667D987F3B125F667BFF7A76799C
:1015BE00E91261677D0A7F22125F667D097F311213
:1015CE005F667D077F35125F667D677F53125F66AC
:1015DE007D847F55125F667D867F50125F667D82A9
:1015EE007F51125F667D107F60125F66E4FD7F6241
:1015FE00125F66E4FD7FA0125F667D127FA1125F0F
:10160E00667D1F7FA2125F667D127FA3125F667DCD
:10161E00167FA4125F667D297FA5125F667D1E7FF1
:10162E00A6125F667D1F7FA7125F667D7E7FA81262
:10163E005F667D1B7FA9125F667D287FAA125F669B
:10164E007D6D7FAB125F667D197FAC125F667D1874
:10165E007FAD125F667D4C7FAE125F667D1E7FAFE3
:10166E00125F667D237FB0125F667D527FB1125F7F
:10167E00667D6D7FB2125F667D3F7FB3125F66E45B
:10168E00FD7FC0125F667D127FC1125F667D207F77
:10169E00C2125F667D107FC3125F667D137FC41218
:1016AE005F667D277FC5125F667D1B7FC6125F66F4
:1016BE007D1D7FC7125F667D757FC8125F667D1FB9
:1016CE007FC9125F667D287FCA125F667D687FCBF9
:1016DE00125F667D1A7FCC125F667D187FCD125F1A
:1016EE00667D4D7FCE125F667D257FCF125F667D54
:1016FE002E7FD0125F667D537FD1125F667D607F35
:10170E00D2125F667D3F7FD3125F667BFF7A76795A
:10171E00ED1261677BFF7A7679F17D017C001261B3
:10172E006B7F8C7E001270307BFF7A7679F27D01B2
:10173E007C0012616B7F787E001270307BFF7A76B0
:10174E0079F37D017C0012616B7FAA7E00027030FE
:1072EA007D067C087FB11255C47D227C187FB212BC
:1072FA0055C47D127C687FB31255C47D207C037F00
:0D730A00B41255C47D007C057FB50255C44A
:10532A007D507C007FB71255C41255BFE4FDFC7F47
:10533A00B91255C47D0A7C807FBA1255C47D067C99
:10534A00007FBB1255C47D017C007FB91255C4E4AD
:10535A00FDFC7FDE1255C47D027C237FC91255C431
:10536A007F0A7E001270301211DE7D517C017FB7F8
:10537A001255C41255BFE4FDFC7FB91255C47D1500
:10538A007C807FBA1255C47D057C007FBB1255C450
:10539A007D017C007FB91255C47D027C237FC9122E
:1053AA0055C47F0A7E001270307D017C237FCA12A9
:1053BA0055C47D107C057FCB1255C47D057C107FBA
:1053CA00CC1255C47DFF7C007FD01255C41272EAFC
:1053DA007DD37C007FB61255C47D037C007FDE122C
:1053EA0055C47D047C007FD61255C47D4B7C027F58
:0E53FA00B71255C47F3C7E00127030D20922DB
:1062A50000252E3166730025302E306673002530AB
:1062B5002E30666D730025302E30664100252E3058
:1062C5006600252E3166730D0A00252E3066730D86
:1062D5000A00252E30666D730D0A00252E306641A5
:1062E5000D0A00252E30660D0A00050003200D64F9
:1062F500008000000003000003C00000003C000017
:106305000C000000300000F00000000FC00003008A
:10631500000003FFFFDF0000303762A562A662AC14
:1063250062B362BB62C262A562C762CF62D762E036
:0663350062E8FFFB010518
:1072BC00024100960246001801435A0244028A44D5
:0972CC00BAA7000000000148000F
:0C738E0090C25B7401F0A3745EF07D05FA
:10739A00AF05EC8FF01208A490C25BE0FFA3E09067
:0873AA000002CF8FF00208C3BE
:1060BC0090C271EEF0A3EFF0A3ECF0A3EDF090BB67
:1060CC0008E0D39430400302616490C279E0FF9001
:1060DC00BB08E0FE75F009A4245DF582E5F034BB45
:1060EC00F583EFF090C271E0FCA3E0FD75F009EED2
:1060FC00A4245EF582E5F034BBF583ECF0A3EDF05F
:10610C0090C273E0FEA3E0FF90BB08E0FD75F009C0
:10611C00A42460F582E5F034BBF583EEF0A3EFF038
:10612C00AF0375F009EDA42462F582E5F034BBF5FC
:10613C0083EAF0A3EFF090C277E0FEA3E0FF75F0E6
:10614C0009EDA42464F582E5F034BBF583EEF0A3ED
:09615C00EFF090BB08E004F02212
:08515A0090C270F07B247A0082
:1051620090C26AEEF0A3EFF0A3ECF0A3EDF0A3EA95
:10517200F0A3EBF090C26AE0FAA3E0FBFFAE02C03C
:1051820006C00790C26FE025E0FF90C26EE033FEDA
:10519200C390C26DE09FFD90C26CE09EFCEB784232
:1051A20026FBEA1836FAE0FFA3E090C277CFF0A31D
:1051B200EFF0E4A3F0A3F090C26EA3E090C27BF004
:1051C20025E0A3F0A3E4F0A37443F0E4A3F0A3F07A
:1051D200D007D00612506C90C270E0FD25E0244941
:1051E200F582E434BAF583EEF0A3EFF0EDFF7E0032
:1051F2001233BA90C26AE0FAA3E0FBFFAE02C00625
:10520200C00790C26FE025E0FF90C26EE033FEC39C
:1052120090C26DE09FFD90C26CE09EFCEB7842264E
:10522200FBEA1836FAE0FFA3E090C277CFF0A3EFD3
:10523200F090C270E090C279F0D007D0060260BC54
:066732007B017AC27958D8
:1067380090C267EBF0A3EAF0A3E9F090C267E0FB30
:10674800A3E0FAA3E0F91207BCFFAEF0C006C00749
:106758009000021207E7FDACF0C004C0051207BCA8
:10676800FBAAF0C002C00390C267E0FBA3E0FAA353
:10677800E02402F9E43AFA1207BCFF7843E6FDC3C5
:10678800EF9DFFE5F09400FE8FF01208A490C27010
:10679800EEF0A3EFF09062F3E49390C272F0A3746A
:1067A80007F0A374E0F0D003D002D005D004D007DE
:0567B800D006023B7E4B
:0669B6007B017AC2795852
:1069BC0090C267EBF0A3EAF0A3E9F090C267E0FBAA
:1069CC00A3E0FAA3E0F91207BCFFAEF0C006C007C3
:1069DC009000021207E7FDACF01207BCFBAAF0C056
:1069EC0002C0037843E6FF7E0090C267E0FBA3E0A1
:1069FC00FA900002EE8FF0120857AFF090C270F0D0
:106A0C00A3EFF09062F3E49390C272F0A37407F0DA
:0F6A1C00A374E0F0D003D002D007D006023B7E77
:10582D0090C267EBF0A3EAF0A3E9F090C267E0FB4A
:10583D00A3E0FAA3E0F91207BCFFAEF0900002124C
:10584D0007E7FDACF01207BC784226FBE5F01836F1
:10585D00FAC002C00390C267E0FBA3E0FA90000219
:10586D001207E7FB90C270E5F0F0A3EBF09062F346
:10587D00E49390C272F0A37407F0A374E0F0D00328
:10588D00D002123B7E90C267E0FBA3E0FAA3E0F9E1
:10589D001207BCFFAEF07844E6FC08E6FD741A1260
:1058AD00515A90C267E0FBA3E0FAA3E0F91207BCDE
:1058BD00FBAAF0FFAE0290C2707402F0A3748AF0DE
:1058CD00A37405F0A374DEF0A374DBF07D3A7C02C3
:1058DD00123B7E7841E6FE08E6FF90C267E0FBA32F
:0B58ED00E0FAA3E0F9EE8FF002081FC4
:064E79007B017AC27958AA
:104E7F0090C267EBF0A3EAF0A3E9F090C267E0FB02
:104E8F00A3E0FAA3E0F91207BCFFAEF09000021204
:104E9F0007E7FDACF01207BC784226FBE5F01836A9
:104EAF00FAC002C00390C267E0FBA3E0FA900002D1
:104EBF001207E7FB90C270E5F0F0A3EBF09062F3FE
:104ECF00E49390C272F0A37407F0A374E0F0D003E0
:104EDF00D002123B7E90C267E0FBA3E0FAA3E0F999
:104EEF001207BCFFAEF09000021207E7FDACF0789E
:104EFF0046E6FA08E6FB90C270741BF012516290FE
:104F0F00C267E0FBA3E0FAA3E0F91207BCFFAEF023
:104F1F007844E6FC08E6FD741C12515A90C267E013
:104F2F00FBA3E0FAA3E0F91207BCFBAAF0FFAE0265
:104F3F0090C2707402F0A3748AF0A37405F0A37486
:104F4F00DEF0A374DBF07D3A7C02123B7E7841E603
:104F5F00FE08E6FF90C267E0FBA3E0FAA3E0F9EEDC
:054F6F008FF002081F95
:10496C0090C267EBF0A3EAF0A3E9F090C267E0FB1A
:10497C00A3E0FAA3E0F91207BCFFAEF0C006C00733
:10498C009000021207E724FFFDE5F034FFFC12074C
:10499C00BC784226FBE5F01836FAC002C00390C280
:1049AC0067E0FBA3E0FA9000021207E7FB7843E60E
:1049BC00F582C3EB9582FEE5F0940090C270F0A3F3
:1049CC00CEF09062F3E49390C272F0A37407F0A35C
:1049DC0074E0F0D003D002D007D006123B7E90C218
:1049EC0067E0FBA3E0FAA3E0F91207BCFFAEF07896
:1049FC0044E6FC08E6FD90C270741D12515D90C235
:104A0C0067E0FBA3E0FAA3E0F91207BCFBAAF0FFF6
:104A1C00AE0290C2707402F0A3748AF0A37405F015
:104A2C00A374DEF0A374DBF07D3A7C02123B7E783B
:104A3C0041E6FE08E6FF90C267E0FBA3E0FAA3E0C4
:104A4C00F9EE8FF012081F90C267E0FBA3E0FAA307
:104A5C00E02402F9E43AFA1207BCFF7843E6FDC3FE
:0C4A6C00EF9DFFE5F094008FF00208A41D
:064209007B017AC2795826
:10420F0090C267EBF0A3EAF0A3E9F090C267E0FB7E
:10421F00A3E0FAA3E0F91207BCFFAEF09000021280
:10422F0007E7FDACF01207BC784226FBE5F0183625
:10423F00FAC002C00390C267E0FBA3E0FA9000024D
:10424F001207E7FB90C270E5F0F0A3EBF09062F37A
:10425F00E49390C272F0A37407F0A374E0F0D0035C
:10426F00D002123B7E90C267E0FBA3E0FAA3E0F915
:10427F001207BCFFAEF09000021207E7FDACF0781A
:10428F0046E6FA08E6FB90C270741EF0125162E522
:10429F003F5420FEEE602590C267E0FBA3E0FAA337
:1042AF00E0F91207BCFFAEF07844E6FC08E6FD909B
:1042BF00C270741FF07B1E7A00125162E53F5401E9
:1042CF00FEE4FCEE604990C267E0FBA3E0FAA3E0D6
:1042DF00F91207BCFFAEF0C006C00790000212072C
:1042EF00E7FD7846E6FA08E6FB25E0FFEA33FEEF46
:1042FF002DFFEE35F0FE9062F3E493C3132FFDEC28
:10430F003EFC90C2707429F0D007D0061251629013
:10431F00C267E0FBA3E0FAA3E0F91207BCFBAAF027
:10432F00FFAE0290C2707402F0A3748AF0A37405FA
:10433F00F0A374DEF0A374DBF07D3A7C02123B7EB7
:10434F007841E6FE08E6FF90C267E0FBA3E0FAA320
:08435F00E0F9EE8FF002081FE7
:064A78007B017AC27958AF
:104A7E0090C267EBF0A3EAF0A3E9F090C267E0FB07
:104A8E00A3E0FAA3E0F91207BCFFAEF09000021209
:104A9E0007E7FDACF01207BC784226FBE5F01836AE
:104AAE00FAC002C00390C267E0FBA3E0FA900002D6
:104ABE001207E7FB90C270E5F0F0A3EBF09062F303
:104ACE00E49390C272F0A37407F0A374E0F0D003E5
:104ADE00D002123B7E90C267E0FBA3E0FAA3E0F99E
:104AEE001207BCFFAEF07844E6FC08E6FD90C270FB
:104AFE007421F07B1E7A0012516290C267E0FBA314
:104B0E00E0FAA3E0F91207BCFFAEF0900002120724
:104B1E00E7FDACF07846E6FA08E6FB90C27074202A
:104B2E00F012516290C267E0FBA3E0FAA3E0F91223
:104B3E0007BCFBAAF0FFAE0290C2707402F0A37421
:104B4E008AF0A37405F0A374DEF0A374DBF07D3A53
:104B5E007C02123B7E7841E6FE08E6FF90C267E0DB
:0D4B6E00FBA3E0FAA3E0F9EE8FF002081FB0
:064B7B007B017AC27958AB
:104B810090C267EBF0A3EAF0A3E9F090C267E0FB03
:104B9100A3E0FAA3E0F91207BC2401FFE435F0FE1B
:104BA100C006C0079000021207E7FDACF01207BC77
:104BB100784226FBE5F01836FAC002C00390C267BE
:104BC100E0FBA3E0FA9000021207E7FB7843E62B33
:104BD100FEE435F090C270F0A3CEF09062F3E4935E
:104BE10090C272F0A37407F0A374E0F0D003D00276
:104BF100D007D006123B7E90C267E0FBA3E0FAA388
:104C0100E0F91207BCFFAEF07844E6FC08E6FD903F
:104C1100C2707424F0FB7A0012516290C267E0FB0B
:104C2100A3E0FAA3E0F91207BCFBAAF0FFAE0290E1
:104C3100C2707402F0A3748AF0A37405F0A374DE49
:104C4100F0A374DBF07D3A7C02123B7E7841E6FEF4
:104C510008E6FF90C267E0FBA3E0FAA3E0F9EE8F5C
:104C6100F012081F7843E6FF90C267E0FBA3E0FA69
:0C4C7100A3E0F9900002E48FF002085765
:104F740090C267EBF0A3EAF0A3E9F090C267E0FB0C
:104F8400A3E0FAA3E0F91207BCFFAEF0900002120E
:104F940007E7FDACF01207BC784226FBE5F01836B3
:104FA400FAC002C00390C267E0FBA3E0FA900002DB
:104FB4001207E7FB90C270E5F0F0A3EBF09062F308
:104FC400E49390C272F0A37407F0A374E0F0D003EA
:104FD400D002123B7E90C267E0FBA3E0FAA3E0F9A3
:104FE4001207BCFFAEF07844E6FC08E6FD90C27000
:104FF400742612515D90C267E0FBA3E0FAA3E0F9C6
:105004001207BCFFAEF09000021207E7FDACF07887
:1050140046E6FA08E6FB90C2707425F012516290DD
:10502400C267E0FBA3E0FAA3E0F91207BCFBAAF015
:10503400FFAE0290C2707402F0A3748AF0A37405E8
:10504400F0A374DEF0A374DBF07D3A7C02123B7EA5
:105054007841E6FE08E6FF90C267E0FBA3E0FAA30E
:08506400E0F9EE8FF002081FD5
:1056910090C267EBF0A3EAF0A3E9F090C267E0FBE8
:1056A100A3E0FAA3E0F91207BCFFAEF090000212EA
:1056B10007E7FDACF01207BC784226FBE5F018368F
:1056C100FAC002C00390C267E0FBA3E0FA900002B7
:1056D1001207E7FB90C270E5F0F0A3EBF09062F3E4
:1056E100E49390C272F0A37407F0A374E0F0D003C6
:1056F100D002123B7E90C267E0FBA3E0FAA3E0F97F
:105701001207BCFFAEF07844E6FC08E6FD90C270DB
:10571100742712515D90C267E0FBA3E0FAA3E0F9A0
:105721001207BCFBAAF0FFAE0290C2707402F0A394
:10573100748AF0A37405F0A374DEF0A374DBF07D2A
:105741003A7C02123B7E7841E6FE08E6FF90C26792
:0E575100E0FBA3E0FAA3E0F9EE8FF002081FE0
:1048500090C267EBF0A3EAF0A3E9F090C267E0FB37
:10486000A3E0FAA3E0F91207BCFFAEF0C006C00750
:104870009000021207E7FDACF01207BC784226FB5D
:10488000E5F01836FAC002C00390C267E0FBA3E06F
:10489000FA9000021207E7FB7843E6F582C3EB9536
:1048A00082FEE5F0940090C270F0A3CEF09062F327
:1048B000E49390C272F0A37407F0A374E0F0D00305
:1048C000D002D007D006123B7E90C267E0FBA3E087
:1048D000FAA3E0F91207BCFFAEF09000021207E75E
:1048E000FD7843E6FBC3ED9BFDE5F09400FC7846C4
:1048F000E6FA08E6FB90C2707428F012516290C28A
:1049000067E0FBA3E0FAA3E0F91207BCFBAAF0FF03
:10491000AE0290C2707402F0A3748AF0A37405F022
:10492000A374DEF0A374DBF07D3A7C02123B7E7848
:1049300041E6FE08E6FF90C267E0FBA3E0FAA3E0D1
:10494000F9EE8FF012081F90C267E0FBA3E0FAA314
:10495000E02402F9E43AFA1207BCFF7843E6FDC30B
:0C496000EF9DFFE5F094008FF00208A42A
:0833BA0090C273EEF0A3EFF0E6
:1033C20078777CC27D017BFF7A63791F7E007F0C58
:1033D2001206AB78837CC27D017BFF7A63792B7EF8
:1033E200007F0C1206ABE490C28FF090C274E0250D
:1033F200E0FF90C273E033FE74AF2FF58274BA3EE1
:10340200F583E0FCA3E0FDEC1201A890C290120A41
:103412007F90C273E0FEA3E0FFEE60030235CBEFC4
:1034220024E6B4100040030235CB90343A75F00321
:10343200A4C58325F0C5837302346A0234E00234E2
:103442006A02346A0234E00234C60234E00234C64C
:103452000234F20234F202346A0234E002346A02C2
:0834620034CE0234E00234E034
:10346A00EF25E0FFEE33FE74AF2FF58274BA3EF516
:10347A0083E0FEA3E0FF90C294EEF0A3EFF0C394C2
:10348A0064EE9400502490C28F7401F0A3E0FCA370
:10349A00E0FDA3E0FEA3E0FFE4FBFA792078411205
:1034AA00010690C290120A7F802090C290120A8B65
:0A34BA004120000090C28F7402F060
:1034C400800E90C28F7403F0800690C28F7402F055
:1034D40090C2757407F0A374FFF0801890C28F74C3
:1034E40004F090C27574FFF0A374E0F0800690C2FB
:1034F4008F7405F090C28FE070030235CB25E02471
:1035040077F582E434C2F583E0FEA3E0AA06F97BF2
:10351400FF90C274E025E0FF90C273E033FE74496B
:103524002FF58274BA3EF583E0FCA3E0FDC004C02D
:103534000590C290E0FCA3E0FDA3E0FEA3E0FF90B1
:10354400C29B120A7FD005D00412633B90BAA3E059
:10355400FEA3E0FF90C273E0FCA3E0FDB5070CEC12
:10356400B50608A374F8F0A3741FF0ED25E0FFEC92
:1035740033FE74492FF58274BA3EF583E0FEA3E06E
:10358400FF90C275E0FCA3E0FD1274F8E53C7037CF
:1035940090C28FE025E02483F582E434C2F583E011
:1035A400FEA3E0AA06F97BFF90C290E0FCA3E0FD35
:1035B400A3E0FEA3E0FF90C29B120A7F90BAA5E0AD
:0735C400FCA3E0FD12633BD4
:0135CB0022DD
:03218200E4FDFE7B
:1021850090C26AEEF0A3EFF0AB05EB700302228973
:10219500E025E0FF90C26AE033FE74092FF58274F2
:1021A500BB3EF583E0FCA3E0FDAF03EF3395E0FE16
:1021B50012072990C26BE025E0FB90C26AE033FA72
:1021C50074AF2BF58274BA3AF583EE8FF01207904F
:1021D50090C26AE0FEA3E07802C333CE33CED8F9CD
:1021E500240FF58274BD3EF583E0FCA3E0FD74AFDA
:1021F5002BF58274BA3AF583E0FEA3E0D39DEC6437
:1022050080F8EE648098401E90C26BE025E0FF9058
:10221500C26AE033FE74AF2FF58274BA3EF583ECE3
:10222500F0A3EDF0805E90C26AE0FCA3E0FDAE0491
:102235007802C333CE33CED8F9240DF58274BD3E72
:10224500F583E0FAA3E0FBED25E0FFEC33FE74AF88
:102255002FF58274BA3EF583E0FEA3E0C39BEA64E2
:1022650080F8EE648098501C90C26BE025E0FF90EA
:10227500C26AE033FE74AF2FF58274BA3EF583EA85
:10228500F0A3EBF090C26AE0FEA3E0FFEE6003026C
:10229500265DEFB42A00400302265D9022A7F828A8
:1022A500287302246B02246B02246B02246B022424
:1022B5006B02246B02257F0225970225B302246B4E
:1022C5000225DD0225CD02246B02246B02260F02B6
:1022D500261402261902261E02262302262D022670
:1022E5003702264A0226400226540225FE0225EE22
:1022F5000223250223250223250223250223250265
:102305002325022325022325022325022325022333
:102315002502232502232502232502232502232521
:1023250090C26AE0FCA3E0FD25E0FFEC33FE74AF4C
:102335002FF58274BA3EF583E0FFA3E090C26CCF1F
:10234500F0A3EFF0EC6003022460ED24E6B4100086
:10235500400302246090236875F003A4C58325F02B
:10236500C583730223980223E50223A50223B20243
:1023750023F102244502240902245102242D0224BA
:10238500390223BF0224150223CC0223D9022421BA
:102395000223FD90C26CE0FFA3E090BDB702245B71
:1023A50090C26CE0FFA3E090BDBB02245B90C26CC1
:1023B500E0FFA3E090BDBD02245B90C26CE0FFA3EB
:1023C500E090BDCB02245B90C26CE0FFA3E090BD22
:1023D500CF02245B90C26CE0FFA3E090BDD1807674
:1023E50090C26CE0FFA3E090BDB9806A90C26CE03A
:1023F500FFA3E090BDBF805E90C26CE0FFA3E090BC
:10240500BDF9805290C26CE0FFA3E090BDC3804649
:1024150090C26CE0FFA3E090BDCD803A90C26CE025
:10242500FFA3E090BDD3802E90C26CE0FFA3E090A7
:10243500BDC7802290C26CE0FFA3E090BDC98016A5
:1024450090C26CE0FFA3E090BDC1800A90C26CE031
:10245500FFA3E090BDC5CFF0A3EFF090C26AE0FE08
:06246500A3E0FF0233BA00
:10246B0090BDB5E0FFA3E090C26CCFF0A3EFF0906E
:10247B00C26AE0FEA3E0FFEE600302256FEFB40E2D
:10248B0000400302256F902498F828287302253DFD
:10249B0002254902251902252B0224E20224FD0202
:1024AB00256F02256F02256F02255B02256F022522
:1024BB006F0224CF0224C290C26CE0F0A3E0540F51
:1024CB00F002256F90C26CE0FEA3E0540F4410FFA6
:1024DB0090C26CEE02256B90C26CE054F0F0A3E05E
:1024EB00F090BDDDE4F0A304F090BDE4E054FDF00A
:1024FB00807290C26CE054F0F0A3E0F090BDDDE48C
:10250B00F0A37402F090BDE4E04402F0805690C258
:10251B006CE054F0FEA3E0FFEE440190C26C8040EF
:10252B0090C26CE054F0FEA3E0FFEE440290C26C4C
:10253B00802E90C26CE0540FF0A3E0F0802690C286
:10254B006CE0540FFEA3E0FFEE441090C26C8010C1
:10255B0090C26CE0540FFEA3E0FFEE442090C26CDF
:10256B00F0A3EFF090C26CE0FFA3E090BDB5CFF00D
:03257B00A3EFF0DB
:10257E002290BDD7E4F0A304F090BDFBE4F0A304D9
:10258E00F090BDE4E054FBF02290BDD7E4F0A374CC
:10259E0002F090BDFBE4F0A304F090BDE4E044042F
:1025AE00F054F7F02290BDD7E4F0A37402F090BD82
:1025BE00FBE4F0A37402F090BDE4E04408F0229036
:1025CE00BDD9E4F0A304F090BDE4E054FEF02290F7
:1025DE00BDD9E4F0A37402F090BDE4E04401F02212
:1025EE0090BDDBE4F0A304F090BDE4E054EFF022E4
:1025FE0090BDDBE4F0A37402F090BDE4E04410F073
:10260E002290BDDF802690BDDF802A90BDDF802F17
:10261E0090BDDF803490BDDFE4F0A37405F022900E
:10262E00BDDFE4F0A37406F02290BDE1E4F0A30454
:10263E00F02290BDE1E4F0A37402F02290BDE1E43B
:10264E00F0A37403F02290BDE1E4F0A37404F02231
:0276F400AD07E0
:1076F60090BAA3E0FEA3E0FFED90633793FD02216D
:0177060085FD
:0559C20090C26AEFF045
:1059C70025E02449F582E434BAF583E0FEA3E0FF3D
:1059D7007B017AC2796B12770790C26BE0FCA3E078
:1059E700FD90C26FE0FBA3E090C279CBF0A3EBF090
:1059F7009062F5E493FA740193FB9062F1E493F8F3
:105A0700740193C39BFEE89A90C27BF0A3CEF0A3E8
:105A17007452F0A3748AF090BB03E0FEA3E0FF7B0F
:065A2700DC7A0012749805
:105A2D0090C26AE0FF7E001233BA90C26AE025E0B0
:105A3D002449F582E434BAF583E0FEA3E0FF7D1F2F
:105A4D007CF81274F890C26AE0FD90BAA3E0FEA350
:105A5D00E0FF6D7001EE60261233BA90BAA3A3E099
:105A6D00FF90C26AE0FD90BAA3E4F0A3EDF07E00D2
:0E5A7D001233BA90BAA3E0FEA3E0FF1233BAD0
:015A8B0022F8
:102E3B007B017ABD797590C25BE4F0A37464F07D7D
:102E4B00017C0012739A7ABD797912738E7ABD79EF
:102E5B007D90C25BE4F0A37464F07D0112739A7AE7
:102E6B00BD798190C25BE4F0A37464F012739A7A1B
:102E7B00BD798512738E7ABD798990C25B7427F008
:102E8B00A37410F07D0112739A7ABD798D12738E33
:102E9B007ABD799190C25B7427F0A37410F07D0119
:102EAB0012739A7ABD799590C25BE4F0A374C8F063
:102EBB007D1412739A7ABD799990C25BE4F0A37476
:102ECB0050F07D1E12739A7ABD799D90C25BE4F02F
:102EDB00A37464F07D0112739A7ABD79A112738E7B
:102EEB007ABD79A590C25BE4F0A37464F07D011206
:102EFB00739A7ABD79A990C25BE4F0A3743CF0128B
:102F0B00739A7ABD79AD90C25BE4F0A37464F01D43
:102F1B0012739A7ABD79B112738E90BB3DE4F0A314
:102F2B0004F0A3E4F0A304F0A3E4F0A304F0A3E4FF
:102F3B00F0A304F0A3E4F0A304F0A3E4F0A304F0E3
:102F4B00A3E4F0A304F0A3E4F0A304F0A3E4F0A340
:102F5B0004F0A3E4F0A304F0A3E4F0A304F0A3E4CF
:102F6B00F0A304F0A3E4F0A304F0A3E4F0A304F0B3
:0C2F7B00A3E4F0A304F0A3E4F0A304F02E
:102F870090C253F0A374BAF0A374AFF0E490C252A6
:102F9700F090C253E0FBA3E475F0021207A6A9F074
:102FA700FAE4F5F01208A490C252E004F0E0B42A63
:102FB700E090C2537401F0A374BDF0A374B5F0E4BC
:102FC70090C252F090C253E0FBA3E475F0021207DF
:102FD700A6A9F0FAE4F5F01208A490C252E004F0B2
:042FE700E0B424E04E
:102FEB00754085753F14753E14753D01E4FDFFFE7C
:102FFB001221857F071221827F02122182E4FD7F3D
:10300B000AFE122185E4FD7F0CFE122185E4FD7F73
:10301B0012FE122185E4FD7F14FE122185E4FD7F53
:10302B0018FE12218590BDB7E4F0A304F090BAE32B
:10303B00E4F0A304F090BDB9E4F0A37432F090BABD
:10304B00E5E4F0A37432F090BDBBE4F0A304F09080
:10305B00BAE7E4F0A304F090BDBDE4F0A304F09054
:10306B00BAE9E4F0A304F090BDBFE4F0A37465F0FB
:10307B0090BAEBE4F0A37465F090BDC1E4F0A374D7
:10308B0002F090BAEDE4F0A37402F090BDC3E4F04B
:10309B00A37496F090BAEFE4F0A37496F090BDC5CC
:1030AB00E4F0A37403F090BAF1E4F0A37403F0908E
:1030BB00BDC7E4F0A37432F090BAF3E4F0A374321A
:1030CB00F090BDC9E4F0A3743CF090BAF5E4F0A322
:1030DB00743CF090BDCBE4F0A304F090BAF7E4F0AD
:1030EB00A304F090BDCDE4F0A3743CF090BAF9E4E6
:1030FB00F0A3743CF090BDCFE4F0A304F090BAFBC6
:10310B00E4F0A304F090BDD1E4F0A304F090BAFD79
:10311B00E4F0A304F090BDD3E4F0A37437F090BABD
:10312B00FFE4F0A37437F090BDD5E4F0A304F09066
:08313B00BDB5F0A37410F022F1
:1035CC0090C267EFF090BB08E06F70030237C690B3
:1035DC00C267E075F009A4245DF582E5F034BBF513
:1035EC0083E0FF24E6500A24F040030237AF023791
:0135FC00C608
:1035FD0090C269EFF070057848F6804290C269E09C
:10360D00B4013B784876019062FF120A5F120A0DF1
:10361D00E5405FF540E53F5EF53FE53E5DF53EE596
:10362D003D5CF53DE5404410F540E53FF53FE53E99
:10363D00F53EE53DF53DE4FD7F04FE122185E47F79
:10364D0001FEFDFC90C269E0F9F8120A4CEF5540FD
:10365D00FFEE553FFEED553EFDEC553DFC4D4E4FFD
:10366D0070030236F7E490C268F090C268E0FBC3C5
:10367D0094084003023791E47F01FEFDFCA3E0F9BD
:10368D00F8120A4CEB25E025E024F7F582E43462CC
:10369D00F583120A6FEB5FFFEA5EFEE95DFDE85C04
:1036AD00FC4D4E4F603C90C268E025E025E024F7CC
:1036BD00F582E43462F583120A5F7848E625E02549
:1036CD00E02417F582E43463F583120A6FEB5FFF94
:1036DD00EA5EFEE95DFDE85CFC90BAA7120A7F0286
:1036ED00379190C268E004F08080E490C268F09059
:1036FD00C268E0FBC394084003023791E47F01FEEA
:10370D00FDFCA3E0F9F8120A4CEB25E025E024F7C7
:10371D00F582E43462F583120A6FEB5FFFEA5EFE19
:10372D00E95DFDE85CFC4D4E4F605090C268E025B0
:10373D00E025E024F7F582E43462F583120A5F1286
:10374D000A0DE5405FF540E53F5EF53FE53E5DF571
:10375D003EE53D5CF53DE47F01FEFDFC90C269E078
:10376D00F9F8120A4CE5404FF540E53F4EF53FE5BF
:10377D003E4DF53EE53D4CF53D800990C268E004B7
:10378D00F00236FC90C267E075F009A4245DF58265
:10379D00E5F034BBF583E0FF7E00E4FD12218502E8
:0237AD000BD936
:1037AF0090C267E075F009A4245DF582E5F034BBA3
:0837BF00F583E0FF1259C2225C
:100BD900127668E490BB08F090C27E7403F0A374A7
:100BE9001FF0A3746BF0A3744DF07BFF7A04E4FD4E
:100BF900FCFFFE126012E490C27EF0A3F0A37452CF
:100C0900F0A3748AF0E4FBFAFDFCFFFE1260129077
:100C1900BB03EEF0A3EFF090C27EE4F0A374DCF026
:100C2900E4A3F0A3F07BFF7A047DD2FCFFFE1260FF
:010C390012A8
:100C3A007848E625E025E02417F582E43463F58355
:100C4A00120A5FEF5540FFEE553FFEED553EFDECB3
:100C5A00553DFC90C25C120A7FE5405410FFE4FE49
:100C6A00FDFCEF7008E5405420FFEF602990C25C5C
:100C7A00E0F8A3E0F9A3E0FAA3E0FB90630B120A01
:100C8A005F120A0DEB5FFFEA5EFEE95DFDE85CFCC0
:100C9A0090C25C120A7FE4FFE53F5402FEE4FDFCC9
:100CAA00EE602990C25CE0F8A3E0F9A3E0FAA3E0C1
:100CBA00FB906307120A5F120A0DEB5FFFEA5EFE02
:100CCA00E95DFDE85CFC90C25C120A7FE490C258C0
:100CDA00F0A3F09062F593FE740193FFC39062F162
:100CEA007401939FFFE4939E90C25AF0A3EFF0E43D
:100CFA0090C260F0A3F0E4FFFEFDFC90C25CE0F855
:100D0A00A3E0F9A3E0FAA3E0FBC3120A28700302E6
:100D1A000F2690C25CA3A3A3E05401FFE4FEFDFCEE
:100D2A00EF7003020F047F0190C261E0F9F8120A22
:100D3A004C90BAA7E0F8A3E0F9A3E0FAA3E05FFFBA
:100D4A00EA5EFEE95DFDE85C4D4E4F7003020E8DD2
:100D5A00E490C262F090C260E0FF7E009062F5E427
:100D6A0093FA740193FBFDAC0212072990C263EE59
:100D7A00F0A3EFF0EB25E0FFEA33FEC39062F174D3
:100D8A0001939FFFE4939E90C265F0A3EFF090BA9F
:100D9A00A7E0F8A3A3E0FAA3E0FBC000C001E47F48
:100DAA0001FEFDFC90C261E0F9F8120A4C120A0D2C
:100DBA00D001D000EB5FFFEA5EFEE95DFDE85CFC76
:100DCA0090BAA7120A7FE4FFFEFDFC90BAA7E0F8EA
:100DDA00A3E0F9A3E0FAA3E0FBC3120A2870030216
:100DEA000E8D90BAA7A3A3A3E05401FFEF607290FF
:100DFA00C265E0FCA3E0FD9062F5E493FE74019302
:100E0A00FF90C263E0FAA3E02FFBEA3EFA90C265C4
:100E1A00E0F8A3E02FFFE83E90C277F0A3EFF0904E
:100E2A00C262E090C279F090C263E0FEA3E0FF12D2
:100E3A0060BC90C263E0FEA3E0FFA3E0FCA3E0FD78
:100E4A0090C262E0FB7A001252429062F5E493FE8D
:100E5A00740193FFC390C266E09FF090C265E09E62
:100E6A00F090BAA7E0FCA3E0FDA3E0FEA3E0FF78C0
:100E7A0001120A3990BAA7120A7F90C262E004F0FE
:030E8A00020DD086
:100E8D0090C25AE0FCA3E0FD9062F5E493FE74017C
:100E9D0093FF90C258E0FAA3E02FFBEA3EFA90C20E
:100EAD005AE0F8A3E02FFFE83E90C277F0A3EFF0F1
:100EBD0090C261E090C279F090C258E0FEA3E0FFCD
:100ECD001260BC90C258E0FEA3E0FFA3E0FCA3E0DB
:100EDD00FD90C261E0FB7A001252429062F5E493FC
:100EED00FE740193FF90C259E02FF090C258E03E7E
:100EFD00F090C260E004F090C25CE0FCA3E0FDA3C2
:100F0D00E0FEA3E0FF7801120A3990C25C120A7F5D
:100F1D0090C261E004F0020D0090BB0574FFF0A3D8
:070F2D007435F0A374CCF051
:100F3400E5405401FFEF7003020FFC784676000889
:100F44007623E53F5402FEEE600978417600087688
:100F5400C88016E53F5420FEEE784160077600080D
:100F64007696800576000876AB7D267C027F287E07
:100F7400001273DF78587CC27D017E007F04120664
:100F8400AB785C7CC27D017E007F041206AB7B01E2
:100F94007AC2795812582D126732124E797B017A2F
:100FA400C2795812496C124209E53F5402FEE4FD2D
:100FB400FCEE60137843E6FF25E0F6124B7B7843A2
:100FC400E6FFC313F68025E4FFE53F5420FEE4FD6D
:100FD400FCEE60091269B6124A78126732124B7B32
:100FE4007B017AC27958124F741269B67B017AC2B6
:100FF4007958125691021071E5405402FFEF606D6A
:10100400E53F5420FEEE78416007760108762C8097
:10101400057601087690784676000876267DF47C7D
:10102400017F287E001273DF78587CC27D017E0028
:101034007F041206AB785C7CC27D017E007F0412C3
:1010440006AB126732124E791269B6124209E4FFF6
:10105400E53F5420FEE4FDFCEE6006126732124ABE
:10106400787B017AC279581248501269B690C258F6
:10107400E0FAA3E0FBFFAE0290C2707402F0A37426
:101084008AF0A37405F0A374DEF0A374DBF07D3A58
:101094007C02123B7E90C2707402F0A3743AF0A3F7
:1010A4007405F0A374DEF0A374DBF07BD87A047DBE
:1010B4003A7C027F287E00123B7E90C2707402F05C
:1010C400A3748AF0A37405F0A374DEF0A374DBF0B8
:0F10D4007BD87A047D8A7C027F287E00123B7EC7
:1010E300E53C70639062EF049324FFFBE49334FFC9
:1010F300FA90C277E4F0A374FFF0E4A3F0A374269C
:10110300F0A374AFF0A374FFF0A3E4F0A37440F072
:10111300A374F8F0A3741FF0E4FDFCFFFE12506CFF
:1011230090BAA5EEF0A3EFF0E490BA9FF0A3F0908D
:10113300BAA3F0A3741EF0FF1259C290BA9FE4F051
:10114300A3741EF00211DBE53C640860030211DBAB
