:0B00F800FFFF4457494E543502537B74
:0E2715007B0190C3A1E4F0A304F07F147E00CA
:1027230090C39CEEF0A3EFF0A3EBF0A3EAF0A3E9D0
:01273300F0B5
:10273400E490C3A3F0A3F0A3F0A3F0A3F0A3F0A349
:10274400F0A3F090C3A1E0FAA3E0FB4A70030228CF
:10275400E290C39CE0FEA3E0FFC3E49FFFE49EFE7F
:10276400E4FCFD90C3AB120C32AF03AE02E4FCFDFB
:1027740090C3ABE0F8A3E0F9A3E0FAA3E0FBC31233
:102784000BB6501190C3ABA3A3E0FFA3E090C3A189
:10279400CFF0A3EFF090C39CE0FCA3E0FDECC313E7
:1027A400FFED1390C3A3CFF0A3EFF0ED5401FFA30B
:1027B400E4F0A3EFF0C2AFE4F5F190C3A3E0FCA30F
:1027C400E0FDECF5F28DF375F40175F8AF30FCFD26
:1027D40090C3A5E07002A3E0603DD2FE20FEFD9010
:1027E400C39EE0FBA3E475F00112098FA9F0FAE59A
:1027F400FC1208CA90C39EE0FBA3E475F001120921
:102804008FA9F0FAE5FD1208CA90C3A2E024FFF0F4
:1028140090C3A1E034FFF090C3A1E0FCA3E0FDEC81
:10282400C313FFED1390C3A7CFF0A3EFF0ED540152
:10283400FFA3E4F0A3EFF090C3A774FFF5F012092F
:102844008F45F0605BD2FE20FEFD90C39EE0FBA3AB
:10285400E475F00112098FA9F0FAE5FA1208CA909A
:10286400C39EE0FBA3E475F00112098FA9F0FAE519
:10287400FB1208CA90C39EE0FBA3E475F0011209A1
:102884008FA9F0FAE5FC1208CA90C39EE0FBA3E40A
:1028940075F00112098FA9F0FAE5FD1208CA8097B4
:1028A40090C3A9E07002A3E0602FD2FE20FEFD9049
:1028B400C39EE0FBA3E475F00112098FA9F0FAE5C9
:1028C400FA1208CA90C39EE0FBA3E475F001120952
:0E28D4008FA9F0FAE5FB1208CAE4F5F8D2AFBE
:0128E20022D3
:102FB80090C3C2EEF0A3EFF0A3EBF0A3EAF0A3E90D
:012FC800F018
:102FC900E490C3C9F0A3F0A3F0A3F0A3F0A3F09099
:102FD900C3C7E07002A3E0700302314A90C3C2E0A4
:102FE900FEA3E0FFC3E49FFFE49EFED390C3C8E0C5
:102FF9009F90C3C7E09E4005EEF0A3EFF090C3C2D7
:10300900E0FAA3E0FBEAC313FCEB13FDEB5401FF69
:1030190090C3C9E4F0A3EFF0C2AFE4F5F1ECF5F227
:10302900AF058FF375F40175F88330FCFD90C3C9C2
:10303900E07002A3E0603D90C3C4E0FBA3E475F037
:103049000112098FA9F0FA120884F5FC90C3C4E0B3
:10305900FBA3E475F00112098FA9F0FA120884F5AF
:10306900FDD2FE20FEFD90C3C8E024FFF090C3C747
:10307900E034FFF090C3C7E0FCA3E0FDECC313FF0D
:10308900ED1390C3CBCFF0A3EFF0ED5401FFA3E410
:10309900F0A3EFF075F88F90C3CB74FFF5F0120928
:1030A9008F45F0605B90C3C4E0FBA3E475F00112A7
:1030B900098FA9F0FA120884F5FA90C3C4E0FBA3BA
:1030C900E475F00112098FA9F0FA120884F5FB9052
:1030D900C3C4E0FBA3E475F00112098FA9F0FA1249
:1030E9000884F5FC90C3C4E0FBA3E475F001120960
:1030F9008FA9F0FA120884F5FDD2FE30FE9980FB03
:1031090090C3CDE07002A3E0603275F88C90C3C41F
:10311900E0FBA3E475F00112098FA9F0FA12088403
:10312900F5FA90C3C4E0FBA3E475F00112098FA975
:10313900F0FA120884F5FBD2FE20FEFDE4F5F8D280
:01314900AFD6
:01314A002262
:105F5400C2AFC2D3C2D4E4F58E75C870F5CDF5CC0A
:105F640075CBBC75CACDD2ADD2C8F5937594017505
:105F7400950275C960F5F875F901F5A8F5B8F59AB3
:075F8400F5A9F5B902604C1C
:10604C007F007E80E4F528F5290FEFAC0670010E79
:10605C0014F5828C83E4F00529E52970020528B437
:07606C0000E7E528B480E223
:01607300220A
:10614C0090C52D120C3E55AA5AA57B017AC5792D06
:10615C0090C3C7E4F0A37402F07F047E00022FB852
:0462B8007FF47E01F0
:1062BC00EF4E6010E4FD0DEDC3941840F9EF1F7024
:0462CC00EF1E80EC55
:0162D00022AB
:10591E0090C4CA745AF0A374A5F0A3EEF0A3EFF0EE
:10592E00A3EBF0A3EDF090C4C9E0600A90C4D0E4FC
:10593E00F0A304F08007E490C4D0F0A3F07B017ACA
:10594E00C479CA90C3C7E4F0A37404F07FB07E009C
:10595E00122FB81262B87B017AC479CA90C3A1E43F
:10596E00F0A304F07FB07E0012272390C4CAE0702B
:01597E00E246
:01597F002205
:055E9A0090C519EFF0B6
:105E9F007B017AC5791A90C3A1E4F0A37402F07F55
:105EAF00A07E0012272390C519E0A3F0A37401F080
:105EBF00E490C51DF07B017AC5791A90C3C7F0A392
:0A5ECF007402F07FA07E00022FB8DD
:103F4A0090C3DFE0FB90C4F3F090C3E0E0FCA3E091
:103F5A00FDA3E0FEA3E0FF7810120BC790C4F4EFB4
:103F6A00F090C3E0E0FCA3E0FDA3E0FEA3E0FF784D
:103F7A0008120BC790C4F5EFF090C3E0A3A3A3E027
:103F8A0090C4F6F090C3E4E0FCA3E0FDEC90C4F723
:103F9A00F0A3EDF090C3E6E0FCA3E0FDEC90C4F9D9
:103FAA00F0A3EDF0EBB4A52890C3E8E0FBA3E0FA98
:103FBA00A3E04A4B601A90C3E4E0FEA3E0FF90C37B
:103FCA00E8A3A3E0F990C3C7ECF0A3EDF0122FB871
:103FDA007B017AC479F390C3C7E4F0A37404F07F39
:103FEA00087E00122FB81262B87B017AC479F39066
:103FFA00C3A1E4F0A304F07F087E0012272390C433
:10400A00F3E070E290C3DFE0B45A2F90C3E8E0FB1C
:10401A00A3E0FAA3E04A4B602190C3E4E0FEA3E0E8
:10402A00FF90C3E8A3A3E0F990C3E6E0FDA3E09004
:10403A00C3A1CDF0A3EDF01227237F327E00025CEC
:01404A00B3C2
:103B060090C4D2745AF090C3CFE090C4D3F064014D
:103B1600706790C3D0A3E090C4D4F090C3D2E0FC09
:103B2600A3E0FDA3E0FEA3E0FF7810120BC790C44C
:103B3600D5EFF090C3D2E0FCA3E0FDA3E0FEA3E046
:103B4600FF7808120BC790C4D6EFF090C3D2A3A398
:103B5600A3E090C4D7F090C3D6E0FCA3E0FDEC90C0
:103B6600C4D8F0A3EDF090C3D8E0FCA3E0FDEC9040
:103B7600C4DAF0A3EDF0E4803B90C3CFE0640270BA
:103B860037A3E0FCA3E0FDEC90C4D4F0A3EDF090E5
:103B9600C3D6E0FCA3E0FDEC90C4D6F0A3EDF09014
:103BA600C3DDE0FCA3E0FDEC90C4D8F0A3EDF0E4A7
:103BB600A3F0A3F0A3F0A3F07B017AC479D290C35B
:103BC600C7E4F0A37406F07FAA7E00122FB8126233
:103BD600B87B017AC479D290C3A1E4F0A304F07F44
:103BE600AA7E0012272390C4D2E070E290C3CFE0F1
:103BF600B4012F90C3DAE0FBA3E0FAA3E04A4B60DE
:103C06002190C3D6E0FEA3E0FF90C3DAA3A3E0F9B8
:103C160090C3D8E0FDA3E090C3A1CDF0A3EDF012D0
:093C260027237F327E00025CB30B
:0F63B7007AC5793C12271590C53CE0FEA3E0FFA4
:0163C60022B4
:0857550090C513EEF0A3EFF084
:10575D00A3745AF0A37401F090C513E0FCA3E0FD0F
:10576D00EC90C517F0A3EDF07B017AC5791590C3C8
:10577D00C7E4F0A37402F07F847E00122FB812628A
:10578D00B87B017AC5791590C3A1E4F0A374021218
:10579D00271E90C513E0FEA3E0FFA3E0B506DFA32F
:1057AD00E0B507DAE490C515F0A3F0A3F0A3F07B04
:1057BD00017AC5791590C3C7F0A37402F07F167EE8
:0457CD0000022FB8EF
:085CB30090C37BEEF0A3EFF0BB
:105CBB00E4A3F0A3F090C37BE0FEA3E0FFC390C38B
:105CCB007EE09F90C37DE09E5025E4FBFA7F017E32
:105CDB00001262BC0BBB00010ABA01F1BB2CEE90A7
:0F5CEB00C37EE004F070CE90C37DE004F080C66D
:015CFA002287
:105CFB00EF14601814602314602E240370397401A0
:105D0B00A805088002C333D8FC42B7227401A8054A
:105D1B00088002C333D8FC42BC227401A80508805A
:105D2B0002C333D8FC42BD22AF057401A80708801B
:085D3B0002C333D8FC42BE2272
:105B8600EF1460191460251460312403703D74010C
:105B9600A805088002C333D8FCF452B7227401A8C2
:105BA60005088002C333D8FCF452BC227401A80550
:105BB600088002C333D8FCF452BD22AF057401A895
:0C5BC60007088002C333D8FCF452BE2252
:1050F100EF14602D14604A146067240360030251A9
:1051010083EB600E7401A805088002C333D8FC420A
:1051110080227401A805088002C333D8FCF45280B0
:1051210022EB600E7401A805088002C333D8FC424B
:1051310090227401A805088002C333D8FCF4529070
:1051410022EB600E7401A805088002C333D8FC422B
:10515100A0227401A805088002C333D8FCF452A030
:1051610022EB600E7401A805088002C333D8FC420B
:10517100B022AF057401A807088002C333D8FCF43C
:0351810052B02207
:105A4000EF14601A14602714603424037042740148
:105A5000A805088002C333D8FC5580FE8034740149
:105A6000A805088002C333D8FC5590FE8024740139
:105A7000A805088002C333D8FC55A0FE8014AF05EA
:105A80007401A807088002C333D8FC55B0FE800219
:045A9000E4FEAF067B
:015A940022EF
:10420C007B017AC479FB90C3A1E4F0A37404F07F22
:10421C00167E0012272390C4FBE0645A600302420E
:10422C00D1A3E0FFB40134A3E0FCA3E0FD90C3F004
:10423C00ECF0A3EDF090C3F6ECF0A3EDF090C4FF1E
:10424C00E0FCA3E0FD90C3F4ECF0A3EDF090C41BF4
:10425C00ECF0A3EDF0A37401F08030EFB4032690E2
:10426C00C3EEE0FFA3E090C41BCFF0A3EFF090C32C
:10427C00ECE0FFA3E090C3F6CFF0A3EFF090C41DE9
:10428C007402F0800690C41D7403F090C4FDE0FF2E
:10429C00A3E090C3ECCFF0A3EFF090C4FFE0FFA33A
:1042AC00E090C3EECFF0A3EFF0E490C4FBF07B0101
:1042BC007AC479FB90C3C7F0A37402F07F167E001A
:1042CC00122FB8801190C4FCE0FF64026003EF7001
:0B42DC0005E490C41DF090C41DE0FF3D
:0142E70022B4
:0823430090C4DEEEF0A3EFF000
:10234B0012420C90C4E0EFF0700690C3EBF0FF224A
:10235B0090C4E0E0B4010F7AC379F212271590C351
:10236B00EB7401F0FF2290C3F2E0FEA3E0FF90C4F8
:10237B00DEE06E7003A3E06F60037F012290C3EC7D
:10238B00E0FEA3E0FFC390C3F1E09FFF90C3F0E03A
:10239B009E90C41EF0A3EFF090C41EE0FCA3E0FDE2
:1023AB00FFAE041208DCEE3395E0FDFC90C4E112A5
:1023BB000C3290C3EEE0FEA3E0FFC390C3F5E09FA9
:1023CB00FF90C3F4E09E90C420F0A3EFF090C420E4
:1023DB00E0FCA3E0FDFFAE041208DCEE3395E0FD5C
:1023EB00FC90C4E5120C3290C4E0E064027079906A
:1023FB00C3EBE06401706B7F09FEFDFC90C4E5E06C
:10240B00F8A3E0F9A3E0FAA3E0FBC3120BB6501A52
:10241B00E47F09FEFDFC90C4E1E0F8A3E0F9A3E042
:10242B00FAA3E0FBC3120BB64038E47F02FEFDFCBF
:10243B0090C4E5E0F8A3E0F9A3E0FAA3E0FB120AED
:10244B008C90C4E1E0F8A3E0F9A3E0FAA3E0FBD39E
:10245B00120BB690C3EB50057403F0FF227404F01B
:10246B00FF2290C3EBE0FF2290C3EBE06401706EA0
:10247B007F09FEFDFC90C4E5E0F8A3E0F9A3E0FAC8
:10248B00A3E0FBC3120BB6501AE47F09FEFDFC90D0
:10249B00C4E1E0F8A3E0F9A3E0FAA3E0FBC3120B5D
:1024AB00B64038E47F02FEFDFC90C4E5E0F8A3E003
:1024BB00F9A3E0FAA3E0FB120A8C90C4E1E0F8A3C5
:1024CB00E0F9A3E0FAA3E0FBD3120BB690C3EB50F9
:1024DB00057403F080087404F080037F022290C31C
:1024EB00EBE0B4031E90C3EEE0FEA3E0FFC390C489
:1024FB001CE09FFF90C41BE09E90C424F0A3EFF060
:10250B007F052290C3ECE0FEA3E0FFC390C3F7E08E
:10251B009FFF90C3F6E09E90C422F0A3EFF07F06DE
:01252B00228D
:045F1800021800006B
:10624800E4F51D758911F58CF58AC28CF51AF51CD3
:0E625800438901758CBC758ACDD2A9D28C22E7
:03000B000257D1C8
:0D57D100C0E0C0D075D000C000C006C00709
:1057DE00C2AFE51D6002151D758CBC758ACD051B0B
:1057EE0075270074017E00A827088005C333CE33C9
:1057FE00CED8F9FFEF551C602DE52725E02408F8DB
:10580E0008E61618700116E52725E02408F8E6FECE
:10581E0008E64E7011AF2704A807088002C333D8DC
:0F582E00FC421AF4521C0527E527B408B6D2AF86
:0B583D00D007D006D000D0D0D0E03261
:03002B0002634627
:10634600C0E0C2AFC2C6D2AF0519E5197002051882
:03635600D0E03262
:1060E700C2AF7401A807088002C333D8FCFE421C64
:1060F700EF25E02408F8A60408A605EEF4521AD204
:02610700AF22C5
:10631C00C2AF7401A807088002C333D8FCF4521C26
:05632C00521AD2AF225D
:10635900C2AF7401A807088002C333D8FC551AFFDD
:02636900D2AFB1
:01636B00220F
:0B626600D2B37F05126271D2B27F0537
:10627100EF600EE4FE0EC3EE648094B240F71F801F
:01628100EF2D
:0162820022F9
:04641D0053BEF72251
:0464210043BE08224C
:10629E00126421D2B3D2B27F0F126271C2B37F0FDA
:0A62AE00126271C2B27F0F0262712A
:0A616C007F0F125F9BAF03125F9BD1
:10617600126421C2B3D2B27F0F126271D2B37F0F03
:0661860012627102641DAB
:0F63C700126421C2B3126268C2B27F0502627112
:0D63E500126421126266C2B27F050262716D
:1061CC0012641D126266E4FD30B30A7F051262711F
:0F61DC000DEDB432F3C2B27F051262710264217D
:105F8B00125F9BE0FF125F9B12617612629E7F6431
:025F9B00AD0750
:105F9D00126421E4FCED30E704D2B38002C2B3ED0C
:105FAD0025E0FD126268C2B27F051262710CECB47D
:055FBD0008E30261CCC5
:0D5FC2007F0F125F9B12629E7F65125F9B36
:105FCF0012641DE4FC126268ED25E0FD30B3054458
:105FDF0001FD8004ED54FEFDC2B27F051262710C0B
:065FEF00ECB408E1AF056F
:015FF5002289
:104B9F00125F96125FC2AB071263C7125FCFAA07ED
:104BAF001263E5126176EB20E003024C4D548460F2
:104BBF000AEB547BFB125F9612616CEB54FEFBEA1F
:104BCF0030E713547FFA125F967F10125F9BAF028C
:104BDF00125F9B126176EA4480FA125F967F101281
:104BEF005F9BAF02125F9B126176EB4484FB125FF7
:104BFF00967F0F125F9BAF03125F90E4FF125F9BD4
:104C0F00E4FF125F9BE4FF125F9B7F80125F9B7F2D
:104C1F0005125F9B7F01125F9B7F01125F9B7F21BC
:104C2F00125F9B126176EB547BFBEA547FFA125FA3
:0E4C3F00967F10125F9BAF02125F9012616CA5
:014C4D002244
:104E5900125F96125FC290C53EEFF01263C7125FF0
:104E6900CFA3EFF01263E5126176E04480F0125FA0
:104E7900967F10125F9BE0FF125F9B12617690C5CF
:104E89003EE04484F0125F967F0F125F8BE4FF12BD
:104E99005F9B90000612089DFF125F9B9000051210
:104EA900089DFF125F9B90000412089DFF125F9BF3
:104EB90090000312089DFF125F9B90000212089D4B
:104EC900FF125F9B90000112089DFF125F9B120861
:104ED90084FF125F9B12617690C53EE0547BF0A37C
:104EE900E0547FF0125F967F10125F8B7F0F125F85
:0C4EF9009B90C53EE0FF125F9B026176BB
:10496900125F96E4FF125F9B12629E7F65125F9B46
:104979007B06125FCF74E92BF582E434C4F583EF2B
:10498900F01263C7DBEC125FCF90C4E9EFF012635A
:10499900E512617690C4EDE0547FF0E4FB74E92BF5
:1049A900F582E434C4F583E0FFC4540FFE90C4F1EA
:1049B900F0EF540FFFA3F0EE75F00AA42FFF74E98E
:1049C9002BF582E434C4F583EFF00BEBB403CE7B13
:1049D9000474E92BF582E434C4F583E0FFC4540F71
:1049E900FE90C4F1F0EF540FFFA3F0EE75F00AA4A6
:1049F9002FFF74E92BF582E434C4F583EFF00BEB58
:104A0900B407CEE490C4F0F07B017AC479E990C38D
:0D4A1900C7F0A37404F07F107E00022FB8D8
:10636C00EF75F00A84C454F0FEEF75F00A84E5F082
:03637C004EFF22AF
:0F63D600EFC4540F75F00AA4FEEF540F2EFF22F0
:0752150090C51EEBF0AB0792
:10521C00ED64016004EDB4021BED240CFEE433904C
:10522C00C51FF0A3CEF0EB24FFFEE434FFA3F0A3E4
:10523C00CEF08012AF0590C51FE4F0A3EFF0AF03E2
:10524C00A3E4F0A3EFF090C520E02401FF90C51F6C
:10525C00E03400FE7C007D1A1208DC7D0A1208EE98
:10526C00AC06AD0790C521E0FAA3E0FBAE027802D4
:10527C00CEC313CE13D8F92BFFEA3ECF2DCF3CFE75
:10528C0090C51EE07C002FFFEC3ECF24DCCF34FF1A
:08529C00FE7D071208EEAF05CC
:0152A40022E7
:104C4E007B017AC479A690C3A1E4F0A37404F07F2B
:104C5E009C7E0012272390C4A6E0645A6003024C87
:104C6E00FCA3E064A56003024CFCA3E0FF12636C9E
:104C7E0090C4AEEFF090C4A9E0FF12636C90C4AF85
:104C8E00EFF090C4AAE0FF12636C90C4B0EFF09006
:104C9E00C4A8E0FFA3E0FDA3E0FB12521590C4B13F
:104CAE00EFF090C4ABE0FF12636C90C4B2EFF0442F
:104CBE0080F090C4ACE0FF12636C90C4B3EFF09040
:104CCE00C4ADE0FF12636C90C4B4EFF07B017AC404
:104CDE0079AE124E59E490C4A6F0A3F07AC479A628
:0E4CEE0090C3C7F0A304F07F9C7E00122FB885
:014CFC002295
:1062D1007D027F03125CFB7D037F03125CFB12498D
:0962E10069E4F518F519024C4EB0
:105B3800AB07AA06A905A8047F007E387D317C0042
:105B4800120B17C3E49F90C381F074049E90C38026
:105B5800F043C9407D04E4FF125CFB7D05E4FF12BD
:105B68005B8643803075D88075985090C380E0FC80
:0D5B7800A3E0FDECF5BA8DAA43A810D2AC55
:015B850022FD
:105C6A00AB07AA06A905A8047F007E707D627C00A6
:105C7A00120B17C3E49F90C381F074049E90C380F3
:105C8A00F043C9207D06E4FF125CFB7D07E4FF12A6
:105C9A005B864380C0759B9090C380E0FCA3E0FDC7
:085CAA00ECF5BB8D9D439A014E
:015CB20022CF
:10607400759680759780AB07AA06A905A8047F00CA
:106084007EC07D897C01120B17AD07AC06ECF5D9F7
:07609400AF058FE743B80CD4
:01609B0022E2
:105E590075A78075AB80AB07AA06A905A8047F00C2
:105E69007EC07D897C01120B17AD07AC06ECF5AE3F
:105E7900AF058FAF43B830E490A01BF0A3F0A3F0B7
:105E8900A3F090A023F090A01FF0A3F0A3F0A3F03B
:015E990022E6
:105A9500EF14601B1460291460372403704490C30D
:105AA5007CE0FCA3E0FDA3E0FEA3E0FF025B3890F1
:105AB500C37CE0FCA3E0FDA3E0FEA3E0FF025C6A7B
:105AC50090C37CE0FCA3E0FDA3E0FEA3E0FF026041
:105AD5007490C37CE0FCA3E0FDA3E0FEA3E0FF120D
:035AE5005E5922E5
:102C540090C503EFF0A3ECF0A3EDF0A3EBF0A3EA2F
:042C6400F0A3E9F000
:102C6800C2AFE4A3F0A3F090C504E0FEA3E0FFC365
:102C780090C50AE09F90C509E09E4003022D2C9064
:102C8800C506E0FBA3E475F00112098FA9F0FA125A
:102C98000884FF90C503E0FE75F009A42400F582BE
:102CA800E5F03488F583EE75F008A42583F583E014
:102CB800FCA3E0FD75F009EEA42400F582E5F034EC
:102CC80080F583EE75F008A42583F583E5822DF55C
:102CD80082E5833CF583EFF075F009EEA42400F556
:102CE80082E5F03488F583EE75F008A42583F58332
:102CF800E475F00112097975F009EEA42400F58253
:102D0800E5F03488F583EE75F008A42583F583E0B3
:102D18005403F090C50AE004F0700690C509E00479
:102D2800F0022C6F90C503E01460421460701470B8
:102D380003022DD424036003022E04908808E06067
:102D480003022E0404F0908802E0FEA3E02400F5BC
:102D58008274803EF583E0F599908803E004F07072
:102D680006908802E004F0908802022E00909011EC
:102D7800E06003022E0404F090900BE0FEA3E02430
:102D880009F58274883EF583E0F59C90900CE00488
:102D9800F0700690900BE004F090900B805A909899
:102DA8001AE0705804F0909814E0FEA3E02412F59D
:102DB8008274903EF583E0F59E909815E004F070DB
:102DC80006909814E004F0909814802C90A023E0CA
:102DD800702A04F090A01DE0FEA3E0241BF5827485
:102DE800983EF583E0F5AC90A01EE004F0700690E4
:0E2DF800A01DE004F090A01DE05403F0D2AF47
:012E060022A9
:030023000252A5E1
:1052A500C0E0C083C082C0D075D000C006C007C2B0
:1052B500AF30982AC298908804E0FEA3E02400F558
:1052C5008274843EF583E599F0908805E004F070DA
:1052D50006908804E004F0908804E05403F03099C7
:1052E5003FC299908802E0FEA3E0FF908800E06E3F
:1052F5007003A3E06F602474002FF58274803EF57F
:1053050083E0F599908803E004F07006908802E048
:1053150004F0908802E05403F08005908808E4F0DA
:0F532500D2AFD007D006D0D0D082D083D0E03224
:03005300025980CF
:10598000C0E0C083C082C0D075D000C006C007C2CE
:10599000AF5396FE909814E0FEA3E0FF909812E0BB
:1059A0006E7003A3E06F602474122FF58274903E32
:1059B000F583E0F59E909815E004F0700690981439
:1059C000E004F0909814E05403F0800590981AE4F5
:1059D000F0D2AFD007D006D0D0D082D083D0E03282
:03005B00025D4300
:105D4300C0E0C083C082C0D075D000C006C2AF53CC
:105D530097FE909816E0FEA3E02412F58274943E19
:105D6300F583E59FF0909817E004F070069098167D
:105D7300E004F0909816E05403F0D2AFD006D0D0F0
:075D8300D082D083D0E03292
:030063000259E05F
:1059E000C0E0C083C082C0D075D000C006C007C26E
:1059F000AF53A7FE90A01DE0FEA3E0FF90A01BE028
:105A00006E7003A3E06F6024741B2FF58274983EC0
:105A1000F583E0F5AC90A01EE004F0700690A01DA8
:105A2000E004F090A01DE05403F0800590A023E472
:105A3000F0D2AFD007D006D0D0D082D083D0E03221
:03006B00025D8AA9
:105D8A00C0E0C083C082C0D075D000C006C2AF5385
:105D9A00ABFE90A01FE0FEA3E0241BF582749C3E9C
:105DAA00F583E5ADF090A020E004F0700690A01F06
:105DBA00E004F090A01FE05403F0D2AFD006D0D098
:075DCA00D082D083D0E0324B
:03008300025056D2
:10505600C0E0C083C082C0D075D000C006C007C201
:10506600AFE59B30E02E759B90539BFE90900DE034
:10507600FEA3E02409F582748C3EF583E59CF0904E
:10508600900EE004F0700690900DE004F090900D04
:10509600E05403F0E59B30E143759B90539BFD90F4
:1050A600900BE0FEA3E0FF909009E06E7003A3E092
:1050B6006F602474092FF58274883EF583E0F59CB1
:1050C60090900CE004F0700690900BE004F0909045
:1050D6000BE05403F08005909011E4F0D2AFD007B6
:0B50E600D006D0D0D082D083D0E032C2
:1051840090C539EBF0A3EAF0A3E9F07D02E4FF1245
:105194005CFB7D03E4FF125B867B017D02E4FF126E
:1051A40050F143C98075F1FFE4F5F275F36075F4CD
:1051B4000175F88F30FCFD90C539E0FBA3E0FAA33C
:1051C400E0F9120884F5FA90000112089DF5FB90AD
:1051D400000212089DF5FC90000312089DF5FDD213
:1051E400FE20FEFDE4F5FAF5FBF5FCF5FDD2FE200C
:1051F400FEFD75FAFF75FBFF75FCFF75FDFFD2FE22
:1052040020FEFDE4F5F8758FA0E58F20E5FBD2B90B
:015214002277
:10628300E5E830E51553E8DF438F407FE87E0312EE
:0B62930062BC538FBFE490BA28F022D9
:1035ED0075F1FFE4F5F275F36475F40175F88F303C
:1035FD00FCFD90BA27E075F00DA42424F582E5F0CA
:10360D0034ADF583E0F5FAE4F5FBF5FCF5FDD2FEFE
:10361D0020FEFD90BA27E0FB75F00DA42425F58260
:10362D00E5F034ADF583E0FCA3E0FDA3E0FEA3E0FF
:10363D00FF7818120BC78FFA75F00DEBA42425F542
:10364D0082E5F034ADF583E0FCA3E0FDA3E0FEA33D
:10365D00E0FF7810120BC78FFB90BA27E0FB75F0D7
:10366D000DA42425F582E5F034ADF583E0FCA3E04F
:10367D00FDA3E0FEA3E0FF7808120BC78FFC75F0E9
:10368D000DEBA42425F582E5F034ADF583A3A3A3BA
:10369D00E0F5FDD2FE20FEFD90BA27E0FF75F00D9E
:1036AD00A42429F582E5F034ADF583E0F5FA75F043
:1036BD000DEFA4242AF582E5F034ADF583E0F5FB9A
:1036CD0090BA27E0FF75F00DA4242BF582E5F034B8
:1036DD00ADF583E0F5FC75F00DEFA4242CF582E536
:1036ED00F034ADF583E0F5FDD2FE20FEFD90BA2756
:1036FD00E0FF75F00DA4242DF582E5F034ADF583D2
:10370D00E0F5FA75F00DEFA4242EF582E5F034AD59
:10371D00F583E0F5FB90BA27E0FF75F00DA4242F9B
:10372D00F582E5F034ADF583E0F5FC75F00DEFA411
:10373D002430F582E5F034ADF583E0F5FDD2FE20C1
:0C374D00FEFD90BA27E004F0E4F5F8223D
:061EDB0090C48F120C32CE
:101EE100D390C495E0940090C494E0940840030218
:101EF100215190C493E0FB90C48F30E70FE0FCA325
:101F0100E0FDA3E0FEA3E0FF7803800DE0FCA3E089
:101F1100FDA3E0FEA3E0FF7815120BDA90C49E1238
:101F21000C3290BA26E0FA75F00DA42424F582E56E
:101F3100F034ADF583E030E63890C49EE0FCA3E0D8
:101F4100FDA3E0FEA3E0FF75F00DEAA42425F582D0
:101F5100E5F034ADF583120C32EB54C0FF75F00D92
:101F6100EAA42424F582E5F034ADF583EFF00221F3
:101F71003590C494E0FCA3E0FDAE047803CEC31316
:101F8100CE13D8F990C49CF0ED5407A3F0E490C4AB
:101F91009BF090C493E054C0FFE4FCFDFE90C4A20A
:101FA100120C32E490C499F090C49CE0FF90C49963
:101FB100E0C39F400302206090C49EE0FCA3E0FDCB
:101FC100A3E0FEA3E0FF90BA26E0FB75F00DA42488
:101FD10025F582E5F034ADF583120C3290C4A2E010
:101FE100FCA3E0FDA3E0FEA3E04408FF75F00DEBC8
:101FF100A42424F582E5F034ADF583EFF0E490C438
:102001009AF090C49AE0FFC39408504490C496E0BB
:10201100FBA3E0FAA3E0F990C49BE0F5827583008D
:1020210012089DFE90BA26E075F00DA42429F582D0
:10203100E5F034ADF583E5822FF582E43583F58350
:10204100EEF090C49BE004F090C49AE004F080B2FA
:1020510090BA26E004F090C499E004F0021FA99020
:10206100C49DE0FB700302213BA3E0FCA3E0FDA3C0
:10207100E0FEA3E0FF90BA26E075F00DA42425F55B
:1020810082E5F034ADF583120C32AF0390C4A2A304
:10209100E0F9A3E0FAA3E04FFF90BA26E075F00D56
:1020A100A42424F582E5F034ADF583EFF0E490C487
:1020B1009AF090C49DE0FF90C49AE0FEC39F504403
:1020C10090C496E0FBA3E0FAA3E0F990C49BE0F58D
:1020D1008275830012089DFF90BA26E075F00DA469
:1020E1002429F582E5F034ADF583E5822EF582E40D
:1020F1003583F583EFF090C49BE004F090C49AE03F
:1021010004F080AE90C49AE0FFC39408502690BAC0
:1021110026E075F00DA42429F582E5F034ADF583B0
:10212100E5822FF582E43583F583E4F090C49AE0EB
:1021310004F080D090BA26E004F090BA28E0701044
:10214100C2AF1235EDD2AF90BA287401F0438F04BB
:01215100226B
:03004B00021B8114
:101B8100C0E0C0F0C083C082C0D075D000C000C02A
:0D1B910001C002C003C004C005C006C007AB
:101B9E00C2AFE59130E70353913FE59120E6030292
:101BAE001E815391BF75F1FF75F20075F36875F4E0
:101BBE000175F8AF30FCFDD2FE20FEFD90C2EFE5C0
:101BCE00FAF0E0FF90BA24E075F00DA42424F5821B
:101BDE00E5F034A0F583EFF0D2FE20FEFD90BA249E
:101BEE00E075F00DA42425F582E5F034A0F583C050
:101BFE0083C082E0FCA3E0FDA3E0FEA3E0FF780833
:101C0E00120BDAD082D083120C3290BA24E075F027
:101C1E000DA42425F582E5F034A0F583C083C0829F
:101C2E00E0F8A3E0F9A3E0FAA3E0FBAFFAEB4FFF75
:101C3E00EAFEE9FDE8FCD082D083120C3290BA2481
:101C4E00E075F00DA42425F582E5F034A0F583C0EF
:101C5E0083C082E0FCA3E0FDA3E0FEA3E0FF7808D2
:101C6E00120BDAD082D083120C3290BA24E075F0C7
:101C7E000DA42425F582E5F034A0F583C083C0823F
:101C8E00E0F8A3E0F9A3E0FAA3E0FBAFFBEB4FFF14
:101C9E00EAFEE9FDE8FCD082D083120C3290BA2421
:101CAE00E075F00DA42425F582E5F034A0F583C08F
:101CBE0083C082E0FCA3E0FDA3E0FEA3E0FF780872
:101CCE00120BDAD082D083120C3290BA24E075F067
:101CDE000DA42425F582E5F034A0F583C083C082DF
:101CEE00E0F8A3E0F9A3E0FAA3E0FBAFFCEB4FFFB3
:101CFE00EAFEE9FDE8FCD082D083120C3290BA24C1
:101D0E00E075F00DA42425F582E5F034A0F583C02E
:101D1E0083C082E0FCA3E0FDA3E0FEA3E0FF780811
:101D2E00120BDAD082D083120C3290BA24E075F006
:101D3E000DA42425F582E5F034A0F583C083C0827E
:101D4E00E0F8A3E0F9A3E0FAA3E0FBAFFDEB4FFF51
:101D5E00EAFEE9FDE8FCD082D083120C3290BA2460
:101D6E00E075F00DA42425F582E5F034A0F583C0CE
:101D7E0083C082E0FCA3E0FDA3E0FEA3E0FF7803B6
:101D8E00120BC7D082D083120C3290C2EFE020E744
:101D9E002D90BA24E075F00DA42425F582E5F034DB
:101DAE00A0F583C083C082E0FCA3E0FDA3E0FEA308
:101DBE00E0FF7812120BC7D082D083120C3290C281
:101DCE00EFE030E603021E78D2FE20FEFD90BA242C
:101DDE00E0FF75F00DA42429F582E5F034A0F5831B
:101DEE00E5FAF075F00DEFA4242AF582E5F034A0A3
:101DFE00F583E5FBF075F00DEFA4242BF582E5F0ED
:101E0E0034A0F583E5FCF075F00DEFA4242CF582DB
:101E1E00E5F034A0F583E5FDF0D2FE20FEFD90BA8C
:101E2E0024E0FF75F00DA4242DF582E5F034A0F525
:101E3E0083E5FAF075F00DEFA4242EF582E5F0346B
:101E4E00A0F583E5FBF075F00DEFA4242FF582E5E8
:101E5E00F034A0F583E5FCF075F00DEFA42430F519
:101E6E0082E5F034A0F583E5FDF075F80090BA2414
:101E7E00E004F0E59130E51A5391DF90BA26E0FFC9
:101E8E00A3E06F60081235ED438F04800590BA28E9
:101E9E00E4F0E59130E4035391EFE59130E3035321
:101EAE0091F7E59130E2065391FB438F0475E800FC
:021EBE00D2AFA1
:101EC000D007D006D005D004D003D002D001D00076
:0B1ED000D0D0D082D083D0F0D0E03220
:09641400253032580004FF031F7B
:085F1C0041C1E80041C1E900A8
:0A640A0075F90175BCFD7590FD22C7
:030003000255D9CA
:1055D900C0E0C0F0C083C082C0D075D000C000C098
:1055E90001C002C003C004C005C006C0077F587EC1
:1055F900021262BCE5B030E0F47F587E021262BC50
:10560900E5B030E0F47F2C7E011262BCE5B030E0F9
:10561900F4E5B020E113E51DD3945040047F0180E7
:1056290002E4FF126392751D647F017E00125CB370
:10563900C289C28BD007D006D005D004D003D002CE
:0F564900D001D000D0D0D082D083D0F0D0E032CA
:030013000256583A
:10565800C0E0C0F0C083C082C0D075D000C000C018
:1056680001C002C003C004C005C006C0077F587E41
:10567800021262BCE5B030E1F47F587E021262BCCF
:10568800E5B030E1F47F2C7E011262BCE5B030E178
:10569800F4E5B020E013E51DD3945040047F038067
:1056A800027F02126392751D647F017E00125CB353
:1056B800C289C28BD007D006D005D004D003D0024F
:0F56C800D001D000D0D0D082D083D0F0D0E0324B
:1032D900125F54126248C2AF53A9FE53B9FEC289A4
:1032E900D288D2A8C28BD28AD2AAD2AF12640A12C9
:1032F900412E90C37C120C3E0001C2007F03125A7A
:1033090095E490C2EEF090C2EBF090C1EBF090C161
:05331900EAF01228E3B8
:10331E007B017AC3793C90C3A1E4F0A37403F07FE0
:10332E00167E0012272390C33CE0B45AE3E4F07BF0
:10333E00017AC3793E90C3C7F0A304F07F167E00D6
:03334E00122FB883
:1033510090C33DE0FF90C342E4F0A3EFF07B017A1C
:10336100C3793E90C3C7E4F0A37402F07F007E40AE
:10337100122FB87B017AC3794290C3C7E4F0A3044A
:08338100F07F027E40122FB81C
:0733890090C33DE014708EBB
:10339000E490C342F090BA4AE0FF90C342E0FEC31B
:1033A0009F400302344075F009EEA42477F582E5CE
:1033B000F034BCF583E0FEA3E0FF90C33EE0FCA345
:1033C000E0FDC39FEC9E406F90C342E0FF75F009A3
:1033D000A4247BF582E5F034BCF583E0FAA3E0FB9E
:1033E000D3ED9BEC9A505075F009EFA42479F58247
:1033F000E5F034BCF583E0FEA3E0FF90C340E0FCC1
:10340000A3E0FDC39FEC9E402EA3E0FF75F009A44E
:10341000247DF582E5F034BCF583E0FAA3E0FBD32C
:10342000ED9BEC9A501190BC1FA3E0FAA3E0F5824B
:103430008A83120CCF800990C342E004F0023395D6
:1034400090C342E0FFA3E4F0A3EFF07B017AC379DD
:103450004390C3C7E4F0A304F07F037E40122FB86B
:0334600002331E16
:03642900FF642CE1
:01642C00224D
:10584800C2AFE4F5F1F5F275F30A75F40175F8AF36
:1058580030FCFDD2FE20FEFDAFFA90C540E4F0A377
:10586800EFF0E07F00FE90C540F0A3EFF0ADFBED58
:10587800FF90C540EEF0A3EFF0E4F5F8D2AF90C585
:1058880040E0FEA3E0FF90642975F003120C6FEE70
:1058980075F003A42583F583E493FB740193FA74EC
:0D58A8000293F94A600789828A83120CCFAF
:0158B50022D0
:046425000F407200B2
:1054D30078317CC57D017BFF7A6479257E007F046A
:1054E30012085E90C37C120C3E0001C200E4FF125E
:1054F3005A957B017AC5793112518490BECE7401DD
:10550300F0A37484F0A37400F0A37401F0A374886F
:10551300F0A37404F0A37401F0A37488F0A37406D9
:10552300F0A37404F0A3E4F07B01A304F0A374BE1E
:10553300F0A374E4F0A3EBF0A374BFF0A374E4F05E
:10554300A3EBF0A374BFF0A374E6F0A37401F0A37C
:02555300E4F082
:015555002233
:105556007B017ABF79E890C3A1E4F0A37402F07FDF
:10556600007E0F12272390BFE8E0645A7062F07B3A
:10557600017ABF79E890C3C7F0A37402F07F007E7A
:105586000F122FB890BFEBE0FDC394C840027D64B4
:1055960090BFE9E0FEA3E0FBAA0690BFE8745AF0CC
:1055A600A374A5F0ED25E02404A3F0A37483F0EA28
:1055B600A3F0A3EBF0A3EDF0AE02AF037B017ABF3D
:1055C60079EF90C3A1E4F0A3EDF01227237F012227
:0255D6007F0054
:0155D80022B0
:0B12E00090C4B6EBF0A3EAF0A3E9F025
:1012EB00C2AF900003120C9B1209A5FFAEF090C485
:1012FB00C1EEF0A3EFF0D2AF90C4B6E0FBA3E0FADF
:10130B00A3E0F9900006120C9B1209A5FDACF06F3F
:10131B007002EC6E7003021819C390C4C2E09D906A
:10132B00C4C1E09C90C4B6E0FBA3E0FAA3E0F95083
:10133B00219000091209D0FF90C4C2E02FFF90C486
:10134B00C1E035F0CFC39DCF9C90C4B9F0A3EFF0B3
:10135B00801E900006120C9B1209A5FFC390C4C2FD
:10136B00E09FFE90C4C1E095F090C4B9F0A3CEF01D
:10137B00C390C4BAE0940690C4B9E0940050037FC4
:10138B00002290C4B6E0FBA3E0FAA3E0F9900006BC
:10139B00120C9B1209A5FDACF090C4B6E0FBA3E0C8
:1013AB00FAA3E0F9120C7B8D828C8312089DFF90BF
:1013BB00C4BFE4F0A3EFF0E0F8E4F0E890C4BFF0B2
:1013CB00ED2401FFE43CFE90C4C3F0A3EFF090C406
:1013DB00B6E0FBA3E0FAA3E0F99000091209D0FDF7
:1013EB00C3EF9DEE95F04007E490C4C3F0A3F01259
:1013FB000C7B90C4C3E0FEA3E0F5828E8312089DA4
:10140B00FF90C4BFE0FEA3E04FFF90C4BFEEF0FE21
:10141B00A3EFF064A57003EE645A60030217C49047
:10142B00C4B6E0FBA3E0FAA3E0F9900006120C9B14
:10143B001209A52403FFE435F0FE90C4C3F0A3EF1B
:10144B00F090C4B6E0FBA3E0FAA3E0F99000091218
:10145B0009D0FDC3EF9DEE95F04007E490C4C3F0B7
:10146B00A3F0120C7B90C4C3E0FEA3E0F5828E8345
:10147B0012089D648260030215F290C4B6E0FBA3D0
:10148B00E0FAA3E0F9900006120C9B1209A52402C6
:10149B00FFE435F0FE90C4C3F0A3EFF090C4B6E0C8
:1014AB00FBA3E0FAA3E0F99000091209D0FDC3EF0A
:1014BB009DEE95F04007E490C4C3F0A3F090C4B642
:1014CB00E0FBA3E0FAA3E0F9120C7B90C4C3E0FEAF
:1014DB00A3E0F5828E8312089D2403FFE433FE9074
:1014EB00C4BBF0A3EFF0C390C4BAE09F90C4B9E0C3
:1014FB009E5003021819E490C4BDF0A3F090C4BB36
:10150B00E0FEA3E0FFA3E0FCA3E0FDC39FEC9E4045
:10151B00030215BE90C4B6E0FBA3E0FAA3E0F9907A
:10152B000006120C9B1209A5FFAEF090C4B6E0FBAF
:10153B00A3E0FAA3E0F9120C7B8F828E8312089D35
:10154B00FF74E82DF58274BF3CF583EFF090C4B6C1
:10155B00E0FBA3E0FAA3E0F9900006120C9BE47504
:10156B00F001120A0890C4B6E0FBA3E0FAA3E0F97D
:10157B00900006120C9B1209A5FFAEF090C4B6E0CA
:10158B00FBA3E0FAA3E0F99000091209D0FDC3EF29
:10159B009DEE95F0400C900006120C9BE4F5F012BA
:1015AB000A4090C4BEE004F0700690C4BDE004F0A5
:1015BB0002150890BFECE0FEA3E0FF7B017ABF7938
:1015CB00EE90BFEAE024FDC313FD90C3C7E4F0A384
:1015DB00EDF0122FB890BFEA7403F090BFEC744F8C
:1015EB00F0A3744B02177590C4B6E0FBA3E0FAA30B
:1015FB00E0F9120C7B90C4C3E0FEA3E0F5828E836E
:10160B0012089D6483600302177990C4B6E0FBA3B4
:10161B00E0FAA3E0F9900006120C9B1209A5240234
:10162B00FFE435F0FE90C4C3F0A3EFF090C4B6E036
:10163B00FBA3E0FAA3E0F99000091209D0FDC3EF78
:10164B009DEE95F04007E490C4C3F0A3F090C4B6B0
:10165B00E0FBA3E0FAA3E0F9120C7B90C4C3E0FE1D
:10166B00A3E0F5828E8312089D2403FFE433FE90E2
:10167B00C4BBF0A3EFF0C390C4BAE09F90C4B9E031
:10168B009E5003021819E490C4BDF0A3F090C4BBA4
:10169B00E0FEA3E0FFA3E0FCA3E0FDC39FEC9E40B4
:1016AB000302174E90C4B6E0FBA3E0FAA3E0F99057
:1016BB000006120C9B1209A5FFAEF090C4B6E0FB1E
:1016CB00A3E0FAA3E0F9120C7B8F828E8312089DA4
:1016DB00FF74E82DF58274BF3CF583EFF090C4B630
:1016EB00E0FBA3E0FAA3E0F9900006120C9BE47573
:1016FB00F001120A0890C4B6E0FBA3E0FAA3E0F9EC
:10170B00900006120C9B1209A5FFAEF090C4B6E038
:10171B00FBA3E0FAA3E0F99000091209D0FDC3EF97
:10172B009DEE95F0400C900006120C9BE4F5F01228
:10173B000A4090C4BEE004F0700690C4BDE004F013
:10174B0002169890BFECE0FEA3E0FF7B017ABF7915
:10175B00EFA3E0FD90C3A1E4F0A3EDF012272390DB
:10176B00BFEEE025E0240490BFEAF07F012290C495
:10177B00B6E0FBA3E0FAA3E0F9900006120C9BE4A1
:10178B0075F001120A0890C4B6E0FBA3E0FAA3E0DF
:10179B00F9900006120C9B1209A5FFAEF090C4B68F
:1017AB00E0FBA3E0FAA3E0F99000091209D0FDC316
:1017BB00EF9DEE95F04057804990C4B6E0FBA3E057
:1017CB00FAA3E0F9900006120C9BE475F001120AE3
:1017DB000890C4B6E0FBA3E0FAA3E0F99000061270
:1017EB000C9B1209A5FFAEF090C4B6E0FBA3E0FA88
:1017FB00A3E0F99000091209D0FDC3EF9DEE95F01F
:10180B00400C900006120C9BE4F5F0120A407F008E
:01181B0022AA
:10389C0090BA25E0FF90BA24E06F700302393575B9
:1038AC00F00DEFA42425F582E5F034A0F583E0FCBF
:1038BC00A3E0FDA3E0FEA3E0FFE47B23FAF9F8C349
:1038CC00120BB6705E90BA25E075F00DA42424F5A9
:1038DC0082E5F034A0F583E0540FFFE4FEEEC39FC5
:1038EC00504190BA25E075F00DA42429F582E5F03D
:1038FC0034A0F583E5822EF582E43583F583E0FD73
:10390C0090BFE4E0FAA3E024E4F58274BE3AF583B8
:10391C00EDF090BFE5E004F0700690BFE4E004F039
:10392C000E80BA90BA25E004F0125556EF6401707F
:10393C004190BFEAE02403FDE433FC7B017ABF79BC
:10394C00E8E4FF122C54E490C493F090BFEAE02416
:10395C0003FEE43390C494F0A3CEF0A37401F0A35F
:10396C0074BFF0A374E8F07F237E007D007C00120E
:10397C001EDB7B017ABE79CE1212E0BF011590BF1F
:10398C00EAE02403FDE433FC7B017ABF79E8E4FF31
:10399C00122C547B017ABE79D91212E0BF012CE4AF
:1039AC0090C493F090BFEAE02403FEE43390C494F7
:1039BC00F0A3CEF0A37401F0A374BFF0A374E8F0ED
:0B39CC007F247E007D007C00121EDBCB
:0139D70022CD
:10637F00FF988103FF988104FF988101FF988100A6
:03638F003511299C
:025F2400C109B1
:104DAC00E490C523F0A3F0A374B0F0A374FAF0C29E
:104DBC0090C2947F057E001262BCE490C527F090EF
:104DCC00C525E0A330E704D2928002C292C2937F41
:104DDC00057E001262BCD2937F057E001262BC90ED
:104DEC00C526E025E0F090C525E033F090C527E01E
:104DFC0004F0E0C3941040C7D2947F057E00126289
:104E0C00BCE490C527F0C2937F057E001262BCD231
:104E1C00937F057E001262BC90C524E025E0F090E3
:104E2C00C523E033F0309107E0F0A3E04401F090AB
:104E3C00C527E004F0E0C3941040CBD2907F057EF0
:0C4E4C00001262BC90C523E0FEA3E0FF52
:014E58002237
:104CFD00E490C528F0A3F0EFFF74FAA3CFF0A3EF73
:104D0D00F0C290C2947F057E001262BCE490C52C67
:104D1D00F090C52AE0A330E704D2928002C292C27D
:104D2D00937F057E001262BCD2937F057E001262D6
:104D3D00BC90C52BE025E0F090C52AE033F090C57E
:104D4D002CE004F0E0C3941040C7D2947F057E00A0
:104D5D001262BCE490C52CF0C2937F057E001262F6
:104D6D00BCD2937F057E001262BC90C529E025E080
:104D7D00F090C528E033F0309107E0F0A3E0440156
:104D8D00F090C52CE004F0E0C3941040CBD2907F9E
:0E4D9D00057E001262BC90C528E0FEA3E0FF78
:014DAB0022E5
:105AE80090C385EFF0C290C2947F057E001262BC1D
:105AF800E490C384F090C385E030E704D29280023A
:105B0800C292C2937F057E001262BCD2937F057E4B
:105B1800001262BC90C385E025E0F090C384E004E5
:105B2800F0E0C3940840CED2907F057E000262BCAC
:05449800E4FDFC7FB80B
:10449D0090C385EFF0ECA3F0A3EDF0C290C2947F32
:1044AD00057E001262BCE490C384F090C385E030B9
:1044BD00E704D2928002C292C2937F057E001262FF
:1044CD00BCD2937F057E001262BC90C385E025E0CF
:1044DD00F090C384E004F0E0C3940840CED2947F02
:1044ED00057E001262BCE490C384F090C387E03077
:1044FD00E704D2928002C292C2937F057E001262BF
:10450D00BCD2937F057E001262BC90C387E025E08C
:10451D00F090C384E004F0E0C3940840CEE490C36F
:10452D0084F090C386E030E704D2928002C292C23A
:10453D00937F057E001262BCD2937F057E001262CE
:10454D00BC90C386E025E0F090C384E004F0E0C3A6
:0D455D00940840CED2907F057E000262BC23
:064FB1007BFF7D047C0083
:0B4FB70090C37BEBF0A3EAF0A3E9F04D
:104FC200AE04AF05A3EEF0A3EFF07FBC12449D90B8
:104FD200C37EE0FCA3E0FD7FBE12449D7FBF125A58
:104FE200E8C290D2947F057E001262BC90C37E74A8
:104FF200FFF5F012098F45F0605190C37BE0FBA3EF
:10500200E475F00112098FA9F0FA12088490C381A5
:10501200F0E490C380F090C380E0C3940850CDA325
:10502200E030E704D2928002C292C2937F057E00F2
:105032001262BCD2937F057E001262BC90C381E0F3
:1050420025E0F090C380E004F080CBD2907F057E13
:04505200000262BC3A
:104F050090C3817401F0A374C3F0A3747FF090C3C0
:104F15007FEFF0A3EDF090C37BE4F0A37402F0FD06
:104F25007C007FBC12449D90C37BE0FCA3E0FD7F29
:104F3500BE12449D7FBF125AE8C290D2947F0F7E65
:104F4500001262BC90C37B74FFF5F012098F45F027
:104F5500605190C381E0FBA3E475F00112098FA9AC
:104F6500F0FA12088490C37EF0E490C37DF090C3FC
:104F75007DE0C3940850CDA3E030E704D2928002CF
:104F8500C292C2937F0F7E001262BCD2937F0F7EC6
:104F9500001262BC90C37EE025E0F090C37DE00482
:0C4FA500F080CBD2907F0F7E000262BC37
:100D60007A63797F124FB1E4FD7F01124F05E4FDF4
:100D70007F02124F057D577F03124F057DD37F04FD
:100D8000124F05E4FD7F05124F057D117F06124FBE
:100D9000057D087F07124F05E4FD7F08124F05E42B
:100DA000FD7F09124F057D3F7F0A124F05E4FD7F4D
:100DB0000B124F05E4FD7F0C124F05E4FD7F0D1271
:100DC0004F05E4FD7F0E124F057D3F7F0F124F054B
:100DD0007D3F7F10124F05E4FD7F11124F05E4FDAA
:100DE0007F12124F05E4FD7F13124F05E4FD7F14BF
:100DF000124F05E4FD7F15124F05E4FD7F16124FDB
:100E000005E4FD7F17124F05E4FD7F18124F05E43E
:100E1000FD7F19124F05E4FD7F1A124F05E4FD7F97
:100E20001B124F05E4FD7F1C124F05E4FD7F1D12D0
:100E30004F057D407F1E124F057D807F1F124F059D
:100E40007D067F20124F057D017F21124F05E4FDB5
:100E50007F22124F05E4FD7F23124F05E4FD7F241E
:100E6000124F05E4FD7F25124F05E4FD7F26124F4A
:100E700005E4FD7F27124F057D337F28124F057D46
:100E8000337F29124F05E4FD7F2A124F05E4FD7FD1
:100E90002B124F05E4FD7F2C124F05E4FD7F2D1230
:100EA0004F05E4FD7F2E124F05E4FD7F2F124F0505
:100EB000E4FD7F30124F05E4FD7F31124F05E4FD64
:100EC0007F32124F05E4FD7F33124F05E4FD7F347E
:100ED000124F05E4FD7F35124F05E4FD7F36124FBA
:100EE00005E4FD7F37124F057D787F38124F05E40A
:100EF000FD7F39124F05E4FD7F3A124F05E4FD7F77
:100F00003B124F05E4FD7F3C124F05E4FD7F3D128F
:100F10004F05E4FD7F3E124F05E4FD7F3F124F0574
:100F2000E4FD7F40124F05E4FD7F41124F05E4FDD3
:100F30007F42124F05E4FD7F43124F05E4FD7F44DD
:100F4000124F05E4FD7F50124F057D237F51124F54
:100F5000057D457F52124F057D677F53124F057DFA
:100F6000897F54124F057DAB7F55124F057D017F60
:100F700056124F057D237F57124F057D457F58122E
:100F80004F057D677F59124F057D897F5A124F05A6
:100F90007DAB7F5B124F057DCD7F5C124F057DEFF2
:100FA0007F5D124F05E4FD7F5E124F057D0D7F5F73
:100FB000124F057D0D7F60124F057D0C7F61124F32
:100FC000057D0C7F62124F057D0F7F63124F057DFB
:100FD0000F7F64124F057D0E7F65124F057D0E7FDA
:100FE00066124F057D087F67124F057D027F6812EC
:100FF0004F057D027F69124F057D027F6A124F0502
:101000007D027F6B124F057D027F6C124F057D02C2
:101010007F6D124F057D027F6E124F057D027F6F3F
:10102000124F057D147F70124F057D157F71124F91
:10103000057D067F72124F057D027F73124F057D7D
:10104000027F74124F057D0D7F75124F057D0D7F58
:1010500076124F057D0C7F77124F057D0C7F78123D
:101060004F057D0F7F79124F057D0F7F7A124F0557
:101070007D0E7F7B124F057D0E7F7C124F057D0814
:101080007F7D124F057D027F7E124F057D027F7F9F
:10109000124F057D027F80124F057D027F81124F26
:1010A000057D027F82124F057D027F83124F057DF1
:1010B000027F84124F057D027F85124F057D147FCC
:1010C00086124F057D157F87124F057D067F88129A
:1010D0004F057D027F89124F057D027F8A124F05E1
:1010E0007A637983124FB17D3B7F6E124F057D5736
:1010F0007F6F124F057D247F3A124F057D1F7F8D34
:10110000124F057DBA7F87124F057DD17FB2124FF6
:10111000057D0B7F88124F057D017F38124F05E456
:10112000FD7F39124F057D077FB5124F057D757F15
:1011300031124F057D987F3B124F057BFF7A637913
:1011400087124FB37D0A7F22124F057D097F31122E
:101150004F057D077F35124F057D677F53124F0581
:101160007D847F55124F057D867F50124F057D820D
:101170007F51124F057D107F60124F05E4FD7F62A5
:10118000124F05E4FD7FA0124F057D127FA1124F83
:10119000057D1F7FA2124F057D127FA3124F057D93
:1011A000167FA4124F057D297FA5124F057D1E7F56
:1011B000A6124F057D1F7FA7124F057D7E7FA812C7
:1011C0004F057D1B7FA9124F057D287FAA124F0571
:1011D0007D6D7FAB124F057D197FAC124F057D18D9
:1011E0007FAD124F057D4C7FAE124F057D1E7FAF48
:1011F000124F057D237FB0124F057D527FB1124FF4
:10120000057D6D7FB2124F057D3F7FB3124F05E420
:10121000FD7FC0124F057D127FC1124F057D207FDB
:10122000C2124F057D107FC3124F057D137FC4127C
:101230004F057D277FC5124F057D1B7FC6124F05C9
:101240007D1D7FC7124F057D757FC8124F057D1F1D
:101250007FC9124F057D287FCA124F057D687FCB5D
:10126000124F057D1A7FCC124F057D187FCD124F8E
:10127000057D4D7FCE124F057D257FCF124F057D19
:101280002E7FD0124F057D537FD1124F057D607F99
:10129000D2124F057D3F7FD3124F057BFF7A6379D2
:1012A0008B124FB37BFF7A63798F7D017C00124FE5
:1012B000B77F8C7E00125CB37BFF7A6379907D01EF
:1012C0007C00124FB77F787E00125CB37BFF7A639D
:1012D00079917D017C00124FB77FAA7E00025CB33A
:105FF6007D067C087FB112449D7D227C187FB212FB
:10600600449D7D127C687FB312449D7D207C037F76
:0D601600B412449D7D007C057FB502449DC1
:10412E007D507C007FB712449D124498E4FDFC7FC5
:10413E00B912449D7D0A7C807FBA12449D7D067C17
:10414E00007FBB12449D7D017C007FB912449DE42B
:10415E00FDFC7FDE12449D7D027C237FC912449DAF
:10416E007F0A7E00125CB3120D607D517C017FB719
:10417E0012449D124498E4FDFC7FB912449D7D15B6
:10418E007C807FBA12449D7D057C007FBB12449DCE
:10419E007D017C007FB912449D7D027C237FC91274
:1041AE00449D7F0A7E00125CB37D017C237FCA1280
:1041BE00449D7D107C057FCB12449D7D057C107F38
:1041CE00CC12449D7DFF7C007FD012449D125FF681
:1041DE007DD37C007FB612449D7D037C007FDE1272
:1041EE00449D7D047C007FD612449D7D4B7C027FD6
:0E41FE00B712449D7F3C7E00125CB3D20922B2
:105ED90073004100250004FF031F0D78640080034F
:105EE900FFFFBF03FFFCBF0000306F000000070089
:105EF9000003800000007800000C00000030000062
:0F5F0900F00000000FC00003000000FFFB0105C7
:105F2600022C009602300018022E028A0433021058
:0D5F3600548901320041BA2900022AFFE01F
:0C60C30090C38D7401F0A3745EF07D05A5
:1060CF00AF05EC8FF0120A4090C38DE0FFA3E09074
:0860DF000002CF8FF0020A5FFE
:0563F20090C544EFF02E
:0663F70090BA29E004F059
:0163FD00227D
:1043C10090C386E0FAA3E02FFBEA3EFA90C388E0AF
:1043D100F8A3E02FFFE83E90C3A5F0A3EFF090C350
:0E43E10084E090C3A7F090C386E0FEA3E0FF47
:1043EF0090C39FEEF0A3EFF0A3ECF0A3EDF090BA23
:1043FF004AE0D39430400302449790C3A7E0FF9064
:10440F00BA4AE0FE75F009A42476F582E5F034BCD3
:10441F00F583EFF090C39FE0FCA3E0FD75F009EE8C
:10442F00A42477F582E5F034BCF583ECF0A3EDF02E
:10443F0090C3A1E0FEA3E0FF90BA4AE0FD75F0093A
:10444F00A42479F582E5F034BCF583EEF0A3EFF008
:10445F00AF0375F009EDA4247BF582E5F034BCF5CC
:10446F0083EAF0A3EFF090C3A5E0FEA3E0FF75F0A1
:10447F0009EDA4247DF582E5F034BCF583EEF0A3BD
:09448F00EFF090BA4AE004F022BB
:10252C0090C392E0FEA3E0FFC3940AEE9400500A1D
:10253C0090C39DE4F0A304F0803AC3EF9464EE944E
:10254C0000500B90C39DE4F0A37402F08026C3EFFF
:10255C0094E8EE9403500B90C39DE4F0A37403F045
:10256C008012C3EF9410EE9427500990C39DE4F0B1
:10257C00A37404F090C395E0FBA3E0FAA3E0F91276
:10258C00633190C394E02FFF90C39CE075F007A4D7
:10259C00244FF582E5F034BAF583EFF090C399E05F
:1025AC0025E0FF90C398E033FEC390C391E09FFFFA
:1025BC0090C390E09EFE905EE3E493FDC3EF9DFD1F
:1025CC00EE9400FC90C38EE0FEA3E0FF126114C0F9
:1025DC000190C39CE075F007A4244BF974BA35F054
:1025EC00A801FC7D01D0017E007F0412085E90C31F
:1025FC0098E0FCA3E0FD90C39CE0FF75F007A424D9
:10260C0050F582E5F034BAF583ECF0A3EDF075F0FB
:10261C0007EFA4244FF582E5F034BAF583E0FF9080
:10262C00C39EE02FF090C39DE03400F0E0FEA3E0E9
:10263C00FF1208DCC3782DE69FFF18E69EFEE4FC33
:10264C00FD7B02FAF9F8125E1590C38FE02FFF9014
:10265C00C38EE03EFE90C39CE075F007A4244DF5BC
:10266C0082E5F034BAF583E0FCA3E0FD90C394E07E
:10267C0090C3A5F090C395E0F9A3E0FAA3E090C352
:10268C00A6C9F0A3EAF0A3E9F090C398A3E090C325
:10269C00A9F090C39AE0FBA3E090C3AACBF0A3EB04
:1026AC00F090C392E0FAA3E0FB12375990C39CE080
:1026BC00F925E024CBF582E434BBF583EEF0A3EFEF
:1026CC00F090C38EE0FAA3E0FBFFAE02C006C00799
:1026DC0090C399E025E0FF90C398E033FEC390C30C
:1026EC0091E09FFD90C390E09EFCEB782D26FBEAD9
:1026FC001836FAE0FFA3E090C3A5CFF0A3EFF0A348
:09270C00E9F0D007D0060243EF0A
:0B39D80090C31AEFF0A3ECF0A3EDF099
:1039E300C3940AEC94005008A3E4F0A304F0803FCE
:1039F30090C31BE0FEA3E0FFC39464EE9400500960
:103A0300A3E4F0A37402F08026C3EF94E8EE9403DA
:103A1300500B90C31DE4F0A37403F08012C3EF9422
:103A230010EE9427500990C31DE4F0A37404F090A2
:103A3300C31AE0FF75F007A4244FF582E5F034BA0A
:103A4300F583E0FD90C31EE02DF090C31DE034002C
:103A5300F0EF25E024CBF582E434BBF583E0FEA34D
:103A6300E0FFC006C00790C31AE075F007A4245016
:103A7300F582E5F034BAF583E0FCA3E0FD90C31DC5
:103A8300E0FEA3E0FF1208DCC3782DE69FFF18E6F3
:103A93009EFEE4FCFD7B02FAF9F8125E1590C31A50
:103AA300E0FD75F007A4244BF582E5F034BAF58305
:103AB300E0FAA3E02FFFEA3EFE75F007EDA4244DE4
:103AC300F582E5F034BAF583E0FCA3E0FD1261145E
:103AD30078217CC37D017E007F0412085ED007D06D
:103AE3000612630390C31AE025E024CBF582E43485
:103AF300BBF583E0FEA3E0FF90C31BE0FCA3E0FD66
:033B030002470A6C
:1053C00078807CC37D017E007F0412085E78847C37
:1053D000C37D017B017AC379807E007F0412085E61
:1053E00090C384E0FEA3E0FF905EE4E493FDC390ED
:1053F000C387E09DFD90C386E09400FC12611478A1
:10540000887CC37D017E007F0412085E90C386E025
:10541000FCA3E0FDA3E0FAA3E0FBA3E0FFA3E09080
:10542000C394CFF0A3EFF0905EE3E49390C396F0C3
:10543000A37407F0A374E0F090C384E0FEA3E0FF40
:09544000122A9D7B017AC37988D0
:015449002240
:10544A0078807CC37D017E007F0412085E78847CAC
:10545A00C37D017B017AC379807E007F0412085ED6
:10546A0090C384E0FEA3E0FF905EE4E493FD90C362
:10547A0087E02DFD90C386E03400FC126114788821
:10548A007CC37D017E007F0412085E90C386E0FC27
:10549A00A3E0FDA3E0FAA3E0FBA3E0FFA3E090C32F
:1054AA0094CFF0A3EFF0905EE3E49390C396F0A359
:1054BA007407F0A374E0F090C384E0FEA3E0FF1247
:0854CA002A9D7B017AC3798859
:0154D20022B7
:104A2600782CE6FE08E6FF90C385E02FFF90C3844E
:104A3600E03EFE90C386E0FCA3E0FD126114788898
:104A46007CC37D017E007F0412085E90C386E0FC75
:104A5600A3E0FDA3E0FAA3E0FBA3E0FFA3E090C37D
:104A660094CFF0A3EFF0905EE3E49390C396F0A3A7
:104A76007407F0A374E0F090C384E0FEA3E0FF1295
:104A86002A9D90C384E0FEA3E0FF782EE6FC08E6AC
:104A9600FD126114788E7CC37D017E007F041208AE
:104AA6005E90BBA7E0FFA3E090C392CFF0A3EFF028
:104AB600A37401F0A374FFF0A3745EF0A374D9F09D
:104AC600A3E4F0A3741EF0A37407F0A374FFF0A38D
:0C4AD600741AF012252C7B017AC3798839
:014AE20022B1
:103C2F00782CE6FE08E6FF90C385E02FFF90C38453
:103C3F00E03EFE90C386E0FCA3E0FD12611478889D
:103C4F007CC37D017E007F0412085E90C386E0FC7A
:103C5F00A3E0FDA3E0FAA3E0FBA3E0FFA3E090C382
:103C6F0094CFF0A3EFF0905EE3E49390C396F0A3AC
:103C7F007407F0A374E0F090C384E0FEA3E0FF129A
:103C8F002A9D788E7CC37D017B017AC379847E0067
:103C9F007F0412085E90BBA9E0FFA3E090C392CF10
:103CAF00F0A3EFF0E4A3F0A374FFF0A3745EF0A30E
:103CBF0074DBF07830E6FF08E6A3CFF0A3EFF0A3B4
:103CCF0074FFF0A374E0F0A3741BF012252C90C3C3
:103CDF0084E0FEA3E0FF782EE6FC08E6FD126114F7
:103CEF00788E7CC37D017E007F0412085E90BBAB93
:103CFF00E0FFA3E090C392CFF0A3EFF0A37401F025
:103D0F00A374FFF0A3745EF0A374D9F0A3E4F0A33F
:103D1F00741EF0A37407F0A374FFF0A3741CF012C9
:083D2F00252C7B017AC3798881
:013D37002269
:1047D800782CE6FE08E6FF90C385E02FFF90C3849F
:1047E800E03EFE905EE4E493FDC390C387E09DFD48
:1047F80090C386E09400FC12611478887CC37D0124
:104808007E007F0412085E90C386E0FCA3E0FDA34F
:10481800E0FAA3E0FBA3E0FFA3E090C394CFF0A3EA
:10482800EFF0905EE3E49390C396F0A37407F0A3CF
:1048380074E0F090C384E0FEA3E0FF122A9D90C3C9
:1048480084E0FEA3E0FF782EE6FC08E6FD12611482
:10485800788E7CC37D017E007F0412085E90BBAD1C
:10486800E0FFA3E090C392CFF0A3EFF0A37401F0B0
:10487800A374FFF0A3745EF0A374D9F0A3E4F0A3CB
:10488800741EF0A37407F0A374FFF0A3741DF01254
:08489800252C7B017AC379880D
:0148A00022F5
:10314B00905EE3E493C313FF90C38CE4F0A3EFF022
:10315B00782CE6FE08E6FF90C385E02FFF90C38432
:10316B00E03EFE90C386E0FCA3E0FD12611478887C
:10317B007CC37D017E007F0412085E90C386E0FC59
:10318B00A3E0FDA3E0FAA3E0FBA3E0FFA3E090C361
:10319B0094CFF0A3EFF0905EE3E49390C396F0A38B
:1031AB007407F0A374E0F090C384E0FEA3E0FF1279
:1031BB002A9D90C384E0FEA3E0FF782EE6FC08E690
:1031CB00FD126114788E7CC37D017E007F04120892
:1031DB005E90BBB1E0FFA3E090C392CFF0A3EFF002
:1031EB00A37403F0A374FFF0A3745EF0A374D9F07F
:1031FB00A3E4F0A37414F0A37407F0A374FFF0A37B
:10320B00741FF012252C788E7CC37D017B017AC351
:10321B0079847E007F0412085E90BBAFE0FFA3E0D1
:10322B0090C392CFF0A3EFF0E4A3F0A374FFF0A34D
:10323B00745EF0A374DBF07830E6FF08E6A3CFF002
:10324B00A3EFF0A374F8F0A3741FF0A314F01225EE
:10325B002C7831E625E0FF18E633FE90C387E02F8C
:10326B00FD90C386E03EFC905EE3E49375F002A410
:10327B002DFDE5F03CFC90C384E0FEA3E0FF126162
:10328B0014788E7CC37D017E007F0412085E90BB98
:10329B00C5E0FFA3E090C392CFF0A3EFF0E4A3F05F
:1032AB00A374FFF0A3745EF0A374DBF07830E6FF39
:1032BB0008E6A3CFF0A3EFF0A374FFF0A374E0F044
:0D32CB00A37429F012252C7B017AC37988A9
:0132D80022D3
:103D3800782CE6FE08E6FF90C385E02FFF90C38449
:103D4800E03EFE90C386E0FCA3E0FD126114788893
:103D58007CC37D017E007F0412085E90C386E0FC70
:103D6800A3E0FDA3E0FAA3E0FBA3E0FFA3E090C378
:103D780094CFF0A3EFF0905EE3E49390C396F0A3A2
:103D88007407F0A374E0F090C384E0FEA3E0FF1290
:103D98002A9D90C384E0FEA3E0FF782EE6FC08E6A7
:103DA800FD126114788E7CC37D017E007F041208A9
:103DB8005E90BBB5E0FFA3E090C392CFF0A3EFF015
:103DC800A37403F0A374FFF0A3745EF0A374D9F096
:103DD800A3E4F0A37414F0A37407F0A374FFF0A392
:103DE8007421F012252C788E7CC37D017B017AC367
:103DF80079847E007F0412085E90BBB3E0FFA3E0E5
:103E080090C392CFF0A3EFF0E4A3F0A374FFF0A364
:103E1800745EF0A374DBF07830E6FF08E6A3CFF019
:103E2800A3EFF0A374FFF0A374E0F0A37420F012E2
:083E3800252C7B017AC3798877
:013E4000225F
:1048A100782CE6FE08E6FF90C385E02FFF90C384D5
:1048B100E03EFE905EE4E493FD90C387E02DFD9021
:1048C100C386E03400FC12611478887CC37D017ECC
:1048D100007F0412085E90C386E0FCA3E0FDA3E024
:1048E100FAA3E0FBA3E0FFA3E090C394CFF0A3EF12
:1048F100F0905EE3E49390C396F0A37407F0A37481
:10490100E0F090C384E0FEA3E0FF122A9D90C384EF
:10491100E0FEA3E0FF782EE6FC08E6FD12611478C4
:104921008E7CC37D017E007F0412085E90BBBBE0DC
:10493100FFA3E090C392CFF0A3EFF0A37401F0A323
:1049410074FFF0A3745EF0A374D9F0A3E4F0A37430
:104951001EF0A37407F0A374FFF0A37424F01225D2
:074961002C7B017AC3798869
:01496800222C
:103E4100782CE6FE08E6FF90C385E02FFF90C3843F
:103E5100E03EFE90C386E0FCA3E0FD126114788889
:103E61007CC37D017E007F0412085E90C386E0FC66
:103E7100A3E0FDA3E0FAA3E0FBA3E0FFA3E090C36E
:103E810094CFF0A3EFF0905EE3E49390C396F0A398
:103E91007407F0A374E0F090C384E0FEA3E0FF1286
:103EA1002A9D90C384E0FEA3E0FF782EE6FC08E69D
:103EB100FD126114788E7CC37D017E007F0412089F
:103EC1005E90BBBFE0FFA3E090C392CFF0A3EFF001
:103ED100A37401F0A374FFF0A3745EF0A374D9F08E
:103EE100A3E4F0A3741EF0A37407F0A374FFF0A37E
:103EF1007426F012252C788E7CC37D017B017AC358
:103F010079847E007F0412085E90BBBDE0FFA3E0D0
:103F110090C392CFF0A3EFF0E4A3F0A374FFF0A35A
:103F2100745EF0A374DBF07830E6FF08E6A3CFF00F
:103F3100A3EFF0A374FFF0A374E0F0A37425F012D3
:083F4100252C7B017AC379886D
:013F49002255
:104AE300782CE6FE08E6FF90C385E02FFF90C38491
:104AF300E03EFE90C386E0FCA3E0FD1261147888DB
:104B03007CC37D017E007F0412085E90C386E0FCB7
:104B1300A3E0FDA3E0FAA3E0FBA3E0FFA3E090C3BF
:104B230094CFF0A3EFF0905EE3E49390C396F0A3E9
:104B33007407F0A374E0F090C384E0FEA3E0FF12D7
:104B43002A9D90C384E0FEA3E0FF782EE6FC08E6EE
:104B5300FD126114788E7CC37D017E007F041208F0
:104B63005E90BBC1E0FFA3E090C392CFF0A3EFF050
:104B7300E4A3F0A374FFF0A3745EF0A374D9F0A3CD
:104B8300E4F0A3741EF0A37407F0A374FFF0A374FE
:0B4B930027F012252C7B017AC37988E3
:014B9E0022F4
:10463C00782CE6FE08E6FF90C50CE02FFF90C50B2A
:10464C00E03EFE905EE4E493FDC390C50EE09DFD5C
:10465C0090C50DE09400FC126114780F7CC57D01AF
:10466C007E007F0412085E90C50DE0FCA3E0FDA364
:10467C00E0FAA3E0FBA3E0FFA3E090C394CFF0A388
:10468C00EFF0905EE3E49390C396F0A37407F0A36D
:10469C0074E0F090C50BE0FEA3E0FF122A9D90C5DC
:1046AC000BE0FEA3E0FF90C511E0FCA3E0FD12615E
:1046BC0014788E7CC37D017E007F0412085E90BB53
:1046CC00C3E0FFA3E090C392CFF0A3EFF0E4A3F01C
:1046DC00A374FFF0A3745EF0A374DDF07830E6FFF2
:1046EC0008E6A3CFF0A3EFF0A374FFF0A374E0F0FF
:0D46FC00A37428F012252C7B017AC5790FDC
:01470900228D
:05215200E490BA4AF020
:1021570090C386F0A3F0905EE693FE740193FFC3ED
:1021670074209F90C389F074039E90C388F07833DE
:10217700120BED90C38A120C32E490C385F090C322
:1021870084F0E4FFFEFDFC90C38AE0F8A3E0F9A326
:10219700E0FAA3E0FBC3120BB6700302228490C3DC
:1021A7008AA3A3A3E05401FFEF700302226290C346
:1021B70088E0FCA3E0FD905EE6E493FE740193FFE4
:1021C70090C386E0FAA3E02FFBEA3EFA90C388E0CB
:1021D700F8A3E02FFFE83E90C3A5F0A3EFF090C36C
:1021E700851243E290C384E025E0242AF582E43493
:1021F700BAF583E0FEA3E0FF90C385E0FD7C001203
:10220700618C90C384E025E0242AF582E434BAF592
:1022170083E0FEA3E0FFC006C00790C386E0FEA3ED
:10222700E0FFA3E0FCA3E0FD126114789B7CC37D73
:10223700017E007F0412085ED007D0061262EA9082
:102247005EE6E493FE740193FF90C387E02FF0905E
:10225700C386E03EF090C384E004F090C38AE0FCBC
:10226700A3E0FDA3E0FEA3E0FF7801120BC790C334
:102277008A120C3290C385E004F002218990C3884A
:10228700E0FCA3E0FD905EE6E493FE740193FF1289
:1022970043C1905EE6E493FE740193FF90C387E029
:1022A7002FF090C386E03EF090C388E0FCA3E0FDEA
:1022B7001243C190C384E025E0242AF582E434BAAE
:1022C700F583E0FEA3E0FFE4FDFC12618C90C3847C
:1022D700E025E0242AF582E434BAF583E0FEA3E0A2
:1022E700FFC006C00790C386E0FEA3E0FFA3E0FCA3
:1022F700A3E0FD126114789B7CC37D017E007F04FF
:1023070012085ED007D0061262EAE490C384F0E4B4
:1023170090C3A5F0A3F0A3F0FBFAFDFCFFFE124368
:10232700EF90C384E004F0E0C3940640E290BC1F42
:0B23370074FFF0A37401F0A37403F026
:012342002278
:0501030090C38EEFF037
:10010800A3120C3E0000000090C393740AF090C341
:1001180093E0FFC394105070EF25E0242AF582E4A1
:1001280034BAF583E0FEA3E0FF74FFFDFC12618C96
:1001380090C393E0FF75F009A42477F582E5F034C5
:10014800BCF583E4F0A3F075F009EFA42479F582F7
:10015800E5F034BCF583E4F0A3F075F009EFA424CE
:100168007BF582E5F034BCF583E4F0A3F075F00983
:10017800EFA4247DF582E5F034BCF583E4F0A3F028
:1001880090C393E004F0808690C38EE0C394084047
:1001980003020443E490C393F090C393E0FBC39439
:1001A80008400302078DE47F01FEFDFC90C38EE04A
:1001B80075F009A42476F582E5F034BCF583E0F9FE
:1001C800F8120BDAEB25E025E024F4F582E4345E3E
:1001D800F583120C16EB5FFFEA5EFEE95DFDE85C55
:1001E800FC4D4E4F700302043A90C393E025E0257E
:1001F800E024F4F582E4345EF583120BF97832E6F4
:1002080025E025E024E8F582E4345EF583120C1637
:10021800EB5FFFEA5EFEE95DFDE85CFC90C38F12D0
:100228000C3290C38FE0F8A3E0F9A3E0FAA3E0FB57
:10023800C000C001E47F01FEFDFC90C38EE075F0B4
:1002480009A42476F582E5F034BCF583E0F9F812C8
:100258000BDA120BA9D001D000EB5FFFEA5EFEE9D2
:100268005DFDE85CFC90C38F120C32E4FFFEFDFCE0
:1002780090C38FE0F8A3E0F9A3E0FAA3E0FBC31270
:100288000BB6700302078DE490C394F090C3937487
:100298000AF090C38EE0FF7E00905EE6E493FA7465
:1002A8000193FBFDAC021208DC90C395EEF0A3EFBE
:1002B800F0EB25E0FFEA33FEC374209F90C398F06B
:1002C80074039E90C397F0E4FFFEFDFC90C38FE09B
:1002D800F8A3E0F9A3E0FAA3E0FBC3120BB670039E
:1002E80002078D90C38FA3A3A3E05401FFEF70030F
:1002F800020418A3E025E0242AF582E434BAF58341
:10030800E0FEA3E0FFC006C00790C395E0FEA3E0AF
:10031800FFA3E0FCA3E0FD126114789B7CC37D0180
:100328007E007F0412085ED007D0061262EA90C3EE
:1003380093E025E0242AF582E434BAF583E0FEA3AD
:10034800E0FF90C394E0FD7C0012618C90C395E0BF
:10035800FEA3E0FF90C393E0FD75F009A42477F5B0
:1003680082E5F034BCF583EEF0A3EFF090C397E09C
:10037800FAA3E0FB75F009EDA42479F582E5F034E1
:10038800BCF583EAF0A3EBF0905EE6E493FC74011D
:1003980093FDEF2DFFEE3CFE90C393E0FD75F00951
:1003A800A4247BF582E5F034BCF583EEF0A3EFF0EE
:1003B800905EE6E493FE740193FF90C398E02FFFEC
:1003C80090C397E03EFE75F009EDA4247DF582E523
:1003D800F034BCF583EEF0A3EFF090C394E0FF9007
:1003E800C393E075F009A42476F582E5F034BCF5F2
:1003F80083EFF0905EE6E493FE740193FFC390C32D
:1004080098E09FF090C397E09EF090C393E004F0CB
:1004180090C38FE0FCA3E0FDA3E0FEA3E0FF78011A
:10042800120BC790C38F120C3290C394E004F002F1
:1004380002CF90C393E004F00201A190C38EE0FFC5
:10044800D3940F401475F009EFA42476F582E5F0F3
:1004580034BCF583E0FF0256D7E490C393F090C311
:1004680093E0FBC39408400302078DE47F01FEFD7F
:10047800FC90C38EE075F009A42476F582E5F0348B
:10048800BCF583E0F9F8120BDAEB25E025E024F45B
:10049800F582E4345EF583120C16EB5FFFEA5EFE2C
:1004A800E95DFDE85CFC4D4E4F700302078478332C
:1004B800120C0990C393E025E025E024F4F582E4CA
:1004C800345EF583120BF9120BA9EB5FFFEA5EFEAF
:1004D800E95DFDE85CFC7833120C267833120C09D0
:1004E800C000C001E47F01FEFDFC90C38EE075F002
:1004F80009A42476F582E5F034BCF583E0F9F81216
:100508000BDAD001D000EB4FFFEA4EFEE94DFDE8D3
:100518004CFC7833120C2690C38EE075F009A424A5
:1005280076F582E5F034BCF583E0FF24FD500280C7
:10053800047832A6077832E625E025E024E8F5823B
:10054800E4345EF583120BF908120C09EF5BFFEE39
:100558005AFEED59FDEC58FC90C38F120C32E49012
:10056800C393F090C393E0FFC394085020EF25E0B5
:10057800242AF582E434BAF583E0FEA3E0FF74FF91
:10058800FDFC12618C90C393E004F080D6E490C324
:1005980094F090C393F090C395F0A3F0905EE69327
:1005A800FE740193FFC374209F90C398F074039E58
:1005B80090C397F0E4FFFEFDFC90C38FE0F8A3E042
:1005C800F9A3E0FAA3E0FBC3120BB67003020726F7
:1005D80090C38FA3A3A3E05401FFEF7003020704A5
:1005E800A3E025E0242AF582E434BAF583E0FEA3EB
:1005F800E0FFC006C00790C395E0FEA3E0FFA3E0BC
:10060800FCA3E0FD126114789B7CC37D017E007F12
:100618000412085ED007D0061262EA90C393E02560
:10062800E0242AF582E434BAF583E0FEA3E0FF90E3
:10063800C394E0FD7C0012618C90C395E0FEA3E0BA
:10064800FF90C393E0FD75F009A42477F582E5F0E7
:1006580034BCF583EEF0A3EFF090C397E0FAA3E083
:10066800FB75F009EDA42479F582E5F034BCF58337
:10067800EAF0A3EBF0905EE6E493FC740193FDEFDF
:100688002DFFEE3CFE90C393E0FD75F009A4247B9A
:10069800F582E5F034BCF583EEF0A3EFF0905EE66A
:1006A800E493FE740193FF90C398E02FFF90C397E3
:1006B800E03EFE75F009EDA4247DF582E5F034BC3A
:1006C800F583EEF0A3EFF090C394E0FF90C393E0BE
:1006D80075F009A42476F582E5F034BCF583EFF0D3
:1006E800905EE6E493FE740193FF90C396E02FF0CA
:1006F80090C395E03EF090C393E004F090C38FE080
:10070800FCA3E0FDA3E0FEA3E0FF7801120BC79075
:10071800C38F120C3290C394E004F00205BC90C35E
:1007280093E0FFC3940A505D75F009EFA42477F5B0
:1007380082E5F034BCF583E4F0A3F075F009EFA48A
:100748002479F582E5F034BCF583E4F0A3F075F084
:1007580009EFA4247BF582E5F034BCF583E4F0A32B
:10076800F075F009EFA4247DF582E5F034BCF5833B
:10077800E4F0A3F090C393E004F080A290C393E068
:0507880004F00204660C
:01078D002249
:102E070090C316EEF0A3EFF0AB05E025E0FF90C30B
:102E170016E033FE74222FF58274BC3EF583E0FC86
:102E2700A3E0FDAF03EF3395E0FE1208DC90C31774
:102E3700E025E0FB90C316E033FA74732BF5827438
:102E4700BB3AF583EE8FF012097990C316E0FEA323
:102E5700E07802C333CE33CED8F92428F58274BE86
:102E67003EF583E0FCA3E0FD74732BF58274BB3A57
:102E7700F583E0FEA3E0D39DEC6480F8EE648098D0
:102E8700401E90C317E025E0FF90C316E033FE74A1
:102E9700732FF58274BB3EF583ECF0A3EDF0805EF3
:102EA70090C316E0FCA3E0FDAE047802C333CE3333
:102EB700CED8F92426F58274BE3EF583E0FAA3E066
:102EC700FBED25E0FFEC33FE74732FF58274BB3EF8
:102ED700F583E0FEA3E0C39BEA6480F8EE64809884
:102EE700501C90C317E025E0FF90C316E033FE7433
:0E2EF700732FF58274BB3EF583EAF0A3EBF077
:102F050090C316E0FEA3E0FFEE7076EF24E4600FB9
:102F150014600C24F9600824FE6004240C7062EF30
:102F250025E0FFEE33FE74732FF58274BB3EF58307
:102F3500E0FEA3E0FFC394E8EE64809483400F7C39
:102F4500037DE812094390C318EEF0A3EFF090C398
:102F550017E025E0FF90C316E033FE74732FF5826A
:102F650074BB3EF583E0FEA3E0FFC39464EE64808A
:102F7500948040307C007D6412094390C318EE8034
:102F85001F90C317E025E0FF90C316E033FE74736E
:102F95002FF58274BB3EF583E0FFA3E090C318CF05
:102FA500F0A3EFF090C316A3E0FFA3E0FCA3E0FDC0
:032FB5000239D806
:02639200AD0755
:1063940090BB71E0FEA3E0FFED905F1493FD022E2D
:0163A40007F1
:0556D70090C399EFF003
:1056DC007E0090BB71E0FCA3E0FDB50705EEB504C0
:1056EC000122ED25E0FFEC33FE74CB2FF58274BB69
:1056FC003EF583E0FEA3E0FF782AE6FC08E6FD1207
:10570C0061AC90C399E025E024CBF582E434BBF581
:10571C0083E0FEA3E0FF12612B782AA60608A607F9
:10572C0090C399E025E024CBF582E434BBF583E00B
:10573C00FEA3E0FF7D1F7CF81261AC90C399E0FFE3
:08574C0090BB71E4F0A3EFF043
:015754002232
:103463007B017ABE798E90C38D7427F0A37410F01C
:103473007D647C001260CF7ABE79921260C37ABEFB
:10348300799690C38D7427F0A37410F07D64126055
:10349300CF7ABE799A90C38D7427F0A37410F0127B
:1034A30060CF7ABE799E1260C37ABE79A290C38D33
:1034B3007427F0A37410F07D011260CF7ABE79A651
:1034C3001260C37ABE79AA90C38D7427F0A37410D7
:1034D300F07D011260CF7ABE79AE90C38DE4F0A384
:1034E30074C8F07D141260CF7ABE79B290C38DE4B4
:1034F300F0A37450F07D1E1260CF7ABE79B690C3EC
:103503008D7427F0A37410F07D641260CF7ABE79B6
:10351300BA1260C37ABE79BE90C38D7427F0A374C8
:1035230010F07D641260CF7ABE79C290C38DE4F04F
:10353300A3743CF07D011260CF7ABE79C690C38D2F
:10354300E4F0A37464F01D1260CF7ABE79CA1260EE
:10355300C390BC56E4F0A37464F0A3E4F0A304F0B6
:10356300A3E4F0A37464F0A3E4F0A37464F0A3E40D
:10357300F0A304F0A3E4F0A304F0A3E4F0A304F0A5
:10358300A3E4F0A304F0A3E4F0A304F0A3E4F0A302
:103593007405F0A3E4F0A37464F0A3E4F0A304F0CF
:1035A300A3E4F0A37464F0A3E4F0A304F0A3E4F0B1
:0935B300A304F0A3E4F0A304F06A
:1035BC0090C384F0A374BBF0A37473F0E4A3F090F5
:1035CC00C384E0FBA3E475F00212098FA9F0FAE4BE
:1035DC0075F00A120A4090C387E004F0E0B42ADFC9
:0135EC0022BC
:1028E30090C37BE4F0A37428F0A37402F0A37426CE
:1028F300F01263FE123463E490C37FF074FFFBFABB
:10290300E4FDFCFFFE12404B90C37FE025E0242A48
:10291300F582E434BAF583EEF0A3EFF090C37FE0E1
:1029230004F0E0C3941040D412215290BB71E4F040
:04293300A3741EF07B
:10293700782C76000876967830760008762390C350
:102947007BE0FEA3E0FFA3E0FCA3E0FD12611478A7
:10295700847CC37D017E007F0412085E124A261222
:1029670053C078807CC37D017E007F0412085E78A7
:10297700847CC37D017B017AC379807E007F04124A
:10298700085E123C2F78807CC37D017E007F041295
:10299700085E78847CC37D017B017AC379807E00E1
:1029A7007F0412085E1247D878807CC37D017E00C1
:1029B7007F0412085E78847CC37D017B017AC3792A
:1029C700807E007F0412085E12314B12544A7880D1
:1029D7007CC37D017E007F0412085E78847CC37D02
:1029E700017B017AC379807E007F0412085E123D65
:1029F700381253C078807CC37D017E007F041208A3
:102A07005E78847CC37D017B017AC379807E007FF9
:102A17000412085E1248A178807CC37D017E007F86
:102A27000412085E78847CC37D017B017AC37980B8
:102A37007E007F0412085E123E4112544A78807C61
:102A4700C37D017E007F0412085E78847CC37D010C
:102A57007B017AC379807E007F0412085E124AE305
:0D2A670078807CC37D017E007F0412085E34
:102A7400E490C3A5F0A374FFF0A3745EF0A374DB29
:102A8400F0A37440F0A374F8F0A3741FF07BE77A0A
:092A940003E4FDFCFFFE023759CA
:105DD10004FF031FF210F1F0F1D0F1B0F190F17076
:105DE100F150F130F110F0F0F0D0F0B0F090F0702F
:105DF100F050F030F500F4D0F4A0F470F440F41059
:105E0100F3E0F3B0F380F350F320F2F0F2C0F2903C
:045E1100F260F23019
:105F430041C5370041C5350041C5380041C536005C
:0B610900E0FEA3E0FFA3E0FCA3E0FD2C
:1061140090C3C2EEF0A3EFF0AF05A3ECF0A3EFF051
:066124007B017AC379C281
:01612A002252
:1063A500E490C537F090C535F090C538F090C53606
:0263B500F022D4
:0C63FE001261EB125BD2125C1E02620AFC
:09602300AF03AE02E0FCA3E0FDB6
:10602C00D3905DD17401939FE4939E4010D3905D07
:10603C00D37401939DE4939C40037F01227F002243
:0E456A0090C39CEEF0A3EFF0A3ECF0A3EDF0F5
:1045780012602CEF600990C3A2126023EF7004E46C
:10458800FEFF2290C3A4E0FFA3E090C3AACFF0A34C
:10459800EFF090C39CE0FFA3E090C3ACCFF0A3EF93
:1045A800F090C39EE0FFA3E090C3AECFF0A3EFF07E
:1045B800AF03A3EAF0A3EFF090C3A2E0FFA3E0905B
:1045C800C3B2CFF0A3EFF0A374FFF0A3E4F090C35D
:1045D800A6F0A3740AF07B017AC379A690C3C7E456
:0C45E800F0A37402F07F007E30122FB8A8
:1045F40090C538E0FF7E007C007D051208DCEF24C6
:1046040002FFEE3430FE90C3B6F0A3EFF090C5384D
:10461400E004F0E0FD90C3A8ECF0A3EDF07B017A98
:10462400C379AA90C3C7E4F0A37406F0122FB8901C
:07463400C3B6E0FEA3E0FFA6
:01463B00225C
:1061EB00E490C384F0A3F090C538F07B017AC379B7
:0F61FB008490C3C7F0A304F07F007E30022FB85A
:0E42E80090C39CEEF0A3EFF0A3ECF0A3EDF07A
:1042F60012602CEF600990C3A2126023EF7004E4F1
:10430600FEFF2290C39CE0FFA3E090C3AACFF0A3D8
:10431600EFF090C39EE0FFA3E090C3ACCFF0A3EF15
:10432600F0AF03A3EAF0A3EFF090C3A2E0FFA3E08F
:1043360090C3B0CFF0A3EFF090C3A4E0FFA3E0904A
:10434600C3B2CFF0A3EFF0A374FFF0A3E4F090C3E1
:06435600A6F0A37404F0C0
:10435C0090C537E0FF7E007C007D051208DCEF2461
:10436C0002FFEE341090C3B6F0A3EFF090C537E027
:10437C0004F0E0FF90C3A8E4F0A3EFF07B017AC354
:10438C0079A690C3C7E4F0A37402F07F007E1012EC
:10439C002FB890C3B6E0FEA3E0FF7B017AC379AAE5
:1043AC0090C3C7E4F0A37406F0122FB890C3B6E024
:0443BC00FEA3E0FF7D
:0143C00022DA
:10620A00E490C384F0A3F090C537F07B017AC37998
:0F621A008490C3C7F0A304F07F007E10022FB85A
:102A9D0090C38EEEF0A3EFF0A3ECF0A3EDF0A3EA5C
:042AAD00F0A3EBF0B7
:102AB10090C396E0C31390C399F090C38EE06A70FF
:102AC10003A3E06B601790C394E0FEA3E0FF90C303
:0D2AD10090E06E7003A3E06F6003022BA87D
:102ADE0090C392E0FEA3E0FF90C38EE0FCA3E0FD66
:102AEE00D39FEC9E401890C39AECF0A3EDF090C3E8
:102AFE008EEEF0A3EFF090C392ECF0A3EDF090C346
:102B0E0094E0FEA3E0FF90C390E0FCA3E0FDD39F12
:102B1E00EC9E401890C39AECF0A3EDF090C390EEAB
:0C2B2E00F0A3EFF090C394ECF0A3EDF0E6
:102B3A0090C399E0FD7C00C390C38FE09DFF90C3D2
:102B4A008EE09CFEF0A3EFF0C390C391E09DF0905D
:102B5A00C390E09CF090C393E02DF090C392E03CC8
:102B6A00F090C395E02DF090C394E03CF0C007903C
:102B7A00C390E0FCA3E0FDA3E0FAA3E0FBA3E0FF1F
:102B8A00A3E090C3A2CFF0A3EFF090C397E0FFA316
:0E2B9A00E090C3A4CFF0A3EFF0D0070242E812
:102BA80090C399E0FFFD7C0090C38FE02DF090C3A7
:102BB8008EE03CF0C390C391E09DF090C390E09C00
:102BC800F07E00C390C393E09FF090C392E09EF024
:102BD800C390C395E09FF090C394E09EF0E490C347
:102BE8009AF090C396E0FF90C39AE0D39F50599013
:102BF800C390E0FCA3E0FDA3E0FAA3E0FBA3E0FFA1
:102C0800A3E090C3A2CFF0A3EFF090C397E0FFA397
:102C1800E090C3A4CFF0A3EFF090C38EE0FEA3E052
:102C2800FF12456A90C391E004F0700690C390E0EB
:102C380004F090C395E004F0700690C394E004F0AB
:082C480090C39AE004F0809AA9
:032C5000E4FEFFA0
:012C5300225E
:10622900E490C542F0A3F090C537F07B017AC579B7
:0F6239004290C3C7F0A304F07F007E10022FB87D
:10404B0090C384EEF0A3EFF0A3ECF0A3EDF0A3EAA2
:04405B00F0A3EBF0F3
:10405F0090C535E0C394104004E4FEFF2290C38462
:10406F00E0FEA3E0FFA3126027EF7003FEFF229094
:10407F00C384126109788C7CC37D017E007F04129A
:10408F00085EE490C390F0A3F0A3F0A37429F0E4CA
:10409F00A3F0A3F0A3F0A37429F0A37424F0A374E6
:1040AF0001F0A3F0A374FFF0E4A3F0A304F090C514
:1040BF0035E025E024D5F582E4345DF58374019372
:1040CF00240AFFE4933400FE90C38AF0A3EFF07B41
:1040DF00017AC3798890C3C7E4F0A304F0122FB814
:1040EF0090C535E025E024D5F582E4345DF583E411
:1040FF0093FE740193FF90C39EEEF0A3EFF07B014C
:10410F007AC3798A90C3C7E4F0A3740AF0122FB868
:0E411F0090C535E004F090C39EE0FEA3E0FFE3
:01412D00226F
:105BD20074FF90C385F0A3F0E490C535F090C384C0
:105BE200F090C384E0FFC394105030EF25E024D539
:105BF200F582E4345DF583740193240AFFE493345F
:105C020000FE7B017AC3798590C3C7E4F0A304F058
:0B5C1200122FB890C384E004F080C69D
:015C1D002264
:10618C0090C399ECF0A3EDF0EF240AFFE43EFE7B04
:10619C00017AC3799990C3C7E4F0A304F0022FB835
:1062EA00EF2401FFE43EFE7B017AC3799B90C3C78A
:0962FA00E4F0A37402F0022FB8D5
:1037590090C39FEEF0A3EFF0A3ECF0A3EDF0A3EA82
:04376900F0A3EBF0EE
:10376D0090C536E0C394104004E4FEFF2290C3A33D
:10377D00E0FEA3E0FFC3940AEE9400500890C3B797
:10378D007401F08031C3EF9464EE9400500890C33F
:10379D00B77402F08020C3EF94E8EE9403500890C4
:1037AD00C3B77403F0800FC3EF9410EE9427500647
:1037BD0090C3B77404F090C3A6E0FBA3E0FAA3E0B6
:1037CD00F912633190C3BAEFF090C39F126109787B
:1037DD00AE7CC37D017E007F0412085E90C3AAE01B
:1037ED00FFA3E090C3B2CFF0A3EFF0E4A3F090C33A
:1037FD00A9E090C3B5F0E4A3F090C3A5E090C3B8E1
:10380D00F0E4A3F090C3A6E0F9A3E0FAA3E090C31F
:10381D00C5C9F0A3EAF0A3E9F0A3E4F0A37405F0A1
:09382D007B017AC379BB1258B685
:1038360090C536E025E024F5F582E4345DF583E4B1
:1038460093FE740193FF90C3C0EEF0A3EFF090C512
:1038560036E004F0EF240AFFE43EFE90C3ACF0A38A
:10386600EFF07B017AC379A390C3C7E4F0A304F019
:10387600122FB890C3C0E0FEA3E0FF7B017AC379A4
:10388600AC90C3C7E4F0A3740AF0122FB890C3C07B
:05389600E0FEA3E0FFCD
:01389B00220A
:105C1E0090C3857405F0A3E4F090C536F090C3846C
:105C2E00F090C384E0FFC394105030EF25E024F5CC
:105C3E00F582E4345DF5837401932401FFE493341B
:105C4E0000FE7B017AC3798590C3C7E4F0A304F00C
:0B5C5E00122FB890C384E004F080C651
:015C69002218
:0E470A0090C31FEEF0A3EFF0A3ECF0A3EDF0D0
:1047180090C321E0FEA3E0FFC3940AEE9400500882
:10472800A3E4F0A304F0803AC3EF9464EE9400503D
:104738000B90C323E4F0A37402F08026C3EF94E83F
:10474800EE9403500B90C323E4F0A37403F080129B
:10475800C3EF9410EE9427500990C323E4F0A37498
:0247680004F05B
:10476A0090C320E02405FF90C31FE03400FE7B01C4
:10477A007AC3792590C3A1E4F0A37402F012272327
:10478A0090C323A3E0FF90C327E02F90C326F090A5
:10479A00C320E02405FF90C31FE03400FE7B017AAA
:0F47AA00C3792590C3C7E4F0A37402F0122FB8AF
:1047B90090C320E0240AFF90C31FE03400FE7B0170
:0F47C9007AC3792190C3C7E4F0A304F0022FB89C
:1061AC0090C39AECF0A3EDF0EF2403FFE43EFE7BEA
:1061BC00017AC3799A90C3C7E4F0A304F0022FB814
:10630300EF2401FFE43EFE7B017AC3792190C3C7EA
