:0B00F800FFFF4457494E5435023A57B1
:0E2273007B0190C06FE4F0A304F07F147E00A6
:1022810090C06AEEF0A3EFF0A3EBF0A3EAF0A3E9AC
:01229100F05C
:10229200E490C071F0A3F0A3F0A3F0A3F0A3F0A325
:1022A200F0A3F090C06FE0FAA3E0FB4A70030224AF
:1022B2004090C06AE0FEA3E0FFC3E49FFFE49EFEFD
:1022C200E4FCFD90C079120AEAAF03AE02E4FCFD21
:1022D20090C079E0F8A3E0F9A3E0FAA3E0FBC3120F
:1022E2000A8A501190C079A3A3E0FFA3E090C06FC7
:1022F200CFF0A3EFF090C06AE0FCA3E0FDECC313C3
:10230200FFED1390C071CFF0A3EFF0ED5401FFA3E6
:10231200E4F0A3EFF0C2AFE4F5F190C071E0FCA3EA
:10232200E0FDECF5F28DF375F40175F8AF30FCFDCC
:1023320090C073E07002A3E0603DD2FE20FEFD90EB
:10234200C06CE0FBA3E475F001120870A9F0FAE595
:10235200FC1207BF90C06CE0FBA3E475F001120809
:1023620070A9F0FAE5FD1207BF90C070E024FFF0FB
:1023720090C06FE034FFF090C06FE0FCA3E0FDEC92
:10238200C313FFED1390C075CFF0A3EFF0ED54012E
:10239200FFA3E4F0A3EFF090C07574FFF5F012080C
:1023A2007045F0605BD2FE20FEFD90C06CE0FBA3A6
:1023B200E475F001120870A9F0FAE5FA1207BF906D
:1023C200C06CE0FBA3E475F001120870A9F0FAE515
:1023D200FB1207BF90C06CE0FBA3E475F00112088A
:1023E20070A9F0FAE5FC1207BF90C06CE0FBA3E411
:1023F20075F001120870A9F0FAE5FD1207BF809787
:1024020090C077E07002A3E0602FD2FE20FEFD9024
:10241200C06CE0FBA3E475F001120870A9F0FAE5C4
:10242200FA1207BF90C06CE0FBA3E475F00112083A
:0E24320070A9F0FAE5FB1207BFE4F5F8D2AF8F
:012440002279
:1025F40090C145EEF0A3EFF0A3EBF0A3EAF0A3E95A
:01260400F0E5
:10260500E490C14CF0A3F0A3F0A3F0A3F0A3F090E5
:10261500C14AE07002A3E0700302278690C145E03D
:10262500FEA3E0FFC3E49FFFE49EFED390C14BE011
:102635009F90C14AE09E4005EEF0A3EFF090C145A2
:10264500E0FAA3E0FBEAC313FCEB13FDEB5401FF37
:1026550090C14CE4F0A3EFF0C2AFE4F5F1ECF5F274
:10266500AF058FF375F40175F88330FCFD90C14C0F
:10267500E07002A3E0603D90C147E0FBA3E475F084
:1026850001120870A9F0FA120779F5FC90C147E02C
:10269500FBA3E475F001120870A9F0FA120779F5A9
:1026A500FDD2FE20FEFD90C14BE024FFF090C14A13
:1026B500E034FFF090C14AE0FCA3E0FDECC313FF5A
:1026C500ED1390C14ECFF0A3EFF0ED5401FFA3E45D
:1026D500F0A3EFF075F88F90C14E74FFF5F0120876
:1026E5007045F0605B90C147E0FBA3E475F0011213
:1026F5000870A9F0FA120779F5FA90C147E0FBA333
:10270500E475F001120870A9F0FA120779F5FB904B
:10271500C147E0FBA3E475F001120870A9F0FA12B5
:102725000779F5FC90C147E0FBA3E475F0011208B9
:1027350070A9F0FA120779F5FDD2FE30FE9980FBFB
:1027450090C150E07002A3E0603275F88C90C147EB
:10275500E0FBA3E475F001120870A9F0FA120779FD
:10276500F5FA90C147E0FBA3E475F001120870A9E2
:10277500F0FA120779F5FBD2FE20FEFDE4F5F8D25A
:01278500AFA4
:012786002230
:10447900C2AFC2D3C2D4E4F58E75C870F5CDF5CC00
:1044890075CBBC75CACDD2ADD2C8F59375940175FB
:10449900950275C960F5F875F901F5A8F5B8F59AA9
:0744A900F5A9F5B90245AFCA
:1045AF007F007E80E4F51EF51F0FEFAC0670010E45
:1045BF0014F5828C83E4F0051FE51F7002051EB40D
:0745CF0000E7E51EB480E2E5
:0145D60022C2
:1046480090C3C0120AF655AA5AA57B017AC379C04D
:1046580090C14AE4F0A37402F07F047E000225F4BE
:044753007FF47E0170
:10475700EF4E6010E4FD0DEDC3941840F9EF1F70A4
:04476700EF1E80ECD5
:01476B00222B
:103ECA0090C365745AF0A374A5F0A3EEF0A3EFF0C3
:103EDA00A3EBF0A3EDF090C364E0600A90C36BE437
:103EEA00F0A304F08007E490C36BF0A3F07B017A9F
:103EFA00C3796590C14AE4F0A37404F07FB07E00F0
:103F0A001225F41247537B017AC3796590C06FE496
:103F1A00F0A304F07FB07E0012228190C365E070A6
:013F2A00E2B4
:013F2B002273
:05443A0090C3ACEFF09F
:10443F007B017AC379AD90C06FE4F0A37402F07F73
:10444F00A07E0012228190C3ACE0A3F0A37401F010
:10445F00E490C3B0F07B017AC379AD90C14AF0A369
:0A446F007402F07FA07E000225F425
:102CE40090C1C9E0FB90C38EF090C1CAE0FCA3E0A0
:102CF400FDA3E0FEA3E0FF7810120A9B90C38FEFC0
:102D0400F090C1CAE0FCA3E0FDA3E0FEA3E0FF78DD
:102D140008120A9B90C390EFF090C1CAA3A3A3E04A
:102D240090C391F090C1CEE0FCA3E0FDEC90C3927F
:102D3400F0A3EDF090C1D0E0FCA3E0FDEC90C394CF
:102D4400F0A3EDF0EBB4A52890C1D2E0FBA3E0FA28
:102D5400A3E04A4B601A90C1CEE0FEA3E0FF90C10D
:102D6400D2A3A3E0F990C14AECF0A3EDF01225F44C
:102D74007B017AC3798E90C14AE4F0A37404F07F96
:102D8400087E001225F41247537B017AC3798E9092
:102D9400C06FE4F0A304F07F087E0012228190C388
:102DA4008EE070E290C1C9E0B45A2F90C1D2E0FB2A
:102DB400A3E0FAA3E04A4B602190C1CEE0FEA3E079
:102DC400FF90C1D2A3A3E0F990C1D0E0FDA3E090AD
:102DD400C06FCDF0A3EDF01222817F327E0002425B
:012DE400DB13
:102BBB0090C36D745AF090C1B9E090C36EF064018C
:102BCB00706790C1BAA3E090C36FF090C1BCE0FCFA
:102BDB00A3E0FDA3E0FEA3E0FF7810120A9B90C3D5
:102BEB0070EFF090C1BCE0FCA3E0FDA3E0FEA3E01E
:102BFB00FF7808120A9B90C371EFF090C1BCA3A39E
:102C0B00A3E090C372F090C1C0E0FCA3E0FDEC9098
:102C1B00C373F0A3EDF090C1C2E0FCA3E0FDEC9018
:102C2B00C375F0A3EDF0E4803B90C1B9E064027092
:102C3B0037A3E0FCA3E0FDEC90C36FF0A3EDF090A5
:102C4B00C1C0E0FCA3E0FDEC90C371F0A3EDF090EC
:102C5B00C1C7E0FCA3E0FDEC90C373F0A3EDF0E47F
:102C6B00A3F0A3F0A3F0A3F07B017AC3796D90C11D
:102C7B004AE4F0A37406F07FAA7E001225F41247F3
:102C8B00537B017AC3796D90C06FE4F0A304F07F9E
:102C9B00AA7E0012228190C36DE070E290C1B9E070
:102CAB00B4012F90C1C4E0FBA3E0FAA3E04A4B6050
:102CBB002190C1C0E0FEA3E0FF90C1C4A3A3E0F943
:102CCB0090C1C2E0FDA3E090C06FCDF0A3EDF01278
:092CDB0022817F327E000242DBFF
:0F4811007AC379CB12227390C3CBE0FEA3E0FFF2
:014820002275
:083C230090C3A6EEF0A3EFF040
:103C2B00A3745AF0A37401F090C3A6E0FCA3E0FDCB
:103C3B00EC90C3AAF0A3EDF07B017AC379A890C1F5
:103C4B004AE4F0A37402F07F847E001225F412473D
:103C5B00537B017AC379A890C06FE4F0A37402126E
:103C6B00227C90C3A6E0FEA3E0FFA3E0B506DFA392
:103C7B00E0B507DAE490C3A8F0A3F0A3F0A3F07BC0
:103C8B00017AC379A890C14AF0A37402F07F167E23
:043C9B00000225F40A
:0842DB0090C06AEEF0A3EFF0C1
:1042E300E4A3F0A3F090C06AE0FEA3E0FFC390C094
:1042F3006DE09F90C06CE09E5025E4FBFA7F017E49
:10430300001247570BBB00010ABA01F1BB2CEE9018
:0F431300C06DE004F070CE90C06CE004F080C686
:014322002278
:10432300EF14601814602314602E24037039740191
:10433300A805088002C333D8FC42B7227401A8053C
:10434300088002C333D8FC42BC227401A80508804C
:1043530002C333D8FC42BD22AF057401A80708800D
:0843630002C333D8FC42BE2264
:10424600EF1460191460251460312403703D740165
:10425600A805088002C333D8FCF452B7227401A81B
:1042660005088002C333D8FCF452BC227401A805A9
:10427600088002C333D8FCF452BD22AF057401A8EE
:0C42860007088002C333D8FCF452BE22AB
:1037CD00EF14602D14604A146067240360030238FF
:1037DD005FEB600E7401A805088002C333D8FC426C
:1037ED0080227401A805088002C333D8FCF45280EE
:1037FD0022EB600E7401A805088002C333D8FC4289
:10380D0090227401A805088002C333D8FCF45290AD
:10381D0022EB600E7401A805088002C333D8FC4268
:10382D00A0227401A805088002C333D8FCF452A06D
:10383D0022EB600E7401A805088002C333D8FC4248
:10384D00B022AF057401A807088002C333D8FCF479
:03385D0052B02244
:1040AB00EF14601A146027146034240370427401F7
:1040BB00A805088002C333D8FC5580FE80347401F8
:1040CB00A805088002C333D8FC5590FE80247401E8
:1040DB00A805088002C333D8FC55A0FE8014AF0599
:1040EB007401A807088002C333D8FC55B0FE8002C8
:0440FB00E4FEAF062A
:0140FF00229E
:102EC3007B017AC3799690C06FE4F0A37404F07F1A
:102ED300167E0012228190C396E0645A6003022F8B
:102EE30088A3E0FFB40134A3E0FCA3E0FD90C1DAC2
:102EF300ECF0A3EDF090C1E0ECF0A3EDF090C39AF9
:102F0300E0FCA3E0FD90C1DEECF0A3EDF090C20580
:102F1300ECF0A3EDF0A37401F08030EFB40326903E
:102F2300C1D8E0FFA3E090C205CFF0A3EFF090C1BA
:102F3300D6E0FFA3E090C1E0CFF0A3EFF090C2078B
:102F43007402F0800690C2077403F090C398E0FF08
:102F5300A3E090C1D6CFF0A3EFF090C39AE0FFA314
:102F6300E090C1D8CFF0A3EFF0E490C396F07B01DB
:102F73007AC3799690C14AF0A37402F07F167E005B
:102F83001225F4801190C397E0FF64026003EF7091
:0B2F930005E490C207F090C207E0FFC9
:012F9E002210
:08208A0090C379EEF0A3EFF022
:10209200122EC390C37BEFF0700690C1D5F0FF22E1
:1020A20090C37BE0B4010F7AC179DC12227390C134
:1020B200D57401F0FF2290C1DCE0FEA3E0FF90C3E3
:1020C20079E06E7003A3E06F60037F012290C1D6B6
:1020D200E0FEA3E0FFC390C1DBE09FFF90C1DAE026
:1020E2009E90C208F0A3EFF090C208E0FCA3E0FDCE
:1020F200FFAE041207F3EE3395E0FDFC90C37C12B1
:102102000AEA90C1D8E0FEA3E0FFC390C1DFE09FDE
:10211200FF90C1DEE09E90C20AF0A3EFF090C20AE7
:10212200E0FCA3E0FDFFAE041207F3EE3395E0FD01
:10213200FC90C380120AEA90C37BE064027079903B
:10214200C1D5E06401706B7F09FEFDFC90C380E0A5
:10215200F8A3E0F9A3E0FAA3E0FBC3120A8A501A3B
:10216200E47F09FEFDFC90C37CE0F8A3E0F9A3E064
:10217200FAA3E0FBC3120A8A4038E47F02FEFDFCA8
:1021820090C380E0F8A3E0F9A3E0FAA3E0FB120910
:102192006D90C37CE0F8A3E0F9A3E0FAA3E0FBD3DF
:1021A200120A8A90C1D550057403F0FF227404F01C
:1021B200FF2290C1D5E0FF2290C1D5E06401706E8C
:1021C2007F09FEFDFC90C380E0F8A3E0F9A3E0FAEA
:1021D200A3E0FBC3120A8A501AE47F09FEFDFC90B9
:1021E200C37CE0F8A3E0F9A3E0FAA3E0FBC3120A80
:1021F2008A4038E47F02FEFDFC90C380E0F8A3E051
:10220200F9A3E0FAA3E0FB12096D90C37CE0F8A306
:10221200E0F9A3E0FAA3E0FBD3120A8A90C1D550F9
:10222200057403F080087404F080037F022290C1D9
:10223200D5E0B4031E90C1D8E0FEA3E0FFC390C274
:1022420006E09FFF90C205E09E90C20EF0A3EFF061
:102252007F052290C1D6E0FEA3E0FFC390C1E1E07A
:102262009FFF90C1E0E09E90C20CF0A3EFF07F06CA
:012272002249
:043E6600021800003E
:10470200758911E4F58CF58AC28CF51AF51C43897A
:0C47120001758CBC758ACDD2A9D28C2216
:03000B00023D1B98
:0D3D1B00C0E0C0D075D000C000C006C007D9
:103D2800C2AF758CBC758ACD051B751D0074017EEC
:103D380000A81D088005C333CE33CED8F9FFEF5550
:103D48001C602DE51D25E02408F808E6161870010A
:103D580016E51D25E02408F8E6FE08E64E7011AFCA
:103D68001D04A807088002C333D8FC421AF4521C69
:093D7800051DE51DB408B6D2AF2B
:0B3D8100D007D006D000D0D0D0E03238
:03002B000247C5C4
:1047C500C0E0C2AFC2C6D2AF0519E519700205181F
:0347D500D0E032FF
:10462600C2AF7401A807088002C333D8FCFE421C3F
:10463600EF25E02408F8A60408A605EEF4521AD2DF
:02464600AF22A1
:10479B00C2AF7401A807088002C333D8FCF4521CC3
:0547AB00521AD2AF22FA
:1047D800C2AF7401A807088002C333D8FC551AFF7A
:0247E800D2AF4E
:0147EA0022AC
:0B46E500D2B37F051246F0D2B27F0571
:1046F000EF600EE4FE0EC3EE648094B240F71F80BC
:01470000EFC9
:014701002295
:0448620053BEF72228
:0448660043BE082223
:10473900124866D2B3D2B27F0F1246F0C2B37F0FCE
:0A4749001246F0C2B27F0F0246F0E4
:0A4668007F0F1244C0AF031244C0DC
:10467200124866C2B3D2B27F0F1246F0D2B37F0F96
:064682001246F00248623E
:0F482100124866C2B31246E7C2B27F050246F0E4
:0D483F001248661246E5C2B27F050246F03F
:104688001248621246E5E4FD30B30A7F051246F08F
:0F4698000DEDB432F3C2B27F051246F002486650
:1044B0001244C0E0FF1244C01246721247397F64B2
:0244C000AD0746
:1044C200124866E4FCED30E704D2B38002C2B3EDD9
:1044D20025E0FD1246E7C2B27F051246F00CECB4AD
:0544E20008E30246881A
:0D451C007F0F1244C01247397F651244C062
:10452900124862E4FC1246E7ED25E0FD30B305448C
:1045390001FD8004ED54FEFDC2B27F051246F00C68
:06454900ECB408E1AF052F
:01454F002249
:10312E001244BB12451CAB07124821124529AA07AF
:10313E0012483F124672EB20E0030231DC548460E9
:10314E000AEB547BFB1244BB124668EB54FEFBEABF
:10315E0030E713547FFA1244BB7F101244C0AF0203
:10316E001244C0124672EA4480FA1244BB7F101217
:10317E0044C0AF021244C0124672EB4484FB1244A8
:10318E00BB7F0F1244C0AF031244B5E4FF1244C01C
:10319E00E4FF1244C0E4FF1244C07F801244C07F9B
:1031AE00051244C07F011244C07F011244C07F212A
:1031BE001244C0124672EB547BFBEA547FFA12445F
:0E31CE00BB7F101244C0AF021244B512466817
:0131DC0022D0
:1033E8001244BB12451C90C3CDEFF0124821124580
:1033F80029A3EFF012483F124672E04480F01244CD
:10340800BB7F101244C0E0FF1244C012467290C342
:10341800CDE04484F01244BB7F0F1244B0E4FF12A5
:1034280044C0900006120792FF1244C09000051293
:103438000792FF1244C0900004120792FF1244C082
:10344800900003120792FF1244C0900002120792E4
:10345800FF1244C0900001120792FF1244C01207E5
:1034680079FF1244C012467290C3CDE0547BF0A39A
:10347800E0547FF01244BB7F101244B07F0F124417
:0C348800C090C3CDE0FF1244C0024672A9
:103071001244BBE4FF1244C01247397F651244C0B9
:103081007B0612452974842BF582E434C3F583EF62
:10309100F0124821DBEC12452990C384EFF012486D
:1030A1003F12467290C388E0547FF0E4FB74842B96
:1030B100F582E434C3F583E0FFC4540FFE90C38C62
:1030C100F0EF540FFFA3F0EE75F00AA42FFF748404
:1030D1002BF582E434C3F583EFF00BEBB403CE7B25
:1030E1000474842BF582E434C3F583E0FFC4540FE8
:1030F100FE90C38CF0EF540FFFA3F0EE75F00AA41D
:103101002FFF74842BF582E434C3F583EFF00BEBCE
:10311100B407CEE490C38BF07B017AC3798490C16C
:0D3121004AF0A37404F07F107E000225F434
:1047EB00EF75F00A84C454F0FEEF75F00A84E5F01F
:0347FB004EFF224C
:0F483000EFC4540F75F00AA4FEEF540F2EFF22B1
:0738F10090C3B1EBF0AB073F
:1038F800ED64016004EDB4021BED240CFEE433908A
:10390800C3B2F0A3CEF0EB24FFFEE434FFA3F0A390
:10391800CEF08012AF0590C3B2E4F0A3EFF0AF038E
:10392800A3E4F0A3EFF090C3B3E02401FF90C3B287
:10393800E03400FE7C007D1A1207F37D0A120805A8
:10394800AC06AD0790C3B4E0FAA3E0FBAE02780280
:10395800CEC313CE13D8F92BFFEA3ECF2DCF3CFEB2
:1039680090C3B1E07C002FFFEC3ECF24DCCF34FFC6
:08397800FE7D07120805AF05F2
:013980002224
:1031DD007B017AC3794190C06FE4F0A37404F07F52
:1031ED009C7E0012228190C341E0645A600302323A
:1031FD008BA3E064A5600302328BA3E0FF1247EBC3
:10320D0090C349EFF090C344E0FF1247EB90C34ADF
:10321D00EFF090C345E0FF1247EB90C34BEFF090FA
:10322D00C343E0FFA3E0FDA3E0FB1238F190C34CD4
:10323D00EFF090C346E0FF1247EB90C34DEFF04423
:10324D0080F090C347E0FF1247EB90C34EEFF09034
:10325D00C348E0FF1247EB90C34FEFF07B017AC3F9
:10326D0079491233E8E490C341F0A3F07AC3794170
:0E327D0090C14AF0A304F07F9C7E001225F45D
:01328B002220
:10476C007D027F031243237D037F03124323123008
:09477C0071E4F518F5190231DDB4
:1041F800AB07AA06A905A8047F007E387D317C009C
:104208001209F8C3E49F90C070F074049E90C06FC8
:10421800F043C9407D04E4FF1243237D05E4FF1207
:10422800424643803075D88075985090C06FE0FC46
:0D423800A3E0FDECF5BA8DAA43A810D2ACAE
:014245002256
:10429200AB07AA06A905A8047F007E707D627C0098
:1042A2001209F8C3E49F90C070F074049E90C06F2E
:1042B200F043C9207D06E4FF1243237D07E4FF1289
:1042C20042464380C0759B9090C06FE0FCA3E0FD26
:0842D200ECF5BB8D9D439A0140
:0142DA0022C1
:1045D700759680759780AB07AA06A905A8047F0082
:1045E7007EC07D897C011209F8AD07AC06ECF5D9D0
:0745F700AF058FE743B80C8C
:0145FE00229A
:1043F90075A78075AB80AB07AA06A905A8047F003D
:104409007EC07D897C011209F8AD07AC06ECF5AEDA
:10441900AF058FAF43B830E490A01BF0A3F0A3F031
:10442900A3F090A023F090A01FF0A3F0A3F0A3F0B5
:014439002260
:10415500EF14601B1460291460372403704490C069
:104165006BE0FCA3E0FDA3E0FEA3E0FF0241F890B5
:10417500C06BE0FCA3E0FDA3E0FEA3E0FF024292DA
:1041850090C06BE0FCA3E0FDA3E0FEA3E0FF0245C9
:10419500D790C06BE0FCA3E0FDA3E0FEA3E0FF1217
:0341A50043F922B9
:1024410090C39EEFF0A3ECF0A3EDF0A3EBF0A3EAB1
:04245100F0A3E9F01B
:10245500C2AFE4A3F0A3F090C39FE0FEA3E0FFC3E7
:1024650090C3A5E09F90C3A4E09E40030225199068
:10247500C3A1E0FBA3E475F001120870A9F0FA12FC
:102485000779FF90C39EE0FE75F009A42400F5824C
:10249500E5F03488F583EE75F008A42583F583E02F
:1024A500FCA3E0FD75F009EEA42400F582E5F03407
:1024B50080F583EE75F008A42583F583E5822DF577
:1024C50082E5833CF583EFF075F009EEA42400F571
:1024D50082E5F03488F583EE75F008A42583F5834D
:1024E500E475F00112085A75F009EEA42400F5828E
:1024F500E5F03488F583EE75F008A42583F583E0CF
:102505005403F090C3A5E004F0700690C3A4E00462
:10251500F002245C90C39EE0146042146070147055
:10252500030225C1240360030225F1908808E060B9
:10253500030225F104F0908802E0FEA3E02400F5F3
:102545008274803EF583E0F599908803E004F0708D
:1025550006908802E004F09088020225ED90901123
:10256500E060030225F104F090900BE0FEA3E02467
:1025750009F58274883EF583E0F59C90900CE004A3
:10258500F0700690900BE004F090900B805A9098B4
:102595001AE0705804F0909814E0FEA3E02412F5B8
:1025A5008274903EF583E0F59E909815E004F070F6
:1025B50006909814E004F0909814802C90A023E0E5
:1025C500702A04F090A01DE0FEA3E0241BF58274A0
:1025D500983EF583E0F5AC90A01EE004F0700690FF
:0E25E500A01DE004F090A01DE05403F0D2AF62
:0125F30022C5
:030023000239811E
:10398100C0E0C083C082C0D075D000C006C007C2ED
:10399100AF30982AC298908804E0FEA3E02400F595
:1039A1008274843EF583E599F0908805E004F07017
:1039B10006908804E004F0908804E05403F0309904
:1039C1003FC299908802E0FEA3E0FF908800E06E7C
:1039D1007003A3E06F602474002FF58274803EF5BC
:1039E10083E0F599908803E004F07006908802E086
:1039F10004F0908802E05403F08005908808E4F018
:0F3A0100D2AFD007D006D0D0D082D083D0E03261
:03005300023F2C3D
:103F2C00C0E0C083C082C0D075D000C006C007C23C
:103F3C00AF5396FE909814E0FEA3E0FF909812E029
:103F4C006E7003A3E06F602474122FF58274903EA0
:103F5C00F583E0F59E909815E004F07006909814A7
:103F6C00E004F0909814E05403F0800590981AE463
:103F7C00F0D2AFD007D006D0D0D082D083D0E032F0
:03005B0002436BF2
:10436B00C0E0C083C082C0D075D000C006C2AF53BE
:10437B0097FE909816E0FEA3E02412F58274943E0B
:10438B00F583E59FF0909817E004F070069098166F
:10439B00E004F0909816E05403F0D2AFD006D0D0E2
:0743AB00D082D083D0E03284
:03006300023F8CCD
:103F8C00C0E0C083C082C0D075D000C006C007C2DC
:103F9C00AF53A7FE90A01DE0FEA3E0FF90A01BE096
:103FAC006E7003A3E06F6024741B2FF58274983E2F
:103FBC00F583E0F5AC90A01EE004F0700690A01D17
:103FCC00E004F090A01DE05403F0800590A023E4E1
:103FDC00F0D2AFD007D006D0D0D082D083D0E03290
:03006B000243B29B
:1043B200C0E0C083C082C0D075D000C006C2AF5377
:1043C200ABFE90A01FE0FEA3E0241BF582749C3E8E
:1043D200F583E5ADF090A020E004F0700690A01FF8
:1043E200E004F090A01FE05403F0D2AFD006D0D08A
:0743F200D082D083D0E0323D
:030083000237320F
:10373200C0E0C083C082C0D075D000C006C007C23E
:10374200AFE59B30E02E759B90539BFE90900DE071
:10375200FEA3E02409F582748C3EF583E59CF0908B
:10376200900EE004F0700690900DE004F090900D41
:10377200E05403F0E59B30E143759B90539BFD9031
:10378200900BE0FEA3E0FF909009E06E7003A3E0CF
:103792006F602474092FF58274883EF583E0F59CEE
:1037A20090900CE004F0700690900BE004F0909082
:1037B2000BE05403F08005909011E4F0D2AFD007F3
:0B37C200D006D0D0D082D083D0E032FF
:1038600090C3C8EBF0A3EAF0A3E9F07D02E4FF12F5
:1038700043237D03E4FF1242467B017D02E4FF12F5
:1038800037CD43C98075F1FFE4F5F275F36075F447
:103890000175F88F30FCFD90C3C8E0FBA3E0FAA3EC
:1038A000E0F9120779F5FA900001120792F5FB9002
:1038B0000002120792F5FC900003120792F5FDD268
:1038C000FE20FEFDE4F5FAF5FBF5FCF5FDD2FE2049
:1038D000FEFD75FAFF75FBFF75FCFF75FDFFD2FE5F
:1038E00020FEFDE4F5F8758FA0E58F20E5FBD2B949
:0138F00022B5
:10471E00E5E830E51553E8DF438F407FE87E03126E
:0B472E004757538FBFE490BA28F022D9
:1029130075F1FFE4F5F275F36475F40175F88F3022
:10292300FCFD90BA27E075F00DA42424F582E5F0B0
:1029330034ADF583E0F5FAE4F5FBF5FCF5FDD2FEE5
:1029430020FEFD90BA27E0FB75F00DA42425F58247
:10295300E5F034ADF583E0FCA3E0FDA3E0FEA3E0E6
:10296300FF7818120A9B8FFA75F00DEBA42425F556
:1029730082E5F034ADF583E0FCA3E0FDA3E0FEA324
:10298300E0FF7810120A9B8FFB90BA27E0FB75F0EB
:102993000DA42425F582E5F034ADF583E0FCA3E036
:1029A300FDA3E0FEA3E0FF7808120A9B8FFC75F0FD
:1029B3000DEBA42425F582E5F034ADF583A3A3A3A1
:1029C300E0F5FDD2FE20FEFD90BA27E0FF75F00D85
:1029D300A42429F582E5F034ADF583E0F5FA75F02A
:1029E3000DEFA4242AF582E5F034ADF583E0F5FB81
:1029F30090BA27E0FF75F00DA4242BF582E5F0349F
:102A0300ADF583E0F5FC75F00DEFA4242CF582E51C
:102A1300F034ADF583E0F5FDD2FE20FEFD90BA273C
:102A2300E0FF75F00DA4242DF582E5F034ADF583B8
:102A3300E0F5FA75F00DEFA4242EF582E5F034AD40
:102A4300F583E0F5FB90BA27E0FF75F00DA4242F82
:102A5300F582E5F034ADF583E0F5FC75F00DEFA4F8
:102A63002430F582E5F034ADF583E0F5FDD2FE20A8
:0C2A7300FEFD90BA27E004F0E4F5F82224
:0617F10090C32A120AEA6F
:1017F700D390C330E0940090C32FE09408400302D5
:101807001A6790C32EE0FB90C32A30E70FE0FCA3D2
:10181700E0FDA3E0FEA3E0FF7803800DE0FCA3E07A
:10182700FDA3E0FEA3E0FF7815120AAE90C33912BC
:101837000AEA90BA26E0FA75F00DA42424F582E5A9
:10184700F034ADF583E030E63890C339E0FCA3E02F
:10185700FDA3E0FEA3E0FF75F00DEAA42425F582C1
:10186700E5F034ADF583120AEAEB54C0FF75F00DCD
:10187700EAA42424F582E5F034ADF583EFF0021AEB
:101887004B90C32FE0FCA3E0FDAE047803CEC31357
:10189700CE13D8F990C337F0ED5407A3F0E490C303
:1018A70036F090C32EE054C0FFE4FCFDFE90C33D2C
:1018B700120AEAE490C334F090C337E0FF90C334D0
:1018C700E0C39F400302197690C339E0FCA3E0FD13
:1018D700A3E0FEA3E0FF90BA26E0FB75F00DA42479
:1018E70025F582E5F034ADF583120AEA90C33DE0B1
:1018F700FCA3E0FDA3E0FEA3E04408FF75F00DEBB9
:10190700A42424F582E5F034ADF583EFF0E490C329
:1019170035F090C335E0FFC39408504490C331E0DD
:10192700FBA3E0FAA3E0F990C336E0F582758300E4
:10193700120792FE90BA26E075F00DA42429F582CD
:10194700E5F034ADF583E5822FF582E43583F58341
:10195700EEF090C336E004F090C335E004F080B2B7
:1019670090BA26E004F090C334E004F00218BF9068
:10197700C338E0FB7003021A51A3E0FCA3E0FDA308
:10198700E0FEA3E0FF90BA26E075F00DA42425F54C
:1019970082E5F034ADF583120AEAAF0390C33DA3A5
:1019A700E0F9A3E0FAA3E04FFF90BA26E075F00D47
:1019B700A42424F582E5F034ADF583EFF0E490C379
:1019C70035F090C338E0FF90C335E0FEC39F504425
:1019D70090C331E0FBA3E0FAA3E0F990C336E0F54A
:1019E70082758300120792FF90BA26E075F00DA466
:1019F7002429F582E5F034ADF583E5822EF582E4FE
:101A07003583F583EFF090C336E004F090C335E0FB
:101A170004F080AE90C335E0FFC39408502690BA17
:101A270026E075F00DA42429F582E5F034ADF583A1
:101A3700E5822FF582E43583F583E4F090C335E042
:101A470004F080D090BA26E004F090BA28E0701035
:101A5700C2AF122913D2AF90BA287401F0438F0492
:011A6700225C
:03004B0002149705
:10149700C0E0C0F0C083C082C0D075D000C000C01B
:0D14A70001C002C003C004C005C006C0079C
:1014B400C2AFE59130E70353913FE59120E6030283
:1014C40017975391BF75F1FF75F20075F36875F4C2
:1014D4000175F8AF30FCFDD2FE20FEFD90C02AE578
:1014E400FAF0E0FF90BA24E075F00DA42424F5820C
:1014F400E5F034A0F583EFF0D2FE20FEFD90BA248F
:10150400E075F00DA42425F582E5F034A0F583C040
:1015140083C082E0FCA3E0FDA3E0FEA3E0FF780823
:10152400120AAED082D083120AEA90BA24E075F08F
:101534000DA42425F582E5F034A0F583C083C08290
:10154400E0F8A3E0F9A3E0FAA3E0FBAFFAEB4FFF66
:10155400EAFEE9FDE8FCD082D083120AEA90BA24BC
:10156400E075F00DA42425F582E5F034A0F583C0E0
:1015740083C082E0FCA3E0FDA3E0FEA3E0FF7808C3
:10158400120AAED082D083120AEA90BA24E075F02F
:101594000DA42425F582E5F034A0F583C083C08230
:1015A400E0F8A3E0F9A3E0FAA3E0FBAFFBEB4FFF05
:1015B400EAFEE9FDE8FCD082D083120AEA90BA245C
:1015C400E075F00DA42425F582E5F034A0F583C080
:1015D40083C082E0FCA3E0FDA3E0FEA3E0FF780863
:1015E400120AAED082D083120AEA90BA24E075F0CF
:1015F4000DA42425F582E5F034A0F583C083C082D0
:10160400E0F8A3E0F9A3E0FAA3E0FBAFFCEB4FFFA3
:10161400EAFEE9FDE8FCD082D083120AEA90BA24FB
:10162400E075F00DA42425F582E5F034A0F583C01F
:1016340083C082E0FCA3E0FDA3E0FEA3E0FF780802
:10164400120AAED082D083120AEA90BA24E075F06E
:101654000DA42425F582E5F034A0F583C083C0826F
:10166400E0F8A3E0F9A3E0FAA3E0FBAFFDEB4FFF42
:10167400EAFEE9FDE8FCD082D083120AEA90BA249B
:10168400E075F00DA42425F582E5F034A0F583C0BF
:1016940083C082E0FCA3E0FDA3E0FEA3E0FF7803A7
:1016A400120A9BD082D083120AEA90C02AE020E773
:1016B4002D90BA24E075F00DA42425F582E5F034CC
:1016C400A0F583C083C082E0FCA3E0FDA3E0FEA3F9
:1016D400E0FF7812120A9BD082D083120AEA90C0EB
:1016E4002AE030E60302178ED2FE20FEFD90BA24D3
:1016F400E0FF75F00DA42429F582E5F034A0F5830C
:10170400E5FAF075F00DEFA4242AF582E5F034A093
:10171400F583E5FBF075F00DEFA4242BF582E5F0DD
:1017240034A0F583E5FCF075F00DEFA4242CF582CC
:10173400E5F034A0F583E5FDF0D2FE20FEFD90BA7D
:1017440024E0FF75F00DA4242DF582E5F034A0F516
:1017540083E5FAF075F00DEFA4242EF582E5F0345C
:10176400A0F583E5FBF075F00DEFA4242FF582E5D9
:10177400F034A0F583E5FCF075F00DEFA42430F50A
:1017840082E5F034A0F583E5FDF075F80090BA2405
:10179400E004F0E59130E51A5391DF90BA26E0FFBA
:1017A400A3E06F6008122913438F04800590BA28C0
:1017B400E4F0E59130E4035391EFE59130E3035312
:1017C40091F7E59130E2065391FB438F0475E800ED
:0217D400D2AF92
:1017D600D007D006D005D004D003D002D001D00067
:0B17E600D0D0D082D083D0F0D0E03211
:103C9F00737472696E67203100737472696E672076
:103CAF00320046330000257325313064007465738C
:103CBF00740046340000737472696E6720340046D6
:103CCF00350000463600002530325800FF4550FFC2
:103CDF0044E7FF46A7FF404CFF46C6FF4785FF4816
:103CEF0071FF4871FF4871FF4871FF4871FF4871BC
:103CFF00FF4871FF4871FF4871FF487110001200B3
:0C3D0F0014001600180020002200240000
:103E6A0020362204220031002004320440043504A2
:103E7A003C044F0020043F0440043504340432005B
:103E8A002E0020043F0440043E0434044304320458
:103E9A003A0438002C0020000041BEAD0041BD4864
:103EAA000041BEE40042BEE8200042BEE1000041FB
:073EBA00BD450041BD4600BB
:0A48580075F90175BCFD7590FD2295
:014871002224
:0835E80090C292EEF0A3EFF097
:1035F000A3E4F0A37403F0A3E4F0A37403F0E4A342
:10360000F0A3F0A3ECF0A3EDF0A37403F0A374FF18
:10361000F0ED2464FEE43CA3F0A3CEF074FFA3F02D
:10362000A3F0A3E4F0A304F02DFEE43CA3F0A3CEAA
:10363000F0A37403F0A374FEF0ED2463FEE43CA356
:10364000F0A3CEF074FFA3F0A3F0A3E4F0A3740200
:10365000F02DFEE43CA3F0A3CEF0A37403F0A3741A
:10366000FDF0ED2462FEE43CA3F0A3CEF074FFA3D2
:10367000F0A3F0A3F0A3E4F07B017AC2799490C1A7
:0D3680004AF0A3741EF07F007E300225F496
:0B41000090C152EBF0A3EAF0A3E9F03D
:10410B001247B0EF04FFE4FEEEC39F502890C1525C
:10411B00E0FBA3E0FAA3E0F98E827583001207920D
:10412B00FDEE25E02455F582E434C1F583E4F0A3DC
:10413B00EDF00E80D37B017AC1795590C14AE4F042
:0A414B00A3EFF07F007E110225F4BF
:1045500090BEE2E0249CF090BEE1E034FFF0D3A3F3
:10456000E0940090BEE1E06480948050077402F013
:10457000A374BCF090BEE1E0FCA3E0FDE4FFFE020A
:0245800035E81C
:1044E70090BEE2E02464F090BEE1E03400F0E0B476
:1044F700030CA3E0B42007E490BEE1F0A3F090BE64
:10450700E1E0FCA3E0FDE4FFFE1235E87BFF7A3C27
:05451700799F02410044
:1046A7007BFF7A3C79A81241007BFF7A3C79B19075
:0F46B700C14AE4F0A37404F07F007E120225F4E0
:10404C0090C30574FFF0A3743CF0A374B5F0A37493
:10405C00FFF0A3743CF0A374BCF090BD43E0FFA34D
:10406C00E090C30BCFF0A3EFF07B017AC279D012B2
:10407C00119790BD44E004F0700690BD43E004F04D
:10408C007B017AC279D01241007BFF7A3C79C190D6
:0F409C00C14AE4F0A37404F07F007E120225F401
:1046C6007BFF7A3C79C51241007BFF7A3C79CE901C
:0F46D600C14AE4F0A37404F07F007E120225F4C1
:104785007BFF7A3C79D290C14AE4F0A37404F07FB0
:06479500007E120225F473
:103FEC0090C251EEF0A3EFF0A3EBF0A3EAF0A3E93B
:013FFC00F0D4
:103FFD001247B0EF04FFE4FEEEC39F502890C2536A
:10400D00E0FBA3E0FAA3E0F98E827583001207921C
:10401D00FDEE25E02456F582E434C2F583E4F0A3E9
:10402D00EDF00E80D390C251E0FEA3E0FF7B017A4C
:0F403D00C2795690C14AE4F0A3743CF00225F416
:101A6800124479124702D2AF124858122DE590C09D
:101A78006B120AF60001C2007F03124155E490BEC2
:101A8800E7F090BEAEF090BD49F090BD47F0124827
:011A98004C01
:101A99007B017AC0792B90C06FE4F0A37403F07FC7
:101AA900167E0012228190C02BE0B45AE3E4F07B49
:101AB900017AC0792D90C14AF0A304F07F167E0007
:031AC9001225F4EF
:101ACC0090C02CE0FF90C031E4F0A3EFF07B017AE2
:101ADC00C0793190C14AE4F0A304F07F007E40123B
:101AEC0025F47B017AC0792D90C14AE4F0A37402ED
:081AFC00F07F007E521225F478
:071B040090C02CE014708E6C
:101B0B00E490BF4DF090C031F090BFF0E0FBA3E04C
:101B1B00FAA3E0F9120779FF90C031E0C39F4003AD
:101B2B00021C8A900001120B5390C031E075F00932
:101B3B00A4F58285F083120792F9E47F01FEFDFC88
:101B4B00A801120AAE785D120AD1EF5BFFEE5AFEC6
:101B5B00ED59FDEC58FCE4FBFAF9F8C3120A8A7054
:101B6B0003021C8190BFF0E0FBA3E0FAA3E0F99025
:101B7B000001120B5390C031E075F009A429F9EA6A
:101B8B0035F0FA9000011208B1FFC390C02EE09F10
:101B9B0090C02DE095F05003021C7B9000051208BD
:101BAB00B1FFD390C02EE09F90C02DE095F0400385
:101BBB00021C7B9000031208B1FFC390C030E09F62
:101BCB0090C02FE095F05003021C7B900007120889
:101BDB00B1FFD390C030E09F90C02FE095F0400351
:101BEB00021C7B90BFF0E0FBA3E0FAA3E0F9EB8AC9
:101BFB00838982F4700A74C665827004743B6583B2
:101C0B00604390BFF0E0FBA3E0FAA3E0F990000182
:101C1B00120B5390C031E075F009A4F58285F08367
:101C2B00120792FF903BC7E493FB740193FA740283
:101C3B0093F990BFF3E075F009A4F58285F0831258
:101C4B0007926F603190C031E0FF90BFF0E0FBA3D3
:101C5B00E0FAA3E0F99000041208B1FDACF0F582B4
:101C6B0085F083120B8790BF4DE090BFF3F0800F90
:0F1C7B0090BF4DE004F090C031E004F0021B1464
:101C8A0090BF4DE0FF90C032E4F0A3EFF07B017A01
:101C9A00C0793290C14AE4F0A304F07F007E251295
:021CAA0025F41F
:031CAC00021A9980
:03486E00FF48728E
:014872002223
:103D8C00C2AFE4F5F1F5F275F30A75F40175F8AF0D
:103D9C0030FCFDD2FE20FEFDAFFA90C3CFE4F0A3C1
:103DAC00EFF0E07F00FE90C3CFF0A3EFF0ADFBEDA2
:103DBC00FF90C3CFEEF0A3EFF0E4F5F8D2AF90C3D1
:103DCC00CFE0FEA3E0FF90486E75F003120B27EED8
:103DDC0075F003A42583F583E493FB740193FA74C3
:0D3DEC000293F94A600789828A83120B87CF
:013DF90022A7
:04486A000F40720089
:103A9C0078C47CC37D017BFF7A48796A7E007F0401
:103AAC0012075390C06B120AF60001C200E4FF1219
:103ABC0041557B017AC379C412386090BA297401DC
:103ACC00F0A37484F0A37400F0A37401F0A37488C1
:103ADC00F0A37404F0A37401F0A37488F0A374062B
:103AEC00F0A37404F0A3E4F07B01A304F0A374BA74
:103AFC00F0A3743FF0A3EBF0A374BBF0A3743FF0FE
:103B0C00A3EBF0A374BBF0A37441F0A37401F0A376
:023B1C00E4F0D3
:013B1E002284
:103B1F007B017ABB794390C06FE4F0A37402F07F0E
:103B2F00007E0F12228190BB43E0645A7062F07BDB
:103B3F00017ABB794390C14AF0A37402F07F007EF3
:103B4F000F1225F490BB46E0FDC394C840027D647C
:103B5F0090BB44E0FEA3E0FBAA0690BB43745AF06F
:103B6F00A374A5F0ED25E02404A3F0A37483F0EA79
:103B7F00A3F0A3EBF0A3EDF0AE02AF037B017ABB92
:103B8F00794A90C06FE4F0A3EDF01222817F0122F9
:023B9F007F00A5
:013BA1002201
:0B0BF60090C351EBF0A3EAF0A3E9F07C
:100C0100C2AF900003120B53120886FFAEF090C3DF
:100C11005CEEF0A3EFF0D2AF90C351E0FBA3E0FA9A
:100C2100A3E0F9900006120B53120886FDACF06F99
:100C31007002EC6E700302112FC390C35DE09D90B2
:100C4100C35CE09C90C351E0FBA3E0FAA3E0F95040
:100C5100219000091208B1FF90C35DE02FFF90C3FE
:100C61005CE035F0CFC39DCF9C90C354F0A3EFF06F
:100C7100801E900006120B53120886FFC390C35DBD
:100C8100E09FFE90C35CE095F090C354F0A3CEF0DA
:100C9100C390C355E0940690C354E0940050037F81
:100CA100002290C351E0FBA3E0FAA3E0F990000613
:100CB100120B53120886FDACF090C351E0FBA3E088
:100CC100FAA3E0F9120B338D828C83120792FF9005
:100CD100C35AE4F0A3EFF0E0F8E4F0E890C35AF06F
:100CE100ED2401FFE43CFE90C35EF0A3EFF090C35E
:100CF10051E0FBA3E0FAA3E0F99000091208B1FD6D
:100D0100C3EF9DEE95F04007E490C35EF0A3F012AF
:100D11000B3390C35EE0FEA3E0F5828E831207924F
:100D2100FF90C35AE0FEA3E04FFF90C35AEEF0FEDE
:100D3100A3EFF064A57003EE645A60030210DA9029
:100D4100C351E0FBA3E0FAA3E0F9900006120B53B4
:100D51001208862403FFE435F0FE90C35EF0A3EF92
:100D6100F090C351E0FBA3E0FAA3E0F9900009126F
:100D710008B1FDC3EF9DEE95F04007E490C35EF02E
:100D8100A3F0120B3390C35EE0FEA3E0F5828E83E5
:100D910012079264826003020F0890C351E0FBA323
:100DA100E0FAA3E0F9900006120B53120886240220
:100DB100FFE435F0FE90C35EF0A3EFF090C351E085
:100DC100FBA3E0FAA3E0F99000091208B1FDC3EF1B
:100DD1009DEE95F04007E490C35EF0A3F090C351FF
:100DE100E0FBA3E0FAA3E0F9120B3390C35EE0FE4F
:100DF100A3E0F5828E831207922403FFE433FE9071
:100E0100C356F0A3EFF0C390C355E09F90C354E0E5
:100E11009E500302112FE490C358F0A3F090C356E3
:100E2100E0FEA3E0FFA3E0FCA3E0FDC39FEC9E4036
:100E310003020ED490C351E0FBA3E0FAA3E0F990C2
:100E41000006120B53120886FFAEF090C351E0FB6F
:100E5100A3E0FAA3E0F9120B338F828E831207927B
:100E6100FF74432DF58274BB3CF583EFF090C351C1
:100E7100E0FBA3E0FAA3E0F9900006120B53E4753E
:100E8100F0011208E990C351E0FBA3E0FAA3E0F9F5
:100E9100900006120B53120886FFAEF090C351E08A
:100EA100FBA3E0FAA3E0F99000091208B1FDC3EF3A
:100EB1009DEE95F0400C900006120B53E4F5F012F4
:100EC100092190C359E004F0700690C358E004F082
:100ED100020E1E90BB47E0FEA3E0FF7B017ABB79C7
:100EE1004990BB45E024FDC313FD90C14AE4F0A342
:100EF100EDF01225F490BB457403F090BB47744F9D
:100F0100F0A3744B02108B90C351E0FBA3E0FAA352
:100F1100E0F9120B3390C35EE0FEA3E0F5828E830D
:100F21001207926483600302108F90C351E0FBA308
:100F3100E0FAA3E0F9900006120B5312088624028E
:100F4100FFE435F0FE90C35EF0A3EFF090C351E0F3
:100F5100FBA3E0FAA3E0F99000091208B1FDC3EF89
:100F61009DEE95F04007E490C35EF0A3F090C3516D
:100F7100E0FBA3E0FAA3E0F9120B3390C35EE0FEBD
:100F8100A3E0F5828E831207922403FFE433FE90DF
:100F9100C356F0A3EFF0C390C355E09F90C354E054
:100FA1009E500302112FE490C358F0A3F090C35652
:100FB100E0FEA3E0FFA3E0FCA3E0FDC39FEC9E40A5
:100FC1000302106490C351E0FBA3E0FAA3E0F9909F
:100FD1000006120B53120886FFAEF090C351E0FBDE
:100FE100A3E0FAA3E0F9120B338F828E83120792EA
:100FF100FF74432DF58274BB3CF583EFF090C35130
:10100100E0FBA3E0FAA3E0F9900006120B53E475AC
:10101100F0011208E990C351E0FBA3E0FAA3E0F963
:10102100900006120B53120886FFAEF090C351E0F8
:10103100FBA3E0FAA3E0F99000091208B1FDC3EFA8
:101041009DEE95F0400C900006120B53E4F5F01262
:10105100092190C359E004F0700690C358E004F0F0
:10106100020FAE90BB47E0FEA3E0FF7B017ABB79A4
:101071004AA3E0FD90C06FE4F0A3EDF0122281904D
:10108100BB49E025E0240490BB45F07F012290C3D9
:1010910051E0FBA3E0FAA3E0F9900006120B53E440
:1010A10075F0011208E990C351E0FBA3E0FAA3E057
:1010B100F9900006120B53120886FFAEF090C3514F
:1010C100E0FBA3E0FAA3E0F99000091208B1FDC327
:1010D100EF9DEE95F04057804990C351E0FBA3E0AE
:1010E100FAA3E0F9900006120B53E475F00112081F
:1010F100E990C351E0FBA3E0FAA3E0F990000612E6
:101101000B53120886FFAEF090C351E0FBA3E0FA47
:10111100A3E0F99000091208B1FDC3EF9DEE95F02F
:10112100400C900006120B53E4F5F01209217F00E8
:01113100229B
:102A7F0090BA25E0FF90BA24E06F7003022B18750F
:102A8F00F00DEFA42425F582E5F034A0F583E0FCEA
:102A9F00A3E0FDA3E0FEA3E0FFE47B23FAF9F8C374
:102AAF00120A8A705E90BA25E075F00DA42424F501
:102ABF0082E5F034A0F583E0540FFFE4FEEEC39FF0
:102ACF00504190BA25E075F00DA42429F582E5F068
:102ADF0034A0F583E5822EF582E43583F583E0FD9E
:102AEF0090BB3FE0FAA3E0243FF58274BA3AF58336
:102AFF00EDF090BB40E004F0700690BB3FE004F0B7
:102B0F000E80BA90BA25E004F0123B1FEF640170FB
:102B1F004190BB45E02403FDE433FC7B017ABB7994
:102B2F0043E4FF122441E490C32EF090BB45E02410
:102B3F0003FEE43390C32FF0A3CEF0A37401F0A3F0
:102B4F0074BBF0A37443F07F237E007D007C0012E2
:102B5F0017F17B017ABA7929120BF6BF011590BBD9
:102B6F0045E02403FDE433FC7B017ABB7943E4FFAA
:102B7F001224417B017ABA7934120BF6BF012CE48F
:102B8F0090C32EF090BB45E02403FEE43390C32F97
:102B9F00F0A3CEF0A37401F0A374BBF0A37443F0C1
:0B2BAF007F247E007D007C001217F1E7
:012BBA0022F8
:1047FE00FF988103FF988104FF988101FF98810043
:03480E0035112938
:023EC100C10935
:10333B00E490C3B6F0A3F0A374B0F0A374FAF0C298
:10334B0090C2947F057E00124757E490C3BAF09069
:10335B00C3B8E0A330E704D2928002C292C2937F3B
:10336B00057E00124757D2937F057E001247579078
:10337B00C3B9E025E0F090C3B8E033F090C3BAE0F6
:10338B0004F0E0C3941040C7D2947F057E0012472F
:10339B0057E490C3BAF0C2937F057E00124757D211
:1033AB00937F057E0012475790C3B7E025E0F0905E
:1033BB00C3B6E033F0309107E0F0A3E04401F090A6
:1033CB00C3BAE004F0E0C3941040CBD2907F057EEB
:0C33DB000012475790C3B6E0FEA3E0FFCD
:0133E70022C3
:10328C00E490C3BBF0A3F0EFFF74FAA3CFF0A3EF6D
:10329C00F0C290C2947F057E00124757E490C3BFE2
:1032AC00F090C3BDE0A330E704D2928002C292C278
:1032BC00937F057E00124757D2937F057E001247FD
:1032CC005790C3BEE025E0F090C3BDE033F090C34F
:1032DC00BFE004F0E0C3941040C7D2947F057E0099
:1032EC00124757E490C3BFF0C2937F057E0012478C
:1032FC0057D2937F057E0012475790C3BCE025E060
:10330C00F090C3BBE033F0309107E0F0A3E0440150
:10331C00F090C3BFE004F0E0C3941040CBD2907F98
:0E332C00057E0012475790C3BBE0FEA3E0FFF2
:01333A002270
:1041A80090C074EFF0C290C2947F057E001247570A
:1041B800E490C073F090C074E030E704D2928002BB
:1041C800C292C2937F057E00124757D2937F057E25
:1041D8000012475790C074E025E0F090C073E004E7
:1041E800F0E0C3940840CED2907F057E0002475786
:052F9F00E4FDFC7FB819
:102FA40090C074EFF0ECA3F0A3EDF0C290C2947F54
:102FB400057E00124757E490C073F090C074E0306F
:102FC400E704D2928002C292C2937F057E00124728
:102FD40057D2937F057E0012475790C074E025E0D6
:102FE400F090C073E004F0E0C3940840CED2947F24
:102FF400057E00124757E490C073F090C076E0302D
:10300400E704D2928002C292C2937F057E001247E7
:1030140057D2937F057E0012475790C076E025E093
:10302400F090C073E004F0E0C3940840CEE490C094
:1030340073F090C075E030E704D2928002C292C26D
:10304400937F057E00124757D2937F057E00124777
:103054005790C075E025E0F090C073E004F0E0C341
:0D306400940840CED2907F057E00024757B1
:06368D007BFF7D047C00C0
:0B36930090C06AEBF0A3EAF0A3E9F09E
:10369E00AE04AF05A3EEF0A3EFF07FBC122FA49003
:1036AE00C06DE0FCA3E0FD7FBE122FA47FBF1241D0
:1036BE00A8C290D2947F057E0012475790C06D74B9
:1036CE00FFF5F012087045F0605190C06AE0FBA360
:1036DE00E475F001120870A9F0FA12077990C07023
:1036EE00F0E490C06FF090C06FE0C3940850CDA38B
:1036FE00E030E704D2928002C292C2937F057E0030
:10370E00124757D2937F057E0012475790C070E044
:10371E0025E0F090C06FE004F080CBD2907F057E64
:04372E0000024757F7
:1034940090C0707401F0A374C0F0A3746EF090C077
:1034A4006EEFF0A3EDF090C06AE4F0A37402F0FDB7
:1034B4007C007FBC122FA490C06AE0FCA3E0FD7FD7
:1034C400BE122FA47FBF1241A8C290D2947F0F7E58
:1034D4000012475790C06A74FFF5F012087045F067
:1034E400605190C070E0FBA3E475F001120870A96C
:1034F400F0FA12077990C06DF0E490C06CF090C0BF
:103504006CE0C3940850CDA3E030E704D29280026B
:10351400C292C2937F0F7E00124757D2937F0F7ED1
:103524000012475790C06DE025E0F090C06CE004B5
:0C353400F080CBD2907F0F7E0002475742
:100103007A4779FE12368DE4FD7F01123494E4FDC3
:100113007F021234947D577F031234947DD37F047E
:10012300123494E4FD7F051234947D117F0612345A
:10013300947D087F07123494E4FD7F08123494E41D
:10014300FD7F091234947D3F7F0A123494E4FD7FCE
:100153000B123494E4FD7F0C123494E4FD7F0D12F2
:100163003494E4FD7F0E1234947D3F7F0F12349458
:100173007D3F7F10123494E4FD7F11123494E4FD2B
:100183007F12123494E4FD7F13123494E4FD7F1440
:10019300123494E4FD7F15123494E4FD7F16123477
:1001A30094E4FD7F17123494E4FD7F18123494E431
:1001B300FD7F19123494E4FD7F1A123494E4FD7F19
:1001C3001B123494E4FD7F1C123494E4FD7F1D1252
:1001D30034947D407F1E1234947D807F1F123494AB
:1001E3007D067F201234947D017F21123494E4FD37
:1001F3007F22123494E4FD7F23123494E4FD7F24A0
:10020300123494E4FD7F25123494E4FD7F261234E6
:1002130094E4FD7F271234947D337F281234947D38
:10022300337F29123494E4FD7F2A123494E4FD7F52
:100233002B123494E4FD7F2C123494E4FD7F2D12B1
:100243003494E4FD7F2E123494E4FD7F2F12349412
:10025300E4FD7F30123494E4FD7F31123494E4FDE5
:100263007F32123494E4FD7F33123494E4FD7F34FF
:10027300123494E4FD7F35123494E4FD7F36123456
:1002830094E4FD7F371234947D787F38123494E4FC
:10029300FD7F39123494E4FD7F3A123494E4FD7FF8
:1002A3003B123494E4FD7F3C123494E4FD7F3D1211
:1002B3003494E4FD7F3E123494E4FD7F3F12349482
:1002C300E4FD7F40123494E4FD7F41123494E4FD55
:1002D3007F42123494E4FD7F43123494E4FD7F445F
:1002E300123494E4FD7F501234947D237F511234F1
:1002F300947D457F521234947D677F531234947DED
:10030300897F541234947DAB7F551234947D017FE1
:10031300561234947D237F571234947D457F5812AF
:1003230034947D677F591234947D897F5A123494B3
:100333007DAB7F5B1234947DCD7F5C1234947DEF73
:100343007F5D123494E4FD7F5E1234947D0D7F5FF4
:100353001234947D0D7F601234947D0C7F611234CE
:10036300947D0C7F621234947D0F7F631234947DED
:100373000F7F641234947D0E7F651234947D0E7F5B
:10038300661234947D087F671234947D027F68126D
:1003930034947D027F691234947D027F6A1234940F
:1003A3007D027F6B1234947D027F6C1234947D0244
:1003B3007F6D1234947D027F6E1234947D027F6FC1
:1003C3001234947D147F701234947D157F7112342E
:1003D300947D067F721234947D027F731234947D70
:1003E300027F741234947D0D7F751234947D0D7FDA
:1003F300761234947D0C7F771234947D0C7F7812BF
:1004030034947D0F7F791234947D0F7F7A12349464
:100413007D0E7F7B1234947D0E7F7C1234947D0895
:100423007F7D1234947D027F7E1234947D027F7F20
:100433001234947D027F801234947D027F811234C2
:10044300947D027F821234947D027F831234947DE3
:10045300027F841234947D027F851234947D147F4D
:10046300861234947D157F871234947D067F88121B
:1004730034947D027F891234947D027F8A123494EE
:100483007A48790212368D7D3B7F6E1234947D5704
:100493007F6F1234947D247F3A1234947D1F7F8DB5
:1004A3001234947DBA7F871234947DD17FB2123493
:1004B300947D0B7F881234947D017F38123494E449
:1004C300FD7F391234947D077FB51234947D757F97
:1004D300311234947D987F3B1234947BFF7A4879B0
:1004E3000612368F7D0A7F221234947D097F3112E2
:1004F30034947D077F351234947D677F531234948F
:100503007D847F551234947D867F501234947D828E
:100513007F511234947D107F60123494E4FD7F6226
:10052300123494E4FD7FA01234947D127FA112341F
:10053300947D1F7FA21234947D127FA31234947D85
:10054300167FA41234947D297FA51234947D1E7FD7
:10055300A61234947D1F7FA71234947D7E7FA81248
:1005630034947D1B7FA91234947D287FAA1234947E
:100573007D6D7FAB1234947D197FAC1234947D185A
:100583007FAD1234947D4C7FAE1234947D1E7FAFC9
:100593001234947D237FB01234947D527FB1123490
:1005A300947D6D7FB21234947D3F7FB3123494E413
:1005B300FD7FC01234947D127FC11234947D207F5D
:1005C300C21234947D107FC31234947D137FC412FE
:1005D30034947D277FC51234947D1B7FC6123494D7
:1005E3007D1D7FC71234947D757FC81234947D1F9F
:1005F3007FC91234947D287FCA1234947D687FCBDF
:100603001234947D1A7FCC1234947D187FCD12342A
:10061300947D4D7FCE1234947D257FCF1234947D0B
:100623002E7FD01234947D537FD11234947D607F1A
:10063300D21234947D3F7FD31234947BFF7A48796E
:100643000A12368F7BFF7A48790E7D017C001236C1
:10065300937F8C7E001242DB7BFF7A48790F7D010A
:100663007C001236937F787E001242DB7BFF7A4850
:1006730079107D017C001236937FAA7E000242DB53
:104582007D067C087FB1122FA47D227C187FB21297
:104592002FA47D127C687FB3122FA47D207C037F21
:0D45A200B4122FA47D007C057FB5022FA46C
:102DE5007D507C007FB7122FA4122F9FE4FDFC7F3E
:102DF500B9122FA47D0A7C807FBA122FA47D067C90
:102E0500007FBB122FA47D017C007FB9122FA4E4A3
:102E1500FDFC7FDE122FA47D027C237FC9122FA427
:102E25007F0A7E001242DB1201037D517C017FB7D0
:102E3500122FA4122F9FE4FDFC7FB9122FA47D153C
:102E45007C807FBA122FA47D057C007FBB122FA446
:102E55007D017C007FB9122FA47D027C237FC912DE
:102E65002FA47F0A7E001242DB7D017C237FCA12DC
:102E75002FA47D107C057FCB122FA47D057C107FB0
:102E8500CC122FA47DFF7C007FD0122FA412458287
:102E95007DD37C007FB6122FA47D037C007FDE12DC
:102EA5002FA47D047C007FD6122FA47D4B7C027F4E
:0E2EB500B7122FA47F3C7E001242DBD209220E
:103BA20000800007030A0C140E190001020708091D
:103BB200030405060A0B0C0D141516170E0F10112F
:103BC200121319180801BF601CAF0301C00F354062
:103BD2000301BFF435400401BEF335400201BF4E7C
:103BE20035400201BFCC35400401BFA83540060173
:103BF200BF1735400201BFDE3540FFFFFFFFFFFF69
:103C0200FFFF0000306FFF3BA4FF3BACFF3BAFFF69
:103C12003BB2FF3BB6FF3BB8FF3BBAFF3BBEFF3BAD
:013C2200C4DD
:063EC300045DFFFFFFFF9C
:103DFA00E4FFE4FEEF75F006A424C6F582E4343B42
:103E0A00F583E493FDEEC39D504CEF75F003A424B3
:103E1A0008F582E4343CF583E493FB740193FA7465
:103E2A000293F98E82758300120792FDEF75F006F0
:103E3A00A424C7F582E4343BF583E493FB7401932D
:103E4A00FA740293F975F009EEA4F58285F083ED10
:0B3E5A001207D10E809E0FEFB40997F5
:013E6500223A
:101E9D0090C075EEF0A3EFF0A3EBF0A3EAF0A3E989
:011EAD00F044
:101EAE0090C07D7424F0A37407F090C07B7402F090
:101EBE00E4A3F090C07AF090C077E0FBA3E0FAA321
:101ECE00E0F9120779FF90C07AE0FEC39F4003024B
:101EDE00204EEB8A838982F4700A74C66582700480
:101EEE00743B6583604390C077E0FBA3E0FAA3E008
:101EFE00F9900001120B5375F009EEA4F58285F0EE
:101F0E0083120792FF903BC7E493FB740193FA741C
:101F1E000293F990BF4DE075F009A4F58285F08328
:101F2E001207926F700302204590C077E0FBA3E08A
:101F3E00FAA3E0F9900001120B5390C07AE075F00D
:101F4E0009A4F58285F083120792F9E47F01FEFD64
:101F5E00FCA801120AAE785D120AD1EF5BFFEE5AB1
:101F6E00FEED59FDEC58FCE4FBFAF9F8C3120A8AAF
:101F7E00700302204590C077E0FBA3E0FAA3E0F9DE
:101F8E00900001120B5390C07AE075F009A429F964
:101F9E00EA35F0FA9000011208B1FF90C07BE025FF
:101FAE00E0247DF582E434C0F583E5F0F0A3EFF094
:101FBE0090C07BE004F090C077E0FBA3E0FAA3E0D2
:101FCE00F9900001120B5390C07AE075F009A42924
:101FDE00F9EA35F0FA9000031208B1FF90C07BE0E9
:101FEE0025E0247DF582E434C0F583E5F0F0A3EF1F
:101FFE00F090C07BE004F090C077E0FBA3E0FAA382
:10200E00E0F9900001120B5390C07AE075F009A42C
:10201E00F58285F083120792FF90C07BE025E024C5
:10202E007DF582E434C0F583E4F0A3EFF090C07B3D
:10203E00E004F0A3E004F090C07AE004F0021EC5C4
:10204E0090C07CE0FF90C07FE4F0A3EFF090C07BE7
:10205E00E0FD25E0247DF582E434C0F58374FFF0C5
:10206E00A3E4F090C075E0FEA3E0FF7B017AC07997
:0C207E007D90C14AE4F0A3EDF00225F4CF
:0B27870090C06DEBF0A3EAF0A3E9F0B6
:10279200E490C071F0A3F0A37402F0A374A0F0E47B
:1027A20090C070F090C06DE0FBA3E0FAA3E0F912D4
:1027B2000779FF90C070E0C39F40030228EE9000AB
:1027C20001120B5390C070E075F009A4F58285F0F8
:1027D20083120792F9E47F01FEFDFCA801120AAE02
:1027E200785D120AD1EF5BFFEE5AFEED59FDEC580F
:1027F200FCE4FBFAF9F8C3120A8A70030228E59096
:10280200C071E0FCA3E0FD90C06DE0FBA3E0FAA381
:10281200E0F9900001120B5390C070E075F009A42A
:10282200FFAEF029F9EA3EFA900001EC8DF01209B0
:102832004090C073E0FCA3E0FD90C06DE0FBA3E01C
:10284200FAA3E0F9900001120B53E92FF9EA3EFADC
:10285200900003EC8DF0120940903BA2E493FE74C9
:102862000193FF90C072E02FFD90C071E03EFC909A
:10287200C06DE0FBA3E0FAA3E0F9900001120B5354
:1028820090C070E075F009A429F9EA35F0FA9000D9
:1028920005EC8DF0120940903BA2E493FE74019383
:1028A200FF90C074E02FFD90C073E03EFC90C06DBD
:1028B200E0FBA3E0FAA3E0F9900001120B5390C0F1
:1028C20070E075F009A429F9EA35F0FA900007ECF6
:1028D2008DF012094090C072E02480F090C071E047
:0C28E2003400F090C070E004F00227A663
:1028EE0090C06DE0F9A3E0FAA3E090BFF0C9F0A3A9
:1028FE00EAF0A3E9F090C06DE0FBA3A3E0F97F003E
:05290E007E90021E9DF9
:0C484C00123DFA7BFF7A3B79C6022787F9
:051CAF0090C06AEFF097
:101CB400E075F006A424CCF9743B35F0FAA374FF64
:071CC400F0A3EAF0A3E9F030
:101CCB0090BF4DE075F080A4FF90C06FE5F0F0A3DE
:101CDB00EFF0A37402F0A37420F0E490C06EF090C8
:101CEB00C06BE0FBA3E0FAA3E0F9120779FF90C009
:101CFB006EE0C39F4003021E78900001120B5390BD
:101D0B00C06EE075F009A4F58285F083120792F995
:101D1B00E47F01FEFDFCA801120AAE785D120AD128
:101D2B00EF5BFFEE5AFEED59FDEC58FCE4FBFAF9C4
:101D3B00F8C3120A8A7003021E6F90C06BE0FBA3FC
:101D4B00E0FAA3E0F9900001120B5390C06EE0751E
:101D5B00F009A4F58285F083120792FF903BC7E44C
:101D6B0093FB740193FA740293F990C06AE075F0D7
:101D7B0009A4F58285F0831207926F7003021E6F20
:101D8B0090C06FE0FCA3E0FD90C06BE0FBA3E0FA1A
:101D9B00A3E0F9900001120B5390C06EE075F009AF
:101DAB00A4FFAEF029F9EA3EFA900001EC8DF01297
:101DBB00094090C071E0FCA3E0FD90C06BE0FBA379
:101DCB00E0FAA3E0F9900001120B53E92FF9EA3E78
:101DDB00FA900003EC8DF0120940903BA2E493FEC5
:101DEB00740193FF90C070E02FFD90C06FE03EFC3C
:101DFB0090C06BE0FBA3E0FAA3E0F9900001120B9B
:101E0B005390C06EE075F009A429F9EA35F0FA9009
:101E1B000005EC8DF0120940903BA2E493FE740197
:101E2B0093FF90C072E02FFD90C071E03EFC90C01C
:101E3B006BE0FBA3E0FAA3E0F9900001120B5390C7
:101E4B00C06EE075F009A429F9EA35F0FA900007A5
:101E5B00EC8DF012094090C072E02480F090C071BC
:101E6B00E034FFF090C06EE004F0021CEA90C06B0F
:101E7B00E0F9A3E0FAA3E090BFF0C9F0A3EAF0A366
:101E8B00E9F090C06BE0FBA3A3E0F97F007E950225
:021E9B001E9D8A
:0535400090C06AEFF0ED
:10354500E4A3F0A3F07B017AC0796B90C14AF0A3A4
:0935550004F07F007E951225F4BC
:10355E0090BFF0E0FBA3E0FAA3E0F9900001120B9C
:10356E005390C06AE075F009A4F58285F0831207C6
:10357E009214601114600924027015903BFC8008AF
:10358E00903C048003903C00120AC1785D120ADE62
:10359E0090BFF0E0FBA3E0FAA3E0F9900001120B5C
:1035AE005390C06AE075F009A4F58285F083120786
:1035BE0092FF903BC7E493FB740193FA740293F964
:1035CE0090BFF3E075F009A4F58285F083EF120742
:0A35DE00D17BFF7A3B79C6022787F4
:03000000023A10B1
:0C3A1000787FE4F6D8FD758160023A571B
:103A1C00021A68E493A3F8E493A34003F68001F23E
:103A2C0008DFF48029E493A3F85407240CC8C333AB
:103A3C00C4540F4420C8834004F456800146F6DF7A
:103A4C00E4800B0102040810204080903E66E47E66
:103A5C00019360BCA3FF543F30E509541FFEE4936F
:103A6C00A360010ECF54C025E060A840B8E493A336
:103A7C00FAE493A3F8E493A3C8C582C8CAC583CA61
:103A8C00F0A3C8C582C8CAC583CADFE9DEE780BE19
:013EC90000F8
:10068300E709F608DFFA8046E709F208DFFA803E59
:1006930088828C83E709F0A3DFFA8032E309F60846
:1006A300DFFA8078E309F208DFFA807088828C83AE
:1006B300E309F0A3DFFA806489828A83E0A3F60862
:1006C300DFFA805889828A83E0A3F208DFFA804C3C
:1006D30080D280FA80C680D4806980F28033801013
:1006E30080A680EA809A80A880DA80E280CA80337C
:1006F30089828A83ECFAE493A3C8C582C8CCC583F4
:10070300CCF0A3C8C582C8CCC583CCDFE9DEE780C3
:100713000D89828A83E493A3F608DFF9ECFAA9F042
:10072300EDFB2289828A83ECFAE0A3C8C582C8CC98
:10073300C583CCF0A3C8C582C8CCC583CCDFEADEB1
:10074300E880DB89828A83E493A3F208DFF980CC13
:1007530088F0EF60010E4E60C388F0ED2402B4040C
:100763000050B9F582EB2402B4040050AF232345B3
:0607730082239006D373FF
:10077900BB010689828A83E0225002E722BBFE027E
:09078900E32289828A83E49322B1
:10079200BB010CE58229F582E5833AF583E022501C
:1007A20006E92582F8E622BBFE06E92582F8E22266
:0D07B200E58229F582E5833AF583E4932280
:1007BF00BB010689828A83F0225002F722BBFE0119
:0207CF00F32213
:1007D100F8BB010DE58229F582E5833AF583E8F05E
:1007E100225006E92582C8F622BBFE05E92582C80A
:0207F100F222F2
:1007F300EF8DF0A4A8F0CF8CF0A428CE8DF0A42E1A
:02080300FE22D3
:10080500BC000BBE0029EF8DF084FFADF022E4CCD7
:10081500F875F008EF2FFFEE33FEEC33FCEE9DECA0
:10082500984005FCEE9DFE0FD5F0E9E4CEFD22EDE6
:10083500F8F5F0EE8420D21CFEADF075F008EF2F30
:10084500FFED33FD4007985006D5F0F222C398FD21
:050855000FD5F0EA22BE
:10085A00C5F0F8A3E028F0C5F0F8E5821582700229
:06086A001583E038F022C6
:10087000A3F8E0C5F025F0F0E5821582700215833B
:06088000E0C838F0E82298
:10088600BB010A89828A83E0F5F0A3E0225006873D
:10089600F009E71922BBFE07E3F5F009E3192289FF
:0B08A600828A83E493F5F07401932232
:1008B100BB0110E58229F582E5833AF583E0F5F085
:1008C100A3E0225009E92582F886F008E622BBFE62
:1008D1000AE92582F8E2F5F008E222E5832AF583A8
:0808E100E993F5F0A3E993226D
:1008E900BB010789828A8302085A500B09C5F02780
:1008F900F7C5F01937F722BBFE0D09F8E325F0F328
:10090900C5F019E338F322F889828A8374019325A3
:08091900F0C5F0F8E493382268
:10092100BB010A89828A83F0E5F0A3F0225006F721
:0F09310009A7F01922BBFE06F3E5F009F319221E
:10094000F8BB0111E58229F582E5833AF583E8F0E9
:10095000E5F0A3F0225009E92582C8F608A6F022A6
:0D096000BBFE09E92582C8F2E5F008F2228D
:10096D00E88FF0A4CC8BF0A42CFCE98EF0A42CFC29
:10097D008AF0EDA42CFCEA8EF0A4CDA8F08BF0A4A7
:10098D002DCC3825F0FDE98FF0A42CCD35F0FCEB06
:10099D008EF0A4FEA9F0EB8FF0A4CFC5F02ECD39CB
:0F09AD00FEE43CFCEAA42DCE35F0FDE43CFC2238
:1009BC0075F008758200EF2FFFEE33FECD33CDCCF2
:1009CC0033CCC58233C5829BED9AEC99E582984075
:1009DC000CF582EE9BFEED9AFDEC99FC0FD5F0D652
:1009EC00E4CEFBE4CDFAE4CCF9A88222B800C1B97C
:1009FC000059BA002DEC8BF084CFCECDFCE5F0CBBA
:100A0C00F97818EF2FFFEE33FEED33FDEC33FCEBF2
:100A1C0033FB10D703994004EB99FB0FD8E5E4F9AD
:100A2C00FA227818EF2FFFEE33FEED33FDEC33FC9A
:100A3C00C933C910D7059BE99A4007EC9BFCE99A8E
:100A4C00F90FD8E0E4C9FAE4CCFB2275F010EF2FD3
:100A5C00FFEE33FEED33FDCC33CCC833C810D707D3
:100A6C009BEC9AE899400AED9BFDEC9AFCE899F80E
:0E0A7C000FD5F0DAE4CDFBE4CCFAE4C8F922A1
:100A8A00EB9FF5F0EA9E42F0E99D42F0E89C45F0C2
:010A9A002239
:100A9B00E8600FECC313FCED13FDEE13FEEF13FF39
:030AAB00D8F1225D
:100AAE00E8600FEFC333FFEE33FEED33FDEC33FCA6
:030ABE00D8F1224A
:100AC100E493FC740193FD740293FE740393FF227B
:0D0AD100E6FB08E6F908E6FA08E6CBF82295
:0C0ADE00ECF608EDF608EEF608EFF62244
:0C0AEA00ECF0A3EDF0A3EEF0A3EFF0227F
:100AF600A8828583F0D083D082120B0D120B0D12C3
:100B06000B0D120B0DE473E493A3C583C5F0C583E7
:100B1600C8C582C8F0A3C583C5F0C583C8C582C849
:010B260022AC
:0C0B2700A42582F582E5F03583F58322D9
:100B3300BB010789828A83020B925005E9F8020BF5
:100B430089BBFE05E9F8020BBB89828A83020BC4C9
:100B5300BB010DE58229F582E5833AF583020B9209
:100B63005007E92582F8020B89BBFE07E92582F8C5
:100B7300020BBBE58229F582E5833AF583020BC4B8
:060B83008A838982E473FD
:10113200E5582405F582E434C3F583E0055822908E
:10114200C30230070390C305E475F001120B9B0242
:1011520007792000E97F2ED2008018EF540F2490E7
:10116200D43440D4FF30040BEF24BFB41A00500330
:101172002461FFE55960021559055CE55C700205C2
:101182005B30070E90C302E475F001120B9BEF0275
:1011920007BF0245FF7403D2078003E4C207F55874
:1011A20090C302120BB2E4F559F55BF55CE55960A8
:1011B200077F2012117580F5755AFFC201C200C265
:1011C20002C203C205C206C208121141FF700D30ED
:1011D20007057F00121186AF5CAE5B22B4255FC2A9
:1011E200D5C204121141FF24D0B40A00501A75F07E
:1011F2000A785930D50508B6FF0106C6A426F6209E
:10120200D5047002D20380D924CFB41A00EF50045F
:10121200C2E5D204021387D20180C6D20080C0D2B6
:101222000280BCD2D580BAD20580B47F201211755B
:101232002002077401B5590040F1121132FF121158
:10124200750211AFD208D2068095121132FB12112B
:1012520032FA121132F94A4B700679587A147BFF2E
:1012620020022EE559602A7E008E827583001207C5
:101272009260060EEE655A70F0C2D5EBC0E0EAC08D
:10128200E0E9C0E0EE1213CED0E0F9D0E0FAD0E00F
:10129200FB120779FF60AAEBC0E0EAC0E0E9C0E018
:1012A200121175D0E02401F9D0E03400FAD0E0FB4D
:1012B200E55A0460DCD55AD980877BFF7A1379CA54
:1012C200D202809C791080027908C206C208800886
:1012D200D2D5790A8004790AC2D5E55A047002F59A
:1012E2005AE4FAFDFEFF121132FC7B0820011312B0
:1012F2001132FD7B1030000A121132FE121132FF40
:101302007B20EC3382D592D55013C3E43000069F84
:10131200FFE49EFEE42001039DFDE49CFCE4CBF887
:10132200C201EC700CCFCECDCCE824F8F870F3807B
:1013320017C3EF33FFEE33FEED33FDEC33FCEB333B
:10134200FB994002FB0FD8E9EB300105F8D0E0C46D
:1013520048B201C0E00AEC4D4E4F78207B0070C2CB
:10136200EAB55A0040BCC0E01213D0D0F0D0E02061
:101372000104C4C0E0C4B201C0F012115ED0F0D5C5
:10138200F0EB0211AF120BD0124C5312C658121DC1
:101392004C12194212CA4F12D24412D2491232438B
:0813A20012D85512BC4612BC22
:1013AA004512BC4714785012212D12252E12482BB3
:1013BA0012292312462014612A11E1480000124022
:1013CA003F3F3F00790AA2D5200314300509B9101E
:1013DA00020404B9080104A2D5200602500104201F
:1013EA0002689202B559005034C0E07F20300319D8
:1013FA007F30A20272067205500F121427C202C26F
:10140A0006C205C2087F30800F300503E9C0E0122A
:10141A001175300503D0E0F9D0E0B559CC30051785
:10142A007F30B9100C1211757F583004077F78800D
:10143A0003B908031211753002057F2D0211757F59
:10144A00202008F87F2B2006F322920280CF286EF4
:10145A00756C6C2900D2011211323001F8C2017880
:10146A005930D50108F60211E12D5043495812119D
:10147A00322403B405004001E490147393121166F8
:0D148A00743A121166D2037559040212C69D
:1047B000E4FFFE120779600C0FEF70010E09E9703B
:0547C000F20A80EF2267
:090B8900E6FB08E6FA08E6F92291
:090B9200E0FBA3E0FAA3E0F92264
:100B9B00F8E0FBA3A3E0F925F0F0E58215827002E3
:070BAB001583E0FA38F02287
:090BB200EBF0A3EAF0A3E9F02244
:090BBB00E2FB08E2FA08E2F9226B
:0C0BC400E493FB740193FA740293F9228D
:100BD000D083D082F8E4937012740193700DA3A3B4
:100BE00093F8740193F5828883E4737402936860C8
:060BF000EFA3A3A380DFC8
:1045FF00EFB40A07740D12460A740A309811A8997D
:10460F00B8130CC2983098FDA899C298B811F6301B
:07461F0099FDC299F59922F3
:00000001FF
