:0B00F800FFFF4457494E54350237818A
:0E1BD9007B0190C0A9E4F0A304F07F147E000D
:101BE70090C0A4EEF0A3EFF0A3EBF0A3EAF0A3E913
:011BF700F0FD
:101BF800E490C0ABF0A3F0A3F0A3F0A3F0A3F0A38C
:101C0800F0A3F090C0A9E0FAA3E0FB4A7003021D1C
:101C1800A690C0A4E0FEA3E0FFC3E49FFFE49EFEFD
:101C2800E4FCFD90C0B3120FAEAF03AE02E4FCFDBE
:101C380090C0B3E0F8A3E0F9A3E0FAA3E0FBC31275
:101C48000F77501190C0B3A3A3E0FFA3E090C0A901
:101C5800CFF0A3EFF090C0A4E0FCA3E0FDECC31329
:101C6800FFED1390C0ABCFF0A3EFF0ED5401FFA34D
:101C7800E4F0A3EFF0C2AFE4F5F190C0ABE0FCA351
:101C8800E0FDECF5F28DF375F40175F8AF30FCFD6D
:101C980090C0ADE07002A3E0603DD2FE20FEFD9052
:101CA800C0A6E0FBA3E475F001120D8AA9F0FAE5DD
:101CB800FC120CFB90C0A6E0FBA3E475F001120D2A
:101CC8008AA9F0FAE5FD120CFB90C0AAE024FFF007
:101CD80090C0A9E034FFF090C0A9E0FCA3E0FDECBF
:101CE800C313FFED1390C0AFCFF0A3EFF0ED540195
:101CF800FFA3E4F0A3EFF090C0AF74FFF5F0120D6E
:101D08008A45F0605BD2FE20FEFD90C0A6E0FBA3F2
:101D1800E475F001120D8AA9F0FAE5FA120CFB90AD
:101D2800C0A6E0FBA3E475F001120D8AA9F0FAE55C
:101D3800FB120CFB90C0A6E0FBA3E475F001120DAA
:101D48008AA9F0FAE5FC120CFB90C0A6E0FBA3E41C
:101D580075F001120D8AA9F0FAE5FD120CFB8097C7
:101D680090C0B1E07002A3E0602FD2FE20FEFD908B
:101D7800C0A6E0FBA3E475F001120D8AA9F0FAE50C
:101D8800FA120CFB90C0A6E0FBA3E475F001120D5B
:0E1D98008AA9F0FAE5FB120CFBE4F5F8D2AFD5
:011DA600221A
:101F5A0090C185EEF0A3EFF0A3EBF0A3EAF0A3E9BA
:011F6A00F086
:101F6B00E490C18CF0A3F0A3F0A3F0A3F0A3F09046
:101F7B00C18AE07002A3E070030220EC90C185E0FF
:101F8B00FEA3E0FFC3E49FFFE49EFED390C18BE072
:101F9B009F90C18AE09E4005EEF0A3EFF090C185C3
:101FAB00E0FAA3E0FBEAC313FCEB13FDEB5401FFD8
:101FBB0090C18CE4F0A3EFF0C2AFE4F5F1ECF5F2D5
:101FCB00AF058FF375F40175F88330FCFD90C18C70
:101FDB00E07002A3E0603D90C187E0FBA3E475F0E5
:101FEB0001120D8AA9F0FA120CB5F5FC90C187E02D
:101FFB00FBA3E475F001120D8AA9F0FA120CB5F5EA
:10200B00FDD2FE20FEFD90C18BE024FFF090C18A33
:10201B00E034FFF090C18AE0FCA3E0FDECC313FFBA
:10202B00ED1390C18ECFF0A3EFF0ED5401FFA3E4BD
:10203B00F0A3EFF075F88F90C18E74FFF5F0120DD1
:10204B008A45F0605B90C187E0FBA3E475F0011259
:10205B000D8AA9F0FA120CB5F5FA90C187E0FBA333
:10206B00E475F001120D8AA9F0FA120CB5F5FB908C
:10207B00C187E0FBA3E475F001120D8AA9F0FA12F7
:10208B000CB5F5FC90C187E0FBA3E475F001120DD4
:10209B008AA9F0FA120CB5F5FDD2FE30FE9980FB41
:1020AB0090C190E07002A3E0603275F88C90C1870C
:1020BB00E0FBA3E475F001120D8AA9F0FA120CB53E
:1020CB00F5FA90C187E0FBA3E475F001120D8AA924
:1020DB00F0FA120CB5F5FBD2FE20FEFDE4F5F8D2BA
:0120EB00AF45
:0120EC0022D1
:10405200C2AFC2D3C2D4E4F58E75C870F5CDF5CC2B
:1040620075CBBC75CACDD2ADD2C8F5937594017526
:10407200950275C960F5F875F901F5A8F5B8F59AD4
:07408200F5A9F5B90241B6F2
:1041B6007F007E80E4F51EF51F0FEFAC0670010E42
:1041C60014F5828C83E4F0051FE51F7002051EB40A
:0741D60000E7E51EB480E2E2
:0141DD0022BF
:10424F0090C400120FBA55AA5AA57B017AC47900FF
:10425F0090C18AE4F0A37402F07F047E00021F5A1B
:04437A007FF47E014D
:10437E00EF4E6010E4FD0DEDC3941840F9EF1F7081
:04438E00EF1E80ECB2
:014392002208
:103AA30090C3A5745AF0A374A5F0A3EEF0A3EFF0AE
:103AB300A3EBF0A3EDF090C3A4E0600A90C3ABE4E2
:103AC300F0A304F08007E490C3ABF0A3F07B017A8A
:103AD300C379A590C18AE4F0A37404F07FB07E009B
:103AE300121F5A12437A7B017AC379A590C0A9E4C5
:103AF300F0A304F07FB07E00121BE790C3A5E07033
:013B0300E2DF
:013B0400229E
:0540130090C3ECEFF08A
:104018007B017AC379ED90C0A9E4F0A37402F07F24
:10402800A07E00121BE790C3ECE0A3F0A37401F09C
:10403800E490C3F0F07B017AC379ED90C18AF0A3D4
:0A4048007402F07FA07E00021F5AF0
:102A220090C209E0FB90C3CEF090C20AE0FCA3E0A2
:102A3200FDA3E0FEA3E0FF7810120F8890C3CFEF52
:102A4200F090C20AE0FCA3E0FDA3E0FEA3E0FF7861
:102A520008120F8890C3D0EFF090C20AA3A3A3E09C
:102A620090C3D1F090C20EE0FCA3E0FDEC90C3D283
:102A7200F0A3EDF090C210E0FCA3E0FDEC90C3D413
:102A8200F0A3EDF0EBB4A52890C212E0FBA3E0FAAC
:102A9200A3E04A4B601A90C20EE0FEA3E0FF90C290
:102AA20012A3A3E0F990C18AECF0A3EDF0121F5A31
:102AB2007B017AC379CE90C18AE4F0A37404F07FDB
:102AC200087E00121F5A12437A7B017AC379CE9094
:102AD200C0A9E4F0A304F07F087E00121BE790C3B4
:102AE200CEE070E290C209E0B45A2F90C212E0FB2D
:102AF200A3E0FAA3E04A4B602190C20EE0FEA3E0FD
:102B0200FF90C212A3A3E0F990C210E0FDA3E090EF
:102B1200C0A9CDF0A3EDF0121BE77F327E00023E8A
:012B2200B4FE
:1027DF0090C3AD745AF090C1F9E090C3AEF06401AC
:1027EF00706790C1FAA3E090C3AFF090C1FCE0FC1A
:1027FF00A3E0FDA3E0FEA3E0FF7810120F8890C3C3
:10280F00B0EFF090C1FCE0FCA3E0FDA3E0FEA3E07D
:10281F00FF7808120F8890C3B1EFF090C1FCA3A30B
:10282F00A3E090C3B2F090C200E0FCA3E0FDEC90F7
:10283F00C3B3F0A3EDF090C202E0FCA3E0FDEC9077
:10284F00C3B5F0A3EDF0E4803B90C1F9E0640270F2
:10285F0037A3E0FCA3E0FDEC90C3AFF0A3EDF09045
:10286F00C200E0FCA3E0FDEC90C3B1F0A3EDF0904B
:10287F00C207E0FCA3E0FDEC90C3B3F0A3EDF0E4DE
:10288F00A3F0A3F0A3F0A3F07B017AC379AD90C1BD
:10289F008AE4F0A37406F07FAA7E00121F5A124337
:1028AF007A7B017AC379AD90C0A9E4F0A304F07FDD
:1028BF00AA7E00121BE790C3ADE070E290C1F9E071
:1028CF00B4012F90C204E0FBA3E0FAA3E04A4B60EF
:1028DF002190C200E0FEA3E0FF90C204A3A3E0F9A1
:1028EF0090C202E0FDA3E090C0A9CDF0A3EDF012DD
:0928FF001BE77F327E00023EB4AB
:0F444D007AC4790B121BD990C40BE0FEA3E0FFD9
:01445C00223D
:0838CC0090C3E6EEF0A3EFF05B
:1038D400A3745AF0A37401F090C3E6E0FCA3E0FDE6
:1038E400EC90C3EAF0A3EDF07B017AC379E890C1D0
:1038F4008AE4F0A37402F07F847E00121F5A1243FC
:103904007A7B017AC379E890C0A9E4F0A374021227
:103914001BE290C3E6E0FEA3E0FFA3E0B506DFA34D
:10392400E0B507DAE490C3E8F0A3F0A3F0A3F07BDA
:10393400017AC379E890C18AF0A37402F07F167EFD
:0439440000021F5A04
:083EB40090C0A4EEF0A3EFF0B2
:103EBC00E4A3F0A3F090C0A4E0FEA3E0FFC390C085
:103ECC00A7E09F90C0A6E09E5025E4FBFA7F017E00
:103EDC000012437E0BBB00010ABA01F1BB2CEE9021
:0F3EEC00C0A7E004F070CE90C0A6E004F080C63E
:013EFB0022A4
:103EFC00EF14601814602314602E240370397401BD
:103F0C00A805088002C333D8FC42B7227401A80567
:103F1C00088002C333D8FC42BC227401A805088077
:103F2C0002C333D8FC42BD22AF057401A807088038
:083F3C0002C333D8FC42BE228F
:103E1F00EF1460191460251460312403703D740190
:103E2F00A805088002C333D8FCF452B7227401A846
:103E3F0005088002C333D8FCF452BC227401A805D4
:103E4F00088002C333D8FCF452BD22AF057401A819
:0C3E5F0007088002C333D8FCF452BE22D6
:1034F700EF14602D14604A146067240360030235DB
:1035070089EB600E7401A805088002C333D8FC421A
:1035170080227401A805088002C333D8FCF45280C6
:1035270022EB600E7401A805088002C333D8FC4261
:1035370090227401A805088002C333D8FCF4529086
:1035470022EB600E7401A805088002C333D8FC4241
:10355700A0227401A805088002C333D8FCF452A046
:1035670022EB600E7401A805088002C333D8FC4221
:10357700B022AF057401A807088002C333D8FCF452
:0335870052B0221D
:103C8400EF14601A14602714603424037042740122
:103C9400A805088002C333D8FC5580FE8034740123
:103CA400A805088002C333D8FC5590FE8024740113
:103CB400A805088002C333D8FC55A0FE8014AF05C4
:103CC4007401A807088002C333D8FC55B0FE8002F3
:043CD400E4FEAF0655
:013CD80022C9
:102C01007B017AC379D690C0A9E4F0A37404F07F64
:102C1100167E00121BE790C3D6E0645A6003022CB3
:102C2100C6A3E0FFB40134A3E0FCA3E0FD90C21A07
:102C3100ECF0A3EDF090C220ECF0A3EDF090C3DA3C
:102C4100E0FCA3E0FD90C21EECF0A3EDF090C245C4
:102C5100ECF0A3EDF0A37401F08030EFB403269003
:102C6100C218E0FFA3E090C245CFF0A3EFF090C2FD
:102C710016E0FFA3E090C220CFF0A3EFF090C2478F
:102C81007402F0800690C2477403F090C3D8E0FF4D
:102C9100A3E090C216CFF0A3EFF090C3DAE0FFA358
:102CA100E090C218CFF0A3EFF0E490C3D6F07B011F
:102CB1007AC379D690C18AF0A37402F07F167E00A0
:102CC100121F5A801190C3D7E0FF64026003EF70B6
:0B2CD10005E490C247F090C247E0FF0E
:012CDC0022D5
:0819F00090C3B9EEF0A3EFF083
:1019F800122C0190C3BBEFF0700690C215F0FF22C5
:101A080090C3BBE0B4010F7AC2791C121BD990C2F3
:101A1800157401F0FF2290C21CE0FEA3E0FF90C302
:101A2800B9E06E7003A3E06F60037F012290C216D5
:101A3800E0FEA3E0FFC390C21BE09FFF90C21AE044
:101A48009E90C248F0A3EFF090C248E0FCA3E0FDEE
:101A5800FFAE04120D0DEE3395E0FDFC90C3BC12F1
:101A68000FAE90C218E0FEA3E0FFC390C21FE09F34
:101A7800FF90C21EE09E90C24AF0A3EFF090C24AC7
:101A8800E0FCA3E0FDFFAE04120D0DEE3395E0FD82
:101A9800FC90C3C0120FAE90C3BBE0640270799093
:101AA800C215E06401706B7F09FEFDFC90C3C0E0C5
:101AB800F8A3E0F9A3E0FAA3E0FBC3120F77501AEA
:101AC800E47F09FEFDFC90C3BCE0F8A3E0F9A3E0C5
:101AD800FAA3E0FBC3120F774038E47F02FEFDFC57
:101AE80090C3C0E0F8A3E0F9A3E0FAA3E0FB120E6C
:101AF8005A90C3BCE0F8A3E0F9A3E0FAA3E0FBD353
:101B0800120F7790C21550057403F0FF227404F089
:101B1800FF2290C215E0FF2290C215E06401706EAA
:101B28007F09FEFDFC90C3C0E0F8A3E0F9A3E0FA4A
:101B3800A3E0FBC3120F77501AE47F09FEFDFC9067
:101B4800C3BCE0F8A3E0F9A3E0FAA3E0FBC3120FDB
:101B5800774038E47F02FEFDFC90C3C0E0F8A3E0C4
:101B6800F9A3E0FAA3E0FB120E5A90C3BCE0F8A375
:101B7800E0F9A3E0FAA3E0FBD3120F7790C2155067
:101B8800057403F080087404F080037F022290C279
:101B980015E0B4031E90C218E0FEA3E0FFC390C294
:101BA80046E09FFF90C245E09E90C24EF0A3EFF042
:101BB8007F052290C216E0FEA3E0FFC390C221E099
:101BC8009FFF90C220E09E90C24CF0A3EFF07F06EA
:011BD80022EA
:04346300021800004B
:10432900758911E4F58CF58AC28CF51AF51C438957
:0C43390001758CBC758ACDD2A9D28C22F3
:03000B000239C4F3
:0D39C400C0E0C0D075D000C000C006C00734
:1039D100C2AF758CBC758ACD051B751D0074017E47
:1039E10000A81D088005C333CE33CED8F9FFEF55AB
:1039F1001C602DE51D25E02408F808E61618700165
:103A010016E51D25E02408F8E6FE08E64E7011AF24
:103A11001D04A807088002C333D8FC421AF4521CC3
:093A2100051DE51DB408B6D2AF85
:0B3A2A00D007D006D000D0D0D0E03292
:03002B000244018B
:10440100C0E0C2AFC2C6D2AF0519E51970020518E6
:03441100D0E032C6
:10422D00C2AF7401A807088002C333D8FCFE421C3C
:10423D00EF25E02408F8A60408A605EEF4521AD2DC
:02424D00AF229E
:1043C200C2AF7401A807088002C333D8FCF4521CA0
:0543D200521AD2AF22D7
:10441400C2AF7401A807088002C333D8FC551AFF41
:02442400D2AF15
:014426002273
:0B430C00D2B37F05124317D2B27F0529
:10431700EF600EE4FE0EC3EE648094B240F71F8098
:01432700EFA6
:014328002272
:0444920053BEF722FC
:0444960043BE0822F7
:10436000124496D2B3D2B27F0F124317C2B37F0F5B
:0A437000124317C2B27F0F02431779
:0A426F007F0F124099AF031240992F
:10427900124496C2B3D2B27F0F124317D2B37F0F43
:06428900124317024492EB
:0F445D00124496C2B312430EC2B27F0502431738
:0D447B0012449612430CC2B27F0502431793
:1042AF0012449212430CE4FD30B30A7F05124317F8
:0F42BF000DEDB432F3C2B27F05124317024496DD
:10408900124099E0FF1240991242791243607F640D
:02409900AD0771
:10409B00124496E4FCED30E704D2B38002C2B3EDD8
:1040AB0025E0FD12430EC2B27F051243170CECB490
:0540BB0008E30242AF22
:0D40F5007F0F1240991243607F65124099C1
:10410200124492E4FC12430EED25E0FD30B3054467
:1041120001FD8004ED54FEFDC2B27F051243170C6F
:06412200ECB408E1AF055A
:014128002274
:102E6C001240941240F5AB0712445D124102AA07BE
:102E7C0012447B124279EB20E003022F1A54846037
:102E8C000AEB547BFB12409412426FEB54FEFBEAAC
:102E9C0030E713547FFA1240947F10124099AF021E
:102EAC00124099124279EA4480FA1240947F10122F
:102EBC004099AF02124099124279EB4484FB1240C4
:102ECC00947F0F124099AF0312408EE4FF12409989
:102EDC00E4FF124099E4FF1240997F801240997FE1
:102EEC00051240997F011240997F011240997F2170
:102EFC00124099124279EB547BFBEA547FFA124050
:0E2F0C00947F10124099AF0212408E12426F55
:012F1A002294
:103126001240941240F590C40DEFF012445D124126
:1031360002A3EFF012447B124279E04480F0124081
:10314600947F10124099E0FF12409912427990C480
:103156000DE04484F01240947F0F124089E4FF1280
:103166004099900006120CCEFF124099900005126D
:103176000CCEFF124099900004120CCEFF1240991B
:10318600900003120CCEFF124099900002120CCE52
:10319600FF124099900001120CCEFF124099120CBA
:1031A600B5FF12409912427990C40DE0547BF0A30A
:1031B600E0547FF01240947F101240897F0F124036
:0C31C6009990C40DE0FF1240990242797C
:102DAF00124094E4FF1240991243607F65124099DC
:102DBF007B0612410274C42BF582E434C3F583EF12
:102DCF00F012445DDBEC12410290C3C4EFF01244E9
:102DDF007B12427990C3C8E0547FF0E4FB74C42B9C
:102DEF00F582E434C3F583E0FFC4540FFE90C3CCE7
:102DFF00F0EF540FFFA3F0EE75F00AA42FFF74C489
:102E0F002BF582E434C3F583EFF00BEBB403CE7BE9
:102E1F000474C42BF582E434C3F583E0FFC4540F6C
:102E2F00FE90C3CCF0EF540FFFA3F0EE75F00AA4A1
:102E3F002FFF74C42BF582E434C3F583EFF00BEB53
:102E4F00B407CEE490C3CBF07B017AC379C490C1B1
:0D2E5F008AF0A37404F07F107E00021F5A59
:10442700EF75F00A84C454F0FEEF75F00A84E5F0E6
:034437004EFF2213
:0F446C00EFC4540F75F00AA4FEEF540F2EFF2279
:07361B0090C3F1EBF0AB07D7
:10362200ED64016004EDB4021BED240CFEE4339062
:10363200C3F2F0A3CEF0EB24FFFEE434FFA3F0A329
:10364200CEF08012AF0590C3F2E4F0A3EFF0AF0327
:10365200A3E4F0A3EFF090C3F3E02401FF90C3F2E0
:10366200E03400FE7C007D1A120D0D7D0A120D1F42
:10367200AC06AD0790C3F4E0FAA3E0FBAE02780219
:10368200CEC313CE13D8F92BFFEA3ECF2DCF3CFE8B
:1036920090C3F1E07C002FFFEC3ECF24DCCF34FF5F
:0836A200FE7D07120D1FAF05AC
:0136AA0022FD
:102F1B007B017AC3798190C0A9E4F0A37404F07F9C
:102F2B009C7E00121BE790C381E0645A6003022F62
:102F3B00C9A3E064A56003022FC9A3E0FF124427D5
:102F4B0090C389EFF090C384E0FF12442790C38AAB
:102F5B00EFF090C385E0FF12442790C38BEFF09006
:102F6B00C383E0FFA3E0FDA3E0FB12361B90C38CF1
:102F7B00EFF090C386E0FF12442790C38DEFF0442F
:102F8B0080F090C387E0FF12442790C38EEFF09040
:102F9B00C388E0FF12442790C38FEFF07B017AC305
:102FAB007989123126E490C381F0A3F07AC3798139
:0E2FBB0090C18AF0A304F07F9C7E00121F5A82
:012FC90022E5
:104393007D027F03123EFC7D037F03123EFC122D40
:0943A300AFE4F518F519022F1B17
:103DD100AB07AA06A905A8047F007E387D317C00C7
:103DE100120EE5C3E49F90C0AAF074049E90C0A98E
:103DF100F043C9407D04E4FF123EFC7D05E4FF125F
:103E01003E1F43803075D88075985090C0A9E0FC62
:0D3E1100A3E0FDECF5BA8DAA43A810D2ACD9
:013E1E002281
:103E6B00AB07AA06A905A8047F007E707D627C00C3
:103E7B00120EE5C3E49F90C0AAF074049E90C0A9F3
:103E8B00F043C9207D06E4FF123EFC7D07E4FF12E0
:103E9B003E1F4380C0759B9090C0A9E0FCA3E0FD42
:083EAB00ECF5BB8D9D439A016B
:013EB30022EC
:1041DE00759680759780AB07AA06A905A8047F007F
:1041EE007EC07D897C01120EE5AD07AC06ECF5D9DB
:0741FE00AF058FE743B80C89
:014205002296
:103FD20075A78075AB80AB07AA06A905A8047F0068
:103FE2007EC07D897C01120EE5AD07AC06ECF5AE14
:103FF200AF058FAF43B830E490A01BF0A3F0A3F05D
:10400200A3F090A023F090A01FF0A3F0A3F0A3F0E0
:01401200228B
:103D2E00EF14601B1460291460372403704490C094
:103D3E00A5E0FCA3E0FDA3E0FEA3E0FF023DD190D1
:103D4E00C0A5E0FCA3E0FDA3E0FEA3E0FF023E6BF6
:103D5E0090C0A5E0FCA3E0FDA3E0FEA3E0FF0241BE
:103D6E00DE90C0A5E0FCA3E0FDA3E0FEA3E0FF1201
:033D7E003FD2220F
:101DA70090C3DEEFF0A3ECF0A3EDF0A3EBF0A3EA12
:041DB700F0A3E9F0BC
:101DBB00C2AFE4A3F0A3F090C3DFE0FEA3E0FFC348
:101DCB0090C3E5E09F90C3E4E09E4003021E7F902A
:101DDB00C3E1E0FBA3E475F001120D8AA9F0FA123E
:101DEB000CB5FF90C3DEE0FE75F009A42400F5826C
:101DFB00E5F03488F583EE75F008A42583F583E0D0
:101E0B00FCA3E0FD75F009EEA42400F582E5F034A7
:101E1B0080F583EE75F008A42583F583E5822DF517
:101E2B0082E5833CF583EFF075F009EEA42400F511
:101E3B0082E5F03488F583EE75F008A42583F583ED
:101E4B00E475F001120D7475F009EEA42400F5820F
:101E5B00E5F03488F583EE75F008A42583F583E06F
:101E6B005403F090C3E5E004F0700690C3E4E00483
:101E7B00F0021DC290C3DEE0146042146070147057
:101E8B0003021F2724036003021F57908808E0609A
:101E9B0003021F5704F0908802E0FEA3E02400F534
:101EAB008274803EF583E0F599908803E004F0702E
:101EBB0006908802E004F0908802021F5390901164
:101ECB00E06003021F5704F090900BE0FEA3E024A8
:101EDB0009F58274883EF583E0F59C90900CE00444
:101EEB00F0700690900BE004F090900B805A909855
:101EFB001AE0705804F0909814E0FEA3E02412F559
:101F0B008274903EF583E0F59E909815E004F07096
:101F1B0006909814E004F0909814802C90A023E085
:101F2B00702A04F090A01DE0FEA3E0241BF5827440
:101F3B00983EF583E0F5AC90A01EE004F07006909F
:0E1F4B00A01DE004F090A01DE05403F0D2AF02
:011F59002265
:030023000236ABF7
:1036AB00C0E0C083C082C0D075D000C006C007C2C6
:1036BB00AF30982AC298908804E0FEA3E02400F56E
:1036CB008274843EF583E599F0908805E004F070F0
:1036DB0006908804E004F0908804E05403F03099DD
:1036EB003FC299908802E0FEA3E0FF908800E06E55
:1036FB007003A3E06F602474002FF58274803EF595
:10370B0083E0F599908803E004F07006908802E05E
:10371B0004F0908802E05403F08005908808E4F0F0
:0F372B00D2AFD007D006D0D0D082D083D0E0323A
:03005300023B0568
:103B0500C0E0C083C082C0D075D000C006C007C267
:103B1500AF5396FE909814E0FEA3E0FF909812E054
:103B25006E7003A3E06F602474122FF58274903ECB
:103B3500F583E0F59E909815E004F07006909814D2
:103B4500E004F0909814E05403F0800590981AE48E
:103B5500F0D2AFD007D006D0D0D082D083D0E0321B
:03005B00023F441D
:103F4400C0E0C083C082C0D075D000C006C2AF53E9
:103F540097FE909816E0FEA3E02412F58274943E36
:103F6400F583E59FF0909817E004F070069098169A
:103F7400E004F0909816E05403F0D2AFD006D0D00D
:073F8400D082D083D0E032AF
:03006300023B65F8
:103B6500C0E0C083C082C0D075D000C006C007C207
:103B7500AF53A7FE90A01DE0FEA3E0FF90A01BE0C1
:103B85006E7003A3E06F6024741B2FF58274983E5A
:103B9500F583E0F5AC90A01EE004F0700690A01D42
:103BA500E004F090A01DE05403F0800590A023E40C
:103BB500F0D2AFD007D006D0D0D082D083D0E032BB
:03006B00023F8BC6
:103F8B00C0E0C083C082C0D075D000C006C2AF53A2
:103F9B00ABFE90A01FE0FEA3E0241BF582749C3EB9
:103FAB00F583E5ADF090A020E004F0700690A01F23
:103FBB00E004F090A01FE05403F0D2AFD006D0D0B5
:073FCB00D082D083D0E03268
:030083000233C87D
:1033C800C0E0C083C082C0D075D000C006C007C2AC
:1033D800AFE59B30E02E759B90539BFE90900DE0DF
:1033E800FEA3E02409F582748C3EF583E59CF090F9
:1033F800900EE004F0700690900DE004F090900DAF
:10340800E05403F0E59B30E143759B90539BFD909E
:10341800900BE0FEA3E0FF909009E06E7003A3E03C
:103428006F602474092FF58274883EF583E0F59C5B
:1034380090900CE004F0700690900BE004F09090EF
:103448000BE05403F08005909011E4F0D2AFD00760
:0B345800D006D0D0D082D083D0E0326C
:10358A0090C408EBF0A3EAF0A3E9F07D02E4FF128D
:10359A003EFC7D03E4FF123E1F7B017D02E4FF1225
:1035AA0034F743C98075F1FFE4F5F275F36075F4F9
:1035BA000175F88F30FCFD90C408E0FBA3E0FAA384
:1035CA00E0F9120CB5F5FA900001120CCEF5FB9059
:1035DA000002120CCEF5FC900003120CCEF5FDD2BF
:1035EA00FE20FEFDE4F5FAF5FBF5FCF5FDD2FE2022
:1035FA00FEFD75FAFF75FBFF75FCFF75FDFFD2FE38
:10360A0020FEFDE4F5F8758FA0E58F20E5FBD2B921
:01361A00228D
:10434500E5E830E51553E8DF438F407FE87E03124B
:0B435500437E538FBFE490BA28F02293
:1023D80075F1FFE4F5F275F36475F40175F88F3063
:1023E800FCFD90BA27E075F00DA42424F582E5F0F1
:1023F80034ADF583E0F5FAE4F5FBF5FCF5FDD2FE26
:1024080020FEFD90BA27E0FB75F00DA42425F58287
:10241800E5F034ADF583E0FCA3E0FDA3E0FEA3E026
:10242800FF7818120F888FFA75F00DEBA42425F5A4
:1024380082E5F034ADF583E0FCA3E0FDA3E0FEA364
:10244800E0FF7810120F888FFB90BA27E0FB75F039
:102458000DA42425F582E5F034ADF583E0FCA3E076
:10246800FDA3E0FEA3E0FF7808120F888FFC75F04B
:102478000DEBA42425F582E5F034ADF583A3A3A3E1
:10248800E0F5FDD2FE20FEFD90BA27E0FF75F00DC5
:10249800A42429F582E5F034ADF583E0F5FA75F06A
:1024A8000DEFA4242AF582E5F034ADF583E0F5FBC1
:1024B80090BA27E0FF75F00DA4242BF582E5F034DF
:1024C800ADF583E0F5FC75F00DEFA4242CF582E55D
:1024D800F034ADF583E0F5FDD2FE20FEFD90BA277D
:1024E800E0FF75F00DA4242DF582E5F034ADF583F9
:1024F800E0F5FA75F00DEFA4242EF582E5F034AD81
:10250800F583E0F5FB90BA27E0FF75F00DA4242FC2
:10251800F582E5F034ADF583E0F5FC75F00DEFA438
:102528002430F582E5F034ADF583E0F5FDD2FE20E8
:0C253800FEFD90BA27E004F0E4F5F82264
:0617790090C36A120FAEDE
:10177F00D390C370E0940090C36FE09408400302CD
:10178F0019EF90C36EE0FB90C36A30E70FE0FCA344
:10179F00E0FDA3E0FEA3E0FF7803800DE0FCA3E0F3
:1017AF00FDA3E0FEA3E0FF7815120F9B90C3791203
:1017BF000FAE90BA26E0FA75F00DA42424F582E559
:1017CF00F034ADF583E030E63890C379E0FCA3E068
:1017DF00FDA3E0FEA3E0FF75F00DEAA42425F5823A
:1017EF00E5F034ADF583120FAEEB54C0FF75F00D7D
:1017FF00EAA42424F582E5F034ADF583EFF0021965
:10180F00D390C36FE0FCA3E0FDAE047803CEC31307
:10181F00CE13D8F990C377F0ED5407A3F0E490C33B
:10182F0076F090C36EE054C0FFE4FCFDFE90C37DE4
:10183F00120FAEE490C374F090C377E0FF90C374BF
:10184F00E0C39F40030218FE90C379E0FCA3E0FDC4
:10185F00A3E0FEA3E0FF90BA26E0FB75F00DA424F1
:10186F0025F582E5F034ADF583120FAE90C37DE020
:10187F00FCA3E0FDA3E0FEA3E04408FF75F00DEB31
:10188F00A42424F582E5F034ADF583EFF0E490C3A2
:10189F0075F090C375E0FFC39408504490C371E096
:1018AF00FBA3E0FAA3E0F990C376E0F5827583001D
:1018BF00120CCEFE90BA26E075F00DA42429F58205
:1018CF00E5F034ADF583E5822FF582E43583F583BA
:1018DF00EEF090C376E004F090C375E004F080B2B0
:1018EF0090BA26E004F090C374E004F00218479019
:1018FF00C378E0FB70030219D9A3E0FCA3E0FDA3BA
:10190F00E0FEA3E0FF90BA26E075F00DA42425F5C4
:10191F0082E5F034ADF583120FAEAF0390C37DA314
:10192F00E0F9A3E0FAA3E04FFF90BA26E075F00DBF
:10193F00A42424F582E5F034ADF583EFF0E490C3F1
:10194F0075F090C378E0FF90C375E0FEC39F5044DD
:10195F0090C371E0FBA3E0FAA3E0F990C376E0F542
:10196F0082758300120CCEFF90BA26E075F00DA49D
:10197F002429F582E5F034ADF583E5822EF582E476
:10198F003583F583EFF090C376E004F090C375E0F4
:10199F0004F080AE90C375E0FFC39408502690BA50
:1019AF0026E075F00DA42429F582E5F034ADF5831A
:1019BF00E5822FF582E43583F583E4F090C375E07B
:1019CF0004F080D090BA26E004F090BA28E07010AE
:1019DF00C2AF1223D8D2AF90BA287401F0438F044C
:0119EF0022D5
:03004B0002141F7D
:10141F00C0E0C0F0C083C082C0D075D000C000C093
:0D142F0001C002C003C004C005C006C00714
:10143C00C2AFE59130E70353913FE59120E60302FB
:10144C00171F5391BF75F1FF75F20075F36875F4B2
:10145C000175F8AF30FCFDD2FE20FEFD90C064E5B6
:10146C00FAF0E0FF90BA24E075F00DA42424F58284
:10147C00E5F034A0F583EFF0D2FE20FEFD90BA2407
:10148C00E075F00DA42425F582E5F034A0F583C0B9
:10149C0083C082E0FCA3E0FDA3E0FEA3E0FF78089C
:1014AC00120F9BD082D083120FAE90BA24E075F04D
:1014BC000DA42425F582E5F034A0F583C083C08209
:1014CC00E0F8A3E0F9A3E0FAA3E0FBAFFAEB4FFFDF
:1014DC00EAFEE9FDE8FCD082D083120FAE90BA246C
:1014EC00E075F00DA42425F582E5F034A0F583C059
:1014FC0083C082E0FCA3E0FDA3E0FEA3E0FF78083C
:10150C00120F9BD082D083120FAE90BA24E075F0EC
:10151C000DA42425F582E5F034A0F583C083C082A8
:10152C00E0F8A3E0F9A3E0FAA3E0FBAFFBEB4FFF7D
:10153C00EAFEE9FDE8FCD082D083120FAE90BA240B
:10154C00E075F00DA42425F582E5F034A0F583C0F8
:10155C0083C082E0FCA3E0FDA3E0FEA3E0FF7808DB
:10156C00120F9BD082D083120FAE90BA24E075F08C
:10157C000DA42425F582E5F034A0F583C083C08248
:10158C00E0F8A3E0F9A3E0FAA3E0FBAFFCEB4FFF1C
:10159C00EAFEE9FDE8FCD082D083120FAE90BA24AB
:1015AC00E075F00DA42425F582E5F034A0F583C098
:1015BC0083C082E0FCA3E0FDA3E0FEA3E0FF78087B
:1015CC00120F9BD082D083120FAE90BA24E075F02C
:1015DC000DA42425F582E5F034A0F583C083C082E8
:1015EC00E0F8A3E0F9A3E0FAA3E0FBAFFDEB4FFFBB
:1015FC00EAFEE9FDE8FCD082D083120FAE90BA244B
:10160C00E075F00DA42425F582E5F034A0F583C037
:10161C0083C082E0FCA3E0FDA3E0FEA3E0FF78031F
:10162C00120F88D082D083120FAE90C064E020E7F6
:10163C002D90BA24E075F00DA42425F582E5F03444
:10164C00A0F583C083C082E0FCA3E0FDA3E0FEA371
:10165C00E0FF7812120F88D082D083120FAE90C0A8
:10166C0064E030E603021716D2FE20FEFD90BA2489
:10167C00E0FF75F00DA42429F582E5F034A0F58384
:10168C00E5FAF075F00DEFA4242AF582E5F034A00C
:10169C00F583E5FBF075F00DEFA4242BF582E5F056
:1016AC0034A0F583E5FCF075F00DEFA4242CF58245
:1016BC00E5F034A0F583E5FDF0D2FE20FEFD90BAF6
:1016CC0024E0FF75F00DA4242DF582E5F034A0F58F
:1016DC0083E5FAF075F00DEFA4242EF582E5F034D5
:1016EC00A0F583E5FBF075F00DEFA4242FF582E552
:1016FC00F034A0F583E5FCF075F00DEFA42430F583
:10170C0082E5F034A0F583E5FDF075F80090BA247D
:10171C00E004F0E59130E51A5391DF90BA26E0FF32
:10172C00A3E06F60081223D8438F04800590BA2879
:10173C00E4F0E59130E4035391EFE59130E303538A
:10174C0091F7E59130E2065391FB438F0475E80065
:02175C00D2AF0A
:10175E00D007D006D005D004D003D002D001D000DF
:0B176E00D0D0D082D083D0F0D0E03289
:10394800737472696E67203100737472696E6720D0
:1039580032004633000025732531306400746573E6
:10396800740046340000737472696E672034004630
:10397800350000463600002530325800FF4129FF47
:1039880040C0FF42CEFF3C25FF42EDFF43ACFF4164
:103998005BFF415BFF415BFF415BFF415BFF415BBD
:1039A800FF415BFF415BFF415BFF415B1000120081
:0C39B8001400160018002000220024005B
:1034670020362204220031002004320440043504AF
:103477003C044F0020043F04400435043404320068
:103487002E0020043F0440043E0434044304320465
:103497003A0438002C0020000041BEAE0041BD496F
:1034A7000041BEE50042BEE9200041BD430042BEE7
:0B34B700E2000041BD460041BD47009F
:0A44880075F90175BCFD7590FD2269
:0C415B0090BD43E030E005120000801B26
:10416700E490C40FF0A3F07B017AC4790F90C18A61
:0B417700F0A304F07F007E95121F5A99
:0641820090BD43E004F0D3
:014188002214
:08327E0090C2D2EEF0A3EFF0C4
:10328600A3E4F0A37403F0A3E4F0A37403F0E4A3AF
:10329600F0A3F0A3ECF0A3EDF0A37403F0A374FF86
:1032A600F0ED2464FEE43CA3F0A3CEF074FFA3F09B
:1032B600A3F0A3E4F0A304F02DFEE43CA3F0A3CE18
:1032C600F0A37403F0A374FEF0ED2463FEE43CA3C4
:1032D600F0A3CEF074FFA3F0A3F0A3E4F0A374026E
:1032E600F02DFEE43CA3F0A3CEF0A37403F0A37488
:1032F600FDF0ED2462FEE43CA3F0A3CEF074FFA340
:10330600F0A3F0A3F0A3E4F07B017AC279D490C1D4
:0D3316008AF0A3741EF07F007E30021F5A63
:0B3CD90090C192EBF0A3EAF0A3E9F029
:103CE4001243ECEF04FFE4FEEEC39F502890C19210
:103CF400E0FBA3E0FAA3E0F98E82758300120CCEF8
:103D0400FDEE25E02495F582E434C1F583E4F0A3C7
:103D1400EDF00E80D37B017AC1799590C18AE4F0ED
:0A3D2400A3EFF07F007E11021F5A8A
:1041290090BEE3E0249CF090BEE2E034FFF0D3A31C
:10413900E0940090BEE2E06480948050077402F03D
:10414900A374BCF090BEE2E0FCA3E0FDE4FFFE0234
:02415900327EB4
:1040C00090BEE3E02464F090BEE2E03400F0E0B49F
:1040D000030CA3E0B42007E490BEE2F0A3F090BE8E
:1040E000E2E0FCA3E0FDE4FFFE12327E7BFF7A39C2
:0540F0007948023CD9F3
:1042CE007BFF7A397951123CD97BFF7A39795A9032
:0F42DE00C18AE4F0A37404F07F007E12021F5A1D
:103C250090C34574FFF0A37439F0A3745EF0A374D8
:103C3500FFF0A37439F0A37465F090BD44E0FFA3D1
:103C4500E090C34BCFF0A3EFF07B017AC37910125C
:103C5500111F90BD45E004F0700690BD44E004F0EE
:103C65007B017AC37910123CD97BFF7A39796A9046
:0F3C7500C18AE4F0A37404F07F007E12021F5A8C
:1042ED007BFF7A39796E123CD97BFF7A39797790D9
:0F42FD00C18AE4F0A37404F07F007E12021F5AFE
:1043AC007BFF7A39797B90C18AE4F0A37404F07FA7
:0643BC00007E12021F5AF0
:103BC50090C291EEF0A3EFF0A3EBF0A3EAF0A3E926
:013BD500F0FF
:103BD6001243ECEF04FFE4FEEEC39F502890C2931D
:103BE600E0FBA3E0FAA3E0F98E82758300120CCE07
:103BF600FDEE25E02496F582E434C2F583E4F0A3D5
:103C0600EDF00E80D390C291E0FEA3E0FF7B017A37
:0F3C1600C2799690C18AE4F0A3743CF0021F5A61
:10226300124052124329D2AF124488122B2390C03A
:10227300A5120FBA0001C2007F03123D2EE490BEE7
:10228300E8F090BEAFF090BD4AF090BD48F0124424
:01229300A1A9
:102294007B017AC0796590C0A9E4F0A37403F07F50
:1022A400167E00121BE790C065E0B45AE3E4F07BAD
:1022B400017AC0796790C18AF0A304F07F167E008A
:0322C400121F5A8C
:1022C70090C066E0FF90C06BE4F0A3EFF07B017A6B
:1022D700C0796B90C18AE4F0A304F07F007E4012BE
:1022E7001F5A7B017AC0796790C18AE4F0A3740210
:0822F700F07F007E52121F5A15
:0722FF0090C066E014708E30
:10230600E490C06BF090BEF5E0FF90C06BE0FEC3BA
:102316009F40030223A090BEF6E0FBA3E0FAA3E0F1
:10232600F975F009EEA4F58285F083120DCBFFC393
:1023360090C068E09F90C067E095F0405490C06BF5
:10234600E075F009A4FF90BEF6A3A3E02FF9EA35E5
:10235600F0FA900004120DCBFFD390C068E09F9076
:10236600C067E095F0502A900002120DCBFFC39093
:10237600C06AE09F90C069E095F040159000061293
:102386000DCBFFD390C06AE09F90C069E095F04006
:0A2396000990C06BE004F002230B75
:1023A00090C06BE0FFA3E4F0A3EFF07B017AC0796B
:1023B0006C90C18AE4F0A304F07F007E25121F5ABE
:1023C00090C06BE090BEF4F090BEF9E0FEA3E0AAEE
:0823D00006F9121047022294E5
:03449E00FF44A434
:0144A40022F5
:103A3500C2AFE4F5F1F5F275F30A75F40175F8AF67
:103A450030FCFDD2FE20FEFDAFFA90C411E4F0A3D8
:103A5500EFF0E07F00FE90C411F0A3EFF0ADFBEDB9
:103A6500FF90C411EEF0A3EFF0E4F5F8D2AF90C4E7
:103A750011E0FEA3E0FF90449E75F003120FEBEEFC
:103A850075F003A42583F583E493FB740193FA741D
:0D3A95000293F94A600789828A8312104B60
:013AA2002201
:04449A000F4072005D
:1037C60078047CC47D017BFF7A44799A7E007F046D
:1037D600120C8F90C0A5120FBA0001C200E4FF12AE
:1037E6003D2E7B017AC4790412358A90BA29740178
:1037F600F0A37484F0A37400F0A37401F0A374889A
:10380600F0A37404F0A37401F0A37488F0A3740603
:10381600F0A37404F0A3E4F07B01A304F0A374BA4C
:10382600F0A3743FF0A3EBF0A374BBF0A3743FF0D6
:10383600A3EBF0A374BBF0A37441F0A37401F0A34F
:02384600E4F0AC
:01384800225D
:103849007B017ABB794390C0A9E4F0A37402F07FAD
:10385900007E0F121BE790BB43E0645A7062F07B55
:10386900017ABB794390C18AF0A37402F07F007E8C
:103879000F121F5A90BB46E0FDC394C840027D64F5
:1038890090BB44E0FEA3E0FBAA0690BB43745AF048
:10389900A374A5F0ED25E02404A3F0A37483F0EA52
:1038A900A3F0A3EBF0A3EDF0AE02AF037B017ABB6B
:1038B900794A90C0A9E4F0A3EDF0121BE77F012239
:0238C9007F007E
:0138CB0022DA
:0B06830090C391EBF0A3EAF0A3E9F0B4
:10068E00C2AF900003121017120DA0FFAEF090C370
:10069E009CEEF0A3EFF0D2AF90C391E0FBA3E0FA93
:1006AE00A3E0F9900006121017120DA0FDACF06F2A
:1006BE007002EC6E7003020BBCC390C39DE09D9064
:1006CE00C39CE09C90C391E0FBA3E0FAA3E0F95039
:1006DE0021900009120DCBFF90C39DE02FFF90C318
:1006EE009CE035F0CFC39DCF9C90C394F0A3EFF068
:1006FE00801E900006121017120DA0FFC390C39D0E
:10070E00E09FFE90C39CE095F090C394F0A3CEF0D2
:10071E00C390C395E0940690C394E0940050037F79
:10072E00002290C391E0FBA3E0FAA3E0F99000064B
:10073E00121017120DA0FDACF090C391E0FBA3E0D8
:10074E00FAA3E0F9120FF78D828C83120CCEFF9074
:10075E00C39AE4F0A3EFF0E0F8E4F0E890C39AF067
:10076E00ED2401FFE43CFE90C39EF0A3EFF090C396
:10077E0091E0FBA3E0FAA3E0F9900009120DCBFD86
:10078E00C3EF9DEE95F04007E490C39EF0A3F012E8
:10079E000FF790C39EE0FEA3E0F5828E83120CCE7F
:1007AE00FF90C39AE0FEA3E04FFF90C39AEEF0FED7
:1007BE00A3EFF064A57003EE645A6003020B67901A
:1007CE00C391E0FBA3E0FAA3E0F990000612101724
:1007DE00120DA02403FFE435F0FE90C39EF0A3EFAC
:1007EE00F090C391E0FBA3E0FAA3E0F990000912A8
:1007FE000DCBFDC3EF9DEE95F04007E490C39EF048
:10080E00A3F0120FF790C39EE0FEA3E0F5828E8355
:10081E00120CCE6482600302099590C391E0FBA393
:10082E00E0FAA3E0F9900006121017120DA02402B0
:10083E00FFE435F0FE90C39EF0A3EFF090C391E07D
:10084E00FBA3E0FAA3E0F9900009120DCBFDC3EF74
:10085E009DEE95F04007E490C39EF0A3F090C391F7
:10086E00E0FBA3E0FAA3E0F9120FF790C39EE0FEBF
:10087E00A3E0F5828E83120CCE2403FFE433FE90A8
:10088E00C396F0A3EFF0C390C395E09F90C394E09E
:10089E009E5003020BBCE490C398F0A3F090C39655
:1008AE00E0FEA3E0FFA3E0FCA3E0FDC39FEC9E40AF
:1008BE000302096190C391E0FBA3E0FAA3E0F99073
:1008CE000006121017120DA0FFAEF090C391E0FBC0
:1008DE00A3E0FAA3E0F9120FF78F828E83120CCEEB
:1008EE00FF74432DF58274BB3CF583EFF090C391FA
:1008FE00E0FBA3E0FAA3E0F9900006121017E475EE
:10090E00F001120E0390C391E0FBA3E0FAA3E0F90D
:10091E00900006121017120DA0FFAEF090C391E0DA
:10092E00FBA3E0FAA3E0F9900009120DCBFDC3EF93
:10093E009DEE95F0400C900006121017E4F5F012A3
:10094E000E3B90C399E004F0700690C398E004F05B
:10095E000208AB90BB47E0FEA3E0FF7B017ABB79B8
:10096E004990BB45E024FDC313FD90C18AE4F0A37A
:10097E00EDF0121F5A90BB457403F090BB47744FB5
:10098E00F0A3744B020B1890C391E0FBA3E0FAA303
:10099E00E0F9120FF790C39EE0FEA3E0F5828E837E
:1009AE00120CCE64836003020B1C90C391E0FBA378
:1009BE00E0FAA3E0F9900006121017120DA024021F
:1009CE00FFE435F0FE90C39EF0A3EFF090C391E0EC
:1009DE00FBA3E0FAA3E0F9900009120DCBFDC3EFE3
:1009EE009DEE95F04007E490C39EF0A3F090C39166
:1009FE00E0FBA3E0FAA3E0F9120FF790C39EE0FE2E
:100A0E00A3E0F5828E83120CCE2403FFE433FE9016
:100A1E00C396F0A3EFF0C390C395E09F90C394E00C
:100A2E009E5003020BBCE490C398F0A3F090C396C3
:100A3E00E0FEA3E0FFA3E0FCA3E0FDC39FEC9E401D
:100A4E0003020AF190C391E0FBA3E0FAA3E0F99050
:100A5E000006121017120DA0FFAEF090C391E0FB2E
:100A6E00A3E0FAA3E0F9120FF78F828E83120CCE59
:100A7E00FF74432DF58274BB3CF583EFF090C39168
:100A8E00E0FBA3E0FAA3E0F9900006121017E4755C
:100A9E00F001120E0390C391E0FBA3E0FAA3E0F97C
:100AAE00900006121017120DA0FFAEF090C391E049
:100ABE00FBA3E0FAA3E0F9900009120DCBFDC3EF02
:100ACE009DEE95F0400C900006121017E4F5F01212
:100ADE000E3B90C399E004F0700690C398E004F0CA
:100AEE00020A3B90BB47E0FEA3E0FF7B017ABB7995
:100AFE004AA3E0FD90C0A9E4F0A3EDF0121BE7902D
:100B0E00BB49E025E0240490BB45F07F012290C351
:100B1E0091E0FBA3E0FAA3E0F9900006121017E4AF
:100B2E0075F001120E0390C391E0FBA3E0FAA3E06F
:100B3E00F9900006121017120DA0FFAEF090C3919F
:100B4E00E0FBA3E0FAA3E0F9900009120DCBFDC380
:100B5E00EF9DEE95F04057804990C391E0FBA3E0E6
:100B6E00FAA3E0F9900006121017E475F001120EC8
:100B7E000390C391E0FBA3E0FAA3E0F99000061204
:100B8E001017120DA0FFAEF090C391E0FBA3E0FA98
:100B9E00A3E0F9900009120DCBFDC3EF9DEE95F089
:100BAE00400C900006121017E4F5F0120E3B7F0079
:010BBE002214
:1026A30090BA25E0FF90BA24E06F700302273C75CF
:1026B300F00DEFA42425F582E5F034A0F583E0FCCA
:1026C300A3E0FDA3E0FEA3E0FFE47B23FAF9F8C354
:1026D300120F77705E90BA25E075F00DA42424F5EF
:1026E30082E5F034A0F583E0540FFFE4FEEEC39FD0
:1026F300504190BA25E075F00DA42429F582E5F048
:1027030034A0F583E5822EF582E43583F583E0FD7D
:1027130090BB3FE0FAA3E0243FF58274BA3AF58315
:10272300EDF090BB40E004F0700690BB3FE004F096
:102733000E80BA90BA25E004F0123849EF640170B4
:102743004190BB45E02403FDE433FC7B017ABB7974
:1027530043E4FF121DA7E490C36EF090BB45E02451
:1027630003FEE43390C36FF0A3CEF0A37401F0A390
:1027730074BBF0A37443F07F237E007D007C0012C2
:1027830017797B017ABA7929120683BF011590BBA9
:1027930045E02403FDE433FC7B017ABB7943E4FF8A
:1027A300121DA77B017ABA7934120683BF012CE488
:1027B30090C36EF090BB45E02403FEE43390C36FF7
:1027C300F0A3CEF0A37401F0A374BBF0A37443F0A1
:0B27D3007F247E007D007C001217793F
:0127DE0022D8
:10443A00FF988103FF988104FF988101FF9881000A
:03444A0035112900
:0234C200C1093E
:10307900E490C3F6F0A3F0A374B0F0A374FAF0C21D
:1030890090C2947F057E0012437EE490C3FAF090CB
:10309900C3F8E0A330E704D2928002C292C2937FC0
:1030A900057E0012437ED2937F057E0012437E90F7
:1030B900C3F9E025E0F090C3F8E033F090C3FAE0FB
:1030C90004F0E0C3941040C7D2947F057E001243F8
:1030D9007EE490C3FAF0C2937F057E0012437ED24C
:1030E900937F057E0012437E90C3F7E025E0F090C0
:1030F900C3F6E033F0309107E0F0A3E04401F0902B
:10310900C3FAE004F0E0C3941040CBD2907F057E6F
:0C3119000012437E90C3F6E0FEA3E0FF2E
:013125002287
:102FCA00E490C3FBF0A3F0EFFF74FAA3CFF0A3EFF2
:102FDA00F0C290C2947F057E0012437EE490C3FF44
:102FEA00F090C3FDE0A330E704D2928002C292C2FD
:102FFA00937F057E0012437ED2937F057E001243A3
:10300A007E90C3FEE025E0F090C3FDE033F090C36C
:10301A00FFE004F0E0C3941040C7D2947F057E001D
:10302A0012437EE490C3FFF0C2937F057E001243F1
:10303A007ED2937F057E0012437E90C3FCE025E09A
:10304A00F090C3FBE033F0309107E0F0A3E04401D5
:10305A00F090C3FFE004F0E0C3941040CBD2907F1D
:0E306A00057E0012437E90C3FBE0FEA3E0FF54
:013078002235
:103D810090C0AEEFF0C290C2947F057E0012437ED8
:103D9100E490C0ADF090C0AEE030E704D292800272
:103DA100C292C2937F057E0012437ED2937F057E2D
:103DB1000012437E90C0AEE025E0F090C0ADE0047B
:103DC100F0E0C3940840CED2907F057E0002437E8E
:052CDD00E4FDFC7FB8DE
:102CE20090C0AEEFF0ECA3F0A3EDF0C290C2947FDF
:102CF200057E0012437EE490C0ADF090C0AEE0309D
:102D0200E704D2928002C292C2937F057E001243F0
:102D12007ED2937F057E0012437E90C0AEE025E016
:102D2200F090C0ADE004F0E0C3940840CED2947FAE
:102D3200057E0012437EE490C0ADF090C0B0E0305A
:102D4200E704D2928002C292C2937F057E001243B0
:102D52007ED2937F057E0012437E90C0B0E025E0D4
:102D6200F090C0ADE004F0E0C3940840CEE490C01F
:102D7200ADF090C0AFE030E704D2928002C292C2BE
:102D8200937F057E0012437ED2937F057E0012431D
:102D92007E90C0AFE025E0F090C0ADE004F0E0C36B
:0D2DA200940840CED2907F057E0002437E53
:063323007BFF7D047C002D
:0B33290090C0A4EBF0A3EAF0A3E9F0D1
:10333400AE04AF05A3EEF0A3EFF07FBC122CE29035
:10334400C0A7E0FCA3E0FD7FBE122CE27FBF123DCC
:1033540081C290D2947F057E0012437E90C0A774F0
:10336400FFF5F0120D8A45F0605190C0A4E0FBA374
:10337400E475F001120D8AA9F0FA120CB590C0AAF6
:10338400F0E490C0A9F090C0A9E0C3940850CDA384
:10339400E030E704D2928002C292C2937F057E009D
:1033A40012437ED2937F057E0012437E90C0AAE032
:1033B40025E0F090C0A9E004F080CBD2907F057E98
:0433C4000002437E42
:1031D20090C0AA7401F0A374C0F0A374A8F090C0C8
:1031E200A8EFF0A3EDF090C0A4E4F0A37402F0FD08
:1031F2007C007FBC122CE290C0A4E0FCA3E0FD7F27
:10320200BE122CE27FBF123D81C290D2947F0F7E0C
:103212000012437E90C0A474FFF5F0120D8A45F0AF
:10322200605190C0AAE0FBA3E475F001120D8AA9D7
:10323200F0FA120CB590C0A7F0E490C0A6F090C0CE
:10324200A6E0C3940850CDA3E030E704D2928002F6
:10325200C292C2937F0F7E0012437ED2937F0F7E73
:103262000012437E90C0A7E025E0F090C0A6E004E3
:0C327200F080CBD2907F0F7E0002437EE4
:100103007A44793A123323E4FD7F011231D2E4FDBC
:100113007F021231D27D577F031231D27DD37F0408
:100123001231D2E4FD7F051231D27D117F061231E7
:10013300D27D087F071231D2E4FD7F081231D2E469
:10014300FD7F091231D27D3F7F0A1231D2E4FD7F58
:100153000B1231D2E4FD7F0C1231D2E4FD7F0D127C
:1001630031D2E4FD7F0E1231D27D3F7F0F1231D2A7
:100173007D3F7F101231D2E4FD7F111231D2E4FDB5
:100183007F121231D2E4FD7F131231D2E4FD7F14CA
:100193001231D2E4FD7F151231D2E4FD7F16123104
:1001A300D2E4FD7F171231D2E4FD7F181231D2E47D
:1001B300FD7F191231D2E4FD7F1A1231D2E4FD7FA3
:1001C3001B1231D2E4FD7F1C1231D2E4FD7F1D12DC
:1001D30031D27D407F1E1231D27D807F1F1231D2FA
:1001E3007D067F201231D27D017F211231D2E4FDC1
:1001F3007F221231D2E4FD7F231231D2E4FD7F242A
:100203001231D2E4FD7F251231D2E4FD7F26123173
:10021300D2E4FD7F271231D27D337F281231D27D84
:10022300337F291231D2E4FD7F2A1231D2E4FD7FDC
:100233002B1231D2E4FD7F2C1231D2E4FD7F2D123B
:1002430031D2E4FD7F2E1231D2E4FD7F2F1231D261
:10025300E4FD7F301231D2E4FD7F311231D2E4FD6F
:100263007F321231D2E4FD7F331231D2E4FD7F3489
:100273001231D2E4FD7F351231D2E4FD7F361231E3
:10028300D2E4FD7F371231D27D787F381231D2E448
:10029300FD7F391231D2E4FD7F3A1231D2E4FD7F82
:1002A3003B1231D2E4FD7F3C1231D2E4FD7F3D129B
:1002B30031D2E4FD7F3E1231D2E4FD7F3F1231D2D1
:1002C300E4FD7F401231D2E4FD7F411231D2E4FDDF
:1002D3007F421231D2E4FD7F431231D2E4FD7F44E9
:1002E3001231D2E4FD7F501231D27D237F5112317E
:1002F300D27D457F521231D27D677F531231D27D39
:10030300897F541231D27DAB7F551231D27D017F6B
:10031300561231D27D237F571231D27D457F581239
:1003230031D27D677F591231D27D897F5A1231D202
:100333007DAB7F5B1231D27DCD7F5C1231D27DEFFD
:100343007F5D1231D2E4FD7F5E1231D27D0D7F5F7E
:100353001231D27D0D7F601231D27D0C7F6112315B
:10036300D27D0C7F621231D27D0F7F631231D27D39
:100373000F7F641231D27D0E7F651231D27D0E7FE5
:10038300661231D27D087F671231D27D027F6812F7
:1003930031D27D027F691231D27D027F6A1231D25E
:1003A3007D027F6B1231D27D027F6C1231D27D02CE
:1003B3007F6D1231D27D027F6E1231D27D027F6F4B
:1003C3001231D27D147F701231D27D157F711231BB
:1003D300D27D067F721231D27D027F731231D27DBC
:1003E300027F741231D27D0D7F751231D27D0D7F64
:1003F300761231D27D0C7F771231D27D0C7F781249
:1004030031D27D0F7F791231D27D0F7F7A1231D2B3
:100413007D0E7F7B1231D27D0E7F7C1231D27D081F
:100423007F7D1231D27D027F7E1231D27D027F7FAA
:100433001231D27D027F801231D27D027F8112314F
:10044300D27D027F821231D27D027F831231D27D2F
:10045300027F841231D27D027F851231D27D147FD7
:10046300861231D27D157F871231D27D067F8812A5
:1004730031D27D027F891231D27D027F8A1231D23D
:100483007A44793E1233237D3B7F6E1231D27D57FE
:100493007F6F1231D27D247F3A1231D27D1F7F8D3F
:1004A3001231D27DBA7F871231D27DD17FB2123120
:1004B300D27D0B7F881231D27D017F381231D2E495
:1004C300FD7F391231D27D077FB51231D27D757F21
:1004D300311231D27D987F3B1231D27BFF7A44793E
:1004E300421233257D0A7F221231D27D097F3112D8
:1004F30031D27D077F351231D27D677F531231D2DE
:100503007D847F551231D27D867F501231D27D8218
:100513007F511231D27D107F601231D2E4FD7F62B0
:100523001231D2E4FD7FA01231D27D127FA11231AC
:10053300D27D1F7FA21231D27D127FA31231D27DD1
:10054300167FA41231D27D297FA51231D27D1E7F61
:10055300A61231D27D1F7FA71231D27D7E7FA812D2
:1005630031D27D1B7FA91231D27D287FAA1231D2CD
:100573007D6D7FAB1231D27D197FAC1231D27D18E4
:100583007FAD1231D27D4C7FAE1231D27D1E7FAF53
:100593001231D27D237FB01231D27D527FB112311D
:1005A300D27D6D7FB21231D27D3F7FB31231D2E45F
:1005B300FD7FC01231D27D127FC11231D27D207FE7
:1005C300C21231D27D107FC31231D27D137FC41288
:1005D30031D27D277FC51231D27D1B7FC61231D226
:1005E3007D1D7FC71231D27D757FC81231D27D1F29
:1005F3007FC91231D27D287FCA1231D27D687FCB69
:100603001231D27D1A7FCC1231D27D187FCD1231B7
:10061300D27D4D7FCE1231D27D257FCF1231D27D57
:100623002E7FD01231D27D537FD11231D27D607FA4
:10063300D21231D27D3F7FD31231D27BFF7A4479FC
:10064300461233257BFF7A44794A7D017C001233BD
:10065300297F8C7E00123EB47BFF7A44794B7D0167
:100663007C001233297F787E00123EB47BFF7A44EC
:10067300794C7D017C001233297FAA7E00023EB4AF
:104189007D067C087FB1122CE27D227C187FB21259
:104199002CE27D127C687FB3122CE27D207C037FA8
:0D41A900B4122CE27D007C057FB5022CE2F3
:102B23007D507C007FB7122CE2122CDDE4FDFC7F8C
:102B3300B9122CE27D0A7C807FBA122CE27D067CDE
:102B4300007FBB122CE27D017C007FB9122CE2E4F2
:102B5300FDFC7FDE122CE27D027C237FC9122CE276
:102B63007F0A7E00123EB41201037D517C017FB7C0
:102B7300122CE2122CDDE4FDFC7FB9122CE27D1550
:102B83007C807FBA122CE27D057C007FBB122CE295
:102B93007D017C007FB9122CE27D027C237FC91268
:102BA3002CE27F0A7E00123EB47D017C237FCA1291
:102BB3002CE27D107C057FCB122CE27D057C107FFF
:102BC300CC122CE27DFF7C007FD0122CE2124189D3
:102BD3007DD37C007FB6122CE27D037C007FDE1266
:102BE3002CE27D047C007FD6122CE27D4B7C027F9D
:0E2BF300B7122CE27F3C7E00123EB4D20922C3
:1043D70000006800007700007B00006200006500B5
:0543E700005D00006C08
:1034C400086F070007140B0D0315046803000102BD
:1034D400047703030405047B030607080362020957
:1034E4000A0365020B0C055D040D0E0F10036C023C
:0234F4001516AB
:1025440090C0B6EEF0A3EFF0A3EBF0A3EAF0A3E99A
:01255400F096
:1025550090C0BD7424F0A37407F0120CB5FF90C0B1
:10256500BFE4F0A3EFF090C0BC7402F0E490C0BBF0
:10257500F090C0B8E0FBA3E0FAA3E0F9120CB5FFB8
:1025850090C0BBE0FEC39F40030226749000011279
:102595001017EE75F009A429F9EA35F0FA9000084C
:1025A500120CCE6417700302266B90C0B8E0FBA333
:1025B500E0FAA3E0F990000112101790C0BBE0FF0C
:1025C50075F009A4F58285F083120DCBFD90C0BC92
:1025D500E025E024BDF582E434C0F583E5F0F0A301
:1025E500EDF090C0BCE004F090C0B8E0FBA3E0FAC9
:1025F500A3E0F9900001121017EF75F009A429F96D
:10260500EA35F0FA900002120DCBFF90C0BCE02530
:10261500E024BDF582E434C0F583E5F0F0A3EFF0E6
:1026250090C0BCE004F090C0B8E0FBA3E0FAA3E0E2
:10263500F990000112101790C0BBE075F009A429AC
:10264500F9EA35F0FA900008120CCEFF90C0BCE014
:1026550025E024BDF582E434C0F583E4F0A3EFF072
:1026650090C0BCE004F090C0BBE004F00225769079
:10267500C0BCE0FD25E024BDF582E434C0F58374DB
:10268500FFF0A3E4F090C0B6E0FEA3E0FF7B017A83
:0E269500C079BD90C18AE4F0A3EDF0021F5A97
:10428F0090BEF4E075F009A42404F582E5F034BF84
:10429F00F583E0FF90BEFBE0246FF8A60702290824
:1020ED0090C0ACE4F0A37464F0E4A3F0A3F0A37487
:1020FD0002F0A37458F090BEF4E06407700302225E
:10210D006290BEF4E090BEFBF075F003A424D7F509
:10211D0082E43443F583E493FB740193FA740293E0
:10212D00F9120CB590BEF5F090BEF4E0FF75F0031A
:10213D00A424D7F582E43443F583E493FB7401932F
:10214D00FA7402932401F9E43AFA90C0B3EBF0A3C8
:10215D00EAF0A3E9F0EF75F064A4FF90C0AEE5F0EE
:10216D00F0A3EFF090BEF97442F0A3748FF0E490F9
:10217D00C0B2F090BEF5E0FF90C0B2E0FEC39F404C
:10218D0003022255A3E0FBA3E0FAA3E0F98E8275CA
:10219D008300120CCEFF75F009EEA42404F582E540
:1021AD00F034BFF583EFF090C0AEE0FEA3E0FF90FA
:1021BD00C0B2E0FD75F009A424FCF582E5F034BE53
:1021CD00F583EEF0A3EFF090C0B0E0FAA3E0FB755D
:1021DD00F009EDA424FEF582E5F034BEF583EAF0B6
:1021ED00A3EBF090C0ACE0FCA3E0FDEF2DFFEE3CC7
:1021FD00FE90C0B2E0FD75F009A42400F582E5F073
:10220D0034BFF583EEF0A3EFF090C0ACE0FEA3E099
:10221D00FF90C0B1E02FFF90C0B0E03EFE75F00919
:10222D00EDA42402F582E5F034BFF583EEF0A3EFC3
:10223D00F090C0B1E0249CF090C0B0E034FFF0907D
:10224D00C0B2E004F00221807B017ABE79F57F00F7
:05225D007E95122544EE
:012262002259
:1029080090C0A4E4F0A37464F0E4A3F0A3F0A3746B
:0629180002F0A374BCF004
:10291E00E4A3F0A3F07B017AC079AA90C18AF0A358
:09292E0004F07F007E95121F5A8F
:1029370090BEF97420F0A374EDF090BEF67401F028
:10294700A374BEF0A374FCF090BEF57408F0E4FF26
:1029570090BEF5E0FEEFC39E4003022A15746F2F69
:10296700F8E6FE75F009EFA42404F582E5F034BF1C
:10297700F583EEF090C0A6E0FCA3E0FD75F009EF4B
:10298700A424FCF582E5F034BEF583ECF0A3EDF06A
:1029970090C0A8E0FCA3E0FD75F009EFA424FEF5C4
:1029A70082E5F034BEF583ECF0A3EDF090C0A4E02F
:1029B700FCA3E0FD90C0A7E02DFD90C0A6E03CFC85
:1029C70075F009EFA42400F582E5F034BFF583EC38
:1029D700F0A3EDF090C0A4E0FCA3E0FD90C0A9E057
:1029E7002DFD90C0A8E03CFC75F009EFA42402F58A
:1029F70082E5F034BFF583ECF0A3EDF090C0A7E0DB
:102A07002464F090C0A6E03400F00F0229577B0140
:0B2A17007ABE79F57F007E9002254416
:0344A100022908E5
:0144A50022F4
:0144A60022F3
:0300000002373A8A
:0C373A00787FE4F6D8FD75817E023781AF
:10374600022263E493A3F8E493A34003F68001F214
:1037560008DFF48029E493A3F85407240CC8C33384
:10376600C4540F4420C8834004F456800146F6DF53
:10377600E4800B0102040810204080903463E47E4C
:10378600019360BCA3FF543F30E509541FFEE49348
:10379600A360010ECF54C025E060A840B8E493A30F
:1037A600FAE493A3F8E493A3C8C582C8CAC583CA3A
:1037B600F0A3C8C582C8CAC583CADFE9DEE780BEF2
:0134F60000D5
:100BBF00E709F608DFFA8046E709F208DFFA803E18
:100BCF0088828C83E709F0A3DFFA8032E309F60805
:100BDF00DFFA8078E309F208DFFA807088828C836D
:100BEF00E309F0A3DFFA806489828A83E0A3F60821
:100BFF00DFFA805889828A83E0A3F208DFFA804CFB
:100C0F0080D280FA80C680D4806980F280338010D1
:100C1F0080A680EA809A80A880DA80E280CA80333A
:100C2F0089828A83ECFAE493A3C8C582C8CCC583B2
:100C3F00CCF0A3C8C582C8CCC583CCDFE9DEE78082
:100C4F000D89828A83E493A3F608DFF9ECFAA9F001
:100C5F00EDFB2289828A83ECFAE0A3C8C582C8CC57
:100C6F00C583CCF0A3C8C582C8CCC583CCDFEADE70
:100C7F00E880DB89828A83E493A3F208DFF980CCD2
:100C8F0088F0EF60010E4E60C388F0ED2402B404CB
:100C9F000050B9F582EB2402B4040050AF23234572
:060CAF008223900C0F737C
:100CB500BB010689828A83E0225002E722BBFE023D
:090CC500E32289828A83E4932270
:100CCE00BB010CE58229F582E5833AF583E02250DB
:100CDE0006E92582F8E622BBFE06E92582F8E22225
:0D0CEE00E58229F582E5833AF583E493223F
:100CFB00BB010689828A83F0225002F722BBFE01D8
:020D0B00F322D1
:100D0D00EF8DF0A4A8F0CF8CF0A428CE8DF0A42EFA
:020D1D00FE22B4
:100D1F00BC000BBE0029EF8DF084FFADF022E4CCB8
:100D2F00F875F008EF2FFFEE33FEEC33FCEE9DEC81
:100D3F00984005FCEE9DFE0FD5F0E9E4CEFD22EDC7
:100D4F00F8F5F0EE8420D21CFEADF075F008EF2F11
:100D5F00FFED33FD4007985006D5F0F222C398FD02
:050D6F000FD5F0EA229F
:100D7400C5F0F8A3E028F0C5F0F8E582158270020A
:060D84001583E038F022A7
:100D8A00A3F8E0C5F025F0F0E5821582700215831C
:060D9A00E0C838F0E82279
:100DA000BB010A89828A83E0F5F0A3E0225006871E
:100DB000F009E71922BBFE07E3F5F009E3192289E0
:0B0DC000828A83E493F5F07401932213
:100DCB00BB0110E58229F582E5833AF583E0F5F066
:100DDB00A3E0225009E92582F886F008E622BBFE43
:100DEB000AE92582F8E2F5F008E222E5832AF58389
:080DFB00E993F5F0A3E993224E
:100E0300BB010789828A83020D74500B09C5F02741
:100E1300F7C5F01937F722BBFE0D09F8E325F0F308
:100E2300C5F019E338F322F889828A837401932584
:080E3300F0C5F0F8E493382249
:100E3B00BB010A89828A83F0E5F0A3F0225006F702
:0F0E4B0009A7F01922BBFE06F3E5F009F31922FF
:100E5A00E88FF0A4CC8BF0A42CFCE98EF0A42CFC37
:100E6A008AF0EDA42CFCEA8EF0A4CDA8F08BF0A4B5
:100E7A002DCC3825F0FDE98FF0A42CCD35F0FCEB14
:100E8A008EF0A4FEA9F0EB8FF0A4CFC5F02ECD39D9
:0F0E9A00FEE43CFCEAA42DCE35F0FDE43CFC2246
:100EA90075F008758200EF2FFFEE33FECD33CDCC00
:100EB90033CCC58233C5829BED9AEC99E582984083
:100EC9000CF582EE9BFEED9AFDEC99FC0FD5F0D660
:100ED900E4CEFBE4CDFAE4CCF9A88222B800C1B98A
:100EE9000059BA002DEC8BF084CFCECDFCE5F0CBC8
:100EF900F97818EF2FFFEE33FEED33FDEC33FCEB01
:100F090033FB10D703994004EB99FB0FD8E5E4F9BB
:100F1900FA227818EF2FFFEE33FEED33FDEC33FCA8
:100F2900C933C910D7059BE99A4007EC9BFCE99A9C
:100F3900F90FD8E0E4C9FAE4CCFB2275F010EF2FE1
:100F4900FFEE33FEED33FDCC33CCC833C810D707E1
:100F59009BEC9AE899400AED9BFDEC9AFCE899F81C
:0E0F69000FD5F0DAE4CDFBE4CCFAE4C8F922AF
:100F7700EB9FF5F0EA9E42F0E99D42F0E89C45F0D0
:010F87002247
:100F8800E8600FECC313FCED13FDEE13FEEF13FF47
:030F9800D8F1226B
:100F9B00E8600FEFC333FFEE33FEED33FDEC33FCB4
:030FAB00D8F12258
:0C0FAE00ECF0A3EDF0A3EEF0A3EFF022B6
:100FBA00A8828583F0D083D082120FD1120FD1126A
:100FCA000FD1120FD1E473E493A3C583C5F0C5838F
:100FDA00C8C582C8F0A3C583C5F0C583C8C582C881
:010FEA0022E4
:0C0FEB00A42582F582E5F03583F5832211
:100FF700BB010789828A830210565005E9F802105F
:101007004DBBFE05E9F802107F89828A83021088AA
:10101700BB010DE58229F582E5833AF58302105677
:101027005007E92582F802104DBBFE07E92582F833
:1010370002107FE58229F582E5833AF5830210885D
:061047008A838982E47334
:1010BA00E5582445F582E434C3F583E005582290C7
:1010CA00C34230070390C345E475F00112105F0272
:1010DA000CB52000E97F2ED2008018EF540F24901F
:1010EA00D43440D4FF30040BEF24BFB41A005003A9
:1010FA002461FFE55960021559055CE55C7002053B
:10110A005B30070E90C342E475F00112105FEF02E4
:10111A000CFB0242067403D2078003E4C207F558A7
:10112A0090C342121076E4F559F55BF55CE5596017
:10113A00077F201210FD80F5755AFFC201C200C256
:10114A0002C203C205C206C2081210C9FF700D30DE
:10115A0007057F0012110EAF5CAE5B22B4255FC299
:10116A00D5C2041210C9FF24D0B40A00501A75F06F
:10117A000A785930D50508B6FF0106C6A426F62016
:10118A00D5047002D20380D924CFB41A00EF5004D8
:10119A00C2E5D20402130FD20180C6D20080C0D2A7
:1011AA000280BCD2D580BAD20580B47F201210FD4D
:1011BA002002077401B5590040F11210BAFF12104B
:1011CA00FD021137D208D20680951210BAFB12100E
:1011DA00BAFA1210BAF94A4B700679E07A137BFF11
:1011EA0020022EE559602A7E008E82758300120C39
:1011FA00CE60060EEE655A70F0C2D5EBC0E0EAC0CA
:10120A00E0E9C0E0EE121356D0E0F9D0E0FAD0E0FF
:10121A00FB120CB5FF60AAEBC0E0EAC0E0E9C0E04F
:10122A001210FDD0E02401F9D0E03400FAD0E0FB3E
:10123A00E55A0460DCD55AD980877BFF7A13795244
:10124A00D202809C791080027908C206C2088008FE
:10125A00D2D5790A8004790AC2D5E55A047002F512
:10126A005AE4FAFDFEFF1210BAFC7B0820011312A1
:10127A0010BAFD7B1030000A1210BAFE1210BAFF23
:10128A007B20EC3382D592D55013C3E43000069FFD
:10129A00FFE49EFEE42001039DFDE49CFCE4CBF800
:1012AA00C201EC700CCFCECDCCE824F8F870F380F4
:1012BA0017C3EF33FFEE33FEED33FDEC33FCEB33B4
:1012CA00FB994002FB0FD8E9EB300105F8D0E0C4E6
:1012DA0048B201C0E00AEC4D4E4F78207B0070C244
:1012EA00EAB55A0040BCC0E0121358D0F0D0E02052
:1012FA000104C4C0E0C4B201C0F01210E6D0F0D5B7
:10130A00F0EB02113712109411D453124E5811A552
:10131A004C11A14212524F125A44125A4911BA435D
:08132A00126055124446124402
:101332004512444714005011A92D11AD2E11D02B86
:1013420011B12311CE2013E92A116948000011C8F6
:101352003F3F3F00790AA2D5200314300509B91096
:10136200020404B9080104A2D52006025001042097
:1013720002689202B559005034C0E07F2030031950
:101382007F30A20272067205500F1213AFC202C260
:1013920006C205C2087F30800F300503E9C0E012A3
:1013A20010FD300503D0E0F9D0E0B559CC30051777
:1013B2007F30B9100C1210FD7F583004077F7880FF
:1013C20003B908031210FD3002057F2D0210FD7FC4
:1013D200202008F87F2B2006F322920280CF286E6D
:1013E200756C6C2900D2011210BA3001F8C2017872
:1013F2005930D50108F60211692D5043495812108F
:10140200BA2403B405004001E49013FB931210EEDA
:0D141200743A1210EED20375590402124E06
:1043EC00E4FFFE120CB5600C0FEF70010E09E970C2
:0543FC00F20A80EF222F
:09104D00E6FB08E6FA08E6F922C8
:09105600E0FBA3E0FAA3E0F9229B
:10105F00F8E0FBA3A3E0F925F0F0E582158270021A
:07106F001583E0FA38F022BE
:09107600EBF0A3EAF0A3E9F0227B
:09107F00E2FB08E2FA08E2F922A2
:0C108800E493FB740193FA740293F922C4
:10109400D083D082F8E4937012740193700DA3A3EB
:1010A40093F8740193F5828883E4737402936860FF
:0610B400EFA3A3A380DFFF
:10420600EFB40A07740D124211740A309811A89976
:10421600B8130CC2983098FDA899C298B811F63018
:0742260099FDC299F59922F0
:00000001FF
