:0B00F800FFFF4457494E54350244629C
:0E2461007B0190BD90E4F0A304F07F147E0098
:10246F0090BD8BEEF0A3EFF0A3EBF0A3EAF0A3E99E
:01247F00F06C
:10248000E490BD92F0A3F0A3F0A3F0A3F0A3F0A317
:10249000F0A3F090BD90E0FAA3E0FB4A700302269F
:1024A0002E90BD8BE0FEA3E0FFC3E49FFFE49EFE01
:1024B000E4FCFD90BD9A1212FAAF03AE02E4FCFDFB
:1024C00090BD9AE0F8A3E0F9A3E0FAA3E0FBC31201
:1024D000127E501190BD9AA3A3E0FFA3E090BD909F
:1024E000CFF0A3EFF090BD8BE0FCA3E0FDECC313B5
:1024F000FFED1390BD92CFF0A3EFF0ED5401FFA3D9
:10250000E4F0A3EFF0C2AFE4F5F190BD92E0FCA3DC
:10251000E0FDECF5F28DF375F40175F8AF30FCFDDC
:1025200090BD94E07002A3E0603DD2FE20FEFD90DD
:10253000BD8DE0FBA3E475F001121084A9F0FAE56B
:10254000FC120FF590BD8DE0FBA3E475F0011210B5
:1025500084A9F0FAE5FD120FF590BD91E024FFF09B
:1025600090BD90E034FFF090BD90E0FCA3E0FDEC66
:10257000C313FFED1390BD96CFF0A3EFF0ED540120
:10258000FFA3E4F0A3EFF090BD9674FFF5F01210F6
:102590008445F0605BD2FE20FEFD90BD8DE0FBA384
:1025A000E475F001121084A9F0FAE5FA120FF59023
:1025B000BD8DE0FBA3E475F001121084A9F0FAE5EB
:1025C000FB120FF590BD8DE0FBA3E475F001121036
:1025D00084A9F0FAE5FC120FF590BD8DE0FBA3E4B1
:1025E00075F001121084A9F0FAE5FD120FF580973D
:1025F00090BD98E07002A3E0602FD2FE20FEFD9017
:10260000BD8DE0FBA3E475F001121084A9F0FAE59A
:10261000FA120FF590BD8DE0FBA3E475F0011210E6
:0E26200084A9F0FAE5FB120FF5E4F5F8D2AF4D
:01262E002289
:102CBC0090C022EEF0A3EFF0A3EBF0A3EAF0A3E9AF
:012CCC00F017
:102CCD00E490C029F0A3F0A3F0A3F0A3F0A3F0903B
:102CDD00C027E07002A3E07003022E4E90C022E0E8
:102CED00FEA3E0FFC3E49FFFE49EFED390C028E067
:102CFD009F90C027E09E4005EEF0A3EFF090C0221C
:102D0D00E0FAA3E0FBEAC313FCEB13FDEB5401FF68
:102D1D0090C029E4F0A3EFF0C2AFE4F5F1ECF5F2C9
:102D2D00AF058FF375F40175F88330FCFD90C02964
:102D3D00E07002A3E0603D90C024E0FBA3E475F0D9
:102D4D0001121084A9F0FA120FAFF5FC90C024E027
:102D5D00FBA3E475F001121084A9F0FA120FAFF580
:102D6D00FDD2FE20FEFD90C028E024FFF090C0278C
:102D7D00E034FFF090C027E0FCA3E0FDECC313FFAF
:102D8D00ED1390C02BCFF0A3EFF0ED5401FFA3E4B2
:102D9D00F0A3EFF075F88F90C02B74FFF5F01210C3
:102DAD008445F0605B90C024E0FBA3E475F0011254
:102DBD001084A9F0FA120FAFF5FA90C024E0FBA32E
:102DCD00E475F001121084A9F0FA120FAFF5FB9023
:102DDD00C024E0FBA3E475F001121084A9F0FA12EF
:102DED000FAFF5FC90C024E0FBA3E475F0011210C9
:102DFD0084A9F0FA120FAFF5FDD2FE30FE9980FBDB
:102E0D0090C02DE07002A3E0603275F88C90C02464
:102E1D00E0FBA3E475F001121084A9F0FA120FAFD4
:102E2D00F5FA90C024E0FBA3E475F001121084A91B
:102E3D00F0FA120FAFF5FBD2FE20FEFDE4F5F8D24D
:012E4D00AFD5
:012E4E002261
:104CE800C2AFC2D3C2D4E4F58E75C870F5CDF5CC89
:104CF80075CBBC75CACDD2ADD2C8F5937594017584
:104D0800950275C960F5F875F901F5A8F5B8F59A31
:074D1800F5A9F5B9024DE514
:104DE5007F007E80E4F528F5290FEFAC0670010EF3
:104DF50014F5828C83E4F00529E52970020528B4B1
:074E050000E7E528B480E29C
:014E0C002283
:104E7E0090C46512130655AA5AA57B017AC47965AA
:104E8E0090C027E4F0A37402F07F047E00022CBCD5
:044F6B007FF47E0150
:104F6F00EF4E6010E4FD0DEDC3941840F9EF1F7084
:044F7F00EF1E80ECB5
:014F8300220B
:10470E0090C40A745AF0A374A5F0A3EEF0A3EFF0D0
:10471E00A3EBF0A3EDF090C409E0600A90C410E49E
:10472E00F0A304F08007E490C410F0A3F07B017AAC
:10473E00C4790A90C027E4F0A37404F07FB07E0021
:10474E00122CBC124F6B7B017AC4790A90BD90E497
:10475E00F0A304F07FB07E0012246F90C40AE070C4
:01476E00E268
:01476F002227
:054CA90090C451EFF082
:104CAE007B017AC4795290BD90E4F0A37402F07F38
:104CBE00A07E0012246F90C451E0A3F0A37401F003
:104CCE00E490C455F07B017AC4795290C027F0A3CA
:0A4CDE007402F07FA07E00022CBCDF
:1037180090C2DEE0FB90C433F090C2DFE0FCA3E08F
:10372800FDA3E0FEA3E0FF781012128F90C434EFDF
:10373800F090C2DFE0FCA3E0FDA3E0FEA3E0FF7889
:103748000812128F90C435EFF090C2DFA3A3A3E054
:1037580090C436F090C2E3E0FCA3E0FDEC90C437DF
:10376800F0A3EDF090C2E5E0FCA3E0FDEC90C439D5
:10377800F0A3EDF0EBB4A52890C2E7E0FBA3E0FAD4
:10378800A3E04A4B601A90C2E3E0FEA3E0FF90C2B8
:10379800E7A3A3E0F990C027ECF0A3EDF0122CBC4E
:1037A8007B017AC4793390C027E4F0A37404F07FD6
:1037B800087E00122CBC124F6B7B017AC4793390BF
:1037C800BD90E4F0A304F07F087E0012246F90C43B
:1037D80033E070E290C2DEE0B45A2F90C2E7E0FB1B
:1037E800A3E0FAA3E04A4B602190C2E3E0FEA3E025
:1037F800FF90C2E7A3A3E0F990C2E5E0FDA3E09043
:10380800BD90CDF0A3EDF012246F7F327E00024A06
:01381800CAE5
:1034E50090C412745AF090C2CEE090C413F06401F7
:1034F500706790C2CFA3E090C414F090C2D1E0FCF5
:10350500A3E0FDA3E0FEA3E0FF781012128F90C4A4
:1035150015EFF090C2D1E0FCA3E0FDA3E0FEA3E02F
:10352500FF780812128F90C416EFF090C2D1A3A3B2
:10353500A3E090C417F090C2D5E0FCA3E0FDEC90A9
:10354500C418F0A3EDF090C2D7E0FCA3E0FDEC9029
:10355500C41AF0A3EDF0E4803B90C2CEE0640270A3
:1035650037A3E0FCA3E0FDEC90C414F0A3EDF090CC
:10357500C2D5E0FCA3E0FDEC90C416F0A3EDF090FD
:10358500C2DCE0FCA3E0FDEC90C418F0A3EDF0E490
:10359500A3F0A3F0A3F0A3F07B017AC4791290C045
:1035A50027E4F0A37406F07FAA7E00122CBC124F0C
:1035B5006B7B017AC4791290BD90E4F0A304F07F8F
:1035C500AA7E0012246F90C412E070E290C2CEE091
:1035D500B4012F90C2D9E0FBA3E0FAA3E04A4B6007
:1035E5002190C2D5E0FEA3E0FF90C2D9A3A3E0F9E4
:1035F50090C2D7E0FDA3E090BD90CDF0A3EDF01211
:09360500246F7F327E00024ACAE4
:0F503A007AC4797012246190C470E0FEA3E0FF85
:015049002244
:0845AD0090C44BEEF0A3EFF007
:1045B500A3745AF0A37401F090C44BE0FCA3E0FD92
:1045C500EC90C44FF0A3EDF07B017AC4794D90C017
:1045D50027E4F0A37402F07F847E00122CBC124FF6
:1045E5006B7B017AC4794D90BD90E4F0A3740212FF
:1045F500246A90C44BE0FEA3E0FFA3E0B506DFA369
:10460500E0B507DAE490C44DF0A3F0A3F0A3F07B86
:10461500017AC4794D90C027F0A37402F07F167E0D
:0446250000022CBCA7
:084ACA0090BD8BEEF0A3EFF0AC
:104AD200E4A3F0A3F090BD8BE0FEA3E0FFC390BD82
:104AE2008EE09F90BD8DE09E5025E4FBFA7F017E13
:104AF20000124F6F0BBB00010ABA01F1BB2CEE9002
:0F4B0200BD8EE004F070CE90BD8DE004F080C653
:014B11002281
:104B1200EF14601814602314602E2403703974019A
:104B2200A805088002C333D8FC42B7227401A80545
:104B3200088002C333D8FC42BC227401A805088055
:104B420002C333D8FC42BD22AF057401A807088016
:084B520002C333D8FC42BE226D
:104A3500EF1460191460251460312403703D74016E
:104A4500A805088002C333D8FCF452B7227401A824
:104A550005088002C333D8FCF452BC227401A805B2
:104A6500088002C333D8FCF452BD22AF057401A8F7
:0C4A750007088002C333D8FCF452BE22B4
:10414C00EF14602D14604A1460672403600302416D
:10415C00DEEB600E7401A805088002C333D8FC4264
:10416C0080227401A805088002C333D8FCF4528065
:10417C0022EB600E7401A805088002C333D8FC4200
:10418C0090227401A805088002C333D8FCF4529025
:10419C0022EB600E7401A805088002C333D8FC42E0
:1041AC00A0227401A805088002C333D8FCF452A0E5
:1041BC0022EB600E7401A805088002C333D8FC42C0
:1041CC00B022AF057401A807088002C333D8FCF4F1
:0341DC0052B022BC
:1048EF00EF14601A146027146034240370427401AB
:1048FF00A805088002C333D8FC5580FE80347401AC
:10490F00A805088002C333D8FC5590FE802474019B
:10491F00A805088002C333D8FC55A0FE8014AF054C
:10492F007401A807088002C333D8FC55B0FE80027B
:04493F00E4FEAF06DD
:014943002251
:1038F7007B017AC4793B90BD90E4F0A37404F07F18
:10390700167E0012246F90C43BE0645A60030239AC
:10391700BCA3E0FFB40134A3E0FCA3E0FD90C2EF39
:10392700ECF0A3EDF090C2F5ECF0A3EDF090C43FFE
:10393700E0FCA3E0FD90C2F3ECF0A3EDF090C31A16
:10394700ECF0A3EDF0A37401F08030EFB403269000
:10395700C2EDE0FFA3E090C31ACFF0A3EFF090C24F
:10396700EBE0FFA3E090C2F5CFF0A3EFF090C31C0C
:103977007402F0800690C31C7403F090C43DE0FF0E
:10398700A3E090C2EBCFF0A3EFF090C43FE0FFA31A
:10399700E090C2EDCFF0A3EFF0E490C43BF07B01E1
:1039A7007AC4793B90C027F0A37402F07F167E009B
:1039B700122CBC801190C43CE0FF64026003EF70DE
:0B39C70005E490C31CF090C31CE0FF5F
:0139D20022D2
:0822780090C41EEEF0A3EFF08C
:102280001238F790C420EFF0700690C2EAF0FF22F7
:1022900090C420E0B4010F7AC279F112246190C297
:1022A000EA7401F0FF2290C2F1E0FEA3E0FF90C4C7
:1022B0001EE06E7003A3E06F60037F012290C2EB0B
:1022C000E0FEA3E0FFC390C2F0E09FFF90C2EFE00A
:1022D0009E90C31DF0A3EFF090C31DE0FCA3E0FDB2
:1022E000FFAE04121007EE3395E0FDFC90C42112FE
:1022F00012FA90C2EDE0FEA3E0FFC390C2F4E09FAB
:10230000FF90C2F3E09E90C31FF0A3EFF090C31FB5
:10231000E0FCA3E0FDFFAE04121007EE3395E0FDF4
:10232000FC90C4251212FA90C420E06402707990E7
:10233000C2EAE06401706B7F09FEFDFC90C425E0F9
:10234000F8A3E0F9A3E0FAA3E0FBC312127E501A4F
:10235000E47F09FEFDFC90C421E0F8A3E0F9A3E0CE
:10236000FAA3E0FBC312127E4038E47F02FEFDFCBC
:1023700090C425E0F8A3E0F9A3E0FAA3E0FB121172
:102380005490C421E0F8A3E0F9A3E0FAA3E0FBD362
:1023900012127E90C2EA50057403F0FF227404F01A
:1023A000FF2290C2EAE0FF2290C2EAE06401706E70
:1023B0007F09FEFDFC90C425E0F8A3E0F9A3E0FA54
:1023C000A3E0FBC312127E501AE47F09FEFDFC90CD
:1023D000C421E0F8A3E0F9A3E0FAA3E0FBC31212E2
:1023E0007E4038E47F02FEFDFC90C425E0F8A3E0C7
:1023F000F9A3E0FAA3E0FB12115490C421E0F8A382
:10240000E0F9A3E0FAA3E0FBD312127E90C2EA50F7
:10241000057403F080087404F080037F022290C2E8
:10242000EAE0B4031E90C2EDE0FEA3E0FFC390C358
:102430001BE09FFF90C31AE09E90C323F0A3EFF030
:102440007F052290C2EBE0FEA3E0FFC390C2F6E05E
:102450009FFF90C2F5E09E90C321F0A3EFF07F06AE
:012460002259
:044EFB000218000099
:104EDD00E4F51D758911F58CF58AC28CF51AF51C52
:0E4EED00438901758CBC758ACDD2A9D28C2266
:03000B0002462981
:0D462900C0E0C0D075D000C000C006C007C2
:10463600C2AFE51D6002151D758CBC758ACD051BC4
:1046460075270074017E00A827088005C333CE3382
:10465600CED8F9FFEF551C602DE52725E02408F894
:1046660008E61618700116E52725E02408F8E6FE88
:1046760008E64E7011AF2704A807088002C333D896
:0F468600FC421AF4521C0527E527B408B6D2AF40
:0B469500D007D006D000D0D0D0E0321B
:03002B00024FDBA6
:104FDB00C0E0C2AFC2C6D2AF0519E5197002051801
:034FEB00D0E032E1
:104E5C00C2AF7401A807088002C333D8FCFE421C01
:104E6C00EF25E02408F8A60408A605EEF4521AD2A1
:024E7C00AF2263
:104F9D00C2AF7401A807088002C333D8FCF4521CB9
:054FAD00521AD2AF22F0
:104FEE00C2AF7401A807088002C333D8FC551AFF5C
:024FFE00D2AF30
:01500000228D
:0B4F1900D2B37F05124F24D2B27F05F7
:104F2400EF600EE4FE0EC3EE648094B240F71F807F
:014F3400EF8D
:014F35002259
:0450840053BEF722FE
:0450880043BE0822F9
:104F5100125088D2B3D2B27F0F124F24C2B37F0F47
:0A4F6100124F24C2B27F0F024F244A
:0A4E9E007F0F124D2FAF03124D2FAE
:104EA800125088C2B3D2B27F0F124F24D2B37F0FF1
:064EB800124F2402508499
:0F504A00125088C2B3124F1BC2B27F05024F240F
:0D506800125088124F19C2B27F05024F246A
:104EBE00125084124F19E4FD30B30A7F05124F24AD
:0F4ECE000DEDB432F3C2B27F05124F24025088AB
:104D1F00124D2FE0FF124D2F124EA8124F517F64EC
:024D2F00AD07CE
:104D3100125088E4FCED30E704D2B38002C2B3ED37
:104D410025E0FD124F1BC2B27F05124F240CECB4BB
:054D510008E3024EBE64
:0D4D56007F0F124D2F124F517F65124D2F10
:104D6300125084E4FC124F1BED25E0FD30B30544E3
:104D730001FD8004ED54FEFDC2B27F05124F240CE9
:064D8300ECB408E1AF05ED
:014D89002207
:103B6200124D2A124D56AB0712504A124D63AA0744
:103B7200125068124EA8EB20E003023C10548460FD
:103B82000AEB547BFB124D2A124E9EEB54FEFBEACB
:103B920030E713547FFA124D2A7F10124D2FAF02D5
:103BA200124D2F124EA8EA4480FA124D2A7F1012AB
:103BB2004D2FAF02124D2F124EA8EB4484FB124D33
:103BC2002A7F0F124D2FAF03124D24E4FF124D2F07
:103BD200E4FF124D2FE4FF124D2F7F80124D2F7FF5
:103BE20005124D2F7F01124D2F7F01124D2F7F2184
:103BF200124D2F124EA8EB547BFBEA547FFA124D62
:0E3C02002A7F10124D2FAF02124D24124E9E3B
:013C10002291
:103E1C00124D2A124D5690C472EFF012504A124DA8
:103E2C0063A3EFF0125068124EA8E04480F0124DDC
:103E3C002A7F10124D2FE0FF124D2F124EA890C466
:103E4C0072E04484F0124D2A7F0F124D1FE4FF12D2
:103E5C004D2F900006120FC8FF124D2F9000051227
:103E6C000FC8FF124D2F900004120FC8FF124D2FD8
:103E7C00900003120FC8FF124D2F900002120FC8B2
:103E8C00FF124D2F900001120FC8FF124D2F120F71
:103E9C00AFFF124D2F124EA890C472E0547BF0A3CA
:103EAC00E0547FF0124D2A7F10124D1F7F0F124DE0
:0C3EBC002F90C472E0FF124D2F024EA8A0
:103AA500124D2AE4FF124D2F124F517F65124D2FF3
:103AB5007B06124D6374292BF582E434C4F583EF3C
:103AC500F012504ADBEC124D6390C429EFF012500E
:103AD50068124EA890C42DE0547FF0E4FB74292BA6
:103AE500F582E434C4F583E0FFC4540FFE90C4317D
:103AF500F0EF540FFFA3F0EE75F00AA42FFF742921
:103B05002BF582E434C4F583EFF00BEBB403CE7BE5
:103B15000474292BF582E434C4F583E0FFC4540F03
:103B2500FE90C431F0EF540FFFA3F0EE75F00AA438
:103B35002FFF74292BF582E434C4F583EFF00BEBEA
:103B4500B407CEE490C430F07B017AC4792990C0E3
:0D3B550027F0A37404F07F107E00022CBC4A
:10500100EF75F00A84C454F0FEEF75F00A84E5F000
:035011004EFF222D
:0F505900EFC4540F75F00AA4FEEF540F2EFF2280
:0742700090C456EBF0AB0710
:10427700ED64016004EDB4021BED240CFEE4339001
:10428700C457F0A3CEF0EB24FFFEE434FFA3F0A362
:10429700CEF08012AF0590C457E4F0A3EFF0AF0360
:1042A700A3E4F0A3EFF090C458E02401FF90C457B3
:1042B700E03400FE7C007D1A1210077D0A121019E7
:1042C700AC06AD0790C459E0FAA3E0FBAE02780252
:1042D700CEC313CE13D8F92BFFEA3ECF2DCF3CFE2A
:1042E70090C456E07C002FFFEC3ECF24DCCF34FF98
:0842F700FE7D07121019AF054E
:0142FF00229C
:103C11007B017AC379E690BD90E4F0A37404F07F50
:103C21009C7E0012246F90C3E6E0645A6003023C5C
:103C3100BFA3E064A56003023CBFA3E0FF125001F3
:103C410090C3EEEFF090C3E9E0FF12500190C3EF93
:103C5100EFF090C3EAE0FF12500190C3F0EFF09053
:103C6100C3E8E0FFA3E0FDA3E0FB12427090C3F1C3
:103C7100EFF090C3EBE0FF12500190C3F2EFF0447C
:103C810080F090C3ECE0FF12500190C3F3EFF0908D
:103C9100C3EDE0FF12500190C3F4EFF07B017AC352
:103CA10079EE123E1CE490C3E6F0A3F07AC379E604
:0E3CB10090C027F0A304F07F9C7E00122CBC74
:013CBF0022E2
:104F84007D027F03124B127D037F03124B12123AF0
:094F9400A5E4F518F519023C1121
:1049E700AB07AA06A905A8047F007E387D317C00A5
:1049F7001211DFC3E49F90BD91F074049E90BD90A7
:104A0700F043C9407D04E4FF124B127D05E4FF1219
:104A17004A3543803075D88075985090BD90E0FC3A
:0D4A2700A3E0FDECF5BA8DAA43A810D2ACB7
:014A3400225F
:104A8100AB07AA06A905A8047F007E707D627C00A1
:104A91001211DFC3E49F90BD91F074049E90BD900C
:104AA100F043C9207D06E4FF124B127D07E4FF129B
:104AB1004A354380C0759B9090BD90E0FCA3E0FD1A
:084AC100ECF5BB8D9D439A0149
:014AC90022CA
:104E0D00759680759780AB07AA06A905A8047F0043
:104E1D007EC07D897C011211DFAD07AC06ECF5D9A2
:074E2D00AF058FE743B80C4D
:014E3400225B
:104BE80075A78075AB80AB07AA06A905A8047F0046
:104BF8007EC07D897C011211DFAD07AC06ECF5AEF5
:104C0800AF058FAF43B830E490A01BF0A3F0A3F03A
:104C1800A3F090A023F090A01FF0A3F0A3F0A3F0BE
:014C28002269
:10494400EF14601B1460291460372403704490BD75
:104954008CE0FCA3E0FDA3E0FEA3E0FF0249E790A6
:10496400BD8CE0FCA3E0FDA3E0FEA3E0FF024A81CE
:1049740090BD8CE0FCA3E0FDA3E0FEA3E0FF024EAB
:104984000D90BD8CE0FCA3E0FDA3E0FEA3E0FF12CC
:034994004BE822CB
:10262F0090C443EFF0A3ECF0A3EDF0A3EBF0A3EA1B
:04263F00F0A3E9F02B
:10264300C2AFE4A3F0A3F090C444E0FEA3E0FFC351
:1026530090C44AE09F90C449E09E4003022707903C
:10266300C446E0FBA3E475F001121084A9F0FA124A
:102673000FAFFF90C443E0FE75F009A42400F58278
:10268300E5F03488F583EE75F008A42583F583E03F
:10269300FCA3E0FD75F009EEA42400F582E5F03417
:1026A30080F583EE75F008A42583F583E5822DF587
:1026B30082E5833CF583EFF075F009EEA42400F581
:1026C30082E5F03488F583EE75F008A42583F5835D
:1026D300E475F00112106E75F009EEA42400F58282
:1026E300E5F03488F583EE75F008A42583F583E0DF
:1026F3005403F090C44AE004F0700690C449E00427
:10270300F002264A90C443E01460421460701470CF
:10271300030227AF240360030227DF908808E060E9
:10272300030227DF04F0908802E0FEA3E02400F513
:102733008274803EF583E0F599908803E004F0709D
:1027430006908802E004F09088020227DB90901143
:10275300E060030227DF04F090900BE0FEA3E02487
:1027630009F58274883EF583E0F59C90900CE004B3
:10277300F0700690900BE004F090900B805A9098C4
:102783001AE0705804F0909814E0FEA3E02412F5C8
:102793008274903EF583E0F59E909815E004F07006
:1027A30006909814E004F0909814802C90A023E0F5
:1027B300702A04F090A01DE0FEA3E0241BF58274B0
:1027C300983EF583E0F5AC90A01EE004F07006900F
:0E27D300A01DE004F090A01DE05403F0D2AF72
:0127E10022D5
:0300230002430095
:10430000C0E0C083C082C0D075D000C006C007C264
:10431000AF30982AC298908804E0FEA3E02400F50C
:104320008274843EF583E599F0908805E004F0708E
:1043300006908804E004F0908804E05403F030997B
:104340003FC299908802E0FEA3E0FF908800E06EF3
:104350007003A3E06F602474002FF58274803EF533
:1043600083E0F599908803E004F07006908802E0FD
:1043700004F0908802E05403F08005908808E4F08F
:0F438000D2AFD007D006D0D0D082D083D0E032D9
:03005300024770F1
:10477000C0E0C083C082C0D075D000C006C007C2F0
:10478000AF5396FE909814E0FEA3E0FF909812E0DD
:104790006E7003A3E06F602474122FF58274903E54
:1047A000F583E0F59E909815E004F070069098145B
:1047B000E004F0909814E05403F0800590981AE417
:1047C000F0D2AFD007D006D0D0D082D083D0E032A4
:03005B00024B5AFB
:104B5A00C0E0C083C082C0D075D000C006C2AF53C7
:104B6A0097FE909816E0FEA3E02412F58274943E14
:104B7A00F583E59FF0909817E004F0700690981678
:104B8A00E004F0909816E05403F0D2AFD006D0D0EB
:074B9A00D082D083D0E0328D
:030063000247D081
:1047D000C0E0C083C082C0D075D000C006C007C290
:1047E000AF53A7FE90A01DE0FEA3E0FF90A01BE04A
:1047F0006E7003A3E06F6024741B2FF58274983EE3
:10480000F583E0F5AC90A01EE004F0700690A01DCA
:10481000E004F090A01DE05403F0800590A023E494
:10482000F0D2AFD007D006D0D0D082D083D0E03243
:03006B00024BA1A4
:104BA100C0E0C083C082C0D075D000C006C2AF5380
:104BB100ABFE90A01FE0FEA3E0241BF582749C3E97
:104BC100F583E5ADF090A020E004F0700690A01F01
:104BD100E004F090A01FE05403F0D2AFD006D0D093
:074BE100D082D083D0E03246
:030083000240191F
:10401900C0E0C083C082C0D075D000C006C007C24E
:10402900AFE59B30E02E759B90539BFE90900DE081
:10403900FEA3E02409F582748C3EF583E59CF0909B
:10404900900EE004F0700690900DE004F090900D51
:10405900E05403F0E59B30E143759B90539BFD9041
:10406900900BE0FEA3E0FF909009E06E7003A3E0DF
:104079006F602474092FF58274883EF583E0F59CFE
:1040890090900CE004F0700690900BE004F0909092
:104099000BE05403F08005909011E4F0D2AFD00703
:0B40A900D006D0D0D082D083D0E0320F
:1041DF0090C46DEBF0A3EAF0A3E9F07D02E4FF12C7
:1041EF004B127D03E4FF124A357B017D02E4FF127F
:1041FF00414C43C98075F1FFE4F5F275F36075F436
:10420F000175F88F30FCFD90C46DE0FBA3E0FAA3BD
:10421F00E0F9120FAFF5FA900001120FC8F5FB90FD
:10422F000002120FC8F5FC900003120FC8F5FDD263
:10423F00FE20FEFDE4F5FAF5FBF5FCF5FDD2FE20C0
:10424F00FEFD75FAFF75FBFF75FCFF75FDFFD2FED6
:10425F0020FEFDE4F5F8758FA0E58F20E5FBD2B9C0
:01426F00222C
:104F3600E5E830E51553E8DF438F407FE87E03124E
:0B4F46004F6F538FBFE490BA28F02299
:102E4F0075F1FFE4F5F275F36475F40175F88F30E1
:102E5F00FCFD90BA27E075F00DA42424F582E5F06F
:102E6F0034ADF583E0F5FAE4F5FBF5FCF5FDD2FEA4
:102E7F0020FEFD90BA27E0FB75F00DA42425F58206
:102E8F00E5F034ADF583E0FCA3E0FDA3E0FEA3E0A5
:102E9F00FF781812128F8FFA75F00DEBA42425F519
:102EAF0082E5F034ADF583E0FCA3E0FDA3E0FEA3E3
:102EBF00E0FF781012128F8FFB90BA27E0FB75F0AE
:102ECF000DA42425F582E5F034ADF583E0FCA3E0F5
:102EDF00FDA3E0FEA3E0FF780812128F8FFC75F0C0
:102EEF000DEBA42425F582E5F034ADF583A3A3A360
:102EFF00E0F5FDD2FE20FEFD90BA27E0FF75F00D44
:102F0F00A42429F582E5F034ADF583E0F5FA75F0E8
:102F1F000DEFA4242AF582E5F034ADF583E0F5FB3F
:102F2F0090BA27E0FF75F00DA4242BF582E5F0345D
:102F3F00ADF583E0F5FC75F00DEFA4242CF582E5DB
:102F4F00F034ADF583E0F5FDD2FE20FEFD90BA27FB
:102F5F00E0FF75F00DA4242DF582E5F034ADF58377
:102F6F00E0F5FA75F00DEFA4242EF582E5F034ADFF
:102F7F00F583E0F5FB90BA27E0FF75F00DA4242F41
:102F8F00F582E5F034ADF583E0F5FC75F00DEFA4B7
:102F9F002430F582E5F034ADF583E0F5FDD2FE2067
:0C2FAF00FEFD90BA27E004F0E4F5F822E3
:0620010090C3CF1212FA99
:10200700D390C3D5E0940090C3D4E0940840030272
:10201700227790C3D3E0FB90C3CF30E70FE0FCA358
:10202700E0FDA3E0FEA3E0FF7803800DE0FCA3E062
:10203700FDA3E0FEA3E0FF78151212A290C3DE1203
:1020470012FA90BA26E0FA75F00DA42424F582E579
:10205700F034ADF583E030E63890C3DEE0FCA3E072
:10206700FDA3E0FEA3E0FF75F00DEAA42425F582A9
:10207700E5F034ADF5831212FAEB54C0FF75F00D9D
:10208700EAA42424F582E5F034ADF583EFF00222CB
:102097005B90C3D4E0FCA3E0FDAE047803CEC3138A
:1020A700CE13D8F990C3DCF0ED5407A3F0E490C346
:1020B700DBF090C3D3E054C0FFE4FCFDFE90C3E225
:1020C7001212FAE490C3D9F090C3DCE0FF90C3D9B1
:1020D700E0C39F400302218690C3DEE0FCA3E0FD3E
:1020E700A3E0FEA3E0FF90BA26E0FB75F00DA42461
:1020F70025F582E5F034ADF5831212FA90C3E2E0DC
:10210700FCA3E0FDA3E0FEA3E04408FF75F00DEBA0
:10211700A42424F582E5F034ADF583EFF0E490C311
:10212700DAF090C3DAE0FFC39408504490C3D6E0D6
:10213700FBA3E0FAA3E0F990C3DBE0F58275830027
:10214700120FC8FE90BA26E075F00DA42429F58277
:10215700E5F034ADF583E5822FF582E43583F58329
:10216700EEF090C3DBE004F090C3DAE004F080B255
:1021770090BA26E004F090C3D9E004F00220CF9093
:10218700C3DDE0FB7003022261A3E0FCA3E0FDA333
:10219700E0FEA3E0FF90BA26E075F00DA42425F534
:1021A70082E5F034ADF5831212FAAF0390C3E2A3D0
:1021B700E0F9A3E0FAA3E04FFF90BA26E075F00D2F
:1021C700A42424F582E5F034ADF583EFF0E490C361
:1021D700DAF090C3DDE0FF90C3DAE0FEC39F50441E
:1021E70090C3D6E0FBA3E0FAA3E0F990C3DBE0F5E8
:1021F70082758300120FC8FF90BA26E075F00DA410
:102207002429F582E5F034ADF583E5822EF582E4E5
:102217003583F583EFF090C3DBE004F090C3DAE099
:1022270004F080AE90C3DAE0FFC39408502690BA5A
:1022370026E075F00DA42429F582E5F034ADF58389
:10224700E5822FF582E43583F583E4F090C3DAE085
:1022570004F080D090BA26E004F090BA28E070101D
:10226700C2AF122E4FD2AF90BA287401F0438F0439
:012277002244
:03004B00021CA7ED
:101CA700C0E0C0F0C083C082C0D075D000C000C003
:0D1CB70001C002C003C004C005C006C00784
:101CC400C2AFE59130E70353913FE59120E603026B
:101CD4001FA75391BF75F1FF75F20075F36875F492
:101CE4000175F8AF30FCFDD2FE20FEFD90BD43E54A
:101CF400FAF0E0FF90BA24E075F00DA42424F582F4
:101D0400E5F034A0F583EFF0D2FE20FEFD90BA2476
:101D1400E075F00DA42425F582E5F034A0F583C028
:101D240083C082E0FCA3E0FDA3E0FEA3E0FF78080B
:101D34001212A2D082D0831212FA90BA24E075F063
:101D44000DA42425F582E5F034A0F583C083C08278
:101D5400E0F8A3E0F9A3E0FAA3E0FBAFFAEB4FFF4E
:101D6400EAFEE9FDE8FCD082D0831212FA90BA248C
:101D7400E075F00DA42425F582E5F034A0F583C0C8
:101D840083C082E0FCA3E0FDA3E0FEA3E0FF7808AB
:101D94001212A2D082D0831212FA90BA24E075F003
:101DA4000DA42425F582E5F034A0F583C083C08218
:101DB400E0F8A3E0F9A3E0FAA3E0FBAFFBEB4FFFED
:101DC400EAFEE9FDE8FCD082D0831212FA90BA242C
:101DD400E075F00DA42425F582E5F034A0F583C068
:101DE40083C082E0FCA3E0FDA3E0FEA3E0FF78084B
:101DF4001212A2D082D0831212FA90BA24E075F0A3
:101E04000DA42425F582E5F034A0F583C083C082B7
:101E1400E0F8A3E0F9A3E0FAA3E0FBAFFCEB4FFF8B
:101E2400EAFEE9FDE8FCD082D0831212FA90BA24CB
:101E3400E075F00DA42425F582E5F034A0F583C007
:101E440083C082E0FCA3E0FDA3E0FEA3E0FF7808EA
:101E54001212A2D082D0831212FA90BA24E075F042
:101E64000DA42425F582E5F034A0F583C083C08257
:101E7400E0F8A3E0F9A3E0FAA3E0FBAFFDEB4FFF2A
:101E8400EAFEE9FDE8FCD082D0831212FA90BA246B
:101E9400E075F00DA42425F582E5F034A0F583C0A7
:101EA40083C082E0FCA3E0FDA3E0FEA3E0FF78038F
:101EB40012128FD082D0831212FA90BD43E020E731
:101EC4002D90BA24E075F00DA42425F582E5F034B4
:101ED400A0F583C083C082E0FCA3E0FDA3E0FEA3E1
:101EE400E0FF781212128FD082D0831212FA90BDC2
:101EF40043E030E603021F9ED2FE20FEFD90BA248A
:101F0400E0FF75F00DA42429F582E5F034A0F583F3
:101F1400E5FAF075F00DEFA4242AF582E5F034A07B
:101F2400F583E5FBF075F00DEFA4242BF582E5F0C5
:101F340034A0F583E5FCF075F00DEFA4242CF582B4
:101F4400E5F034A0F583E5FDF0D2FE20FEFD90BA65
:101F540024E0FF75F00DA4242DF582E5F034A0F5FE
:101F640083E5FAF075F00DEFA4242EF582E5F03444
:101F7400A0F583E5FBF075F00DEFA4242FF582E5C1
:101F8400F034A0F583E5FCF075F00DEFA42430F5F2
:101F940082E5F034A0F583E5FDF075F80090BA24ED
:101FA400E004F0E59130E51A5391DF90BA26E0FFA2
:101FB400A3E06F6008122E4F438F04800590BA2867
:101FC400E4F0E59130E4035391EFE59130E30353FA
:101FD40091F7E59130E2065391FB438F0475E800D5
:021FE400D2AF7A
:101FE600D007D006D005D004D003D002D001D0004F
:0B1FF600D0D0D082D083D0F0D0E032F9
:05507F0025303258004D
:0D4EFF0042C262000041C15C0041C15D0083
:0A50750075F90175BCFD7590FD2270
:1048900090C265EEF0A3EFF0A3EBF0A3EAF0A3E97A
:0148A000F027
:1048A100124FB2EF04FDE4FFEFC39D502890C267A1
:1048B100E0FBA3E0FAA3E0F98F82758300120FC831
:1048C100FBEF25E0246AF582E434C2F583E4F0A32A
:1048D100EBF00F80D390C265E0FEA3E0FF7B017A8D
:0E48E100C2796A90C027E4F0A3EDF0022CBC6F
:1048300090C366EEF0A3EFF0A3EBF0A3EAF0A3E9D8
:01484000F087
:10484100124FB2EF04FFE4FEEEC39F502890C368FD
:10485100E0FBA3E0FAA3E0F98E82758300120FC892
:10486100FDEE25E0246BF582E434C3F583E4F0A387
:10487100EDF00E80D390C366E0FEA3E0FF7B017AEA
:0F488100C3796B90C027E4F0A3743CF0022CBC09
:1050140053A9FE53B9FEC289D288D2A8C28BD28AC0
:03502400D2AA22EB
:0300030002438F26
:10438F00C0E0C0F0C083C082C0D075D000C000C0F4
:10439F0001C002C003C004C005C006C007C2AF7F82
:1043AF00207E03124F6FE5B030E0F47F207E0312C2
:1043BF004F6FE5B030E0F47F2C7E01124F6FE5B008
:1043CF0030E0F4E5B020E11CE51DD3945090C263BA
:1043DF00E0400424FB800224FFF090C262E034FF2F
:1043EF00F0751D647F017E00124ACAC289C28BD24A
:1043FF00AFD007D006D005D004D003D002D001D063
:0C440F0000D0D0D082D083D0F0D0E032BA
:030013000240B4F4
:1040B400C0E0C0F0C083C082C0D075D000C000C0D2
:1040C40001C002C003C004C005C006C007C2AF7F60
:1040D400207E03124F6FE5B030E1F47F207E03129F
:1040E4004F6FE5B030E1F47F2C7E01124F6FE5B0E5
:1040F40030E1F4E5B020E028E51DD3945040109061
:10410400C263E02405F090C262E03400F0800E90B7
:10411400C263E004F0700690C262E004F0751D64AE
:104124007F017E00124ACAC289C28BD2AFD007D0A7
:1041340006D005D004D003D002D001D000D0D0D016
:0841440082D083D0F0D0E032FC
:104FC700E4FFE5B020E0037402FFE5B020E604EF5C
:034FD7004401FF93
:014FDA0022B4
:102B2100124CE8124EDD125014D2AF125075123809
:102B31001990BD8C1213060001C2007F0312494493
:102B4100E490C264F090C25FF090C15FF090C15E0A
:0A2B5100F0124C29120103125094F7
:102B5B00C2AF7B017AC2796290C027E4F0A304F084
:102B6B007F007E30122CBCD2AF7B017ABD794C90AA
:102B7B00BD90E4F0A37403F07F167E0012246F90D7
:102B8B00BD4CE0B45ACAE4F07B017ABD794E90C0DB
:0C2B9B0027F0A304F07F167E00122CBC73
:102BA70090BD4DE0FF90BD52E4F0A3EFF07B017ABA
:102BB700BD795290C027E4F0A304F07F007E401255
:102BC7002CBC7B017ABD794E90C027E4F0A3740238
:082BD700F07F007E52122CBCBD
:0A2BDF0090BD4DE0146003022B5B73
:102BE900E490BD52F090C02FE0FF90BD52E0FEC3CB
:102BF9009F4003022C9975F009EEA4243DF582E566
:102C0900F034C0F583E0FEA3E0FF90BD4EE0FCA3E5
:102C1900E0FDC39FEC9E406F90BD52E0FF75F00947
:102C2900A42441F582E5F034C0F583E0FAA3E0FB82
:102C3900D3ED9BEC9A505075F009EFA4243FF5822F
:102C4900E5F034C0F583E0FEA3E0FF90BD50E0FC61
:102C5900A3E0FDC39FEC9E402EA3E0FF75F009A4FD
:102C69002443F582E5F034C0F583E0FAA3E0FBD311
:102C7900ED9BEC9A501190C038A3E0FAA3E0F582DD
:102C89008A83121397800990BD52E004F0022BEE5B
:102C990090BD52E0FFA3E4F0A3EFF07B017ABD7988
:102CA9005390C027E4F0A304F07F007E25122CBCCA
:032CB900022B5B90
:03509000FF50933B
:0150930022FA
:1046A000C2AFE4F5F1F5F275F30A75F40175F8AFF0
:1046B00030FCFDD2FE20FEFDAFFA90C474E4F0A3FE
:1046C000EFF0E07F00FE90C474F0A3EFF0ADFBEDDF
:1046D000FF90C474EEF0A3EFF0E4F5F8D2AF90C40D
:1046E00074E0FEA3E0FF90509075F003121337EED4
:1046F00075F003A42583F583E493FB740193FA74A6
:0D4700000293F94A600789828A8312139799
:01470D002289
:04508C000F4072005F
:1044A70078697CC47D017BFF7A50798C7E007F041C
:1044B700120F8990BD8C1213060001C200E4FF128F
:1044C70049447B017AC479691241DF90BA297401A2
:1044D700F0A37484F0A37400F0A37401F0A37488AC
:1044E700F0A37404F0A37401F0A37488F0A3740616
:1044F700F0A37404F0A3E4F07B01A304F0A374BA5F
:10450700F0A3743FF0A3EBF0A374BBF0A3743FF0E8
:10451700A3EBF0A374BBF0A37441F0A37401F0A361
:02452700E4F0BE
:01452900226F
:10452A007B017ABB794390BD90E4F0A37402F07FDB
:10453A00007E0F12246F90BB43E0645A7062F07BD6
:10454A00017ABB794390C027F0A37402F07F007E02
:10455A000F122CBC90BB46E0FDC394C840027D6498
:10456A0090BB44E0FEA3E0FBAA0690BB43745AF05A
:10457A00A374A5F0ED25E02404A3F0A37483F0EA64
:10458A00A3F0A3EBF0A3EDF0AE02AF037B017ABB7D
:10459A00794A90BD90E4F0A3EDF012246F7F0122D6
:0245AA007F0090
:0145AC0022EC
:0B14060090C3F6EBF0A3EAF0A3E9F0BE
:10141100C2AF90000312136312109AFFAEF090C492
:1014210001EEF0A3EFF0D2AF90C3F6E0FBA3E0FA38
:10143100A3E0F990000612136312109AFDACF06F4D
:101441007002EC6E700302193FC390C402E09D90DC
:10145100C401E09C90C3F6E0FBA3E0FAA3E0F950DD
:10146100219000091210C5FF90C402E02FFF90C423
:1014710001E035F0CFC39DCF9C90C3F9F0A3EFF00D
:10148100801E90000612136312109AFFC390C402CB
:10149100E09FFE90C401E095F090C3F9F0A3CEF077
:1014A100C390C3FAE0940690C3F9E0940050037F1F
:1014B100002290C3F6E0FBA3E0FAA3E0F990000656
:1014C10012136312109AFDACF090C3F6E0FBA3E097
:1014D100FAA3E0F91213438D828C83120FC8FF9097
:1014E100C3FFE4F0A3EFF0E0F8E4F0E890C3FFF00D
:1014F100ED2401FFE43CFE90C403F0A3EFF090C3A0
:10150100F6E0FBA3E0FAA3E0F99000091210C5FD93
:10151100C3EF9DEE95F04007E490C403F0A3F012F1
:10152100134390C403E0FEA3E0F5828E83120FC83B
:10153100FF90C3FFE0FEA3E04FFF90C3FFEEF0FE7C
:10154100A3EFF064A57003EE645A60030218EA90F9
:10155100C3F6E0FBA3E0FAA3E0F9900006121363DF
:1015610012109A2403FFE435F0FE90C403F0A3EFB8
:10157100F090C3F6E0FBA3E0FAA3E0F990000912B2
:1015810010C5FDC3EF9DEE95F04007E490C403F054
:10159100A3F012134390C403E0FEA3E0F5828E830F
:1015A100120FC86482600302171890C3F6E0FBA310
:1015B100E0FAA3E0F990000612136312109A2402D4
:1015C100FFE435F0FE90C403F0A3EFF090C3F6E022
:1015D100FBA3E0FAA3E0F99000091210C5FDC3EFE7
:1015E1009DEE95F04007E490C403F0A3F090C3F69C
:1015F100E0FBA3E0FAA3E0F912134390C403E0FE79
:10160100A3E0F5828E83120FC82403FFE433FE901A
:10161100C3FBF0A3EFF0C390C3FAE09F90C3F9E0DE
:101621009E500302193FE490C3FDF0A3F090C3FB69
:10163100E0FEA3E0FFA3E0FCA3E0FDC39FEC9E401E
:10164100030216E490C3F6E0FBA3E0FAA3E0F990ED
:10165100000612136312109AFFAEF090C3F6E0FB7E
:10166100A3E0FAA3E0F91213438F828E83120FC80D
:10167100FF74432DF58274BB3CF583EFF090C3F604
:10168100E0FBA3E0FAA3E0F9900006121363E4750E
:10169100F0011210FD90C3F6E0FBA3E0FAA3E0F91C
:1016A10090000612136312109AFFAEF090C3F6E099
:1016B100FBA3E0FAA3E0F99000091210C5FDC3EF06
:1016C1009DEE95F0400C900006121363E4F5F012C4
:1016D100113590C3FEE004F0700690C3FDE004F004
:1016E10002162E90BB47E0FEA3E0FF7B017ABB7997
:1016F1004990BB45E024FDC313FD90C027E4F0A34E
:10170100EDF0122CBC90BB457403F090BB47744FB5
:10171100F0A3744B02189B90C3F6E0FBA3E0FAA37D
:10172100E0F912134390C403E0FEA3E0F5828E8337
:10173100120FC86483600302189F90C3F6E0FBA3F5
:10174100E0FAA3E0F990000612136312109A240242
:10175100FFE435F0FE90C403F0A3EFF090C3F6E090
:10176100FBA3E0FAA3E0F99000091210C5FDC3EF55
:101771009DEE95F04007E490C403F0A3F090C3F60A
:10178100E0FBA3E0FAA3E0F912134390C403E0FEE7
:10179100A3E0F5828E83120FC82403FFE433FE9089
:1017A100C3FBF0A3EFF0C390C3FAE09F90C3F9E04D
:1017B1009E500302193FE490C3FDF0A3F090C3FBD8
:1017C100E0FEA3E0FFA3E0FCA3E0FDC39FEC9E408D
:1017D1000302187490C3F6E0FBA3E0FAA3E0F990CA
:1017E100000612136312109AFFAEF090C3F6E0FBED
:1017F100A3E0FAA3E0F91213438F828E83120FC87C
:10180100FF74432DF58274BB3CF583EFF090C3F672
:10181100E0FBA3E0FAA3E0F9900006121363E4757C
:10182100F0011210FD90C3F6E0FBA3E0FAA3E0F98A
:1018310090000612136312109AFFAEF090C3F6E007
:10184100FBA3E0FAA3E0F99000091210C5FDC3EF74
:101851009DEE95F0400C900006121363E4F5F01232
:10186100113590C3FEE004F0700690C3FDE004F072
:101871000217BE90BB47E0FEA3E0FF7B017ABB7974
:101881004AA3E0FD90BD90E4F0A3EDF012246F9027
:10189100BB49E025E0240490BB45F07F012290C3C1
:1018A100F6E0FBA3E0FAA3E0F9900006121363E46B
:1018B10075F0011210FD90C3F6E0FBA3E0FAA3E07E
:1018C100F990000612136312109AFFAEF090C3F65E
:1018D100E0FBA3E0FAA3E0F99000091210C5FDC3F3
:1018E100EF9DEE95F04057804990C3F6E0FBA3E0F1
:1018F100FAA3E0F9900006121363E475F0011210E7
:10190100FD90C3F6E0FBA3E0FAA3E0F99000061214
:10191100136312109AFFAEF090C3F6E0FBA3E0FA56
:10192100A3E0F99000091210C5FDC3EF9DEE95F0FB
:10193100400C900006121363E4F5F01211357F009C
:011941002283
:1033A90090BA25E0FF90BA24E06F700302344275A9
:1033B900F00DEFA42425F582E5F034A0F583E0FCB7
:1033C900A3E0FDA3E0FEA3E0FFE47B23FAF9F8C341
:1033D90012127E705E90BA25E075F00DA42424F5D2
:1033E90082E5F034A0F583E0540FFFE4FEEEC39FBD
:1033F900504190BA25E075F00DA42429F582E5F035
:1034090034A0F583E5822EF582E43583F583E0FD6A
:1034190090BB3FE0FAA3E0243FF58274BA3AF58302
:10342900EDF090BB40E004F0700690BB3FE004F083
:103439000E80BA90BA25E004F012452AEF640170B3
:103449004190BB45E02403FDE433FC7B017ABB7961
:1034590043E4FF12262FE490C3D3F090BB45E02448
:1034690003FEE43390C3D4F0A3CEF0A37401F0A318
:1034790074BBF0A37443F07F237E007D007C0012AF
:1034890020017B017ABA7929121406BF011590BB74
:1034990045E02403FDE433FC7B017ABB7943E4FF77
:1034A90012262F7B017ABA7934121406BF012CE453
:1034B90090C3D3F090BB45E02403FEE43390C3D41A
:1034C900F0A3CEF0A37401F0A374BBF0A37443F08E
:0B34D9007F247E007D007C001220019B
:0134E40022C5
:10502700FF988103FF988104FF988101FF98810011
:0350370035112907
:024F0C00C109D9
:103D6F00E490C45BF0A3F0A374B0F0A374FAF0C2B4
:103D7F0090C2947F057E00124F6FE490C45FF09065
:103D8F00C45DE0A330E704D2928002C292C2937F57
:103D9F00057E00124F6FD2937F057E00124F6F90FA
:103DAF00C45EE025E0F090C45DE033F090C45FE0C6
:103DBF0004F0E0C3941040C7D2947F057E00124FE9
:103DCF006FE490C45FF0C2937F057E00124F6FD2F5
:103DDF00937F057E00124F6F90C45CE025E0F0905A
:103DEF00C45BE033F0309107E0F0A3E04401F090C2
:103DFF00C45FE004F0E0C3941040CBD2907F057E07
:0C3E0F0000124F6F90C45BE0FEA3E0FFC8
:013E1B002284
:103CC000E490C460F0A3F0EFFF74FAA3CFF0A3EF89
:103CD000F0C290C2947F057E00124F6FE490C464DE
:103CE000F090C462E0A330E704D2928002C292C294
:103CF000937F057E00124F6FD2937F057E00124F97
:103D00006F90C463E025E0F090C462E033F090C4AB
:103D100064E004F0E0C3941040C7D2947F057E00B5
:103D2000124F6FE490C464F0C2937F057E00124F7F
:103D30006FD2937F057E00124F6F90C461E025E043
:103D4000F090C460E033F0309107E0F0A3E044016C
:103D5000F090C464E004F0E0C3941040CBD2907FB4
:0E3D6000057E00124F6F90C460E0FEA3E0FFEE
:013D6E002232
:1049970090BD95EFF0C290C2947F057E00124F6FD5
:1049A700E490BD94F090BD95E030E704D292800288
:1049B700C292C2937F057E00124F6FD2937F057E0E
:1049C70000124F6F90BD95E025E0F090BD94E00494
:1049D700F0E0C3940840CED2907F057E00024F6F6F
:0539D300E4FDFC7FB8DB
:1039D80090BD95EFF0ECA3F0A3EDF0C290C2947FF8
:1039E800057E00124F6FE490BD94F090BD95E030D5
:1039F800E704D2928002C292C2937F057E00124FE2
:103A08006FD2937F057E00124F6F90BD95E025E041
:103A1800F090BD94E004F0E0C3940840CED2947FC7
:103A2800057E00124F6FE490BD94F090BD97E03092
:103A3800E704D2928002C292C2937F057E00124FA1
:103A48006FD2937F057E00124F6F90BD97E025E0FF
:103A5800F090BD94E004F0E0C3940840CEE490BD3B
:103A680094F090BD96E030E704D2928002C292C2F0
:103A7800937F057E00124F6FD2937F057E00124F11
:103A88006F90BD96E025E0F090BD94E004F0E0C3AF
:0D3A9800940840CED2907F057E00024F6F53
:063F74007BFF7D047C00D0
:0B3F7A0090BD8BEBF0A3EAF0A3E9F090
:103F8500AE04AF05A3EEF0A3EFF07FBC1239D890D5
:103F9500BD8EE0FCA3E0FD7FBE1239D87FBF12497C
:103FA50097C290D2947F057E00124F6F90BD8E749C
:103FB500FFF5F012108445F0605190BD8BE0FBA336
:103FC500E475F001121084A9F0FA120FAF90BD91BB
:103FD500F0E490BD90F090BD90E0C3940850CDA35F
:103FE500E030E704D2928002C292C2937F057E0040
:103FF500124F6FD2937F057E00124F6F90BD91E0F7
:1040050025E0F090BD90E004F080CBD2907F057E56
:0440150000024F6FE7
:103EC80090BD917401F0A374BDF0A3748FF090BD00
:103ED8008FEFF0A3EDF090BD8BE4F0A37402F0FD3A
:103EE8007C007FBC1239D890BD8BE0FCA3E0FD7F3D
:103EF800BE1239D87FBF124997C290D2947F0F7EE5
:103F080000124F6F90BD8B74FFF5F012108445F0CE
:103F1800605190BD91E0FBA3E475F001121084A9F3
:103F2800F0FA120FAF90BD8EF0E490BD8DF090BD09
:103F38008DE0C3940850CDA3E030E704D29280020C
:103F4800C292C2937F0F7E00124F6FD2937F0F7E73
:103F580000124F6F90BD8EE025E0F090BD8DE0041B
:0C3F6800F080CBD2907F0F7E00024F6FE4
:100939007A507927123F74E4FD7F01123EC8E4FD25
:100949007F02123EC87D577F03123EC87DD37F04C4
:10095900123EC8E4FD7F05123EC87D117F06123E96
:10096900C87D087F07123EC8E4FD7F08123EC8E42F
:10097900FD7F09123EC87D3F7F0A123EC8E4FD7F14
:100989000B123EC8E4FD7F0C123EC8E4FD7F0D1238
:100999003EC8E4FD7F0E123EC87D3F7F0F123EC860
:1009A9007D3F7F10123EC8E4FD7F11123EC8E4FD71
:1009B9007F12123EC8E4FD7F13123EC8E4FD7F1486
:1009C900123EC8E4FD7F15123EC8E4FD7F16123EB3
:1009D900C8E4FD7F17123EC8E4FD7F18123EC8E443
:1009E900FD7F19123EC8E4FD7F1A123EC8E4FD7F5F
:1009F9001B123EC8E4FD7F1C123EC8E4FD7F1D1298
:100A09003EC87D407F1E123EC87D807F1F123EC8B2
:100A19007D067F20123EC87D017F21123EC8E4FD7C
:100A29007F22123EC8E4FD7F23123EC8E4FD7F24E5
:100A3900123EC8E4FD7F25123EC8E4FD7F26123E22
:100A4900C8E4FD7F27123EC87D337F28123EC87D4A
:100A5900337F29123EC8E4FD7F2A123EC8E4FD7F98
:100A69002B123EC8E4FD7F2C123EC8E4FD7F2D12F7
:100A79003EC8E4FD7F2E123EC8E4FD7F2F123EC81A
:100A8900E4FD7F30123EC8E4FD7F31123EC8E4FD2B
:100A99007F32123EC8E4FD7F33123EC8E4FD7F3445
:100AA900123EC8E4FD7F35123EC8E4FD7F36123E92
:100AB900C8E4FD7F37123EC87D787F38123EC8E40E
:100AC900FD7F39123EC8E4FD7F3A123EC8E4FD7F3E
:100AD9003B123EC8E4FD7F3C123EC8E4FD7F3D1257
:100AE9003EC8E4FD7F3E123EC8E4FD7F3F123EC88A
:100AF900E4FD7F40123EC8E4FD7F41123EC8E4FD9B
:100B09007F42123EC8E4FD7F43123EC8E4FD7F44A4
:100B1900123EC8E4FD7F50123EC87D237F51123E2C
:100B2900C87D457F52123EC87D677F53123EC87DFE
:100B3900897F54123EC87DAB7F55123EC87D017F27
:100B490056123EC87D237F57123EC87D457F5812F5
:100B59003EC87D677F59123EC87D897F5A123EC8BB
:100B69007DAB7F5B123EC87DCD7F5C123EC87DEFB9
:100B79007F5D123EC8E4FD7F5E123EC87D0D7F5F3A
:100B8900123EC87D0D7F60123EC87D0C7F61123E0A
:100B9900C87D0C7F62123EC87D0F7F63123EC87DFF
:100BA9000F7F64123EC87D0E7F65123EC87D0E7FA1
:100BB90066123EC87D087F67123EC87D027F6812B3
:100BC9003EC87D027F69123EC87D027F6A123EC817
:100BD9007D027F6B123EC87D027F6C123EC87D028A
:100BE9007F6D123EC87D027F6E123EC87D027F6F07
:100BF900123EC87D147F70123EC87D157F71123E6A
:100C0900C87D067F72123EC87D027F73123EC87D81
:100C1900027F74123EC87D0D7F75123EC87D0D7F1F
:100C290076123EC87D0C7F77123EC87D0C7F781204
:100C39003EC87D0F7F79123EC87D0F7F7A123EC86C
:100C49007D0E7F7B123EC87D0E7F7C123EC87D08DB
:100C59007F7D123EC87D027F7E123EC87D027F7F66
:100C6900123EC87D027F80123EC87D027F81123EFE
:100C7900C87D027F82123EC87D027F83123EC87DF5
:100C8900027F84123EC87D027F85123EC87D147F93
:100C990086123EC87D157F87123EC87D067F881261
:100CA9003EC87D027F89123EC87D027F8A123EC8F6
:100CB9007A50792B123F747D3B7F6E123EC87D5767
:100CC9007F6F123EC87D247F3A123EC87D1F7F8DFB
:100CD900123EC87DBA7F87123EC87DD17FB2123ECF
:100CE900C87D0B7F88123EC87D017F38123EC8E45B
:100CF900FD7F39123EC87D077FB5123EC87D757FDD
:100D090031123EC87D987F3B123EC87BFF7A5079ED
:100D19002F123F767D0A7F22123EC87D097F31124C
:100D29003EC87D077F35123EC87D677F53123EC896
:100D39007D847F55123EC87D867F50123EC87D82D4
:100D49007F51123EC87D107F60123EC8E4FD7F626C
:100D5900123EC8E4FD7FA0123EC87D127FA1123E5B
:100D6900C87D1F7FA2123EC87D127FA3123EC87D97
:100D7900167FA4123EC87D297FA5123EC87D1E7F1D
:100D8900A6123EC87D1F7FA7123EC87D7E7FA8128E
:100D99003EC87D1B7FA9123EC87D287FAA123EC886
:100DA9007D6D7FAB123EC87D197FAC123EC87D18A0
:100DB9007FAD123EC87D4C7FAE123EC87D1E7FAF0F
:100DC900123EC87D237FB0123EC87D527FB1123ECC
:100DD900C87D6D7FB2123EC87D3F7FB3123EC8E425
:100DE900FD7FC0123EC87D127FC1123EC87D207FA3
:100DF900C2123EC87D107FC3123EC87D137FC41244
:100E09003EC87D277FC5123EC87D1B7FC6123EC8DE
:100E19007D1D7FC7123EC87D757FC8123EC87D1FE4
:100E29007FC9123EC87D287FCA123EC87D687FCB24
:100E3900123EC87D1A7FCC123EC87D187FCD123E66
:100E4900C87D4D7FCE123EC87D257FCF123EC87D1D
:100E59002E7FD0123EC87D537FD1123EC87D607F60
:100E6900D2123EC87D3F7FD3123EC87BFF7A5079AC
:100E790033123F767BFF7A5079377D017C00123F30
:100E89007A7F8C7E00124ACA7BFF7A5079387D01BD
:100E99007C00123F7A7F787E00124ACA7BFF7A5023
:100EA90079397D017C00123F7A7FAA7E00024ACA05
:104DB8007D067C087FB11239D87D227C187FB2121B
:104DC80039D87D127C687FB31239D87D207C037F67
:0D4DD800B41239D87D007C057FB50239D8B2
:103819007D507C007FB71239D81239D3E4FDFC7F83
:10382900B91239D87D0A7C807FBA1239D87D067CD5
:10383900007FBB1239D87D017C007FB91239D8E4E9
:10384900FDFC7FDE1239D87D027C237FC91239D86D
:103859007F0A7E00124ACA1209397D517C017FB75D
:103869001239D81239D3E4FDFC7FB91239D87D1544
:103879007C807FBA1239D87D057C007FBB1239D88C
:103889007D017C007FB91239D87D027C237FC91262
:1038990039D87F0A7E00124ACA7D017C237FCA1269
:1038A90039D87D107C057FCB1239D87D057C107FF6
:1038B900CC1239D87DFF7C007FD01239D8124DB88F
:1038C9007DD37C007FB61239D87D037C007FDE1260
:1038D90039D87D047C007FD61239D87D4B7C027F94
:0E38E900B71239D87F3C7E00124ACAD209229B
:104D8A00008003FFFFBF03FFFCBF0000306F00007D
:104D9A000007000003800000007800000C000000FB
:0E4DAA00300000F00000000FC0000300000009
:0A4F0E0041C03B00042A0210548940
:10360E0090BDACEEF0A3EFF0A3EBF0A3EAF0A3E9CC
:01361E00F0BB
:10361F0090BDB47424F0A37407F090BDB1E0FF9097
:10362F00BDB6E4F0A3EFF090BDB37402F0E490BD2B
:10363F00B2F090BDB1E0FFA3E0FEC39F400302369E
:10364F00E9EE75F009A4FF90BDAEE0FBA3E0FAA38D
:10365F00E02FF9EA35F0FA9000011210C5FF90BD86
:10366F00B3E025E024B4F582E434BDF583E5F0F052
:10367F00A3EFF090BDB3E004F09000031210C5FF6C
:10368F0090BDB3E025E024B4F582E434BDF583E5C5
:10369F00F0F0A3EFF090BDB3E004F090BDAEE0FB0F
:1036AF00A3E0FAA3E0F990BDB2E075F009A4F582AA
:1036BF0085F083120FC8FF90BDB3E025E024B4F569
:1036CF0082E434BDF583E4F0A3EFF090BDB3E004E2
:1036DF00F090BDB2E004F002364190BDB3E0FD259D
:1036EF00E024B4F582E434BDF58374FFF0A3E4F075
:1036FF0090BDACE0FEA3E0FF7B017ABD79B490C032
:09370F0027E4F0A3EDF0022CBC4C
:1027E20090BD99EEF0A3EFF090BD9CEAF0A3EBF060
:1027F200E490BDA8F0A3F0A3F0A3F0ED904D8A60A1
:1028020012E493FE740193FFC3E49FFFE49E90BD24
:10281200AA800AE493FF74019390BDA8CFF0A3EFBE
:10282200F0E490BDA7F090C02FF0E4FFFEFDFC9015
:10283200BDA0E0F8A3E0F9A3E0FAA3E0FBC3121203
:102842007E700302295690BDA0A3A3A3E05401FF0A
:10285200E4EF700302293490BDA7E0FF90C02FE09F
:10286200FE75F009A4243CF582E5F034C0F583EF4F
:10287200F090BD9CE0FCA3E0FD75F009EEA4243DC0
:10288200F582E5F034C0F583ECF0A3EDF090BD9E47
:10289200E0FEA3E0FF90C02FE0FD75F009A4243F05
:1028A200F582E5F034C0F583EEF0A3EFF0904D8AA7
:1028B200E493FE740193FF90BD9DE02FFF90BD9CB9
:1028C200E03EFE75F009EDA42441F582E5F034C046
:1028D200F583EEF0A3EFF0904D8AE493FE7401933A
:1028E200FF90BD9FE02FFF90BD9EE03EFE90C02F67
:1028F200E075F009A42443F582E5F034C0F583EED7
:10290200F0A3EFF090BDA8E0FEA3E0FF90BD9DE034
:102912002FF090BD9CE03EF090BDAAE0FEA3E0FF48
:1029220090BD9FE02FF090BD9EE03EF090C02FE062
:1029320004F090BDA0E0FCA3E0FDA3E0FEA3E0FF55
:10294200780112128F90BDA01212FA90BDA7E00476
:10295200F002282C90BDA4E0F9A3E0FAA3E090C015
:1029620038C9F0A3EAF0A3E9F090BD99E0FEA3E034
:10297200FF7B017AC0793C90C02FE090BDB1F0029C
:02298200360E0F
:0531170090BD8BEFF0FC
:10311C00E490BD90F090BD90E0FBC3940840030296
:10312C003263E47F01FEFDFC90BD8BE075F009A4D9
:10313C00243CF582E5F034C0F583E0F9F81212A2D4
:10314C00EB25E025E02498F582E4344DF58312124A
:10315C00DEEB5FFFEA5EFEE95DFDE85CFC4D4E4F89
:10316C00700302325A90BD90E025E025E02498F5DA
:10317C0082E4344DF5831212C190C03BE025E0256A
:10318C00E0248CF582E4344DF5831212DEEB5FFF04
:10319C00EA5EFEE95DFDE85CFC90BD8C1212FA90D3
:1031AC00BD8CE0F8A3E0F9A3E0FAA3E0FBC000C0FB
:1031BC0001E47F01FEFDFC90BD8BE075F009A424B9
:1031CC003CF582E5F034C0F583E0F9F81212A21256
:1031DC001271D001D000EB5FFFEA5EFEE95DFDE805
:1031EC005CFC90BD8C1212FAE4FFFEFDFC90BD8CD1
:1031FC00E0F8A3E0F9A3E0FAA3E0FBC312127E60AF
:10320C005690BD8BE0FF7E00904D8AE493FC7401D8
:10321C0093FD121007AA06AB0790BD9E7402F0A393
:10322C007420F090BD8CE0FCA3E0FDA3E0FEA3E0D5
:10323C00FF90BDA01212FA90BDA474FFF0A37429E4
:10324C00F0A37484F07D017F007E950227E290BD8F
:07325C0090E004F0023121B3
:013263002248
:0529840090BD91EFF091
:10298900E4A3F090BD92E0FBC394084003022B0638
:10299900E47F01FEFDFC90BD91E075F009A4243CA3
:1029A900F582E5F034C0F583E0F9F81212A2EB25BF
:1029B900E025E02498F582E4344DF5831212DEEB2C
:1029C9005FFFEA5EFEE95DFDE85CFC4D4E4F70037A
:1029D900022AFD782A1212D190BD92E025E025E065
:1029E9002498F582E4344DF5831212C1121271EB69
:1029F9005FFFEA5EFEE95DFDE85CFC782A1212EEF3
:102A090090BD91E075F009A4243CF582E5F034C04D
:102A1900F583E014600E14601324027015E490C06D
:102A29003BF0800E90C03B7401F0800690C03B746F
:102A390002F0782A1212D1C000C001E47F01FEFD24
:102A4900FC90BD91E075F009A4243CF582E5F034D1
:102A5900C0F583E0F9F81212A2D001D000EB4FFFC4
:102A6900EA4EFEE94DFDE84CFC782A1212EE90C0C0
:102A79003BE025E025E0248CF582E4344DF5831212
:102A890012C190BD931212FA90BD93E0FCA3E0FD30
:102A9900A3E0FEA3E0FF782A1212D1EF5BFFEE5A02
:102AA900FEED59FDEC58FC90BD931212FA904D8A37
:102AB900E493FE740193FFC374209F90BD9FF0744B
:102AC900039E90BD9EF090BD93E0FCA3E0FDA3E0C2
:102AD900FEA3E0FF90BDA01212FA90BDA474FFF00E
:102AE900A37431F0A37417F0E4FBFAFDFF7E901292
:0D2AF90027E2800990BD92E004F002298CD4
:102B0600E490BD97F0A3F07B017ABD799790C0273A
:0B2B1600F0A304F07F007E95022CBCB1
:104C2900E490C03BF0904D8A93FE740193FFC374E6
:104C3900209F90BD9FF074039E90BD9EF0782A122C
:104C490012B590BDA01212FA90BDA474FFF0A3741E
:104C590031F0A37417F0E4FBFAFDFF7E900227E21E
:104C69007D017E007F04120F8990BF21E0FDFF9036
:104C7900BEFDE02FFF90BEFCE03400FE90BEFFE0D9
:094C890090BEFE2DFDE03400FC9C
:104C920090BF2AEEF0A3EFF0AF05A3ECF0A3EFF084
:064CA2007B017ABF792AB4
:014CA80022E9
:1032640090BF2AEEF0A3EFF0A3EBF0A3EAF0A3E9FA
:01327400F069
:1032750090BF32E4F0A37404F090BF2FE0FF90BF3D
:1032850034E4F0A3EFF090BF317402F0E490BF3066
:10329500F090BF2FE0FFA3E0C39F400302337A9075
:1032A500BF2CE0FBA3E0FAA3E0F990BF30E0FF7587
:1032B500F00AA4F58285F0831210C5FD90BF31E0B8
:1032C50025E02432F582E434BFF583E5F0F0A3ED83
:1032D500F090BF31E004F0EF75F00AA4FFE92FF993
:1032E500EA35F0FA9000021210C5FF90BF31E025D3
:1032F500E02432F582E434BFF583E5F0F0A3EFF086
:1033050090BF31E004F09000041210C5FF90BF316A
:10331500E025E02432F582E434BFF583E5F0F0A33F
:10332500EFF090BF31E004F09000061210C5FF9059
:10333500BF31E025E02432F582E434BFF583E5F0C2
:10334500F0A3EFF090BF31E004F09000081210C533
:10335500FF90BF31E025E02432F582E434BFF583E8
:10336500E5F0F0A3EFF090BF31E004F090BF30E05E
:1033750004F002329690BF31E0FD25E02432F5825B
:10338500E434BFF58374FFF0A3E4F090BF2AE0FEB8
:10339500A3E0FF7B017ABF793290C027E4F0A3ED6B
:0433A500F0022CBC4A
:102FBB0090BF2AEEF0A3EFF0A3EBF0A3EAF0A3E9A6
:012FCB00F015
:102FCC0090BF32E4F0A3740AF090BF2FE0FF90BFE3
:102FDC0034E4F0A3EFF090BF317402F0E490BF3012
:102FEC00F090BF2FE0FFA3E0FEC39F40030230E848
:102FFC00EE75F00AA4FF90BF2CE0FBA3E0FAA3E06F
:10300C002FF9EA35F0FA9000081210C5FF90BF3185
:10301C00E025E02432F582E434BFF583E5F0F0A33B
:10302C00EFF090BF31E004F090BF2CE0FBA3E0FA8E
:10303C00A3E0F990BF30E0FF75F00AA4F58285F0AB
:10304C00831210C5FD90BF31E025E02432F582E4F7
:10305C0034BFF583E5F0F0A3EDF090BF31E004F060
:10306C00EF75F00AA4FFE92FF9EA35F0FA900002A7
:10307C001210C5FF90BF31E025E02432F582E43414
:10308C00BFF583E5F0F0A3EFF090BF31E004F090D2
:10309C0000041210C5FF90BF31E025E02432F58208
:1030AC00E434BFF583E5F0F0A3EFF090BF31E0041A
:1030BC00F09000061210C5FF90BF31E025E02432DD
:1030CC00F582E434BFF583E5F0F0A3EFF090BF3167
:1030DC00E004F090BF30E004F0022FED90BF31E03F
:1030EC00FD25E02432F582E434BFF58374FFF0A3B0
:1030FC00E4F090BF2AE0FEA3E0FF7B017ABF7932B7
:0B310C0090C027E4F0A3EDF0022CBC03
:10010300E490BD8BF0A3F0A304F0A374F4F0A37404
:100113000BF0A37496F0A37478F0A374F8F0A3E43F
:10012300F07DF47C017F28FE124C9278F87CBE7D32
:10013300017F04120F8990BD90E0FF90BEF9E02F7C
:10014300FF90BEF8E03400FE90BEFAE0FCA3E0FDB1
:10015300124C9278FC7CBE7D017E007F04120F89D5
:1001630090BEFCE0FEA3E0FF90BD91E0FDC390BE16
:10017300FFE09DFD90BEFEE09400FC124C927800DF
:100183007CBF7D017E007F04120F8990BD90E0FF4C
:1001930090BF01E02FFF90BF00E03400FE90BF024C
:1001A300E0FCA3E0FD124C9278047CBF7D017E004D
:1001B3007F04120F8990BD90E0FF90BF05E02FFFF1
:1001C30090BF04E03400FE90BD91E0FDC390BF07F3
:1001D300E09DFD90BF06E09400FC124C9278087CF1
:1001E300BF7D017E007F04120F8990BD90E075F002
:1001F30002A4FF90BF09E02FFF90BF08E035F0FE97
:1002030090BF0AE0FCA3E0FD124C92780C7CBF7D0A
:10021300017E007F04120F8990BD90E0FF90BF0D17
:10022300E02FFF90BF0CE03400FE90BD91E0FD9005
:10023300BF0FE090BF0E124C8C78107CBF7D017E07
:10024300007F04120F8990BD90E0FF90BF11E02F53
:10025300FF90BF10E03400FE90BF12E0FCA3E0FD6E
:10026300124C9278147CBF7D017E007F04120F89AB
:1002730090BF14E0FEA3E0FF90BD91E0FD90BF1797
:10028300E02DFD90BF16124C8E78187CBF7D017E49
:10029300007F04120F8990BD90E0FF90BF19E02FFB
:1002A300FF90BF18E03400FE90BF1AE0FCA3E0FD0E
:1002B300124C92781C7CBF7D017E007F04120F8953
:1002C30090BEDE7430F0A3E4F090BEE47407F0A3B4
:1002D30074FFF0E4A3F0A37420F0A37402F0A3046A
:1002E300F0E4A3F0A3F0A37402F0A3746DF0A3747D
:1002F30073F0E4A3F090BEF8E0FEA3E0FF90BEFE2F
:10030300E0FCA3E0FD124C9278E07CBE7D017E0010
:100313007F04120F897B017ABE79DE90C027E4F057
:10032300A3740DF07F007E10122CBC90BF00E0FE82
:10033300A3E0FF90BF07E024BAFD90BF06E034FFBF
:10034300FC124C9278E07CBE7D017E007F04120F8C
:10035300897B017ABE79DE90C027E4F0A3740DF0A7
:100363007F307E10122CBC90BF00E0FEA3E0FF9014
:10037300BF06E0FCA3E0FD124C9278E07CBE7D0159
:100383007E007F04120F897B017ABE79DE90C0273D
:10039300E4F0A3740DF07F607E10122CBC90BF04B8
:1003A300E0FEA3E0FFA3E0FCA3E0FD124C9278E0A3
:1003B3007CBE7D017E007F04120F897B017ABE79AA
:1003C300DE90C027E4F0A3740DF07F907E10122C12
:1003D300BC90BF08E0FEA3E0FF90BF0FE024BAFD8E
:1003E30090BF0EE034FFFC124C9278E07CBE7D019E
:1003F3007E007F04120F897B017ABE79DE90C027CD
:10040300E4F0A3740DF07F207E11122CBC90BF0C7E
:10041300E0FEA3E0FF90BF12E0FCA3E0FD124C92CC
:1004230078E07CBE7D017E007F04120F897B017A18
:10043300BE79DE90C027E4F0A3740DF07F507E11E7
:10044300122CBC90BF10E0FEA3E0FF90BF13E0248A
:10045300BAFD90BF12E034FFFC124C9278E07CBEF0
:100463007D017E007F04120F897B017ABE79DE90C5
:10047300C027E4F0A3740DF07F807E11122CBC9092
:10048300BF10E0FEA3E0FFA3E0FCA3E0FD124C924B
:1004930078E07CBE7D017E007F04120F897B017AA8
:1004A300BE79DE90C027E4F0A3740DF07F107E12B6
:1004B300122CBC90BF18E0FEA3E0FF90BF1EE0FC2F
:1004C300A3E0FD124C9278E07CBE7D017E007F04A8
:1004D300120F897B017ABE79DE90C027E4F0A37402
:0904E3000DF07F407E12122CBCCA
:1004EC0090BD8FE0C31390BF21F0E0FDFFC390BE21
:1004FC00F9E09FFF90BEF8E09400FEC390BEFBE0D5
:10050C009DFD90BEFAE09400FC124C9278947CBD58
:10051C00124C6978987CBD7D017E007F04120F8996
:10052C0090BF21E0FDFFC390BF01E09FFF90BF0093
:10053C00E09400FEC390BF03E09DFD90BF02E094E9
:10054C0000FC124C92789E7CBD124C6978A27CBD4A
:10055C007D017E007F04120F8990BF21E0FDFFC357
:10056C0090BF01E09FFF90BF00E09400FEC390BFDE
:10057C0003E09DFD90BF02E09400FC124C9278A821
:10058C007CBD7D017E007F04120F8990BF21E0FDB0
:10059C00FF90BF05E02FFF90BF04E03400FE90BF3A
:1005AC0007E02DFD90BF06124C8E78AC7CBD7D0112
:1005BC007E007F04120F8990BF21E0FDFFC390BF26
:1005CC0009E09FFF90BF08E09400FEC390BF0BE0D2
:1005DC009DFD90BF0AE09400FC124C9278B27CBD59
:1005EC007D017E007F04120F8990BF21E0FDFF90FA
:1005FC00BF0DE02FFF90BF0CE03400FE90BF0FE06A
:10060C002DFD90BF0E124C8E78B67CBD7D017E0008
:05061C007F04120F89AC
:1006210090BDACE0FEA3E0FF90BD8FE0FDC390BDA7
:10063100AFE09DFD90BDAEE09400CD2401CD34002E
:10064100FC124C9278227CBF7D017E007F04120F48
:100651008978267CBF7D017B017ABD79B27E007FDE
:1006610004120F89E490BF20F090BF20E0FFC394F3
:100671000B507CEF75F00AA424DAF974BD35F0A8AB
:1006810001FC7D017B017ABF79227E007F04120F7C
:100691008990BF20E075F00AA424DEF974BD35F01D
:1006A100A801FC7D017B017ABF79267E007F0412BF
:1006B1000F8990BF20E075F00AA424E2F582E434AA
:1006C100BDF5837407F0A374FFF090BF25E004F03B
:1006D100700690BF24E004F090BF29E004F070069A
:0F06E10090BF28E004F090BF20E004F002066A0A
:1006F00090BF21E0FDFFC390BF11E09FFF90BF10AE
:10070000E09400FEC390BF13E09DFD90BF12E09403
:1007100000FC124C9278BC7CBD7D017E007F0412EF
:100720000F8990BF21E0FDFF90BF15E02FFF90BF24
:1007300014E03400FE90BF17E02DFD90BF16124C60
:0E0740008E78C07CBD7D017E007F04120F8983
:10074E0090BDB6E0FEA3E0FF90BD8FE0FDC390BD6F
:10075E00B9E09DFD90BDB8E09400CD2401CD3400EC
:10076E00FC124C9278227CBF7D017E007F04120F1A
:10077E008978267CBF7D017B017ABD79BC7E007FA6
:10078E0004120F8990BF20740BF090BF20E0FFC3BE
:10079E009416507CEF75F00AA424DAF974BD35F086
:1007AE00A801FC7D017B017ABF79227E007F0412B5
:1007BE000F8990BF20E075F00AA424DEF974BD35D0
:1007CE00F0A801FC7D017B017ABF79267E007F04B3
:1007DE00120F8990BF20E075F00AA424E2F582E49E
:1007EE0034BDF5837407F0A374FFF090BF25E004C9
:1007FE00F0700690BF24E004F090BF29E004F07082
:10080E000690BF28E004F090BF20E004F0020798A5
:10081E0090BF21E0FDFFC390BF15E09FFF90BF1476
:10082E00E09400FEC390BF17E09DFD90BF16E094CC
:10083E0000FC124C9278C67CBD7D017E007F0412B6
:10084E000F8990BF21E0FDFF90BF19E02FFF90BFF1
:10085E0018E03400FE90BF1BE02DFD90BF1A124C25
:10086E008E78CA7CBD7D017E007F04120F8990BFF9
:10087E0021E0FDFFC390BF19E09FFF90BF18E094E9
:10088E0000FEC390BF1BE09DFD90BF1AE09400FCDC
:10089E00124C9278D07CBD7D017E007F04120F89B0
:1008AE0090BF21E0FDFF90BF1DE02FFF90BF1CE029
:1008BE003400FE90BF1FE02DFD90BF1E124C8E78AF
:1008CE00D47CBD7D017E007F04120F89E490BF2091
:1008DE00F090BF20E0FFC39407501BEF75F00AA401
:1008EE00249CF582E434BDF58374FFF0A3F090BF31
:1008FE0020E004F080DB90BD92E0FFA3E090BDBA53
:05090E00CFF0A3EFF0A3
:100913007B017ABD799490BF2F7407F07F007E70BE
:100923001232647B017ABD79DA90BF2F7416F07F9F
:06093300007E75022FBBDF
:0150940022F9
:0300000002441B9C
:0C441B00787FE4F6D8FD75812D02446224
:10442700022B21E493A3F8E493A34003F68001F25F
:1044370008DFF48029E493A3F85407240CC8C33396
:10444700C4540F4420C8834004F456800146F6DF65
:10445700E4800B0102040810204080904EFBE47EAC
:10446700019360BCA3FF543F30E509541FFEE4935A
:10447700A360010ECF54C025E060A840B8E493A321
:10448700FAE493A3F8E493A3C8C582C8CAC583CA4C
:10449700F0A3C8C582C8CAC583CADFE9DEE780BE04
:014F18000098
:100EB900E709F608DFFA8046E709F208DFFA803E1B
:100EC90088828C83E709F0A3DFFA8032E309F60808
:100ED900DFFA8078E309F208DFFA807088828C8370
:100EE900E309F0A3DFFA806489828A83E0A3F60824
:100EF900DFFA805889828A83E0A3F208DFFA804CFE
:100F090080D280FA80C680D4806980F280338010D4
:100F190080A680EA809A80A880DA80E280CA80333D
:100F290089828A83ECFAE493A3C8C582C8CCC583B5
:100F3900CCF0A3C8C582C8CCC583CCDFE9DEE78085
:100F49000D89828A83E493A3F608DFF9ECFAA9F004
:100F5900EDFB2289828A83ECFAE0A3C8C582C8CC5A
:100F6900C583CCF0A3C8C582C8CCC583CCDFEADE73
:100F7900E880DB89828A83E493A3F208DFF980CCD5
:100F890088F0EF60010E4E60C388F0ED2402B404CE
:100F99000050B9F582EB2402B4040050AF23234575
:060FA9008223900F097382
:100FAF00BB010689828A83E0225002E722BBFE0240
:090FBF00E32289828A83E4932273
:100FC800BB010CE58229F582E5833AF583E02250DE
:100FD80006E92582F8E622BBFE06E92582F8E22228
:0D0FE800E58229F582E5833AF583E4932242
:100FF500BB010689828A83F0225002F722BBFE01DB
:02100500F322D4
:10100700EF8DF0A4A8F0CF8CF0A428CE8DF0A42EFD
:02101700FE22B7
:10101900BC000BBE0029EF8DF084FFADF022E4CCBB
:10102900F875F008EF2FFFEE33FEEC33FCEE9DEC84
:10103900984005FCEE9DFE0FD5F0E9E4CEFD22EDCA
:10104900F8F5F0EE8420D21CFEADF075F008EF2F14
:10105900FFED33FD4007985006D5F0F222C398FD05
:051069000FD5F0EA22A2
:10106E00C5F0F8A3E028F0C5F0F8E582158270020D
:06107E001583E038F022AA
:10108400A3F8E0C5F025F0F0E5821582700215831F
:06109400E0C838F0E8227C
:10109A00BB010A89828A83E0F5F0A3E02250068721
:1010AA00F009E71922BBFE07E3F5F009E3192289E3
:0B10BA00828A83E493F5F07401932216
:1010C500BB0110E58229F582E5833AF583E0F5F069
:1010D500A3E0225009E92582F886F008E622BBFE46
:1010E5000AE92582F8E2F5F008E222E5832AF5838C
:0810F500E993F5F0A3E9932251
:1010FD00BB010789828A8302106E500B09C5F02748
:10110D00F7C5F01937F722BBFE0D09F8E325F0F30B
:10111D00C5F019E338F322F889828A837401932587
:08112D00F0C5F0F8E49338224C
:10113500BB010A89828A83F0E5F0A3F0225006F705
:0F11450009A7F01922BBFE06F3E5F009F3192202
:10115400E88FF0A4CC8BF0A42CFCE98EF0A42CFC3A
:101164008AF0EDA42CFCEA8EF0A4CDA8F08BF0A4B8
:101174002DCC3825F0FDE98FF0A42CCD35F0FCEB17
:101184008EF0A4FEA9F0EB8FF0A4CFC5F02ECD39DC
:0F119400FEE43CFCEAA42DCE35F0FDE43CFC2249
:1011A30075F008758200EF2FFFEE33FECD33CDCC03
:1011B30033CCC58233C5829BED9AEC99E582984086
:1011C3000CF582EE9BFEED9AFDEC99FC0FD5F0D663
:1011D300E4CEFBE4CDFAE4CCF9A88222B800C1B98D
:1011E3000059BA002DEC8BF084CFCECDFCE5F0CBCB
:1011F300F97818EF2FFFEE33FEED33FDEC33FCEB04
:1012030033FB10D703994004EB99FB0FD8E5E4F9BE
:10121300FA227818EF2FFFEE33FEED33FDEC33FCAB
:10122300C933C910D7059BE99A4007EC9BFCE99A9F
:10123300F90FD8E0E4C9FAE4CCFB2275F010EF2FE4
:10124300FFEE33FEED33FDCC33CCC833C810D707E4
:101253009BEC9AE899400AED9BFDEC9AFCE899F81F
:0E1263000FD5F0DAE4CDFBE4CCFAE4C8F922B2
:0D127100CFF4CFCEF4CECDF4CDCCF4CC2212
:10127E00EB9FF5F0EA9E42F0E99D42F0E89C45F0C6
:01128E00223D
:10128F00E8600FECC313FCED13FDEE13FEEF13FF3D
:03129F00D8F12261
:1012A200E8600FEFC333FFEE33FEED33FDEC33FCAA
:0312B200D8F1224E
:0C12B500E6FC08E6FD08E6FE08E6FF2265
:1012C100E493FC740193FD740293FE740393FF2273
:0D12D100E6FB08E6F908E6FA08E6CBF8228D
:1012DE00E493F8740193F9740293FA740393FB2266
:0C12EE00ECF608EDF608EEF608EFF6222C
:0C12FA00ECF0A3EDF0A3EEF0A3EFF02267
:10130600A8828583F0D083D08212131D12131D127A
:10131600131D12131DE473E493A3C583C5F0C5839F
:10132600C8C582C8F0A3C583C5F0C583C8C582C831
:011336002294
:0C133700A42582F582E5F03583F58322C1
:10134300BB010789828A830213A25005E9F80213BD
:1013530099BBFE05E9F80213CB89828A830213D471
:10136300BB010DE58229F582E5833AF5830213A2D9
:101373005007E92582F8021399BBFE07E92582F895
:101383000213CBE58229F582E5833AF5830213D470
:061393008A838982E473E5
:10194200E52224AAF582E434C3F583E0052222903D
:10195200C3A730070390C3AAE475F0011213AB02C8
:101962000FAF2000E97F2ED2008018EF540F249091
:10197200D43440D4FF30040BEF24BFB41A00500318
:101982002461FFE523600215230526E52670020582
:101992002530070E90C3A7E475F0011213ABEF02D6
:1019A2000FF5024E357403D2078003E4C207F52215
:1019B20090C3A71213C2E4F523F525F526E52360AB
:1019C200077F2012198580F57524FFC201C200C26B
:1019D20002C203C205C206C208121951FF700D30BD
:1019E20007057F00121996AF26AE2522B4255FC2E5
:1019F200D5C204121951FF24D0B40A00501A75F04E
:101A02000A782330D50508B6FF0106C6A426F620BB
:101A1200D5047002D20380D924CFB41A00EF500447
:101A2200C2E5D204021B97D20180C6D20080C0D286
:101A32000280BCD2D580BAD20580B47F201219852B
:101A42002002077401B5230040F1121942FF121956
:101A5200850219BFD208D2068095121942FB1219CB
:101A620042FA121942F94A4B700679687A1C7BFFD6
:101A720020022EE523602A7E008E82758300120FDB
:101A8200C860060EEE652470F0C2D5EBC0E0EAC075
:101A9200E0E9C0E0EE121BDED0E0F9D0E0FAD0E0DF
:101AA200FB120FAFFF60AAEBC0E0EAC0E0E9C0E0C2
:101AB200121985D0E02401F9D0E03400FAD0E0FB1D
:101AC200E5240460DCD524D980877BFF7A1B79DA90
:101AD200D202809C791080027908C206C20880086E
:101AE200D2D5790A8004790AC2D5E524047002F5B8
:101AF20024E4FAFDFEFF121942FC7B0820011312B6
:101B02001942FD7B1030000A121942FE121942FFDF
:101B12007B20EC3382D592D55013C3E43000069F6C
:101B2200FFE49EFEE42001039DFDE49CFCE4CBF86F
:101B3200C201EC700CCFCECDCCE824F8F870F38063
:101B420017C3EF33FFEE33FEED33FDEC33FCEB3323
:101B5200FB994002FB0FD8E9EB300105F8D0E0C455
:101B620048B201C0E00AEC4D4E4F78207B0070C2B3
:101B7200EAB5240040BCC0E0121BE0D0F0D0E02067
:101B82000104C4C0E0C4B201C0F012196ED0F0D595
:101B9200F0EB0219BF1213E01A5C531AD6581A2D31
:101BA2004C1A29421ADA4F1AE2441AE2491A4243FB
:081BB2001AE8551ACC461ACCC2
:101BBA00451ACC471C88501A312D1A352E1A582B23
:101BCA001A39231A56201C712A19F14800001A5092
:101BDA003F3F3F00790AA2D5200314300509B91006
:101BEA00020404B9080104A2D52006025001042007
:101BFA0002689202B523005034C0E07F20300319F6
:101C0A007F30A20272067205500F121C37C202C23E
:101C1A0006C205C2087F30800F300503E9C0E01212
:101C2A001985300503D0E0F9D0E0B523CC3005178B
:101C3A007F30B9100C1219857F583004077F7880DD
:101C4A0003B908031219853002057F2D0219857F11
:101C5A00202008F87F2B2006F322920280CF286EDC
:101C6A00756C6C2900D2011219423001F8C2017850
:101C7A002330D50108F60219F12D5043495812199B
:101C8A00422403B405004001E4901C8393121976A0
:0D1C9A00743A121976D203752304021AD68B
:104FB200E4FFFE120FAF600C0FEF70010E09E970F3
:054FC200F20A80EF225D
:09139900E6FB08E6FA08E6F92279
:0913A200E0FBA3E0FAA3E0F9224C
:1013AB00F8E0FBA3A3E0F925F0F0E58215827002CB
:0713BB001583E0FA38F0226F
:0913C200EBF0A3EAF0A3E9F0222C
:0913CB00E2FB08E2FA08E2F92253
:0C13D400E493FB740193FA740293F92275
:1013E000D083D082F8E4937012740193700DA3A39C
:1013F00093F8740193F5828883E4737402936860B0
:06140000EFA3A3A380DFAF
:104E3500EFB40A07740D124E40740A309811A89900
:104E4500B8130CC2983098FDA899C298B811F630DD
:074E550099FDC299F59922B5
:00000001FF
