:0B00F800FFFF4457494E5435026821B9
:0E3ABC007B0190C27AE4F0A304F07F147E0038
:103ACA0090C275EEF0A3EFF0A3EBF0A3EAF0A3E93E
:013ADA00F0FB
:103ADB00E490C27CF0A3F0A3F0A3F0A3F0A3F0A3B7
:103AEB00F0A3F090C27AE0FAA3E0FB4A7003023C29
:103AFB008990C275E0FEA3E0FFC3E49FFFE49EFE46
:103B0B00E4FCFD90C284120A57AF03AE02E4FCFD45
:103B1B0090C284E0F8A3E0F9A3E0FAA3E0FBC312A0
:103B2B0009DB501190C284A3A3E0FFA3E090C27AFB
:103B3B00CFF0A3EFF090C275E0FCA3E0FDECC31354
:103B4B00FFED1390C27CCFF0A3EFF0ED5401FFA378
:103B5B00E4F0A3EFF0C2AFE4F5F190C27CE0FCA37C
:103B6B00E0FDECF5F28DF375F40175F8AF30FCFD6B
:103B7B0090C27EE07002A3E0603DD2FE20FEFD907D
:103B8B00C277E0FBA3E475F0011207A6A9F0FAE5F2
:103B9B00FC12071790C277E0FBA3E475F001120744
:103BAB00A6A9F0FAE5FD12071790C27BE024FFF0FF
:103BBB0090C27AE034FFF090C27AE0FCA3E0FDEC17
:103BCB00C313FFED1390C280CFF0A3EFF0ED5401C0
:103BDB00FFA3E4F0A3EFF090C28074FFF5F012079F
:103BEB00A645F0605BD2FE20FEFD90C277E0FBA302
:103BFB00E475F0011207A6A9F0FAE5FA120717907F
:103C0B00C277E0FBA3E475F0011207A6A9F0FAE571
:103C1B00FB12071790C277E0FBA3E475F0011207C4
:103C2B00A6A9F0FAE5FC12071790C277E0FBA3E414
:103C3B0075F0011207A6A9F0FAE5FD120717809798
:103C4B0090C282E07002A3E0602FD2FE20FEFD90B6
:103C5B00C277E0FBA3E475F0011207A6A9F0FAE521
:103C6B00FA12071790C277E0FBA3E475F001120775
:0E3C7B00A6A9F0FAE5FB120717E4F5F8D2AFA0
:013C89002218
:103FF40090C2C6EEF0A3EFF0A3EBF0A3EAF0A3E9BE
:01400400F0CB
:10400500E490C2CDF0A3F0A3F0A3F0A3F0A3F09049
:10401500C2CBE07002A3E0700302418690C2C6E005
:10402500FEA3E0FFC3E49FFFE49EFED390C2CCE075
:104035009F90C2CBE09E4005EEF0A3EFF090C2C684
:10404500E0FAA3E0FBEAC313FCEB13FDEB5401FF1D
:1040550090C2CDE4F0A3EFF0C2AFE4F5F1ECF5F2D8
:10406500AF058FF375F40175F88330FCFD90C2CD73
:10407500E07002A3E0603D90C2C8E0FBA3E475F0E8
:10408500011207A6A9F0FA1206D1F5FC90C2C8E004
:10409500FBA3E475F0011207A6A9F0FA1206D1F503
:1040A500FDD2FE20FEFD90C2CCE024FFF090C2CBF5
:1040B500E034FFF090C2CBE0FCA3E0FDECC313FFBE
:1040C500ED1390C2CFCFF0A3EFF0ED5401FFA3E4C1
:1040D500F0A3EFF075F88F90C2CF74FFF5F01207DB
:1040E500A645F0605B90C2C8E0FBA3E475F0011241
:1040F50007A6A9F0FA1206D1F5FA90C2C8E0FBA30B
:10410500E475F0011207A6A9F0FA1206D1F5FB90A5
:10411500C2C8E0FBA3E475F0011207A6A9F0FA12E4
:1041250006D1F5FC90C2C8E0FBA3E475F0011207C7
:10413500A6A9F0FA1206D1F5FDD2FE30FE9980FB54
:1041450090C2D1E07002A3E0603275F88C90C2C8CD
:10415500E0FBA3E475F0011207A6A9F0FA1206D157
:10416500F5FA90C2C8E0FBA3E475F0011207A6A911
:10417500F0FA1206D1F5FBD2FE20FEFDE4F5F8D2E9
:01418500AF8A
:014186002216
:10749F00C2AFC2D3C2D4E4F58E75C870F5CDF5CCAA
:1074AF0075CBBC75CACDD2ADD2C8F59375940175A5
:1074BF00950275C960F5F875F901F5A8F5B8F59A53
:0774CF00F5A9F5B90275975C
:107597007F007E80E4F537F5380FEFAC0670010EFB
:1075A70014F5828C83E4F00538E53870020537B4AA
:0775B70000E7E537B480E2B4
:0175BE0022AA
:1076B80090C495120A6355AA5AA57B017AC4799594
:1076C80090C2CBE4F0A37402F07F047E00023FF482
:047864007FF47E012E
:10786800EF4E6010E4FD0DEDC3941840F9EF1F7062
:04787800EF1E80EC93
:01787C0022E9
:106EEA0090C41B745AF0A374A5F0A3EEF0A3EFF0BC
:106EFA00A3EBF0A3EDF090C41AE0600A90C421E479
:106F0A00F0A304F08007E490C421F0A3F07B017A97
:106F1A00C4791B90C2CBE4F0A37404F07FB07E0066
:106F2A00123FF41278647B017AC4791B90C27AE426
:106F3A00F0A304F07FB07E00123ACA90C41BE0703E
:016F4A00E264
:016F4B002223
:0574240090C47CEFF0B4
:107429007B017AC4797D90C27AE4F0A37402F07F7B
:10743900A07E00123ACA90C47CE0A3F0A37401F0C4
:10744900E490C480F07B017AC4797D90C2CBF0A32B
:0A7459007402F07FA07E00023FF4F1
:104ABB0090C306E0FB90C458F090C307E0FCA3E062
:104ACB00FDA3E0FEA3E0FF78101209EC90C459EFB0
:104ADB00F090C307E0FCA3E0FDA3E0FEA3E0FF78AA
:104AEB00081209EC90C45AEFF090C307A3A3A3E0FC
:104AFB0090C45BF090C30BE0FCA3E0FDEC90C45CB6
:104B0B00F0A3EDF090C30DE0FCA3E0FDEC90C45ED0
:104B1B00F0A3EDF0EBB4A52890C30FE0FBA3E0FAF4
:104B2B00A3E04A4B601A90C30BE0FEA3E0FF90C3D7
:104B3B000FA3A3E0F990C2CBECF0A3EDF0123FF47E
:104B4B007B017AC4795890C2CBE4F0A37404F07F54
:104B5B00087E00123FF41278647B017AC479589076
:104B6B00C27AE4F0A304F07F087E00123ACA90C424
:104B7B0058E070E290C306E0B45A2F90C30FE0FBED
:104B8B00A3E0FAA3E04A4B602190C30BE0FEA3E045
:104B9B00FF90C30FA3A3E0F990C30DE0FDA3E0903A
:104BAB00C27ACDF0A3EDF0123ACA7F327E000272C8
:014BBB007F7A
:1049920090C423745AF090C2F6E090C424F06401EB
:1049A200706790C2F7A3E090C425F090C2F9E0FCD2
:1049B200A3E0FDA3E0FEA3E0FF78101209EC90C48F
:1049C20026EFF090C2F9E0FCA3E0FDA3E0FEA3E035
:1049D200FF78081209EC90C427EFF090C2F9A3A364
:1049E200A3E090C428F090C2FDE0FCA3E0FDEC90AF
:1049F200C429F0A3EDF090C2FFE0FCA3E0FDEC902F
:104A0200C42BF0A3EDF0E4803B90C2F6E0640270A8
:104A120037A3E0FCA3E0FDEC90C425F0A3EDF090F9
:104A2200C2FDE0FCA3E0FDEC90C427F0A3EDF09002
:104A3200C304E0FCA3E0FDEC90C429F0A3EDF0E494
:104A4200A3F0A3F0A3F0A3F07B017AC4792390C270
:104A5200CBE4F0A37406F07FAA7E00123FF4127832
:104A6200647B017AC4792390C27AE4F0A304F07FD4
:104A7200AA7E00123ACA90C423E070E290C2F6E025
:104A8200B4012F90C301E0FBA3E0FAA3E04A4B601C
:104A92002190C2FDE0FEA3E0FF90C301A3A3E0F9D1
:104AA20090C2FFE0FDA3E090C27ACDF0A3EDF01238
:094AB2003ACA7F327E0002727FD5
:0F797A007AC479A0123ABC90C4A0E0FEA3E0FF4B
:0179890022DB
:086B750090C470EEF0A3EFF0F4
:106B7D00A3745AF0A37401F090C470E0FCA3E0FD7F
:106B8D00EC90C474F0A3EDF07B017AC4797290C2DD
:106B9D00CBE4F0A37402F07F847E00123FF41278F0
:106BAD00647B017AC4797290C27AE4F0A374021204
:106BBD003AC590C470E0FEA3E0FFA3E0B506DFA3E5
:106BCD00E0B507DAE490C472F0A3F0A3F0A3F07B74
:106BDD00017AC4797290C2CBF0A37402F07F167E55
:046BED0000023FF46F
:08727F0090C24EEEF0A3EFF007
:10728700E4A3F0A3F090C24EE0FEA3E0FFC390C2D8
:1072970051E09F90C250E09E5025E4FBFA7F017EAB
:1072A700001278680BBB00010ABA01F1BB2CEE9003
:0F72B700C251E004F070CE90C250E004F080C6E7
:0172C60022A5
:1072C700EF14601814602314602E240370397401BE
:1072D700A805088002C333D8FC42B7227401A80569
:1072E700088002C333D8FC42BC227401A805088079
:1072F70002C333D8FC42BD22AF057401A80708803A
:0873070002C333D8FC42BE2290
:10715200EF1460191460251460312403703D74012A
:10716200A805088002C333D8FCF452B7227401A8E0
:1071720005088002C333D8FCF452BC227401A8056E
:10718200088002C333D8FCF452BD22AF057401A8B3
:0C71920007088002C333D8FCF452BE2270
:10650500EF14602D14604A1460672403600302656C
:1065150097EB600E7401A805088002C333D8FC42CE
:1065250080227401A805088002C333D8FCF4528088
:1065350022EB600E7401A805088002C333D8FC4223
:1065450090227401A805088002C333D8FCF4529048
:1065550022EB600E7401A805088002C333D8FC4203
:10656500A0227401A805088002C333D8FCF452A008
:1065750022EB600E7401A805088002C333D8FC42E3
:10658500B022AF057401A807088002C333D8FCF414
:0365950052B022DF
:10700C00EF14601A14602714603424037042740166
:10701C00A805088002C333D8FC5580FE8034740167
:10702C00A805088002C333D8FC5590FE8024740157
:10703C00A805088002C333D8FC55A0FE8014AF0508
:10704C007401A807088002C333D8FC55B0FE800237
:04705C00E4FEAF0699
:01706000220D
:105333007B017AC4796090C27AE4F0A37404F07FAD
:10534300167E00123ACA90C460E0645A60030253A6
:10535300F8A3E0FFB40134A3E0FCA3E0FD90C3177E
:10536300ECF0A3EDF090C31DECF0A3EDF090C4645A
:10537300E0FCA3E0FD90C31BECF0A3EDF090C3426F
:10538300ECF0A3EDF0A37401F08030EFB4032690AA
:10539300C315E0FFA3E090C342CFF0A3EFF090C3A7
:1053A30013E0FFA3E090C31DCFF0A3EFF090C3443D
:1053B3007402F0800690C3447403F090C462E0FF6B
:1053C300A3E090C313CFF0A3EFF090C464E0FFA376
:1053D300E090C315CFF0A3EFF0E490C460F07B013D
:1053E3007AC4796090C2CBF0A37402F07F167E007A
:1053F300123FF4801190C461E0FF64026003EF7018
:0B54030005E490C344F090C344E0FFB8
:01540E00227B
:0838D30090C42FEEF0A3EFF00A
:1038DB0012533390C431EFF0700690C312F0FF22F5
:1038EB0090C431E0B4010F7AC37919123ABC90C37A
:1038FB00127401F0FF2290C319E0FEA3E0FF90C405
:10390B002FE06E7003A3E06F60037F012290C3135F
:10391B00E0FEA3E0FFC390C318E09FFF90C317E046
:10392B009E90C345F0A3EFF090C345E0FCA3E0FDF0
:10393B00FFAE04120729EE3395E0FDFC90C4321262
:10394B000A5790C315E0FEA3E0FFC390C31CE09F92
:10395B00FF90C31BE09E90C347F0A3EFF090C347CB
:10396B00E0FCA3E0FDFFAE04120729EE3395E0FD6A
:10397B00FC90C436120A5790C431E06402707990FF
:10398B00C312E06401706B7F09FEFDFC90C436E04E
:10399B00F8A3E0F9A3E0FAA3E0FBC31209DB501A8A
:1039AB00E47F09FEFDFC90C432E0F8A3E0F9A3E04C
:1039BB00FAA3E0FBC31209DB4038E47F02FEFDFCF7
:1039CB0090C436E0F8A3E0F9A3E0FAA3E0FB1208F9
:1039DB00A390C432E0F8A3E0F9A3E0FAA3E0FBD391
:1039EB001209DB90C31250057403F0FF227404F02C
:1039FB00FF2290C312E0FF2290C312E06401706EAD
:103A0B007F09FEFDFC90C436E0F8A3E0F9A3E0FAD1
:103A1B00A3E0FBC31209DB501AE47F09FEFDFC9007
:103A2B00C432E0F8A3E0F9A3E0FAA3E0FBC3120968
:103A3B00DB4038E47F02FEFDFC90C436E0F8A3E0E7
:103A4B00F9A3E0FAA3E0FB1208A390C432E0F8A3B9
:103A5B00E0F9A3E0FAA3E0FBD31209DB90C3125009
:103A6B00057403F080087404F080037F022290C376
:103A7B0012E0B4031E90C315E0FEA3E0FFC390C396
:103A8B0043E09FFF90C342E09E90C34BF0A3EFF047
:103A9B007F052290C313E0FEA3E0FFC390C31EE09B
:103AAB009FFF90C31DE09E90C349F0A3EFF07F06EC
:013ABB0022E8
:04746300021800000B
:1077F400E4F51D758911F58CF58AC28CF51AF51C12
:0E780400438901758CBC758ACDD2A9D28C2225
:03000B00026BF194
:0D6BF100C0E0C0D075D000C000C006C007D5
:106BFE00C2AFE51D6002151D758CBC758ACD051BD7
:106C0E0075360074017E00A836088005C333CE3376
:106C1E00CED8F9FFEF551C602DE53625E02408F897
:106C2E0008E61618700116E53625E02408F8E6FE8B
:106C3E0008E64E7011AF3604A807088002C333D899
:0F6C4E00FC421AF4521C0536E536B408B6D2AF34
:0B6C5D00D007D006D000D0D0D0E0322D
:03002B000279084F
:10790800C0E0C2AFC2C6D2AF0519E51970020518AA
:03791800D0E0328A
:10763200C2AF7401A807088002C333D8FCFE421C03
:10764200EF25E02408F8A60408A605EEF4521AD2A3
:02765200AF2265
:1078DE00C2AF7401A807088002C333D8FCF4521C4F
:0578EE00521AD2AF2286
:10791B00C2AF7401A807088002C333D8FC551AFF05
:02792B00D2AFD9
:01792D002237
:0B781200D2B37F0512781DD2B27F05B3
:10781D00EF600EE4FE0EC3EE648094B240F71F805D
:01782D00EF6B
:01782E002237
:0479CE0053BEF7228B
:0479D20043BE082286
:10784A001279D2D2B3D2B27F0F12781DC2B37F0F90
:0A785A0012781DC2B27F0F02781DE4
:0A76D8007F0F1274E6AF031274E690
:1076E2001279D2C2B3D2B27F0F12781DD2B37F0FFA
:0676F20012781D0279CEA2
:0F798A001279D2C2B3127814C2B27F0502781DEF
:0D79B7001279D2127812C2B27F0502781D3B
:107778001279CE127812E4FD30B30A7F0512781D13
:0F7788000DEDB432F3C2B27F0512781D0279D233
:1074D6001274E6E0FF1274E61276E212784A7F64CE
:0274E600AD07F0
:1074E8001279D2E4FCED30E704D2B38002C2B3EDE6
:1074F80025E0FD127814C2B27F0512781D0CECB499
:0575080008E3027778A2
:0D750D007F0F1274E612784A7F651274E653
:10751A001279CEE4FC127814ED25E0FD30B305446F
:10752A0001FD8004ED54FEFDC2B27F0512781D0CE8
:06753A00ECB408E1AF050E
:017540002228
:105E8A001274E112750DAB0712798A12751AAA07F4
:105E9A001279B71276E2EB20E003025F385484608D
:105EAA000AEB547BFB1274E11276D8EB54FEFBEA40
:105EBA0030E713547FFA1274E17F101274E6AF02CE
:105ECA001274E61276E2EA4480FA1274E17F101242
:105EDA0074E6AF021274E61276E2EB4484FB1274A3
:105EEA00E17F0F1274E6AF031274DBE4FF1274E66B
:105EFA00E4FF1274E6E4FF1274E67F801274E67F10
:105F0A00051274E67F011274E67F011274E67F219E
:105F1A001274E61276E2EB547BFBEA547FFA1274AF
:0E5F2A00E17F101274E6AF021274DB1276D81B
:015F38002246
:106144001274E112750D90C4A2EFF012798A1275DF
:106154001AA3EFF01279B71276E2E04480F01274D9
:10616400E17F101274E6E0FF1274E61276E290C446
:10617400A2E04484F01274E17F0F1274D6E4FF129B
:1061840074E69000061206EAFF1274E69000051207
:1061940006EAFF1274E69000041206EAFF1274E69F
:1061A4009000031206EAFF1274E69000021206EA57
:1061B400FF1274E69000011206EAFF1274E612065A
:1061C400D1FF1274E61276E290C4A2E0547BF0A3ED
:1061D400E0547FF01274E17F101274D67F0F1274B2
:0C61E400E690C4A2E0FF1274E60276E22E
:105D11001274E1E4FF1274E612784A7F651274E6A8
:105D21007B0612751A743A2BF582E434C4F583EFBD
:105D3100F012798ADBEC12751A90C43AEFF01279FD
:105D4100B71276E290C43EE0547FF0E4FB743A2B44
:105D5100F582E434C4F583E0FFC4540FFE90C442DD
:105D6100F0EF540FFFA3F0EE75F00AA42FFF743A81
:105D71002BF582E434C4F583EFF00BEBB403CE7B57
:105D810004743A2BF582E434C4F583E0FFC4540F64
:105D9100FE90C442F0EF540FFFA3F0EE75F00AA499
:105DA1002FFF743A2BF582E434C4F583EFF00BEB4B
:105DB100B407CEE490C441F07B017AC4793A90C231
:0D5DC100CBF0A37404F07F107E00023FF4CD
:10792E00EF75F00A84C454F0FEEF75F00A84E5F0AA
:03793E004EFF22D7
:0F799900EFC4540F75F00AA4FEEF540F2EFF2217
:0766BB0090C481EBF0AB0776
:1066C200ED64016004EDB4021BED240CFEE4339092
:1066D200C482F0A3CEF0EB24FFFEE434FFA3F0A3C8
:1066E200CEF08012AF0590C482E4F0A3EFF0AF03C6
:1066F200A3E4F0A3EFF090C483E02401FF90C482EE
:10670200E03400FE7C007D1A1207297D0A12073B45
:10671200AC06AD0790C484E0FAA3E0FBAE027802B7
:10672200CEC313CE13D8F92BFFEA3ECF2DCF3CFEBA
:1067320090C481E07C002FFFEC3ECF24DCCF34FFFD
:08674200FE7D0712073BAF05C5
:01674A00222C
:105F39007B017AC379F790C27AE4F0A37404F07F05
:105F49009C7E00123ACA90C3F7E0645A6003025F6C
:105F5900E7A3E064A56003025FE7A3E0FF12792EDF
:105F690090C3FFEFF090C3FAE0FF12792E90C400BE
:105F7900EFF090C3FBE0FF12792E90C401EFF0908F
:105F8900C3F9E0FFA3E0FDA3E0FB1266BB90C402E6
:105F9900EFF090C3FCE0FF12792E90C403EFF044B8
:105FA90080F090C3FDE0FF12792E90C404EFF090C9
:105FB900C3FEE0FF12792E90C405EFF07B017AC38E
:105FC90079FF126144E490C3F7F0A3F07AC379F73B
:0E5FD90090C2CBF0A304F07F9C7E00123FF438
:015FE7002297
:10787D007D027F031272C77D037F031272C7125DF3
:09788D0011E4F518F519025F3948
:10710400AB07AA06A905A8047F007E387D317C0060
:1071140012092EC3E49F90C254F074049E90C2538B
:10712400F043C9407D04E4FF1272C77D05E4FF12F9
:10713400715243803075D88075985090C253E0FCEA
:0D714400A3E0FDECF5BA8DAA43A810D2AC73
:01715100221B
:10723600AB07AA06A905A8047F007E707D627C00C4
:1072460012092EC3E49F90C254F074049E90C25358
:10725600F043C9207D06E4FF1272C77D07E4FF12E2
:1072660071524380C0759B9090C253E0FCA3E0FD31
:08727600ECF5BB8D9D439A016C
:01727E0022ED
:1075BF00759680759780AB07AA06A905A8047F006A
:1075CF007EC07D897C0112092EAD07AC06ECF5D982
:0775DF00AF058FE743B80C74
:0175E6002282
:1073E30075A78075AB80AB07AA06A905A8047F0023
:1073F3007EC07D897C0112092EAD07AC06ECF5AE8B
:10740300AF058FAF43B830E490A01BF0A3F0A3F017
:10741300A3F090A023F090A01FF0A3F0A3F0A3F09B
:017423002246
:10706100EF14601B1460291460372403704490C22C
:107071004FE0FCA3E0FDA3E0FEA3E0FF027104905A
:10708100C24FE0FCA3E0FDA3E0FEA3E0FF027236E5
:1070910090C24FE0FCA3E0FDA3E0FEA3E0FF027578
:1070A100BF90C24FE0FCA3E0FDA3E0FEA3E0FF120E
:0370B10073E32264
:103E410090C254EFF0A3ECF0A3EDF0A3EBF0A3EAE2
:043E5100F0A3E9F001
:103E5500C2AFE4A3F0A3F090C255E0FEA3E0FFC318
:103E650090C25BE09F90C25AE09E4003023F1990CA
:103E7500C257E0FBA3E475F0011207A6A9F0FA12F8
:103E850006D1FF90C254E0FE75F009A42400F58226
:103E9500E5F03488F583EE75F008A42583F583E015
:103EA500FCA3E0FD75F009EEA42400F582E5F034ED
:103EB50080F583EE75F008A42583F583E5822DF55D
:103EC50082E5833CF583EFF075F009EEA42400F557
:103ED50082E5F03488F583EE75F008A42583F58333
:103EE500E475F00112079075F009EEA42400F5823F
:103EF500E5F03488F583EE75F008A42583F583E0B5
:103F05005403F090C25BE004F0700690C25AE004DE
:103F1500F0023E5C90C254E014604214607014706C
:103F250003023FC124036003023FF1908808E0606B
:103F350003023FF104F0908802E0FEA3E02400F5BF
:103F45008274803EF583E0F599908803E004F07073
:103F550006908802E004F0908802023FED909011EF
:103F6500E06003023FF104F090900BE0FEA3E02433
:103F750009F58274883EF583E0F59C90900CE00489
:103F8500F0700690900BE004F090900B805A90989A
:103F95001AE0705804F0909814E0FEA3E02412F59E
:103FA5008274903EF583E0F59E909815E004F070DC
:103FB50006909814E004F0909814802C90A023E0CB
:103FC500702A04F090A01DE0FEA3E0241BF5827486
:103FD500983EF583E0F5AC90A01EE004F0700690E5
:0E3FE500A01DE004F090A01DE05403F0D2AF48
:013FF30022AB
:0300230002674B26
:10674B00C0E0C083C082C0D075D000C006C007C2F5
:10675B00AF30982AC298908804E0FEA3E02400F59D
:10676B008274843EF583E599F0908805E004F0701F
:10677B0006908804E004F0908804E05403F030990C
:10678B003FC299908802E0FEA3E0FF908800E06E84
:10679B007003A3E06F602474002FF58274803EF5C4
:1067AB0083E0F599908803E004F07006908802E08E
:1067BB0004F0908802E05403F08005908808E4F020
:0F67CB00D2AFD007D006D0D0D082D083D0E0326A
:03005300026F4CED
:106F4C00C0E0C083C082C0D075D000C006C007C2EC
:106F5C00AF5396FE909814E0FEA3E0FF909812E0D9
:106F6C006E7003A3E06F602474122FF58274903E50
:106F7C00F583E0F59E909815E004F0700690981457
:106F8C00E004F0909814E05403F0800590981AE413
:106F9C00F0D2AFD007D006D0D0D082D083D0E032A0
:03005B0002730F1E
:10730F00C0E0C083C082C0D075D000C006C2AF53EA
:10731F0097FE909816E0FEA3E02412F58274943E37
:10732F00F583E59FF0909817E004F070069098169B
:10733F00E004F0909816E05403F0D2AFD006D0D00E
:07734F00D082D083D0E032B0
:03006300026FAC7D
:106FAC00C0E0C083C082C0D075D000C006C007C28C
:106FBC00AF53A7FE90A01DE0FEA3E0FF90A01BE046
:106FCC006E7003A3E06F6024741B2FF58274983EDF
:106FDC00F583E0F5AC90A01EE004F0700690A01DC7
:106FEC00E004F090A01DE05403F0800590A023E491
:106FFC00F0D2AFD007D006D0D0D082D083D0E03240
:03006B00027356C7
:10735600C0E0C083C082C0D075D000C006C2AF53A3
:10736600ABFE90A01FE0FEA3E0241BF582749C3EBA
:10737600F583E5ADF090A020E004F0700690A01F24
:10738600E004F090A01FE05403F0D2AFD006D0D0B6
:07739600D082D083D0E03269
:03008300026341D4
:10634100C0E0C083C082C0D075D000C006C007C203
:10635100AFE59B30E02E759B90539BFE90900DE036
:10636100FEA3E02409F582748C3EF583E59CF09050
:10637100900EE004F0700690900DE004F090900D06
:10638100E05403F0E59B30E143759B90539BFD90F6
:10639100900BE0FEA3E0FF909009E06E7003A3E094
:1063A1006F602474092FF58274883EF583E0F59CB3
:1063B10090900CE004F0700690900BE004F0909047
:1063C1000BE05403F08005909011E4F0D2AFD007B8
:0B63D100D006D0D0D082D083D0E032C4
:10662A0090C49DEBF0A3EAF0A3E9F07D02E4FF1227
:10663A0072C77D03E4FF1271527B017D02E4FF12EF
:10664A00650543C98075F1FFE4F5F275F36075F4E9
:10665A000175F88F30FCFD90C49DE0FBA3E0FAA31E
:10666A00E0F91206D1F5FA9000011206EAF5FB905C
:10667A0000021206EAF5FC9000031206EAF5FDD2C2
:10668A00FE20FEFDE4F5FAF5FBF5FCF5FDD2FE2051
:10669A00FEFD75FAFF75FBFF75FCFF75FDFFD2FE67
:1066AA0020FEFDE4F5F8758FA0E58F20E5FBD2B951
:0166BA0022BD
:10782F00E5E830E51553E8DF438F407FE87E03122C
:0B783F007868538FBFE490BA28F02255
:1044660075F1FFE4F5F275F36475F40175F88F30B4
:10447600FCFD90BA27E075F00DA42424F582E5F042
:1044860034ADF583E0F5FAE4F5FBF5FCF5FDD2FE77
:1044960020FEFD90BA27E0FB75F00DA42425F582D9
:1044A600E5F034ADF583E0FCA3E0FDA3E0FEA3E078
:1044B600FF78181209EC8FFA75F00DEBA42425F598
:1044C60082E5F034ADF583E0FCA3E0FDA3E0FEA3B6
:1044D600E0FF78101209EC8FFB90BA27E0FB75F02D
:1044E6000DA42425F582E5F034ADF583E0FCA3E0C8
:1044F600FDA3E0FEA3E0FF78081209EC8FFC75F03F
:104506000DEBA42425F582E5F034ADF583A3A3A332
:10451600E0F5FDD2FE20FEFD90BA27E0FF75F00D16
:10452600A42429F582E5F034ADF583E0F5FA75F0BB
:104536000DEFA4242AF582E5F034ADF583E0F5FB12
:1045460090BA27E0FF75F00DA4242BF582E5F03430
:10455600ADF583E0F5FC75F00DEFA4242CF582E5AE
:10456600F034ADF583E0F5FDD2FE20FEFD90BA27CE
:10457600E0FF75F00DA4242DF582E5F034ADF5834A
:10458600E0F5FA75F00DEFA4242EF582E5F034ADD2
:10459600F583E0F5FB90BA27E0FF75F00DA4242F14
:1045A600F582E5F034ADF583E0F5FC75F00DEFA48A
:1045B6002430F582E5F034ADF583E0F5FDD2FE203A
:0C45C600FEFD90BA27E004F0E4F5F822B6
:06346B0090C3CF120A57C6
:10347100D390C3D5E0940090C3D4E09408400302F4
:1034810036E190C3D3E0FB90C3CF30E70FE0FCA35C
:10349100E0FDA3E0FEA3E0FF7803800DE0FCA3E0E4
:1034A100FDA3E0FEA3E0FF78151209FF90C3DE1231
:1034B1000A5790BA26E0FA75F00DA42424F582E5A6
:1034C100F034ADF583E030E63890C3DEE0FCA3E0F4
:1034D100FDA3E0FEA3E0FF75F00DEAA42425F5822B
:1034E100E5F034ADF583120A57EB54C0FF75F00DCA
:1034F100EAA42424F582E5F034ADF583EFF0023639
:10350100C590C3D4E0FCA3E0FDAE047803CEC313A1
:10351100CE13D8F990C3DCF0ED5407A3F0E490C3C7
:10352100DBF090C3D3E054C0FFE4FCFDFE90C3E2A6
:10353100120A57E490C3D9F090C3DCE0FF90C3D9DD
:10354100E0C39F40030235F090C3DEE0FCA3E0FD41
:10355100A3E0FEA3E0FF90BA26E0FB75F00DA424E2
:1035610025F582E5F034ADF583120A5790C3E2E008
:10357100FCA3E0FDA3E0FEA3E04408FF75F00DEB22
:10358100A42424F582E5F034ADF583EFF0E490C393
:10359100DAF090C3DAE0FFC39408504490C3D6E058
:1035A100FBA3E0FAA3E0F990C3DBE0F582758300A9
:1035B1001206EAFE90BA26E075F00DA42429F582E0
:1035C100E5F034ADF583E5822FF582E43583F583AB
:1035D100EEF090C3DBE004F090C3DAE004F080B2D7
:1035E10090BA26E004F090C3D9E004F00235399096
:1035F100C3DDE0FB70030236CBA3E0FCA3E0FDA337
:10360100E0FEA3E0FF90BA26E075F00DA42425F5B5
:1036110082E5F034ADF583120A57AF0390C3E2A3FC
:10362100E0F9A3E0FAA3E04FFF90BA26E075F00DB0
:10363100A42424F582E5F034ADF583EFF0E490C3E2
:10364100DAF090C3DDE0FF90C3DAE0FEC39F50449F
:1036510090C3D6E0FBA3E0FAA3E0F990C3DBE0F569
:10366100827583001206EAFF90BA26E075F00DA478
:103671002429F582E5F034ADF583E5822EF582E467
:103681003583F583EFF090C3DBE004F090C3DAE01B
:1036910004F080AE90C3DAE0FFC39408502690BADC
:1036A10026E075F00DA42429F582E5F034ADF5830B
:1036B100E5822FF582E43583F583E4F090C3DAE007
:1036C10004F080D090BA26E004F090BA28E070109F
:1036D100C2AF124466D2AF90BA287401F0438F048E
:0136E10022C6
:03004B00022AD3B3
:102AD300C0E0C0F0C083C082C0D075D000C000C0C9
:0D2AE30001C002C003C004C005C006C0074A
:102AF000C2AFE59130E70353913FE59120E6030231
:102B00002DD35391BF75F1FF75F20075F36875F41D
:102B10000175F8AF30FCFDD2FE20FEFD90C245E508
:102B2000FAF0E0FF90BA24E075F00DA42424F582B9
:102B3000E5F034A0F583EFF0D2FE20FEFD90BA243C
:102B4000E075F00DA42425F582E5F034A0F583C0EE
:102B500083C082E0FCA3E0FDA3E0FEA3E0FF7808D1
:102B60001209FFD082D083120A5790BA24E075F080
:102B70000DA42425F582E5F034A0F583C083C0823E
:102B8000E0F8A3E0F9A3E0FAA3E0FBAFFAEB4FFF14
:102B9000EAFEE9FDE8FCD082D083120A5790BA24FD
:102BA000E075F00DA42425F582E5F034A0F583C08E
:102BB00083C082E0FCA3E0FDA3E0FEA3E0FF780871
:102BC0001209FFD082D083120A5790BA24E075F020
:102BD0000DA42425F582E5F034A0F583C083C082DE
:102BE000E0F8A3E0F9A3E0FAA3E0FBAFFBEB4FFFB3
:102BF000EAFEE9FDE8FCD082D083120A5790BA249D
:102C0000E075F00DA42425F582E5F034A0F583C02D
:102C100083C082E0FCA3E0FDA3E0FEA3E0FF780810
:102C20001209FFD082D083120A5790BA24E075F0BF
:102C30000DA42425F582E5F034A0F583C083C0827D
:102C4000E0F8A3E0F9A3E0FAA3E0FBAFFCEB4FFF51
:102C5000EAFEE9FDE8FCD082D083120A5790BA243C
:102C6000E075F00DA42425F582E5F034A0F583C0CD
:102C700083C082E0FCA3E0FDA3E0FEA3E0FF7808B0
:102C80001209FFD082D083120A5790BA24E075F05F
:102C90000DA42425F582E5F034A0F583C083C0821D
:102CA000E0F8A3E0F9A3E0FAA3E0FBAFFDEB4FFFF0
:102CB000EAFEE9FDE8FCD082D083120A5790BA24DC
:102CC000E075F00DA42425F582E5F034A0F583C06D
:102CD00083C082E0FCA3E0FDA3E0FEA3E0FF780355
:102CE0001209ECD082D083120A5790C245E020E747
:102CF0002D90BA24E075F00DA42425F582E5F0347A
:102D0000A0F583C083C082E0FCA3E0FDA3E0FEA3A6
:102D1000E0FF78121209ECD082D083120A5790C2D9
:102D200045E030E603022DCAD2FE20FEFD90BA2413
:102D3000E0FF75F00DA42429F582E5F034A0F583B9
:102D4000E5FAF075F00DEFA4242AF582E5F034A041
:102D5000F583E5FBF075F00DEFA4242BF582E5F08B
:102D600034A0F583E5FCF075F00DEFA4242CF5827A
:102D7000E5F034A0F583E5FDF0D2FE20FEFD90BA2B
:102D800024E0FF75F00DA4242DF582E5F034A0F5C4
:102D900083E5FAF075F00DEFA4242EF582E5F0340A
:102DA000A0F583E5FBF075F00DEFA4242FF582E587
:102DB000F034A0F583E5FCF075F00DEFA42430F5B8
:102DC00082E5F034A0F583E5FDF075F80090BA24B3
:102DD000E004F0E59130E51A5391DF90BA26E0FF68
:102DE000A3E06F6008124466438F04800590BA2800
:102DF000E4F0E59130E4035391EFE59130E30353C0
:102E000091F7E59130E2065391FB438F0475E8009A
:022E1000D2AF3F
:102E1200D007D006D005D004D003D002D001D00014
:0B2E2200D0D0D082D083D0F0D0E032BE
:105DCE00507265666C6F77004E6F7468696E67000F
:105DDE0049676E6974696F6E00426567696E204926
:105DEE0000496E6372656173650057656C64696E18
:105DFE0067004465637265617365696E6700456E21
:105E0E0064204900436C65616E696E6700466C6F75
:105E1E007720656E6400257320202020202020200E
:105E2E002020202020202025642025642025642089
:105E3E0025640A0D2564410A0D252E3166560A0D7C
:105E4E00252E3166730A0D676F6F643A2025640A3A
:105E5E000D6261643A202025640005000320FF5D79
:105E6E00CEFF5DD6FF5DDEFF5DE7FF5DEFFF5DF808
:0C5E7E00FF5E00FF5E0CFF5E12FF5E1B6B
:0A79C40075F90175BCFD7590FD22F8
:03000300026A7915
:106A7900C0E0C0F0C083C082C0D075D000C000C0E3
:106A890001C002C003C004C005C006C0077F587E0C
:106A990002127868E5B030E0F47F587E0212786817
:106AA900E5B030E0F47F2C7E01127868E5B030E083
:106AB900F4E5B020E112E51DD394504005752C0191
:106AC9008003752C00751D647F017E0012727FC2E0
:106AD90089C28BD007D006D005D004D003D002D00C
:0E6AE90001D000D0D0D082D083D0F0D0E032E7
:03001300026AF787
:106AF700C0E0C0F0C083C082C0D075D000C000C065
:106B070001C002C003C004C005C006C0077F587E8D
:106B170002127868E5B030E1F47F587E0212786897
:106B2700E5B030E1F47F2C7E01127868E5B030E102
:106B3700F4E5B020E012E51DD394504005752C0311
:106B47008003752C02751D647F017E0012727FC25F
:106B570089C28BD007D006D005D004D003D002D08D
:0E6B670001D000D0D0D082D083D0F0D0E03268
:105AB7007E007F647D007B017AC17913120B3C90D5
:105AC700C2C974FFF0A3745EF0A37424F0E52D75CA
:105AD700F003A4246CF582E4345EF583E493F9744F
:105AE7000193FA74029390C2CCC9F0A3EAF0A3E938
:105AF700F0A3E532F0A3E533F0A3E534F0A3E535F1
:105B0700F0A3E522F0A3E523F0A3E52AF0A3E52B14
:105B1700F0A3E526F0A3E527F0AC28AD29E41201B0
:105B2700A8E4FBFA7920784112010690C2D9120A3B
:105B370057AC24AD25E41201A8E4FBFA792078419B
:105B470012010690C2DD120A5790C2E1E530F0A3B8
:105B5700E531F0A3E52EF0A3E52FF07B017AC179BB
:105B670013121DD87B017AC1791390C2CBE4F0A33D
:0A5B77007432F07F007E25023FF437
:104BBC007B007A00793790C27AE4F0A37403F07F1B
:104BCC00167E00123ACAE537645A6003024CB6F5F9
:104BDC0037FB7A00793990C2CBF0A304F07F167EB4
:104BEC0000123FF4853932853A33853B34853C35A8
:0E4BFC00752200853823E538146003024CB69C
:104C0A00E490C24EF090BA4BE0FF90C24EE0FEC371
:104C1A009F4003024CAD75F009EEA4245AF582E5D3
:104C2A00F034BBF583E0FEA3E0D3953AEE95395014
:104C3A006990C24EE0FF75F009A4245EF582E5F0A2
:104C4A0034BBF583E0FCA3E0C3953AEC9539404ABE
:104C5A0075F009EFA4245CF582E5F034BBF583E036
:104C6A00FEA3E0D3953CEE953B502F90C24EE075E3
:104C7A00F009A42460F582E5F034BBF583E0FCA3D7
:104C8A00E0C3953CEC953B401190BB02A3E0FAA32C
:104C9A00E0F5828A83120B3A800990C24EE004F052
:0C4CAA00024C0F90C24EE0752A00F52B62
:014CB60022DB
:1021F60090A023E0600302267790A01FE0FEA3E0F4
:10220600FFA3E0FCA3E0FD6F7002EC6E70030226F4
:012216007750
:10221700741B2DF582749C3CF583E090C24EF090C0
:10222700A022E004F0700690A021E004F090A02125
:10223700E05403F090C241E014602824FD60362486
:10224700FE605724FC700302231814700302234511
:10225700240B70A490C24EE0B4A59D90C2417401B6
:10226700F0809590C24EE0B4A50890C2417404F086
:10227700808602266390C24EE0FFB4A50590C17721
:102287008007EFB45A0690C1787401F090C244EF0A
:10229700F090C2417406F00221FF90C24EE0FFB4F5
:1022A700A51790C177E0B4010890C2417404F0808B
:1022B7000D90C1777401F08005E490C177F0EFB419
:1022C7005A1290C178E0B4010302266390C1787472
:1022D70001F08005E490C178F090C24EE0FF90C213
:1022E70043E02479F582E434C1F583EFF090C243EB
:1022F700E004F0A3E02402FFE433FE90C243E06F62
:102307007001EE60030221FF90C241740AF00221BE
:10231700FF90C24EE0FFB45A0990C241740BF0021D
:1023270021FFEFB4A50D90C2417401F0E490C243C0
:0E23370002266BE490C243F090C24102266B76
:10234500E490C250F090C24EE0FF645A601BEFB4B7
:10235500A50C90C2417401F0E490C2438008E4905A
:10236500C243F090C24102266B90C24F7401F090B7
:10237500C244E0FF90C24FE0FED39F501A74792EFD
:10238500F582E434C1F583E0FE90C250E02EF09072
:10239500C24FE004F080D8747A2FF582E434C1F599
:1023A50083E0FF90C250E06F601CE490C243F09060
:1023B500C241F090C178F090C177F0052FE52F70FC
:1023C50002052E0221FF0531E5317002053090C16D
:1023D5007AE024DA700302246524F3700302260BE5
:0E23E50024F6700302261A24186003022663F1
:1023F30090C17BE090C251F0D39424400302266342
:1024030090C1DD74A5F0A3F0A37404F0A374A5F048
:10241300A37425F090C251E090C1E2F075F002A4DC
:1024230024B1F582E5F034BDF583E0FCA3E090C16F
:10243300E3F0ECFFA3F090C1E2E0FE90C1E1E02EF7
:10244300FE90C1E3E02E2F90C1E5F090C1E7745AEE
:0F245300F090C1E6F07B017AC179DD7D0B7C0052
:032462000226044B
:1024650090C17BE090C251F0D394244003022663CF
:1024750090C1DE74A5F090C1DDF090C251E0FD255C
:10248500E0240490C1DFF0A374A6F0A37426F0A3A2
:10249500EDF090C1E1E02D90C253F0E490C252F00E
:1024A50090C251E0FFA3E0FEC39F40030225BDEEAD
:1024B5006417600302254790BDDFF0A3F090BDD5FA
:1024C500E07004A3E06402700790BDE0E04401F011
:1024D50090BDD9E07004A3E06402700790BDE0E010
:1024E5004402F090BDD3E07004A3E064027007904D
:1024F500BDE0E04404F090BDF7E07004A3E06402A1
:10250500700790BDE0E04408F090BDD7E07004A3EB
:10251500E06402700790BDE0E04410F090BDD1E0AA
:102525007004A3E06402700790BDE0E04440F090C1
:10253500BDE9E07004A3E06402700790BDE0E044EB
:1025450080F090C252E0FF75F002A424B1F582E557
:10255500F034BDF583A3E0FEEF25E0FD2406FC2461
:10256500DDF582E434C1F583EEF090C252E075F0FA
:1025750002A424B1F582E5F034BDF583E0FFED2436
:1025850007FE24DDF582E434C1F583EFF074DD2C1C
:10259500F582E434C1F583E0FF90C253E02FFF7468
:1025A500DD2EF582E434C1F583E02F90C253F0901F
:1025B500C252E004F00224A590C253E0FF90C2523B
:1025C500E0FE25E0FD240824DDF582E434C1F58331
:1025D500EFF0ED240A24DDF582E434C1F583745A65
:1025E500F0EE25E0FF240924DDF582E434C1F5830E
:1025F500745AF0EF240BFD7C007B017AC179DD7FF5
:0426050003123E413D
:10260900805890C17BE0FF6458604FEF14F52D802E
:012619004977
:10261A0090C17DE0FE90C17CE07C002400FFEC3E8E
:10262A0090C251F0A3EFF090C17BE0FFB4400C9050
:10263A00C251E0F526A3E0F527801EEFB4410C90C5
:10264A00C251E0F528A3E0F529800EEFB4420A90C2
:09265A00C251E0F524A3E0F525CE
:10266300E490C243F090C241F090C178F090C177FA
:04267300F00221FF51
:012677002240
:106E850012749F1277F4C2AF53A9FE53B9FEC2899B
:106E9500D288D2A8C28BD28AD2AAD2AF1279C41212
:106EA500525590C24F120A630001C2007F0312704F
:106EB50061E490C243F090C241F090C178F090C176
:106EC50077F0123182122E2DC2AFE52C64046008D2
:106ED500AF2C127954752C04D2AF1221F6124BBC8B
:056EE500125AB780E322
:0379DA00FF79DD55
:0179DD002287
:106CDA00C2AFE4F5F1F5F275F30A75F40175F8AF90
:106CEA0030FCFDD2FE20FEFDAFFA90C4A4E4F0A36E
:106CFA00EFF0E07F00FE90C4A4F0A3EFF0ADFBED4F
:106D0A00FF90C4A4EEF0A3EFF0E4F5F8D2AF90C47C
:106D1A00A4E0FEA3E0FF9079DA75F003120A94EE7C
:106D2A0075F003A42583F583E493FB740193FA7445
:0D6D3A000293F94A600789828A83120B3A9E
:016D47002229
:0479D6000F407200EC
:1069730078997CC47D017BFF7A7979D67E007F0488
:106983001206AB90C24F120A630001C200E4FF1269
:1069930070617B017AC4799912662A90BDF97401FA
:1069A300F0A37484F0A37400F0A37401F0A37488BB
:1069B300F0A37404F0A37401F0A37488F0A3740625
:1069C300F0A37404F0A3E4F07B01A304F0A374BE6A
:1069D300F0A3740FF0A3EBF0A374BFF0A3740FF054
:1069E300A3EBF0A374BFF0A37411F0A37401F0A39D
:0269F300E4F0CE
:0169F500227F
:1069F6007B017ABF791390C27AE4F0A37402F07F28
:106A0600007E0F123ACA90BF13E0645A7062F07BA0
:106A1600017ABF791390C2CBF0A37402F07F007E97
:106A26000F123FF490BF16E0FDC394C840027D6488
:106A360090BF14E0FEA3E0FBAA0690BF13745AF0C1
:106A4600A374A5F0ED25E02404A3F0A37483F0EA73
:106A5600A3F0A3EBF0A3EDF0AE02AF037B017ABF88
:106A6600791A90C27AE4F0A3EDF0123ACA7F0122B5
:026A76007F009F
:016A780022FB
:0B18370090C407EBF0A3EAF0A3E9F077
:10184200C2AF900003120AE01207BCFFAEF090C4D0
:1018520012EEF0A3EFF0D2AF90C407E0FBA3E0FAE0
:10186200A3E0F9900006120AE01207BCFDACF06F8B
:101872007002EC6E7003021D70C390C413E09D9061
:10188200C412E09C90C407E0FBA3E0FAA3E0F95085
:10189200219000091207E7FF90C413E02FFF90C4C4
:1018A20012E035F0CFC39DCF9C90C40AF0A3EFF0B5
:1018B200801E900006120AE01207BCFFC390C413F8
:1018C200E09FFE90C412E095F090C40AF0A3CEF01F
:1018D200C390C40BE0940690C40AE0940050037FC6
:1018E200002290C407E0FBA3E0FAA3E0F99000060F
:1018F200120AE01207BCFDACF090C407E0FBA3E0C3
:10190200FAA3E0F9120AC08D828C831206EAFF90D4
:10191200C410E4F0A3EFF0E0F8E4F0E890C410F0B3
:10192200ED2401FFE43CFE90C414F0A3EFF090C458
:1019320007E0FBA3E0FAA3E0F99000091207E7FD34
:10194200C3EF9DEE95F04007E490C414F0A3F012AB
:101952000AC090C414E0FEA3E0F5828E831206EA68
:10196200FF90C410E0FEA3E04FFF90C410EEF0FE23
:10197200A3EFF064A57003EE645A6003021D1B908E
:10198200C407E0FBA3E0FAA3E0F9900006120AE024
:101992001207BC2403FFE435F0FE90C414F0A3EF59
:1019A200F090C407E0FBA3E0FAA3E0F9900009126B
:1019B20007E7FDC3EF9DEE95F04007E490C414F0F5
:1019C200A3F0120AC090C414E0FEA3E0F5828E8355
:1019D2001206EA64826003021B4990C407E0FBA37B
:1019E200E0FAA3E0F9900006120AE01207BC240212
:1019F200FFE435F0FE90C414F0A3EFF090C407E0CA
:101A0200FBA3E0FAA3E0F99000091207E7FDC3EF98
:101A12009DEE95F04007E490C414F0A3F090C40743
:101A2200E0FBA3E0FAA3E0F9120AC090C414E0FEBE
:101A3200A3E0F5828E831206EA2403FFE433FE90CC
:101A4200C40CF0A3EFF0C390C40BE09F90C40AE073
:101A52009E5003021D70E490C40EF0A3F090C40CDB
:101A6200E0FEA3E0FFA3E0FCA3E0FDC39FEC9E40E9
:101A720003021B1590C407E0FBA3E0FAA3E0F99070
:101A82000006120AE01207BCFFAEF090C407E0FBAA
:101A9200A3E0FAA3E0F9120AC08F828E831206EA4B
:101AA200FF74132DF58274BF3CF583EFF090C407E9
:101AB200E0FBA3E0FAA3E0F9900006120AE0E47565
:101AC200F00112081F90C407E0FBA3E0FAA3E0F9BB
:101AD200900006120AE01207BCFFAEF090C407E0C5
:101AE200FBA3E0FAA3E0F99000091207E7FDC3EFB8
:101AF2009DEE95F0400C900006120AE0E4F5F0121B
:101B0200085790C40FE004F0700690C40EE004F091
:101B1200021A5F90BF17E0FEA3E0FF7B017ABF7954
:101B22001990BF15E024FDC313FD90C2CBE4F0A3CE
:101B3200EDF0123FF490BF157403F090BF17744F8D
:101B4200F0A3744B021CCC90C407E0FBA3E0FAA301
:101B5200E0F9120AC090C414E0FEA3E0F5828E837D
:101B62001206EA64836003021CD090C407E0FBA360
:101B7200E0FAA3E0F9900006120AE01207BC240280
:101B8200FFE435F0FE90C414F0A3EFF090C407E038
:101B9200FBA3E0FAA3E0F99000091207E7FDC3EF07
:101BA2009DEE95F04007E490C414F0A3F090C407B2
:101BB200E0FBA3E0FAA3E0F9120AC090C414E0FE2D
:101BC200A3E0F5828E831206EA2403FFE433FE903B
:101BD200C40CF0A3EFF0C390C40BE09F90C40AE0E2
:101BE2009E5003021D70E490C40EF0A3F090C40C4A
:101BF200E0FEA3E0FFA3E0FCA3E0FDC39FEC9E4058
:101C020003021CA590C407E0FBA3E0FAA3E0F9904D
:101C12000006120AE01207BCFFAEF090C407E0FB18
:101C2200A3E0FAA3E0F9120AC08F828E831206EAB9
:101C3200FF74132DF58274BF3CF583EFF090C40757
:101C4200E0FBA3E0FAA3E0F9900006120AE0E475D3
:101C5200F00112081F90C407E0FBA3E0FAA3E0F929
:101C6200900006120AE01207BCFFAEF090C407E033
:101C7200FBA3E0FAA3E0F99000091207E7FDC3EF26
:101C82009DEE95F0400C900006120AE0E4F5F01289
:101C9200085790C40FE004F0700690C40EE004F000
:101CA200021BEF90BF17E0FEA3E0FF7B017ABF7932
:101CB2001AA3E0FD90C27AE4F0A3EDF0123ACA90C2
:101CC200BF19E025E0240490BF15F07F012290C4E3
:101CD20007E0FBA3E0FAA3E0F9900006120AE0E4B1
:101CE20075F00112081F90C407E0FBA3E0FAA3E01D
:101CF200F9900006120AE01207BCFFAEF090C4078A
:101D0200E0FBA3E0FAA3E0F99000091207E7FDC3A4
:101D1200EF9DEE95F04057804990C407E0FBA3E0A9
:101D2200FAA3E0F9900006120AE0E475F001120845
:101D32001F90C407E0FBA3E0FAA3E0F990000612AB
:101D42000AE01207BCFFAEF090C407E0FBA3E0FA82
:101D5200A3E0F99000091207E7FDC3EF9DEE95F0AD
:101D6200400C900006120AE0E4F5F01208577F00DA
:011D7200224E
:1048560090BA25E0FF90BA24E06F70030248EF7526
:10486600F00DEFA42425F582E5F034A0F583E0FCF5
:10487600A3E0FDA3E0FEA3E0FFE47B23FAF9F8C37F
:104886001209DB705E90BA25E075F00DA42424F5BC
:1048960082E5F034A0F583E0540FFFE4FEEEC39FFB
:1048A600504190BA25E075F00DA42429F582E5F073
:1048B60034A0F583E5822EF582E43583F583E0FDA9
:1048C60090BF0FE0FAA3E0240FF58274BE3AF58399
:1048D600EDF090BF10E004F0700690BF0FE004F01A
:1048E6000E80BA90BA25E004F01269F6EF64017002
:1048F6004190BF15E02403FDE433FC7B017ABF79C8
:1049060013E4FF123E41E490C3D3F090BF15E024B8
:1049160003FEE43390C3D4F0A3CEF0A37401F0A356
:1049260074BFF0A37413F07F237E007D007C001219
:10493600346B7B017ABD79F9121837BF011590BF28
:1049460015E02403FDE433FC7B017ABF7913E4FF11
:10495600123E417B017ABE7904121837BF012CE45E
:1049660090C3D3F090BF15E02403FEE43390C3D484
:10497600F0A3CEF0A37401F0A374BFF0A37413F0F8
:0B4986007F247E007D007C0012346B5B
:014991002203
:10794100FF988103FF988104FF988101FF988100CE
:03795100351129C4
:02746700C10959
:10609700E490C486F0A3F0A374B0F0A374FAF0C23E
:1060A70090C2947F057E00127868E490C48AF090CD
:1060B700C488E0A330E704D2928002C292C2937FE1
:1060C700057E00127868D2937F057E00127868906B
:1060D700C489E025E0F090C488E033F090C48AE0FA
:1060E70004F0E0C3941040C7D2947F057E00127875
:1060F70068E490C48AF0C2937F057E00127868D264
:10610700937F057E0012786890C487E025E0F090C1
:10611700C486E033F0309107E0F0A3E04401F0904B
:10612700C48AE004F0E0C3941040CBD2907F057E90
:0C6137000012786890C486E0FEA3E0FF30
:016143002239
:105FE800E490C48BF0A3F0EFFF74FAA3CFF0A3EF13
:105FF800F0C290C2947F057E00127868E490C48F46
:10600800F090C48DE0A330E704D2928002C292C21D
:10601800937F057E00127868D2937F057E00127800
:106028006890C48EE025E0F090C48DE033F090C411
:106038008FE004F0E0C3941040C7D2947F057E003F
:10604800127868E490C48FF0C2937F057E001278BE
:1060580068D2937F057E0012786890C48CE025E0B2
:10606800F090C48BE033F0309107E0F0A3E04401F6
:10607800F090C48FE004F0E0C3941040CBD2907F3E
:0E608800057E0012786890C48BE0FEA3E0FF56
:0160960022E7
:1070B40090C258EFF0C290C2947F057E00127868A7
:1070C400E490C257F090C258E030E704D2928002B4
:1070D400C292C2937F057E00127868D2937F057EA8
:1070E4000012786890C258E025E0F090C257E0049E
:1070F400F0E0C3940840CED2907F057E0002786809
:05584500E4FDFC7FB84A
:10584A0090C258EFF0ECA3F0A3EDF0C290C2947F9F
:10585A00057E00127868E490C257F090C258E03092
:10586A00E704D2928002C292C2937F057E00127828
:10587A0068D2937F057E0012786890C258E025E0CE
:10588A00F090C257E004F0E0C3940840CED2947F6F
:10589A00057E00127868E490C257F090C25AE03050
:1058AA00E704D2928002C292C2937F057E001278E8
:1058BA0068D2937F057E0012786890C25AE025E08C
:1058CA00F090C257E004F0E0C3940840CEE490C2DE
:1058DA0057F090C259E030E704D2928002C292C2D5
:1058EA00937F057E00127868D2937F057E00127836
:1058FA006890C259E025E0F090C257E004F0E0C396
:0D590A00940840CED2907F057E00027868A0
:06629C007BFF7D047C0085
:0B62A20090C24EEBF0A3EAF0A3E9F07D
:1062AD00AE04AF05A3EEF0A3EFF07FBC12584A90F9
:1062BD00C251E0FCA3E0FD7FBE12584A7FBF1270B1
:1062CD00B4C290D2947F057E0012786890C251744A
:1062DD00FFF5F01207A645F0605190C24EE0FBA30A
:1062ED00E475F0011207A6A9F0FA1206D190C25476
:1062FD00F0E490C253F090C253E0C3940850CDA384
:10630D00E030E704D2928002C292C2937F057E00F4
:10631D00127868D2937F057E0012786890C254E09F
:10632D0025E0F090C253E004F080CBD2907F057E43
:04633D00000278687A
:1061F00090C2547401F0A374C2F0A37452F090C220
:1062000052EFF0A3EDF090C24EE4F0A37402F0FD63
:106210007C007FBC12584A90C24EE0FCA3E0FD7F98
:10622000BE12584A7FBF1270B4C290D2947F0F7EC4
:106230000012786890C24E74FFF5F01207A645F080
:10624000605190C254E0FBA3E475F0011207A6A9C7
:10625000F0FA1206D190C251F0E490C250F090C210
:1062600050E0C3940850CDA3E030E704D2928002FE
:10627000C292C2937F0F7E00127868D2937F0F7E06
:106280000012786890C251E025E0F090C250E0041E
:0C629000F080CBD2907F0F7E0002786877
:1012B7007A79794112629CE4FD7F011261F0E4FDC5
:1012C7007F021261F07D577F031261F07DD37F04A7
:1012D7001261F0E4FD7F051261F07D117F06126156
:1012E700F07D087F071261F0E4FD7F081261F0E4EA
:1012F700FD7F091261F07D3F7F0A1261F0E4FD7FF7
:101307000B1261F0E4FD7F0C1261F0E4FD7F0D121A
:1013170061F0E4FD7F0E1261F07D3F7F0F1261F0F7
:101327007D3F7F101261F0E4FD7F111261F0E4FD53
:101337007F121261F0E4FD7F131261F0E4FD7F1468
:101347001261F0E4FD7F151261F0E4FD7F16126172
:10135700F0E4FD7F171261F0E4FD7F181261F0E4FD
:10136700FD7F191261F0E4FD7F1A1261F0E4FD7F41
:101377001B1261F0E4FD7F1C1261F0E4FD7F1D127A
:1013870061F07D407F1E1261F07D807F1F1261F04A
:101397007D067F201261F07D017F211261F0E4FD5F
:1013A7007F221261F0E4FD7F231261F0E4FD7F24C8
:1013B7001261F0E4FD7F251261F0E4FD7F261261E2
:1013C700F0E4FD7F271261F07D337F281261F07D05
:1013D700337F291261F0E4FD7F2A1261F0E4FD7F7B
:1013E7002B1261F0E4FD7F2C1261F0E4FD7F2D12DA
:1013F70061F0E4FD7F2E1261F0E4FD7F2F1261F0B2
:10140700E4FD7F301261F0E4FD7F311261F0E4FD0D
:101417007F321261F0E4FD7F331261F0E4FD7F3427
:101427001261F0E4FD7F351261F0E4FD7F36126151
:10143700F0E4FD7F371261F07D787F381261F0E4C8
:10144700FD7F391261F0E4FD7F3A1261F0E4FD7F20
:101457003B1261F0E4FD7F3C1261F0E4FD7F3D1239
:1014670061F0E4FD7F3E1261F0E4FD7F3F1261F021
:10147700E4FD7F401261F0E4FD7F411261F0E4FD7D
:101487007F421261F0E4FD7F431261F0E4FD7F4487
:101497001261F0E4FD7F501261F07D237F511261EC
:1014A700F07D457F521261F07D677F531261F07DB9
:1014B700897F541261F07DAB7F551261F07D017F0A
:1014C700561261F07D237F571261F07D457F5812D8
:1014D70061F07D677F591261F07D897F5A1261F053
:1014E7007DAB7F5B1261F07DCD7F5C1261F07DEF9C
:1014F7007F5D1261F0E4FD7F5E1261F07D0D7F5F1D
:101507001261F07D0D7F601261F07D0C7F611261C9
:10151700F07D0C7F621261F07D0F7F631261F07DB9
:101527000F7F641261F07D0E7F651261F07D0E7F83
:10153700661261F07D087F671261F07D027F681295
:1015470061F07D027F691261F07D027F6A1261F0AE
:101557007D027F6B1261F07D027F6C1261F07D026C
:101567007F6D1261F07D027F6E1261F07D027F6FE9
:101577001261F07D147F701261F07D157F71126129
:10158700F07D067F721261F07D027F731261F07D3C
:10159700027F741261F07D0D7F751261F07D0D7F02
:1015A700761261F07D0C7F771261F07D0C7F7812E7
:1015B70061F07D0F7F791261F07D0F7F7A1261F004
:1015C7007D0E7F7B1261F07D0E7F7C1261F07D08BE
:1015D7007F7D1261F07D027F7E1261F07D027F7F49
:1015E7001261F07D027F801261F07D027F811261BE
:1015F700F07D027F821261F07D027F831261F07DB0
:10160700027F841261F07D027F851261F07D147F75
:10161700861261F07D157F871261F07D067F881243
:1016270061F07D027F891261F07D027F8A1261F08D
:101637007A79794512629C7D3B7F6E1261F07D5706
:101647007F6F1261F07D247F3A1261F07D1F7F8DDD
:101657001261F07DBA7F871261F07DD17FB212618E
:10166700F07D0B7F881261F07D017F381261F0E415
:10167700FD7F391261F07D077FB51261F07D757FBF
:10168700311261F07D987F3B1261F07BFF7A7979A7
:101697004912629E7D0A7F221261F07D097F311215
:1016A70061F07D077F351261F07D677F531261F02E
:1016B7007D847F551261F07D867F501261F07D82B7
:1016C7007F511261F07D107F601261F0E4FD7F624F
:1016D7001261F0E4FD7FA01261F07D127FA112611B
:1016E700F07D1F7FA21261F07D127FA31261F07D52
:1016F700167FA41261F07D297FA51261F07D1E7F00
:10170700A61261F07D1F7FA71261F07D7E7FA81270
:1017170061F07D1B7FA91261F07D287FAA1261F01D
:101727007D6D7FAB1261F07D197FAC1261F07D1882
:101737007FAD1261F07D4C7FAE1261F07D1E7FAFF1
:101747001261F07D237FB01261F07D527FB112618B
:10175700F07D6D7FB21261F07D3F7FB31261F0E4DF
:10176700FD7FC01261F07D127FC11261F07D207F85
:10177700C21261F07D107FC31261F07D137FC41226
:1017870061F07D277FC51261F07D1B7FC61261F076
:101797007D1D7FC71261F07D757FC81261F07D1FC7
:1017A7007FC91261F07D287FCA1261F07D687FCB07
:1017B7001261F07D1A7FCC1261F07D187FCD126126
:1017C700F07D4D7FCE1261F07D257FCF1261F07DD8
:1017D7002E7FD01261F07D537FD11261F07D607F43
:1017E700D21261F07D3F7FD31261F07BFF7A797966
:1017F7004D12629E7BFF7A7979517D017C001262DE
:10180700A27F8C7E0012727F7BFF7A7979527D01ED
:101817007C001262A27F787E0012727F7BFF7A794A
:1018270079537D017C001262A27FAA7E0002727F3B
:107541007D067C087FB112584A7D227C187FB212D9
:10755100584A7D127C687FB312584A7D207C037F94
:0D756100B412584A7D007C057FB502584ADF
:105255007D507C007FB712584A125845E4FDFC7F0B
:10526500B912584A7D0A7C807FBA12584A7D067C5D
:10527500007FBB12584A7D017C007FB912584AE471
:10528500FDFC7FDE12584A7D027C237FC912584AF5
:105295007F0A7E0012727F1212B77D517C017FB7A3
:1052A50012584A125845E4FDFC7FB912584A7D153B
:1052B5007C807FBA12584A7D057C007FBB12584A14
:1052C5007D017C007FB912584A7D027C237FC9127B
:1052D500584A7F0A7E0012727F7D017C237FCA12A5
:1052E500584A7D107C057FCB12584A7D057C107F7E
:1052F500CC12584A7DFF7C007FD012584A12754166
:105305007DD37C007FB612584A7D037C007FDE1278
:10531500584A7D047C007FD612584A7D4B7C027F1B
:0E532500B712584A7F3C7E0012727FD20922D6
:1068EE0000252E3166730025302E3066730025305C
:1068FE002E30666D730025302E30664100252E3108
:10690E00660D0A00252E3066730D0A00252E3066A0
:10691E006D730D0A00252E3066410D0A0005000329
:10692E00200D64008003FFFFDF0000303700000001
:10693E0003000003C00000003C00000C000000300B
:10694E000000F00000000FC0000300000068EE68B9
:10695E00EF68F568FC690468EE690B6912691A69DB
:05696E0023FFFB010501
:10746900023F00960244001801415A0242028A046E
:107479004702105445014600023DFFE042BA290087
:017489000002
:0C760E0090C2537401F0A3745EF07D057F
:10761A00AF05EC8FF012085790C253E0FFA3E09039
:08762A000002CF8FF002087688
:1055C10090C259E0FAA3E02FFBEA3EFA90C25BE0F9
:1055D100F8A3E02FFFE83E90C270F0A3EFF090C275
:0E55E10057E090C272F090C259E0FEA3E0FFC6
:1055EF0090C26AEEF0A3EFF0A3ECF0A3EDF090BA47
:1055FF004BE0D39430400302569790C272E0FF9075
:10560F00BA4BE0FE75F009A42459F582E5F034BBDE
:10561F00F583EFF090C26AE0FCA3E0FD75F009EEB0
:10562F00A4245AF582E5F034BBF583ECF0A3EDF03A
:10563F0090C26CE0FEA3E0FF90BA4BE0FD75F0095D
:10564F00A4245CF582E5F034BBF583EEF0A3EFF014
:10565F00AF0375F009EDA4245EF582E5F034BBF5D8
:10566F0083EAF0A3EFF090C270E0FEA3E0FF75F0C5
:10567F0009EDA42460F582E5F034BBF583EEF0A3C9
:09568F00EFF090BA4BE004F022A8
:10576F0090C261E0FAA3E0FBFFAE02C006C0079053
:10577F00C266E025E0FF90C265E033FEC390C264CD
:10578F00E09FFD90C263E09EFCEB784026FBEA1899
:10579F0036FAE0FFA3E090C270CFF0A3EFF0E4A3DE
:1057AF00F0A3F090C265A3E090C274F025E0A3F0DF
:1057BF00A3E4F0A37443F090C267E0FFA3E090C2AC
:1057CF0078CFF0A3EFF0D007D006124F9F90C269A9
:1057DF00E0FD25E0244CF582E434BAF583EEF0A326
:1057EF00EFF0EDFF7E0012418790C261E0FAA3E077
:1057FF00FBFFAE02C006C00790C266E025E0FF9037
:10580F00C265E033FEC390C264E09FFD90C263E0C7
:10581F009EFCEB784026FBEA1836FAE0FFA3E090F7
:10582F00C270CFF0A3EFF090C269E090C272F0D0D7
:06583F0007D0060255EF40
:1068660078537CC27D017E007F041206AB78577C8C
:10687600C27D017B017AC279537E007F041206AB8A
:1068860090C257E0FEA3E0FF7841E6FDC390C25AEE
:10689600E09DFD90C259E09400FC12765F785B7C27
:1068A600C27D017E007F041206AB90C259E0FCA3B4
:1068B600E0FDA3E0FAA3E0FBA3E0FFA3E090C2673C
:1068C600CFF0A3EFF090692FE49390C269F0A37420
:1068D60007F0A374E0F090C257E0FEA3E0FF123C7D
:0768E6008A7B017AC2795B95
:0168ED002288
:0B6C68007AC279537E007F041206AB55
:106C730090C257E0FEA3E0FF7841E6FD90C25AE0E0
:106C83002DFD90C259E03400FC12765F785B7CC224
:106C93007D017E007F041206AB90C259E0FCA3E0A5
:106CA300FDA3E0FAA3E0FBA3E0FFA3E090C267CF5C
:106CB300F0A3EFF090692FE49390C269F0A37407F7
:106CC300F0A374E0F090C257E0FEA3E0FF123C8A09
:066CD3007B017AC2795B2F
:016CD9002298
:105B8100783FE6FE08E6FF90C258E02FFF90C2572B
:105B9100E03EFE90C259E0FCA3E0FD12765F785B27
:105BA1007CC27D017E007F041206AB90C259E0FCED
:105BB100A3E0FDA3E0FAA3E0FBA3E0FFA3E090C212
:105BC10067CFF0A3EFF090692FE49390C269F0A33F
:105BD1007407F0A374E0F090C257E0FEA3E0FF1257
:105BE1003C8A90C257E0FAA3E0FBFFAE0290C26785
:105BF1007402F0A3748AF0A37405F0A374DEF0A319
:105C010074DBF07D3A7C02123C8A90C257E0FEA31D
:105C1100E0FF7842E6FC08E6FD12765F78617CC21F
:105C21007D017E007F041206AB90C265E4F0A3748F
:105C310024F0A37407F0A374FFF0A3741AF01257B1
:075C41006F7B017AC2795B61
:015C48002239
:104CB700783FE6FE08E6FF90C258E02FFF90C25704
:104CC700E03EFE90C259E0FCA3E0FD12765F785B00
:104CD7007CC27D017E007F041206AB90C259E0FCC6
:104CE700A3E0FDA3E0FAA3E0FBA3E0FFA3E090C2EB
:104CF70067CFF0A3EFF090692FE49390C269F0A318
:104D07007407F0A374E0F090C257E0FEA3E0FF122F
:104D17003C8A90C257E0FAA3E0FBFFAE0290C2675D
:104D27007402F0A3748AF0A37405F0A374DEF0A3F1
:104D370074DBF07D3A7C02123C8A78617CC27D018B
:104D47007B017AC279577E007F041206AB7844E66E
:104D5700FF08E690C265CFF0A3EFF0A374FFF0A3BE
:104D670074E0F0A3741BF012576F90C257E0FEA3D4
:104D7700E0FF7842E6FC08E6FD12765F78617CC2C8
:104D87007D017E007F041206AB90C265E4F0A37438
:104D970024F0A37407F0A374FFF0A3741CF0125758
:074DA7006F7B017AC2795B0A
:014DAE0022E2
:10540F00783FE6FE08E6FF90C258E02FFF90C257A4
:10541F00E03EFE08E6FDC390C25AE09DFD90C259E2
:10542F00E09400FC12765F785B7CC27D017E007F8A
:10543F00041206AB90C25AE024FFFD90C259E0342B
:10544F00FFFC90C25BE0FAA3E0FBA3E0FFA3E090B8
:10545F00C267CFF0A3EFF090692FE49390C269F089
:10546F00A37407F0A374E0F090C257E0FEA3E0FF2F
:10547F00123C8A90C257E0FAA3E0FBFFAE0290C243
:10548F00677402F0A3748AF0A37405F0A374DEF0BE
:10549F00A374DBF07D3A7C02123C8A90C257E0FE87
:1054AF00A3E0FF7842E6FC08E6FD12765F78617CA8
:1054BF00C27D017E007F041206AB90C265E4F0A3AB
:1054CF007424F0A37407F0A374FFF0A3741DF012FB
:0854DF00576F7B017AC2795B73
:0154E70022A2
:1042F90090692FE493C313FF90C25FE4F0A3EFF03A
:10430900783FE6FE08E6FF90C258E02FFF90C257BB
:10431900E03EFE90C259E0FCA3E0FD12765F785BB7
:104329007CC27D017E007F041206AB90C259E0FC7D
:10433900A3E0FDA3E0FAA3E0FBA3E0FFA3E090C2A2
:1043490067CFF0A3EFF090692FE49390C269F0A3CF
:104359007407F0A374E0F090C257E0FEA3E0FF12E7
:104369003C8A90C257E0FAA3E0FBFFAE0290C26715
:104379007402F0A3748AF0A37405F0A374DEF0A3A9
:1043890074DBF07D3A7C02123C8A90C257E0FEA3AE
:10439900E0FF7842E6FC08E6FD12765F78617CC2B0
:1043A9007D017E007F041206AB90C265E4F0A37420
:1043B9001EF0A37407F0A374FFF0A3741FF0125743
:1043C9006F78617CC27D017B017AC279577E007F5B
:1043D900041206AB7844E6FF08E690C265CFF0A365
:1043E900EFF0A374F8F0A3741FF0A314F012576F41
:1043F9007847120A12EE5401FEEE605A7845E62516
:10440900E0FF18E633FE90C25AE02FFD90C259E052
:104419003EFC90692FE49375F002A42DFDE5F03C74
:10442900FC90C257E0FEA3E0FF12765F78617CC280
:104439007D017E007F041206AB7844E6FF08E69012
:10444900C265CFF0A3EFF0A374FFF0A374E0F0A36B
:0C4459007429F012576F7B017AC2795B66
:014465002234
:104DAF00783FE6FE08E6FF90C258E02FFF90C2570B
:104DBF00E03EFE90C259E0FCA3E0FD12765F785B07
:104DCF007CC27D017E007F041206AB90C259E0FCCD
:104DDF00A3E0FDA3E0FAA3E0FBA3E0FFA3E090C2F2
:104DEF0067CFF0A3EFF090692FE49390C269F0A31F
:104DFF007407F0A374E0F090C257E0FEA3E0FF1237
:104E0F003C8A90C257E0FAA3E0FBFFAE0290C26764
:104E1F007402F0A3748AF0A37405F0A374DEF0A3F8
:104E2F0074DBF07D3A7C02123C8A90C257E0FEA3FD
:104E3F00E0FF7842E6FC08E6FD12765F78617CC2FF
:104E4F007D017E007F041206AB90C265E4F0A3746F
:104E5F001EF0A37407F0A374FFF0A37421F0125790
:104E6F006F78617CC27D017B017AC279577E007FAA
:104E7F00041206AB7844E6FF08E690C265CFF0A3B4
:104E8F00EFF0A374FFF0A374E0F0A37420F01257B7
:074E9F006F7B017AC2795B11
:014EA60022E9
:0B508D007AC279537E007F041206AB4C
:10509800783FE6FE08E6FF90C258E02FFF90C2571F
:1050A800E03EFE08E6FD90C25AE02DFD90C259E0B0
:1050B8003400FC12765F785B7CC27D017E007F0441
:1050C8001206AB90C258E02401FF90C257E03400AA
:1050D800FEC00790C259E0FCA3E0FDA3E0FAA3E0FC
:1050E800FBA3E0FFA3E090C267CFF0A3EFF09069C5
:1050F8002FE49390C269F0A37407F0A374E0F0D092
:1051080007123C8A90C257E0FAA3E0FBFFAE029078
:10511800C2677402F0A3748AF0A37405F0A374DE66
:10512800F0A374DBF07D3A7C02123C8A90C257E00F
:10513800FEA3E0FF7842E6FC08E6FD12765F7861A0
:105148007CC27D017E007F041206AB90C265E4F04C
:10515800A37424F0A37407F0A374FFF0A37424F0DD
:0951680012576F7B017AC2795BDA
:01517100221B
:104EA700783FE6FE08E6FF90C258E02FFF90C25712
:104EB700E03EFE90C259E0FCA3E0FD12765F785B0E
:104EC7007CC27D017E007F041206AB90C259E0FCD4
:104ED700A3E0FDA3E0FAA3E0FBA3E0FFA3E090C2F9
:104EE70067CFF0A3EFF090692FE49390C269F0A326
:104EF7007407F0A374E0F090C257E0FEA3E0FF123E
:104F07003C8A90C257E0FAA3E0FBFFAE0290C2676B
:104F17007402F0A3748AF0A37405F0A374DEF0A3FF
:104F270074DBF07D3A7C02123C8A90C257E0FEA304
:104F3700E0FF7842E6FC08E6FD12765F78617CC206
:104F47007D017E007F041206AB90C265E4F0A37476
:104F570024F0A37407F0A374FFF0A37426F012578C
:104F67006F78617CC27D017B017AC279577E007FB1
:104F7700041206AB7844E6FF08E690C265CFF0A3BB
:104F8700EFF0A374FFF0A374E0F0A37425F01257B9
:074F97006F7B017AC2795B18
:014F9E0022F0
:105C4900783FE6FE08E6FF90C258E02FFF90C25762
:105C5900E03EFE90C259E0FCA3E0FD12765F785B5E
:105C69007CC27D017E007F041206AB90C259E0FC24
:105C7900A3E0FDA3E0FAA3E0FBA3E0FFA3E090C249
:105C890067CFF0A3EFF090692FE49390C269F0A376
:105C99007407F0A374E0F090C257E0FEA3E0FF128E
:105CA9003C8A90C257E0FAA3E0FBFFAE0290C267BC
:105CB9007402F0A3748AF0A37405F0A374DEF0A350
:105CC90074DBF07D3A7C02123C8A90C257E0FEA355
:105CD900E0FF7842E6FC08E6FD12765F78617CC257
:105CE9007D017E007F041206AB90C265E4F0A374C7
:105CF90024F0A37407F0A374FFF0A37427F01257DC
:075D09006F7B017AC2795B98
:015D10002270
:10569800783FE6FE08E6FF90C469E02FFF90C468F3
:1056A800E03EFE08E6FDC390C46BE09DFD90C46A31
:1056B800E09400FC12765F786C7CC47D017E007FEC
:1056C800041206AB90C46AE0FCA3E0FDA3E0FAA3D1
:1056D800E0FBA3E0FFA3E090C267CFF0A3EFF09058
:1056E800692FE49390C269F0A37407F0A374E0F003
:1056F80090C468E0FEA3E0FF123C8A90C468E0FA18
:10570800A3E0FBFFAE0290C2677402F0A3748AF0B4
:10571800A37405F0A374DEF0A374DBF07D3A7C0279
:10572800123C8A90C468E0FEA3E0FF90C46EE0FCDF
:10573800A3E0FD12765F78617CC27D017E007F0464
:105748001206AB7844E6FF08E690C265CFF0A3EFF7
:10575800F0A374FFF0A374E0F0A37428F012576F5D
:065768007B017AC4796C9C
:01576E002218
:0536E200E490BA4BF07A
:1036E70090C259F0A3F090693193FE740193FFC320
:1036F70074209F90C25CF074039E90C25BF0784781
:10370700120A1290C25D120A57E490C258F090C292
:1037170057F0E4FFFEFDFC90C25DE0F8A3E0F9A3DB
:10372700E0FAA3E0FBC31209DB700302381490C26E
:103737005DA3A3A3E05401FFEF70030237F290C229
:103747005BE0FCA3E0FD906931E493FE740193FF15
:1037570090C259E0FAA3E02FFBEA3EFA90C25BE081
:10376700F8A3E02FFFE83E90C270F0A3EFF090C2FD
:10377700581255E290C257E025E0242BF582E43435
:10378700BAF583E0FEA3E0FF90C258E0FD7C00128B
:10379700771890C257E025E0242BF582E434BAF578
:1037A70083E0FEA3E0FFC006C00790C259E0FEA376
:1037B700E0FFA3E0FCA3E0FD12765F786E7CC27D9C
:1037C700017E007F041206ABD007D00612789690D0
:1037D7006931E493FE740193FF90C25AE02FF09091
:1037E700C259E03EF090C257E004F090C25DE0FCA1
:1037F700A3E0FDA3E0FEA3E0FF78011209EC90C26D
:103807005D120A5790C258E004F002371990C25B64
:10381700E0FCA3E0FD906931E493FE740193FF128D
:1038270055C1906931E493FE740193FF90C25AE049
:103837002FF090C259E03EF090C25BE0FCA3E0FDA0
:103847001255C190C257E025E0242BF582E434BA23
:10385700F583E0FEA3E0FFE4FDFC12771890C25762
:10386700E025E0242BF582E434BAF583E0FEA3E0FB
:10387700FFC006C00790C259E0FEA3E0FFA3E0FC2B
:10388700A3E0FD12765F786E7CC27D017E007F0427
:103897001206ABD007D006127896E490C257F0E430
:1038A70090C270F0A3F0A3F0FBFAFDFCFFFE1255E7
:1038B700EF90C257E004F0E0C3940640E290BB02E9
:0B38C70074FFF0A3740BF0A374B1F0C9
:0138D20022D3
:050BB10090C261EFF0AD
:100BB600A3120A630000000090C266740AF090C295
:100BC60066E0FFC394105070EF25E0242BF582E415
:100BD60034BAF583E0FEA3E0FF74FFFDFC1277183C
:100BE60090C266E0FF75F009A4245AF582E5F03458
:100BF600BBF583E4F0A3F075F009EFA4245CF5825D
:100C0600E5F034BBF583E4F0A3F075F009EFA42416
:100C16005EF582E5F034BBF583E4F0A3F075F009E8
:100C2600EFA42460F582E5F034BBF583E4F0A3F08D
:100C360090C266E004F0808690C261E0C3940840EA
:100C460003020EF1E490C266F090C266E0FBC39424
:100C56000840030212B6E47F01FEFDFC90C261E08B
:100C660075F009A42459F582E5F034BBF583E0F963
:100C7600F81209FFEB25E025E0243BF582E4346910
:100C8600F583120A3BEB5FFFEA5EFEE95DFDE85C79
:100C9600FC4D4E4F7003020EE890C266E025E0253B
:100CA600E0243BF582E43469F583120A1E7846E6B1
:100CB60025E025E02433F582E43469F583120A3B06
:100CC600EB5FFFEA5EFEE95DFDE85CFC90C2621246
:100CD6000A5790C262E0F8A3E0F9A3E0FAA3E0FBAA
:100CE600C000C001E47F01FEFDFC90C261E075F02A
:100CF60009A42459F582E5F034BBF583E0F9F8122E
:100D060009FF1209C0D001D000EB5FFFEA5EFEE9E1
:100D16005DFDE85CFC90C262120A57E4FFFEFDFC32
:100D260090C262E0F8A3E0F9A3E0FAA3E0FBC312E5
:100D360009DB70030212B6E490C267F090C26674D3
:100D46000AF090C261E0FF7E00906931E493FA7484
:100D56000193FBFDAC0212072990C268EEF0A3EFE7
:100D6600F0EB25E0FFEA33FEC374209F90C26BF0E0
:100D760074039E90C26AF0E4FFFEFDFC90C262E03E
:100D8600F8A3E0F9A3E0FAA3E0FBC31209DB7003C2
:100D96000212B690C262A3A3A3E05401FFEF700350
:100DA600020EC6A3E025E0242BF582E434BAF583CF
:100DB600E0FEA3E0FFC006C00790C268E0FEA3E025
:100DC600FFA3E0FCA3E0FD12765F786E7CC27D0196
:100DD6007E007F041206ABD007D00612789690C22A
:100DE60066E025E0242BF582E434BAF583E0FEA321
:100DF600E0FF90C267E0FD7C0012771890C268E0C1
:100E0600FEA3E0FF90C266E0FD75F009A4245AF542
:100E160082E5F034BBF583EEF0A3EFF090C26AE012
:100E2600FAA3E0FB75F009EDA4245CF582E5F03445
:100E3600BBF583EAF0A3EBF0906931E493FC74010F
:100E460093FDEF2DFFEE3CFE90C266E0FD75F009C6
:100E5600A4245EF582E5F034BBF583EEF0A3EFF053
:100E6600906931E493FE740193FF90C26BE02FFF0B
:100E760090C26AE03EFE75F009EDA42460F582E5B5
:100E8600F034BBF583EEF0A3EFF090C267E0FF907D
:100E9600C266E075F009A42459F582E5F034BBF585
:100EA60083EFF0906931E493FE740193FFC390C21F
:100EB6006BE09FF090C26AE09EF090C266E004F09C
:100EC60090C262E0FCA3E0FDA3E0FEA3E0FF780190
:100ED6001209EC90C262120A5790C267E004F0024F
:100EE6000D7D90C266E004F0020C4F90C261E0FFF7
:100EF600D3940F401475F009EFA42459F582E5F058
:100F060034BBF583E0FF026598E490C266F090C2B8
:100F160066E0FBC3940840030212B6E47F01FEFDBF
:100F2600FC90C261E075F009A42459F582E5F0341D
:100F3600BBF583E0F9F81209FFEB25E025E0243B39
:100F4600F582E43469F583120A3BEB5FFFEA5EFE45
:100F5600E95DFDE85CFC4D4E4F70030212AD78472B
:100F6600120A2E90C266E025E025E0243BF582E4D5
:100F76003469F583120A1E1209C0EB5FFFEA5EFEB2
:100F8600E95DFDE85CFC7847120A4B7847120A2EA9
:100F9600C000C001E47F01FEFDFC90C261E075F077
:100FA60009A42459F582E5F034BBF583E0F9F8127B
:100FB60009FFD001D000EB4FFFEA4EFEE94DFDE8F8
:100FC6004CFC7847120A4B90C261E075F009A424E4
:100FD60059F582E5F034BBF583E0FF7E00E4FD12AF
:100FE600267890C261E075F009A42459F582E5F0EF
:100FF60034BBF583E014605F24FB24FD505F601171
:1010060024FD6059146056240D7055E47846F68028
:101016004CE47846F690C262E0F8A3E0F9A3E0FA61
:10102600A3E0FB90693F120A1E1209C0EB5FFFEABC
:101036005EFEE95DFDE85CFC90C262120A5790C252
:1010460062E0FCA3E0FDA3E0FEA3E04440FFEC90D9
:10105600C262120A578006784676018000122E2D4B
:101066007846E625E025E02433F582E43469F58305
:10107600120A1E08120A2EEF5BFFEE5AFEED59FD0C
:10108600EC58FC90C262120A57E490C266F090C215
:1010960066E0FFC394085020EF25E0242BF582E498
:1010A60034BAF583E0FEA3E0FF74FFFDFC12771867
:1010B60090C266E004F080D6E490C267F090C26603
:1010C600F090C268F0A3F090693193FE740193FF2B
:1010D600C374209F90C26BF074039E90C26AF0E4C2
:1010E600FFFEFDFC90C262E0F8A3E0F9A3E0FAA3DC
:1010F600E0FBC31209DB700302124F90C262A3A386
:10110600A3E05401FFEF700302122DA3E025E024B3
:101116002BF582E434BAF583E0FEA3E0FFC006C0F7
:101126000790C268E0FEA3E0FFA3E0FCA3E0FD1287
:10113600765F786E7CC27D017E007F041206ABD09E
:1011460007D00612789690C266E025E0242BF58239
:10115600E434BAF583E0FEA3E0FF90C267E0FD7CCD
:101166000012771890C268E0FEA3E0FF90C266E026
:10117600FD75F009A4245AF582E5F034BBF583EE3B
:10118600F0A3EFF090C26AE0FAA3E0FB75F009ED78
:10119600A4245CF582E5F034BBF583EAF0A3EBF01A
:1011A600906931E493FC740193FDEF2DFFEE3CFE54
:1011B60090C266E0FD75F009A4245EF582E5F03480
:1011C600BBF583EEF0A3EFF0906931E493FE740172
:1011D60093FF90C26BE02FFF90C26AE03EFE75F06F
:1011E60009EDA42460F582E5F034BBF583EEF0A3A7
:1011F600EFF090C267E0FF90C266E075F009A424A4
:1012060059F582E5F034BBF583EFF0906931E4934C
:10121600FE740193FF90C269E02FF090C268E03E31
:10122600F090C266E004F090C262E0FCA3E0FDA389
:10123600E0FEA3E0FF78011209EC90C262120A57A1
:1012460090C267E004F00210E590C266E0FFC39426
:101256000A505D75F009EFA4245AF582E5F034BB17
:10126600F583E4F0A3F075F009EFA4245CF582E5BC
:10127600F034BBF583E4F0A3F075F009EFA4245E27
:10128600F582E5F034BBF583E4F0A3F075F009EFE1
:10129600A42460F582E5F034BBF583E4F0A3F09076
:1012A600C266E004F080A290C266E004F0020F1469
:0112B6002215
:0841870090C270EEF0A3EFF00E
:10418F0078727CC27D017BFF7A69795B7E007F0A42
:10419F001206AB787C7CC27D017BFF7A6979657EE4
:1041AF00007F0A1206ABE490C286F090C271E02540
:1041BF00E0FF90C270E033FE74AC2FF58274BA3E0C
:1041CF00F583E0FCA3E0FDEC1201A890C287120A70
:1041DF005790C270E0FEA3E0FFEE60030242A3EF30
:1041EF0024E6B4100040030242A390420775F00387
:1041FF00A4C58325F0C5837302423702429D024254
:10420F003702423702429D02428D02429D02428D89
:10421F000242A30242A302423702429D02423702E8
:08422F00429502429D02429DEE
:10423700EF25E0FFEE33FE74AC2FF58274BA3EF53E
:1042470083E0FEA3E0FF90C28BEEF0A3EFF0C394F0
:1042570064EE9400502490C2867401F0A3E0FCA39E
:10426700E0FDA3E0FEA3E0FFE4FBFA79207841122A
:10427700010690C287120A57802290C287120A63EA
:0442870041200000D2
:10428B00800890C2867403F0800E90C2867402F090
:10429B00800690C2867404F090C286E0604F25E0E1
:1042AB002472F582E434C2F583E0FEA3E0AA06F99A
:1042BB007BFF90C271E025E0FF90C270E033FE748B
:1042CB004C2FF58274BA3EF583E0FCA3E0FDC004ED
:1042DB00C00590C287E0FCA3E0FDA3E0FEA3E0FFD6
:0D42EB0090C292120A57D005D004126471DF
:0142F80022A3
:1026780090C26CEEF0A3EFF0AB05EB700302277C81
:10268800E025E0FF90C26CE033FE74052FF58274FC
:10269800BB3EF583E0FCA3E0FDAF03EF3395E0FE1E
:1026A80012072990C26DE025E0FB90C26CE033FA76
:1026B80074AC2BF58274BA3AF583EE8FF01207905A
:1026C80090C26CE0FEA3E07802C333CE33CED8F9D3
:1026D800240BF58274BD3EF583E0FCA3E0FD74ACE9
:1026E8002BF58274BA3AF583E0FEA3E0D39DEC643F
:1026F80080F8EE648098401E90C26DE025E0FF905F
:10270800C26CE033FE74AC2FF58274BA3EF583ECEC
:10271800F0A3EDF0805E90C26CE0FCA3E0FDAE0497
:102728007802C333CE33CED8F92409F58274BD3E7E
:10273800F583E0FAA3E0FBED25E0FFEC33FE74AC93
:102748002FF58274BA3EF583E0FEA3E0C39BEA64EA
:1027580080F8EE648098501C90C26DE025E0FF90F0
:10276800C26CE033FE74AC2FF58274BA3EF583EA8E
:10277800F0A3EBF090C26CE0FEA3E0FFEE60030272
:102788002AD2EFB42A004003022AD290279AF828C6
:102798002873022952022952022952022952022977
:1027A80052022952022A58022A5D022A6B02295231
:1027B800022A70022A75022952022952022A840228
:1027C8002A89022A8E022A93022A98022AA2022A17
:1027D800AC022ABF022AB5022AC9022A7F022A7A33
:1027E80002281802289B02281802281802289B028F
:1027F800289802289B02289802289B02289B0228D6
:102808001802289B02281802289802289B02289B55
:1028180090C26CE0FCA3E0FD25E0FFEC33FE74AC55
:102828002FF58274BA3EF583E0FFA3E090C26ECF25
:10283800F0A3EFF0EC7053ED24E4601B1460242443
:10284800F9602C24FE6034240C704290C26EE0FFC4
:10285800A3E090BDB3802E90C26EE0FFA3E090BDD0
:10286800B7802290C26EE0FFA3E090BDB9801690B9
:10287800C26EE0FFA3E090BDC7800A90C26EE0FF81
:0A288800A3E090BDCBCFF0A3EFF06A
:09289200022947022947022947E7
:10289B0090C26CE0FCA3E0FD25E0FFEC33FE74ACD2
:1028AB002FF58274BA3EF583E0FFA3E090C26ECFA2
:1028BB00F0A3EFF0EC6003022947ED24E26026243D
:1028CB00FE603A24FE605A14606324FE603B24FDD4
:1028DB00604314601C240E706390C26EE0FFA3E093
:1028EB0090BDB5805290C26EE0FFA3E090BDBB805F
:1028FB004690C26EE0FFA3E090BDF5803A90C26EA9
:10290B00E0FFA3E090BDBF802E90C26EE0FFA3E07E
:10291B0090BDC9802290C26EE0FFA3E090BDCF8036
:10292B001690C26EE0FFA3E090BDC3800A90C26E0A
:10293B00E0FFA3E090BDC5CFF0A3EFF090C26CE039
:07294B00FEA3E0FF0241873B
:1029520090BDB1E0FFA3E090C26ECFF0A3EFF09084
:10296200C26CE0FEA3E0FFEE6003022A48EFB40E61
:10297200004003022A4890297FF8282873022A1669
:10298200022A220229C90229DB0229ED022A0202B5
:102992002A48022A48022A48022A34022A48022ADB
:1029A200480229A90229BC90C26EE0FEA3E0540F9E
:1029B2004410FF90C26EEE022A4490C26EE0F0A371
:1029C200E0540FF0022A4890C26EE054F0FEA3E0F9
:1029D200FFEE440190C26E806990C26EE054F0FE38
:1029E200A3E0FFEE440290C26E805790C26EE054A4
:1029F200F0F0A3E0F090BDD9E4F0A37402F08046B9
:102A020090C26EE054F0F0A3E0F090BDD9E4F0A3E0
:102A120004F0803290C26EE0540FF0A3E0F0802602
:102A220090C26EE0540FFEA3E0FFEE441090C26E1F
:102A3200801090C26EE0540FFEA3E0FFEE4420909F
:102A4200C26EF0A3EFF090C26EE0FFA3E090BDB1C2
:052A5200CFF0A3EFF03E
:102A57002290BDD3805290BDD3E4F0A37402F090CE
:102A6700BDF7804D90BDF7803F90BDD5804390BDA9
:102A7700D5803590BDD7803090BDD7803490BDDDEF
:102A8700802690BDDD802A90BDDD802F90BDDD8042
:102A97003490BDDDE4F0A37405F02290BDDDE4F0D1
:102AA700A37406F02290BDDBE4F0A304F02290BDEE
:102AB700DBE4F0A37402F02290BDDBE4F0A374031F
:0C2AC700F02290BDDBE4F0A37404F022C8
:02795400AD077D
:1079560090BAA4E0FEA3E0FFED90696F93FD0226C6
:0179660078A8
:106D4800EF25E0FFEE33FE744C2FF58274BA3EF562
:106D580083E0FEA3E0FF7B017AC2796D1279679028
:106D6800C26DE0FCA3E0FD90C271E0FBA3E090C21D
:106D78007BCBF0A3EBF0906931E493FA740193FBB9
:106D880090692DE493F8740193C39BFEE89A90C22E
:106D98007DF0A3CEF0A37452F0A3748AF090BB00E8
:0C6DA800E0FEA3E0FF7BDC7A000276F83E
:0565980090C26CEFF061
:10659D007E00126D4890C26CE0FF7E0090BAA4E0C0
:1065AD00FCA3E0FDB50705EEB5040122ED25E0FFE6
:1065BD00EC33FE744C2FF58274BA3EF583E0FEA3E6
:1065CD00E0FF783DE6FC08E6FD12775890C26CE0DE
:1065DD0025E0244CF582E434BAF583E0FEA3E0FF18
:1065ED00127697783DA60608A60790C26CE025E0C6
:1065FD00244CF582E434BAF583E0FEA3E0FF7D1F61
:10660D007CF812775890C26CE0FF90BAA4E4F0A326
:0C661D00EFF090C26CE0FF7E001241879D
:01662900224E
:103182007B017ABD797190C253E4F0A37464F07D3F
:10319200017C0012761A7ABD797512760E7ABD79A3
:1031A2007990C253E4F0A37464F07D0112761A7A26
:1031B200BD797D90C253E4F0A37464F012761A7A5A
:1031C200BD798112760E7ABD798590C2537427F04B
:1031D200A37410F07D0112761A7ABD798912760EE7
:1031E2007ABD798D90C2537427F0A37410F07D01DB
:1031F20012761A7ABD799190C253E4F0A374C8F0A2
:103202007D1412761A7ABD799590C253E4F0A374B4
:1032120050F07D1E12761A7ABD799990C253E4F06D
:10322200A37464F07D0112761A7ABD799D12760E2E
:103232007ABD79A190C253E4F0A37464F07D0112C7
:10324200761A7ABD79A590C253E4F0A3743CF012C9
:10325200761A7ABD79A990C253E4F0A37464F01D82
:1032620012761A7ABD79AD12760E90BB39E4F0A3CC
:1032720004F0A3E4F0A304F0A3E4F0A304F0A3E4B5
:10328200F0A304F0A3E4F0A304F0A3E4F0A304F099
:10329200A3E4F0A304F0A3E4F0A304F0A3E4F0A3F6
:1032A20004F0A3E4F0A304F0A3E4F0A304F0A3E485
:1032B200F0A304F0A3E4F0A304F0A3E4F0A304F069
:1032C200A3E4F0A304F0A3E4F0A304F090BDB1F0F2
:1032D200A3E4F0A3F0A37435F090BAE0E4F0A37491
:1032E20035F090BDB5E4F0A37432F090BAE2E4F0A8
:1032F200A37432F090BDB7E4F0A37414F090BAE472
:10330200E4F0A37414F090BDB9E4F0A37421F0903A
:10331200BAE6E4F0A37421F090BDBBE4F0A37464B8
:10332200F090BAE8E4F0A37464F090BDBDE4F0A3B9
:103332007402F090BAEAE4F0A37402F090BDBFE424
:10334200F0A37496F090BAECE4F0A37496F090BDFA
:10335200C1E4F0A37403F090BAEEE4F0A37403F0B6
:1033620090BDC3E4F0A37464F090BAF0E4F0A374E7
:1033720064F090BDC5E4F0A37406F090BAF2E4F0F4
:10338200A37406F090BDC7E4F0A3740BF090BAF4F6
:10339200E4F0A3740BF090BDC9E4F0A3743CF09088
:1033A200BAF6E4F0A3743CF090BDCBE4F0A3740B46
:1033B200F090BAF8E4F0A3740BF090BDCDE4F0A362
:1033C2007403F090BAFAE4F0A37403F090BDCFE472
:1033D200F0A37437F090BAFCE4F0A37437F090BD18
:1033E200D1E4F0A304F0A3E4F0A304F0A3E4F0A377
:1033F2007402F0A3E4F0A304F0A3E4F0A37402F0D7
:1034020090BDDDE4F0A37403F0A3E4F0A304F0E4C0
:1034120090BDDFF0A3F0A3F0A37418F0A3E4F0A32F
:103422007419F0A3E4F0A3741AF0A3E4F0A3741BDC
:10343200F0A3E4F0A37402F0A3E4F0A3741DF0A3DC
:10344200E4F0A3741EF0A3E4F0A3741FF0A3E4F06D
:10345200A37420F0A3E4F0A37421F0A3E4F0A37416
:0934620078F0A3E4F0A304F022C9
:102E2D0090C24EE4F0A37428F0A37402F0A37426AC
:102E3D00F01278C81279A890C2757403F0A3741FAC
:102E4D00F0A3746BF0A3744DF07BFF7A04E4FDFCEA
:102E5D00FFFE1254E8E490C275F0A3F0A37452F093
:102E6D00A3748AF0E4FBFAFDFCFFFE1254E890BB5C
