:0B00F800FFFF4457494E5435026BDAFD
:0E3CDB007B0190C27EE4F0A304F07F147E0013
:103CE90090C279EEF0A3EFF0A3EBF0A3EAF0A3E919
:013CF900F0DA
:103CFA00E490C280F0A3F0A3F0A3F0A3F0A3F0A392
:103D0A00F0A3F090C27EE0FAA3E0FB4A7003023E01
:103D1A00A890C279E0FEA3E0FFC3E49FFFE49EFE01
:103D2A00E4FCFD90C288120A32AF03AE02E4FCFD45
:103D3A0090C288E0F8A3E0F9A3E0FAA3E0FBC3127B
:103D4A0009DB501190C288A3A3E0FFA3E090C27ED2
:103D5A00CFF0A3EFF090C279E0FCA3E0FDECC3132F
:103D6A00FFED1390C280CFF0A3EFF0ED5401FFA353
:103D7A00E4F0A3EFF0C2AFE4F5F190C280E0FCA357
:103D8A00E0FDECF5F28DF375F40175F8AF30FCFD4A
:103D9A0090C282E07002A3E0603DD2FE20FEFD9058
:103DAA00C27BE0FBA3E475F0011207A6A9F0FAE5CD
:103DBA00FC12071790C27BE0FBA3E475F00112071F
:103DCA00A6A9F0FAE5FD12071790C27FE024FFF0DA
:103DDA0090C27EE034FFF090C27EE0FCA3E0FDECEE
:103DEA00C313FFED1390C284CFF0A3EFF0ED54019B
:103DFA00FFA3E4F0A3EFF090C28474FFF5F012077A
:103E0A00A645F0605BD2FE20FEFD90C27BE0FBA3DC
:103E1A00E475F0011207A6A9F0FAE5FA120717905D
:103E2A00C27BE0FBA3E475F0011207A6A9F0FAE54C
:103E3A00FB12071790C27BE0FBA3E475F00112079F
:103E4A00A6A9F0FAE5FC12071790C27BE0FBA3E4EF
:103E5A0075F0011207A6A9F0FAE5FD120717809777
:103E6A0090C286E07002A3E0602FD2FE20FEFD9091
:103E7A00C27BE0FBA3E475F0011207A6A9F0FAE5FC
:103E8A00FA12071790C27BE0FBA3E475F001120750
:0E3E9A00A6A9F0FAE5FB120717E4F5F8D2AF7F
:013EA80022F7
:1045780090C2CAEEF0A3EFF0A3EBF0A3EAF0A3E930
:01458800F042
:10458900E490C2D1F0A3F0A3F0A3F0A3F0A3F090BC
:10459900C2CFE07002A3E0700302470A90C2CAE0EA
:1045A900FEA3E0FFC3E49FFFE49EFED390C2D0E0E8
:1045B9009F90C2CFE09E4005EEF0A3EFF090C2CAF3
:1045C900E0FAA3E0FBEAC313FCEB13FDEB5401FF94
:1045D90090C2D1E4F0A3EFF0C2AFE4F5F1ECF5F24B
:1045E900AF058FF375F40175F88330FCFD90C2D1E6
:1045F900E07002A3E0603D90C2CCE0FBA3E475F05B
:10460900011207A6A9F0FA1206D1F5FC90C2CCE076
:10461900FBA3E475F0011207A6A9F0FA1206D1F579
:10462900FDD2FE20FEFD90C2D0E024FFF090C2CF63
:10463900E034FFF090C2CFE0FCA3E0FDECC313FF30
:10464900ED1390C2D3CFF0A3EFF0ED5401FFA3E433
:10465900F0A3EFF075F88F90C2D374FFF5F012074D
:10466900A645F0605B90C2CCE0FBA3E475F00112B3
:1046790007A6A9F0FA1206D1F5FA90C2CCE0FBA37D
:10468900E475F0011207A6A9F0FA1206D1F5FB901C
:10469900C2CCE0FBA3E475F0011207A6A9F0FA1257
:1046A90006D1F5FC90C2CCE0FBA3E475F00112073A
:1046B900A6A9F0FA1206D1F5FDD2FE30FE9980FBCB
:1046C90090C2D5E07002A3E0603275F88C90C2CC3C
:1046D900E0FBA3E475F0011207A6A9F0FA1206D1CE
:1046E900F5FA90C2CCE0FBA3E475F0011207A6A984
:1046F900F0FA1206D1F5FBD2FE20FEFDE4F5F8D260
:01470900AF00
:01470A00228C
:10781600C2AFC2D3C2D4E4F58E75C870F5CDF5CC2F
:1078260075CBBC75CACDD2ADD2C8F593759401752A
:10783600950275C960F5F875F901F5A8F5B8F59AD8
:07784600F5A9F5B902793F35
:10793F007F007E80E4F536F5370FEFAC0670010E51
:10794F0014F5828C83E4F00537E53770020536B401
:07795F0000E7E536B480E209
:0179660022FE
:107A600090C491120A3E55AA5AA57B017AC4799115
:107A700090C2CFE4F0A37402F07F047E0002457848
:047C0C007FF47E0182
:107C1000EF4E6010E4FD0DEDC3941840F9EF1F70B6
:047C2000EF1E80ECE7
:017C2400223D
:10729D0090C41F745AF0A374A5F0A3EEF0A3EFF001
:1072AD00A3EBF0A3EDF090C41EE0600A90C425E4BA
:1072BD00F0A304F08007E490C425F0A3F07B017ADD
:1072CD00C4791F90C2CFE4F0A37404F07FB07E00A8
:1072DD00124578127C0C7B017AC4791F90C27EE432
:1072ED00F0A304F07FB07E00123CE990C41FE07063
:0172FD00E2AE
:0172FE00226D
:0577D70090C478EFF002
:1077DC007B017AC4797990C27EE4F0A37402F07FC5
:1077EC00A07E00123CE990C478E0A3F0A37401F0F1
:1077FC00E490C47CF07B017AC4797990C2CFF0A379
:0A780C007402F07FA07E00024578B0
:1051200090C30AE0FB90C45CF090C30BE0FCA3E0EA
:10513000FDA3E0FEA3E0FF78101209EC90C45DEF40
:10514000F090C30BE0FCA3E0FDA3E0FEA3E0FF783A
:10515000081209EC90C45EEFF090C30BA3A3A3E088
:1051600090C45FF090C30FE0FCA3E0FDEC90C4603E
:10517000F0A3EDF090C311E0FCA3E0FDEC90C4625D
:10518000F0A3EDF0EBB4A52890C313E0FBA3E0FA85
:10519000A3E04A4B601A90C30FE0FEA3E0FF90C368
:1051A00013A3A3E0F990C2CFECF0A3EDF012457881
:1051B0007B017AC4795C90C2CFE4F0A37404F07FE1
:1051C000087E00124578127C0C7B017AC4795C90D1
:1051D000C27EE4F0A304F07F087E00123CE990C494
:1051E0005CE070E290C30AE0B45A2F90C313E0FB76
:1051F000A3E0FAA3E04A4B602190C30FE0FEA3E0D6
:10520000FF90C313A3A3E0F990C311E0FDA3E090C6
:10521000C27ECDF0A3EDF0123CE97F327E00027633
:01522000325B
:104DC70090C427745AF090C2FAE090C428F06401A6
:104DD700706790C2FBA3E090C429F090C2FDE0FC8D
:104DE700A3E0FDA3E0FEA3E0FF78101209EC90C456
:104DF7002AEFF090C2FDE0FCA3E0FDA3E0FEA3E0F4
:104E0700FF78081209EC90C42BEFF090C2FDA3A322
:104E1700A3E090C42CF090C301E0FCA3E0FDEC906C
:104E2700C42DF0A3EDF090C303E0FCA3E0FDEC90EC
:104E3700C42FF0A3EDF0E4803B90C2FAE064027067
:104E470037A3E0FCA3E0FDEC90C429F0A3EDF090BC
:104E5700C301E0FCA3E0FDEC90C42BF0A3EDF090C0
:104E6700C308E0FCA3E0FDEC90C42DF0A3EDF0E453
:104E7700A3F0A3F0A3F0A3F07B017AC4792790C233
:104E8700CFE4F0A37406F07FAA7E00124578127C67
:104E97000C7B017AC4792790C27EE4F0A304F07FEB
:104EA700AA7E00123CE990C427E070E290C2FAE0C3
:104EB700B4012F90C305E0FBA3E0FAA3E04A4B60DF
:104EC7002190C301E0FEA3E0FF90C305A3A3E0F98F
:104ED70090C303E0FDA3E090C27ECDF0A3EDF012F6
:094EE7003CE97F327E00027632C4
:0F7D22007AC4799C123CDB90C49CE0FEA3E0FF86
:017D3100222F
:086EBA0090C46CEEF0A3EFF0B0
:106EC200A3745AF0A37401F090C46CE0FCA3E0FD3B
:106ED200EC90C470F0A3EDF07B017AC4796E90C29D
:106EE200CFE4F0A37402F07F847E00124578127C16
:106EF2000C7B017AC4796E90C27EE4F0A374021214
:106F02003CE490C46CE0FEA3E0FFA3E0B506DFA37F
:106F1200E0B507DAE490C46EF0A3F0A3F0A3F07B2F
:106F2200017AC4796E90C2CFF0A37402F07F167E0C
:046F3200000245789C
:0876320090C24CEEF0A3EFF052
:10763A00E4A3F0A3F090C24CE0FEA3E0FFC390C223
:10764A004FE09F90C24EE09E5025E4FBFA7F017EF8
:10765A0000127C100BBB00010ABA01F1BB2CEE90A0
:0F766A00C24FE004F070CE90C24EE004F080C634
:0176790022EE
:10767A00EF14601814602314602E24037039740107
:10768A00A805088002C333D8FC42B7227401A805B2
:10769A00088002C333D8FC42BC227401A8050880C2
:1076AA0002C333D8FC42BD22AF057401A807088083
:0876BA0002C333D8FC42BE22DA
:10750500EF1460191460251460312403703D740173
:10751500A805088002C333D8FCF452B7227401A829
:1075250005088002C333D8FCF452BC227401A805B7
:10753500088002C333D8FCF452BD22AF057401A8FC
:0C75450007088002C333D8FCF452BE22B9
:1068BE00EF14602D14604A146067240360030269AC
:1068CE0050EB600E7401A805088002C333D8FC4259
:1068DE0080227401A805088002C333D8FCF45280CC
:1068EE0022EB600E7401A805088002C333D8FC4267
:1068FE0090227401A805088002C333D8FCF452908C
:10690E0022EB600E7401A805088002C333D8FC4246
:10691E00A0227401A805088002C333D8FCF452A04B
:10692E0022EB600E7401A805088002C333D8FC4226
:10693E00B022AF057401A807088002C333D8FCF457
:03694E0052B02222
:1073BF00EF14601A146027146034240370427401B0
:1073CF00A805088002C333D8FC5580FE80347401B1
:1073DF00A805088002C333D8FC5590FE80247401A1
:1073EF00A805088002C333D8FC55A0FE8014AF0552
:1073FF007401A807088002C333D8FC55B0FE800281
:04740F00E4FEAF06E2
:017413002256
:1057A8007B017AC4796490C27EE4F0A37404F07F2C
:1057B800167E00123CE990C464E0645A6003025803
:1057C8006DA3E0FFB40134A3E0FCA3E0FD90C31B8C
:1057D800ECF0A3EDF090C321ECF0A3EDF090C468D9
:1057E800E0FCA3E0FD90C31FECF0A3EDF090C346EE
:1057F800ECF0A3EDF0A37401F08030EFB403269031
:10580800C319E0FFA3E090C346CFF0A3EFF090C325
:1058180017E0FFA3E090C321CFF0A3EFF090C348B7
:105828007402F0800690C3487403F090C466E0FFE9
:10583800A3E090C317CFF0A3EFF090C468E0FFA3F4
:10584800E090C319CFF0A3EFF0E490C464F07B01BB
:105858007AC4796490C2CFF0A37402F07F167E00F8
:10586800124578801190C465E0FF64026003EF7010
:0B58780005E490C348F090C348E0FF37
:015883002202
:083AF20090C433EEF0A3EFF0E5
:103AFA001257A890C435EFF0700690C316F0FF2253
:103B0A0090C435E0B4010F7AC3791D123CDB90C32F
:103B1A00167401F0FF2290C31DE0FEA3E0FF90C4DB
:103B2A0033E06E7003A3E06F60037F012290C31736
:103B3A00E0FEA3E0FFC390C31CE09FFF90C31BE01D
:103B4A009E90C349F0A3EFF090C349E0FCA3E0FDC7
:103B5A00FFAE04120729EE3395E0FDFC90C436123D
:103B6A000A3290C319E0FEA3E0FFC390C320E09F8E
:103B7A00FF90C31FE09E90C34BF0A3EFF090C34B9E
:103B8A00E0FCA3E0FDFFAE04120729EE3395E0FD49
:103B9A00FC90C43A120A3290C435E06402707990FB
:103BAA00C316E06401706B7F09FEFDFC90C43AE025
:103BBA00F8A3E0F9A3E0FAA3E0FBC31209DB501A69
:103BCA00E47F09FEFDFC90C436E0F8A3E0F9A3E027
:103BDA00FAA3E0FBC31209DB4038E47F02FEFDFCD6
:103BEA0090C43AE0F8A3E0F9A3E0FAA3E0FB1208D4
:103BFA00A390C436E0F8A3E0F9A3E0FAA3E0FBD36C
:103C0A001209DB90C31650057403F0FF227404F006
:103C1A00FF2290C316E0FF2290C316E06401706E83
:103C2A007F09FEFDFC90C43AE0F8A3E0F9A3E0FAAC
:103C3A00A3E0FBC31209DB501AE47F09FEFDFC90E6
:103C4A00C436E0F8A3E0F9A3E0FAA3E0FBC3120943
:103C5A00DB4038E47F02FEFDFC90C43AE0F8A3E0C2
:103C6A00F9A3E0FAA3E0FB1208A390C436E0F8A394
:103C7A00E0F9A3E0FAA3E0FBD31209DB90C31650E4
:103C8A00057403F080087404F080037F022290C355
:103C9A0016E0B4031E90C319E0FEA3E0FFC390C36D
:103CAA0047E09FFF90C346E09E90C34FF0A3EFF01A
:103CBA007F052290C317E0FEA3E0FFC390C322E072
:103CCA009FFF90C321E09E90C34DF0A3EFF07F06C3
:013CDA0022C7
:0478B80002180000B2
:107B9C00E4F51D758911F58CF58AC28CF51AF51C66
:0E7BAC00438901758CBC758ACDD2A9D28C227A
:03000B00026F364B
:0D6F3600C0E0C0D075D000C000C006C0078C
:106F4300C2AFE51D6002151D758CBC758ACD051B8E
:106F530075350074017E00A835088005C333CE3330
:106F6300CED8F9FFEF551C602DE53525E02408F850
:106F730008E61618700116E53525E02408F8E6FE44
:106F830008E64E7011AF3504A807088002C333D852
:0F6F9300FC421AF4521C0535E535B408B6D2AFEE
:0B6FA200D007D006D000D0D0D0E032E5
:03002B00027CB0A4
:107CB000C0E0C2AFC2C6D2AF0519E51970020518FF
:037CC000D0E032DF
:1079DA00C2AF7401A807088002C333D8FCFE421C58
:1079EA00EF25E02408F8A60408A605EEF4521AD2F8
:0279FA00AF22BA
:107C8600C2AF7401A807088002C333D8FCF4521CA3
:057C9600521AD2AF22DA
:107CC300C2AF7401A807088002C333D8FC551AFF5A
:027CD300D2AF2E
:017CD500228C
:0B7BBA00D2B37F05127BC5D2B27F055D
:107BC500EF600EE4FE0EC3EE648094B240F71F80B2
:017BD500EFC0
:017BD600228C
:047D760053BEF722DF
:047D7A0043BE0822DA
:107BF200127D7AD2B3D2B27F0F127BC5C2B37F0F8E
:0A7C0200127BC5C2B27F0F027BC5E2
:0A7A80007F0F12785DAF0312785DEE
:107A8A00127D7AC2B3D2B27F0F127BC5D2B37F0FF7
:067A9A00127BC5027D769F
:0F7D3200127D7AC2B3127BBCC2B27F05027BC541
:0D7D5F00127D7A127BBAC2B27F05027BC58D
:107B2000127D76127BBAE4FD30B30A7F05127BC565
:0F7B30000DEDB432F3C2B27F05127BC5027D7A30
:10784D0012785DE0FF12785D127A8A127BF27F6406
:02785D00AD0775
:10785F00127D7AE4FCED30E704D2B38002C2B3EDBF
:10786F0025E0FD127BBCC2B27F05127BC50CECB4C8
:05787F0008E3027B207C
:0D7884007F0F12785D127BF27F6512785D38
:10789100127D76E4FC127BBCED25E0FD30B305449E
:1078A10001FD8004ED54FEFDC2B27F05127BC50CC3
:0678B100ECB408E1AF0594
:0178B70022AE
:10624300127858127884AB07127D32127891AA071C
:10625300127D5F127A8AEB20E0030262F1548460BC
:106263000AEB547BFB127858127A80EB54FEFBEA5C
:1062730030E713547FFA1278587F1012785DAF021B
:1062830012785D127A8AEA4480FA1278587F1012E3
:10629300785DAF0212785D127A8AEB4484FB127840
:1062A300587F0F12785DAF03127852E4FF12785DC6
:1062B300E4FF12785DE4FF12785D7F8012785D7FE2
:1062C3000512785D7F0112785D7F0112785D7F2171
:1062D30012785D127A8AEB547BFBEA547FFA1278C8
:0E62E300587F1012785DAF02127852127A8046
:0162F100228A
:1064FD0012785812788490C49EEFF0127D32127883
:10650D0091A3EFF0127D5F127A8AE04480F0127849
:10651D00587F1012785DE0FF12785D127A8A90C470
:10652D009EE04484F01278587F0F12784DE4FF12EC
:10653D00785D9000061206EAFF12785D9000051254
:10654D0006EAFF12785D9000041206EAFF12785DEC
:10655D009000031206EAFF12785D9000021206EA1F
:10656D00FF12785D9000011206EAFF12785D1206A7
:10657D00D1FF12785D127A8A90C49EE0547BF0A30D
:10658D00E0547FF01278587F1012784D7F0F1278FB
:0C659D005D90C49EE0FF12785D027A8AD7
:10618600127858E4FF12785D127BF27F6512785D13
:106196007B06127891743E2BF582E434C4F583EFC6
:1061A600F0127D32DBEC12789190C43EEFF0127D56
:1061B6005F127A8A90C442E0547FF0E4FB743E2B6F
:1061C600F582E434C4F583E0FFC4540FFE90C44660
:1061D600F0EF540FFFA3F0EE75F00AA42FFF743E04
:1061E6002BF582E434C4F583EFF00BEBB403CE7BDE
:1061F60004743E2BF582E434C4F583E0FFC4540FE7
:10620600FE90C446F0EF540FFFA3F0EE75F00AA41B
:106216002FFF743E2BF582E434C4F583EFF00BEBCD
:10622600B407CEE490C445F07B017AC4793E90C2AF
:0D623600CFF0A37404F07F107E00024578C5
:107CD600EF75F00A84C454F0FEEF75F00A84E5F0FF
:037CE6004EFF222C
:0F7D4100EFC4540F75F00AA4FEEF540F2EFF226B
:076A740090C47DEBF0AB07BD
:106A7B00ED64016004EDB4021BED240CFEE43390D5
:106A8B00C47EF0A3CEF0EB24FFFEE434FFA3F0A30F
:106A9B00CEF08012AF0590C47EE4F0A3EFF0AF030D
:106AAB00A3E4F0A3EFF090C47FE02401FF90C47E39
:106ABB00E03400FE7C007D1A1207297D0A12073B89
:106ACB00AC06AD0790C480E0FAA3E0FBAE027802FF
:106ADB00CEC313CE13D8F92BFFEA3ECF2DCF3CFEFE
:106AEB0090C47DE07C002FFFEC3ECF24DCCF34FF45
:086AFB00FE7D0712073BAF0509
:016B0300226F
:1062F2007B017AC379FB90C27EE4F0A37404F07F41
:106302009C7E00123CE990C3FBE0645A6003026386
:10631200A0A3E064A560030263A0A3E0FF127CD601
:1063220090C403EFF090C3FEE0FF127CD690C40449
:10633200EFF090C3FFE0FF127CD690C405EFF0901F
:10634200C3FDE0FFA3E0FDA3E0FB126A7490C40664
:10635200EFF090C400E0FF127CD690C407EFF04447
:1063620080F090C401E0FF127CD690C408EFF09058
:10637200C402E0FF127CD690C409EFF07B017AC41C
:1063820079031264FDE490C3FBF0A3F07AC379FBB6
:0E63920090C2CFF0A304F07F9C7E00124578ED
:0163A00022DA
:107C25007D027F0312767A7D037F0312767A1261D5
:097C350086E4F518F5190262F26B
:1074B700AB07AA06A905A8047F007E387D317C00AA
:1074C70012092EC3E49F90C252F074049E90C251D9
:1074D700F043C9407D04E4FF12767A7D05E4FF128C
:1074E700750543803075D88075985090C251E0FC7F
:0D74F700A3E0FDECF5BA8DAA43A810D2ACBD
:017504002264
:1075E900AB07AA06A905A8047F007E707D627C000E
:1075F90012092EC3E49F90C252F074049E90C251A6
:10760900F043C9207D06E4FF12767A7D07E4FF1274
:1076190075054380C0759B9090C251E0FCA3E0FDC5
:08762900ECF5BB8D9D439A01B5
:017631002236
:10796700759680759780AB07AA06A905A8047F00BE
:107977007EC07D897C0112092EAD07AC06ECF5D9D6
:07798700AF058FE743B80CC8
:01798E0022D6
:1077960075A78075AB80AB07AA06A905A8047F006C
:1077A6007EC07D897C0112092EAD07AC06ECF5AED4
:1077B600AF058FAF43B830E490A01BF0A3F0A3F061
:1077C600A3F090A023F090A01FF0A3F0A3F0A3F0E5
:0177D6002290
:10741400EF14601B1460291460372403704490C275
:107424004DE0FCA3E0FDA3E0FEA3E0FF0274B790EF
:10743400C24DE0FCA3E0FDA3E0FEA3E0FF0275E97A
:1074440090C24DE0FCA3E0FDA3E0FEA3E0FF0279BF
:107454006790C24DE0FCA3E0FDA3E0FEA3E0FF12B1
:03746400779622F6
:1042150090C252EFF0A3ECF0A3EDF0A3EBF0A3EA0C
:04422500F0A3E9F029
:10422900C2AFE4A3F0A3F090C253E0FEA3E0FFC342
:1042390090C259E09F90C258E09E40030242ED901F
:10424900C255E0FBA3E475F0011207A6A9F0FA1222
:1042590006D1FF90C252E0FE75F009A42400F58250
:10426900E5F03488F583EE75F008A42583F583E03D
:10427900FCA3E0FD75F009EEA42400F582E5F03415
:1042890080F583EE75F008A42583F583E5822DF585
:1042990082E5833CF583EFF075F009EEA42400F57F
:1042A90082E5F03488F583EE75F008A42583F5835B
:1042B900E475F00112079075F009EEA42400F58267
:1042C900E5F03488F583EE75F008A42583F583E0DD
:1042D9005403F090C259E004F0700690C258E0040B
:1042E900F002423090C252E01460421460701470BF
:1042F90003024395240360030243C5908808E060E4
:10430900030243C504F0908802E0FEA3E02400F50F
:104319008274803EF583E0F599908803E004F0709B
:1043290006908802E004F09088020243C19090113F
:10433900E060030243C504F090900BE0FEA3E02483
:1043490009F58274883EF583E0F59C90900CE004B1
:10435900F0700690900BE004F090900B805A9098C2
:104369001AE0705804F0909814E0FEA3E02412F5C6
:104379008274903EF583E0F59E909815E004F07004
:1043890006909814E004F0909814802C90A023E0F3
:10439900702A04F090A01DE0FEA3E0241BF58274AE
:1043A900983EF583E0F5AC90A01EE004F07006900D
:0E43B900A01DE004F090A01DE05403F0D2AF70
:0143C70022D3
:03002300026B0469
:106B0400C0E0C083C082C0D075D000C006C007C238
:106B1400AF30982AC298908804E0FEA3E02400F5E0
:106B24008274843EF583E599F0908805E004F07062
:106B340006908804E004F0908804E05403F030994F
:106B44003FC299908802E0FEA3E0FF908800E06EC7
:106B54007003A3E06F602474002FF58274803EF507
:106B640083E0F599908803E004F07006908802E0D1
:106B740004F0908802E05403F08005908808E4F063
:0F6B8400D2AFD007D006D0D0D082D083D0E032AD
:030053000272FF37
:1072FF00C0E0C083C082C0D075D000C006C007C236
:10730F00AF5396FE909814E0FEA3E0FF909812E022
:10731F006E7003A3E06F602474122FF58274903E99
:10732F00F583E0F59E909815E004F07006909814A0
:10733F00E004F0909814E05403F0800590981AE45C
:10734F00F0D2AFD007D006D0D0D082D083D0E032E9
:03005B000276C268
:1076C200C0E0C083C082C0D075D000C006C2AF5334
:1076D20097FE909816E0FEA3E02412F58274943E81
:1076E200F583E59FF0909817E004F07006909816E5
:1076F200E004F0909816E05403F0D2AFD006D0D058
:07770200D082D083D0E032F9
:0300630002735FC6
:10735F00C0E0C083C082C0D075D000C006C007C2D5
:10736F00AF53A7FE90A01DE0FEA3E0FF90A01BE08F
:10737F006E7003A3E06F6024741B2FF58274983E28
:10738F00F583E0F5AC90A01EE004F0700690A01D10
:10739F00E004F090A01DE05403F0800590A023E4DA
:1073AF00F0D2AFD007D006D0D0D082D083D0E03289
:03006B0002770910
:10770900C0E0C083C082C0D075D000C006C2AF53EC
:10771900ABFE90A01FE0FEA3E0241BF582749C3E03
:10772900F583E5ADF090A020E004F0700690A01F6D
:10773900E004F090A01FE05403F0D2AFD006D0D0FF
:07774900D082D083D0E032B2
:030083000266FA18
:1066FA00C0E0C083C082C0D075D000C006C007C247
:10670A00AFE59B30E02E759B90539BFE90900DE079
:10671A00FEA3E02409F582748C3EF583E59CF09093
:10672A00900EE004F0700690900DE004F090900D49
:10673A00E05403F0E59B30E143759B90539BFD9039
:10674A00900BE0FEA3E0FF909009E06E7003A3E0D7
:10675A006F602474092FF58274883EF583E0F59CF6
:10676A0090900CE004F0700690900BE004F090908A
:10677A000BE05403F08005909011E4F0D2AFD007FB
:0B678A00D006D0D0D082D083D0E03207
:1069E30090C499EBF0A3EAF0A3E9F07D02E4FF126F
:1069F300767A7D03E4FF1275057B017D02E4FF12C5
:106A030068BE43C98075F1FFE4F5F275F36075F470
:106A13000175F88F30FCFD90C499E0FBA3E0FAA365
:106A2300E0F91206D1F5FA9000011206EAF5FB909F
:106A330000021206EAF5FC9000031206EAF5FDD205
:106A4300FE20FEFDE4F5FAF5FBF5FCF5FDD2FE2094
:106A5300FEFD75FAFF75FBFF75FCFF75FDFFD2FEAA
:106A630020FEFDE4F5F8758FA0E58F20E5FBD2B994
:016A73002200
:107BD700E5E830E51553E8DF438F407FE87E031281
:0B7BE7007C10538FBFE490BA28F022FE
:10489B0075F1FFE4F5F275F36475F40175F88F307B
:1048AB00FCFD90BA27E075F00DA42424F582E5F009
:1048BB0034ADF583E0F5FAE4F5FBF5FCF5FDD2FE3E
:1048CB0020FEFD90BA27E0FB75F00DA42425F582A0
:1048DB00E5F034ADF583E0FCA3E0FDA3E0FEA3E03F
:1048EB00FF78181209EC8FFA75F00DEBA42425F55F
:1048FB0082E5F034ADF583E0FCA3E0FDA3E0FEA37D
:10490B00E0FF78101209EC8FFB90BA27E0FB75F0F3
:10491B000DA42425F582E5F034ADF583E0FCA3E08E
:10492B00FDA3E0FEA3E0FF78081209EC8FFC75F005
:10493B000DEBA42425F582E5F034ADF583A3A3A3F9
:10494B00E0F5FDD2FE20FEFD90BA27E0FF75F00DDD
:10495B00A42429F582E5F034ADF583E0F5FA75F082
:10496B000DEFA4242AF582E5F034ADF583E0F5FBD9
:10497B0090BA27E0FF75F00DA4242BF582E5F034F7
:10498B00ADF583E0F5FC75F00DEFA4242CF582E575
:10499B00F034ADF583E0F5FDD2FE20FEFD90BA2795
:1049AB00E0FF75F00DA4242DF582E5F034ADF58311
:1049BB00E0F5FA75F00DEFA4242EF582E5F034AD99
:1049CB00F583E0F5FB90BA27E0FF75F00DA4242FDB
:1049DB00F582E5F034ADF583E0F5FC75F00DEFA451
:1049EB002430F582E5F034ADF583E0F5FDD2FE2001
:0C49FB00FEFD90BA27E004F0E4F5F8227D
:0636870090C3D3120A32C9
:10368D00D390C3D9E0940090C3D8E09408400302CE
:10369D0038FD90C3D7E0FB90C3D330E70FE0FCA318
:1036AD00E0FDA3E0FEA3E0FF7803800DE0FCA3E0C6
:1036BD00FDA3E0FEA3E0FF78151209FF90C3E2120F
:1036CD000A3290BA26E0FA75F00DA42424F582E5AD
:1036DD00F034ADF583E030E63890C3E2E0FCA3E0D2
:1036ED00FDA3E0FEA3E0FF75F00DEAA42425F5820D
:1036FD00E5F034ADF583120A32EB54C0FF75F00DD1
:10370D00EAA42424F582E5F034ADF583EFF0023818
:10371D00E190C3D8E0FCA3E0FDAE047803CEC31363
:10372D00CE13D8F990C3E0F0ED5407A3F0E490C3A5
:10373D00DFF090C3D7E054C0FFE4FCFDFE90C3E67C
:10374D00120A32E490C3DDF090C3E0E0FF90C3DDD8
:10375D00E0C39F400302380C90C3E2E0FCA3E0FD00
:10376D00A3E0FEA3E0FF90BA26E0FB75F00DA424C4
:10377D0025F582E5F034ADF583120A3290C3E6E00B
:10378D00FCA3E0FDA3E0FEA3E04408FF75F00DEB04
:10379D00A42424F582E5F034ADF583EFF0E490C375
:1037AD00DEF090C3DEE0FFC39408504490C3DAE02E
:1037BD00FBA3E0FAA3E0F990C3DFE0F58275830087
:1037CD001206EAFE90BA26E075F00DA42429F582C2
:1037DD00E5F034ADF583E5822FF582E43583F5838D
:1037ED00EEF090C3DFE004F090C3DEE004F080B2B1
:1037FD0090BA26E004F090C3DDE004F00237559056
:10380D00C3E1E0FB70030238E7A3E0FCA3E0FDA3F6
:10381D00E0FEA3E0FF90BA26E075F00DA42425F597
:10382D0082E5F034ADF583120A32AF0390C3E6A3FF
:10383D00E0F9A3E0FAA3E04FFF90BA26E075F00D92
:10384D00A42424F582E5F034ADF583EFF0E490C3C4
:10385D00DEF090C3E1E0FF90C3DEE0FEC39F504475
:10386D0090C3DAE0FBA3E0FAA3E0F990C3DFE0F543
:10387D00827583001206EAFF90BA26E075F00DA45A
:10388D002429F582E5F034ADF583E5822EF582E449
:10389D003583F583EFF090C3DFE004F090C3DEE0F5
:1038AD0004F080AE90C3DEE0FFC39408502690BABA
:1038BD0026E075F00DA42429F582E5F034ADF583ED
:1038CD00E5822FF582E43583F583E4F090C3DEE0E5
:1038DD0004F080D090BA26E004F090BA28E0701081
:1038ED00C2AF12489BD2AF90BA287401F0438F0437
:0138FD0022A8
:03004B0002301967
:10301900C0E0C0F0C083C082C0D075D000C000C07D
:0D30290001C002C003C004C005C006C007FE
:10303600C2AFE59130E70353913FE59120E60302E5
:1030460033195391BF75F1FF75F20075F36875F486
:103056000175F8AF30FCFDD2FE20FEFD90C243E5BF
:10306600FAF0E0FF90BA24E075F00DA42424F5826E
:10307600E5F034A0F583EFF0D2FE20FEFD90BA24F1
:10308600E075F00DA42425F582E5F034A0F583C0A3
:1030960083C082E0FCA3E0FDA3E0FEA3E0FF780886
:1030A6001209FFD082D083120A3290BA24E075F05A
:1030B6000DA42425F582E5F034A0F583C083C082F3
:1030C600E0F8A3E0F9A3E0FAA3E0FBAFFAEB4FFFC9
:1030D600EAFEE9FDE8FCD082D083120A3290BA24D7
:1030E600E075F00DA42425F582E5F034A0F583C043
:1030F60083C082E0FCA3E0FDA3E0FEA3E0FF780826
:103106001209FFD082D083120A3290BA24E075F0F9
:103116000DA42425F582E5F034A0F583C083C08292
:10312600E0F8A3E0F9A3E0FAA3E0FBAFFBEB4FFF67
:10313600EAFEE9FDE8FCD082D083120A3290BA2476
:10314600E075F00DA42425F582E5F034A0F583C0E2
:1031560083C082E0FCA3E0FDA3E0FEA3E0FF7808C5
:103166001209FFD082D083120A3290BA24E075F099
:103176000DA42425F582E5F034A0F583C083C08232
:10318600E0F8A3E0F9A3E0FAA3E0FBAFFCEB4FFF06
:10319600EAFEE9FDE8FCD082D083120A3290BA2416
:1031A600E075F00DA42425F582E5F034A0F583C082
:1031B60083C082E0FCA3E0FDA3E0FEA3E0FF780865
:1031C6001209FFD082D083120A3290BA24E075F039
:1031D6000DA42425F582E5F034A0F583C083C082D2
:1031E600E0F8A3E0F9A3E0FAA3E0FBAFFDEB4FFFA5
:1031F600EAFEE9FDE8FCD082D083120A3290BA24B6
:10320600E075F00DA42425F582E5F034A0F583C021
:1032160083C082E0FCA3E0FDA3E0FEA3E0FF780309
:103226001209ECD082D083120A3290C243E020E722
:103236002D90BA24E075F00DA42425F582E5F0342E
:10324600A0F583C083C082E0FCA3E0FDA3E0FEA35B
:10325600E0FF78121209ECD082D083120A3290C2B3
:1032660043E030E603023310D2FE20FEFD90BA247E
:10327600E0FF75F00DA42429F582E5F034A0F5836E
:10328600E5FAF075F00DEFA4242AF582E5F034A0F6
:10329600F583E5FBF075F00DEFA4242BF582E5F040
:1032A60034A0F583E5FCF075F00DEFA4242CF5822F
:1032B600E5F034A0F583E5FDF0D2FE20FEFD90BAE0
:1032C60024E0FF75F00DA4242DF582E5F034A0F579
:1032D60083E5FAF075F00DEFA4242EF582E5F034BF
:1032E600A0F583E5FBF075F00DEFA4242FF582E53C
:1032F600F034A0F583E5FCF075F00DEFA42430F56D
:1033060082E5F034A0F583E5FDF075F80090BA2467
:10331600E004F0E59130E51A5391DF90BA26E0FF1C
:10332600A3E06F600812489B438F04800590BA287B
:10333600E4F0E59130E4035391EFE59130E3035374
:1033460091F7E59130E2065391FB438F0475E8004F
:02335600D2AFF4
:10335800D007D006D005D004D003D002D001D000C9
:0B336800D0D0D082D083D0F0D0E03273
:1040600049444C450072657175657374696E672FBC
:10407000726563656976696E6720706172616D65EE
:10408000746572730067617320666C6F7720626578
:10409000666F72652077656C64696E670069676E2C
:1040A0006974696F6E006E6F2063757272656E74ED
:1040B00020286E6F742069676E6974656429006ECC
:1040C0006F2063757272656E74206166746572200C
:1040D00069676E6974696F6E20287768656E206302
:1040E0006865636B696E67290069676E6974696FDB
:1040F0006E2070756C73650070756C7365207469E3
:104100006D6520697320696E636F727265637400F8
:10411000696E697469616C2063757272656E740092
:10412000696E6372656173650077656C64696E675B
:1041300000646563726561736500656E64204900A3
:10414000636C65616E696E672074686520656C6577
:104150006374726F64650067617320666C6F7720AB
:1041600061742074686520656E64007761697469A4
:104170006E6720666F72207468652072656C656179
:104180007365206F662074686520627574746F6E45
:10419000206F6E2074686520746F726368002573E9
:1041A0000A0D25642025642025642025640A0D2538
:1041B00064410A0D252E3166560A0D252E3166738F
:1041C0000A0D676F6F643A2025640A0D6261643AD4
:1041D00020202564002564410D0A00252E316676D5
:1041E0000005000320FF4060FF4065FF4085FF4061
:1041F0009DFF40A6FF40BFFF40E9FF40F8FF411090
:10420000FF4120FF4129FF4131FF413AFF4140FF7B
:054210004157FF416B66
:0A7D6C0075F90175BCFD7590FD224C
:03000300026FADDC
:106FAD00C0E0C0F0C083C082C0D075D000C000C0AA
:106FBD0001C002C003C004C005C006C0077F587ED3
:106FCD0002127C10E5B030E0F4E5B030E0FBE5B046
:106FDD0030E0FBE5B020E112E51DD394504005757E
:106FED002C018003752C00751D647F017E001276C7
:106FFD0032C289C28BD007D006D005D004D003D0C1
:10700D0002D001D000D0D0D082D083D0F0D0E032E9
:0300130002701D5B
:10701D00C0E0C0F0C083C082C0D075D000C000C039
:10702D0001C002C003C004C005C006C0077F587E62
:10703D0002127C10E5B030E1F4E5B030E1FBE5B0D3
:10704D0030E1FBE5B020E012E51DD394504005750D
:10705D002C038003752C02751D647F017E00127652
:10706D0032C289C28BD007D006D005D004D003D050
:10707D0002D001D000D0D0D082D083D0F0D0E03279
:105F2C007E007F647D007B017AC17911120B179082
:105F3C00C2CD74FFF0A37441F0A3749EF0E53C75E0
:105F4C00F003A424E5F582E43441F583E493F97479
:105F5C000193FA74029390C2D0C9F0A3EAF0A3E9BA
:105F6C00F0A3E531F0A3E532F0A3E533F0A3E5347B
:105F7C00F0A3E522F0A3E523F0A3E52AF0A3E52B9B
:105F8C00F0A3E526F0A3E527F0AC28AD29E4120137
:105F9C00A8E4FBFA7920784112010690C2DD120ABE
:105FAC0032AC24AD25E41201A8E4FBFA7920784147
:105FBC0012010690C2E1120A3290C2E5E52FF0A35D
:105FCC00E530F0A3E52DF0A3E52EF07B017AC17945
:105FDC00111227F07B017AC1791190C2CFE4F0A3A2
:0A5FEC007432F07F007E2502457834
:105221007B007A00793690C27EE4F0A37403F07FAC
:10523100167E00123CE9E536645A600302531BF501
:1052410036FB7A00793890C2CFF0A304F07F167E46
:1052510000124578853831853932853A33853B34BA
:0E526100752200853723E53714600302531BC6
:10526F00E490C24CF090BA49E0FF90C24CE0FEC30C
:10527F009F400302531275F009EEA42458F582E5FE
:10528F00F034BBF583E0FEA3E0D39539EE953850AB
:10529F006990C24CE0FF75F009A4245CF582E5F03B
:1052AF0034BBF583E0FCA3E0C39539EC9538404A55
:1052BF0075F009EFA4245AF582E5F034BBF583E0CD
:1052CF00FEA3E0D3953BEE953A502F90C24CE0757C
:1052DF00F009A4245EF582E5F034BBF583E0FCA36E
:1052EF00E0C3953BEC953A401190BB00A3E0FAA3C5
:1052FF00E0F5828A83120B15800990C24CE004F00E
:0C530F0002527490C24CE0752A00F52B8D
:01531B00226F
:101D590090A023E0600302227E90A01FE0FEA3E092
:101D6900FFA3E0FCA3E0FD6F7002EC6E700302229A
:011D79007EEB
:101D7A00741B2DF582749C3CF583E090C24CF09064
:101D8A00A022E004F0700690A021E004F090A021C7
:101D9A00E05403F090C23FE014602824FD6036242A
:101DAA00FE605724FC7003021E7B147003021EA8F7
:101DBA00240B70A490C24CE0B4A59D90C23F74015C
:101DCA00F0809590C24CE0B4A50890C23F7404F02C
:101DDA00808602226A90C24CE0FFB4A50590C175C4
:101DEA008007EFB45A0690C1767401F090C242EFB0
:101DFA00F090C23F7406F0021D6290C24CE0FFB43C
:101E0A00A51790C175E0B4010890C23F7404F08030
:101E1A000D90C1757401F08005E490C175F0EFB4BE
:101E2A005A1290C176E0B4010302226A90C1767414
:101E3A0001F08005E490C176F090C24CE0FF90C2B8
:101E4A0041E02477F582E434C1F583EFF090C24192
:101E5A00E004F0A3E02402FFE433FE90C241E06F05
:101E6A007001EE6003021D6290C23F740AF0021D07
:101E7A006290C24CE0FFB45A0990C23F740BF00260
:101E8A001D62EFB4A50D90C23F7401F0E490C24107
:0E1E9A00022272E490C241F090C23F02227216
:101EA800E490C24EF090C24CE0FF645A601BEFB45D
:101EB800A50C90C23F7401F0E490C2418008E49000
:101EC800C241F090C23F02227290C24D7401F0905C
:101ED800C242E0FF90C24DE0FED39F501A74772EA5
:101EE800F582E434C1F583E0FE90C24EE02EF09016
:101EF800C24DE004F080D874782FF582E434C1F53F
:101F080083E0FF90C24EE06F601CE490C241F09005
:101F1800C23FF090C176F090C175F0052EE52E70A5
:101F280002052D021D620530E5307002052F90C1B3
:101F380078E024DA7003021FC924F37003022170C9
:0E1F480024F670030221D82418600302226AD6
:101F560090C179E090C24FF0D39424400302226AE4
:101F660090C1DB74A5F0A3F0A37404F0A374A5F0EC
:101F7600A37425F090C24FE090C1E0F075F002A482
:101F860024AFF582E5F034BDF583E0FCA3E090C113
:101F9600E1F0ECFFA3EFF090C1E0E0FE90C1DFE0DE
:101FA6002EFE90C1E1E02E2F90C1E3F090C1E574C2
:101FB6005AF090C1E4F07B017AC179DB7D0B7C009D
:031FC6000221688D
:101FC90090C179E090C24FF0D39424400302226A71
:101FD90090C1DC74A5F090C1DBF090C24FE0FD2503
:101FE900E0240490C1DDF0A374A6F0A37426F0A345
:101FF900EDF090C1DFE02D90C251F0E490C250F0B5
:1020090090C24FE0FFA3E0FEC39F4003022121EEEF
:10201900641760030220AB90BDDDF0A3F090BDD33F
:10202900E07004A3E06402700790BDDEE04401F0B3
:1020390090BDD7E07004A3E06402700790BDDEE0B4
:102049004402F090BDD1E07004A3E06402700790EF
:10205900BDDEE04404F090BDF5E07004A3E0640245
:10206900700790BDDEE04408F090BDD5E07004A390
:10207900E06402700790BDDEE04410F090BDCFE04F
:102089007004A3E06402700790BDDEE04440F09064
:10209900BDE7E07004A3E06402700790BDDEE04490
:1020A90080F090C250E0FF75F002A424AFF582E5FC
:1020B900F034BDF583A3E0FEEF25E0FD2406FC2402
:1020C900DBF582E434C1F583EEF090C250E075F09F
:1020D90002A424AFF582E5F034BDF583E0FFED24D9
:1020E90007FE24DBF582E434C1F583EFF074DB2CC1
:1020F900F582E434C1F583E0FF90C251E02FFF740B
:10210900DB2EF582E434C1F583E02F90C251F090C3
:10211900C250E004F002200990C251E0FF90C25081
:10212900E0FE25E0FD240824DBF582E434C1F583D3
:10213900EFF0ED240A24DBF582E434C1F583745A07
:10214900F0EE25E0FF240924DBF582E434C1F583B0
:10215900745AF0EF240BFD7C007B017AC179DB7F97
:042169000312421506
:10216D0002226A90C179E0FF64586056EF644E60B8
:10217D00518F3CE53C6408600302226A122C0E7BF1
:10218D00FF7A4179D590BA9EE0FCA3E0FD90C2960E
:10219D00E526F0A3E527F012682AAC28AD29E41254
:1021AD0001A8E4FBFA7920784112010690C296123B
:1021BD000A3290BAA0E0FCA3E0FD7BFF7A4179DB07
:0B21CD008049E4F53C122C0E02226A4F
:1021D80090C17BE0FE90C17AE07C002400FFEC3ED9
:1021E80090C24FF0A3EFF090C179E0B4402790C2BD
:1021F8004FE0F526A3E0F5277BFF7A4179D590BA21
:102208009EE0FCA3E0FD90C296E526F0A3E527F04A
:1022180012682A804D90C179E0B44135AC28AD29C7
:10222800E41201A8E4FBFA7920784112010690C271
:1022380096120A3290BAA0E0FCA3E0FD7BFF7A4137
:1022480079DB12682A90C24FE0F528A3E0F52980CF
:102258001190C179E0B4420A90C24FE0F524A3E09E
:02226800F5255A
:10226A00E490C241F090C23FF090C176F090C175FF
:04227A00F0021D62EF
:01227E00223D
:10723800127816127B9CC2AF53A9FE53B9FEC289BD
:10724800D288D2A8C28BD28AD2AAD2AF127D6C12AF
:1072580056CA90C24D120A3E0001C2007F03127442
:1072680014E490C241F090C23FF090C176F090C112
:1072780075F0123373122C0EC2AFE52C640460084B
:10728800AF2C127CFC752C04D2AF121D591252215E
:05729800125F2C80E3F1
:037D8200FF7D85FD
:017D850022DB
:10708D00C2AFE4F5F1F5F275F30A75F40175F8AFD9
:10709D0030FCFDD2FE20FEFDAFFA90C4A0E4F0A3BB
:1070AD00EFF0E07F00FE90C4A0F0A3EFF0ADFBED9C
:1070BD00FF90C4A0EEF0A3EFF0E4F5F8D2AF90C4CA
:1070CD00A0E0FEA3E0FF907D8275F003120A6FEE43
:1070DD0075F003A42583F583E493FB740193FA748F
:0D70ED000293F94A600789828A83120B150D
:0170FA002273
:047D7E000F40720040
:106DB40078957CC47D017BFF7A7D797E7E007F049B
:106DC4001206AB90C24D120A3E0001C200E4FF124B
:106DD40074147B017AC479951269E390BDF7740148
:106DE400F0A37484F0A37400F0A37401F0A3748876
:106DF400F0A37404F0A37401F0A37488F0A37406E0
:106E0400F0A37404F0A3E4F07B01A304F0A374BE24
:106E1400F0A3740DF0A3EBF0A374BFF0A3740DF012
:106E2400A3EBF0A374BFF0A3740FF0A37401F0A359
:026E3400E4F088
:016E36002239
:106E37007B017ABF791190C27EE4F0A37402F07FE0
:106E4700007E0F123CE990BF11E0645A7062F07B3C
:106E5700017ABF791190C2CFF0A37402F07F007E50
:106E67000F12457890BF14E0FDC394C840027D64BB
:106E770090BF12E0FEA3E0FBAA0690BF11745AF080
:106E8700A374A5F0ED25E02404A3F0A37483F0EA2E
:106E9700A3F0A3EBF0A3EDF0AE02AF037B017ABF43
:106EA700791890C27EE4F0A3EDF0123CE97F01224D
:026EB7007F005A
:016EB90022B6
:0B181D0090C40BEBF0A3EAF0A3E9F08D
:10182800C2AF900003120ABB1207BCFFAEF090C40F
:1018380016EEF0A3EFF0D2AF90C40BE0FBA3E0FAF2
:10184800A3E0F9900006120ABB1207BCFDACF06FCA
:101858007002EC6E7003021D56C390C417E09D9091
:10186800C416E09C90C40BE0FBA3E0FAA3E0F95097
:10187800219000091207E7FF90C417E02FFF90C4DA
:1018880016E035F0CFC39DCF9C90C40EF0A3EFF0C7
:10189800801E900006120ABB1207BCFFC390C41733
:1018A800E09FFE90C416E095F090C40EF0A3CEF031
:1018B800C390C40FE0940690C40EE0940050037FD8
:1018C800002290C40BE0FBA3E0FAA3E0F990000625
:1018D800120ABB1207BCFDACF090C40BE0FBA3E0FE
:1018E800FAA3E0F9120A9B8D828C831206EAFF9014
:1018F800C414E4F0A3EFF0E0F8E4F0E890C414F0C6
:10190800ED2401FFE43CFE90C418F0A3EFF090C46E
:101918000BE0FBA3E0FAA3E0F99000091207E7FD4A
:10192800C3EF9DEE95F04007E490C418F0A3F012C1
:101938000A9B90C418E0FEA3E0F5828E831206EAA3
:10194800FF90C414E0FEA3E04FFF90C414EEF0FE35
:10195800A3EFF064A57003EE645A6003021D0190C2
:10196800C40BE0FBA3E0FAA3E0F9900006120ABB5F
:101978001207BC2403FFE435F0FE90C418F0A3EF6F
:10198800F090C40BE0FBA3E0FAA3E0F99000091281
:1019980007E7FDC3EF9DEE95F04007E490C418F00B
:1019A800A3F0120A9B90C418E0FEA3E0F5828E8390
:1019B8001206EA64826003021B2F90C40BE0FBA3AB
:1019C800E0FAA3E0F9900006120ABB1207BC240251
:1019D800FFE435F0FE90C418F0A3EFF090C40BE0DC
:1019E800FBA3E0FAA3E0F99000091207E7FDC3EFB3
:1019F8009DEE95F04007E490C418F0A3F090C40B56
:101A0800E0FBA3E0FAA3E0F9120A9B90C418E0FEF9
:101A1800A3E0F5828E831206EA2403FFE433FE90E6
:101A2800C410F0A3EFF0C390C40FE09F90C40EE081
:101A38009E5003021D56E490C412F0A3F090C41007
:101A4800E0FEA3E0FFA3E0FCA3E0FDC39FEC9E4003
:101A580003021AFB90C40BE0FBA3E0FAA3E0F990A1
:101A68000006120ABB1207BCFFAEF090C40BE0FBE5
:101A7800A3E0FAA3E0F9120A9B8F828E831206EA8A
:101A8800FF74112DF58274BF3CF583EFF090C40B01
:101A9800E0FBA3E0FAA3E0F9900006120ABBE475A4
:101AA800F00112081F90C40BE0FBA3E0FAA3E0F9D1
:101AB800900006120ABB1207BCFFAEF090C40BE000
:101AC800FBA3E0FAA3E0F99000091207E7FDC3EFD2
:101AD8009DEE95F0400C900006120ABBE4F5F0125A
:101AE800085790C413E004F0700690C412E004F0A4
:101AF800021A4590BF15E0FEA3E0FF7B017ABF798B
:101B08001790BF13E024FDC313FD90C2CFE4F0A3E8
:101B1800EDF012457890BF137403F090BF15744F21
:101B2800F0A3744B021CB290C40BE0FBA3E0FAA331
:101B3800E0F9120A9B90C418E0FEA3E0F5828E83B8
:101B48001206EA64836003021CB690C40BE0FBA390
:101B5800E0FAA3E0F9900006120ABB1207BC2402BF
:101B6800FFE435F0FE90C418F0A3EFF090C40BE04A
:101B7800FBA3E0FAA3E0F99000091207E7FDC3EF21
:101B88009DEE95F04007E490C418F0A3F090C40BC4
:101B9800E0FBA3E0FAA3E0F9120A9B90C418E0FE68
:101BA800A3E0F5828E831206EA2403FFE433FE9055
:101BB800C410F0A3EFF0C390C40FE09F90C40EE0F0
:101BC8009E5003021D56E490C412F0A3F090C41076
:101BD800E0FEA3E0FFA3E0FCA3E0FDC39FEC9E4072
:101BE80003021C8B90C40BE0FBA3E0FAA3E0F9907E
:101BF8000006120ABB1207BCFFAEF090C40BE0FB54
:101C0800A3E0FAA3E0F9120A9B8F828E831206EAF8
:101C1800FF74112DF58274BF3CF583EFF090C40B6F
:101C2800E0FBA3E0FAA3E0F9900006120ABBE47512
:101C3800F00112081F90C40BE0FBA3E0FAA3E0F93F
:101C4800900006120ABB1207BCFFAEF090C40BE06E
:101C5800FBA3E0FAA3E0F99000091207E7FDC3EF40
:101C68009DEE95F0400C900006120ABBE4F5F012C8
:101C7800085790C413E004F0700690C412E004F012
:101C8800021BD590BF15E0FEA3E0FF7B017ABF7968
:101C980018A3E0FD90C27EE4F0A3EDF0123CE990B9
:101CA800BF17E025E0240490BF13F07F012290C401
:101CB8000BE0FBA3E0FAA3E0F9900006120ABBE4EC
:101CC80075F00112081F90C40BE0FBA3E0FAA3E033
:101CD800F9900006120ABB1207BCFFAEF090C40BC5
:101CE800E0FBA3E0FAA3E0F99000091207E7FDC3BF
:101CF800EF9DEE95F04057804990C40BE0FBA3E0C0
:101D0800FAA3E0F9900006120ABBE475F001120884
:101D18001F90C40BE0FBA3E0FAA3E0F990000612C1
:101D28000ABB1207BCFFAEF090C40BE0FBA3E0FABD
:101D3800A3E0F99000091207E7FDC3EF9DEE95F0C7
:101D4800400C900006120ABBE4F5F01208577F0019
:011D58002268
:104C8B0090BA25E0FF90BA24E06F7003024D2475B3
:104C9B00F00DEFA42425F582E5F034A0F583E0FCBC
:104CAB00A3E0FDA3E0FEA3E0FFE47B23FAF9F8C346
:104CBB001209DB705E90BA25E075F00DA42424F583
:104CCB0082E5F034A0F583E0540FFFE4FEEEC39FC2
:104CDB00504190BA25E075F00DA42429F582E5F03A
:104CEB0034A0F583E5822EF582E43583F583E0FD70
:104CFB0090BF0DE0FAA3E0240DF58274BE3AF58364
:104D0B00EDF090BF0EE004F0700690BF0DE004F0E4
:104D1B000E80BA90BA25E004F0126E37EF64017082
:104D2B004190BF13E02403FDE433FC7B017ABF7990
:104D3B0011E4FF124215E490C3D7F090BF13E024A7
:104D4B0003FEE43390C3D8F0A3CEF0A37401F0A319
:104D5B0074BFF0A37411F07F237E007D007C0012E2
:104D6B0036877B017ABD79F712181DBF011590BFED
:104D7B0013E02403FDE433FC7B017ABF7911E4FFDC
:104D8B001242157B017ABE790212181DBF012CE469
:104D9B0090C3D7F090BF13E02403FEE43390C3D845
:104DAB00F0A3CEF0A37401F0A374BFF0A37411F0C1
:0B4DBB007F247E007D007C0012368704
:014DC60022CA
:107CE900FF988103FF988104FF988101FF98810023
:037CF90035112919
:0278BC00C10900
:10645000E490C482F0A3F0A374B0F0A374FAF0C285
:1064600090C2947F057E00127C10E490C486F09068
:10647000C484E0A330E704D2928002C292C2937F28
:10648000057E00127C10D2937F057E00127C109056
:10649000C485E025E0F090C484E033F090C486E049
:1064A00004F0E0C3941040C7D2947F057E00127CB4
:1064B00010E490C486F0C2937F057E00127C10D257
:1064C000937F057E00127C1090C483E025E0F0905D
:1064D000C482E033F0309107E0F0A3E04401F09093
:1064E000C486E004F0E0C3941040CBD2907F057ED8
:0C64F00000127C1090C482E0FEA3E0FFCC
:0164FC00227D
:1063A100E490C487F0A3F0EFFF74FAA3CFF0A3EF5A
:1063B100F0C290C2947F057E00127C10E490C48BE1
:1063C100F090C489E0A330E704D2928002C292C265
:1063D100937F057E00127C10D2937F057E00127C94
:1063E1001090C48AE025E0F090C489E033F090C4B5
:1063F1008BE004F0E0C3941040C7D2947F057E0087
:10640100127C10E490C48BF0C2937F057E00127C55
:1064110010D2937F057E00127C1090C488E025E0A5
:10642100F090C487E033F0309107E0F0A3E044013D
:10643100F090C48BE004F0E0C3941040CBD2907F85
:0E644100057E00127C1090C487E0FEA3E0FFF1
:01644F00222A
:1074670090C256EFF0C290C2947F057E00127C1046
:10747700E490C255F090C256E030E704D292800201
:10748700C292C2937F057E00127C10D2937F057E45
:1074970000127C1090C256E025E0F090C255E0043F
:1074A700F0E0C3940840CED2907F057E00027C10A6
:055CBA00E4FDFC7FB8D1
:105CBF0090C256EFF0ECA3F0A3EDF0C290C2947F28
:105CCF00057E00127C10E490C255F090C256E03071
:105CDF00E704D2928002C292C2937F057E00127CAB
:105CEF0010D2937F057E00127C1090C256E025E003
:105CFF00F090C255E004F0E0C3940840CED2947FF8
:105D0F00057E00127C10E490C255F090C258E0302E
:105D1F00E704D2928002C292C2937F057E00127C6A
:105D2F0010D2937F057E00127C1090C258E025E0C0
:105D3F00F090C255E004F0E0C3940840CEE490C266
:105D4F0055F090C257E030E704D2928002C292C25F
:105D5F00937F057E00127C10D2937F057E00127C0C
:105D6F001090C257E025E0F090C255E004F0E0C378
:0D5D7F00940840CED2907F057E00027C107B
:066655007BFF7D047C00C8
:0B665B0090C24CEBF0A3EAF0A3E9F0C2
:10666600AE04AF05A3EEF0A3EFF07FBC125CBF90C3
:10667600C24FE0FCA3E0FD7FBE125CBF7FBF127479
:1066860067C290D2947F057E00127C1090C24F7430
:10669600FFF5F01207A645F0605190C24CE0FBA34F
:1066A600E475F0011207A6A9F0FA1206D190C252BB
:1066B600F0E490C251F090C251E0C3940850CDA3CB
:1066C600E030E704D2928002C292C2937F057E0038
:1066D600127C10D2937F057E00127C1090C252E08D
:1066E60025E0F090C251E004F080CBD2907F057E89
:0466F60000027C1012
:1065A90090C2527401F0A374C2F0A37450F090C267
:1065B90050EFF0A3EDF090C24CE4F0A37402F0FDAB
:1065C9007C007FBC125CBF90C24CE0FCA3E0FD7F65
:1065D900BE125CBF7FBF127467C290D2947F0F7ED8
:1065E90000127C1090C24C74FFF5F01207A645F01A
:1065F900605190C252E0FBA3E475F0011207A6A90D
:10660900F0FA1206D190C24FF0E490C24EF090C257
:106619004EE0C3940850CDA3E030E704D292800243
:10662900C292C2937F0F7E00127C10D2937F0F7E9D
:1066390000127C1090C24FE025E0F090C24EE004B9
:0C664900F080CBD2907F0F7E00027C100E
:10129D007A7C79E9126655E4FD7F011265A9E4FDBA
:1012AD007F021265A97D577F031265A97DD37F0447
:1012BD001265A9E4FD7F051265A97D117F061265F2
:1012CD00A97D087F071265A9E4FD7F081265A9E4D1
:1012DD00FD7F091265A97D3F7F0A1265A9E4FD7F97
:1012ED000B1265A9E4FD7F0C1265A9E4FD7F0D12BB
:1012FD0065A9E4FD7F0E1265A97D3F7F0F1265A9DB
:10130D007D3F7F101265A9E4FD7F111265A9E4FDF3
:10131D007F121265A9E4FD7F131265A9E4FD7F1408
:10132D001265A9E4FD7F151265A9E4FD7F1612650E
:10133D00A9E4FD7F171265A9E4FD7F181265A9E4E4
:10134D00FD7F191265A9E4FD7F1A1265A9E4FD7FE1
:10135D001B1265A9E4FD7F1C1265A9E4FD7F1D121A
:10136D0065A97D407F1E1265A97D807F1F1265A92D
:10137D007D067F201265A97D017F211265A9E4FDFF
:10138D007F221265A9E4FD7F231265A9E4FD7F2468
:10139D001265A9E4FD7F251265A9E4FD7F2612657E
:1013AD00A9E4FD7F271265A97D337F281265A97DEC
:1013BD00337F291265A9E4FD7F2A1265A9E4FD7F1B
:1013CD002B1265A9E4FD7F2C1265A9E4FD7F2D127A
:1013DD0065A9E4FD7F2E1265A9E4FD7F2F1265A995
:1013ED00E4FD7F301265A9E4FD7F311265A9E4FDAE
:1013FD007F321265A9E4FD7F331265A9E4FD7F34C8
:10140D001265A9E4FD7F351265A9E4FD7F361265ED
:10141D00A9E4FD7F371265A97D787F381265A9E4AF
:10142D00FD7F391265A9E4FD7F3A1265A9E4FD7FC0
:10143D003B1265A9E4FD7F3C1265A9E4FD7F3D12D9
:10144D0065A9E4FD7F3E1265A9E4FD7F3F1265A904
:10145D00E4FD7F401265A9E4FD7F411265A9E4FD1D
:10146D007F421265A9E4FD7F431265A9E4FD7F4427
:10147D001265A9E4FD7F501265A97D237F51126588
:10148D00A97D457F521265A97D677F531265A97DA0
:10149D00897F541265A97DAB7F551265A97D017FAA
:1014AD00561265A97D237F571265A97D457F581278
:1014BD0065A97D677F591265A97D897F5A1265A936
:1014CD007DAB7F5B1265A97DCD7F5C1265A97DEF3C
:1014DD007F5D1265A9E4FD7F5E1265A97D0D7F5FBD
:1014ED001265A97D0D7F601265A97D0C7F61126566
:1014FD00A97D0C7F621265A97D0F7F631265A97DA1
:10150D000F7F641265A97D0E7F651265A97D0E7F23
:10151D00661265A97D087F671265A97D027F681235
:10152D0065A97D027F691265A97D027F6A1265A991
:10153D007D027F6B1265A97D027F6C1265A97D020C
:10154D007F6D1265A97D027F6E1265A97D027F6F89
:10155D001265A97D147F701265A97D157F711265C5
:10156D00A97D067F721265A97D027F731265A97D23
:10157D00027F741265A97D0D7F751265A97D0D7FA2
:10158D00761265A97D0C7F771265A97D0C7F781287
:10159D0065A97D0F7F791265A97D0F7F7A1265A9E7
:1015AD007D0E7F7B1265A97D0E7F7C1265A97D085E
:1015BD007F7D1265A97D027F7E1265A97D027F7FE9
:1015CD001265A97D027F801265A97D027F8112655A
:1015DD00A97D027F821265A97D027F831265A97D97
:1015ED00027F841265A97D027F851265A97D147F16
:1015FD00861265A97D157F871265A97D067F8812E4
:10160D0065A97D027F891265A97D027F8A1265A970
:10161D007A7C79ED1266557D3B7F6E1265A97D57FB
:10162D007F6F1265A97D247F3A1265A97D1F7F8D7D
:10163D001265A97DBA7F871265A97DD17FB212652A
:10164D00A97D0B7F881265A97D017F381265A9E4FC
:10165D00FD7F391265A97D077FB51265A97D757F5F
:10166D00311265A97D987F3B1265A97BFF7A7C7944
:10167D00F11266577D0A7F221265A97D097F31120D
:10168D0065A97D077F351265A97D677F531265A911
:10169D007D847F551265A97D867F501265A97D8257
:1016AD007F511265A97D107F601265A9E4FD7F62EF
:1016BD001265A9E4FD7FA01265A97D127FA11265B7
:1016CD00A97D1F7FA21265A97D127FA31265A97D39
:1016DD00167FA41265A97D297FA51265A97D1E7FA0
:1016ED00A61265A97D1F7FA71265A97D7E7FA81211
:1016FD0065A97D1B7FA91265A97D287FAA1265A901
:10170D007D6D7FAB1265A97D197FAC1265A97D1822
:10171D007FAD1265A97D4C7FAE1265A97D1E7FAF91
:10172D001265A97D237FB01265A97D527FB1126527
:10173D00A97D6D7FB21265A97D3F7FB31265A9E4C6
:10174D00FD7FC01265A97D127FC11265A97D207F25
:10175D00C21265A97D107FC31265A97D137FC412C6
:10176D0065A97D277FC51265A97D1B7FC61265A959
:10177D007D1D7FC71265A97D757FC81265A97D1F67
:10178D007FC91265A97D287FCA1265A97D687FCBA7
:10179D001265A97D1A7FCC1265A97D187FCD1265C2
:1017AD00A97D4D7FCE1265A97D257FCF1265A97DBF
:1017BD002E7FD01265A97D537FD11265A97D607FE3
:1017CD00D21265A97D3F7FD31265A97BFF7A7C7903
:1017DD00F51266577BFF7A7C79F97D017C001266E4
:1017ED005B7F8C7E001276327BFF7A7C79FA7D01ED
:1017FD007C0012665B7F787E001276327BFF7A7CEE
:10180D0079FB7D017C0012665B7FAA7E0002763239
:1078E9007D067C087FB1125CBF7D227C187FB212B5
:1078F9005CBF7D127C687FB3125CBF7D207C037FF7
:0D790900B4125CBF7D007C057FB5025CBF41
:1056CA007D507C007FB7125CBF125CBAE4FDFC7FA0
:1056DA00B9125CBF7D0A7C807FBA125CBF7D067CF2
:1056EA00007FBB125CBF7D017C007FB9125CBFE406
:1056FA00FDFC7FDE125CBF7D027C237FC9125CBF8A
:10570A007F0A7E0012763212129D7D517C017FB78C
:10571A00125CBF125CBAE4FDFC7FB9125CBF7D1556
:10572A007C807FBA125CBF7D057C007FBB125CBFA8
:10573A007D017C007FB9125CBF7D027C237FC91288
:10574A005CBF7F0A7E001276327D017C237FCA12FB
:10575A005CBF7D107C057FCB125CBF7D057C107F12
:10576A00CC125CBF7DFF7C007FD0125CBF1278E94F
:10577A007DD37C007FB6125CBF7D037C007FDE1286
:10578A005CBF7D047C007FD6125CBF7D4B7C027FB0
:0E579A00B7125CBF7F3C7E00127632D209222D
:106D2E0000252E3166730025302E30667300253017
:106D3E002E30666D730025302E30664100252E31C3
:106D4E0066730D0A00252E3066730D0A00252E304F
:106D5E00666D730D0A00252E3066410D0A00050082
:106D6E0003200D64008003FFFFDF000030370000BA
:106D7E000003000003C00000003C00000C000000F7
:106D8E00300000F00000000FC000030000006D2E68
:106D9E006D2F6D356D3C6D446D2E6D4B6D536D5B72
:066DAE006D64FFFB01050E
:1078BE00024300960248001801455A0246028A0108
:0678CE004A000241FFE048
:0C79B60090C2557401F0A3745EF07D05D2
:1079C200AF05EC8FF012085790C255E0FFA3E0908C
:0879D2000002CF8FF0020876DD
:105A360090C25DE0FAA3E02FFBEA3EFA90C25FE077
:105A4600F8A3E02FFFE83E90C274F0A3EFF090C2F7
:0E5A56005BE090C276F090C25DE0FEA3E0FF40
:105A640090C26EEEF0A3EFF0A3ECF0A3EDF090BAC9
:105A740049E0D394304003025B0C90C276E0FF907F
:105A8400BA49E0FE75F009A42457F582E5F034BB69
:105A9400F583EFF090C26EE0FCA3E0FD75F009EE33
:105AA400A42458F582E5F034BBF583ECF0A3EDF0C3
:105AB40090C270E0FEA3E0FF90BA49E0FD75F009E2
:105AC400A4245AF582E5F034BBF583EEF0A3EFF09D
:105AD400AF0375F009EDA4245CF582E5F034BBF561
:105AE40083EAF0A3EFF090C274E0FEA3E0FF75F048
:105AF40009EDA4245EF582E5F034BBF583EEF0A352
:095B0400EFF090BA49E004F02230
:105BE40090C265E0FAA3E0FBFFAE02C006C00790D6
:105BF400C26AE025E0FF90C269E033FEC390C26848
:105C0400E09FFD90C267E09EFCEB784426FBEA1817
:105C140036FAE0FFA3E090C274CFF0A3EFF0E4A360
:105C2400F0A3F090C269A3E090C278F025E0A3F05D
:105C3400A3E4F0A37443F090C26BE0FFA3E090C22E
:105C44007CCFF0A3EFF0D007D00612541490C26DAD
:105C5400E0FD25E0244AF582E434BAF583EEF0A3AE
:105C6400EFF0EDFF7E001243C890C265E0FAA3E0B6
:105C7400FBFFAE02C006C00790C26AE025E0FF90B9
:105C8400C269E033FEC390C268E09FFD90C267E042
:105C94009EFCEB784426FBEA1836FAE0FFA3E0907A
:105CA400C274CFF0A3EFF090C26DE090C276F0D052
:065CB40007D006025A644D
:106C1F0078577CC27D017E007F041206AB785B7CC7
:106C2F00C27D017B017AC279577E007F041206ABC9
:106C3F0090C25BE0FEA3E0FF7845E6FDC390C25E25
:106C4F00E09DFD90C25DE09400FC127A07785F7CB6
:106C5F00C27D017E007F041206AB90C25DE0FCA3F3
:106C6F00E0FDA3E0FAA3E0FBA3E0FFA3E090C26B7B
:106C7F00CFF0A3EFF0906D70E49390C26DF0A3741A
:106C8F0007F0A374E0F090C25BE0FEA3E0FF123EBA
:076C9F00A97B017AC2795FB5
:016CA60022CB
:106CA70078577CC27D017E007F041206AB785B7C3F
:106CB700C27D017B017AC279577E007F041206AB41
:106CC70090C25BE0FEA3E0FF7845E6FD90C25EE080
:106CD7002DFD90C25DE03400FC127A07785F7CC21C
:106CE7007D017E007F041206AB90C25DE0FCA3E04D
:106CF700FDA3E0FAA3E0FBA3E0FFA3E090C26BCF04
:106D0700F0A3EFF0906D70E49390C26DF0A3740759
:106D1700F0A374E0F090C25BE0FEA3E0FF123EA98F
:066D27007B017AC2795FD6
:016D2D002243
:105FF6007843E6FE08E6FF90C25CE02FFF90C25BA6
:10600600E03EFE90C25DE0FCA3E0FD127A07785FF9
:106016007CC27D017E007F041206AB90C25DE0FC6F
:10602600A3E0FDA3E0FAA3E0FBA3E0FFA3E090C298
:106036006BCFF0A3EFF0906D70E49390C26DF0A378
:106046007407F0A374E0F090C25BE0FEA3E0FF12D9
:106056003EA990C25BE0FAA3E0FBFFAE0290C26BE2
:106066007402F0A3748AF0A37405F0A374DEF0A39F
:1060760074DBF07D3A7C02123EA990C25BE0FEA37F
:10608600E0FF7846E6FC08E6FD127A0778657CC2F2
:106096007D017E007F041206AB90C269E4F0A37412
:1060A60024F0A37407F0A374FFF0A3741AF0125B34
:0760B600E47B017AC2795F6F
:0160BD0022C0
:104EF00078577CC27D017E007F041206AB785B7C14
:104F0000C27D017B017AC279577E007F041206AB15
:104F10007843E6FE08E6FF90C25CE02FFF90C25B9C
:104F2000E03EFE90C25DE0FCA3E0FD127A07785FF0
:104F30007CC27D017E007F041206AB90C25DE0FC66
:104F4000A3E0FDA3E0FAA3E0FBA3E0FFA3E090C28F
:104F50006BCFF0A3EFF0906D70E49390C26DF0A36F
:104F60007407F0A374E0F090C25BE0FEA3E0FF12D0
:104F70003EA990C25BE0FAA3E0FBFFAE0290C26BD9
:104F80007402F0A3748AF0A37405F0A374DEF0A396
:104F900074DBF07D3A7C02123EA978657CC27D010B
:104FA0007B017AC2795B7E007F041206AB7848E60B
:104FB000FF08E690C269CFF0A3EFF0A374FFF0A35F
:104FC00074E0F0A3741BF0125BE490C25BE0FEA3FC
:104FD000E0FF7846E6FC08E6FD127A0778657CC2B9
:104FE0007D017E007F041206AB90C269E4F0A374D9
:104FF00024F0A37407F0A374FFF0A3741CF0125BF9
:07500000E47B017AC2795F35
:015007002286
:105884007843E6FE08E6FF90C25CE02FFF90C25B1F
:10589400E03EFE08E6FDC390C25EE09DFD90C25D61
:1058A400E09400FC127A07785F7CC27D017E007F61
:1058B400041206AB90C25EE024FFFD90C25DE034AA
:1058C400FFFC90C25FE0FAA3E0FBA3E0FFA3E0903B
:1058D400C26BCFF0A3EFF0906D70E49390C26DF0C3
:1058E400A37407F0A374E0F090C25BE0FEA3E0FFB2
:1058F400123EA990C25BE0FAA3E0FBFFAE0290C2A5
:105904006B7402F0A3748AF0A37405F0A374DEF040
:10591400A374DBF07D3A7C02123EA990C25BE0FEE8
:10592400A3E0FF7846E6FC08E6FD127A0778657C7A
:10593400C27D017E007F041206AB90C269E4F0A32D
:105944007424F0A37407F0A374FFF0A3741DF01281
:085954005BE47B017AC2795F7C
:01595C002228
:10470B0078577CC27D017E007F041206AB785B7C00
:10471B00C27D017B017AC279577E007F041206AB02
:10472B00906D70E493C313FF90C263E4F0A3EFF0BA
:10473B007843E6FE08E6FF90C25CE02FFF90C25B79
:10474B00E03EFE90C25DE0FCA3E0FD127A07785FCD
:10475B007CC27D017E007F041206AB90C25DE0FC43
:10476B00A3E0FDA3E0FAA3E0FBA3E0FFA3E090C26C
:10477B006BCFF0A3EFF0906D70E49390C26DF0A34C
:10478B007407F0A374E0F090C25BE0FEA3E0FF12AD
:10479B003EA990C25BE0FAA3E0FBFFAE0290C26BB6
:1047AB007402F0A3748AF0A37405F0A374DEF0A373
:1047BB0074DBF07D3A7C02123EA9E53F5420FEEEFD
:1047CB00603790C25BE0FEA3E0FF7846E6FC08E6AC
:1047DB00FD127A0778657CC27D017E007F0412068C
:1047EB00AB90C269E4F0A3741EF0A37407F0A3743A
:1047FB00FFF0A3741FF0125BE478657CC27D017B34
:10480B00017AC2795B7E007F041206AB7848E6FF23
:10481B0008E690C269CFF0A3EFF0A374F8F0A3748D
:10482B001FF0A314F0125BE4E53F5401FEE4FCEE31
:10483B0060577849E625E0FF18E633FE90C25EE04C
:10484B002FFF90C25DE03EFE906D70E493C3132F7B
:10485B00FDEC3EFC90C25BE0FEA3E0FF127A077812
:10486B00657CC27D017E007F041206AB7848E6FFB3
:10487B0008E690C269CFF0A3EFF0A374FFF0A37426
:0F488B00E0F0A37429F0125BE47B017AC2795F3D
:01489A0022FB
:1050080078577CC27D017E007F041206AB785B7CFA
:10501800C27D017B017AC279577E007F041206ABFC
:105028007843E6FE08E6FF90C25CE02FFF90C25B83
:10503800E03EFE90C25DE0FCA3E0FD127A07785FD7
:105048007CC27D017E007F041206AB90C25DE0FC4D
:10505800A3E0FDA3E0FAA3E0FBA3E0FFA3E090C276
:105068006BCFF0A3EFF0906D70E49390C26DF0A356
:105078007407F0A374E0F090C25BE0FEA3E0FF12B7
:105088003EA990C25BE0FAA3E0FBFFAE0290C26BC0
:105098007402F0A3748AF0A37405F0A374DEF0A37D
:1050A80074DBF07D3A7C02123EA990C25BE0FEA35D
:1050B800E0FF7846E6FC08E6FD127A0778657CC2D0
:1050C8007D017E007F041206AB90C269E4F0A374F0
:1050D8001EF0A37407F0A374FFF0A37421F0125B11
:1050E800E478657CC27D017B017AC2795B7E007FB2
:1050F800041206AB7848E6FF08E690C269CFF0A331
:10510800EFF0A374FFF0A374E0F0A37420F0125B37
:07511800E47B017AC2795F1C
:01511F00226D
:0B5502007AC279577E007F041206ABCE
:10550D007843E6FE08E6FF90C25CE02FFF90C25B99
:10551D00E03EFE08E6FD90C25EE02DFD90C25DE02E
:10552D003400FC127A07785F7CC27D017E007F0417
:10553D001206AB90C25CE02401FF90C25BE0340028
:10554D00FEC00790C25DE0FCA3E0FDA3E0FAA3E07E
:10555D00FBA3E0FFA3E090C26BCFF0A3EFF0906D43
:10556D0070E49390C26DF0A37407F0A374E0F0D0D3
:10557D0007123EA990C25BE0FAA3E0FBFFAE0290DA
:10558D00C26B7402F0A3748AF0A37405F0A374DEE9
:10559D00F0A374DBF07D3A7C02123EA990C25BE071
:1055AD00FEA3E0FF7846E6FC08E6FD127A07786573
:1055BD007CC27D017E007F041206AB90C269E4F0CF
:1055CD00A37424F0A37407F0A374FFF0A37424F064
:0955DD00125BE47B017AC2795FE4
:0155E60022A2
:10531C007843E6FE08E6FF90C25CE02FFF90C25B8C
:10532C00E03EFE90C25DE0FCA3E0FD127A07785FE0
:10533C007CC27D017E007F041206AB90C25DE0FC56
:10534C00A3E0FDA3E0FAA3E0FBA3E0FFA3E090C27F
:10535C006BCFF0A3EFF0906D70E49390C26DF0A35F
:10536C007407F0A374E0F090C25BE0FEA3E0FF12C0
:10537C003EA990C25BE0FAA3E0FBFFAE0290C26BC9
:10538C007402F0A3748AF0A37405F0A374DEF0A386
:10539C0074DBF07D3A7C02123EA990C25BE0FEA366
:1053AC00E0FF7846E6FC08E6FD127A0778657CC2D9
:1053BC007D017E007F041206AB90C269E4F0A374F9
:1053CC0024F0A37407F0A374FFF0A37426F0125B0F
:1053DC00E478657CC27D017B017AC2795B7E007FBB
:1053EC00041206AB7848E6FF08E690C269CFF0A33A
:1053FC00EFF0A374FFF0A374E0F0A37425F0125B3C
:07540C00E47B017AC2795F25
:015413002276
:1060BE007843E6FE08E6FF90C25CE02FFF90C25BDD
:1060CE00E03EFE90C25DE0FCA3E0FD127A07785F31
:1060DE007CC27D017E007F041206AB90C25DE0FCA7
:1060EE00A3E0FDA3E0FAA3E0FBA3E0FFA3E090C2D0
:1060FE006BCFF0A3EFF0906D70E49390C26DF0A3B0
:10610E007407F0A374E0F090C25BE0FEA3E0FF1210
:10611E003EA990C25BE0FAA3E0FBFFAE0290C26B19
:10612E007402F0A3748AF0A37405F0A374DEF0A3D6
:10613E0074DBF07D3A7C02123EA990C25BE0FEA3B6
:10614E00E0FF7846E6FC08E6FD127A0778657CC229
:10615E007D017E007F041206AB90C269E4F0A37449
:10616E0024F0A37407F0A374FFF0A37427F0125B5E
:07617E00E47B017AC2795FA6
:0161850022F7
:105B0D007843E6FE08E6FF90C25CE02FFF90C25B93
:105B1D00E03EFE08E6FDC390C25EE09DFD90C25DD5
:105B2D00E09400FC127A07785F7CC27D017E007FD5
:105B3D00041206AB90C25DE0FCA3E0FDA3E0FAA366
:105B4D00E0FBA3E0FFA3E090C26BCFF0A3EFF090DA
:105B5D006D70E49390C26DF0A37407F0A374E0F040
:105B6D0090C25BE0FEA3E0FF123EA990C25BE0FA9B
:105B7D00A3E0FBFFAE0290C26B7402F0A3748AF037
:105B8D00A37405F0A374DEF0A374DBF07D3A7C0200
:105B9D00123EA990C25BE0FEA3E0FF90C261E0FC63
:105BAD00A3E0FD127A0778657CC27D017E007F043B
:105BBD001206AB7848E6FF08E690C269CFF0A3EF76
:105BCD00F0A374FFF0A374E0F0A37428F0125BE46B
:065BDD007B017AC2795F32
:015BE300229F
:0538FE00E490BA49F05E
:1039030090C25DF0A3F0906D7293FE740193FFC3B8
:1039130074209F90C260F074039E90C25FF0AF402A
:10392300AE3FAD3EAC3D90C261120A32E490C25C40
:10393300F090C25BF0E4FFFEFDFC90C261E0F8A3EF
:10394300E0F9A3E0FAA3E0FBC31209DB7003023A38
:103953003390C261A3A3A3E05401FFEF7003023AC3
:103963001190C25FE0FCA3E0FD906D72E493FE74DE
:103973000193FF90C25DE0FAA3E02FFBEA3EFA90C9
:10398300C25FE0F8A3E02FFFE83E90C274F0A3EF1C
:10399300F090C25C125A5790C25BE025E02429F5EF
:1039A30082E434BAF583E0FEA3E0FF90C25CE0FD5D
:1039B3007C00127AC090C25BE025E02429F582E402
:1039C30034BAF583E0FEA3E0FFC006C00790C25DF2
:1039D300E0FEA3E0FFA3E0FCA3E0FD127A07787208
:1039E3007CC27D017E007F041206ABD007D0061295
:1039F3007C3E906D72E493FE740193FF90C25EE08F
:103A03002FF090C25DE03EF090C25BE004F090C204
:103A130061E0FCA3E0FDA3E0FEA3E0FF780112094F
:103A2300EC90C261120A3290C25CE004F0023938B1
:103A330090C25FE0FCA3E0FD906D72E493FE74011D
:103A430093FF125A36906D72E493FE740193FF90C4
:103A5300C25EE02FF090C25DE03EF090C25FE0FCFA
:103A6300A3E0FD125A3690C25BE025E02429F582DB
:103A7300E434BAF583E0FEA3E0FFE4FDFC127AC070
:103A830090C25BE025E02429F582E434BAF583E0B3
:103A9300FEA3E0FFC006C00790C25DE0FEA3E0FF07
:103AA300A3E0FCA3E0FD127A0778727CC27D017E5D
:103AB300007F041206ABD007D006127C3EE490C20E
:103AC3005BF0E490C274F0A3F0A3F0FBFAFDFCFFFB
:103AD300FE125A6490C25BE004F0E0C3940640E235
:0E3AE30090BB0074FFF0A3740BF0A3748CF082
:013AF10022B2
:050B8C0090C265EFF0CE
:100B9100A3120A3E0000000090C26A740AF090C2DB
:100BA1006AE0FFC394105070EF25E02429F582E438
:100BB10034BAF583E0FEA3E0FF74FFFDFC127AC0B6
:100BC10090C26AE0FF75F009A42458F582E5F0347B
:100BD100BBF583E4F0A3F075F009EFA4245AF58284
:100BE100E5F034BBF583E4F0A3F075F009EFA4243C
:100BF1005CF582E5F034BBF583E4F0A3F075F00910
:100C0100EFA4245EF582E5F034BBF583E4F0A3F0B4
:100C110090C26AE004F0808690C265E0C394084007
:100C210003020ECCE490C26AF090C26AE0FBC39466
:100C310008400302129CE47F01FEFDFC90C265E0C6
:100C410075F009A42457F582E5F034BBF583E0F98A
:100C5100F81209FFEB25E025E0247CF582E4346DF0
:100C6100F583120A22EB5FFFEA5EFEE95DFDE85CB7
:100C7100FC4D4E4F7003020EC390C26AE025E02581
:100C8100E0247CF582E4346DF583120A12784AE699
:100C910025E025E02474F582E4346DF583120A22FF
:100CA100EB5FFFEA5EFEE95DFDE85CFC90C2661267
:100CB1000A3290C266E0F8A3E0F9A3E0FAA3E0FBF0
:100CC100C000C001E47F01FEFDFC90C265E075F04B
:100CD10009A42457F582E5F034BBF583E0F9F81255
:100CE10009FF1209C0D001D000EB5FFFEA5EFEE907
:100CF1005DFDE85CFC90C266120A32E4FFFEFDFC79
:100D010090C266E0F8A3E0F9A3E0FAA3E0FBC31206
:100D110009DB700302129CE490C26BF090C26A740A
:100D21000AF090C265E0FF7E00906D72E493FA7460
:100D31000193FBFDAC0212072990C26CEEF0A3EF08
:100D4100F0EB25E0FFEA33FEC374209F90C26FF001
:100D510074039E90C26EF0E4FFFEFDFC90C266E05B
:100D6100F8A3E0F9A3E0FAA3E0FBC31209DB7003E7
:100D710002129C90C266A3A3A3E05401FFEF70038B
:100D8100020EA1A3E025E02429F582E434BAF5831B
:100D9100E0FEA3E0FFC006C00790C26CE0FEA3E046
:100DA100FFA3E0FCA3E0FD127A0778727CC27D010B
:100DB1007E007F041206ABD007D006127C3E90C2A3
:100DC1006AE025E02429F582E434BAF583E0FEA344
:100DD100E0FF90C26BE0FD7C00127AC090C26CE033
:100DE100FEA3E0FF90C26AE0FD75F009A42458F566
:100DF10082E5F034BBF583EEF0A3EFF090C26EE034
:100E0100FAA3E0FB75F009EDA4245AF582E5F0346C
:100E1100BBF583EAF0A3EBF0906D72E493FC7401EF
:100E210093FDEF2DFFEE3CFE90C26AE0FD75F009E7
:100E3100A4245CF582E5F034BBF583EEF0A3EFF07A
:100E4100906D72E493FE740193FF90C26FE02FFFE7
:100E510090C26EE03EFE75F009EDA4245EF582E5D8
:100E6100F034BBF583EEF0A3EFF090C26BE0FF909E
:100E7100C26AE075F009A42457F582E5F034BBF5A8
:100E810083EFF0906D72E493FE740193FFC390C2FF
:100E91006FE09FF090C26EE09EF090C26AE004F0B5
:100EA10090C266E0FCA3E0FDA3E0FEA3E0FF7801B1
:100EB1001209EC90C266120A3290C26BE004F00291
:100EC1000D5890C26AE004F0020C2A90C265E0FF5E
:100ED100D3940F401475F009EFA42457F582E5F07F
:100EE10034BBF583E0FF026951E490C26AF090C21D
:100EF1006AE0FBC39408400302129CE47F01FEFDFB
:100F0100FC90C265E075F009A42457F582E5F03440
:100F1100BBF583E0F9F81209FFEB25E025E0247C1D
:100F2100F582E4346DF583120A22EB5FFFEA5EFE7F
:100F3100E95DFDE85CFC4D4E4F700302129390C2D7
:100F41006AE025E025E0247CF582E4346DF5831226
:100F51000A121209C0E5405FF540E53F5EF53FE545
:100F61003E5DF53EE53D5CF53DE47F01FEFDFC9017
:100F7100C265E075F009A42457F582E5F034BBF5AC
:100F810083E0F9F81209FFE5404FF540E53F4EF5E2
:100F91003FE53E4DF53EE53D4CF53DE9FF7E00E484
:100FA100FD12228290C265E075F009A42457F582F2
:100FB100E5F034BBF583E014601B24FB24FD504BAA
:100FC100600D24FD6045146042240D70418000E4F1
:100FD100784AF68036784A7601E5405408FFE4FE07
:100FE100FDFCEF6024E54054F7F540E53FF53FE5B2
:100FF1003EF53EE53DF53DE5404420F540E53FF554
:101001003FE53EF53EE53DF53D8000122C0E784A68
:10101100E625E025E02474F582E4346DF583120AB7
:1010210012EF5540FFEE553FFEED553EFDEC553DAF
:10103100FC90C266120A32E5405410FFE4FEFDFC4A
:10104100EF7008E5405420FFEF602990C266E0F898
:10105100A3E0F9A3E0FAA3E0FB906D90120A12124B
:1010610009C0EB5FFFEA5EFEE95DFDE85CFC90C252
:1010710066120A32E490C26AF090C26AE0FFC39439
:10108100085020EF25E02429F582E434BAF583E005
:10109100FEA3E0FF74FFFDFC127AC090C26AE00477
:1010A100F080D6E490C26BF090C26AF090C26CF00E
:1010B100A3F0906D7293FE740193FFC374209F900F
:1010C100C26FF074039E90C26EF0E4FFFEFDFC90CF
:1010D100C266E0F8A3E0F9A3E0FAA3E0FBC31209BA
:1010E100DB700302123590C266A3A3A3E05401FF93
:1010F100EF7003021213A3E025E02429F582E43402
:10110100BAF583E0FEA3E0FFC006C00790C26CE021
:10111100FEA3E0FFA3E0FCA3E0FD127A0778727C56
:10112100C27D017E007F041206ABD007D006127C7F
:101131003E90C26AE025E02429F582E434BAF583C1
:10114100E0FEA3E0FF90C26BE0FD7C00127AC0904C
:10115100C26CE0FEA3E0FF90C26AE0FD75F009A455
:101161002458F582E5F034BBF583EEF0A3EFF0905F
:10117100C26EE0FAA3E0FB75F009EDA4245AF582F2
:10118100E5F034BBF583EAF0A3EBF0906D72E493E4
:10119100FC740193FDEF2DFFEE3CFE90C26AE0FD71
:1011A10075F009A4245CF582E5F034BBF583EEF01B
:1011B100A3EFF0906D72E493FE740193FF90C26F00
:1011C100E02FFF90C26EE03EFE75F009EDA4245EB3
:1011D100F582E5F034BBF583EEF0A3EFF090C26B3E
:1011E100E0FF90C26AE075F009A42457F582E5F0AA
:1011F10034BBF583EFF0906D72E493FE740193FFBD
:1012010090C26DE02FF090C26CE03EF090C26AE0B7
:1012110004F090C266E0FCA3E0FDA3E0FEA3E0FFC2
:1012210078011209EC90C266120A3290C26BE00496
:10123100F00210CB90C26AE0FFC3940A505D75F0D2
:1012410009EFA42458F582E5F034BBF583E4F0A35B
:10125100F075F009EFA4245AF582E5F034BBF5836B
:10126100E4F0A3F075F009EFA4245CF582E5F03415
:10127100BBF583E4F0A3F075F009EFA4245EF582D9
:10128100E5F034BBF583E4F0A3F090C26AE004F02A
:0B12910080A290C26AE004F0020EEFA1
:01129C00222F
:0843C80090C274EEF0A3EFF0C7
:1043D00078767CC27D017BFF7A6D799C7E007F0AB6
:1043E0001206AB78807CC27D017BFF7A6D79A67E58
:1043F000007F0A1206ABE490C28AF090C275E025F5
:10440000E0FF90C274E033FE74AA2FF58274BA3EC6
:10441000F583E0FCA3E0FDEC1201A890C28B120A28
:104420003290C274E0FEA3E0FFEE60030244E4EFCA
:1044300024E6B4100040030244E490444875F003BD
:10444000A4C58325F0C583730244780244DE024488
:10445000780244780244DE0244CE0244DE0244CEB6
:104460000244E40244E40244780244DE0244780256
:0844700044D60244DE0244DEE2
:10447800EF25E0FFEE33FE74AA2FF58274BA3EF5FD
:1044880083E0FEA3E0FF90C28FEEF0A3EFF0C394A9
:1044980064EE9400502490C28A7401F0A3E0FCA357
:1044A800E0FDA3E0FEA3E0FFE4FBFA7920784112E7
:1044B800010690C28B120A32802290C28B120A3EE9
:0444C800412000008F
:1044CC00800890C28A7403F0800E90C28A7402F045
:1044DC00800690C28A7404F090C28AE07003024590
:1044EC007725E02476F582E434C2F583E0FEA3E080
:1044FC00AA06F97BFF90C275E025E0FF90C274E03C
:10450C0033FE744A2FF58274BA3EF583E0FCA3E0C7
:10451C00FDC004C00590C28BE0FCA3E0FDA3E0FE4F
:10452C00A3E0FF90C296120A32D005D00412682A7A
:10453C00E53C703790C28AE025E02480F582E434B3
:10454C00C2F583E0FEA3E0AA06F97BFF90C28BE0E4
:10455C00FCA3E0FDA3E0FEA3E0FF90C296120A329A
:0B456C0090BAA4E0FCA3E0FD12682A56
:014577002221
:03227F00E4FDFE7D
:1022820090C270EEF0A3EFF0AB05EB700302238671
:10229200E025E0FF90C270E033FE74032FF58274F4
:1022A200BB3EF583E0FCA3E0FDAF03EF3395E0FE18
:1022B20012072990C271E025E0FB90C270E033FA68
:1022C20074AA2BF58274BA3AF583EE8FF012079056
:1022D20090C270E0FEA3E07802C333CE33CED8F9C9
:1022E2002409F58274BD3EF583E0FCA3E0FD74AAE7
:1022F2002BF58274BA3AF583E0FEA3E0D39DEC6439
:1023020080F8EE648098401E90C271E025E0FF9054
:10231200C270E033FE74AA2FF58274BA3EF583ECE4
:10232200F0A3EDF0805E90C270E0FCA3E0FDAE048D
:102332007802C333CE33CED8F92407F58274BD3E7A
:10234200F583E0FAA3E0FBED25E0FFEC33FE74AA8F
:102352002FF58274BA3EF583E0FEA3E0C39BEA64E4
:1023620080F8EE648098501C90C271E025E0FF90E6
:10237200C270E033FE74AA2FF58274BA3EF583EA86
:10238200F0A3EBF090C270E0FEA3E0FFEE60030268
:10239200278AEFB42A00400302278A9023A4F82850
:1023A200287302259802259802259802259802256D
:1023B200980225980226AC0226C40226E00225983D
:1023C20002270A0226FA02259802259802273C02D1
:1023D200274102274602274B02275002275A02278B
:1023E2006402277702276D02278102272B02271B0F
:1023F2000224220224A20224220224220224A20271
:1024020024A20224A20224A20224A20224A20224BE
:10241200220224A202242202249F0224A20224A233
:1024220090C270E0FCA3E0FD25E0FFEC33FE74AA4D
:102432002FF58274BA3EF583E0FFA3E090C272CF1B
:10244200F0A3EFF0EC7053ED24E4601B146024243D
:10245200F9602C24FE6034240C704290C272E0FFBA
:10246200A3E090BDB1802E90C272E0FFA3E090BDC8
:10247200B5802290C272E0FFA3E090BDB7801690B3
:10248200C272E0FFA3E090BDC5800A90C272E0FF75
:0A249200A3E090BDC9CFF0A3EFF066
:06249C0002258D02258DD2
:1024A20090C270E0FCA3E0FD25E0FFEC33FE74AACD
:1024B2002FF58274BA3EF583E0FFA3E090C272CF9B
:1024C200F0A3EFF0EC600302258DED24E5B40F00DC
:1024D200400302258D9024E575F003A4C58325F001
:1024E200C5837302251202258D02258D02251E0247
:1024F200257202253602257E02255A02256602250C
:102502008D02254202258D02258D02254E02252AA5
:1025120090C272E0FFA3E090BDB3806A90C272E005
:10252200FFA3E090BDB9805E90C272E0FFA3E0908D
:10253200BDF3805290C272E0FFA3E090BDBD804621
:1025420090C272E0FFA3E090BDC7803A90C272E0F1
:10255200FFA3E090BDCD802E90C272E0FFA3E09079
:10256200BDC1802290C272E0FFA3E090BDC380167D
:1025720090C272E0FFA3E090BDBB800A90C272E0FD
:10258200FFA3E090BDBFCFF0A3EFF090C270E0FEDA
:06259200A3E0FF0243C8B4
:1025980090BDAFE0FFA3E090C272CFF0A3EFF09040
:1025A800C270E0FEA3E0FFEE600302269CEFB40ECB
:1025B80000400302269C9025C5F828287302266A45
:1025C80002267602264602265802260F02262A02EC
:1025D800269C02269C02269C02268802269C02260D
:1025E8009C0225FC0225EF90C272E0F0A3E0540F94
:1025F800F002269C90C272E0FEA3E0540F4410FF44
:1026080090C272EE02269890C272E054F0F0A3E0F5
:10261800F090BDD7E4F0A304F090BDDEE054FDF0E7
:10262800807290C272E054F0F0A3E0F090BDD7E45D
:10263800F0A37402F090BDDEE04402F0805690C230
:1026480072E054F0FEA3E0FFEE440190C2728040B5
:1026580090C272E054F0FEA3E0FFEE440290C27212
:10266800802E90C272E0540FF0A3E0F0802690C252
:1026780072E0540FFEA3E0FFEE441090C272801087
:1026880090C272E0540FFEA3E0FFEE442090C272A5
:10269800F0A3EFF090C272E0FFA3E090BDAFCFF0DF
:0326A800A3EFF0AD
:1026AB002290BDD1E4F0A304F090BDF5E4F0A304B7
:1026BB00F090BDDEE054FBF02290BDD1E4F0A374AA
:1026CB0002F090BDF5E4F0A304F090BDDEE044040D
:1026DB00F054F7F02290BDD1E4F0A37402F090BD5A
:1026EB00F5E4F0A37402F090BDDEE04408F0229014
:1026FB00BDD3E4F0A304F090BDDEE054FEF02290D5
:10270B00BDD3E4F0A37402F090BDDEE04401F022EF
:10271B0090BDD5E4F0A304F090BDDEE054EFF022C1
:10272B0090BDD5E4F0A37402F090BDDEE04410F050
:10273B002290BDD9802690BDD9802A90BDD9802FFB
:10274B0090BDD9803490BDD9E4F0A37405F02290EC
:10275B00BDD9E4F0A37406F02290BDDBE4F0A30432
:10276B00F02290BDDBE4F0A37402F02290BDDBE419
:10277B00F0A37403F02290BDDBE4F0A37404F02209
:027CFC00AD07D2
:107CFE0090BAA2E0FEA3E0FFED906DB093FD0222DC
:017D0E0082F2
:1070FB00EF25E0FFEE33FE744A2FF58274BA3EF5AE
:10710B0083E0FEA3E0FF7B017AC27971127D0F90C1
:10711B00C271E0FCA3E0FD90C275E0FBA3E090C25E
:10712B007FCBF0A3EBF0906D72E493FA740193FBB9
:10713B00906D6EE493F8740193C39BFEE89A90C232
:10714B0081F0A3CEF0A37452F0A3748AF090BAFE30
:0C715B00E0FEA3E0FF7BDC7A00027AA0DB
:0569510090C270EFF0A0
:106956007E001270FB90C270E0FF7E0090BAA2E04B
:10696600FCA3E0FDB50705EEB5040122ED25E0FF29
:10697600EC33FE744A2FF58274BA3EF583E0FEA32B
:10698600E0FF7841E6FC08E6FD127B0090C270E06D
:1069960025E0244AF582E434BAF583E0FEA3E0FF5D
:1069A600127A3F7841A60608A60790C270E025E055
:1069B600244AF582E434BAF583E0FEA3E0FF7D1FA6
:1069C6007CF8127B0090C270E0FF90BAA2E4F0A3BC
:0C69D600EFF090C270E0FF7E001243C89A
:0169E2002292
:103373007B017ABD796F90C255E4F0A37464F07D4C
:10338300017C001279C27ABD79731279B67ABD795C
:103393007790C255E4F0A37464F07D011279C27A88
:1033A300BD797B90C255E4F0A37464F01279C27ABC
