:0B00F800FFFF4457494E5435024C5F97
:0E24CD007B0190C15AE4F0A304F07F147E005E
:1024DB0090C155EEF0A3EFF0A3EBF0A3EAF0A3E964
:0124EB00F000
:1024EC00E490C15CF0A3F0A3F0A3F0A3F0A3F0A3DD
:1024FC00F0A3F090C15AE0FAA3E0FB4A7003022665
:10250C009A90C155E0FEA3E0FFC3E49FFFE49EFE5A
:10251C00E4FCFD90C164121153AF03AE02E4FCFD68
:10252C0090C164E0F8A3E0F9A3E0FAA3E0FBC312C6
:10253C0010D7501190C164A3A3E0FFA3E090C15A3F
:10254C00CFF0A3EFF090C155E0FCA3E0FDECC3137A
:10255C00FFED1390C15CCFF0A3EFF0ED5401FFA39E
:10256C00E4F0A3EFF0C2AFE4F5F190C15CE0FCA3A2
:10257C00E0FDECF5F28DF375F40175F8AF30FCFD70
:10258C0090C15EE07002A3E0603DD2FE20FEFD90A3
:10259C00C157E0FBA3E475F001120EDDA9F0FAE5DA
:1025AC00FC120E4E90C157E0FBA3E475F001120E25
:1025BC00DDA9F0FAE5FD120E4E90C15BE024FFF0B0
:1025CC0090C15AE034FFF090C15AE0FCA3E0FDEC5E
:1025DC00C313FFED1390C160CFF0A3EFF0ED5401E6
:1025EC00FFA3E4F0A3EFF090C16074FFF5F0120EBE
:1025FC00DD45F0605BD2FE20FEFD90C157E0FBA3F1
:10260C00E475F001120EDDA9F0FAE5FA120E4E9007
:10261C00C157E0FBA3E475F001120EDDA9F0FAE559
:10262C00FB120E4E90C157E0FBA3E475F001120EA5
:10263C00DDA9F0FAE5FC120E4E90C157E0FBA3E4C5
:10264C0075F001120EDDA9F0FAE5FD120E4E809721
:10265C0090C162E07002A3E0602FD2FE20FEFD90DC
:10266C00C157E0FBA3E475F001120EDDA9F0FAE509
:10267C00FA120E4E90C157E0FBA3E475F001120E56
:0E268C00DDA9F0FAE5FB120E4EE4F5F8D2AF30
:01269A00221D
:102BC30090C17BEEF0A3EFF0A3EBF0A3EAF0A3E94F
:012BD300F011
:102BD400E490C182F0A3F0A3F0A3F0A3F0A3F090DB
:102BE400C180E07002A3E07003022D5590C17BE028
:102BF400FEA3E0FFC3E49FFFE49EFED390C181E007
:102C04009F90C180E09E4005EEF0A3EFF090C17B61
:102C1400E0FAA3E0FBEAC313FCEB13FDEB5401FF62
:102C240090C182E4F0A3EFF0C2AFE4F5F1ECF5F269
:102C3400AF058FF375F40175F88330FCFD90C18204
:102C4400E07002A3E0603D90C17DE0FBA3E475F079
:102C540001120EDDA9F0FA120E08F5FC90C17DE018
:102C6400FBA3E475F001120EDDA9F0FA120E08F5CB
:102C7400FDD2FE20FEFD90C181E024FFF090C180D2
:102C8400E034FFF090C180E0FCA3E0FDECC313FF4F
:102C9400ED1390C184CFF0A3EFF0ED5401FFA3E452
:102CA400F0A3EFF075F88F90C18474FFF5F0120E65
:102CB400DD45F0605B90C17DE0FBA3E475F001129B
:102CC4000EDDA9F0FA120E08F5FA90C17DE0FBA31F
:102CD400E475F001120EDDA9F0FA120E08F5FB906E
:102CE400C17DE0FBA3E475F001120EDDA9F0FA1238
:102CF4000E08F5FC90C17DE0FBA3E475F001120E13
:102D0400DDA9F0FA120E08F5FDD2FE30FE9980FB23
:102D140090C186E07002A3E0603275F88C90C17DAA
:102D2400E0FBA3E475F001120EDDA9F0FA120E081F
:102D3400F5FA90C17DE0FBA3E475F001120EDDA964
:102D4400F0FA120E08F5FBD2FE20FEFDE4F5F8D2EF
:012D5400AFCF
:012D5500225B
:1058ED00C2AFC2D3C2D4E4F58E75C870F5CDF5CC78
:1058FD0075CBBC75CACDD2ADD2C8F5937594017573
:10590D00950275C960F5F875F901F5A8F5B8F59A20
:07591D00F5A9F5B9025A17C4
:105A17007F007E80E4F528F5290FEFAC0670010EB4
:105A270014F5828C83E4F00529E52970020528B472
:075A370000E7E528B480E25E
:015A3E002245
:105B1B0090C2F212115F55AA5AA57B017AC279F293
:105B2B0090C180E4F0A37402F07F047E00022BC3CB
:045CA7007FF47E0107
:105CAB00EF4E6010E4FD0DEDC3941840F9EF1F703B
:045CBB00EF1E80EC6C
:015CBF0022C2
:10527F0090C283745AF0A374A5F0A3EEF0A3EFF0DD
:10528F00A3EBF0A3EDF090C282E0600A90C289E434
:10529F00F0A304F08007E490C289F0A3F07B017AB9
:1052AF00C2798390C180E4F0A37404F07FB07E00D4
:1052BF00122BC3125CA77B017AC2798390C15AE487
:1052CF00F0A304F07FB07E001224DB90C283E07065
:0152DF00E2EC
:0152E00022AB
:0557FB0090C2DEEFF09A
:105800007B017AC279DF90C15AE4F0A37402F07F81
:10581000A07E001224DB90C2DEE0A3F0A37401F0AE
:10582000E490C2E2F07B017AC279DF90C180F0A3FC
:0A5830007402F07FA07E00022BC37B
:1036EA0090C198E0FB90C2B8F090C199E0FCA3E0C9
:1036FA00FDA3E0FEA3E0FF78101210E890C2B9EF34
:10370A00F090C199E0FCA3E0FDA3E0FEA3E0FF78FE
:10371A00081210E890C2BAEFF090C199A3A3A3E0EF
:10372A0090C2BBF090C19DE0FCA3E0FDEC90C2BC4E
:10373A00F0A3EDF090C19FE0FCA3E0FDEC90C2BEC7
:10374A00F0A3EDF0EBB4A52890C1A1E0FBA3E0FA49
:10375A00A3E04A4B601A90C19DE0FEA3E0FF90C12E
:10376A00A1A3A3E0F990C180ECF0A3EDF0122BC362
:10377A007B017AC279B890C180E4F0A37404F07F27
:10378A00087E00122BC3125CA77B017AC279B8901B
:10379A00C15AE4F0A304F07F087E001224DB90C231
:1037AA00B8E070E290C198E0B45A2F90C1A1E0FB52
:1037BA00A3E0FAA3E04A4B602190C19DE0FEA3E09A
:1037CA00FF90C1A1A3A3E0F990C19FE0FDA3E090FF
:1037DA00C15ACDF0A3EDF01224DB7F327E000256EF
:0137EA0014CA
:1035C10090C28B745AF090C188E090C28CF0640173
:1035D100706790C189A3E090C28DF090C18BE0FC2F
:1035E100A3E0FDA3E0FEA3E0FF78101210E890C273
:1035F1008EEFF090C18BE0FCA3E0FDA3E0FEA3E021
:10360100FF78081210E890C28FEFF090C18BA3A34E
:10361100A3E090C290F090C18FE0FCA3E0FDEC909C
:10362100C291F0A3EDF090C191E0FCA3E0FDEC901C
:10363100C293F0A3EDF0E4803B90C188E064027096
:1036410037A3E0FCA3E0FDEC90C28DF0A3EDF09078
:10365100C18FE0FCA3E0FDEC90C28FF0A3EDF090F0
:10366100C196E0FCA3E0FDEC90C291F0A3EDF0E483
:10367100A3F0A3F0A3F0A3F07B017AC2798B90C1F0
:1036810080E4F0A37406F07FAA7E00122BC3125CC3
:10369100A77B017AC2798B90C15AE4F0A304F07F31
:1036A100AA7E001224DB90C28BE070E290C188E018
:1036B100B4012F90C193E0FBA3E0FAA3E04A4B6071
:1036C1002190C18FE0FEA3E0FF90C193A3A3E0F995
:1036D10090C191E0FDA3E090C15ACDF0A3EDF012AD
:0936E10024DB7F327E0002561446
:0F5D7A007AC379071224CD90C307E0FEA3E0FFA0
:015D890022F7
:0850410090C2D8EEF0A3EFF0DD
:10504900A3745AF0A37401F090C2D8E0FCA3E0FD68
:10505900EC90C2DCF0A3EDF07B017AC279DA90C161
:1050690080E4F0A37402F07F847E00122BC3125CEB
:10507900A77B017AC279DA90C15AE4F0A3740212CB
:1050890024D690C2D8E0FEA3E0FFA3E0B506DFA3D3
:10509900E0B507DAE490C2DAF0A3F0A3F0A3F07B5D
:1050A900017AC279DA90C180F0A37402F07F167E8A
:0450B90000022BC303
:0856140090C134EEF0A3EFF0A9
:10561C00E4A3F0A3F090C134E0FEA3E0FFC390C17B
:10562C0037E09F90C136E09E5025E4FBFA7F017E67
:10563C0000125CAB0BBB00010ABA01F1BB2CEE9063
:0F564C00C137E004F070CE90C136E004F080C6A4
:01565B00222C
:10565C00EF14601814602314602E24037039740145
:10566C00A805088002C333D8FC42B7227401A805F0
:10567C00088002C333D8FC42BC227401A805088000
:10568C0002C333D8FC42BD22AF057401A8070880C1
:08569C0002C333D8FC42BE2218
:1054E700EF1460191460251460312403703D7401B2
:1054F700A805088002C333D8FCF452B7227401A868
:1055070005088002C333D8FCF452BC227401A805F5
:10551700088002C333D8FCF452BD22AF057401A83A
:0C55270007088002C333D8FCF452BE22F7
:1049D500EF14602D14604A14606724036003024AD3
:1049E50067EB600E7401A805088002C333D8FC424A
:1049F50080227401A805088002C333D8FCF45280D4
:104A050022EB600E7401A805088002C333D8FC426E
:104A150090227401A805088002C333D8FCF4529093
:104A250022EB600E7401A805088002C333D8FC424E
:104A3500A0227401A805088002C333D8FCF452A053
:104A450022EB600E7401A805088002C333D8FC422E
:104A5500B022AF057401A807088002C333D8FCF45F
:034A650052B0222A
:1053A100EF14601A146027146034240370427401EE
:1053B100A805088002C333D8FC5580FE80347401EF
:1053C100A805088002C333D8FC5590FE80247401DF
:1053D100A805088002C333D8FC55A0FE8014AF0590
:1053E1007401A807088002C333D8FC55B0FE8002BF
:0453F100E4FEAF0621
:0153F5002295
:103CA3007B017AC279C090C15AE4F0A37404F07F17
:103CB300167E001224DB90C2C0E0645A6003023D0A
:103CC30068A3E0FFB40134A3E0FCA3E0FD90C1A925
:103CD300ECF0A3EDF090C1AFECF0A3EDF090C2C413
:103CE300E0FCA3E0FD90C1ADECF0A3EDF090C1D4F6
:103CF300ECF0A3EDF0A37401F08030EFB403269051
:103D0300C1A7E0FFA3E090C1D4CFF0A3EFF090C12F
:103D1300A5E0FFA3E090C1AFCFF0A3EFF090C1D631
:103D23007402F0800690C1D67403F090C2C2E0FF23
:103D3300A3E090C1A5CFF0A3EFF090C2C4E0FFA32E
:103D4300E090C1A7CFF0A3EFF0E490C2C0F07B01F5
:103D53007AC279C090C180F0A37402F07F167E000E
:103D6300122BC3801190C2C1E0FF64026003EF70A5
:0B3D730005E490C1D6F090C1D6E0FF3F
:013D7E002222
:0822E40090C2A3EEF0A3EFF09D
:1022EC00123CA390C2A5EFF0700690C1A4F0FF229F
:1022FC0090C2A5E0B4010F7AC179AB1224CD90C184
:10230C00A47401F0FF2290C1ABE0FEA3E0FF90C2E9
:10231C00A3E06E7003A3E06F60037F012290C1A560
:10232C00E0FEA3E0FFC390C1AAE09FFF90C1A9E02B
:10233C009E90C1D7F0A3EFF090C1D7E0FCA3E0FDD5
:10234C00FFAE04120E60EE3395E0FDFC90C2A612B7
:10235C00115390C1A7E0FEA3E0FFC390C1AEE09F74
:10236C00FF90C1ADE09E90C1D9F0A3EFF090C1D920
:10237C00E0FCA3E0FDFFAE04120E60EE3395E0FD31
:10238C00FC90C2AA12115390C2A5E064027079901D
:10239C00C1A4E06401706B7F09FEFDFC90C2AAE051
:1023AC00F8A3E0F9A3E0FAA3E0FBC31210D7501A8C
:1023BC00E47F09FEFDFC90C2A6E0F8A3E0F9A3E0DF
:1023CC00FAA3E0FBC31210D74038E47F02FEFDFCF9
:1023DC0090C2AAE0F8A3E0F9A3E0FAA3E0FB120F85
:1023EC00AD90C2A6E0F8A3E0F9A3E0FAA3E0FBD31A
:1023FC001210D790C1A450057403F0FF227404F09E
:10240C00FF2290C1A4E0FF2290C1A4E06401706E91
:10241C007F09FEFDFC90C2AAE0F8A3E0F9A3E0FA64
:10242C00A3E0FBC31210D7501AE47F09FEFDFC9009
:10243C00C2A6E0F8A3E0F9A3E0FAA3E0FBC31210F4
:10244C00D74038E47F02FEFDFC90C2AAE0F8A3E07E
:10245C00F9A3E0FAA3E0FB120FAD90C2A6E0F8A33B
:10246C00E0F9A3E0FAA3E0FBD31210D790C1A4507B
:10247C00057403F080087404F080037F022290C17D
:10248C00A4E0B4031E90C1A7E0FEA3E0FFC390C17B
:10249C00D5E09FFF90C1D4E09E90C1DDF0A3EFF09A
:1024AC007F052290C1A5E0FEA3E0FFC390C1B0E080
:1024BC009FFF90C1AFE09E90C1DBF0A3EFF07F06D1
:0124CC0022ED
:04583A000218000050
:105C3700E4F51D758911F58CF58AC28CF51AF51CEA
:0E5C4700438901758CBC758ACDD2A9D28C22FE
:03000B000250BDE3
:0D50BD00C0E0C0D075D000C000C006C00724
:1050CA00C2AFE51D6002151D758CBC758ACD051B26
:1050DA0075270074017E00A827088005C333CE33E4
:1050EA00CED8F9FFEF551C602DE52725E02408F8F6
:1050FA0008E61618700116E52725E02408F8E6FEEA
:10510A0008E64E7011AF2704A807088002C333D8F7
:0F511A00FC421AF4521C0527E527B408B6D2AFA1
:0B512900D007D006D000D0D0D0E0327C
:03002B00025D1C57
:105D1C00C0E0C2AFC2C6D2AF0519E51970020518B2
:035D2C00D0E03292
:105AB600C2AF7401A807088002C333D8FCFE421C9B
:105AC600EF25E02408F8A60408A605EEF4521AD23B
:025AD600AF22FD
:105CF200C2AF7401A807088002C333D8FCF4521C57
:055D0200521AD2AF228D
:105D2F00C2AF7401A807088002C333D8FC551AFF0D
:025D3F00D2AFE1
:015D4100223F
:0B5C5500D2B37F05125C60D2B27F0565
:105C6000EF600EE4FE0EC3EE648094B240F71F8036
:015C7000EF44
:015C71002210
:045DE00053BEF72295
:045DE40043BE082290
:105C8D00125DE4D2B3D2B27F0F125C60C2B37F0F4C
:0A5C9D00125C60C2B27F0F025C606F
:0A5B3B007F0F125934AF03125934E2
:105B4500125DE4C2B3D2B27F0F125C60D2B37F0F95
:065B5500125C60025DE03D
:0F5D8A00125DE4C2B3125C57C2B27F05025C60C7
:0D5DA800125DE4125C55C2B27F05025C6022
:105BBB00125DE0125C55E4FD30B30A7F05125C60A8
:0F5BCB000DEDB432F3C2B27F05125C60025DE4EF
:10592400125934E0FF125934125B45125C8D7F64C6
:02593400AD07BD
:10593600125DE4E4FCED30E704D2B38002C2B3EDBD
:1059460025E0FD125C57C2B27F05125C600CECB418
:0559560008E3025BBB49
:0D595B007F0F125934125C8D7F6512593494
:10596800125DE0E4FC125C57ED25E0FD30B3054420
:1059780001FD8004ED54FEFDC2B27F05125C600C8F
:06598800ECB408E1AF05DC
:01598E0022F6
:1044830012592F12595BAB07125D8A125968AA079A
:10449300125DA8125B45EB20E003024531548460B2
:1044A3000AEB547BFB12592F125B3BEB54FEFBEAE6
:1044B30030E713547FFA12592F7F10125934AF0289
:1044C300125934125B45EA4480FA12592F7F1012B5
:1044D3005934AF02125934125B45EB4484FB125931
:1044E3002F7F0F125934AF03125929E4FF125934A5
:1044F300E4FF125934E4FF1259347F801259347F98
:10450300051259347F011259347F011259347F2126
:10451300125934125B45EB547BFBEA547FFA125970
:0E4523002F7F10125934AF02125929125B3B40
:014531002267
:10473D0012592F12595B90C309EFF0125D8A12596D
:10474D0068A3EFF0125DA8125B45E04480F01259AA
:10475D002F7F10125934E0FF125934125B4590C36C
:10476D0009E04484F012592F7F0F125924E4FF12EF
:10477D005934900006120E21FF1259349000051283
:10478D000E21FF125934900004120E21FF125934DC
:10479D00900003120E21FF125934900002120E21C7
:1047AD00FF125934900001120E21FF125934120ECE
:1047BD0008FF125934125B4590C309E0547BF0A3F6
:1047CD00E0547FF012592F7F101259247F0F125988
:0C47DD003490C309E0FF125934025B4520
:1042580012592FE4FF125934125C8D7F65125934BC
:104268007B0612596874AE2BF582E434C2F583EFED
:10427800F0125D8ADBEC12596890C2AEEFF0125D65
:10428800A8125B4590C2B2E0547FF0E4FB74AE2BF9
:10429800F582E434C2F583E0FFC4540FFE90C2B641
:1042A800F0EF540FFFA3F0EE75F00AA42FFF74AEE1
:1042B8002BF582E434C2F583EFF00BEBB403CE7B2D
:1042C8000474AE2BF582E434C2F583E0FFC4540FC6
:1042D800FE90C2B6F0EF540FFFA3F0EE75F00AA4FB
:1042E8002FFF74AE2BF582E434C2F583EFF00BEBAD
:1042F800B407CEE490C2B5F07B017AC279AE90C122
:0D43080080F0A37404F07F107E00022BC330
:105D4200EF75F00A84C454F0FEEF75F00A84E5F0B2
:035D52004EFF22DF
:0F5D9900EFC4540F75F00AA4FEEF540F2EFF2233
:074AF90090C2E3EBF0AB07F4
:104B0000ED64016004EDB4021BED240CFEE433906F
:104B1000C2E4F0A3CEF0EB24FFFEE434FFA3F0A345
:104B2000CEF08012AF0590C2E4E4F0A3EFF0AF0343
:104B3000A3E4F0A3EFF090C2E5E02401FF90C2E40B
:104B4000E03400FE7C007D1A120E607D0A120E72A7
:104B5000AC06AD0790C2E6E0FAA3E0FBAE02780235
:104B6000CEC313CE13D8F92BFFEA3ECF2DCF3CFE98
:104B700090C2E3E07C002FFFEC3ECF24DCCF34FF7B
:084B8000FE7D07120E72AF0565
:014B8800220A
:104532007B017AC2795F90C15AE4F0A37404F07FE0
:104542009C7E001224DB90C25FE0645A6003024545
:10455200E0A3E064A560030245E0A3E0FF125D4230
:1045620090C267EFF090C262E0FF125D4290C268B3
:10457200EFF090C263E0FF125D4290C269EFF090EB
:10458200C261E0FFA3E0FDA3E0FB124AF990C26A18
:10459200EFF090C264E0FF125D4290C26BEFF04414
:1045A20080F090C265E0FF125D4290C26CEFF09025
:1045B200C266E0FF125D4290C26DEFF07B017AC2EB
:1045C200796712473DE490C25FF0A3F07AC2795F47
:0E45D20090C180F0A304F07F9C7E00122BC3EA
:0145E00022B8
:105CC0007D027F0312565C7D037F0312565C1242F5
:095CD00058E4F518F519024532FB
:10549900AB07AA06A905A8047F007E387D317C00E8
:1054A900121038C3E49F90C13AF074049E90C13938
:1054B900F043C9407D04E4FF12565C7D05E4FF1208
:1054C90054E743803075D88075985090C139E0FC15
:0D54D900A3E0FDECF5BA8DAA43A810D2ACFB
:0154E60022A3
:1055CB00AB07AA06A905A8047F007E707D627C004C
:1055DB00121038C3E49F90C13AF074049E90C13905
:1055EB00F043C9207D06E4FF12565C7D07E4FF12F1
:1055FB0054E74380C0759B9090C139E0FCA3E0FD5C
:08560B00ECF5BB8D9D439A01F3
:015613002274
:105A3F00759680759780AB07AA06A905A8047F0005
:105A4F007EC07D897C01121038AD07AC06ECF5D90C
:075A5F00AF058FE743B80C0F
:015A6600221D
:1057BA0075A78075AB80AB07AA06A905A8047F0068
:1057CA007EC07D897C01121038AD07AC06ECF5AEBF
:1057DA00AF058FAF43B830E490A01BF0A3F0A3F05D
:1057EA00A3F090A023F090A01FF0A3F0A3F0A3F0E1
:0157FA00228C
:1053F600EF14601B1460291460372403704490C1B5
:1054060035E0FCA3E0FDA3E0FEA3E0FF0254999083
:10541600C135E0FCA3E0FDA3E0FEA3E0FF0255CB0F
:1054260090C135E0FCA3E0FDA3E0FEA3E0FF025A35
:105436003F90C135E0FCA3E0FDA3E0FEA3E0FF1230
:0354460057BA2230
:102A100090C2C8EFF0A3ECF0A3EDF0A3EBF0A3EAB3
:042A2000F0A3E9F046
:102A2400C2AFE4A3F0A3F090C2C9E0FEA3E0FFC3E9
:102A340090C2CFE09F90C2CEE09E4003022AE8906D
:102A4400C2CBE0FBA3E475F001120EDDA9F0FA128B
:102A54000E08FF90C2C8E0FE75F009A42400F582B8
:102A6400E5F03488F583EE75F008A42583F583E05A
:102A7400FCA3E0FD75F009EEA42400F582E5F03432
:102A840080F583EE75F008A42583F583E5822DF5A2
:102A940082E5833CF583EFF075F009EEA42400F59C
:102AA40082E5F03488F583EE75F008A42583F58378
:102AB400E475F001120EC775F009EEA42400F58246
:102AC400E5F03488F583EE75F008A42583F583E0FA
:102AD4005403F090C2CFE004F0700690C2CEE0043C
:102AE400F0022A2B90C2C8E0146042146070147083
:102AF40003022B9024036003022BC0908808E0603B
:102B040003022BC004F0908802E0FEA3E02400F549
:102B14008274803EF583E0F599908803E004F070B8
:102B240006908802E004F0908802022BBC90901179
:102B3400E06003022BC004F090900BE0FEA3E024BD
:102B440009F58274883EF583E0F59C90900CE004CE
:102B5400F0700690900BE004F090900B805A9098DF
:102B64001AE0705804F0909814E0FEA3E02412F5E3
:102B74008274903EF583E0F59E909815E004F07021
:102B840006909814E004F0909814802C90A023E010
:102B9400702A04F090A01DE0FEA3E0241BF58274CB
:102BA400983EF583E0F5AC90A01EE004F07006902A
:0E2BB400A01DE004F090A01DE05403F0D2AF8D
:012BC20022F0
:03002300024B8904
:104B8900C0E0C083C082C0D075D000C006C007C2D3
:104B9900AF30982AC298908804E0FEA3E02400F57B
:104BA9008274843EF583E599F0908805E004F070FD
:104BB90006908804E004F0908804E05403F03099EA
:104BC9003FC299908802E0FEA3E0FF908800E06E62
:104BD9007003A3E06F602474002FF58274803EF5A2
:104BE90083E0F599908803E004F07006908802E06C
:104BF90004F0908802E05403F08005908808E4F0FE
:0F4C0900D2AFD007D006D0D0D082D083D0E03247
:030053000252E175
:1052E100C0E0C083C082C0D075D000C006C007C274
:1052F100AF5396FE909814E0FEA3E0FF909812E061
:105301006E7003A3E06F602474122FF58274903ED7
:10531100F583E0F59E909815E004F07006909814DE
:10532100E004F0909814E05403F0800590981AE49A
:10533100F0D2AFD007D006D0D0D082D083D0E03227
:03005B000256A4A6
:1056A400C0E0C083C082C0D075D000C006C2AF5372
:1056B40097FE909816E0FEA3E02412F58274943EBF
:1056C400F583E59FF0909817E004F0700690981623
:1056D400E004F0909816E05403F0D2AFD006D0D096
:0756E400D082D083D0E03238
:0300630002534104
:10534100C0E0C083C082C0D075D000C006C007C213
:10535100AF53A7FE90A01DE0FEA3E0FF90A01BE0CD
:105361006E7003A3E06F6024741B2FF58274983E66
:10537100F583E0F5AC90A01EE004F0700690A01D4E
:10538100E004F090A01DE05403F0800590A023E418
:10539100F0D2AFD007D006D0D0D082D083D0E032C7
:03006B000256EB4F
:1056EB00C0E0C083C082C0D075D000C006C2AF532B
:1056FB00ABFE90A01FE0FEA3E0241BF582749C3E42
:10570B00F583E5ADF090A020E004F0700690A01FAB
:10571B00E004F090A01FE05403F0D2AFD006D0D03D
:07572B00D082D083D0E032F0
:0300830002493AF5
:10493A00C0E0C083C082C0D075D000C006C007C224
:10494A00AFE59B30E02E759B90539BFE90900DE057
:10495A00FEA3E02409F582748C3EF583E59CF09071
:10496A00900EE004F0700690900DE004F090900D27
:10497A00E05403F0E59B30E143759B90539BFD9017
:10498A00900BE0FEA3E0FF909009E06E7003A3E0B5
:10499A006F602474092FF58274883EF583E0F59CD4
:1049AA0090900CE004F0700690900BE004F0909068
:1049BA000BE05403F08005909011E4F0D2AFD007D9
:0B49CA00D006D0D0D082D083D0E032E5
:104A680090C2FEEBF0A3EAF0A3E9F07D02E4FF12A6
:104A7800565C7D03E4FF1254E77B017D02E4FF12DC
:104A880049D543C98075F1FFE4F5F275F36075F413
:104A98000175F88F30FCFD90C2FEE0FBA3E0FAA39D
:104AA800E0F9120E08F5FA900001120E21F5FB90BC
:104AB8000002120E21F5FC900003120E21F5FDD222
:104AC800FE20FEFDE4F5FAF5FBF5FCF5FDD2FE202F
:104AD800FEFD75FAFF75FBFF75FCFF75FDFFD2FE45
:104AE80020FEFDE4F5F8758FA0E58F20E5FBD2B92F
:014AF800229B
:105C7200E5E830E51553E8DF438F407FE87E031205
:0B5C82005CAB538FBFE490BA28F02207
:1031D60075F1FFE4F5F275F36475F40175F88F3057
:1031E600FCFD90BA27E075F00DA42424F582E5F0E5
:1031F60034ADF583E0F5FAE4F5FBF5FCF5FDD2FE1A
:1032060020FEFD90BA27E0FB75F00DA42425F5827B
:10321600E5F034ADF583E0FCA3E0FDA3E0FEA3E01A
:10322600FF78181210E88FFA75F00DEBA42425F537
:1032360082E5F034ADF583E0FCA3E0FDA3E0FEA358
:10324600E0FF78101210E88FFB90BA27E0FB75F0CC
:103256000DA42425F582E5F034ADF583E0FCA3E06A
:10326600FDA3E0FEA3E0FF78081210E88FFC75F0DE
:103276000DEBA42425F582E5F034ADF583A3A3A3D5
:10328600E0F5FDD2FE20FEFD90BA27E0FF75F00DB9
:10329600A42429F582E5F034ADF583E0F5FA75F05E
:1032A6000DEFA4242AF582E5F034ADF583E0F5FBB5
:1032B60090BA27E0FF75F00DA4242BF582E5F034D3
:1032C600ADF583E0F5FC75F00DEFA4242CF582E551
:1032D600F034ADF583E0F5FDD2FE20FEFD90BA2771
:1032E600E0FF75F00DA4242DF582E5F034ADF583ED
:1032F600E0F5FA75F00DEFA4242EF582E5F034AD75
:10330600F583E0F5FB90BA27E0FF75F00DA4242FB6
:10331600F582E5F034ADF583E0F5FC75F00DEFA42C
:103326002430F582E5F034ADF583E0F5FDD2FE20DC
:0C333600FEFD90BA27E004F0E4F5F82258
:061E7C0090C24812115350
:101E8200D390C24EE0940090C24DE0940840030209
:101E920020F290C24CE0FB90C24830E70FE0FCA376
:101EA200E0FDA3E0FEA3E0FF7803800DE0FCA3E0E9
:101EB200FDA3E0FEA3E0FF78151210FB90C25712BB
:101EC200115390BA26E0FA75F00DA42424F582E5A8
:101ED200F034ADF583E030E63890C257E0FCA3E081
:101EE200FDA3E0FEA3E0FF75F00DEAA42425F58230
:101EF200E5F034ADF583121153EB54C0FF75F00DCC
:101F0200EAA42424F582E5F034ADF583EFF0022053
:101F1200D690C24DE0FCA3E0FDAE047803CEC3131D
:101F2200CE13D8F990C255F0ED5407A3F0E490C255
:101F320054F090C24CE054C0FFE4FCFDFE90C25B42
:101F4200121153E490C252F090C255E0FF90C25277
:101F5200E0C39F400302200190C257E0FCA3E0FDD2
:101F6200A3E0FEA3E0FF90BA26E0FB75F00DA424E7
:101F720025F582E5F034ADF58312115390C25BE092
:101F8200FCA3E0FDA3E0FEA3E04408FF75F00DEB27
:101F9200A42424F582E5F034ADF583EFF0E490C299
:101FA20053F090C253E0FFC39408504490C24FE0F4
:101FB200FBA3E0FAA3E0F990C254E0F58275830036
:101FC200120E21FE90BA26E075F00DA42429F582A6
:101FD200E5F034ADF583E5822FF582E43583F583B0
:101FE200EEF090C254E004F090C253E004F080B2EC
:101FF20090BA26E004F090C252E004F0021F4A9028
:10200200C256E0FB70030220DCA3E0FCA3E0FDA3C8
:10201200E0FEA3E0FF90BA26E075F00DA42425F5BA
:1020220082E5F034ADF583121153AF0390C25BA386
:10203200E0F9A3E0FAA3E04FFF90BA26E075F00DB5
:10204200A42424F582E5F034ADF583EFF0E490C2E8
:1020520053F090C256E0FF90C253E0FEC39F50443B
:1020620090C24FE0FBA3E0FAA3E0F990C254E0F57E
:1020720082758300120E21FF90BA26E075F00DA43E
:102082002429F582E5F034ADF583E5822EF582E46C
:102092003583F583EFF090C254E004F090C253E030
:1020A20004F080AE90C253E0FFC39408502690BA69
:1020B20026E075F00DA42429F582E5F034ADF58310
:1020C200E5822FF582E43583F583E4F090C253E094
:1020D20004F080D090BA26E004F090BA28E07010A4
:1020E200C2AF1231D6D2AF90BA287401F0438F0436
:0120F20022CB
:03004B00021B2273
:101B2200C0E0C0F0C083C082C0D075D000C000C089
:0D1B320001C002C003C004C005C006C0070A
:101B3F00C2AFE59130E70353913FE59120E60302F1
:101B4F001E225391BF75F1FF75F20075F36875F49E
:101B5F000175F8AF30FCFDD2FE20FEFD90C0D4E53C
:101B6F00FAF0E0FF90BA24E075F00DA42424F5827A
:101B7F00E5F034A0F583EFF0D2FE20FEFD90BA24FD
:101B8F00E075F00DA42425F582E5F034A0F583C0AF
:101B9F0083C082E0FCA3E0FDA3E0FEA3E0FF780892
:101BAF001210FBD082D08312115390BA24E075F03B
:101BBF000DA42425F582E5F034A0F583C083C082FF
:101BCF00E0F8A3E0F9A3E0FAA3E0FBAFFAEB4FFFD5
:101BDF00EAFEE9FDE8FCD082D08312115390BA24BB
:101BEF00E075F00DA42425F582E5F034A0F583C04F
:101BFF0083C082E0FCA3E0FDA3E0FEA3E0FF780832
:101C0F001210FBD082D08312115390BA24E075F0DA
:101C1F000DA42425F582E5F034A0F583C083C0829E
:101C2F00E0F8A3E0F9A3E0FAA3E0FBAFFBEB4FFF73
:101C3F00EAFEE9FDE8FCD082D08312115390BA245A
:101C4F00E075F00DA42425F582E5F034A0F583C0EE
:101C5F0083C082E0FCA3E0FDA3E0FEA3E0FF7808D1
:101C6F001210FBD082D08312115390BA24E075F07A
:101C7F000DA42425F582E5F034A0F583C083C0823E
:101C8F00E0F8A3E0F9A3E0FAA3E0FBAFFCEB4FFF12
:101C9F00EAFEE9FDE8FCD082D08312115390BA24FA
:101CAF00E075F00DA42425F582E5F034A0F583C08E
:101CBF0083C082E0FCA3E0FDA3E0FEA3E0FF780871
:101CCF001210FBD082D08312115390BA24E075F01A
:101CDF000DA42425F582E5F034A0F583C083C082DE
:101CEF00E0F8A3E0F9A3E0FAA3E0FBAFFDEB4FFFB1
:101CFF00EAFEE9FDE8FCD082D08312115390BA249A
:101D0F00E075F00DA42425F582E5F034A0F583C02D
:101D1F0083C082E0FCA3E0FDA3E0FEA3E0FF780315
:101D2F001210E8D082D08312115390C0D4E020E774
:101D3F002D90BA24E075F00DA42425F582E5F0343A
:101D4F00A0F583C083C082E0FCA3E0FDA3E0FEA367
:101D5F00E0FF78121210E8D082D08312115390C096
:101D6F00D4E030E603021E19D2FE20FEFD90BA2405
:101D7F00E0FF75F00DA42429F582E5F034A0F5837A
:101D8F00E5FAF075F00DEFA4242AF582E5F034A002
:101D9F00F583E5FBF075F00DEFA4242BF582E5F04C
:101DAF0034A0F583E5FCF075F00DEFA4242CF5823B
:101DBF00E5F034A0F583E5FDF0D2FE20FEFD90BAEC
:101DCF0024E0FF75F00DA4242DF582E5F034A0F585
:101DDF0083E5FAF075F00DEFA4242EF582E5F034CB
:101DEF00A0F583E5FBF075F00DEFA4242FF582E548
:101DFF00F034A0F583E5FCF075F00DEFA42430F579
:101E0F0082E5F034A0F583E5FDF075F80090BA2473
:101E1F00E004F0E59130E51A5391DF90BA26E0FF28
:101E2F00A3E06F60081231D6438F04800590BA2863
:101E3F00E4F0E59130E4035391EFE59130E3035380
:101E4F0091F7E59130E2065391FB438F0475E8005B
:021E5F00D2AF00
:101E6100D007D006D005D004D003D002D001D000D5
:0B1E7100D0D0D082D083D0F0D0E0327F
:095DD700253032580004FF031FBF
:08583E0041BFCD0041BFCE00C7
:0A5DCD0075F90175BCFD7590FD220B
:03000300024DB7F4
:104DB700C0E0C0F0C083C082C0D075D000C000C0C2
:104DC70001C002C003C004C005C006C007C2AF7F50
:104DD700207E03125CABE5B030E0F47F207E031247
:104DE7005CABE5B030E0F47F2C7E01125CABE5B044
:104DF70030E0F4E5B020E113E51DD3945040047F83
:104E0700018002E4FF1258B4751D647F017E001211
:104E17005614C289C28BD2AFD007D006D005D004B2
:104E2700D003D002D001D000D0D0D082D083D0F030
:034E3700D0E03296
:03001300024E3A60
:104E3A00C0E0C0F0C083C082C0D075D000C000C03E
:104E4A0001C002C003C004C005C006C007C2AF7FCC
:104E5A00207E03125CABE5B030E1F47F207E0312C2
:104E6A005CABE5B030E1F47F2C7E01125CABE5B0BF
:104E7A0030E1F4E5B020E013E51DD3945040047FFF
:104E8A000380027F021258B4751D647F017E0012EE
:104E9A005614C289C28BD2AFD007D006D005D0042F
:104EAA00D003D002D001D000D0D0D082D083D0F0AD
:034EBA00D0E03213
:102D56001258ED125C37C2AF53A9FE53B9FEC289B1
:102D6600D288D2A8C28BD28AD2AAD2AF125DCD1295
:102D76003BC590C13512115F0001C2007F0312539B
:102D8600F6E490C0D3F090C0D0F090BFD0F090BFE2
:052D9600CFF012269BA6
:102D9B007B017AC079F590C15AE4F0A37403F07FFC
:102DAB00167E001224DB90C0F5E0B45AE3E4F07B0E
:102DBB00017AC079F790C180F0A304F07F167E00F2
:032DCB00122BC305
:102DCE0090C0F6E0FF90C0FBE4F0A3EFF07B017A39
:102DDE00C079F790C180E4F0A37402F07F007E40CA
:102DEE00122BC37B017AC079FB90C180E4F0A3045F
:082DFE00F07F027E40122BC39E
:072E060090C0F6E014708E8D
:102E0D00E490C0FBF090BD6AE0FF90C0FBE0FEC314
:102E1D009F4003022EBD75F009EEA4241EF582E538
:102E2D00F034BEF583E0FEA3E0FF90C0F7E0FCA315
:102E3D00E0FDC39FEC9E406F90C0FBE0FF75F00975
:102E4D00A42422F582E5F034BEF583E0FAA3E0FB7D
:102E5D00D3ED9BEC9A505075F009EFA42420F58228
:102E6D00E5F034BEF583E0FEA3E0FF90C0F9E0FC91
:102E7D00A3E0FDC39FEC9E402EA3E0FF75F009A4D7
:102E8D002424F582E5F034BEF583E0FAA3E0FBD30C
:102E9D00ED9BEC9A501190BE19A3E0FAA3E0F582D8
:102EAD008A831211F0800990C0FBE004F0022E120B
:102EBD0090C0FBE0FFA3E4F0A3EFF07B017AC079B3
:102ECD00FC90C180E4F0A304F07F037E40122BC37D
:032EDD00022D9B28
:035DEC00FF5DEF69
:015DEF002291
:1051A900C2AFE4F5F1F5F275F30A75F40175F8AFDC
:1051B90030FCFDD2FE20FEFDAFFA90C30BE4F0A354
:1051C900EFF0E07F00FE90C30BF0A3EFF0ADFBED35
:1051D900FF90C30BEEF0A3EFF0E4F5F8D2AF90C364
:1051E9000BE0FEA3E0FF905DEC75F003121190EE69
:1051F90075F003A42583F583E493FB740193FA7492
:0D5209000293F94A600789828A831211F02E
:015216002275
:045DE8000F407200F6
:104EBD0078F67CC27D017BFF7A5D79E87E007F0408
:104ECD00120DE290C13512115F0001C200E4FF1214
:104EDD0053F67B017AC279F6124A6890BA297401A9
:104EED00F0A37484F0A37400F0A37401F0A374888C
:104EFD00F0A37404F0A37401F0A37488F0A37406F6
:104F0D00F0A37404F0A3E4F07B01A304F0A374BA3E
:104F1D00F0A3743FF0A3EBF0A374BBF0A3743FF0C8
:104F2D00A3EBF0A374BBF0A37441F0A37401F0A341
:024F3D00E4F09E
:014F3F00224F
:104F40007B017ABB794390C15AE4F0A37402F07FED
:104F5000007E0F1224DB90BB43E0645A7062F07B4A
:104F6000017ABB794390C180F0A37402F07F007E88
:104F70000F122BC390BB46E0FDC394C840027D6472
:104F800090BB44E0FEA3E0FBAA0690BB43745AF03A
:104F9000A374A5F0ED25E02404A3F0A37483F0EA44
:104FA000A3F0A3EBF0A3EDF0AE02AF037B017ABB5D
:104FB000794A90C15AE4F0A3EDF01224DB7F01227C
:024FC0007F0070
:014FC20022CC
:0B12810090C26FEBF0A3EAF0A3E9F0CD
:10128C00C2AF9000031211BC120EF3FFAEF090C26D
:10129C007AEEF0A3EFF0D2AF90C26FE0FBA3E0FACE
:1012AC00A3E0F99000061211BC120EF3FDACF06F26
:1012BC007002EC6E70030217BAC390C27BE09D9073
:1012CC00C27AE09C90C26FE0FBA3E0FAA3E0F95075
:1012DC0021900009120F1EFF90C27BE02FFF90C2DD
:1012EC007AE035F0CFC39DCF9C90C272F0A3EFF0A3
:1012FC00801E9000061211BC120EF3FFC390C27B2D
:10130C00E09FFE90C27AE095F090C272F0A3CEF00E
:10131C00C390C273E0940690C272E0940050037FB5
:10132C00002290C26FE0FBA3E0FAA3E0F990000664
:10133C001211BC120EF3FDACF090C26FE0FBA3E0F7
:10134C00FAA3E0F912119C8D828C83120E21FF906E
:10135C00C278E4F0A3EFF0E0F8E4F0E890C278F0A3
:10136C00ED2401FFE43CFE90C27CF0A3EFF090C2B0
:10137C006FE0FBA3E0FAA3E0F9900009120F1EFD49
:10138C00C3EF9DEE95F04007E490C27CF0A3F01201
:10139C00119C90C27CE0FEA3E0F5828E83120E219C
:1013AC00FF90C278E0FEA3E04FFF90C278EEF0FE13
:1013BC00A3EFF064A57003EE645A60030217659006
:1013CC00C26FE0FBA3E0FAA3E0F99000061211BC97
:1013DC00120EF32403FFE435F0FE90C27CF0A3EF71
:1013EC00F090C26FE0FBA3E0FAA3E0F990000912C1
:1013FC000F1EFDC3EF9DEE95F04007E490C27CF00C
:10140C00A3F012119C90C27CE0FEA3E0F5828E83C7
:10141C00120E216482600302159390C26FE0FBA34D
:10142C00E0FAA3E0F99000061211BC120EF32402AC
:10143C00FFE435F0FE90C27CF0A3EFF090C26FE0B9
:10144C00FBA3E0FAA3E0F9900009120F1EFDC3EF15
:10145C009DEE95F04007E490C27CF0A3F090C26F33
:10146C00E0FBA3E0FAA3E0F912119C90C27CE0FE31
:10147C00A3E0F5828E83120E212403FFE433FE9049
:10148C00C274F0A3EFF0C390C273E09F90C272E0FD
:10149C009E50030217BAE490C276F0A3F090C27487
:1014AC00E0FEA3E0FFA3E0FCA3E0FDC39FEC9E40A5
:1014BC000302155F90C26FE0FBA3E0FAA3E0F99082
:1014CC0000061211BC120EF3FFAEF090C26FE0FBDF
:1014DC00A3E0FAA3E0F912119C8F828E83120E21E5
:1014EC00FF74432DF58274BB3CF583EFF090C26F13
:1014FC00E0FBA3E0FAA3E0F99000061211BCE4753E
:10150C00F001120F5690C26FE0FBA3E0FAA3E0F9D2
:10151C009000061211BC120EF3FFAEF090C26FE0F9
:10152C00FBA3E0FAA3E0F9900009120F1EFDC3EF34
:10153C009DEE95F0400C9000061211BCE4F5F012F3
:10154C000F8E90C277E004F0700690C276E004F043
:10155C000214A990BB47E0FEA3E0FF7B017ABB79A4
:10156C004990BB45E024FDC313FD90C180E4F0A37A
:10157C00EDF0122BC390BB457403F090BB47744F36
:10158C00F0A3744B02171690C26FE0FBA3E0FAA312
:10159C00E0F912119C90C27CE0FEA3E0F5828E83F0
:1015AC00120E216483600302171A90C26FE0FBA332
:1015BC00E0FAA3E0F99000061211BC120EF324021B
:1015CC00FFE435F0FE90C27CF0A3EFF090C26FE028
:1015DC00FBA3E0FAA3E0F9900009120F1EFDC3EF84
:1015EC009DEE95F04007E490C27CF0A3F090C26FA2
:1015FC00E0FBA3E0FAA3E0F912119C90C27CE0FEA0
:10160C00A3E0F5828E83120E212403FFE433FE90B7
:10161C00C274F0A3EFF0C390C273E09F90C272E06B
:10162C009E50030217BAE490C276F0A3F090C274F5
:10163C00E0FEA3E0FFA3E0FCA3E0FDC39FEC9E4013
:10164C00030216EF90C26FE0FBA3E0FAA3E0F9905F
:10165C0000061211BC120EF3FFAEF090C26FE0FB4D
:10166C00A3E0FAA3E0F912119C8F828E83120E2153
:10167C00FF74432DF58274BB3CF583EFF090C26F81
:10168C00E0FBA3E0FAA3E0F99000061211BCE475AC
:10169C00F001120F5690C26FE0FBA3E0FAA3E0F941
:1016AC009000061211BC120EF3FFAEF090C26FE068
:1016BC00FBA3E0FAA3E0F9900009120F1EFDC3EFA3
:1016CC009DEE95F0400C9000061211BCE4F5F01262
:1016DC000F8E90C277E004F0700690C276E004F0B2
:1016EC0002163990BB47E0FEA3E0FF7B017ABB7981
:1016FC004AA3E0FD90C15AE4F0A3EDF01224DB9074
:10170C00BB49E025E0240490BB45F07F012290C248
:10171C006FE0FBA3E0FAA3E0F99000061211BCE421
:10172C0075F001120F5690C26FE0FBA3E0FAA3E034
:10173C00F99000061211BC120EF3FFAEF090C26FBE
:10174C00E0FBA3E0FAA3E0F9900009120F1EFDC321
:10175C00EF9DEE95F04057804990C26FE0FBA3E0FF
:10176C00FAA3E0F99000061211BCE475F001120F17
:10177C005690C26FE0FBA3E0FAA3E0F990000612CA
:10178C0011BC120EF3FFAEF090C26FE0FBA3E0FAB7
:10179C00A3E0F9900009120F1EFDC3EF9DEE95F02A
:1017AC00400C9000061211BCE4F5F0120F8E7F0075
:0117BC00220A
:1034850090BA25E0FF90BA24E06F700302351E75EF
:10349500F00DEFA42425F582E5F034A0F583E0FCDA
:1034A500A3E0FDA3E0FEA3E0FFE47B23FAF9F8C364
:1034B5001210D7705E90BA25E075F00DA42424F59E
:1034C50082E5F034A0F583E0540FFFE4FEEEC39FE0
:1034D500504190BA25E075F00DA42429F582E5F058
:1034E50034A0F583E5822EF582E43583F583E0FD8E
:1034F50090BB3FE0FAA3E0243FF58274BA3AF58326
:10350500EDF090BB40E004F0700690BB3FE004F0A6
:103515000E80BA90BA25E004F0124F40EF640170B6
:103525004190BB45E02403FDE433FC7B017ABB7984
:1035350043E4FF122A10E490C24CF090BB45E0240E
:1035450003FEE43390C24DF0A3CEF0A37401F0A3C3
:1035550074BBF0A37443F07F237E007D007C0012D2
:103565001E7C7B017ABA7929121281BF011590BBA5
:1035750045E02403FDE433FC7B017ABB7943E4FF9A
:10358500122A107B017ABA7934121281BF012CE418
:1035950090C24CF090BB45E02403FEE43390C24D4D
:1035A500F0A3CEF0A37401F0A374BBF0A37443F0B1
:0B35B5007F247E007D007C00121E7C45
:0135C00022E8
:105D5500FF988103FF988104FF988101FF988100D6
:035D6500351129CC
:02584600C10996
:10469000E490C2E8F0A3F0A374B0F0A374FAF0C2FF
:1046A00090C2947F057E00125CABE490C2ECF09067
:1046B000C2EAE0A330E704D2928002C292C2937FA2
:1046C000057E00125CABD2937F057E00125CAB903E
:1046D000C2EBE025E0F090C2EAE033F090C2ECE0FB
:1046E00004F0E0C3941040C7D2947F057E00125CB2
:1046F000ABE490C2ECF0C2937F057E00125CABD2BB
:10470000937F057E00125CAB90C2E9E025E0F0905B
:10471000C2E8E033F0309107E0F0A3E04401F0900C
:10472000C2ECE004F0E0C3941040CBD2907F057E51
:0C47300000125CAB90C2E8E0FEA3E0FFCA
:01473C00225A
:1045E100E490C2EDF0A3F0EFFF74FAA3CFF0A3EFD4
:1045F100F0C290C2947F057E00125CABE490C2F1E0
:10460100F090C2EFE0A330E704D2928002C292C2DE
:10461100937F057E00125CABD2937F057E00125C16
:10462100AB90C2F0E025E0F090C2EFE033F090C231
:10463100F1E004F0E0C3941040C7D2947F057E00FE
:10464100125CABE490C2F1F0C2937F057E00125C74
:10465100ABD2937F057E00125CAB90C2EEE025E009
:10466100F090C2EDE033F0309107E0F0A3E04401B7
:10467100F090C2F1E004F0E0C3941040CBD2907FFF
:0E468100057E00125CAB90C2EDE0FEA3E0FFF0
:01468F002208
:1054490090C13EEFF0C290C2947F057E00125CAB22
:10545900E490C13DF090C13EE030E704D292800271
:10546900C292C2937F057E00125CABD2937F057E08
:1054790000125CAB90C13EE025E0F090C13DE00434
:10548900F0E0C3940840CED2907F057E00025CAB69
:053F2F00E4FDFC7FB879
:103F340090C13EEFF0ECA3F0A3EDF0C290C2947FE9
:103F4400057E00125CABE490C13DF090C13EE030D0
:103F5400E704D2928002C292C2937F057E00125C73
:103F6400ABD2937F057E00125CAB90C13EE025E0AE
:103F7400F090C13DE004F0E0C3940840CED2947FB9
:103F8400057E00125CABE490C13DF090C140E0308E
:103F9400E704D2928002C292C2937F057E00125C33
:103FA400ABD2937F057E00125CAB90C140E025E06C
:103FB400F090C13DE004F0E0C3940840CEE490C129
:103FC4003DF090C13FE030E704D2928002C292C239
:103FD400937F057E00125CABD2937F057E00125C5A
:103FE400AB90C13FE025E0F090C13DE004F0E0C3B8
:0D3FF400940840CED2907F057E00025CABA9
:064895007BFF7D047C00A6
:0B489B0090C134EBF0A3EAF0A3E9F0B9
:1048A600AE04AF05A3EEF0A3EFF07FBC123F349049
:1048B600C137E0FCA3E0FD7FBE123F347FBF125438
:1048C60049C290D2947F057E00125CAB90C13774CA
:1048D600FFF5F0120EDD45F0605190C134E0FBA308
:1048E600E475F001120EDDA9F0FA120E0890C13A35
:1048F600F0E490C139F090C139E0C3940850CDA3DB
:10490600E030E704D2928002C292C2937F057E0015
:10491600125CABD2937F057E00125CAB90C13AE08D
:1049260025E0F090C139E004F080CBD2907F057E7F
:0449360000025CAB74
:1047E90090C13A7401F0A374C1F0A37438F090C178
:1047F90038EFF0A3EDF090C134E4F0A37402F0FDBA
:104809007C007FBC123F3490C134E0FCA3E0FD7F03
:10481900BE123F347FBF125449C290D2947F0F7E9B
:1048290000125CAB90C13474FFF5F0120EDD45F057
:10483900605190C13AE0FBA3E475F001120EDDA9C5
:10484900F0FA120E0890C137F0E490C136F090C129
:1048590036E0C3940850CDA3E030E704D292800239
:10486900C292C2937F0F7E00125CABD2937F0F7E00
:1048790000125CAB90C137E025E0F090C136E0044E
:0C488900F080CBD2907F0F7E00025CAB71
:100792007A5D7955124895E4FD7F011247E9E4FD3F
:1007A2007F021247E97D577F031247E97DD37F0419
:1007B2001247E9E4FD7F051247E97D117F061247E2
:1007C200E97D087F071247E9E4FD7F081247E9E463
:1007D200FD7F091247E97D3F7F0A1247E9E4FD7F69
:1007E2000B1247E9E4FD7F0C1247E9E4FD7F0D128D
:1007F20047E9E4FD7F0E1247E97D3F7F0F1247E98B
:100802007D3F7F101247E9E4FD7F111247E9E4FDC5
:100812007F121247E9E4FD7F131247E9E4FD7F14DA
:100822001247E9E4FD7F151247E9E4FD7F161247FE
:10083200E9E4FD7F171247E9E4FD7F181247E9E476
:10084200FD7F191247E9E4FD7F1A1247E9E4FD7FB3
:100852001B1247E9E4FD7F1C1247E9E4FD7F1D12EC
:1008620047E97D407F1E1247E97D807F1F1247E9DD
:100872007D067F201247E97D017F211247E9E4FDD1
:100882007F221247E9E4FD7F231247E9E4FD7F243A
:100892001247E9E4FD7F251247E9E4FD7F2612476E
:1008A200E9E4FD7F271247E97D337F281247E97D7E
:1008B200337F291247E9E4FD7F2A1247E9E4FD7FED
:1008C2002B1247E9E4FD7F2C1247E9E4FD7F2D124C
:1008D20047E9E4FD7F2E1247E9E4FD7F2F1247E945
:1008E200E4FD7F301247E9E4FD7F311247E9E4FD80
:1008F2007F321247E9E4FD7F331247E9E4FD7F349A
:100902001247E9E4FD7F351247E9E4FD7F361247DD
:10091200E9E4FD7F371247E97D787F381247E9E441
:10092200FD7F391247E9E4FD7F3A1247E9E4FD7F92
:100932003B1247E9E4FD7F3C1247E9E4FD7F3D12AB
:1009420047E9E4FD7F3E1247E9E4FD7F3F1247E9B4
:10095200E4FD7F401247E9E4FD7F411247E9E4FDEF
:100962007F421247E9E4FD7F431247E9E4FD7F44F9
:100972001247E9E4FD7F501247E97D237F51124778
:10098200E97D457F521247E97D677F531247E97D32
:10099200897F541247E97DAB7F551247E97D017F7C
:1009A200561247E97D237F571247E97D457F58124A
:1009B20047E97D677F591247E97D897F5A1247E9E6
:1009C2007DAB7F5B1247E97DCD7F5C1247E97DEF0E
:1009D2007F5D1247E9E4FD7F5E1247E97D0D7F5F8F
:1009E2001247E97D0D7F601247E97D0C7F61124756
:1009F200E97D0C7F621247E97D0F7F631247E97D33
:100A02000F7F641247E97D0E7F651247E97D0E7FF5
:100A1200661247E97D087F671247E97D027F681207
:100A220047E97D027F691247E97D027F6A1247E941
:100A32007D027F6B1247E97D027F6C1247E97D02DE
:100A42007F6D1247E97D027F6E1247E97D027F6F5B
:100A52001247E97D147F701247E97D157F711247B5
:100A6200E97D067F721247E97D027F731247E97DB5
:100A7200027F741247E97D0D7F751247E97D0D7F74
:100A8200761247E97D0C7F771247E97D0C7F781259
:100A920047E97D0F7F791247E97D0F7F7A1247E997
:100AA2007D0E7F7B1247E97D0E7F7C1247E97D0830
:100AB2007F7D1247E97D027F7E1247E97D027F7FBB
:100AC2001247E97D027F801247E97D027F8112474A
:100AD200E97D027F821247E97D027F831247E97D29
:100AE200027F841247E97D027F851247E97D147FE8
:100AF200861247E97D157F871247E97D067F8812B6
:100B020047E97D027F891247E97D027F8A1247E920
:100B12007A5D79591248957D3B7F6E1247E97D5780
:100B22007F6F1247E97D247F3A1247E97D1F7F8D4F
:100B32001247E97DBA7F871247E97DD17FB212471A
:100B4200E97D0B7F881247E97D017F381247E9E48E
:100B5200FD7F391247E97D077FB51247E97D757F31
:100B6200311247E97D987F3B1247E97BFF7A5D7935
:100B72005D1248977D0A7F221247E97D097F311273
:100B820047E97D077F351247E97D677F531247E9C1
:100B92007D847F551247E97D867F501247E97D8229
:100BA2007F511247E97D107F601247E9E4FD7F62C1
:100BB2001247E9E4FD7FA01247E97D127FA11247A7
:100BC200E97D1F7FA21247E97D127FA31247E97DCB
:100BD200167FA41247E97D297FA51247E97D1E7F72
:100BE200A61247E97D1F7FA71247E97D7E7FA812E3
:100BF20047E97D1B7FA91247E97D287FAA1247E9B1
:100C02007D6D7FAB1247E97D197FAC1247E97D18F4
:100C12007FAD1247E97D4C7FAE1247E97D1E7FAF63
:100C22001247E97D237FB01247E97D527FB1124717
:100C3200E97D6D7FB21247E97D3F7FB31247E9E458
:100C4200FD7FC01247E97D127FC11247E97D207FF7
:100C5200C21247E97D107FC31247E97D137FC41298
:100C620047E97D277FC51247E97D1B7FC61247E909
:100C72007D1D7FC71247E97D757FC81247E97D1F39
:100C82007FC91247E97D287FCA1247E97D687FCB79
:100C92001247E97D1A7FCC1247E97D187FCD1247B2
:100CA200E97D4D7FCE1247E97D257FCF1247E97D51
:100CB2002E7FD01247E97D537FD11247E97D607FB5
:100CC200D21247E97D3F7FD31247E97BFF7A5D79F4
:100CD200611248977BFF7A5D79657D017C0012483D
:100CE2009B7F8C7E001256147BFF7A5D79667D01B4
:100CF2007C0012489B7F787E001256147BFF7A5D3F
:100D020079677D017C0012489B7FAA7E00025614FF
:1059C1007D067C087FB1123F347D227C187FB212A4
:1059D1003F347D127C687FB3123F347D207C037F8E
:0D59E100B4123F347D007C057FB5023F34D9
:103BC5007D507C007FB7123F34123F2FE4FDFC7F10
:103BD500B9123F347D0A7C807FBA123F347D067C62
:103BE500007FBB123F347D017C007FB9123F34E476
:103BF500FDFC7FDE123F347D027C237FC9123F34FA
:103C05007F0A7E001256141207927D517C017FB700
:103C1500123F34123F2FE4FDFC7FB9123F347D156E
:103C25007C807FBA123F347D057C007FBB123F3418
:103C35007D017C007FB9123F347D027C237FC91250
:103C45003F347F0A7E001256147D017C237FCA1201
:103C55003F347D107C057FCB123F347D057C107F82
:103C6500CC123F347DFF7C007FD0123F341259C106
:103C75007DD37C007FB6123F347D037C007FDE124E
:103C85003F347D047C007FD6123F347D4B7C027F20
:0E3C9500B7123F347F3C7E00125614D2092233
:105877007300410004FF031F0D7864008003FFFFDE
:10588700BF03FFFCBF0000306F00000007000003EC
:10589700800000007800000C000000300000F000DD
:0D58A70000000FC00003000000FFFB010522
:10584800022C009602300018022E028A043202103E
:0E585800548941BE1C0041BD4300022AFFE0FE
:055DB50090C313EFF0A4
:065DBA0090BD43E004F07F
:015DC00022C0
:103E580090C13FE0FAA3E02FFBEA3EFA90C141E0AF
:103E6800F8A3E02FFFE83E90C15EF0A3EFF090C109
:0E3E78003DE090C160F090C13FE0FEA3E0FF8E
:103E860090C158EEF0A3EFF0A3ECF0A3EDF090BDD7
:103E96006AE0D394304003023F2E90C160E0FF9069
:103EA600BD6AE0FE75F009A4241DF582E5F034BE76
:103EB600F583EFF090C158E0FCA3E0FD75F009EE44
:103EC600A4241EF582E5F034BEF583ECF0A3EDF0F4
:103ED60090C15AE0FEA3E0FF90BD6AE0FD75F009CF
:103EE600A42420F582E5F034BEF583EEF0A3EFF0CE
:103EF600AF0375F009EDA42422F582E5F034BEF592
:103F060083EAF0A3EFF090C15EE0FEA3E0FF75F058
:103F160009EDA42424F582E5F034BEF583EEF0A382
:093F2600EFF090BD6AE004F02206
:10305C0090C14BE0FEA3E0FFC3940AEE9400500A2B
:10306C0090C156E4F0A304F0803AC3EF9464EE945C
:10307C0000500B90C156E4F0A37402F08026C3EF0D
:10308C0094E8EE9403500B90C156E4F0A37403F053
:10309C008012C3EF9410EE9427500990C156E4F0BF
:1030AC00A37404F090C14EE0FBA3E0FAA3E0F91284
:1030BC005D0790C14DE07C002FFFEC3EFE90C157A8
:1030CC00E02FF090C156E03EF090C151E0FCA3E03F
:1030DC00FD90C156E0FEA3E0FF120E60C3782DE612
:1030EC009FFF18E69EFEE4FCFD7B02FAF9F81257EE
:1030FC007690C148E02FFF90C147E03EFEC006C06D
:10310C000790C152E025E0FF90C151E033FEC3901F
:10311C00C14AE09FFF90C149E09EFE90587FE49326
:10312C00FDC3EF9DFDEE9400FC90C14DE090C15E9F
:10313C00F090C14EE0F9A3E0FAA3E090C15FC9F0B2
:10314C00A3EAF0A3E9F090C151A3E090C162F09022
:10315C00C153E0FFA3E090C163CFF0A3EFF090C1A7
:10316C004BE0FAA3E0FBD007D00612334290C155D6
:10317C00E0F925E024C5F582E434BDF583EEF0A337
:10318C00EFF090C147E0FAA3E0FBFFAE02C006C02F
:10319C000790C152E025E0FF90C151E033FEC3908F
:1031AC00C14AE09FFD90C149E09EFCEB782D26FBC7
:1031BC00EA1836FAE0FFA3E090C15ECFF0A3EFF07F
:0A31CC00A3E9F0D007D006023E860A
:104CA40078397CC17D017E007F04120DE2783D7C61
:104CB400C17D017B017AC179397E007F04120DE246
:104CC40090C13DE0FEA3E0FF905880E493FDC390C3
:104CD400C140E09DFD90C13FE09400FC125AE3788E
:104CE400417CC17D017E007F04120DE290C13FE052
:104CF400FCA3E0FDA3E0FAA3E0FBA3E0FFA3E090A4
:104D0400C14DCFF0A3EFF090587FE49390C14FF0E2
:104D1400A37407F0A374E0F090C13DE0FEA3E0FFAC
:094D24001228597B017AC1794182
:014D2D002263
:104D2E0078397CC17D017E007F04120DE2783D7CD6
:104D3E00C17D017B017AC179397E007F04120DE2BB
:104D4E0090C13DE0FEA3E0FF905880E493FD90C13A
:104D5E0040E02DFD90C13FE03400FC125AE3784153
:104D6E007CC17D017E007F04120DE290C13FE0FC0C
:104D7E00A3E0FDA3E0FAA3E0FBA3E0FFA3E090C154
:104D8E004DCFF0A3EFF090587FE49390C14FF0A376
:104D9E007407F0A374E0F090C13DE0FEA3E0FF12B3
:084DAE0028597B017AC179410B
:014DB60022DA
:10431500782CE6FE08E6FF90C13EE02FFF90C13DF8
:10432500E03EFE90C13FE0FCA3E0FD125AE3784178
:104335007CC17D017E007F04120DE290C13FE0FC4F
:10434500A3E0FDA3E0FAA3E0FBA3E0FFA3E090C197
:104355004DCFF0A3EFF090587FE49390C14FF0A3B9
:104365007407F0A374E0F090C13DE0FEA3E0FF12F6
:10437500285990C13DE0FEA3E0FF782EE6FC08E653
:10438500FD125AE378477CC17D017E007F04120D42
:10439500E290C14BE4F0A3740AF0A37401F0A37496
:1043A500FFF0A37458F0A37477F0A3E4F0A3741E90
:1043B500F0A37407F0A374FFF0A3741AF012305C35
:0643C5007B017AC1794181
:0143CB0022CF
:1037EB00782CE6FE08E6FF90C13EE02FFF90C13D2E
:1037FB00E03EFE90C13FE0FCA3E0FD125AE37841AE
:10380B007CC17D017E007F04120DE290C13FE0FC84
:10381B00A3E0FDA3E0FAA3E0FBA3E0FFA3E090C1CC
:10382B004DCFF0A3EFF090587FE49390C14FF0A3EE
:10383B007407F0A374E0F090C13DE0FEA3E0FF122B
:10384B00285978477CC17D017B017AC1793D7E0087
:10385B007F04120DE290C14BE4F0A37464F0E4A377
:10386B00F0A374FFF0A37458F0A37479F07830E6EA
:10387B00FF08E6A3CFF0A3EFF0A374FFF0A374E06F
:10388B00F0A3741BF012305C90C13DE0FEA3E0FF8F
:10389B00782EE6FC08E6FD125AE378477CC17D01E1
:1038AB007E007F04120DE290C14BE4F0A37463F031
:1038BB00A37401F0A374FFF0A37458F0A37477F012
:1038CB00A3E4F0A3741EF0A37407F0A374FFF0A39A
:0C38DB00741CF012305C7B017AC1794152
:0138E70022BE
:1040D300782CE6FE08E6FF90C13EE02FFF90C13D3D
:1040E300E03EFE905880E493FDC390C140E09DFD07
:1040F30090C13FE09400FC125AE378417CC17D01FA
:104103007E007F04120DE290C13FE0FCA3E0FDA31B
:10411300E0FAA3E0FBA3E0FFA3E090C14DCFF0A33F
:10412300EFF090587FE49390C14FF0A37407F0A38E
:1041330074E0F090C13DE0FEA3E0FF12285990C166
:104143003DE0FEA3E0FF782EE6FC08E6FD125AE30D
:1041530078477CC17D017E007F04120DE290C14B44
:10416300E4F0A37463F0A37401F0A374FFF0A374E9
:1041730058F0A37477F0A3E4F0A3741EF0A37407BC
:10418300F0A374FFF0A3741DF012305C7B017AC1BD
:02419300794170
:014195002207
:102EE00090587FE493C313FF90C145E4F0A3EFF043
:102EF000782CE6FE08E6FF90C13EE02FFF90C13D32
:102F0000E03EFE90C13FE0FCA3E0FD125AE37841B1
:102F10007CC17D017E007F04120DE290C13FE0FC88
:102F2000A3E0FDA3E0FAA3E0FBA3E0FFA3E090C1D0
:102F30004DCFF0A3EFF090587FE49390C14FF0A3F2
:102F40007407F0A374E0F090C13DE0FEA3E0FF122F
:102F5000285990C13DE0FEA3E0FF782EE6FC08E68C
:102F6000FD125AE378477CC17D017E007F04120D7B
:102F7000E290C14BE4F0A37463F0A37401F0A37476
:102F8000FFF0A37458F0A37477F0A3E4F0A3741EC9
:102F9000F0A37407F0A374FFF0A3741FF012305C69
:102FA00078477CC17D017B017AC1793D7E007F0439
:102FB000120DE290C14BE4F0A37464F0E4A3F0A31B
:102FC00074FFF0A37458F0A37479F07830E6FF082A
:102FD000E6A3CFF0A3EFF0A374F8F0A3741FF0A35F
:102FE00014F012305C7831E625E0FF18E633FE90ED
:102FF000C140E02FFD90C13FE03EFC90587FE4933C
:1030000075F002A42DFDE5F03CFC90C13DE0FEA36F
:10301000E0FF125AE378477CC17D017E007F0412F5
:103020000DE290C14BE4F0A37464F0E4A3F0A37448
:10303000FFF0A37458F0A37479F07830E6FF08E647
:10304000A3CFF0A3EFF0A374FFF0A374E0F0A37498
:0B30500029F012305C7B017AC179414D
:01305B002252
:1038E800782CE6FE08E6FF90C13EE02FFF90C13D30
:1038F800E03EFE90C13FE0FCA3E0FD125AE37841B0
:103908007CC17D017E007F04120DE290C13FE0FC86
:10391800A3E0FDA3E0FAA3E0FBA3E0FFA3E090C1CE
:103928004DCFF0A3EFF090587FE49390C14FF0A3F0
:103938007407F0A374E0F090C13DE0FEA3E0FF122D
:10394800285990C13DE0FEA3E0FF782EE6FC08E68A
:10395800FD125AE378477CC17D017E007F04120D79
:10396800E290C14BE4F0A37463F0A37401F0A37474
:10397800FFF0A37458F0A37477F0A3E4F0A3741EC7
:10398800F0A37407F0A374FFF0A37421F012305C65
:1039980078477CC17D017B017AC1793D7E007F0437
:1039A800120DE290C14BE4F0A37464F0E4A3F0A319
:1039B80074FFF0A37458F0A37479F07830E6FF0828
:1039C800E6A3CFF0A3EFF0A374FFF0A374E0F0A395
:0C39D8007420F012305C7B017AC1794150
:0139E40022C0
:10419600782CE6FE08E6FF90C13EE02FFF90C13D79
:1041A600E03EFE905880E493FD90C140E02DFD90E6
:1041B600C13FE03400FC125AE378417CC17D017EA8
:1041C600007F04120DE290C13FE0FCA3E0FDA3E0F6
:1041D600FAA3E0FBA3E0FFA3E090C14DCFF0A3EF6D
:1041E600F090587FE49390C14FF0A37407F0A37446
:1041F600E0F090C13DE0FEA3E0FF12285990C13DDA
:10420600E0FEA3E0FF782EE6FC08E6FD125AE3780E
:10421600477CC17D017E007F04120DE290C14BE414
:10422600F0A37463F0A37401F0A374FFF0A37458B1
:10423600F0A37477F0A3E4F0A3741EF0A37407F060
:10424600A374FFF0A37424F012305C7B017AC17969
:014256004126
:014257002244
:1039E500782CE6FE08E6FF90C13EE02FFF90C13D32
:1039F500E03EFE90C13FE0FCA3E0FD125AE37841B2
:103A05007CC17D017E007F04120DE290C13FE0FC88
:103A1500A3E0FDA3E0FAA3E0FBA3E0FFA3E090C1D0
:103A25004DCFF0A3EFF090587FE49390C14FF0A3F2
:103A35007407F0A374E0F090C13DE0FEA3E0FF122F
:103A4500285990C13DE0FEA3E0FF782EE6FC08E68C
:103A5500FD125AE378477CC17D017E007F04120D7B
:103A6500E290C14BE4F0A37463F0A37401F0A37476
:103A7500FFF0A37458F0A37477F0A3E4F0A3741EC9
:103A8500F0A37407F0A374FFF0A37426F012305C62
:103A950078477CC17D017B017AC1793D7E007F0439
:103AA500120DE290C14BE4F0A37463F0E4A3F0A31C
:103AB50074FFF0A37458F0A37479F07830E6FF082A
:103AC500E6A3CFF0A3EFF0A374FFF0A374E0F0A397
:0C3AD5007425F012305C7B017AC179414D
:013AE10022C2
:1043CC00782CE6FE08E6FF90C13EE02FFF90C13D41
:1043DC00E03EFE90C13FE0FCA3E0FD125AE37841C1
:1043EC007CC17D017E007F04120DE290C13FE0FC98
:1043FC00A3E0FDA3E0FAA3E0FBA3E0FFA3E090C1E0
:10440C004DCFF0A3EFF090587FE49390C14FF0A301
:10441C007407F0A374E0F090C13DE0FEA3E0FF123E
:10442C00285990C13DE0FEA3E0FF782EE6FC08E69B
:10443C00FD125AE378477CC17D017E007F04120D8A
:10444C00E290C14BE4F0A37463F0A37401F0A37485
:10445C00FFF0A37458F0A37477F0A3E4F0A3741ED8
:10446C00F0A37407F0A374FFF0A37427F012305C70
:06447C007B017AC17941C9
:014482002217
:10598F00782CE6FE08E6FF90C2D1E02FFF90C2D040
:10599F00E03EFE90C2D2E0FCA3E0FD125AE378D4C1
:1059AF007CC27D017E007F04120DE27B017AC279F9
:0159BF00D413
:0159C00022C4
:0520F300E490BD6AF05D
:1020F80090C13FF0A3F090588293FE740193FFC300
:1021080074209F90C142F074039E90C141F07832D0
:1021180012110E90C143121153E490C13EF090C1C8
:102128003DF0E4FFFEFDFC90C143E0F8A3E0F9A315
:10213800E0FAA3E0FBC31210D7700302222590C176
:1021480043A3A3A3E05401FFEF700302220390C14D
:1021580041E0FCA3E0FD905882E493FE740193FFF4
:1021680090C13FE0FAA3E02FFBEA3EFA90C141E0BC
:10217800F8A3E02FFFE83E90C15EF0A3EFF090C116
:102188003E123E7990C13DE025E0244AF582E434D0
:10219800BDF583E0FEA3E0FF90C13EE0FD7C0012A8
:1021A8005B5B90C13DE025E0244AF582E434BDF54F
:1021B80083E0FEA3E0FFC006C00790C13FE0FEA396
:1021C800E0FFA3E0FCA3E0FD125AE378547CC17D54
:1021D800017E007F04120DE2D007D006125CD99070
:1021E8005882E493FE740193FF90C140E02FF09071
:1021F800C13FE03EF090C13DE004F090C143E0FCF7
:10220800A3E0FDA3E0FEA3E0FF78011210E890C16F
:102218004312115390C13EE004F002212A90C141BB
:10222800E0FCA3E0FD905882E493FE740193FF1252
:102238003E58905882E493FE740193FF90C140E0A9
:102248002FF090C13FE03EF090C141E0FCA3E0FDDB
:10225800123E5890C13DE025E0244AF582E434BDA1
:10226800F583E0FEA3E0FFE4FDFC125B5B90C13D5B
:10227800E025E0244AF582E434BDF583E0FEA3E0DE
:10228800FFC006C00790C13FE0FEA3E0FFA3E0FC4B
:10229800A3E0FD125AE378547CC17D017E007F04DF
:1022A800120DE2D007D006125CD9E490C13DF0E4EB
:1022B80090C15EF0A3F0A3F0FBFAFDFCFFFE123E16
:1022C8008690C13DE004F0E0C3940640E290BE1958
:0B22D80074FFF0A37401F0A37403F086
:0122E30022D8
:0501030090C147EFF080
:10010800A312115F0000000090C14C740AF090C166
:100118004CE0FFC394105070EF25E0244AF582E4C8
:1001280034BDF583E0FEA3E0FF74FFFDFC125B5BCA
:1001380090C14CE0FF75F009A4241EF582E5F03467
:10014800BEF583E4F0A3F075F009EFA42420F5824E
:10015800E5F034BEF583E4F0A3F075F009EFA424CC
:1001680022F582E5F034BEF583E4F0A3F075F009DA
:10017800EFA42424F582E5F034BEF583E4F0A3F07F
:1001880090C14CE004F0808690C147E0C3940840D9
:1001980003020444E490C14CF090C14CE0FBC394CA
:1001A800084003020791E47F01FEFDFC90C147E08F
:1001B80075F009A4241DF582E5F034BEF583E0F955
:1001C800F81210FBEB25E025E02490F582E4345882
:1001D800F583121137EB5FFFEA5EFEE95DFDE85C2F
:1001E800FC4D4E4F700302043B90C14CE025E025C6
:1001F800E02490F582E43458F58312111A90BE1C5D
:10020800E025E025E02484F582E43458F5831211D2
:1002180037EB5FFFEA5EFEE95DFDE85CFC90C148F4
:1002280012115390C148E0F8A3E0F9A3E0FAA3E063
:10023800FBC000C001E47F01FEFDFC90C147E075F2
:10024800F009A4241DF582E5F034BEF583E0F9F841
:100258001210FB1210CAD001D000EB5FFFEA5EFE5D
:10026800E95DFDE85CFC90C148121153E4FFFEFD16
:10027800FC90C148E0F8A3E0F9A3E0FAA3E0FBC3CF
:100288001210D77003020791E490C14DF090C14C51
:10029800740AF090C147E0FF7E00905882E493FA18
:1002A800740193FBFDAC02120E6090C14EEEF0A3F8
:1002B800EFF0EB25E0FFEA33FEC374209F90C151B5
:1002C800F074039E90C150F0E4FFFEFDFC90C1481D
:1002D800E0F8A3E0F9A3E0FAA3E0FBC31210D7709B
:1002E8000302079190C148A3A3A3E05401FFEF7054
:1002F80003020419A3E025E0244AF582E434BDF59D
:1003080083E0FEA3E0FFC006C00790C14EE0FEA355
:10031800E0FFA3E0FCA3E0FD125AE378547CC17D22
:10032800017E007F04120DE2D007D006125CD9903E
:10033800C14CE025E0244AF582E434BDF583E0FEB3
:10034800A3E0FF90C14DE0FD7C00125B5B90C14EC5
:10035800E0FEA3E0FF90C14CE0FD75F009A4241E67
:10036800F582E5F034BEF583EEF0A3EFF090C150CE
:10037800E0FAA3E0FB75F009EDA42420F582E5F08E
:1003880034BEF583EAF0A3EBF0905882E493FC7452
:100398000193FDEF2DFFEE3CFE90C14CE0FD75F0A2
:1003A80009A42422F582E5F034BEF583EEF0A3EF2C
:1003B800F0905882E493FE740193FF90C151E02FAE
:1003C800FF90C150E03EFE75F009EDA42424F582AB
:1003D800E5F034BEF583EEF0A3EFF090C14DE0FFF9
:1003E80090C14CE075F009A4241DF582E5F034BEF7
:1003F800F583EFF0905882E493FE740193FFC39065
:10040800C151E09FF090C150E09EF090C14CE004D3
:10041800F090C148E0FCA3E0FDA3E0FEA3E0FF7874
:10042800011210E890C14812115390C14DE004F038
:100438000202D090C14CE004F00201A190C147E053
:10044800FFD3940F401475F009EFA4241DF582E53D
:10045800F034BEF583E0FF024FC3E490C14CF09046
:10046800C14CE0FBC394084003020791E47F01FEFE
:10047800FDFC90C147E075F009A4241DF582E5F064
:1004880034BEF583E0F9F81210FBEB25E025E024F3
:1004980090F582E43458F583121137EB5FFFEA5E7A
:1004A800FEE95DFDE85CFC4D4E4F7003020788785D
:1004B8003212112A90C14CE025E025E02490F58203
:1004C800E43458F58312111A1210CAEB5FFFEA5E82
:1004D800FEE95DFDE85CFC783212114778321211B2
:1004E8002AC000C001E47F01FEFDFC90C147E07511
:1004F800F009A4241DF582E5F034BEF583E0F9F88F
:100508001210FBD001D000EB4FFFEA4EFEE94DFD83
:10051800E84CFC783212114790C147E075F009A405
:10052800241DF582E5F034BEF583E0FF24FD50027A
:10053800800590BE1CEFF090BE1CE025E025E0246D
:1005480084F582E43458F58312111A783212112A8C
:10055800EF5BFFEE5AFEED59FDEC58FC90C14812D6
:100568001153E490C14CF090C14CE0FFC394085083
:1005780020EF25E0244AF582E434BDF583E0FEA3AC
:10058800E0FF74FFFDFC125B5B90C14CE004F0805F
:10059800D6E490C14DF090C14CF090C14EF0A3F05C
:1005A80090588293FE740193FFC374209F90C151A9
:1005B800F074039E90C150F0E4FFFEFDFC90C1482A
:1005C800E0F8A3E0F9A3E0FAA3E0FBC31210D770A8
:1005D8000302072A90C148A3A3A3E05401FFEF70C8
:1005E80003020708A3E025E0244AF582E434BDF5B8
:1005F80083E0FEA3E0FFC006C00790C14EE0FEA363
:10060800E0FFA3E0FCA3E0FD125AE378547CC17D2F
:10061800017E007F04120DE2D007D006125CD9904B
:10062800C14CE025E0244AF582E434BDF583E0FEC0
:10063800A3E0FF90C14DE0FD7C00125B5B90C14ED2
:10064800E0FEA3E0FF90C14CE0FD75F009A4241E74
:10065800F582E5F034BEF583EEF0A3EFF090C150DB
:10066800E0FAA3E0FB75F009EDA42420F582E5F09B
:1006780034BEF583EAF0A3EBF0905882E493FC745F
:100688000193FDEF2DFFEE3CFE90C14CE0FD75F0AF
:1006980009A42422F582E5F034BEF583EEF0A3EF39
:1006A800F0905882E493FE740193FF90C151E02FBB
:1006B800FF90C150E03EFE75F009EDA42424F582B8
:1006C800E5F034BEF583EEF0A3EFF090C14DE0FF06
:1006D80090C14CE075F009A4241DF582E5F034BE04
:1006E800F583EFF0905882E493FE740193FF90C174
:1006F8004FE02FF090C14EE03EF090C14CE004F086
:1007080090C148E0FCA3E0FDA3E0FEA3E0FF780170
:100718001210E890C14812115390C14DE004F00244
:1007280005C090C14CE0FFC3940A505D75F009EF15
:10073800A4241EF582E5F034BEF583E4F0A3F07539
:10074800F009EFA42420F582E5F034BEF583E4F047
:10075800A3F075F009EFA42422F582E5F034BEF584
:1007680083E4F0A3F075F009EFA42424F582E5F002
:1007780034BEF583E4F0A3F090C14CE004F080A20D
:0907880090C14CE004F00204678A
:010791002245
:105A6700EF25E0FFEE33FE74C52FF58274BD3EF5DA
:105A770083E0FEA3E0FFED3395E090BD448DF01287
:085A87000EC7ADF0FC025B9BB1
:0558B40090C0E5EFF0DB
:1058B9007B017ABD794690BD46E475F001120EDD93
:1058C900AFF090C180F0A3EFF07F027E40122BC3AE
:1058D90090BD6BE0FEA3E0FF90C0E5E09058B09367
:0458E900FD025A67FB
:054FC30090C152EFF067
:104FC8007E0090BD6BE0FCA3E0FDB50705EEB504DF
:104FD8000122ED25E0FFEC33FE74C52FF58274BD88
:104FE8003EF583E0FEA3E0FF782AE6FC08E6FD1222
:104FF8005B7B90C152E025E024C5F582E434BDF521
:1050080083E0FEA3E0FF125AFA782AA60608A6074C
:1050180090C152E025E024C5F582E434BDF583E073
:10502800FEA3E0FF7D1F7CF8125B7B90C152E0FF7E
:0850380090BD6BE4F0A3EFF062
:01504000224D
:10269B0090C134E4F0A37428F0A37402F0A3742661
:1026AB00F0E490BE1CF090BD6BF0A3F090C138F03D
:1026BB0074FFFBFAE4FDFCFFFE123AE290C138E036
:1026CB0025E0244AF582E434BDF583EEF0A3EFF068
:0F26DB0090C138E004F0E0C3941040D41220F313
:1026EA00782C76000876967830760008762390C1A2
:1026FA0034E0FEA3E0FFA3E0FCA3E0FD125AE37876
:10270A003D7CC17D017E007F04120DE21243151249
:10271A004CA478397CC17D017E007F04120DE278D9
:10272A003D7CC17D017B017AC179397E007F04122B
:10273A000DE21237EB78397CC17D017E007F0412ED
:10274A000DE2783D7CC17D017B017AC179397E0039
:10275A007F04120DE21240D378397CC17D017E00DC
:10276A007F04120DE2783D7CC17D017B017AC1793B
:10277A00397E007F04120DE2122EE0124D2E7839B6
:10278A007CC17D017E007F04120DE2783D7CC17D13
:10279A00017B017AC179397E007F04120DE2123879
:1027AA00E8124CA478397CC17D017E007F04120DA9
:1027BA00E2783D7CC17D017B017AC179397E007F57
:1027CA0004120DE212419678397CC17D017E007FA8
:1027DA0004120DE2783D7CC17D017B017AC1793911
:1027EA007E007F04120DE21239E5124D2E78397CF3
:1027FA00C17D017E007F04120DE2783D7CC17D011E
:10280A007B017AC179397E007F04120DE21243CC32
:10281A0078397CC17D017E007F04120DE290BD6B88
:06282A00E4F0A3741EF0AF
:10283000E490C15EF0A374FFF0A37458F0A3747920
:10284000F0A37440F0A374F8F0A3741FF07BE77A50
:0928500003E4FDFCFFFE0233422B
:1057320004FF031FF210F1F0F1D0F1B0F190F1701B
:10574200F150F130F110F0F0F0D0F0B0F090F070D4
:10575200F050F030F500F4D0F4A0F470F440F410FE
:10576200F3E0F3B0F380F350F320F2F0F2C0F290E2
:04577200F260F230BF
:1058660041C2FC0041C2FA0041C2FD0041C2FB0038
:0B5AD800E0FEA3E0FFA3E0FCA3E0FD64
:105AE30090C17BEEF0A3EFF0AF05A3ECF0A3EFF0D2
:065AF3007B017AC1797B02
:015AF900228A
:105D6800E490C2FCF090C2FAF090C2FDF090C2FB41
:025D7800F02217
:0C5DC100125BDA12553312557F025BF9B9
:0959EE00AF03AE02E0FCA3E0FDF2
:1059F700D39057327401939FE4939E4010D39057EE
:105A0700347401939DE4939C40037F01227F00221D
:0E40010090C155EEF0A3EFF0A3ECF0A3EDF0AC
:10400F001259F7EF600990C15B1259EEEF7004E49B
:10401F00FEFF2290C15DE0FFA3E090C163CFF0A34C
:10402F00EFF090C155E0FFA3E090C165CFF0A3EF93
:10403F00F090C157E0FFA3E090C167CFF0A3EFF07E
:10404F00AF03A3EAF0A3EFF090C15BE0FFA3E09012
:10405F00C16BCFF0A3EFF0A374FFF0A3E4F090C116
:10406F005FF0A3740AF07B017AC1795F90C180E49D
:0C407F00F0A37402F07F007E30122BC30F
:10408B0090C2FDE0FF7E007C007D05120E60EF24E8
:10409B0002FFEE3430FE90C16FF0A3EFF090C2FD43
:1040AB00E004F0E0FD90C161ECF0A3EDF07B017A50
:1040BB00C1796390C180E4F0A37406F0122BC39016
:0740CB00C16FE0FEA3E0FF5E
:0140D20022CB
:105BDA00E490C30DF0A3F090C2FDF07B017AC37983
:0F5BEA000D90C180F0A304F07F007E30022BC32A
:0E3D7F0090C155EEF0A3EFF0A3ECF0A3EDF031
:103D8D001259F7EF600990C15B1259EEEF7004E420
:103D9D00FEFF2290C155E0FFA3E090C163CFF0A3D9
:103DAD00EFF090C157E0FFA3E090C165CFF0A3EF16
:103DBD00F0AF03A3EAF0A3EFF090C15BE0FFA3E047
:103DCD0090C169CFF0A3EFF090C15DE0FFA3E0904B
:103DDD00C16BCFF0A3EFF0A374FFF0A3E4F090C19B
:063DED005FF0A37404F076
:103DF30090C2FCE0FF7E007C007D05120E60EF2484
:103E030002FFEE341090C16FF0A3EFF090C2FCE01C
:103E130004F0E0FF90C161E4F0A3EFF07B017AC10D
:103E2300795F90C180E4F0A37402F07F007E1012EA
:103E33002BC390C16FE0FEA3E0FF7B017AC17963DE
:103E430090C180E4F0A37406F0122BC390C16FE01D
:043E5300FEA3E0FFEB
:013E57002248
:105BF900E490C30FF0A3F090C2FCF07B017AC37963
:0F5C09000F90C180F0A304F07F007E10022BC328
:1028590090C147EEF0A3EFF0A3ECF0A3EDF0A3EAEB
:04286900F0A3EBF0FD
:10286D0090C14FE0C31390C152F090C147E06A7020
:10287D0003A3E06B601790C14DE0FEA3E0FF90C194
:0D288D0049E06E7003A3E06F600302296450
:10289A0090C14BE0FEA3E0FF90C147E0FCA3E0FD3E
:1028AA00D39FEC9E401890C153ECF0A3EDF090C179
:1028BA0047EEF0A3EFF090C14BECF0A3EDF090C11E
:1028CA004DE0FEA3E0FF90C149E0FCA3E0FDD39FE9
:1028DA00EC9E401890C153ECF0A3EDF090C149EE84
:0C28EA00F0A3EFF090C14DECF0A3EDF076
:1028F60090C152E0FD7C00C390C148E09DFF90C1AD
:1029060047E09CFEF0A3EFF0C390C14AE09DF09033
:10291600C149E09CF090C14CE02DF090C14BE03CE9
:10292600F090C14EE02DF090C14DE03CF0C0079014
:10293600C149E0FCA3E0FDA3E0FAA3E0FBA3E0FFAE
:10294600A3E090C15BCFF0A3EFF090C150E0FFA3EE
:0E295600E090C15DCFF0A3EFF0D007023D7F0F
:1029640090C152E0FFFD7C0090C148E02DF090C181
:1029740047E03CF0C390C14AE09DF090C149E09C1F
:10298400F07E00C390C14CE09FF090C14BE09EF0FC
:10299400C390C14EE09FF090C14DE09EF0E490C121
:1029A40053F090C14FE0FF90C153E0D39F50599032
:1029B400C149E0FCA3E0FDA3E0FAA3E0FBA3E0FF30
:1029C400A3E090C15BCFF0A3EFF090C150E0FFA370
:1029D400E090C15DCFF0A3EFF090C147E0FEA3E02B
:1029E400FF12400190C14AE004F0700690C149E032
:1029F40004F090C14EE004F0700690C14DE004F084
:082A040090C153E004F0809A38
:032A0C00E4FEFFE6
:012A0F0022A4
:105C1800E490C311F0A3F090C2FCF07B017AC37941
:0F5C28001190C180F0A304F07F007E10022BC307
:103AE20090C13DEEF0A3EFF0A3ECF0A3EDF0A3EA5A
:043AF200F0A3EBF062
:103AF60090C2FAE0C394104004E4FEFF2290C13D58
:103B0600E0FEA3E0FFA31259F2EF7003FEFF22903E
:103B1600C13D125AD878457CC17D017E007F0412D2
:103B26000DE2E490C149F0A3F0A3F0A37429F0E4F8
:103B3600A3F0A3F0A3F0A37429F0A37424F0A37454
:103B460001F0A3F0A374FFF0E4A3F0A304F090C285
:103B5600FAE025E02436F582E43457F583740193C0
:103B6600240AFFE4933400FE90C143F0A3EFF07BF8
:103B7600017AC1794190C180E4F0A304F0122BC30D
:103B860090C2FAE025E02436F582E43457F583E462
:103B960093FE740193FF90C157EEF0A3EFF07B0103
:103BA6007AC1794390C180E4F0A3740AF0122BC362
:0E3BB60090C2FAE004F090C157E0FEA3E0FFD9
:013BC40022DE
:1055330074FF90C302F0A3F0E490C2FAF090C301A9
:10554300F090C301E0FFC394105030EF25E0243600
:10555300F582E43457F583740193240AFFE493340A
:1055630000FE7B017AC3790290C180E4F0A304F0CA
:0B557300122BC390C301E004F080C6BF
:01557E00220A
:105B5B0090C152ECF0A3EDF0EF240AFFE43EFE7B84
:105B6B00017AC1795290C180E4F0A304F0022BC3F7
:105CD900EF2401FFE43EFE7B017AC1795490C18033
:095CE900E4F0A37402F0022BC3E5
:1033420090C158EEF0A3EFF0A3ECF0A3EDF0A3EAE6
:04335200F0A3EBF009
:1033560090C2FBE0C394104004E4FEFF2290C15CDF
:10336600E0FEA3E0FFC3940AEE9400500890C170FB
:103376007401F08031C3EF9464EE9400500890C15C
:10338600707402F08020C3EF94E8EE940350089026
:10339600C1707403F0800FC3EF9410EE94275006AB
:1033A60090C1707404F090C15FE0FBA3E0FAA3E063
:1033B600F9125D0790C173EFF090C158125AD87890
:1033C600677CC17D017E007F04120DE290C163E03F
:1033D600FFA3E090C16BCFF0A3EFF0E4A3F090C1A0
:1033E60062E090C16EF0E4A3F090C15EE090C1711E
:1033F600F0E4A3F090C15FE0F9A3E0FAA3E090C186
:103406007EC9F0A3EAF0A3E9F0A3E4F0A37405F003
:093416007B017AC179741252178E
:10341F0090C2FBE025E02456F582E43457F583E4AF
:10342F0093FE740193FF90C179EEF0A3EFF090C279
:10343F00FBE004F0EF240AFFE43EFE90C165F0A329
:10344F00EFF07B017AC1795C90C180E4F0A304F0C6
:10345F00122BC390C179E0FEA3E0FF7B017AC17903
:10346F006590C180E4F0A3740AF0122BC390C17968
:05347F00E0FEA3E0FFE8
:013484002225
:10557F0090C3057405F0A3E4F090C2FBF090C30450
:10558F00F090C304E0FFC394105030EF25E0245691
:10559F00F582E43457F5837401932401FFE49334C7
:1055AF0000FE7B017AC3790590C180E4F0A304F07B
:0B55BF00122BC390C304E004F080C670
:0155CA0022BE
:105B7B0090C153ECF0A3EDF0EF2403FFE43EFE7B6A
:105B8B00017AC1795390C180E4F0A304F0022BC3D6
:105AFA00EF2403FFE43EFE7B017AC1795390C15A39
:105B0A00E4F0A304F01224DB90C153E0FEA3E0FF0B
:015B1A002268
:105B9B0090C0E6ECF0A3EDF0EF240AFFE43EFE7BB1
:105BAB00017AC079E690C180E4F0A304F0022BC324
:1051340090C299ECF0A3EDF090C297EEF0A3EFF0DB
:105144002404FFE43EFE7B017AC279A190C15AE4B3
:10515400F0A304F01224DBC390C29AE0946490C2DA
:1051640099E09400402090C298E02401FF90C297F7
:10517400E03400FE7B017AC2799D90C180E4F0A303
:105184007402F0122BC390C298E0240AFF90C297D5
:10519400E03400FE7B017AC2799990C180E4F0A3E7
:0551A40004F0022BC322
:03000000024C1897
:0C4C1800787FE4F6D8FD758135024C5F12
:104C2400022D56E493A3F8E493A34003F68001F223
:104C340008DFF48029E493A3F85407240CC8C33391
:104C4400C4540F4420C8834004F456800146F6DF60
:104C5400E4800B010204081020408090583AE47E5E
:104C6400019360BCA3FF543F30E509541FFEE49355
:104C7400A360010ECF54C025E060A840B8E493A31C
:104C8400FAE493A3F8E493A3C8C582C8CAC583CA47
:104C9400F0A3C8C582C8CAC583CADFE9DEE780BEFF
:015876000031
:100D1200E709F608DFFA8046E709F208DFFA803EC3
:100D220088828C83E709F0A3DFFA8032E309F608B0
:100D3200DFFA8078E309F208DFFA807088828C8318
:100D4200E309F0A3DFFA806489828A83E0A3F608CC
:100D5200DFFA805889828A83E0A3F208DFFA804CA6
:100D620080D280FA80C680D4806980F2803380107D
:100D720080A680EA809A80A880DA80E280CA8033E6
:100D820089828A83ECFAE493A3C8C582C8CCC5835E
:100D9200CCF0A3C8C582C8CCC583CCDFE9DEE7802E
:100DA2000D89828A83E493A3F608DFF9ECFAA9F0AD
:100DB200EDFB2289828A83ECFAE0A3C8C582C8CC03
:100DC200C583CCF0A3C8C582C8CCC583CCDFEADE1C
:100DD200E880DB89828A83E493A3F208DFF980CC7E
:100DE20088F0EF60010E4E60C388F0ED2402B40477
:100DF2000050B9F582EB2402B4040050AF2323451E
:060E02008223900D6273D3
:100E0800BB010689828A83E0225002E722BBFE02E8
:090E1800E32289828A83E493221B
:100E2100BB010CE58229F582E5833AF583E0225086
:100E310006E92582F8E622BBFE06E92582F8E222D0
:0D0E4100E58229F582E5833AF583E49322EA
:100E4E00BB010689828A83F0225002F722BBFE0183
:020E5E00F3227D
:100E6000EF8DF0A4A8F0CF8CF0A428CE8DF0A42EA6
:020E7000FE2260
:100E7200BC000BBE0029EF8DF084FFADF022E4CC64
:100E8200F875F008EF2FFFEE33FEEC33FCEE9DEC2D
:100E9200984005FCEE9DFE0FD5F0E9E4CEFD22ED73
:100EA200F8F5F0EE8420D21CFEADF075F008EF2FBD
:100EB200FFED33FD4007985006D5F0F222C398FDAE
:050EC2000FD5F0EA224B
:100EC700C5F0F8A3E028F0C5F0F8E58215827002B6
:060ED7001583E038F02253
:100EDD00A3F8E0C5F025F0F0E582158270021583C8
:060EED00E0C838F0E82225
:100EF300BB010A89828A83E0F5F0A3E022500687CA
:100F0300F009E71922BBFE07E3F5F009E31922898B
:0B0F1300828A83E493F5F074019322BE
:100F1E00BB0110E58229F582E5833AF583E0F5F011
:100F2E00A3E0225009E92582F886F008E622BBFEEE
:100F3E000AE92582F8E2F5F008E222E5832AF58334
:080F4E00E993F5F0A3E99322F9
:100F5600BB010789828A83020EC7500B09C5F02799
:100F6600F7C5F01937F722BBFE0D09F8E325F0F3B4
:100F7600C5F019E338F322F889828A837401932530
:080F8600F0C5F0F8E4933822F5
:100F8E00BB010A89828A83F0E5F0A3F0225006F7AE
:0F0F9E0009A7F01922BBFE06F3E5F009F31922AB
:100FAD00E88FF0A4CC8BF0A42CFCE98EF0A42CFCE3
:100FBD008AF0EDA42CFCEA8EF0A4CDA8F08BF0A461
:100FCD002DCC3825F0FDE98FF0A42CCD35F0FCEBC0
:100FDD008EF0A4FEA9F0EB8FF0A4CFC5F02ECD3985
:0F0FED00FEE43CFCEAA42DCE35F0FDE43CFC22F2
:100FFC0075F008758200EF2FFFEE33FECD33CDCCAC
:10100C0033CCC58233C5829BED9AEC99E58298402E
:10101C000CF582EE9BFEED9AFDEC99FC0FD5F0D60B
:10102C00E4CEFBE4CDFAE4CCF9A88222B800C1B935
:10103C000059BA002DEC8BF084CFCECDFCE5F0CB73
:10104C00F97818EF2FFFEE33FEED33FDEC33FCEBAC
:10105C0033FB10D703994004EB99FB0FD8E5E4F967
:10106C00FA227818EF2FFFEE33FEED33FDEC33FC54
:10107C00C933C910D7059BE99A4007EC9BFCE99A48
:10108C00F90FD8E0E4C9FAE4CCFB2275F010EF2F8D
:10109C00FFEE33FEED33FDCC33CCC833C810D7078D
:1010AC009BEC9AE899400AED9BFDEC9AFCE899F8C8
:0E10BC000FD5F0DAE4CDFBE4CCFAE4C8F9225B
:10577600C2D5E830E70FB2D5E4C39BFBE49AFAE45E
:1057860099F9E498F8EC30E717B2D51257AC121035
:1057960038E4C39BFBE49AFAE499F9E498F88003A9
:1057A60012103830D50DE4C39FFFE49EFEE49DFD44
:0457B600E49CFC2251
:0D10CA00CFF4CFCEF4CECDF4CDCCF4CC22BB
:1010D700EB9FF5F0EA9E42F0E99D42F0E89C45F06F
:0110E70022E6
:1010E800E8600FECC313FCED13FDEE13FEEF13FFE6
:0310F800D8F1220A
:1010FB00E8600FEFC333FFEE33FEED33FDEC33FC53
:03110B00D8F122F6
:0C110E00E6FC08E6FD08E6FE08E6FF220D
:10111A00E493FC740193FD740293FE740393FF221B
:0D112A00E6FB08E6F908E6FA08E6CBF82235
:10113700E493F8740193F9740293FA740393FB220E
:0C114700ECF608EDF608EEF608EFF622D4
:0C115300ECF0A3EDF0A3EEF0A3EFF0220F
:10115F00A8828583F0D083D0821211761211761275
:10116F001176121176E473E493A3C583C5F0C5839A
:10117F00C8C582C8F0A3C583C5F0C583C8C582C8DA
:01118F00223D
:0C119000A42582F582E5F03583F583226A
:10119C00BB010789828A8302121D5005E9F80212ED
