:0B00F800FFFF4457494E543502387C8E
:0E1C28007B0190BF38E4F0A304F07F147E002F
:101C360090BF33EEF0A3EFF0A3EBF0A3EAF0A3E935
:011C4600F0AD
:101C4700E490BF3AF0A3F0A3F0A3F0A3F0A3F0A3AE
:101C5700F0A3F090BF38E0FAA3E0FB4A7003021D3F
:101C6700F590BF33E0FEA3E0FFC3E49FFFE49EFED1
:101C7700E4FCFD90BF42120AC1AF03AE02E4FCFDD3
:101C870090BF42E0F8A3E0F9A3E0FAA3E0FBC31298
:101C97000A8A501190BF42A3A3E0FFA3E090BF3888
:101CA700CFF0A3EFF090BF33E0FCA3E0FDECC3134C
:101CB700FFED1390BF3ACFF0A3EFF0ED5401FFA370
:101CC700E4F0A3EFF0C2AFE4F5F190BF3AE0FCA374
:101CD700E0FDECF5F28DF375F40175F8AF30FCFD1E
:101CE70090BF3CE07002A3E0603DD2FE20FEFD9075
:101CF700BF35E0FBA3E475F001120870A9F0FAE51F
:101D0700FC1207BF90BF35E0FBA3E475F001120892
:101D170070A9F0FAE5FD1207BF90BF39E024FFF084
:101D270090BF38E034FFF090BF38E0FCA3E0FDEC53
:101D3700C313FFED1390BF3ECFF0A3EFF0ED5401B7
:101D4700FFA3E4F0A3EFF090BF3E74FFF5F0120895
:101D57007045F0605BD2FE20FEFD90BF35E0FBA32F
:101D6700E475F001120870A9F0FAE5FA1207BF90BE
:101D7700BF35E0FBA3E475F001120870A9F0FAE59E
:101D8700FB1207BF90BF35E0FBA3E475F001120813
:101D970070A9F0FAE5FC1207BF90BF35E0FBA3E49A
:101DA70075F001120870A9F0FAE5FD1207BF8097D8
:101DB70090BF40E07002A3E0602FD2FE20FEFD90AE
:101DC700BF35E0FBA3E475F001120870A9F0FAE54E
:101DD700FA1207BF90BF35E0FBA3E475F0011208C4
:0E1DE70070A9F0FAE5FB1207BFE4F5F8D2AFE1
:011DF50022CB
:10215C0090C00DEEF0A3EFF0A3EBF0A3EAF0A3E92F
:01216C00F082
:10216D00E490C014F0A3F0A3F0A3F0A3F0A3F090BB
:10217D00C012E07002A3E070030222EE90C00DE0E9
:10218D00FEA3E0FFC3E49FFFE49EFED390C013E0E7
:10219D009F90C012E09E4005EEF0A3EFF090C00DB1
:1021AD00E0FAA3E0FBEAC313FCEB13FDEB5401FFD4
:1021BD0090C014E4F0A3EFF0C2AFE4F5F1ECF5F24A
:1021CD00AF058FF375F40175F88330FCFD90C014E5
:1021DD00E07002A3E0603D90C00FE0FBA3E475F05A
:1021ED0001120870A9F0FA120779F5FC90C00FE002
:1021FD00FBA3E475F001120870A9F0FA120779F546
:10220D00FDD2FE20FEFD90C013E024FFF090C01221
:10221D00E034FFF090C012E0FCA3E0FDECC313FF2F
:10222D00ED1390C016CFF0A3EFF0ED5401FFA3E432
:10223D00F0A3EFF075F88F90C01674FFF5F012084B
:10224D007045F0605B90C00FE0FBA3E475F00112E8
:10225D000870A9F0FA120779F5FA90C00FE0FBA308
:10226D00E475F001120870A9F0FA120779F5FB90E8
:10227D00C00FE0FBA3E475F001120870A9F0FA128B
:10228D000779F5FC90C00FE0FBA3E475F00112088F
:10229D0070A9F0FA120779F5FDD2FE30FE9980FB98
:1022AD0090C018E07002A3E0603275F88C90C00FFA
:1022BD00E0FBA3E475F001120870A9F0FA1207799A
:1022CD00F5FA90C00FE0FBA3E475F001120870A9B8
:1022DD00F0FA120779F5FBD2FE20FEFDE4F5F8D2F7
:0122ED00AF41
:0122EE0022CD
:10422F00C2AFC2D3C2D4E4F58E75C870F5CDF5CC4C
:10423F0075CBBC75CACDD2ADD2C8F5937594017547
:10424F00950275C960F5F875F901F5A8F5B8F59AF5
:07425F00F5A9F5B902439730
:104397007F007E80E4F51EF51F0FEFAC0670010E5F
:1043A70014F5828C83E4F0051FE51F7002051EB427
:0743B70000E7E51EB480E2FF
:0143BE0022DC
:1044300090C377120ACD55AA5AA57B017AC3797722
:1044400090C012E4F0A37402F07F047E0002215CAD
:04453B007FF47E018A
:10453F00EF4E6010E4FD0DEDC3941840F9EF1F70BE
:04454F00EF1E80ECEF
:014553002245
:103C240090C31C745AF0A374A5F0A3EEF0A3EFF0B4
:103C3400A3EBF0A3EDF090C31BE0600A90C322E471
:103C4400F0A304F08007E490C322F0A3F07B017A90
:103C5400C3791C90C012E4F0A37404F07FB07E001A
:103C640012215C12453B7B017AC3791C90BF38E476
:103C7400F0A304F07FB07E00121C3690C31CE070E9
:013C8400E25D
:013C8500221C
:0541F00090C363EFF035
:1041F5007B017AC3796490BF38E4F0A37402F07F41
:10420500A07E00121C3690C363E0A3F0A37401F0F6
:10421500E490C367F07B017AC3796490C012F0A380
:0A4225007402F07FA07E0002215C0D
:102B100090C180E0FB90C345F090C181E0FCA3E050
:102B2000FDA3E0FEA3E0FF7810120A9B90C346EFDE
:102B3000F090C181E0FCA3E0FDA3E0FEA3E0FF78FC
:102B400008120A9B90C347EFF090C181A3A3A3E0B2
:102B500090C348F090C185E0FCA3E0FDEC90C34930
:102B6000F0A3EDF090C187E0FCA3E0FDEC90C34B37
:102B7000F0A3EDF0EBB4A52890C189E0FBA3E0FA47
:102B8000A3E04A4B601A90C185E0FEA3E0FF90C12C
:102B900089A3A3E0F990C012ECF0A3EDF012215C40
:102BA0007B017AC3794590C012E4F0A37404F07FEE
:102BB000087E0012215C12453B7B017AC379459067
:102BC000BF38E4F0A304F07F087E00121C3690C3E7
:102BD00045E070E290C180E0B45A2F90C189E0FBDB
:102BE000A3E0FAA3E04A4B602190C185E0FEA3E098
:102BF000FF90C189A3A3E0F990C187E0FDA3E09015
:102C0000BF38CDF0A3EDF0121C367F327E000240BB
:012C10009132
:1029E70090C324745AF090C170E090C325F064013D
:1029F700706790C171A3E090C326F090C173E0FCAB
:102A0700A3E0FDA3E0FEA3E0FF7810120A9B90C3AA
:102A170027EFF090C173E0FCA3E0FDA3E0FEA3E085
:102A2700FF7808120A9B90C328EFF090C173A3A305
:102A3700A3E090C329F090C177E0FCA3E0FDEC9000
:102A4700C32AF0A3EDF090C179E0FCA3E0FDEC9080
:102A5700C32CF0A3EDF0E4803B90C170E0640270FA
:102A670037A3E0FCA3E0FDEC90C326F0A3EDF090C4
:102A7700C177E0FCA3E0FDEC90C328F0A3EDF09054
:102A8700C17EE0FCA3E0FDEC90C32AF0A3EDF0E4E7
:102A9700A3F0A3F0A3F0A3F07B017AC3792490C03D
:102AA70012E4F0A37406F07FAA7E0012215C12459F
:102AB7003B7B017AC3792490BF38E4F0A304F07F0D
:102AC700AA7E00121C3690C324E070E290C170E029
:102AD700B4012F90C17BE0FBA3E0FAA3E04A4B606F
:102AE7002190C177E0FEA3E0FF90C17BA3A3E0F9AB
:102AF70090C179E0FDA3E090BF38CDF0A3EDF012CF
:092B07001C367F327E0002409171
:0F45F9007AC37982121C2890C382E0FEA3E0FFF0
:01460800228F
:083A4D0090C35DEEF0A3EFF061
:103A5500A3745AF0A37401F090C35DE0FCA3E0FDEC
:103A6500EC90C361F0A3EDF07B017AC3795F90C060
:103A750012E4F0A37402F07F847E0012215C1245EB
:103A85003B7B017AC3795F90BF38E4F0A3740212DF
:103A95001C3190C35DE0FEA3E0FFA3E0B506DFA304
:103AA500E0B507DAE490C35FF0A3F0A3F0A3F07BE1
:103AB500017AC3795F90C012F0A37402F07F167E7D
:043AC5000002215C7E
:0840910090BF33EEF0A3EFF045
:10409900E4A3F0A3F090BF33E0FEA3E0FFC390BF19
:1040A90036E09F90BF35E09E5025E4FBFA7F017E04
:1040B9000012453F0BBB00010ABA01F1BB2CEE907F
:0F40C900BF36E004F070CE90BF35E004F080C643
:0140D80022C5
:1040D900EF14601814602314602E240370397401DE
:1040E900A805088002C333D8FC42B7227401A80589
:1040F900088002C333D8FC42BC227401A805088099
:1041090002C333D8FC42BD22AF057401A807088059
:0841190002C333D8FC42BE22B0
:103FFC00EF1460191460251460312403703D7401B2
:10400C00A805088002C333D8FCF452B7227401A867
:10401C0005088002C333D8FCF452BC227401A805F5
:10402C00088002C333D8FCF452BD22AF057401A83A
:0C403C0007088002C333D8FCF452BE22F7
:1035F200EF14602D14604A146067240360030236DE
:1036020084EB600E7401A805088002C333D8FC4223
:1036120080227401A805088002C333D8FCF45280CA
:1036220022EB600E7401A805088002C333D8FC4265
:1036320090227401A805088002C333D8FCF452908A
:1036420022EB600E7401A805088002C333D8FC4245
:10365200A0227401A805088002C333D8FCF452A04A
:1036620022EB600E7401A805088002C333D8FC4225
:10367200B022AF057401A807088002C333D8FCF456
:0336820052B02221
:103E6100EF14601A14602714603424037042740143
:103E7100A805088002C333D8FC5580FE8034740144
:103E8100A805088002C333D8FC5590FE8024740134
:103E9100A805088002C333D8FC55A0FE8014AF05E5
:103EA1007401A807088002C333D8FC55B0FE800214
:043EB100E4FEAF0676
:013EB50022EA
:102CEF007B017AC3794D90BF38E4F0A37404F07F71
:102CFF00167E00121C3690C34DE0645A6003022DFD
:102D0F00B4A3E0FFB40134A3E0FCA3E0FD90C191B4
:102D1F00ECF0A3EDF090C197ECF0A3EDF090C35160
:102D2F00E0FCA3E0FD90C195ECF0A3EDF090C1BCE9
:102D3F00ECF0A3EDF0A37401F08030EFB403269014
:102D4F00C18FE0FFA3E090C1BCCFF0A3EFF090C123
:102D5F008DE0FFA3E090C197CFF0A3EFF090C1BE3D
:102D6F007402F0800690C1BE7403F090C34FE0FF71
:102D7F00A3E090C18DCFF0A3EFF090C351E0FFA37C
:102D8F00E090C18FCFF0A3EFF0E490C34DF07B0143
:102D9F007AC3794D90C012F0A37402F07F167E00B3
:102DAF0012215C801190C34EE0FF64026003EF704C
:0B2DBF0005E490C1BEF090C1BEE0FF33
:012DCA0022E6
:081A3F0090C330EEF0A3EFF0BC
:101A4700122CEF90C332EFF0700690C18CF0FF229A
:101A570090C332E0B4010F7AC17993121C2890C168
:101A67008C7401F0FF2290C193E0FEA3E0FF90C3C6
:101A770030E06E7003A3E06F60037F012290C18D99
:101A8700E0FEA3E0FFC390C192E09FFF90C191E009
:101A97009E90C1BFF0A3EFF090C1BFE0FCA3E0FDB3
:101AA700FFAE041207F3EE3395E0FDFC90C333124B
:101AB7000AC190C18FE0FEA3E0FFC390C196E09FEB
:101AC700FF90C195E09E90C1C1F0A3EFF090C1C116
:101AD700E0FCA3E0FDFFAE041207F3EE3395E0FD53
:101AE700FC90C337120AC190C332E0640270799048
:101AF700C18CE06401706B7F09FEFDFC90C337E089
:101B0700F8A3E0F9A3E0FAA3E0FBC3120A8A501A8C
:101B1700E47F09FEFDFC90C333E0F8A3E0F9A3E0FE
:101B2700FAA3E0FBC3120A8A4038E47F02FEFDFCF9
:101B370090C337E0F8A3E0F9A3E0FAA3E0FB1209AA
:101B47006D90C333E0F8A3E0F9A3E0FAA3E0FBD379
:101B5700120A8A90C18C50057403F0FF227404F0B6
:101B6700FF2290C18CE0FF2290C18CE06401706E6F
:101B77007F09FEFDFC90C337E0F8A3E0F9A3E0FA84
:101B8700A3E0FBC3120A8A501AE47F09FEFDFC900A
:101B9700C333E0F8A3E0F9A3E0FAA3E0FBC3120A1A
:101BA7008A4038E47F02FEFDFC90C337E0F8A3E0EB
:101BB700F9A3E0FAA3E0FB12096D90C333E0F8A3A1
:101BC700E0F9A3E0FAA3E0FBD3120A8A90C18C5094
:101BD700057403F080087404F080037F022290C12B
:101BE7008CE0B4031E90C18FE0FEA3E0FFC390C159
:101BF700BDE09FFF90C1BCE09E90C1C5F0A3EFF090
:101C07007F052290C18DE0FEA3E0FFC390C198E05D
:101C17009FFF90C197E09E90C1C3F0A3EFF07F06AE
:011C2700229A
:0434B60002180000F8
:1044EA00758911E4F58CF58AC28CF51AF51C438995
:0C44FA0001758CBC758ACDD2A9D28C2231
:03000B00023B4570
:0D3B4500C0E0C0D075D000C000C006C007B1
:103B5200C2AF758CBC758ACD051B751D0074017EC4
:103B620000A81D088005C333CE33CED8F9FFEF5528
:103B72001C602DE51D25E02408F808E616187001E2
:103B820016E51D25E02408F8E6FE08E64E7011AFA2
:103B92001D04A807088002C333D8FC421AF4521C41
:093BA200051DE51DB408B6D2AF03
:0B3BAB00D007D006D000D0D0D0E03210
:03002B000245ADDE
:1045AD00C0E0C2AFC2C6D2AF0519E5197002051839
:0345BD00D0E03219
:10440E00C2AF7401A807088002C333D8FCFE421C59
:10441E00EF25E02408F8A60408A605EEF4521AD2F9
:02442E00AF22BB
:10458300C2AF7401A807088002C333D8FCF4521CDD
:05459300521AD2AF2214
:1045C000C2AF7401A807088002C333D8FC551AFF94
:0245D000D2AF68
:0145D20022C6
:0B44CD00D2B37F051244D8D2B27F05A5
:1044D800EF600EE4FE0EC3EE648094B240F71F80D6
:0144E800EFE4
:0144E90022B0
:0446500053BEF7223C
:0446540043BE082237
:10452100124654D2B3D2B27F0F1244D8C2B37F0F16
:0A4531001244D8C2B27F0F0244D832
:0A4450007F0F124276AF031242768E
:10445A00124654C2B3D2B27F0F1244D8D2B37F0FDE
:06446A001244D802465086
:0F460900124654C2B31244CFC2B27F050244D846
:0D4627001246541244CDC2B27F050244D8A1
:104470001246501244CDE4FD30B30A7F051244D8F1
:0F4480000DEDB432F3C2B27F051244D802465498
:10426600124276E0FF12427612445A1245217F64CA
:02427600AD0792
:10427800124654E4FCED30E704D2B38002C2B3ED39
:1042880025E0FD1244CFC2B27F051244D80CECB42D
:0542980008E302447080
:0D42D2007F0F1242761245217F6512427661
:1042DF00124650E4FC1244CFED25E0FD30B3054407
:1042EF0001FD8004ED54FEFDC2B27F051244D80CCF
:0642FF00ECB408E1AF057C
:014305002295
:102F5A001242711242D2AB071246091242DFAA0785
:102F6A0012462712445AEB20E003023008548460C8
:102F7A000AEB547BFB124271124450EB54FEFBEAFB
:102F8A0030E713547FFA1242717F10124276AF0271
:102F9A0012427612445AEA4480FA1242717F10129F
:102FAA004276AF0212427612445AEB4484FB124232
:102FBA00717F0F124276AF0312426BE4FF12427620
:102FCA00E4FF124276E4FF1242767F801242767F55
:102FDA00051242767F011242767F011242767F21E4
:102FEA0012427612445AEB547BFBEA547FFA12429D
:0E2FFA00717F10124276AF0212426B124450E9
:0130080022A5
:103214001242711242D290C384EFF0124609124254
:10322400DFA3EFF012462712445AE04480F0124222
:10323400717F10124276E0FF12427612445A90C314
:1032440084E04484F01242717F0F124266E4FF125C
:103254004276900006120792FF1242769000051201
:103264000792FF124276900004120792FF124276F0
:10327400900003120792FF12427690000212079206
:10328400FF124276900001120792FF124276120753
:1032940079FF12427612445A90C384E0547BF0A31F
:1032A400E0547FF01242717F101242667F0F124287
:0C32B4007690C384E0FF12427602445A78
:102E9D00124271E4FF1242761245217F651242768D
:102EAD007B061242DF743B2BF582E434C3F583EFCE
:102EBD00F0124609DBEC1242DF90C33BEFF01246F5
:102ECD002712445A90C33FE0547FF0E4FB743B2B30
:102EDD00F582E434C3F583E0FFC4540FFE90C34381
:102EED00F0EF540FFFA3F0EE75F00AA42FFF743B23
:102EFD002BF582E434C3F583EFF00BEBB403CE7BFB
:102F0D0004743B2BF582E434C3F583E0FFC4540F06
:102F1D00FE90C343F0EF540FFFA3F0EE75F00AA43B
:102F2D002FFF743B2BF582E434C3F583EFF00BEBED
:102F3D00B407CEE490C342F07B017AC3793B90C0D5
:0D2F4D0012F0A37404F07F107E0002215CDE
:1045D300EF75F00A84C454F0FEEF75F00A84E5F039
:0345E3004EFF2266
:0F461800EFC4540F75F00AA4FEEF540F2EFF22CB
:0737160090C368EBF0AB0764
:10371D00ED64016004EDB4021BED240CFEE4339066
:10372D00C369F0A3CEF0EB24FFFEE434FFA3F0A3B6
:10373D00CEF08012AF0590C369E4F0A3EFF0AF03B4
:10374D00A3E4F0A3EFF090C36AE02401FF90C369F6
:10375D00E03400FE7C007D1A1207F37D0A12080585
:10376D00AC06AD0790C36BE0FAA3E0FBAE027802A6
:10377D00CEC313CE13D8F92BFFEA3ECF2DCF3CFE8F
:10378D0090C368E07C002FFFEC3ECF24DCCF34FFEC
:08379D00FE7D07120805AF05CF
:0137A5002201
:103009007B017AC279F890BF38E4F0A37404F07FA9
:103019009C7E00121C3690C2F8E0645A60030230AC
:10302900B7A3E064A560030230B7A3E0FF1245D35C
:1030390090C300EFF090C2FBE0FF1245D390C301AB
:10304900EFF090C2FCE0FF1245D390C302EFF0907D
:10305900C2FAE0FFA3E0FDA3E0FB12371690C30319
:10306900EFF090C2FDE0FF1245D390C304EFF044A6
:1030790080F090C2FEE0FF1245D390C305EFF090B7
:10308900C2FFE0FF1245D390C306EFF07B017AC37C
:103099007900123214E490C2F8F0A3F07AC279F8F8
:0E30A90090C012F0A304F07F9C7E0012215C08
:0130B70022F6
:104554007D027F031240D97D037F031240D9122EBE
:094564009DE4F518F51902300977
:103FAE00AB07AA06A905A8047F007E387D317C00E8
:103FBE001209F8C3E49F90BF39F074049E90BF3885
:103FCE00F043C9407D04E4FF1240D97D05E4FF12A1
:103FDE003FFC43803075D88075985090BF38E0FC18
:0D3FEE00A3E0FDECF5BA8DAA43A810D2ACFB
:013FFB0022A3
:10404800AB07AA06A905A8047F007E707D627C00E4
:104058001209F8C3E49F90BF39F074049E90BF38EA
:10406800F043C9207D06E4FF1240D97D07E4FF1222
:104078003FFC4380C0759B9090BF38E0FCA3E0FDF7
:08408800ECF5BB8D9D439A018C
:01409000220D
:1043BF00759680759780AB07AA06A905A8047F009C
:1043CF007EC07D897C011209F8AD07AC06ECF5D9EA
:0743DF00AF058FE743B80CA6
:0143E60022B4
:1041AF0075A78075AB80AB07AA06A905A8047F0089
:1041BF007EC07D897C011209F8AD07AC06ECF5AE27
:1041CF00AF058FAF43B830E490A01BF0A3F0A3F07E
:1041DF00A3F090A023F090A01FF0A3F0A3F0A3F002
:0141EF0022AD
:103F0B00EF14601B1460291460372403704490BFB6
:103F1B0034E0FCA3E0FDA3E0FEA3E0FF023FAE9084
:103F2B00BF34E0FCA3E0FDA3E0FEA3E0FF024048AA
:103F3B0090BF34E0FCA3E0FDA3E0FEA3E0FF02434F
:103F4B00BF90BF34E0FCA3E0FDA3E0FEA3E0FF12B3
:033F5B0041AF2251
:101DF60090C355EFF0A3ECF0A3EDF0A3EBF0A3EA4C
:041E0600F0A3E9F06C
:101E0A00C2AFE4A3F0A3F090C356E0FEA3E0FFC381
:101E1A0090C35CE09F90C35BE09E4003021ECE909D
:101E2A00C358E0FBA3E475F001120870A9F0FA1296
:101E3A000779FF90C355E0FE75F009A42400F582E6
:101E4A00E5F03488F583EE75F008A42583F583E080
:101E5A00FCA3E0FD75F009EEA42400F582E5F03458
:101E6A0080F583EE75F008A42583F583E5822DF5C8
:101E7A0082E5833CF583EFF075F009EEA42400F5C2
:101E8A0082E5F03488F583EE75F008A42583F5839E
:101E9A00E475F00112085A75F009EEA42400F582DF
:101EAA00E5F03488F583EE75F008A42583F583E020
:101EBA005403F090C35CE004F0700690C35BE00446
:101ECA00F0021E1190C355E0146042146070147041
:101EDA0003021F7624036003021FA6908808E060AD
:101EEA0003021FA604F0908802E0FEA3E02400F596
:101EFA008274803EF583E0F599908803E004F070DF
:101F0A0006908802E004F0908802021FA2909011C5
:101F1A00E06003021FA604F090900BE0FEA3E02409
:101F2A0009F58274883EF583E0F59C90900CE004F4
:101F3A00F0700690900BE004F090900B805A909805
:101F4A001AE0705804F0909814E0FEA3E02412F509
:101F5A008274903EF583E0F59E909815E004F07047
:101F6A0006909814E004F0909814802C90A023E036
:101F7A00702A04F090A01DE0FEA3E0241BF58274F1
:101F8A00983EF583E0F5AC90A01EE004F070069050
:0E1F9A00A01DE004F090A01DE05403F0D2AFB3
:011FA8002216
:030023000237A6FB
:1037A600C0E0C083C082C0D075D000C006C007C2CA
:1037B600AF30982AC298908804E0FEA3E02400F572
:1037C6008274843EF583E599F0908805E004F070F4
:1037D60006908804E004F0908804E05403F03099E1
:1037E6003FC299908802E0FEA3E0FF908800E06E59
:1037F6007003A3E06F602474002FF58274803EF599
:1038060083E0F599908803E004F07006908802E062
:1038160004F0908802E05403F08005908808E4F0F4
:0F382600D2AFD007D006D0D0D082D083D0E0323E
:03005300023C86E6
:103C8600C0E0C083C082C0D075D000C006C007C2E5
:103C9600AF5396FE909814E0FEA3E0FF909812E0D2
:103CA6006E7003A3E06F602474122FF58274903E49
:103CB600F583E0F59E909815E004F0700690981450
:103CC600E004F0909814E05403F0800590981AE40C
:103CD600F0D2AFD007D006D0D0D082D083D0E03299
:03005B000241213E
:10412100C0E0C083C082C0D075D000C006C2AF530A
:1041310097FE909816E0FEA3E02412F58274943E57
:10414100F583E59FF0909817E004F07006909816BB
:10415100E004F0909816E05403F0D2AFD006D0D02E
:07416100D082D083D0E032D0
:03006300023CE676
:103CE600C0E0C083C082C0D075D000C006C007C285
:103CF600AF53A7FE90A01DE0FEA3E0FF90A01BE03F
:103D06006E7003A3E06F6024741B2FF58274983ED7
:103D1600F583E0F5AC90A01EE004F0700690A01DBF
:103D2600E004F090A01DE05403F0800590A023E489
:103D3600F0D2AFD007D006D0D0D082D083D0E03238
:03006B00024168E7
:10416800C0E0C083C082C0D075D000C006C2AF53C3
:10417800ABFE90A01FE0FEA3E0241BF582749C3EDA
:10418800F583E5ADF090A020E004F0700690A01F44
:10419800E004F090A01FE05403F0D2AFD006D0D0D6
:0741A800D082D083D0E03289
:03008300023557EC
:10355700C0E0C083C082C0D075D000C006C007C21B
:10356700AFE59B30E02E759B90539BFE90900DE04E
:10357700FEA3E02409F582748C3EF583E59CF09068
:10358700900EE004F0700690900DE004F090900D1E
:10359700E05403F0E59B30E143759B90539BFD900E
:1035A700900BE0FEA3E0FF909009E06E7003A3E0AC
:1035B7006F602474092FF58274883EF583E0F59CCB
:1035C70090900CE004F0700690900BE004F090905F
:1035D7000BE05403F08005909011E4F0D2AFD007D0
:0B35E700D006D0D0D082D083D0E032DC
:1036850090C37FEBF0A3EAF0A3E9F07D02E4FF121B
:1036950040D97D03E4FF123FFC7B017D02E4FF126C
:1036A50035F243C98075F1FFE4F5F275F36075F401
:1036B5000175F88F30FCFD90C37FE0FBA3E0FAA312
:1036C500E0F9120779F5FA900001120792F5FB90DF
:1036D5000002120792F5FC900003120792F5FDD245
:1036E500FE20FEFDE4F5FAF5FBF5FCF5FDD2FE2026
:1036F500FEFD75FAFF75FBFF75FCFF75FDFFD2FE3C
:1037050020FEFDE4F5F8758FA0E58F20E5FBD2B925
:013715002291
:10450600E5E830E51553E8DF438F407FE87E031288
:0B451600453F538FBFE490BA28F0220D
:1024720075F1FFE4F5F275F36475F40175F88F30C8
:10248200FCFD90BA27E075F00DA42424F582E5F056
:1024920034ADF583E0F5FAE4F5FBF5FCF5FDD2FE8B
:1024A20020FEFD90BA27E0FB75F00DA42425F582ED
:1024B200E5F034ADF583E0FCA3E0FDA3E0FEA3E08C
:1024C200FF7818120A9B8FFA75F00DEBA42425F5FC
:1024D20082E5F034ADF583E0FCA3E0FDA3E0FEA3CA
:1024E200E0FF7810120A9B8FFB90BA27E0FB75F091
:1024F2000DA42425F582E5F034ADF583E0FCA3E0DC
:10250200FDA3E0FEA3E0FF7808120A9B8FFC75F0A2
:102512000DEBA42425F582E5F034ADF583A3A3A346
:10252200E0F5FDD2FE20FEFD90BA27E0FF75F00D2A
:10253200A42429F582E5F034ADF583E0F5FA75F0CF
:102542000DEFA4242AF582E5F034ADF583E0F5FB26
:1025520090BA27E0FF75F00DA4242BF582E5F03444
:10256200ADF583E0F5FC75F00DEFA4242CF582E5C2
:10257200F034ADF583E0F5FDD2FE20FEFD90BA27E2
:10258200E0FF75F00DA4242DF582E5F034ADF5835E
:10259200E0F5FA75F00DEFA4242EF582E5F034ADE6
:1025A200F583E0F5FB90BA27E0FF75F00DA4242F28
:1025B200F582E5F034ADF583E0F5FC75F00DEFA49E
:1025C2002430F582E5F034ADF583E0F5FDD2FE204E
:0C25D200FEFD90BA27E004F0E4F5F822CA
:0617C80090C2E1120AC10B
:1017CE00D390C2E7E0940090C2E6E0940840030292
:1017DE001A3E90C2E5E0FB90C2E130E70FE0FCA3B9
:1017EE00E0FDA3E0FEA3E0FF7803800DE0FCA3E0A4
:1017FE00FDA3E0FEA3E0FF7815120AAE90C2F01230
:10180E000AC190BA26E0FA75F00DA42424F582E5FB
:10181E00F034ADF583E030E63890C2F0E0FCA3E0A2
:10182E00FDA3E0FEA3E0FF75F00DEAA42425F582EA
:10183E00E5F034ADF583120AC1EB54C0FF75F00D1F
:10184E00EAA42424F582E5F034ADF583EFF0021A14
:10185E002290C2E6E0FCA3E0FDAE047803CEC313F3
:10186E00CE13D8F990C2EEF0ED5407A3F0E490C277
:10187E00EDF090C2E5E054C0FFE4FCFDFE90C2F432
:10188E00120AC1E490C2EBF090C2EEE0FF90C2EB00
:10189E00E0C39F400302194D90C2F0E0FCA3E0FDAF
:1018AE00A3E0FEA3E0FF90BA26E0FB75F00DA424A2
:1018BE0025F582E5F034ADF583120AC190C2F4E04D
:1018CE00FCA3E0FDA3E0FEA3E04408FF75F00DEBE2
:1018DE00A42424F582E5F034ADF583EFF0E490C254
:1018EE00ECF090C2ECE0FFC39408504490C2E8E0E4
:1018FE00FBA3E0FAA3E0F990C2EDE0F58275830058
:10190E00120792FE90BA26E075F00DA42429F582F6
:10191E00E5F034ADF583E5822FF582E43583F5836A
:10192E00EEF090C2EDE004F090C2ECE004F080B274
:10193E0090BA26E004F090C2EBE004F00218969004
:10194E00C2EFE0FB7003021A28A3E0FCA3E0FDA3A4
:10195E00E0FEA3E0FF90BA26E075F00DA42425F575
:10196E0082E5F034ADF583120AC1AF0390C2F4A341
:10197E00E0F9A3E0FAA3E04FFF90BA26E075F00D70
:10198E00A42424F582E5F034ADF583EFF0E490C2A3
:10199E00ECF090C2EFE0FF90C2ECE0FEC39F50442B
:1019AE0090C2E8E0FBA3E0FAA3E0F990C2EDE0F507
:1019BE0082758300120792FF90BA26E075F00DA48F
:1019CE002429F582E5F034ADF583E5822EF582E427
:1019DE003583F583EFF090C2EDE004F090C2ECE0B9
:1019EE0004F080AE90C2ECE0FFC39408502690BA8B
:1019FE0026E075F00DA42429F582E5F034ADF583CB
:101A0E00E5822FF582E43583F583E4F090C2ECE0B5
:101A1E0004F080D090BA26E004F090BA28E070105E
:101A2E00C2AF122472D2AF90BA287401F0438F0461
:011A3E002285
:03004B0002146E2E
:10146E00C0E0C0F0C083C082C0D075D000C000C044
:0D147E0001C002C003C004C005C006C007C5
:10148B00C2AFE59130E70353913FE59120E60302AC
:10149B00176E5391BF75F1FF75F20075F36875F414
:1014AB000175F8AF30FCFDD2FE20FEFD90BEF3E5DA
:1014BB00FAF0E0FF90BA24E075F00DA42424F58235
:1014CB00E5F034A0F583EFF0D2FE20FEFD90BA24B8
:1014DB00E075F00DA42425F582E5F034A0F583C06A
:1014EB0083C082E0FCA3E0FDA3E0FEA3E0FF78084D
:1014FB00120AAED082D083120AC190BA24E075F0E2
:10150B000DA42425F582E5F034A0F583C083C082B9
:10151B00E0F8A3E0F9A3E0FAA3E0FBAFFAEB4FFF8F
:10152B00EAFEE9FDE8FCD082D083120AC190BA240E
:10153B00E075F00DA42425F582E5F034A0F583C009
:10154B0083C082E0FCA3E0FDA3E0FEA3E0FF7808EC
:10155B00120AAED082D083120AC190BA24E075F081
:10156B000DA42425F582E5F034A0F583C083C08259
:10157B00E0F8A3E0F9A3E0FAA3E0FBAFFBEB4FFF2E
:10158B00EAFEE9FDE8FCD082D083120AC190BA24AE
:10159B00E075F00DA42425F582E5F034A0F583C0A9
:1015AB0083C082E0FCA3E0FDA3E0FEA3E0FF78088C
:1015BB00120AAED082D083120AC190BA24E075F021
:1015CB000DA42425F582E5F034A0F583C083C082F9
:1015DB00E0F8A3E0F9A3E0FAA3E0FBAFFCEB4FFFCD
:1015EB00EAFEE9FDE8FCD082D083120AC190BA244E
:1015FB00E075F00DA42425F582E5F034A0F583C049
:10160B0083C082E0FCA3E0FDA3E0FEA3E0FF78082B
:10161B00120AAED082D083120AC190BA24E075F0C0
:10162B000DA42425F582E5F034A0F583C083C08298
:10163B00E0F8A3E0F9A3E0FAA3E0FBAFFDEB4FFF6B
:10164B00EAFEE9FDE8FCD082D083120AC190BA24ED
:10165B00E075F00DA42425F582E5F034A0F583C0E8
:10166B0083C082E0FCA3E0FDA3E0FEA3E0FF7803D0
:10167B00120A9BD082D083120AC190BEF3E020E7FE
:10168B002D90BA24E075F00DA42425F582E5F034F5
:10169B00A0F583C083C082E0FCA3E0FDA3E0FEA322
:1016AB00E0FF7812120A9BD082D083120AC190BE3F
:1016BB00F3E030E603021765D2FE20FEFD90BA245C
:1016CB00E0FF75F00DA42429F582E5F034A0F58335
:1016DB00E5FAF075F00DEFA4242AF582E5F034A0BD
:1016EB00F583E5FBF075F00DEFA4242BF582E5F007
:1016FB0034A0F583E5FCF075F00DEFA4242CF582F6
:10170B00E5F034A0F583E5FDF0D2FE20FEFD90BAA6
:10171B0024E0FF75F00DA4242DF582E5F034A0F53F
:10172B0083E5FAF075F00DEFA4242EF582E5F03485
:10173B00A0F583E5FBF075F00DEFA4242FF582E502
:10174B00F034A0F583E5FCF075F00DEFA42430F533
:10175B0082E5F034A0F583E5FDF075F80090BA242E
:10176B00E004F0E59130E51A5391DF90BA26E0FFE3
:10177B00A3E06F6008122472438F04800590BA288F
:10178B00E4F0E59130E4035391EFE59130E303533B
:10179B0091F7E59130E2065391FB438F0475E80016
:0217AB00D2AFBB
:1017AD00D007D006D005D004D003D002D001D00090
:0B17BD00D0D0D082D083D0F0D0E0323A
:103AC900737472696E67203100737472696E67204E
:103AD9003200463300002573253130640074657364
:103AE900740046340000737472696E6720340046AE
:103AF900350000463600002530325800FF4306FFE6
:103B0900429DFF448FFF3DA6FF44AEFF456DFF4632
:103B19005FFF465FFF465FFF465FFF465FFF465F09
:103B2900FF465FFF465FFF465FFF465F10001200DA
:0C3B3900140016001800200022002400D8
:1034BA00203622042200310020043204400435045C
:1034CA003C044F0020043F04400435043404320015
:1034DA002E0020043F0440043E0434044304320412
:1034EA003A0438002C0020000041BEAD0041BD481E
:1034FA000041BEE40042BEE8200042BEE1000041B5
:07350A00BD450041BD460074
:0A46400075F90175BCFD7590FD22AF
:01465F002238
:08336C0090C249EEF0A3EFF05E
:10337400A3E4F0A37403F0A3E4F0A37403F0E4A3C0
:10338400F0A3F0A3ECF0A3EDF0A37403F0A374FF97
:10339400F0ED2464FEE43CA3F0A3CEF074FFA3F0AC
:1033A400A3F0A3E4F0A304F02DFEE43CA3F0A3CE29
:1033B400F0A37403F0A374FEF0ED2463FEE43CA3D5
:1033C400F0A3CEF074FFA3F0A3F0A3E4F0A374027F
:1033D400F02DFEE43CA3F0A3CEF0A37403F0A37499
:1033E400FDF0ED2462FEE43CA3F0A3CEF074FFA351
:1033F400F0A3F0A3F0A3E4F07B017AC2794B90C070
:0D34040012F0A3741EF07F007E3002215CE8
:0B3EB60090C109EBF0A3EAF0A3E9F0D3
:103EC100124598EF04FFE4FEEEC39F502890C1090C
:103ED100E0FBA3E0FAA3E0F98E827583001207925A
:103EE100FDEE25E0240CF582E434C1F583E4F0A372
:103EF100EDF00E80D37B017AC1790C90C012E4F011
:0A3F0100A3EFF07F007E1102215CA7
:1043060090BEE2E0249CF090BEE1E034FFF0D3A33F
:10431600E0940090BEE1E06480948050077402F05F
:10432600A374BCF090BEE1E0FCA3E0FDE4FFFE0256
:02433600336CE6
:10429D0090BEE2E02464F090BEE1E03400F0E0B4C2
:1042AD00030CA3E0B42007E490BEE1F0A3F090BEB0
:1042BD00E1E0FCA3E0FDE4FFFE12336C7BFF7A3AF4
:0542CD0079C9023EB6B4
:10448F007BFF7A3A79D2123EB67BFF7A3A79DB908C
:0F449F00C012E4F0A37404F07F007E1202215CCF
:103DA60090C2BC74FFF0A3743AF0A374DFF0A3745E
:103DB600FFF0A3743AF0A374E6F090BD43E0FFA3CE
:103DC600E090C2C2CFF0A3EFF07B017AC2798712EE
:103DD600116E90BD44E004F0700690BD43E004F01F
:103DE6007B017AC27987123EB67BFF7A3A79EB90ED
:0F3DF600C012E4F0A37404F07F007E1202215C7F
:1044AE007BFF7A3A79EF123EB67BFF7A3A79F89033
:0F44BE00C012E4F0A37404F07F007E1202215CB0
:10456D007BFF7A3A79FC90C012E4F0A37404F07FDB
:06457D00007E1202215C29
:103D460090C208EEF0A3EFF0A3EBF0A3EAF0A3E92C
:013D5600F07C
:103D5700124598EF04FFE4FEEEC39F502890C20A75
:103D6700E0FBA3E0FAA3E0F98E82758300120792C5
:103D7700FDEE25E0240DF582E434C2F583E4F0A3DB
:103D8700EDF00E80D390C208E0FEA3E0FF7B017A3E
:0F3D9700C2790D90C012E4F0A3743CF002215CDD
:101FA90012422F1244EAD2AF124640122C1190BFAE
:101FB90034120ACD0001C2007F03123F0BE490BE28
:101FC900E7F090BEAEF090BD49F090BD47F01246E3
:011FD90034D3
:101FDA007B017ABE79F490BF38E4F0A37403F07FF2
:101FEA00167E00121C3690BEF4E0B45AE3E4F07B8D
:101FFA00017ABE79F690C012F0A304F07F167E0033
:03200A0012215C44
:10200D0090BEF5E0FF90BEFAE4F0A3EFF07B017A0D
:10201D00BE79FA90C012E4F0A304F07F007E401266
:10202D00215C7B017ABE79F690C012E4F0A37402B4
:08203D00F07F007E5212215CCD
:0720450090BEF5E014708E5F
:10204C00E490C059F090BEFAF090C0CFE0FBA3E052
:10205C00FAA3E0F9120779FF90BEFAE0FEC39F40A5
:10206C00030221379000011208B1FDACF0A80674F0
:10207C00017E00088005C333CE33CED8F9FFEE5C69
:10208C00FEEF5D4E700302212E900003120B2A907E
:10209C00BEFAE075F009A429F9EA35F0FA900001CE
:1020AC001208B1FFC390BEF7E09F90BEF6E095F02A
:1020BC00406A9000051208B1FFD390BEF7E09F90E4
:1020CC00BEF6E095F050559000031208B1FFC39096
:1020DC00BEF9E09F90BEF8E095F0404090000712EA
:1020EC0008B1FFD390BEF9E09F90BEF8E095F05098
:1020FC002B90BEFAE0FF90C0CFE0FBA3E0FAA3E088
:10210C00F99000061208B1FDACF0F58285F083124F
:10211C000B5E90C059E090C0D2F0800F90C059E097
:0B212C0004F090BEFAE004F002205521
:1021370090C059E0FF90BEFBE4F0A3EFF07B017A7B
:10214700BE79FB90C012E4F0A304F07F007E251255
:02215700215C09
:03215900021FDA88
:03465C00FF4660B6
:014660002237
:103BB600C2AFE4F5F1F5F275F30A75F40175F8AFE5
:103BC60030FCFDD2FE20FEFDAFFA90C386E4F0A3E2
:103BD600EFF0E07F00FE90C386F0A3EFF0ADFBEDC3
:103BE600FF90C386EEF0A3EFF0E4F5F8D2AF90C3F2
:103BF60086E0FEA3E0FF90465C75F003120AFEEE37
:103C060075F003A42583F583E493FB740193FA749A
:0D3C16000293F94A600789828A83120B5ECF
:013C2300227E
:044658000F4072009D
:10394700787B7CC37D017BFF7A4679587E007F04B4
:1039570012075390BF34120ACD0001C200E4FF12D0
:103967003F0B7B017AC3797B12368590BA297401A4
:10397700F0A37484F0A37400F0A37401F0A3748817
:10398700F0A37404F0A37401F0A37488F0A3740681
:10399700F0A37404F0A3E4F07B01A304F0A374BACA
:1039A700F0A3743FF0A3EBF0A374BBF0A3743FF054
:1039B700A3EBF0A374BBF0A37441F0A37401F0A3CD
:0239C700E4F02A
:0139C90022DB
:1039CA007B017ABB794390BF38E4F0A37402F07F9D
:1039DA00007E0F121C3690BB43E0645A7062F07B83
:1039EA00017ABB794390C012F0A37402F07F007E83
:1039FA000F12215C90BB46E0FDC394C840027D646F
:103A0A0090BB44E0FEA3E0FBAA0690BB43745AF0C5
:103A1A00A374A5F0ED25E02404A3F0A37483F0EACF
:103A2A00A3F0A3EBF0A3EDF0AE02AF037B017ABBE8
:103A3A00794A90BF38E4F0A3EDF0121C367F0122D8
:023A4A007F00FB
:013A4C002257
:0B0BCD0090C308EBF0A3EAF0A3E9F0EE
:100BD800C2AF900003120B2A120886FFAEF090C332
:100BE80013EEF0A3EFF0D2AF90C308E0FBA3E0FA56
:100BF800A3E0F9900006120B2A120886FDACF06FEC
:100C08007002EC6E7003021106C390C314E09D904D
:100C1800C313E09C90C308E0FBA3E0FAA3E0F950FB
:100C2800219000091208B1FF90C314E02FFF90C370
:100C380013E035F0CFC39DCF9C90C30BF0A3EFF02A
:100C4800801E900006120B2A120886FFC390C31458
:100C5800E09FFE90C313E095F090C30BF0A3CEF095
:100C6800C390C30CE0940690C30BE0940050037F3C
:100C7800002290C308E0FBA3E0FAA3E0F990000685
:100C8800120B2A120886FDACF090C308E0FBA3E023
:100C9800FAA3E0F9120B0A8D828C83120792FF9057
:100CA800C311E4F0A3EFF0E0F8E4F0E890C311F02A
:100CB800ED2401FFE43CFE90C315F0A3EFF090C3D0
:100CC80008E0FBA3E0FAA3E0F99000091208B1FDDF
:100CD800C3EF9DEE95F04007E490C315F0A3F01222
:100CE8000B0A90C315E0FEA3E0F5828E83120792EB
:100CF800FF90C311E0FEA3E04FFF90C311EEF0FE9A
:100D0800A3EFF064A57003EE645A60030210B1907B
:100D1800C308E0FBA3E0FAA3E0F9900006120B2A4F
:100D28001208862403FFE435F0FE90C315F0A3EF04
:100D3800F090C308E0FBA3E0FAA3E0F990000912E1
:100D480008B1FDC3EF9DEE95F04007E490C315F0A0
:100D5800A3F0120B0A90C315E0FEA3E0F5828E8380
:100D680012079264826003020EDF90C308E0FBA3BF
:100D7800E0FAA3E0F9900006120B2A120886240272
:100D8800FFE435F0FE90C315F0A3EFF090C308E040
:100D9800FBA3E0FAA3E0F99000091208B1FDC3EF44
:100DA8009DEE95F04007E490C315F0A3F090C308BA
:100DB800E0FBA3E0FAA3E0F9120B0A90C315E0FEEA
:100DC800A3E0F5828E831207922403FFE433FE909A
:100DD800C30DF0A3EFF0C390C30CE09F90C30BE0EA
:100DE8009E5003021106E490C30FF0A3F090C30DC8
:100DF800E0FEA3E0FFA3E0FCA3E0FDC39FEC9E4060
:100E080003020EAB90C308E0FBA3E0FAA3E0F9905D
:100E18000006120B2A120886FFAEF090C308E0FB0A
:100E2800A3E0FAA3E0F9120B0A8F828E83120792CD
:100E3800FF74432DF58274BB3CF583EFF090C30833
:100E4800E0FBA3E0FAA3E0F9900006120B2AE47590
:100E5800F0011208E990C308E0FBA3E0FAA3E0F967
:100E6800900006120B2A120886FFAEF090C308E025
:100E7800FBA3E0FAA3E0F99000091208B1FDC3EF63
:100E88009DEE95F0400C900006120B2AE4F5F01246
:100E9800092190C310E004F0700690C30FE004F03D
:100EA800020DF590BB47E0FEA3E0FF7B017ABB791A
:100EB8004990BB45E024FDC313FD90C012E4F0A3A4
:100EC800EDF012215C90BB457403F090BB47744F62
:100ED800F0A3744B02106290C308E0FBA3E0FAA3EE
:100EE800E0F9120B0A90C315E0FEA3E0F5828E83A9
:100EF8001207926483600302106690C308E0FBA3A4
:100F0800E0FAA3E0F9900006120B2A1208862402E0
:100F1800FFE435F0FE90C315F0A3EFF090C308E0AE
:100F2800FBA3E0FAA3E0F99000091208B1FDC3EFB2
:100F38009DEE95F04007E490C315F0A3F090C30828
:100F4800E0FBA3E0FAA3E0F9120B0A90C315E0FE58
:100F5800A3E0F5828E831207922403FFE433FE9008
:100F6800C30DF0A3EFF0C390C30CE09F90C30BE058
:100F78009E5003021106E490C30FF0A3F090C30D36
:100F8800E0FEA3E0FFA3E0FCA3E0FDC39FEC9E40CE
:100F98000302103B90C308E0FBA3E0FAA3E0F9903A
:100FA8000006120B2A120886FFAEF090C308E0FB79
:100FB800A3E0FAA3E0F9120B0A8F828E831207923C
:100FC800FF74432DF58274BB3CF583EFF090C308A2
:100FD800E0FBA3E0FAA3E0F9900006120B2AE475FF
:100FE800F0011208E990C308E0FBA3E0FAA3E0F9D6
:100FF800900006120B2A120886FFAEF090C308E094
:10100800FBA3E0FAA3E0F99000091208B1FDC3EFD1
:101018009DEE95F0400C900006120B2AE4F5F012B4
:10102800092190C310E004F0700690C30FE004F0AB
:10103800020F8590BB47E0FEA3E0FF7B017ABB79F6
:101048004AA3E0FD90BF38E4F0A3EDF0121C3690FF
:10105800BB49E025E0240490BB45F07F012290C302
:1010680008E0FBA3E0FAA3E0F9900006120B2AE4DB
:1010780075F0011208E990C308E0FBA3E0FAA3E0C9
:10108800F9900006120B2A120886FFAEF090C308EA
:10109800E0FBA3E0FAA3E0F99000091208B1FDC350
:1010A800EF9DEE95F04057804990C308E0FBA3E020
:1010B800FAA3E0F9900006120B2AE475F001120871
:1010C800E990C308E0FBA3E0FAA3E0F99000061258
:1010D8000B2A120886FFAEF090C308E0FBA3E0FAE3
:1010E800A3E0F99000091208B1FDC3EF9DEE95F059
:1010F800400C900006120B2AE4F5F01209217F003B
:0111080022C4
:1028AB0090BA25E0FF90BA24E06F700302294475BB
:1028BB00F00DEFA42425F582E5F034A0F583E0FCC0
:1028CB00A3E0FDA3E0FEA3E0FFE47B23FAF9F8C34A
:1028DB00120A8A705E90BA25E075F00DA42424F5D7
:1028EB0082E5F034A0F583E0540FFFE4FEEEC39FC6
:1028FB00504190BA25E075F00DA42429F582E5F03E
:10290B0034A0F583E5822EF582E43583F583E0FD73
:10291B0090BB3FE0FAA3E0243FF58274BA3AF5830B
:10292B00EDF090BB40E004F0700690BB3FE004F08C
:10293B000E80BA90BA25E004F01239CAEF64017028
:10294B004190BB45E02403FDE433FC7B017ABB796A
:10295B0043E4FF121DF6E490C2E5F090BB45E02482
:10296B0003FEE43390C2E6F0A3CEF0A37401F0A310
:10297B0074BBF0A37443F07F237E007D007C0012B8
:10298B0017C87B017ABA7929120BCDBF011590BB01
:10299B0045E02403FDE433FC7B017ABB7943E4FF80
:1029AB00121DF67B017ABA7934120BCDBF012CE4E0
:1029BB0090C2E5F090BB45E02403FEE43390C2E601
:1029CB00F0A3CEF0A37401F0A374BBF0A37443F097
:0B29DB007F247E007D007C001217C8E6
:0129E60022CE
:1045E600FF988103FF988104FF988101FF9881005D
:0345F60035112953
:02351100C109EE
:10316700E490C36DF0A3F0A374B0F0A374FAF0C2B7
:1031770090C2947F057E0012453FE490C371F090A2
:10318700C36FE0A330E704D2928002C292C2937F5A
:10319700057E0012453FD2937F057E0012453F9082
:1031A700C370E025E0F090C36FE033F090C371E0A7
:1031B70004F0E0C3941040C7D2947F057E00124507
:1031C7003FE490C371F0C2937F057E0012453FD262
:1031D700937F057E0012453F90C36EE025E0F09097
:1031E700C36DE033F0309107E0F0A3E04401F090C5
:1031F700C371E004F0E0C3941040CBD2907F057E0A
:0C3207000012453F90C36DE0FEA3E0FF05
:013213002298
:1030B800E490C372F0A3F0EFFF74FAA3CFF0A3EF8C
:1030C800F0C290C2947F057E0012453FE490C3761B
:1030D800F090C374E0A330E704D2928002C292C297
:1030E800937F057E0012453FD2937F057E001245EF
:1030F8003F90C375E025E0F090C374E033F090C3CF
:1031080076E004F0E0C3941040C7D2947F057E00B7
:1031180012453FE490C376F0C2937F057E001245C6
:103128003FD2937F057E0012453F90C373E025E0B0
:10313800F090C372E033F0309107E0F0A3E044016F
:10314800F090C376E004F0E0C3941040CBD2907FB7
:0E315800057E0012453F90C372E0FEA3E0FF2B
:013166002246
:103F5E0090BF3DEFF0C290C2947F057E0012453FA8
:103F6E00E490BF3CF090BF3DE030E704D292800277
:103F7E00C292C2937F057E0012453FD2937F057E8B
:103F8E000012453F90BF3DE025E0F090BF3CE004BD
:103F9E00F0E0C3940840CED2907F057E0002453FEC
:052DCB00E4FDFC7FB8EF
:102DD00090BF3DEFF0ECA3F0A3EDF0C290C2947F62
:102DE000057E0012453FE490BF3CF090BF3DE030CF
:102DF000E704D2928002C292C2937F057E00124500
:102E00003FD2937F057E0012453F90BF3DE025E015
:102E1000F090BF3CE004F0E0C3940840CED2947F31
:102E2000057E0012453FE490BF3CF090BF3FE0308C
:102E3000E704D2928002C292C2937F057E001245BF
:102E40003FD2937F057E0012453F90BF3FE025E0D3
:102E5000F090BF3CE004F0E0C3940840CEE490BFA3
:102E60003CF090BF3EE030E704D2928002C292C2B2
:102E7000937F057E0012453FD2937F057E00124569
:102E80003F90BF3EE025E0F090BF3CE004F0E0C39F
:0D2E9000940840CED2907F057E0002453FA1
:063411007BFF7D047C003E
:0B34170090BF33EBF0A3EAF0A3E9F054
:10342200AE04AF05A3EEF0A3EFF07FBC122DD09057
:10343200BF36E0FCA3E0FD7FBE122DD07FBF123F5E
:103442005EC290D2947F057E0012453F90BF3674D3
:10345200FFF5F012087045F0605190BF33E0FBA316
:10346200E475F001120870A9F0FA12077990BF39D9
:10347200F0E490BF38F090BF38E0C3940850CDA379
:10348200E030E704D2928002C292C2937F057E00AE
:1034920012453FD2937F057E0012453F90BF39E02F
:1034A20025E0F090BF38E004F080CBD2907F057E1B
:0434B2000002453F90
:1032C00090BF397401F0A374BFF0A37437F090BFBE
:1032D00037EFF0A3EDF090BF33E4F0A37402F0FDFC
:1032E0007C007FBC122DD090BF33E0FCA3E0FD7FBB
:1032F000BE122DD07FBF123F5EC290D2947F0F7E50
:103300000012453F90BF3374FFF5F012087045F08E
:10331000605190BF39E0FBA3E475F001120870A979
:10332000F0FA12077990BF36F0E490BF35F090BF05
:1033300035E0C3940850CDA3E030E704D292800278
:10334000C292C2937F0F7E0012453FD2937F0F7EC1
:103350000012453F90BF36E025E0F090BF35E00415
:0C336000F080CBD2907F0F7E0002453F32
:100103007A4579E6123411E4FD7F011232C0E4FD31
:100113007F021232C07D577F031232C07DD37F042A
:100123001232C0E4FD7F051232C07D117F06123208
:10013300C07D087F071232C0E4FD7F081232C0E49D
:10014300FD7F091232C07D3F7F0A1232C0E4FD7F7A
:100153000B1232C0E4FD7F0C1232C0E4FD7F0D129E
:1001630032C0E4FD7F0E1232C07D3F7F0F1232C0DA
:100173007D3F7F101232C0E4FD7F111232C0E4FDD7
:100183007F121232C0E4FD7F131232C0E4FD7F14EC
:100193001232C0E4FD7F151232C0E4FD7F16123225
:1001A300C0E4FD7F171232C0E4FD7F181232C0E4B1
:1001B300FD7F191232C0E4FD7F1A1232C0E4FD7FC5
:1001C3001B1232C0E4FD7F1C1232C0E4FD7F1D12FE
:1001D30032C07D407F1E1232C07D807F1F1232C02D
:1001E3007D067F201232C07D017F211232C0E4FDE3
:1001F3007F221232C0E4FD7F231232C0E4FD7F244C
:100203001232C0E4FD7F251232C0E4FD7F26123294
:10021300C0E4FD7F271232C07D337F281232C07DB8
:10022300337F291232C0E4FD7F2A1232C0E4FD7FFE
:100233002B1232C0E4FD7F2C1232C0E4FD7F2D125D
:1002430032C0E4FD7F2E1232C0E4FD7F2F1232C094
:10025300E4FD7F301232C0E4FD7F311232C0E4FD91
:100263007F321232C0E4FD7F331232C0E4FD7F34AB
:100273001232C0E4FD7F351232C0E4FD7F36123204
:10028300C0E4FD7F371232C07D787F381232C0E47C
:10029300FD7F391232C0E4FD7F3A1232C0E4FD7FA4
:1002A3003B1232C0E4FD7F3C1232C0E4FD7F3D12BD
:1002B30032C0E4FD7F3E1232C0E4FD7F3F1232C004
:1002C300E4FD7F401232C0E4FD7F411232C0E4FD01
:1002D3007F421232C0E4FD7F431232C0E4FD7F440B
:1002E3001232C0E4FD7F501232C07D237F5112329F
:1002F300C07D457F521232C07D677F531232C07D6D
:10030300897F541232C07DAB7F551232C07D017F8D
:10031300561232C07D237F571232C07D457F58125B
:1003230032C07D677F591232C07D897F5A1232C035
:100333007DAB7F5B1232C07DCD7F5C1232C07DEF1F
:100343007F5D1232C0E4FD7F5E1232C07D0D7F5FA0
:100353001232C07D0D7F601232C07D0C7F6112327C
:10036300C07D0C7F621232C07D0F7F631232C07D6D
:100373000F7F641232C07D0E7F651232C07D0E7F07
:10038300661232C07D087F671232C07D027F681219
:1003930032C07D027F691232C07D027F6A1232C091
:1003A3007D027F6B1232C07D027F6C1232C07D02F0
:1003B3007F6D1232C07D027F6E1232C07D027F6F6D
:1003C3001232C07D147F701232C07D157F711232DC
:1003D300C07D067F721232C07D027F731232C07DF0
:1003E300027F741232C07D0D7F751232C07D0D7F86
:1003F300761232C07D0C7F771232C07D0C7F78126B
:1004030032C07D0F7F791232C07D0F7F7A1232C0E6
:100413007D0E7F7B1232C07D0E7F7C1232C07D0841
:100423007F7D1232C07D027F7E1232C07D027F7FCC
:100433001232C07D027F801232C07D027F81123270
:10044300C07D027F821232C07D027F831232C07D63
:10045300027F841232C07D027F851232C07D147FF9
:10046300861232C07D157F871232C07D067F8812C7
:1004730032C07D027F891232C07D027F8A1232C070
:100483007A4579EA1234117D3B7F6E1232C07D5773
:100493007F6F1232C07D247F3A1232C07D1F7F8D61
:1004A3001232C07DBA7F871232C07DD17FB2123241
:1004B300C07D0B7F881232C07D017F381232C0E4C9
:1004C300FD7F391232C07D077FB51232C07D757F43
:1004D300311232C07D987F3B1232C07BFF7A45795F
:1004E300EE1234137D0A7F221232C07D097F31124E
:1004F30032C07D077F351232C07D677F531232C011
:100503007D847F551232C07D867F501232C07D823A
:100513007F511232C07D107F601232C0E4FD7F62D2
:100523001232C0E4FD7FA01232C07D127FA11232CD
:10053300C07D1F7FA21232C07D127FA31232C07D05
:10054300167FA41232C07D297FA51232C07D1E7F83
:10055300A61232C07D1F7FA71232C07D7E7FA812F4
:1005630032C07D1B7FA91232C07D287FAA1232C000
:100573007D6D7FAB1232C07D197FAC1232C07D1806
:100583007FAD1232C07D4C7FAE1232C07D1E7FAF75
:100593001232C07D237FB01232C07D527FB112323E
:1005A300C07D6D7FB21232C07D3F7FB31232C0E493
:1005B300FD7FC01232C07D127FC11232C07D207F09
:1005C300C21232C07D107FC31232C07D137FC412AA
:1005D30032C07D277FC51232C07D1B7FC61232C059
:1005E3007D1D7FC71232C07D757FC81232C07D1F4B
:1005F3007FC91232C07D287FCA1232C07D687FCB8B
:100603001232C07D1A7FCC1232C07D187FCD1232D8
:10061300C07D4D7FCE1232C07D257FCF1232C07D8B
:100623002E7FD01232C07D537FD11232C07D607FC6
:10063300D21232C07D3F7FD31232C07BFF7A45791D
:10064300F21234137BFF7A4579F67D017C00123474
:10065300177F8C7E001240917BFF7A4579F77D01ED
:100663007C001234177F787E001240917BFF7A451D
:1006730079F87D017C001234177FAA7E0002409135
:10436A007D067C087FB1122DD07D227C187FB21287
:10437A002DD07D127C687FB3122DD07D207C037FE7
:0D438A00B4122DD07D007C057FB5022DD032
:102C11007D507C007FB7122DD0122DCBE4FDFC7FBF
:102C2100B9122DD07D0A7C807FBA122DD07D067C11
:102C3100007FBB122DD07D017C007FB9122DD0E425
:102C4100FDFC7FDE122DD07D027C237FC9122DD0A9
:102C51007F0A7E001240911201037D517C017FB7F2
:102C6100122DD0122DCBE4FDFC7FB9122DD07D1594
:102C71007C807FBA122DD07D057C007FBB122DD0C8
:102C81007D017C007FB9122DD07D027C237FC9128A
:102C91002DD07F0A7E001240917D017C237FCA12D4
:102CA1002DD07D107C057FCB122DD07D057C107F32
:102CB100CC122DD07DFF7C007FD0122DD012436A23
:102CC1007DD37C007FB6122DD07D037C007FDE1288
:102CD1002DD07D047C007FD6122DD07D4B7C027FD0
:0E2CE100B7122DD07F3C7E00124091D2092206
:10433800000102030405060001020304050607083C
:10434800090A0B0C0D0E0F101516FF4338FF433FDB
:10435800FF4342FF4345FF4348FF434AFF434CFFA7
:024368004350C0
:1035130020405D07FFFF01C06C22EF03000101C0E3
:10352300EE38C103000101C0D338C103000101C05B
:103533001A38C102000101C05A38C102000101C09A
:10354300AB38C104000101C03538C102000101C01C
:03355300BD38C1BF
:103E0500E4FFE4FEEF75F008A4245DF8E6FDEEC3DB
:103E15009D5043EF75F003A42452F582E43443F535
:103E250083E493FB740193FA740293F98E8275838C
:103E350000120792FDEF75F008A42460F8860308C8
:103E4500E6FA08E6F975F009EEA4F58285F083ED4A
:0B3E55001207D10E80AE0FEFB408A7DB
:013E6000223F
:1027470090BF3DEEF0A3EFF0A3EBF0A3EAF0A3E90F
:01275700F091
:1027580090BF457424F0A37407F090BF437402F04F
:10276800E4A3F090BF42F090BF3FE0FBA3E0FAA3E0
:10277800E0F9120779FF90BF42E0FEC39F400302D1
:10278800286F9000011208B1FDACF0A80674017E14
:1027980000088005C333CE33CED8F9FFEE5CFEEFD8
:1027A8005D4E7003022866900003120B2A90BF4208
:1027B800E075F009A429F9EA35F0FA900001120849
:1027C800B1FF90BF43E025E02445F582E434BFF52E
:1027D80083E5F0F0A3EFF090BF43E004F090BF3F33
:1027E800E0FBA3E0FAA3E0F9900003120B2A90BFE4
:1027F80042E075F009A429F9EA35F0FA90000312CD
:1028080008B1FF90BF43E025E02445F582E434BFDA
:10281800F583E5F0F0A3EFF090BF43E004F090BF3C
:102828003FE0FBA3E0FAA3E0F9900003120B2A9023
:10283800BF42E075F009A4F58285F083120792FF84
:1028480090BF43E025E02445F582E434BFF583E4F6
:10285800F0A3EFF090BF43E004F0A3E004F090BFD2
:1028680042E004F002276F90BF44E0FF90BF47E4C6
:10287800F0A3EFF090BF43E0FD25E02445F582E4A6
:1028880034BFF58374FFF0A3E4F090BF3DE0FEA3EE
:10289800E0FF7B017ABF794590C012E4F0A3EDF028
:0328A80002215CAE
:0B25DE0090BF33EBF0A3EAF0A3E9F09C
:1025E90090BF37E4F0A37464F0E4A3F0A3F0A374FC
:1025F90002F0A374BCF0E490BF36F090BF33E0FB67
:10260900A3E0FAA3E0F9120779FF90BF36E0FEC311
:102619009F40030227229000011208B1FDACF0A8E7
:102629000674017E00088005C333CE33CED8F9FF86
:10263900EE5CFEEF5D4E700302271990BF39E0FC96
:10264900A3E0FD900003120B2A90BF36E075F00954
:10265900A4FFAEF029F9EA3EFA900001EC8DF012E0
:10266900094090BF3BE0FCA3E0FD90BF33E0FBA332
:10267900E0FAA3E0F9900003120B2AE92FF9EA3EE8
:10268900FA900003EC8DF012094090BF37E0FEA3E9
:10269900E0FF90BF3AE02FFD90BF39E03EFC90BFCC
:1026A90033E0FBA3E0FAA3E0F9900003120B2A90B0
:1026B900BF36E075F009A429F9EA35F0FA9000056A
:1026C900EC8DF012094090BF37E0FEA3E0FF90BF08
:1026D9003CE02FFD90BF3BE03EFC90BF33E0FBA305
:1026E900E0FAA3E0F9900003120B2A90BF36E075D7
:1026F900F009A429F9EA35F0FA900007EC8DF012F7
:10270900094090BF3AE02464F090BF39E03400F00A
:0927190090BF36E004F002260432
:1027220090BF33E0F9A3E0FAA3E090C0CFC9F0A3D1
:10273200EAF0A3E9F090BF33E0FBA3A3E0F97F0046
:052742007E9002274714
:0C463400123E057B007A00795D0225DE55
:1022EF00EF75F008A42465F9E4FB90BEF4F0A3CBDE
:0422FF00F0A3E9F06F
:1023030090BEF8E4F0A37464F090C059E0FF7E003F
:102313007C007D641207F390BEFAEEF0A3EFF0A306
:102323007402F0A37458F0E490BEF7F090BEF4E0AA
:10233300FBA3E0FAA3E0F9120779FF90BEF7E0FEF2
:10234300C39F400302244D9000011208B1FDACF07D
:10235300A80674017E00088005C333CE33CED8F9B6
:10236300FFEE5CFEEF5D4E700302244490BEFAE084
:10237300FCA3E0FD900003120B2A90BEF7E075F07A
:1023830009A4FFAEF029F9EA3EFA900001EC8DF0C2
:1023930012094090BEFCE0FCA3E0FD90BEF4E0FB1C
:1023A300A3E0FAA3E0F9900003120B2AE92FF9EA5C
:1023B3003EFA900003EC8DF012094090BEF8E0FE67
:1023C300A3E0FF90BEFBE02FFD90BEFAE03EFC9041
:1023D300BEF4E0FBA3E0FAA3E0F9900003120B2A9A
:1023E30090BEF7E075F009A429F9EA35F0FA9000F8
:1023F30005EC8DF012094090BEF8E0FEA3E0FF90DB
:10240300BEFDE02FFD90BEFCE03EFC90BEF4E0FB81
:10241300A3E0FAA3E0F9900003120B2A90BEF7E0C1
:1024230075F009A429F9EA35F0FA900007EC8DF06C
:1024330012094090BEFDE0249CF090BEFCE034FF06
:0A244300F090BEF7E004F002232F32
:10244D0090BEF4E0F9A3E0FAA3E090C0CFC9F0A3E9
:10245D00EAF0A3E9F090BEF4E0FBA3A3E0F97F005E
:05246D007E95022747E7
:0538C10090BEF4EFF0E1
:1038C600E4A3F0A3F07B017ABE79F590C012F0A3D1
:0938D60004F07F007E9512215CD4
:1038DF0090C0CFE0FBA3E0FAA3E0F9900003120B36
:1038EF002A90BEF4E075F009A4F58285F0831207E3
:1038FF0092FF90C0CFE0FBA3E0FAA3E0F9900003A2
:10390F00120B2A90BEF4E075F009A4F58285F083BE
:10391F00120792FF7860860308E6FA08E6F990C06E
:10392F00D2E075F009A4F58285F083EF1207D17B01
:08393F00007A00795D0225DE2B
:014661002236
:06464A0090C388EFF0228E
:014662002235
:030000000238358E
:0C383500787FE4F6D8FD75819C02387C99
:10384100021FA9E493A3F8E493A34003F68001F2D5
:1038510008DFF48029E493A3F85407240CC8C33388
:10386100C4540F4420C8834004F456800146F6DF57
:10387100E4800B01020408102040809034B6E47EFD
:10388100019360BCA3FF543F30E509541FFEE4934C
:10389100A360010ECF54C025E060A840B8E493A313
:1038A100FAE493A3F8E493A3C8C582C8CAC583CA3E
:1038B100F0A3C8C582C8CAC583CADFE9DEE780BEF6
:013556000074
:10068300E709F608DFFA8046E709F208DFFA803E59
:1006930088828C83E709F0A3DFFA8032E309F60846
:1006A300DFFA8078E309F208DFFA807088828C83AE
:1006B300E309F0A3DFFA806489828A83E0A3F60862
:1006C300DFFA805889828A83E0A3F208DFFA804C3C
:1006D30080D280FA80C680D4806980F28033801013
:1006E30080A680EA809A80A880DA80E280CA80337C
:1006F30089828A83ECFAE493A3C8C582C8CCC583F4
:10070300CCF0A3C8C582C8CCC583CCDFE9DEE780C3
:100713000D89828A83E493A3F608DFF9ECFAA9F042
:10072300EDFB2289828A83ECFAE0A3C8C582C8CC98
:10073300C583CCF0A3C8C582C8CCC583CCDFEADEB1
:10074300E880DB89828A83E493A3F208DFF980CC13
:1007530088F0EF60010E4E60C388F0ED2402B4040C
:100763000050B9F582EB2402B4040050AF232345B3
:0607730082239006D373FF
:10077900BB010689828A83E0225002E722BBFE027E
:09078900E32289828A83E49322B1
:10079200BB010CE58229F582E5833AF583E022501C
:1007A20006E92582F8E622BBFE06E92582F8E22266
:0D07B200E58229F582E5833AF583E4932280
:1007BF00BB010689828A83F0225002F722BBFE0119
:0207CF00F32213
:1007D100F8BB010DE58229F582E5833AF583E8F05E
:1007E100225006E92582C8F622BBFE05E92582C80A
:0207F100F222F2
:1007F300EF8DF0A4A8F0CF8CF0A428CE8DF0A42E1A
:02080300FE22D3
:10080500BC000BBE0029EF8DF084FFADF022E4CCD7
:10081500F875F008EF2FFFEE33FEEC33FCEE9DECA0
:10082500984005FCEE9DFE0FD5F0E9E4CEFD22EDE6
:10083500F8F5F0EE8420D21CFEADF075F008EF2F30
:10084500FFED33FD4007985006D5F0F222C398FD21
:050855000FD5F0EA22BE
:10085A00C5F0F8A3E028F0C5F0F8E5821582700229
:06086A001583E038F022C6
:10087000A3F8E0C5F025F0F0E5821582700215833B
:06088000E0C838F0E82298
:10088600BB010A89828A83E0F5F0A3E0225006873D
:10089600F009E71922BBFE07E3F5F009E3192289FF
:0B08A600828A83E493F5F07401932232
:1008B100BB0110E58229F582E5833AF583E0F5F085
:1008C100A3E0225009E92582F886F008E622BBFE62
:1008D1000AE92582F8E2F5F008E222E5832AF583A8
:0808E100E993F5F0A3E993226D
:1008E900BB010789828A8302085A500B09C5F02780
:1008F900F7C5F01937F722BBFE0D09F8E325F0F328
:10090900C5F019E338F322F889828A8374019325A3
:08091900F0C5F0F8E493382268
:10092100BB010A89828A83F0E5F0A3F0225006F721
:0F09310009A7F01922BBFE06F3E5F009F319221E
:10094000F8BB0111E58229F582E5833AF583E8F0E9
:10095000E5F0A3F0225009E92582C8F608A6F022A6
:0D096000BBFE09E92582C8F2E5F008F2228D
:10096D00E88FF0A4CC8BF0A42CFCE98EF0A42CFC29
:10097D008AF0EDA42CFCEA8EF0A4CDA8F08BF0A4A7
:10098D002DCC3825F0FDE98FF0A42CCD35F0FCEB06
:10099D008EF0A4FEA9F0EB8FF0A4CFC5F02ECD39CB
:0F09AD00FEE43CFCEAA42DCE35F0FDE43CFC2238
:1009BC0075F008758200EF2FFFEE33FECD33CDCCF2
:1009CC0033CCC58233C5829BED9AEC99E582984075
:1009DC000CF582EE9BFEED9AFDEC99FC0FD5F0D652
:1009EC00E4CEFBE4CDFAE4CCF9A88222B800C1B97C
:1009FC000059BA002DEC8BF084CFCECDFCE5F0CBBA
:100A0C00F97818EF2FFFEE33FEED33FDEC33FCEBF2
:100A1C0033FB10D703994004EB99FB0FD8E5E4F9AD
:100A2C00FA227818EF2FFFEE33FEED33FDEC33FC9A
:100A3C00C933C910D7059BE99A4007EC9BFCE99A8E
:100A4C00F90FD8E0E4C9FAE4CCFB2275F010EF2FD3
:100A5C00FFEE33FEED33FDCC33CCC833C810D707D3
:100A6C009BEC9AE899400AED9BFDEC9AFCE899F80E
:0E0A7C000FD5F0DAE4CDFBE4CCFAE4C8F922A1
:100A8A00EB9FF5F0EA9E42F0E99D42F0E89C45F0C2
:010A9A002239
:100A9B00E8600FECC313FCED13FDEE13FEEF13FF39
:030AAB00D8F1225D
:100AAE00E8600FEFC333FFEE33FEED33FDEC33FCA6
:030ABE00D8F1224A
:0C0AC100ECF0A3EDF0A3EEF0A3EFF022A8
:100ACD00A8828583F0D083D082120AE4120AE41240
:100ADD000AE4120AE4E473E493A3C583C5F0C58365
:100AED00C8C582C8F0A3C583C5F0C583C8C582C873
:010AFD0022D6
:0C0AFE00A42582F582E5F03583F5832203
:100B0A00BB010789828A83020B695005E9F8020B47
:100B1A0060BBFE05E9F8020B9289828A83020B9B6D
:100B2A00BB010DE58229F582E5833AF583020B695B
:100B3A005007E92582F8020B60BBFE07E92582F817
:100B4A00020B92E58229F582E5833AF583020B9B33
:060B5A008A838982E47326
:10110900E55824BCF582E434C2F583E00558229001
:10111900C2B930070390C2BCE475F001120B720228
:1011290007792000E97F2ED2008018EF540F249010
:10113900D43440D4FF30040BEF24BFB41A00500359
:101149002461FFE55960021559055CE55C700205EB
:101159005B30070E90C2B9E475F001120B72EF0211
:1011690007BF0243E77403D2078003E4C207F558B7
:1011790090C2B9120B89E4F559F55BF55CE5596044
:10118900077F2012114C80F5755AFFC201C200C2B7
:1011990002C203C205C206C208121118FF700D303F
:1011A90007057F0012115DAF5CAE5B22B4255FC2FB
:1011B900D5C204121118FF24D0B40A00501A75F0D0
:1011C9000A785930D50508B6FF0106C6A426F620C7
:1011D900D5047002D20380D924CFB41A00EF500489
:1011E900C2E5D20402135ED20180C6D20080C0D209
:1011F9000280BCD2D580BAD20580B47F2012114CAE
:101209002002077401B5590040F1121109FF1211AA
:101219004C021186D208D2068095121109FB1211CF
:1012290009FA121109F94A4B7006792F7A147BFFD2
:1012390020022EE559602A7E008E827583001207EE
:101249009260060EEE655A70F0C2D5EBC0E0EAC0B6
:10125900E0E9C0E0EE1213A5D0E0F9D0E0FAD0E061
:10126900FB120779FF60AAEBC0E0EAC0E0E9C0E041
:1012790012114CD0E02401F9D0E03400FAD0E0FB9F
:10128900E55A0460DCD55AD980877BFF7A1379A1A6
:10129900D202809C791080027908C206C2088008AF
:1012A900D2D5790A8004790AC2D5E55A047002F5C3
:1012B9005AE4FAFDFEFF121109FC7B082001131202
:1012C9001109FD7B1030000A121109FE121109FFE4
:1012D9007B20EC3382D592D55013C3E43000069FAE
:1012E900FFE49EFEE42001039DFDE49CFCE4CBF8B1
:1012F900C201EC700CCFCECDCCE824F8F870F380A5
:1013090017C3EF33FFEE33FEED33FDEC33FCEB3364
:10131900FB994002FB0FD8E9EB300105F8D0E0C496
:1013290048B201C0E00AEC4D4E4F78207B0070C2F4
:10133900EAB55A0040BCC0E01213A7D0F0D0E020B3
:101349000104C4C0E0C4B201C0F0121135D0F0D517
:10135900F0EB021186120BA7122353129D5811F4B8
:101369004C11F04212A14F12A94412A94912094382
:0813790012AF551293461293C6
:1013810045129347144F5011F82D11FC2E121F2BAB
:10139100120023121D2014382A11B8480000121718
:1013A1003F3F3F00790AA2D5200314300509B91047
:1013B100020404B9080104A2D52006025001042048
:1013C10002689202B559005034C0E07F2030031901
:1013D1007F30A20272067205500F1213FEC202C2C2
:1013E10006C205C2087F30800F300503E9C0E01254
:1013F100114C300503D0E0F9D0E0B559CC300517D8
:101401007F30B9100C12114C7F583004077F78805F
:1014110003B9080312114C3002057F2D02114C7FD4
:10142100202008F87F2B2006F322920280CF286E1D
:10143100756C6C2900D2011211093001F8C20178D2
:101441005930D50108F60211B82D504349581211EF
:10145100092403B405004001E490144A9312113D9C
:0D146100743A12113DD20375590402129D18
:10459800E4FFFE120779600C0FEF70010E09E97055
:0545A800F20A80EF2281
:090B6000E6FB08E6FA08E6F922BA
:090B6900E0FBA3E0FAA3E0F9228D
:100B7200F8E0FBA3A3E0F925F0F0E582158270020C
:070B82001583E0FA38F022B0
:090B8900EBF0A3EAF0A3E9F0226D
:090B9200E2FB08E2FA08E2F92294
:0C0B9B00E493FB740193FA740293F922B6
:100BA700D083D082F8E4937012740193700DA3A3DD
:100BB70093F8740193F5828883E4737402936860F1
:060BC700EFA3A3A380DFF1
:1043E700EFB40A07740D1243F2740A309811A899B2
:1043F700B8130CC2983098FDA899C298B811F63036
:0744070099FDC299F599220D
:00000001FF
