:0B00F800FFFF4457494E54350244E816
:0E2669007B0190C059E4F0A304F07F147E00C2
:1026770090C054EEF0A3EFF0A3EBF0A3EAF0A3E9C8
:01268700F062
:10268800E490C05BF0A3F0A3F0A3F0A3F0A3F0A341
:10269800F0A3F090C059E0FAA3E0FB4A70030228C7
:1026A8003690C054E0FEA3E0FFC3E49FFFE49EFE23
:1026B800E4FCFD90C0631212EAAF03AE02E4FCFD35
:1026C80090C063E0F8A3E0F9A3E0FAA3E0FBC3122B
:1026D800127A501190C063A3A3E0FFA3E090C05901
:1026E800CFF0A3EFF090C054E0FCA3E0FDECC313DF
:1026F800FFED1390C05BCFF0A3EFF0ED5401FFA303
:10270800E4F0A3EFF0C2AFE4F5F190C05BE0FCA306
:10271800E0FDECF5F28DF375F40175F8AF30FCFDD2
:1027280090C05DE07002A3E0603DD2FE20FEFD9007
:10273800C056E0FBA3E475F001121080A9F0FAE599
:10274800FC120FF190C056E0FBA3E475F0011210E3
:1027580080A9F0FAE5FD120FF190C05AE024FFF0CD
:1027680090C059E034FFF090C059E0FCA3E0FDECC4
:10277800C313FFED1390C05FCFF0A3EFF0ED54014A
:10278800FFA3E4F0A3EFF090C05F74FFF5F0121020
:102798008045F0605BD2FE20FEFD90C056E0FBA3B2
:1027A800E475F001121080A9F0FAE5FA120FF19021
:1027B800C056E0FBA3E475F001121080A9F0FAE519
:1027C800FB120FF190C056E0FBA3E475F001121064
:1027D80080A9F0FAE5FC120FF190C056E0FBA3E4E3
:1027E80075F001121080A9F0FAE5FD120FF180973B
:1027F80090C061E07002A3E0602FD2FE20FEFD9041
:10280800C056E0FBA3E475F001121080A9F0FAE5C8
:10281800FA120FF190C056E0FBA3E475F001121014
:0E28280080A9F0FAE5FB120FF1E4F5F8D2AF4B
:01283600227F
:102B890090C0C0EEF0A3EFF0A3EBF0A3EAF0A3E945
:012B9900F04B
:102B9A00E490C0C7F0A3F0A3F0A3F0A3F0A3F090D1
:102BAA00C0C5E07002A3E07003022D1B90C0C0E014
:102BBA00FEA3E0FFC3E49FFFE49EFED390C0C6E0FD
:102BCA009F90C0C5E09E4005EEF0A3EFF090C0C014
:102BDA00E0FAA3E0FBEAC313FCEB13FDEB5401FF9D
:102BEA0090C0C7E4F0A3EFF0C2AFE4F5F1ECF5F260
:102BFA00AF058FF375F40175F88330FCFD90C0C7FB
:102C0A00E07002A3E0603D90C0C2E0FBA3E475F06F
:102C1A0001121080A9F0FA120FABF5FC90C0C2E0C5
:102C2A00FBA3E475F001121080A9F0FA120FABF5BC
:102C3A00FDD2FE20FEFD90C0C6E024FFF090C0C584
:102C4A00E034FFF090C0C5E0FCA3E0FDECC313FF45
:102C5A00ED1390C0C9CFF0A3EFF0ED5401FFA3E448
:102C6A00F0A3EFF075F88F90C0C974FFF5F0121059
:102C7A008045F0605B90C0C2E0FBA3E475F00112EE
:102C8A001080A9F0FA120FABF5FA90C0C2E0FBA3CC
:102C9A00E475F001121080A9F0FA120FABF5FB905F
:102CAA00C0C2E0FBA3E475F001121080A9F0FA1289
:102CBA000FABF5FC90C0C2E0FBA3E475F001121063
:102CCA0080A9F0FA120FABF5FDD2FE30FE9980FB17
:102CDA0090C0CBE07002A3E0603275F88C90C0C25D
:102CEA00E0FBA3E475F001121080A9F0FA120FAB11
:102CFA00F5FA90C0C2E0FBA3E475F001121080A9B6
:102D0A00F0FA120FABF5FBD2FE20FEFDE4F5F8D285
:012D1A00AF09
:012D1B002295
:104E1800C2AFC2D3C2D4E4F58E75C870F5CDF5CC57
:104E280075CBBC75CACDD2ADD2C8F5937594017552
:104E3800950275C960F5F875F901F5A8F5B8F59A00
:074E4800F5A9F5B9024F3E88
:104F3E007F007E80E4F528F5290FEFAC0670010E98
:104F4E0014F5828C83E4F00529E52970020528B456
:074F5E0000E7E528B480E242
:014F65002229
:104FD70090C25D1212F655AA5AA57B017AC2795D75
:104FE70090C0C5E4F0A37402F07F047E00022B8911
:045104007FF47E01B5
:10510800EF4E6010E4FD0DEDC3941840F9EF1F70E9
:04511800EF1E80EC1A
:01511C002270
:1048F00090C1F6745AF0A374A5F0A3EEF0A3EFF004
:10490000A3EBF0A3EDF090C1F5E0600A90C1FCE4E8
:10491000F0A304F08007E490C1FCF0A3F07B017ADF
:10492000C179F690C0C5E4F0A37404F07FB07E00B6
:10493000122B891251047B017AC179F690C059E497
:10494000F0A304F07FB07E0012267790C1F6E070ED
:01495000E284
:014951002243
:054DD90090C249EFF05B
:104DDE007B017AC2794A90C059E4F0A37402F07F45
:104DEE00A07E0012267790C249E0A3F0A37401F0D2
:104DFE00E490C24DF07B017AC2794A90C0C5F0A30F
:0A4E0E007402F07FA07E00022B89E1
:10339F0090C0DDE0FB90C21FF090C0DEE0FCA3E028
:1033AF00FDA3E0FEA3E0FF781012128B90C220EF76
:1033BF00F090C0DEE0FCA3E0FDA3E0FEA3E0FF7809
:1033CF000812128B90C221EFF090C0DEA3A3A3E0EE
:1033DF0090C222F090C0E2E0FCA3E0FDEC90C2238B
:1033EF00F0A3EDF090C0E4E0FCA3E0FDEC90C2256B
:1033FF00F0A3EDF0EBB4A52890C0E6E0FBA3E0FA54
:10340F00A3E04A4B601A90C0E2E0FEA3E0FF90C039
:10341F00E6A3A3E0F990C0C5ECF0A3EDF0122B8961
:10342F007B017AC2791F90C0C5E4F0A37404F07FCA
:10343F00087E00122B891251047B017AC2791F90EA
:10344F00C059E4F0A304F07F087E0012267790C2E3
:10345F001FE070E290C0DDE0B45A2F90C0E6E0FBB1
:10346F00A3E0FAA3E04A4B602190C0E2E0FEA3E0A4
:10347F00FF90C0E6A3A3E0F990C0E4E0FDA3E090C5
:10348F00C059CDF0A3EDF01226777F327E00024CAB
:01349F0036F6
:1032760090C1FE745AF090C0CDE090C1FFF0640199
:10328600706790C0CEA3E090C200F090C0D0E0FC82
:10329600A3E0FDA3E0FEA3E0FF781012128B90C21C
:1032A60001EFF090C0D0E0FCA3E0FDA3E0FEA3E0B8
:1032B600FF780812128B90C202EFF090C0D0A3A341
:1032C600A3E090C203F090C0D4E0FCA3E0FDEC9034
:1032D600C204F0A3EDF090C0D6E0FCA3E0FDEC90B4
:1032E600C206F0A3EDF0E4803B90C0CDE06402702E
:1032F60037A3E0FCA3E0FDEC90C200F0A3EDF09054
:10330600C0D4E0FCA3E0FDEC90C202F0A3EDF09087
:10331600C0DBE0FCA3E0FDEC90C204F0A3EDF0E41A
:10332600A3F0A3F0A3F0A3F07B017AC179FE90C0CD
:10333600C5E4F0A37406F07FAA7E00122B89125111
:10334600047B017AC179FE90C059E4F0A304F07FB2
:10335600AA7E0012267790C1FEE070E290C0CDE012
:10336600B4012F90C0D8E0FBA3E0FAA3E04A4B607B
:103376002190C0D4E0FEA3E0FF90C0D8A3A3E0F95B
:1033860090C0D6E0FDA3E090C059CDF0A3EDF012B9
:0933960026777F327E00024C36DE
:0F51E8007AC2797012266990C270E0FEA3E0FFD0
:0151F7002295
:0846330090C237EEF0A3EFF096
:10463B00A3745AF0A37401F090C237E0FCA3E0FD21
:10464B00EC90C23BF0A3EDF07B017AC2793990C0BC
:10465B00C5E4F0A37402F07F847E00122B89125103
:10466B00047B017AC2793990C059E4F0A374021229
:10467B00267290C237E0FEA3E0FFA3E0B506DFA3EE
:10468B00E0B507DAE490C239F0A3F0A3F0A3F07B16
:10469B00017AC2793990C0C5F0A37402F07F167EFF
:0446AB0000022B8955
:084C360090C054EEF0A3EFF072
:104C3E00E4A3F0A3F090C054E0FEA3E0FFC390C045
:104C4E0057E09F90C056E09E5025E4FBFA7F017E10
:104C5E00001251080BBB00010ABA01F1BB2CEE90F9
:0F4C6E00C057E004F070CE90C056E004F080C64E
:014C7D002214
:104C7E00EF14601814602314602E2403703974012D
:104C8E00A805088002C333D8FC42B7227401A805D8
:104C9E00088002C333D8FC42BC227401A8050880E8
:104CAE0002C333D8FC42BD22AF057401A8070880A9
:084CBE0002C333D8FC42BE2200
:104B5800EF1460191460251460312403703D74014A
:104B6800A805088002C333D8FCF452B7227401A800
:104B780005088002C333D8FCF452BC227401A8058E
:104B8800088002C333D8FCF452BD22AF057401A8D3
:0C4B980007088002C333D8FCF452BE2290
:10425E00EF14602D14604A14606724036003024259
:10426E00F0EB600E7401A805088002C333D8FC423F
:10427E0080227401A805088002C333D8FCF4528052
:10428E0022EB600E7401A805088002C333D8FC42ED
:10429E0090227401A805088002C333D8FCF4529012
:1042AE0022EB600E7401A805088002C333D8FC42CD
:1042BE00A0227401A805088002C333D8FCF452A0D2
:1042CE0022EB600E7401A805088002C333D8FC42AD
:1042DE00B022AF057401A807088002C333D8FCF4DE
:0342EE0052B022A9
:104A1200EF14601A14602714603424037042740186
:104A2200A805088002C333D8FC5580FE8034740187
:104A3200A805088002C333D8FC5590FE8024740177
:104A4200A805088002C333D8FC55A0FE8014AF0528
:104A52007401A807088002C333D8FC55B0FE800257
:044A6200E4FEAF06B9
:014A6600222D
:103770007B017AC2792790C059E4F0A37404F07FEA
:10378000167E0012267790C227E0645A6003023842
:1037900035A3E0FFB40134A3E0FCA3E0FD90C0EE4C
:1037A000ECF0A3EDF090C0F4ECF0A3EDF090C22BA0
:1037B000E0FCA3E0FD90C0F2ECF0A3EDF090C119A5
:1037C000ECF0A3EDF0A37401F08030EFB403269089
:1037D000C0ECE0FFA3E090C119CFF0A3EFF090C0E0
:1037E000EAE0FFA3E090C0F4CFF0A3EFF090C11B9C
:1037F0007402F0800690C11B7403F090C229E0FFB0
:10380000A3E090C0EACFF0A3EFF090C22BE0FFA3BB
:10381000E090C0ECCFF0A3EFF0E490C227F07B0182
:103820007AC2792790C0C5F0A37402F07F167E009B
:10383000122B89801190C228E0FF64026003EF70B0
:0B38400005E490C11BF090C11BE0FFED
:01384B00225A
:0824800090C20AEEF0A3EFF098
:1024880012377090C20CEFF0700690C0E9F0FF228E
:1024980090C20CE0B4010F7AC079F012266990C09E
:1024A800E97401F0FF2290C0F0E0FEA3E0FF90C2C3
:1024B8000AE06E7003A3E06F60037F012290C0EA18
:1024C800E0FEA3E0FFC390C0EFE09FFF90C0EEE006
:1024D8009E90C11CF0A3EFF090C11CE0FCA3E0FDAE
:1024E800FFAE04121003EE3395E0FDFC90C20D120E
:1024F80012EA90C0ECE0FEA3E0FFC390C0F3E09FB7
:10250800FF90C0F2E09E90C11EF0A3EFF090C11EB4
:10251800E0FCA3E0FDFFAE04121003EE3395E0FDEE
:10252800FC90C2111212EA90C20CE0640270799019
:10253800C0E9E06401706B7F09FEFDFC90C211E008
:10254800F8A3E0F9A3E0FAA3E0FBC312127A501A49
:10255800E47F09FEFDFC90C20DE0F8A3E0F9A3E0DA
:10256800FAA3E0FBC312127A4038E47F02FEFDFCB6
:1025780090C211E0F8A3E0F9A3E0FAA3E0FB12117E
:102588005090C20DE0F8A3E0F9A3E0FAA3E0FBD372
:1025980012127A90C0E950057403F0FF227404F017
:1025A800FF2290C0E9E0FF2290C0E9E06401706E6C
:1025B8007F09FEFDFC90C211E0F8A3E0F9A3E0FA60
:1025C800A3E0FBC312127A501AE47F09FEFDFC90C7
:1025D800C20DE0F8A3E0F9A3E0FAA3E0FBC31212EE
:1025E8007A4038E47F02FEFDFC90C211E0F8A3E0D7
:1025F800F9A3E0FAA3E0FB12115090C20DE0F8A392
:10260800E0F9A3E0FAA3E0FBD312127A90C0E950F4
:10261800057403F080087404F080037F022290C0E0
:10262800E9E0B4031E90C0ECE0FEA3E0FFC390C154
:102638001AE09FFF90C119E09E90C122F0A3EFF02D
:102648007F052290C0EAE0FEA3E0FFC390C0F5E05A
:102658009FFF90C0F4E09E90C120F0A3EFF07F06AA
:01266800224F
:044BA40002180000F3
:10509400E4F51D758911F58CF58AC28CF51AF51C99
:0E50A400438901758CBC758ACDD2A9D28C22AD
:03000B000247A306
:0D47A300C0E0C0D075D000C000C006C00747
:1047B000C2AFE51D6002151D758CBC758ACD051B49
:1047C00075270074017E00A827088005C333CE3307
:1047D000CED8F9FFEF551C602DE52725E02408F819
:1047E00008E61618700116E52725E02408F8E6FE0D
:1047F00008E64E7011AF2704A807088002C333D81B
:0F480000FC421AF4521C0527E527B408B6D2AFC4
:0B480F00D007D006D000D0D0D0E0329F
:03002B0002517708
:10517700C0E0C2AFC2C6D2AF0519E5197002051863
:03518700D0E03243
:104FB500C2AF7401A807088002C333D8FCFE421CA7
:104FC500EF25E02408F8A60408A605EEF4521AD247
:024FD500AF2209
:10514D00C2AF7401A807088002C333D8FCF4521C07
:05515D00521AD2AF223E
:10518A00C2AF7401A807088002C333D8FC551AFFBE
:02519A00D2AF92
:01519C0022F0
:0B50B200D2B37F051250BDD2B27F05C3
:1050BD00EF600EE4FE0EC3EE648094B240F71F80E5
:0150CD00EFF3
:0150CE0022BF
:0452440053BEF7223C
:0452480043BE082237
:1050EA00125248D2B3D2B27F0F1250BDC2B37F0F51
:0A50FA001250BDC2B27F0F0250BD7C
:0A4FF7007F0F124E5FAF03124E5FF2
:10500100125248C2B3D2B27F0F1250BDD2B37F0F3A
:065011001250BD025244E2
:0F51F800125248C2B31250B4C2B27F050250BD6A
:0D5216001252481250B2C2B27F050250BDC4
:105037001252441250B2E4FD30B30A7F051250BD3C
:0F5047000DEDB432F3C2B27F051250BD025248D4
:104E4F00124E5FE0FF124E5F1250011250EA7F6464
:024E5F00AD079D
:104E6100125248E4FCED30E704D2B38002C2B3ED44
:104E710025E0FD1250B4C2B27F051250BD0CECB456
:054E810008E3025037B8
:0D4E86007F0F124E5F1250EA7F65124E5FE3
:104E9300125244E4FC1250B4ED25E0FD30B3054456
:104EA30001FD8004ED54FEFDC2B27F051250BD0C1E
:064EB300ECB408E1AF05BC
:014EB90022D6
:103D0C00124E5A124E86AB071251F8124E93AA0756
:103D1C00125216125001EB20E003023DBA5484609B
:103D2C000AEB547BFB124E5A124FF7EB54FEFBEA94
:103D3C0030E713547FFA124E5A7F10124E5FAF02C7
:103D4C00124E5F125001EA4480FA124E5A7F101242
:103D5C004E5FAF02124E5F125001EB4484FB124EC9
:103D6C005A7F0F124E5FAF03124E54E4FF124E5F98
:103D7C00E4FF124E5FE4FF124E5F7F80124E5F7FB6
:103D8C0005124E5F7F01124E5F7F01124E5F7F2145
:103D9C00124E5F125001EB547BFBEA547FFA124E29
:0E3DAC005A7F10124E5FAF02124E54124FF7A4
:013DBA0022E6
:103FC600124E5A124E8690C272EFF01251F8124EED
:103FD60093A3EFF0125216125001E04480F0124EF5
:103FE6005A7F10124E5FE0FF124E5F12500190C2D0
:103FF60072E04484F0124E5A7F0F124E4FE4FF12C5
:104006004E5F900006120FC4FF124E5F900005121D
:104016000FC4FF124E5F900004120FC4FF124E5FD2
:10402600900003120FC4FF124E5F900002120FC4DD
:10403600FF124E5F900001120FC4FF124E5F120F67
:10404600ABFF124E5F12500190C272E0547BF0A398
:10405600E0547FF0124E5A7F10124E4F7F0F124ED1
:0C4066005F90C272E0FF124E5F0250013A
:103B9C00124E5AE4FF124E5F1250EA7F65124E5FCE
:103BAC007B06124E9374152BF582E434C2F583EF29
:103BBC00F01251F8DBEC124E9390C215EFF012524A
:103BCC001612500190C219E0547FF0E4FB74152BCF
:103BDC00F582E434C2F583E0FFC4540FFE90C21D9D
:103BEC00F0EF540FFFA3F0EE75F00AA42FFF74153D
:103BFC002BF582E434C2F583EFF00BEBB403CE7BF0
:103C0C000474152BF582E434C2F583E0FFC4540F21
:103C1C00FE90C21DF0EF540FFFA3F0EE75F00AA456
:103C2C002FFF74152BF582E434C2F583EFF00BEB08
:103C3C00B407CEE490C21CF07B017AC2791590C017
:0D3C4C00C5F0A37404F07F107E00022B89E8
:10519D00EF75F00A84C454F0FEEF75F00A84E5F063
:0351AD004EFF2290
:0F520700EFC4540F75F00AA4FEEF540F2EFF22D0
:0743820090C24EEBF0AB0707
:10438900ED64016004EDB4021BED240CFEE43390EE
:10439900C24FF0A3CEF0EB24FFFEE434FFA3F0A359
:1043A900CEF08012AF0590C24FE4F0A3EFF0AF0357
:1043B900A3E4F0A3EFF090C250E02401FF90C24FB4
:1043C900E03400FE7C007D1A1210037D0A121015DC
:1043D900AC06AD0790C251E0FAA3E0FBAE02780249
:1043E900CEC313CE13D8F92BFFEA3ECF2DCF3CFE17
:1043F90090C24EE07C002FFFEC3ECF24DCCF34FF8F
:08440900FE7D07121015AF053E
:014411002288
:103DBB007B017AC179D290C059E4F0A37404F07FEF
:103DCB009C7E0012267790C1D2E0645A6003023EBB
:103DDB0069A3E064A56003023E69A3E0FF12519D55
:103DEB0090C1DAEFF090C1D5E0FF12519D90C1DB8D
:103DFB00EFF090C1D6E0FF12519D90C1DCEFF09037
:103E0B00C1D4E0FFA3E0FDA3E0FB12438290C1DD30
:103E1B00EFF090C1D7E0FF12519D90C1DEEFF0445F
:103E2B0080F090C1D8E0FF12519D90C1DFEFF09070
:103E3B00C1D9E0FF12519D90C1E0EFF07B017AC137
:103E4B0079DA123FC6E490C1D2F0A3F07AC179D2ED
:0E3E5B0090C0C5F0A304F07F9C7E00122B895E
:013E69002236
:10511D007D027F03124C7E7D037F03124C7E123B7A
:09512D009CE4F518F519023DBBE4
:104B0A00AB07AA06A905A8047F007E387D317C0080
:104B1A001211DBC3E49F90C05AF074049E90C059EE
:104B2A00F043C9407D04E4FF124C7E7D05E4FF1288
:104B3A004B5843803075D88075985090C059E0FC26
:0D4B4A00A3E0FDECF5BA8DAA43A810D2AC93
:014B5700223B
:104BED00AB07AA06A905A8047F007E707D627C0034
:104BFD001211DBC3E49F90C05AF074049E90C0590B
:104C0D00F043C9207D06E4FF124C7E7D07E4FF12C0
:104C1D004B584380C0759B9090C059E0FCA3E0FDBC
:084C2D00ECF5BB8D9D439A01DB
:014C3500225C
:104F6600759680759780AB07AA06A905A8047F00E9
:104F76007EC07D897C011211DBAD07AC06ECF5D94C
:074F8600AF058FE743B80CF3
:014F8D002201
:104D980075A78075AB80AB07AA06A905A8047F0094
:104DA8007EC07D897C011211DBAD07AC06ECF5AE47
:104DB800AF058FAF43B830E490A01BF0A3F0A3F089
:104DC800A3F090A023F090A01FF0A3F0A3F0A3F00D
:014DD80022B8
:104A6700EF14601B1460291460372403704490C04E
:104A770055E0FCA3E0FDA3E0FEA3E0FF024B0A9094
:104A8700C055E0FCA3E0FDA3E0FEA3E0FF024BED71
:104A970090C055E0FCA3E0FDA3E0FEA3E0FF024FBA
:104AA7006690C055E0FCA3E0FDA3E0FEA3E0FF1283
:034AB7004D9822F5
:1028370090C22FEFF0A3ECF0A3EDF0A3EBF0A3EA27
:04284700F0A3E9F021
:10284B00C2AFE4A3F0A3F090C230E0FEA3E0FFC35D
:10285B0090C236E09F90C235E09E400302290F9054
:10286B00C232E0FBA3E475F001121080A9F0FA125A
:10287B000FABFF90C22FE0FE75F009A42400F58288
:10288B00E5F03488F583EE75F008A42583F583E035
:10289B00FCA3E0FD75F009EEA42400F582E5F0340D
:1028AB0080F583EE75F008A42583F583E5822DF57D
:1028BB0082E5833CF583EFF075F009EEA42400F577
:1028CB0082E5F03488F583EE75F008A42583F58353
:1028DB00E475F00112106A75F009EEA42400F5827C
:1028EB00E5F03488F583EE75F008A42583F583E0D5
:1028FB005403F090C236E004F0700690C235E00449
:10290B00F002285290C22FE01460421460701470D1
:10291B00030229B7240360030229E7908808E060CB
:10292B00030229E704F0908802E0FEA3E02400F5FF
:10293B008274803EF583E0F599908803E004F07093
:10294B0006908802E004F09088020229E39090112F
:10295B00E060030229E704F090900BE0FEA3E02473
:10296B0009F58274883EF583E0F59C90900CE004A9
:10297B00F0700690900BE004F090900B805A9098BA
:10298B001AE0705804F0909814E0FEA3E02412F5BE
:10299B008274903EF583E0F59E909815E004F070FC
:1029AB0006909814E004F0909814802C90A023E0EB
:1029BB00702A04F090A01DE0FEA3E0241BF58274A6
:1029CB00983EF583E0F5AC90A01EE004F070069005
:0E29DB00A01DE004F090A01DE05403F0D2AF68
:0129E90022CB
:0300230002441282
:10441200C0E0C083C082C0D075D000C006C007C251
:10442200AF30982AC298908804E0FEA3E02400F5F9
:104432008274843EF583E599F0908805E004F0707B
:1044420006908804E004F0908804E05403F0309968
:104452003FC299908802E0FEA3E0FF908800E06EE0
:104462007003A3E06F602474002FF58274803EF520
:1044720083E0F599908803E004F07006908802E0EA
:1044820004F0908802E05403F08005908808E4F07C
:0F449200D2AFD007D006D0D0D082D083D0E032C6
:030053000249520D
:10495200C0E0C083C082C0D075D000C006C007C20C
:10496200AF5396FE909814E0FEA3E0FF909812E0F9
:104972006E7003A3E06F602474122FF58274903E70
:10498200F583E0F59E909815E004F0700690981477
:10499200E004F0909814E05403F0800590981AE433
:1049A200F0D2AFD007D006D0D0D082D083D0E032C0
:03005B00024CC68E
:104CC600C0E0C083C082C0D075D000C006C2AF535A
:104CD60097FE909816E0FEA3E02412F58274943EA7
:104CE600F583E59FF0909817E004F070069098160B
:104CF600E004F0909816E05403F0D2AFD006D0D07E
:074D0600D082D083D0E0321F
:030063000249B29D
:1049B200C0E0C083C082C0D075D000C006C007C2AC
:1049C200AF53A7FE90A01DE0FEA3E0FF90A01BE066
:1049D2006E7003A3E06F6024741B2FF58274983EFF
:1049E200F583E0F5AC90A01EE004F0700690A01DE7
:1049F200E004F090A01DE05403F0800590A023E4B1
:104A0200F0D2AFD007D006D0D0D082D083D0E0325F
:03006B00024D0D36
:104D0D00C0E0C083C082C0D075D000C006C2AF5312
:104D1D00ABFE90A01FE0FEA3E0241BF582749C3E29
:104D2D00F583E5ADF090A020E004F0700690A01F93
:104D3D00E004F090A01FE05403F0D2AFD006D0D025
:074D4D00D082D083D0E032D8
:030083000241C374
:1041C300C0E0C083C082C0D075D000C006C007C2A3
:1041D300AFE59B30E02E759B90539BFE90900DE0D6
:1041E300FEA3E02409F582748C3EF583E59CF090F0
:1041F300900EE004F0700690900DE004F090900DA6
:10420300E05403F0E59B30E143759B90539BFD9095
:10421300900BE0FEA3E0FF909009E06E7003A3E033
:104223006F602474092FF58274883EF583E0F59C52
:1042330090900CE004F0700690900BE004F09090E6
:104243000BE05403F08005909011E4F0D2AFD00757
:0B425300D006D0D0D082D083D0E03263
:1042F10090C26DEBF0A3EAF0A3E9F07D02E4FF12B6
:104301004C7E7D03E4FF124B587B017D02E4FF12DA
:10431100425E43C98075F1FFE4F5F275F36075F40F
:104321000175F88F30FCFD90C26DE0FBA3E0FAA3AC
:10433100E0F9120FABF5FA900001120FC4F5FB90F2
:104341000002120FC4F5FC900003120FC4F5FDD258
:10435100FE20FEFDE4F5FAF5FBF5FCF5FDD2FE20AD
:10436100FEFD75FAFF75FBFF75FCFF75FDFFD2FEC3
:1043710020FEFDE4F5F8758FA0E58F20E5FBD2B9AD
:014381002219
:1050CF00E5E830E51553E8DF438F407FE87E0312B4
:0B50DF005108538FBFE490BA28F02264
:102E920075F1FFE4F5F275F36475F40175F88F309E
:102EA200FCFD90BA27E075F00DA42424F582E5F02C
:102EB20034ADF583E0F5FAE4F5FBF5FCF5FDD2FE61
:102EC20020FEFD90BA27E0FB75F00DA42425F582C3
:102ED200E5F034ADF583E0FCA3E0FDA3E0FEA3E062
:102EE200FF781812128B8FFA75F00DEBA42425F5DA
:102EF20082E5F034ADF583E0FCA3E0FDA3E0FEA3A0
:102F0200E0FF781012128B8FFB90BA27E0FB75F06E
:102F12000DA42425F582E5F034ADF583E0FCA3E0B1
:102F2200FDA3E0FEA3E0FF780812128B8FFC75F080
:102F32000DEBA42425F582E5F034ADF583A3A3A31C
:102F4200E0F5FDD2FE20FEFD90BA27E0FF75F00D00
:102F5200A42429F582E5F034ADF583E0F5FA75F0A5
:102F62000DEFA4242AF582E5F034ADF583E0F5FBFC
:102F720090BA27E0FF75F00DA4242BF582E5F0341A
:102F8200ADF583E0F5FC75F00DEFA4242CF582E598
:102F9200F034ADF583E0F5FDD2FE20FEFD90BA27B8
:102FA200E0FF75F00DA4242DF582E5F034ADF58334
:102FB200E0F5FA75F00DEFA4242EF582E5F034ADBC
:102FC200F583E0F5FB90BA27E0FF75F00DA4242FFE
:102FD200F582E5F034ADF583E0F5FC75F00DEFA474
:102FE2002430F582E5F034ADF583E0F5FDD2FE2024
:0C2FF200FEFD90BA27E004F0E4F5F822A0
:0620130090C1A81212EAC0
:10201900D390C1AEE0940090C1ADE09408400302B2
:10202900228990C1ACE0FB90C1A830E70FE0FCA386
:10203900E0FDA3E0FEA3E0FF7803800DE0FCA3E050
:10204900FDA3E0FEA3E0FF781512129E90C1B7121E
:1020590012EA90BA26E0FA75F00DA42424F582E577
:10206900F034ADF583E030E63890C1B7E0FCA3E089
:10207900FDA3E0FEA3E0FF75F00DEAA42425F58297
:10208900E5F034ADF5831212EAEB54C0FF75F00D9B
:10209900EAA42424F582E5F034ADF583EFF00222B9
:1020A9006D90C1ADE0FCA3E0FDAE047803CEC3138F
:1020B900CE13D8F990C1B5F0ED5407A3F0E490C15F
:1020C900B4F090C1ACE054C0FFE4FCFDFE90C1BB8C
:1020D9001212EAE490C1B2F090C1B5E0FF90C1B22A
:1020E900E0C39F400302219890C1B7E0FCA3E0FD43
:1020F900A3E0FEA3E0FF90BA26E0FB75F00DA4244F
:1021090025F582E5F034ADF5831212EA90C1BBE002
:10211900FCA3E0FDA3E0FEA3E04408FF75F00DEB8E
:10212900A42424F582E5F034ADF583EFF0E490C101
:10213900B3F090C1B3E0FFC39408504490C1AFE03D
:10214900FBA3E0FAA3E0F990C1B4E0F5827583003E
:10215900120FC4FE90BA26E075F00DA42429F58269
:10216900E5F034ADF583E5822FF582E43583F58317
:10217900EEF090C1B4E004F090C1B3E004F080B295
:1021890090BA26E004F090C1B2E004F00220E19098
:10219900C1B6E0FB7003022273A3E0FCA3E0FDA338
:1021A900E0FEA3E0FF90BA26E075F00DA42425F522
:1021B90082E5F034ADF5831212EAAF0390C1BBA3F7
:1021C900E0F9A3E0FAA3E04FFF90BA26E075F00D1D
:1021D900A42424F582E5F034ADF583EFF0E490C151
:1021E900B3F090C1B6E0FF90C1B3E0FEC39F504485
:1021F90090C1AFE0FBA3E0FAA3E0F990C1B4E0F528
:1022090082758300120FC4FF90BA26E075F00DA401
:102219002429F582E5F034ADF583E5822EF582E4D3
:102229003583F583EFF090C1B4E004F090C1B3E0D9
:1022390004F080AE90C1B3E0FFC39408502690BA71
:1022490026E075F00DA42429F582E5F034ADF58377
:10225900E5822FF582E43583F583E4F090C1B3E09C
:1022690004F080D090BA26E004F090BA28E070100B
:10227900C2AF122E92D2AF90BA287401F0438F04E4
:012289002232
:03004B00021CB9DB
:101CB900C0E0C0F0C083C082C0D075D000C000C0F1
:0D1CC90001C002C003C004C005C006C00772
:101CD600C2AFE59130E70353913FE59120E6030259
:101CE6001FB95391BF75F1FF75F20075F36875F46E
:101CF6000175F8AF30FCFDD2FE20FEFD90C00CE56C
:101D0600FAF0E0FF90BA24E075F00DA42424F582E1
:101D1600E5F034A0F583EFF0D2FE20FEFD90BA2464
:101D2600E075F00DA42425F582E5F034A0F583C016
:101D360083C082E0FCA3E0FDA3E0FEA3E0FF7808F9
:101D460012129ED082D0831212EA90BA24E075F065
:101D56000DA42425F582E5F034A0F583C083C08266
:101D6600E0F8A3E0F9A3E0FAA3E0FBAFFAEB4FFF3C
:101D7600EAFEE9FDE8FCD082D0831212EA90BA248A
:101D8600E075F00DA42425F582E5F034A0F583C0B6
:101D960083C082E0FCA3E0FDA3E0FEA3E0FF780899
:101DA60012129ED082D0831212EA90BA24E075F005
:101DB6000DA42425F582E5F034A0F583C083C08206
:101DC600E0F8A3E0F9A3E0FAA3E0FBAFFBEB4FFFDB
:101DD600EAFEE9FDE8FCD082D0831212EA90BA242A
:101DE600E075F00DA42425F582E5F034A0F583C056
:101DF60083C082E0FCA3E0FDA3E0FEA3E0FF780839
:101E060012129ED082D0831212EA90BA24E075F0A4
:101E16000DA42425F582E5F034A0F583C083C082A5
:101E2600E0F8A3E0F9A3E0FAA3E0FBAFFCEB4FFF79
:101E3600EAFEE9FDE8FCD082D0831212EA90BA24C9
:101E4600E075F00DA42425F582E5F034A0F583C0F5
:101E560083C082E0FCA3E0FDA3E0FEA3E0FF7808D8
:101E660012129ED082D0831212EA90BA24E075F044
:101E76000DA42425F582E5F034A0F583C083C08245
:101E8600E0F8A3E0F9A3E0FAA3E0FBAFFDEB4FFF18
:101E9600EAFEE9FDE8FCD082D0831212EA90BA2469
:101EA600E075F00DA42425F582E5F034A0F583C095
:101EB60083C082E0FCA3E0FDA3E0FEA3E0FF78037D
:101EC60012128BD082D0831212EA90C00CE020E767
:101ED6002D90BA24E075F00DA42425F582E5F034A2
:101EE600A0F583C083C082E0FCA3E0FDA3E0FEA3CF
:101EF600E0FF781212128BD082D0831212EA90C0C1
:101F06000CE030E603021FB0D2FE20FEFD90BA249C
:101F1600E0FF75F00DA42429F582E5F034A0F583E1
:101F2600E5FAF075F00DEFA4242AF582E5F034A069
:101F3600F583E5FBF075F00DEFA4242BF582E5F0B3
:101F460034A0F583E5FCF075F00DEFA4242CF582A2
:101F5600E5F034A0F583E5FDF0D2FE20FEFD90BA53
:101F660024E0FF75F00DA4242DF582E5F034A0F5EC
:101F760083E5FAF075F00DEFA4242EF582E5F03432
:101F8600A0F583E5FBF075F00DEFA4242FF582E5AF
:101F9600F034A0F583E5FCF075F00DEFA42430F5E0
:101FA60082E5F034A0F583E5FDF075F80090BA24DB
:101FB600E004F0E59130E51A5391DF90BA26E0FF90
:101FC600A3E06F6008122E92438F04800590BA2812
:101FD600E4F0E59130E4035391EFE59130E30353E8
:101FE60091F7E59130E2065391FB438F0475E800C3
:021FF600D2AF68
:101FF800D007D006D005D004D003D002D001D0003D
:0B200800D0D0D082D083D0F0D0E032E6
:05523F0025303258008B
:0D4BA80042C008000041BF020041BF0300F1
:0A522F0075F90175BCFD7590FD22B4
:1051B00053A9FE53B9FEC289D288D2A8C28BD28A23
:0351C000D2AA224E
:030003000246AF03
:1046AF00C0E0C0F0C083C082C0D075D000C000C0D1
:1046BF0001C002C003C004C005C006C007C2AF7F5F
:1046CF00207E03125108E5B030E0F47F207E031204
:1046DF005108E5B030E0F47F2C7E01125108E5B0AF
:1046EF0030E0F4E5B020E10AE51DD39450400375A6
:1046FF001D647F017E00124C36C289C28BD2AFD0AF
:10470F0007D006D005D004D003D002D001D000D0FE
:0A471F00D0D082D083D0F0D0E03279
:0300130002472978
:10472900C0E0C0F0C083C082C0D075D000C000C056
:1047390001C002C003C004C005C006C007C2AF7FE4
:10474900207E03125108E5B030E1F47F207E031288
:104759005108E5B030E1F47F2C7E01125108E5B033
:1047690030E1F4E5B020E00AE51DD394504003752B
:104779001D647F017E00124C36C289C28BD2AFD034
:1047890007D006D005D004D003D002D001D000D084
:0A479900D0D082D083D0F0D0E032FF
:102D1C00124E18125094D2AF12522F12369290C0FB
:102D2C00551212F60001C2007F03124A67E490C0EC
:102D3C000AF090C005F090BF05F090BF04F01201AE
:012D4C000383
:102D4D007B017AC0791590C059E4F0A37403F07F2C
:102D5D00167E0012267790C015E0B45AE3E4F07B9E
:102D6D00017AC0791790C0C5F0A304F07F167E00DC
:032D7D00122B898D
:102D800090C016E0FF90C01BE4F0A3EFF07B017A47
:102D9000C0791790C0C5E4F0A37402F07F007E40B4
:102DA000122B897B017AC0791B90C0C5E4F0A30483
:082DB000F07F027E40122B8926
:072DB80090C016E014708EBC
:102DBF00E490C01BF090BD45E0FF90C01BE0FEC348
:102DCF009F4003022E6F75F009EEA42453F582E5A0
:102DDF00F034BDF583E0FEA3E0FF90C017E0FCA345
:102DEF00E0FDC39FEC9E406F90C01BE0FF75F009A4
:102DFF00A42457F582E5F034BDF583E0FAA3E0FB98
:102E0F00D3ED9BEC9A505075F009EFA42455F58241
:102E1F00E5F034BDF583E0FEA3E0FF90C019E0FCC0
:102E2F00A3E0FDC39FEC9E402EA3E0FF75F009A425
:102E3F002459F582E5F034BDF583E0FAA3E0FBD326
:102E4F00ED9BEC9A501190BD4EA3E0FAA3E0F582F2
:102E5F008A83121387800990C01BE004F0022DC4EF
:102E6F0090C01BE0FFA3E4F0A3EFF07B017AC079E1
:102E7F001C90C0C5E4F0A304F07F037E40122B89A1
:032E8F00022D4DC4
:03525000FF5253B7
:015253002238
:10481A00C2AFE4F5F1F5F275F30A75F40175F8AF74
:10482A0030FCFDD2FE20FEFDAFFA90C274E4F0A384
:10483A00EFF0E07F00FE90C274F0A3EFF0ADFBED65
:10484A00FF90C274EEF0A3EFF0E4F5F8D2AF90C295
:10485A0074E0FEA3E0FF90525075F003121327EEA6
:10486A0075F003A42583F583E493FB740193FA742A
:0D487A000293F94A600789828A831213872E
:01488700220E
:04524C000F4072009D
:10452D0078617CC27D017BFF7A52794C7E007F04DD
:10453D00120F8590C0551212F60001C200E4FF1251
:10454D004A677B017AC279611242F190BA297401EE
:10455D00F0A37484F0A37400F0A37401F0A3748825
:10456D00F0A37404F0A37401F0A37488F0A374068F
:10457D00F0A37404F0A3E4F07B01A304F0A374BAD8
:10458D00F0A3743FF0A3EBF0A374BBF0A3743FF062
:10459D00A3EBF0A374BBF0A37441F0A37401F0A3DB
:0245AD00E4F038
:0145AF0022E9
:1045B0007B017ABB794390C059E4F0A37402F07F89
:1045C000007E0F12267790BB43E0645A7062F07B46
:1045D000017ABB794390C0C5F0A37402F07F007EDE
:1045E0000F122B8990BB46E0FDC394C840027D6446
:1045F00090BB44E0FEA3E0FBAA0690BB43745AF0D4
:10460000A374A5F0ED25E02404A3F0A37483F0EADD
:10461000A3F0A3EBF0A3EDF0AE02AF037B017ABBF6
:10462000794A90C059E4F0A3EDF01226777F012279
:024630007F0009
:014632002265
:0B14180090C1E2EBF0A3EAF0A3E9F0C2
:10142300C2AF900003121353121096FFAEF090C197
:10143300EDEEF0A3EFF0D2AF90C1E2E0FBA3E0FA50
:10144300A3E0F9900006121353121096FDACF06F4F
:101453007002EC6E7003021951C390C1EEE09D90CF
:10146300C1EDE09C90C1E2E0FBA3E0FAA3E0F950F8
:10147300219000091210C1FF90C1EEE02FFF90C12F
:10148300EDE035F0CFC39DCF9C90C1E5F0A3EFF025
:10149300801E900006121353121096FFC390C1EEE4
:1014A300E09FFE90C1EDE095F090C1E5F0A3CEF092
:1014B300C390C1E6E0940690C1E5E0940050037F39
:1014C300002290C1E2E0FBA3E0FAA3E0F99000065A
:1014D300121353121096FDACF090C1E2E0FBA3E0AF
:1014E300FAA3E0F91213338D828C83120FC4FF9099
:1014F300C1EBE4F0A3EFF0E0F8E4F0E890C1EBF027
:10150300ED2401FFE43CFE90C1EFF0A3EFF090C1A6
:10151300E2E0FBA3E0FAA3E0F99000091210C1FD99
:10152300C3EF9DEE95F04007E490C1EFF0A3F012F6
:10153300133390C1EFE0FEA3E0F5828E83120FC454
:10154300FF90C1EBE0FEA3E04FFF90C1EBEEF0FE96
:10155300A3EFF064A57003EE645A60030218FC90D5
:10156300C1E2E0FBA3E0FAA3E0F9900006121353F3
:101573001210962403FFE435F0FE90C1EFF0A3EFC1
:10158300F090C1E2E0FBA3E0FAA3E0F990000912B6
:1015930010C1FDC3EF9DEE95F04007E490C1EFF05D
:1015A300A3F012133390C1EFE0FEA3E0F5828E8324
:1015B300120FC46482600302172A90C1E2E0FBA306
:1015C300E0FAA3E0F99000061213531210962402D6
:1015D300FFE435F0FE90C1EFF0A3EFF090C1E2E03D
:1015E300FBA3E0FAA3E0F99000091210C1FDC3EFD9
:1015F3009DEE95F04007E490C1EFF0A3F090C1E2B7
:10160300E0FBA3E0FAA3E0F912133390C1EFE0FE8D
:10161300A3E0F5828E83120FC42403FFE433FE900C
:10162300C1E7F0A3EFF0C390C1E6E09F90C1E5E00E
:101633009E5003021951E490C1E9F0A3F090C1E771
:10164300E0FEA3E0FFA3E0FCA3E0FDC39FEC9E400C
:10165300030216F690C1E2E0FBA3E0FAA3E0F990DF
:101663000006121353121096FFAEF090C1E2E0FB96
:10167300A3E0FAA3E0F91213338F828E83120FC40F
:10168300FF74432DF58274BB3CF583EFF090C1E208
:10169300E0FBA3E0FAA3E0F9900006121353E4750C
:1016A300F0011210F990C1E2E0FBA3E0FAA3E0F924
:1016B300900006121353121096FFAEF090C1E2E0B1
:1016C300FBA3E0FAA3E0F99000091210C1FDC3EFF8
:1016D3009DEE95F0400C900006121353E4F5F012C2
:1016E300113190C1EAE004F0700690C1E9E004F022
:1016F30002164090BB47E0FEA3E0FF7B017ABB7973
:101703004990BB45E024FDC313FD90C0C5E4F0A39D
:10171300EDF0122B8990BB457403F090BB47744FD7
:10172300F0A3744B0218AD90C1E2E0FBA3E0FAA36F
:10173300E0F912133390C1EFE0FEA3E0F5828E834C
:10174300120FC4648360030218B190C1E2E0FBA3EB
:10175300E0FAA3E0F9900006121353121096240244
:10176300FFE435F0FE90C1EFF0A3EFF090C1E2E0AB
:10177300FBA3E0FAA3E0F99000091210C1FDC3EF47
:101783009DEE95F04007E490C1EFF0A3F090C1E225
:10179300E0FBA3E0FAA3E0F912133390C1EFE0FEFC
:1017A300A3E0F5828E83120FC42403FFE433FE907B
:1017B300C1E7F0A3EFF0C390C1E6E09F90C1E5E07D
:1017C3009E5003021951E490C1E9F0A3F090C1E7E0
:1017D300E0FEA3E0FFA3E0FCA3E0FDC39FEC9E407B
:1017E3000302188690C1E2E0FBA3E0FAA3E0F990BC
:1017F3000006121353121096FFAEF090C1E2E0FB05
:10180300A3E0FAA3E0F91213338F828E83120FC47D
:10181300FF74432DF58274BB3CF583EFF090C1E276
:10182300E0FBA3E0FAA3E0F9900006121353E4757A
:10183300F0011210F990C1E2E0FBA3E0FAA3E0F992
:10184300900006121353121096FFAEF090C1E2E01F
:10185300FBA3E0FAA3E0F99000091210C1FDC3EF66
:101863009DEE95F0400C900006121353E4F5F01230
:10187300113190C1EAE004F0700690C1E9E004F090
:101883000217D090BB47E0FEA3E0FF7B017ABB7950
:101893004AA3E0FD90C059E4F0A3EDF0122677903F
:1018A300BB49E025E0240490BB45F07F012290C1B1
:1018B300E2E0FBA3E0FAA3E0F9900006121353E47D
:1018C30075F0011210F990C1E2E0FBA3E0FAA3E086
:1018D300F9900006121353121096FFAEF090C1E276
:1018E300E0FBA3E0FAA3E0F99000091210C1FDC3E5
:1018F300EF9DEE95F04057804990C1E2E0FBA3E0F5
:10190300FAA3E0F9900006121353E475F0011210E4
:10191300F990C1E2E0FBA3E0FAA3E0F9900006121C
:101923001353121096FFAEF090C1E2E0FBA3E0FA6E
:10193300A3E0F99000091210C1FDC3EF9DEE95F0ED
:10194300400C900006121353E4F5F01211317F009E
:011953002271
:102FFE0090BA25E0FF90BA24E06F70030230977507
:10300E00F00DEFA42425F582E5F034A0F583E0FC65
:10301E00A3E0FDA3E0FEA3E0FFE47B23FAF9F8C3EF
:10302E0012127A705E90BA25E075F00DA42424F584
:10303E0082E5F034A0F583E0540FFFE4FEEEC39F6B
:10304E00504190BA25E075F00DA42429F582E5F0E3
:10305E0034A0F583E5822EF582E43583F583E0FD19
:10306E0090BB3FE0FAA3E0243FF58274BA3AF583B1
:10307E00EDF090BB40E004F0700690BB3FE004F032
:10308E000E80BA90BA25E004F01245B0EF640170DC
:10309E004190BB45E02403FDE433FC7B017ABB7910
:1030AE0043E4FF122837E490C1ACF090BB45E02416
:1030BE0003FEE43390C1ADF0A3CEF0A37401F0A3F0
:1030CE0074BBF0A37443F07F237E007D007C00125E
:1030DE0020137B017ABA7929121418BF011590BBFF
:1030EE0045E02403FDE433FC7B017ABB7943E4FF26
:1030FE001228377B017ABA7934121418BF012CE4E6
:10310E0090C1ACF090BB45E02403FEE43390C1AD1A
:10311E00F0A3CEF0A37401F0A374BBF0A37443F03C
:0B312E007F247E007D007C0012201337
:013139002273
:1051C300FF988103FF988104FF988101FF98810074
:0351D3003511296A
:024BB500C10934
:103F1900E490C253F0A3F0A374B0F0A374FAF0C212
:103F290090C2947F057E00125108E490C257F09028
:103F3900C255E0A330E704D2928002C292C2937FB5
:103F4900057E00125108D2937F057E001251089018
:103F5900C256E025E0F090C255E033F090C257E038
:103F690004F0E0C3941040C7D2947F057E0012513B
:103F790008E490C257F0C2937F057E00125108D21F
:103F8900937F057E0012510890C254E025E0F0901D
:103F9900C253E033F0309107E0F0A3E04401F09020
:103FA900C257E004F0E0C3941040CBD2907F057E65
:0C3FB9000012510890C253E0FEA3E0FF8C
:013FC50022D9
:103E6A00E490C258F0A3F0EFFF74FAA3CFF0A3EFE7
:103E7A00F0C290C2947F057E00125108E490C25CA1
:103E8A00F090C25AE0A330E704D2928002C292C2F2
:103E9A00937F057E00125108D2937F057E0012514E
:103EAA000890C25BE025E0F090C25AE033F090C27D
:103EBA005CE004F0E0C3941040C7D2947F057E0012
:103ECA00125108E490C25CF0C2937F057E00125141
:103EDA0008D2937F057E0012510890C259E025E06E
:103EEA00F090C258E033F0309107E0F0A3E04401CB
:103EFA00F090C25CE004F0E0C3941040CBD2907F13
:0E3F0A00057E0012510890C258E0FEA3E0FFB1
:013F18002286
:104ABA0090C05EEFF0C290C2947F057E001251084A
:104ACA00E490C05DF090C05EE030E704D2928002CC
:104ADA00C292C2937F057E00125108D2937F057E4F
:104AEA000012510890C05EE025E0F090C05DE0043D
:104AFA00F0E0C3940840CED2907F057E00025108B0
:0539FA00E4FDFC7FB8B4
:1039FF0090C05EEFF0ECA3F0A3EDF0C290C2947F05
:103A0F00057E00125108E490C05DF090C05EE0307A
:103A1F00E704D2928002C292C2937F057E001251B8
:103A2F0008D2937F057E0012510890C05EE025E01A
:103A3F00F090C05DE004F0E0C3940840CED2947FD4
:103A4F00057E00125108E490C05DF090C060E03038
:103A5F00E704D2928002C292C2937F057E00125178
:103A6F0008D2937F057E0012510890C060E025E0D8
:103A7F00F090C05DE004F0E0C3940840CEE490C045
:103A8F005DF090C05FE030E704D2928002C292C234
:103A9F00937F057E00125108D2937F057E0012514D
:103AAF000890C05FE025E0F090C05DE004F0E0C357
:0D3ABF00940840CED2907F057E0002510891
:06411E007BFF7D047C0024
:0B41240090C054EBF0A3EAF0A3E9F018
:10412F00AE04AF05A3EEF0A3EFF07FBC1239FF9002
:10413F00C057E0FCA3E0FD7FBE1239FF7FBF124ADC
:10414F00BAC290D2947F057E0012510890C0577466
:10415F00FFF5F012108045F0605190C054E0FBA3C2
:10416F00E475F001121080A9F0FA120FAB90C05A4B
:10417F00F0E490C059F090C059E0C3940850CDA31B
:10418F00E030E704D2928002C292C2937F057E0094
:10419F00125108D2937F057E0012510890C05AE049
:1041AF0025E0F090C059E004F080CBD2907F057EDF
:0441BF0000025108A1
:1040720090C05A7401F0A374C0F0A37458F090C0B9
:1040820058EFF0A3EDF090C054E4F0A37402F0FDF9
:104092007C007FBC1239FF90C054E0FCA3E0FD7F9E
:1040A200BE1239FF7FBF124ABAC290D2947F0F7EEE
:1040B2000012510890C05474FFF5F012108045F0C0
:1040C200605190C05AE0FBA3E475F001121080A980
:1040D200F0FA120FAB90C057F0E490C056F090C0C7
:1040E20056E0C3940850CDA3E030E704D292800298
:1040F200C292C2937F0F7E00125108D2937F0F7E2D
:104102000012510890C057E025E0F090C056E0043C
:0C411200F080CBD2907F0F7E000251089D
:100935007A5179C312411EE4FD7F01124072E4FD34
:100945007F021240727D577F031240727DD37F0470
:10095500124072E4FD7F051240727D117F06124040
:10096500727D087F07124072E4FD7F08124072E431
:10097500FD7F091240727D3F7F0A124072E4FD7FC0
:100985000B124072E4FD7F0C124072E4FD7F0D12E4
:100995004072E4FD7F0E1240727D3F7F0F12407260
:1009A5007D3F7F10124072E4FD7F11124072E4FD1D
:1009B5007F12124072E4FD7F13124072E4FD7F1432
:1009C500124072E4FD7F15124072E4FD7F1612405D
:1009D50072E4FD7F17124072E4FD7F18124072E445
:1009E500FD7F19124072E4FD7F1A124072E4FD7F0B
:1009F5001B124072E4FD7F1C124072E4FD7F1D1244
:100A050040727D407F1E1240727D807F1F124072B2
:100A15007D067F201240727D017F21124072E4FD28
:100A25007F22124072E4FD7F23124072E4FD7F2491
:100A3500124072E4FD7F25124072E4FD7F261240CC
:100A450072E4FD7F271240727D337F281240727D4C
:100A5500337F29124072E4FD7F2A124072E4FD7F44
:100A65002B124072E4FD7F2C124072E4FD7F2D12A3
:100A75004072E4FD7F2E124072E4FD7F2F1240721A
:100A8500E4FD7F30124072E4FD7F31124072E4FDD7
:100A95007F32124072E4FD7F33124072E4FD7F34F1
:100AA500124072E4FD7F35124072E4FD7F3612403C
:100AB50072E4FD7F371240727D787F38124072E410
:100AC500FD7F39124072E4FD7F3A124072E4FD7FEA
:100AD5003B124072E4FD7F3C124072E4FD7F3D1203
:100AE5004072E4FD7F3E124072E4FD7F3F1240728A
:100AF500E4FD7F40124072E4FD7F41124072E4FD47
:100B05007F42124072E4FD7F43124072E4FD7F4450
:100B1500124072E4FD7F501240727D237F511240D6
:100B2500727D457F521240727D677F531240727D00
:100B3500897F541240727DAB7F551240727D017FD3
:100B4500561240727D237F571240727D457F5812A1
:100B550040727D677F591240727D897F5A124072BB
:100B65007DAB7F5B1240727DCD7F5C1240727DEF65
:100B75007F5D124072E4FD7F5E1240727D0D7F5FE6
:100B85001240727D0D7F601240727D0C7F611240B4
:100B9500727D0C7F621240727D0F7F631240727D01
:100BA5000F7F641240727D0E7F651240727D0E7F4D
:100BB500661240727D087F671240727D027F68125F
:100BC50040727D027F691240727D027F6A12407217
:100BD5007D027F6B1240727D027F6C1240727D0236
:100BE5007F6D1240727D027F6E1240727D027F6FB3
:100BF5001240727D147F701240727D157F71124014
:100C0500727D067F721240727D027F731240727D83
:100C1500027F741240727D0D7F751240727D0D7FCB
:100C2500761240727D0C7F771240727D0C7F7812B0
:100C350040727D0F7F791240727D0F7F7A1240726C
:100C45007D0E7F7B1240727D0E7F7C1240727D0887
:100C55007F7D1240727D027F7E1240727D027F7F12
:100C65001240727D027F801240727D027F811240A8
:100C7500727D027F821240727D027F831240727DF7
:100C8500027F841240727D027F851240727D147F3F
:100C9500861240727D157F871240727D067F88120D
:100CA50040727D027F891240727D027F8A124072F6
:100CB5007A5179C712411E7D3B7F6E1240727D5776
:100CC5007F6F1240727D247F3A1240727D1F7F8DA7
:100CD5001240727DBA7F871240727DD17FB2124079
:100CE500727D0B7F881240727D017F38124072E45D
:100CF500FD7F391240727D077FB51240727D757F89
:100D0500311240727D987F3B1240727BFF7A517998
:100D1500CB1241207D0A7F221240727D097F31125C
:100D250040727D077F351240727D677F5312407296
:100D35007D847F551240727D867F501240727D8280
:100D45007F511240727D107F60124072E4FD7F6218
:100D5500124072E4FD7FA01240727D127FA1124005
:100D6500727D1F7FA21240727D127FA31240727D99
:100D7500167FA41240727D297FA51240727D1E7FC9
:100D8500A61240727D1F7FA71240727D7E7FA8123A
:100D950040727D1B7FA91240727D287FAA12407286
:100DA5007D6D7FAB1240727D197FAC1240727D184C
:100DB5007FAD1240727D4C7FAE1240727D1E7FAFBB
:100DC5001240727D237FB01240727D527FB1124076
:100DD500727D6D7FB21240727D3F7FB3124072E427
:100DE500FD7FC01240727D127FC11240727D207F4F
:100DF500C21240727D107FC31240727D137FC412F0
:100E050040727D277FC51240727D1B7FC6124072DE
:100E15007D1D7FC71240727D757FC81240727D1F90
:100E25007FC91240727D287FCA1240727D687FCBD0
:100E35001240727D1A7FCC1240727D187FCD124010
:100E4500727D4D7FCE1240727D257FCF1240727D1F
:100E55002E7FD01240727D537FD11240727D607F0C
:100E6500D21240727D3F7FD31240727BFF7A517957
:100E7500CF1241207BFF7A5179D37D017C0012414D
:100E8500247F8C7E00124C367BFF7A5179D47D010C
:100E95007C001241247F787E00124C367BFF7A510C
:100EA50079D57D017C001241247FAA7E00024C3653
:104EE8007D067C087FB11239FF7D227C187FB212C3
:104EF80039FF7D127C687FB31239FF7D207C037FE8
:0D4F0800B41239FF7D007C057FB50239FF32
:103692007D507C007FB71239FF1239FAE4FDFC7FBE
:1036A200B91239FF7D0A7C807FBA1239FF7D067C10
:1036B200007FBB1239FF7D017C007FB91239FFE424
:1036C200FDFC7FDE1239FF7D027C237FC91239FFA8
:1036D2007F0A7E00124C361209357D517C017FB77C
:1036E2001239FF1239FAE4FDFC7FB91239FF7D1558
:1036F2007C807FBA1239FF7D057C007FBB1239FFC7
:103702007D017C007FB91239FF7D027C237FC912C3
:1037120039FF7F0A7E00124C367D017C237FCA125C
:1037220039FF7D107C057FCB1239FF7D057C107F30
:10373200CC1239FF7DFF7C007FD01239FF124EE898
:103742007DD37C007FB61239FF7D037C007FDE12C1
:1037520039FF7D047C007FD61239FF7D4B7C027FCE
:0E376200B71239FF7F3C7E00124C36D209228E
:104EBA0003FFFFBF03FFFCBF0000306F00000007C5
:104ECA00000003800000007800000C0000003000A1
:0E4EDA0000F00000000FC00003000000008088
:104BB70041BD440D41BD479641BD487841BD49645B
:104BC700042B0210548941BD510041BD4600012A02
:054BD7001C41BD43007C
:0552230090C27CEFF0D9
:0652280090BD43E004F01C
:01522E00225D
:0E29EA0090C1C0ECF0A3EDF0A3EAF0A3EBF077
:1029F800E490C1CEF0A3F0A3F0A3F0EF904EE66010
:102A080012E493FE740193FFC3E49FFFE49E90C118
:102A1800D0800AE493FF74019390C1CECFF0A3EF66
:102A2800F0E490C1CDF090BD45F0E4FFFEFDFC90D0
:102A3800C1C4E0F8A3E0F9A3E0FAA3E0FBC31212D3
:102A48007A7003022B5C90C1C4A3A3A3E05401FFD6
:102A5800E4EF7003022B3A90C1CDE0FF90BD45E052
:102A6800FE75F009A42452F582E5F034BDF583EF34
:102A7800F090C1C0E0FCA3E0FD75F009EEA424537A
:102A8800F582E5F034BDF583ECF0A3EDF090C1C21A
:102A9800E0FEA3E0FF90BD45E0FD75F009A42455D4
:102AA800F582E5F034BDF583EEF0A3EFF0904EE645
:102AB800E493FE740193FF90C1C1E02FFF90C1C061
:102AC800E03EFE75F009EDA42457F582E5F034BD2B
:102AD800F583EEF0A3EFF0904EE6E493FE740193D5
:102AE800FF90C1C3E02FFF90C1C2E03EFE90BD45FC
:102AF800E075F009A42459F582E5F034BDF583EEBC
:102B0800F0A3EFF090C1CEE0FEA3E0FF90C1C1E0DA
:102B18002FF090C1C0E03EF090C1D0E0FEA3E0FFEE
:102B280090C1C3E02FF090C1C2E03EF090BD45E0F7
:102B380004F090C1C4E0FCA3E0FDA3E0FEA3E0FF25
:102B4800780112128B90C1C41212EA90C1CDE00430
:102B5800F0022A3290C1CAE0F9A3E0FAA3E090BDDE
:102B68004EC9F0A3EAF0A3E9F0E490C1CDF090BD1E
:102B780045E0FF90C1CDE0C39F5005E004F080EE32
:012B8800222A
:0534A00090C23DEFF0B9
:1034A500E490C242F090C242E0FBC394084003029C
:1034B500359FE47F01FEFDFC90C23DE075F009A457
:1034C5002452F582E5F034BDF583E0F9F812129E39
:1034D500EB25E025E024C6F582E4344EF58312128F
:1034E500CEEB5FFFEA5EFEE95DFDE85CFC4D4E4F0D
:1034F500700302359690C242E025E025E024C6F52A
:1035050082E4344EF5831212B190BD51E025E025D9
:10351500E024BAF582E4344EF5831212CEEB5FFF58
:10352500EA5EFEE95DFDE85CFC90C23E1212EA909F
:10353500C23EE0F8A3E0F9A3E0FAA3E0FBC000C0B7
:1035450001E47F01FEFDFC90C23DE075F009A42475
:1035550052F582E5F034BDF583E0F9F812129E12BA
:10356500126DD001D000EB5FFFEA5EFEE95DFDE87C
:103575005CFC90C23E1212EAE4FFFEFDFC90C23EE6
:10358500E0F8A3E0F9A3E0FAA3E0FBC312127A7016
:0A3595000990C242E004F00234AADB
:01359F002209
:05313A0090C243EFF01C
:10313F00E4A3F090C244E0FBC3940840030232754D
:10314F00E47F01FEFDFC90C243E075F009A4245218
:10315F00F582E5F034BDF583E0F9F812129EEB2508
:10316F00E025E024C6F582E4344EF5831212CEEB4F
:10317F005FFFEA5EFEE95DFDE85CFC4D4E4F7003BC
:10318F0002326C782B1212C190C244E025E025E088
:10319F0024C6F582E4344EF5831212B112126DEB90
:1031AF005FFFEA5EFEE95DFDE85CFC782B1212DE44
:1031BF0090C243E075F009A42452F582E5F034BDC6
:1031CF00F583E014600E14601324027015E490BDB3
:1031DF0051F0800E90BD517401F0800690BD517476
:1031EF0002F0782B1212C1C000C001E47F01FEFD76
:1031FF00FC90C243E075F009A42452F582E5F03447
:10320F00BDF583E0F9F812129ED001D000EB4FFF0D
:10321F00EA4EFEE94DFDE84CFC782B1212DE90BD14
:10322F0051E025E025E024BAF582E4344EF583120F
:10323F0012B190C2451212EA90C245E0FCA3E0FD24
:10324F00A3E0FEA3E0FF782B1212C1EF5BFFEE5A53
:10325F00FEED59FDEC58FC90C2450212EA90C244B3
:06326F00E004F002314210
:013275002236
:06523900E490BD51F022DB
:0A3C5900A3F090C064E0FEA3E0FFBA
:103C630090C096EEF0A3EFF0A3ECF0A3EDF090BDBF
:103C730045E0D394304003023D0B90C09EE0FF909B
:103C8300BD45E0FE75F009A42452F582E5F034BD8C
:103C9300F583EFF090C096E0FCA3E0FD75F009EE2C
:103CA300A42453F582E5F034BDF583ECF0A3EDF0E5
:103CB30090C098E0FEA3E0FF90BD45E0FD75F009DC
:103CC300A42455F582E5F034BDF583EEF0A3EFF0BF
:103CD300AF0375F009EDA42457F582E5F034BDF583
:103CE30083EAF0A3EFF090C09CE0FEA3E0FF75F041
:103CF30009EDA42459F582E5F034BDF583EEF0A374
:093D0300EFF090BD45E004F02250
:015254002237
:1001030090C088740DF0A37496F0A37478F0A37470
:1001130064F090C08EE4F0A37428F0A37402F0A3FB
:100123007426F01251D6E490C094F0A304F090C06A
:100133008EE0FEA3E0FFA3E0FCA3E0FD12513678BE
:10014300547CC07D017E007F04120F8590C089E03E
:10015300FF90C055E02FFF90C054E03400FE90C0E4
:1001630056E0FCA3E0FD12513678587CC07D017E39
:10017300007F04120F8590C05BE0241EFF90C05ADD
:10018300E0340090C092F0FCA3EFF0FD90C088E053
:10019300FF90C055E02FFF90C054E03400FE90C0A4
:1001A3009CE4F0A3F0A37418F0A374FFF07B647ACB
:1001B300001235A090C092E0FCA3E0FD90C058E08F
:1001C300FAA3E0FB90C08BE0FF7E0090C092E0F8C2
:1001D300A3E02FFFEE3890C09CF0A3EFF0A3741AB6
:1001E300F090C054123C5E90C058E0FEA3E0FF9034
:1001F300C08AE0FDC390C05BE09DFD90C05AE094CF
:1002030000FC125136785C7CC07D017E007F0412B5
:100213000F8590C088E0FF90C05DE02FFF90C05C29
:10022300E03400FE90C092E0FCA3E0FD90C09CE4AB
:10023300F0A3F0A37418F0A374FFF07B647A0012A8
:1002430035A090C089E0FF90C05DE02FFF90C05CB7
:10025300E03400FE90C05EE0FCA3E0FD125136786E
:10026300607CC07D017E007F04120F8590C092E008
:10027300FCA3E0FD90C060E0FAA3E0FB90C08BE03C
:10028300FF7E0090C092E0F8A3E02FFFEE3890C00D
:100293009CF0A3EFF0A3741CF090C05C123C5E9042
:1002A300C08BE0FFC390C05FE09FFD90C05EE09411
:1002B30000FC90C060E0FAA3E0FBA3E0FFA3E090A2
:1002C300C09CCFF0A3EFF0A3741BF090C05C123C72
:1002D3005E90C088E0FF90C05DE02FFF90C05CE0BF
:1002E3003400FE90C063E024C0FD90C062E034FFA0
:1002F300FC90C09CE4F0A3F0A37418F0E4A3F07B9B
:1003030064FA1235A090C088E0FF90C061E02FFF2F
:1003130090C060E03400FE90C092E0FCA3E0FD904A
:10032300C09CE4F0A3F0A37418F0A374FFF07B6403
:100333007A001235A090C089E0FF90C061E02FFFE2
:1003430090C060E03400FE90C08AE0FDC390C063BB
:10035300E09DFD90C062E09400FC12513678647C0D
:10036300C07D017E007F04120F8590C092E0FCA344
:10037300E0FD90C064E0FAA3E0FB90C08BE0FF7E59
:100383000090C092E0F8A3E02FFFEE3890C09CF0FD
:10039300A3EFF0A3741DF090C060123C5E90C08880
:1003A300E0FF90C065E02FFF90C064E03400FE9052
:1003B300C092E0FCA3E0FD90C09CE4F0A3F0A37422
:1003C30018F0A374FFF07B647A001235A090C08804
:1003D300E0FF90C065E02FFF90C064E03400FE9022
:1003E300C067E024C0FD90C066E034FFFC90C09C71
:1003F300E4F0A3F0A37418F0E4A3F07B64FA1235DD
:10040300A090C088E0FF90C065E02FFF90C064E03B
:100413003400FE90C067E02420FD90C066E0340005
:10042300FC90C09CE4F0A3F0A37418F0E4A3F07B69
:1004330064FA1235A090C089E0FF90C065E02FFFF9
:1004430090C064E03400FE90C066E0FCA3E0FD12BF
:10045300513678687CC07D017E007F04120F859041
:10046300C08BE0FFC390C067E09FFD90C066E0943F
:1004730000FC90C068E0FAA3E0FBA3E0FFA3E090D8
:10048300C09CCFF0A3EFF0741E123C5990C066E0FD
:10049300FCA3E0FDA3E0FAA3E0FB90C08BE0FF7EAA
:1004A3000090C06AE0F8A3E02FFFEE3890C09CF004
:1004B300A3EFF07429123C5990C092E0FCA3E0FD35
:1004C30090C068E0FAA3E0FB90C08BE0FF7E009051
:1004D300C092E0F8A3E02FFFEE3890C09CF0A3EFAA
:1004E300F0A3741F123C5A90C088E0FF90C069E0EB
:1004F3002FFF90C068E03400FE90C092E0FCA3E0C0
:10050300FD90C09CE4F0A3F0A37418F0A374FFF073
:100513007B647A001235A090C068E0FEA3E0FF90F0
:10052300C08AE0FD90C06BE02DFD90C06AE034000E
:10053300FC125136786C7CC07D017E007F04120F63
:100543008590C088E0FF90C069E02FFF90C068E00D
:100553003400FE90C06FE024C0FD90C06EE034FF15
:10056300FC90C09CE4F0A3F0A37418F0E4A3F07B28
:1005730064FA1235A090C089E0FF90C06DE02FFFB0
:1005830090C06CE03400FE90C06EE0FCA3E0FD126E
:10059300513678707CC07D017E007F04120F8590F8
:1005A300C08BE0FFC390C06FE09FFD90C06EE094EE
:1005B30000FC90C070E0FAA3E0FBA3E0FFA3E0908F
:1005C300C09CCFF0A3EFF0A37420F090C06C123C5A
:1005D3005E90C088E0FF90C071E02FFF90C070E094
:1005E3003400FE90C092E0FCA3E0FD90C09CE4F0D8
:1005F300A3F0A37418F0A374FFF07B647A001235A0
:10060300A090C092E0FCA3E0FD90C070E0FAA3E0EC
:10061300FB90C08BE0FF7E0090C092E0F8A3E02F38
:10062300FFEE3890C09CF0A3EFF0A37421F090C0CC
:100633006C123C5E90C070E0FEA3E0FF90C08AE0C5
:10064300FDC390C073E09DFD90C072E09400FC1266
:10065300513678747CC07D017E007F04120F859033
:10066300C089E0FF90C075E02FFF90C074E03400B4
:10067300FE90C08AE0FD90C077E02DFD90C076E04B
:100683003400FC12513678787CC07D017E007F04F3
:10069300120F8590C092E0FCA3E0FD90C078E0FAD1
:1006A300A3E0FB90C08BE0FF7E0090C092E0F8A334
:1006B300E02FFFEE3890C09CF0A3EFF0A37424F07A
:1006C30090C074123C5E90C088E0FF90C079E02F28
:1006D300FF90C078E03400FE90C092E0FCA3E0FD00
:1006E30090C09CE4F0A3F0A37418F0A374FFF07B14
:1006F300647A001235A090C088E0FF90C079E02FA3
:10070300FF90C078E03400FE90C07BE024C0FD90F1
:10071300C07AE034FFFC90C09CE4F0A3F0A374180B
:10072300F0E4A3F07B64FA1235A090C089E0FF9057
:10073300C079E02FFF90C078E03400FE90C07AE0EB
:10074300FCA3E0FD125136787C7CC07D017E007FE6
:1007530004120F8590C08BE0FFC390C07BE09FFD28
:1007630090C07AE09400FC90C07CE0FAA3E0FBA385
:10077300E0FFA3E090C09CCFF0A3EFF0A37425F0BB
:1007830090C078123C5E90C092E0FCA3E0FD90C064
:100793007CE0FAA3E0FB90C08BE0FF7E0090C09268
:1007A300E0F8A3E02FFFEE3890C09CF0A3EFF0A396
:1007B3007426F090C078123C5E90C088E0FF90C031
:1007C3007DE02FFF90C07CE03400FE90C092E0FCFF
:1007D300A3E0FD90C09CE4F0A3F0A37418F0A3740D
:1007E300FFF07B647A001235A090C07CE0FEA3E0AA
:1007F300FF90C08AE0FD90C07FE02DFD90C07EE0B9
:100803003400FC12513678807CC07D017E007F0469
:10081300120F8590C089E0FF90C081E02FFF90C048
:1008230080E03400FE90C082E0FCA3E0FD1251366C
:1008330078847CC07D017E007F04120F8590C09276
:10084300E0FCA3E0FD90C084E0FAA3E0FB90C08B42
:10085300E0FF7E0090C092E0F8A3E02FFFEE389017
:10086300C09CF0A3EFF0A37427F090C080123C5E0D
:10087300E490C08CF0A3F090C08CE0FAA3E0FBC33B
:10088300940CEA94004003020916EBAE027802C30B
:1008930033CE33CED8F9FDAC062454F58274C03C74
:1008A300F583E0FEA3E0FFC006C00774562DF58272
:1008B30074C03CF583E0FCA3E0FDEBAE027802C319
:1008C30033CE33CED8F9FF2458F58274C03EF58376
:1008D300E0FAA3E0FB745A2FF58274C03EF583E07F
:1008E300FFA3E090C09CCFF0A3EFF090C088E0900E
:1008F300C09EF0A37407F0A374E0F0D007D00612F3
:10090300228A90C08DE004F0700690C08CE004F061
:1009130002087A90C09CE4F0A3F0A37440F0E4A32F
:10092300F0A37450F0A3E4F07B64FAFDFCFFFE0235
:0209330035A0ED
:104D540004FF031FF210F1F0F1D0F1B0F190F17003
:104D6400F150F130F110F0F0F0D0F0B0F090F070BC
:104D7400F050F030F500F4D0F4A0F470F440F410E6
:104D8400F3E0F3B0F380F350F320F2F0F2C0F290CA
:044D9400F260F230A7
:104BDC0041C26B0041C2690041C26C0041C26A0013
:1051360090C0B8EEF0A3EFF0AF05A3ECF0A3EFF04C
:065146007B017AC079B87C
:01514C002240
:1051D600E490C26BF090C269F090C26CF090C26A23
:0251E600F022B5
:094F1500AF03AE02E0FCA3E0FDD5
:104F1E00D3904D547401939FE4939E4010D3904DC3
:104F2E00567401939DE4939C40037F01227F0022DF
:0E384C0090C0A4EEF0A3EFF0A3ECF0A3EDF01B
:10385A00124F1EEF700302392390C0AA124F15EFC0
:10386A00700302392390C0ACE0FFA3E090C0B2CF4E
:10387A00F0A3EFF090C0A4E0FFA3E090C0B4CFF0B3
:10388A00A3EFF090C0A6E0FFA3E090C0B6CFF0A3EC
:10389A00EFF0AF03A3EAF0A3EFF090C0AAE0FFA312
:1038AA00E090C0BACFF0A3EFF0A374FFF0A3E4F066
:1038BA0090C26CE004F090C0AEE4F0A3740AF090F9
:1038CA00C26CE0FF90C0B0E4F0A3EFF07B017AC0D5
:1038DA0079AE90C0C5E4F0A37402F07F007E301286
:0238EA002B8928
:1038EC0090C26CE0FF7E007C007D05121003EF247B
:1038FC0002FFEE3430FE90C0BEF0A3EFF07B017AF5
:10390C00C079B290C0C5E4F0A37406F0122B899074
:07391C00C0BEE0FEA3E0FFC6
:013923002281
:10505600E490C276F0A3F090C26CF07B017AC2793C
:0F5066007690C0C5F0A304F07F007E30022B8946
:0E39240090C0A4EEF0A3EFF0A3ECF0A3EDF042
:10393200124F1EEF600990C0AA124F15EF7004E4F7
:10394200FEFF2290C0A4E0FFA3E090C0B2CFF0A39C
:10395200EFF090C0A6E0FFA3E090C0B4CFF0A3EFD9
:10396200F0AF03A3EAF0A3EFF090C0AAE0FFA3E058
:1039720090C0B8CFF0A3EFF090C0ACE0FFA3E0900E
:10398200C0BACFF0A3EFF0A374FFF0A3E4F090C2AB
:103992006BE004F090C0AEE4F0A37404F090C26B4C
:1039A200E0FF90C0B0E4F0A3EFF07B017AC079AE03
:1039B20090C0C5E4F0A37402F07F007E10122B8940
:1039C20090C26BE0FF7E007C007D05121003EF24A5
:1039D20002FFEE3410FE90C0BEF0A3EFF07B017A3E
:1039E200C079B290C0C5E4F0A37406F0122B89909E
:0739F200C0BEE0FEA3E0FFF0
:0139F90022AB
:10228A0090C096EEF0A3EFF090C09AEAF0A3EBF0BC
:08229A0090C098ECF0A3EDF0F8
:1022A20090C09EE0C31390C0A1F090C096E0FEA340
:1022B200E0FF124F1EEF600F90C09AE0FEA3E0FF16
:1022C200A3124F19EF700302247C90C09AE0FEA380
:1022D200E0FF90C096E0FCA3E0FD6F7002EC6E6040
:1022E2001790C09CE0FEA3E0FF90C098E06E7003E0
:0822F200A3E06F60030223CC9E
:1022FA0090C09AE0FEA3E0FFD3ED9FEC9E402790AA
:10230A00C096E0FEA3E0FF90C0A2EEF0A3EFF0902B
:10231A00C09AE0FDA3E090C096CDF0A3EDF090C086
:10232A009AEEF0A3EFF090C09CE0FEA3E0FF90C00D
:10233A0098E0FCA3E0FDD39FEC9E401890C0A2EC6D
:10234A00F0A3EDF090C098EEF0A3EFF090C09CECF3
:04235A00F0A3EDF00F
:10235E0090C0A1E0FD7C00C390C097E09DFF90C0AF
:10236E0096E09CFEF0A3EFF0C390C099E09DF09034
:10237E00C098E09CF090C09BE02DF090C09AE03C9D
:10238E00F090C09DE02DF090C09CE03CF0C0079016
:10239E00C098E0FCA3E0FDA3E0FAA3E0FBA3E0FFFE
:1023AE00A3E090C0AACFF0A3EFF090C09FE0FFA3F0
:0E23BE00E090C0ACCFF0A3EFF0D007023924BE
:1023CC0090C0A1E0F9FF7E0090C097E02FF090C084
:1023DC0096E03EF0EF2402FFEE33FEC390C099E08E
:1023EC009FF090C098E09EF0E9FDC390C09BE09DEB
:1023FC00F090C09AE09400F0C390C09DE09FF090E4
:10240C00C09CE09EF0E490C0A2F090C09EE0FF90D3
:10241C00C0A2E0D39F505990C098E0FCA3E0FDA36C
:10242C00E0FAA3E0FBA3E0FFA3E090C0AACFF0A3E7
:10243C00EFF090C09FE0FFA3E090C0ACCFF0A3EF13
:10244C00F090C096E0FEA3E0FF12384C90C099E0EB
:10245C0004F0700690C098E004F090C09DE004F089
:10246C00700690C09CE004F090C0A2E004F0809A4A
:03247C00E4FEFF7C
:01247F00223A
:10507500E490C278F0A3F090C26BF07B017AC2791C
:0F5085007890C0C5F0A304F07F007E10022B8945
:0E3ACC0090C18DEEF0A3EFF0A3EAF0A3EBF0B3
:103ADA0090C269E0D394104004E4FEFF2290C18DA5
:103AEA00E0FEA3E0FF12513678937CC17D017E008F
:103AFA007F04120F85E490C197F0A3F0A3F0A3749A
:103B0A0029F0E4A3F0A3F0A3F0A37429F0A374248A
:103B1A00F0A37401F0A3F0A374FFF0E4A3F0A304EC
:103B2A00F090C269E025E02458F582E4344DF5832B
:103B3A007401932414FFE4933400FE90C191F0A31E
:103B4A00EFF07B017AC1798F90C0C5E4F0A304F04D
:033B5A00122B89A2
:103B5D0090C269E025E02458F582E4344DF583E404
:103B6D0093FE740193FF90C1A6EEF0A3EFF07B01DD
:103B7D007AC1799190C0C5E4F0A3740AF0122B8933
:0E3B8D0090C269E004F090C1A6E0FEA3E0FF44
:013B9B002207
:1035A00090C096EEF0A3EFF090C09AEAF0A3EBF093
:1035B00090C26AE0D394104004E4FEFF2290C096CB
:1035C000E0FEA3E0FF12513678A47CC07D017E00AE
:1035D0007F04120F8590C0A0E0FFA3E090C0A8CFA9
:1035E000F0A3EFF0E4A3F090C09FE090C0ABF0A395
:1035F0007402F0A3F0A314F0E4A3F090C09CE0FBED
:10360000A3E0FAA3E0F912516290C0B0EFF090C0CD
:103610009CE0F9A3E0FAA3E090C0BBC9F0A3EAF0F4
:10362000A3E9F0A3E4F0A37405F07B017AC079B1BB
:03363000124888B5
:1036330090C26AE025E02478F582E4344DF583E412
:1036430093FF74019390C0B6CFF0A3EFF090C26ADA
:10365300E004F07E4D7F7A90C0A2EEF0A3EFF07B02
:10366300017AC0799A90C0C5E4F0A304F0122B89C3
:103673007E4D7F787B017AC079A290C0C5E4F0A328
:0E368300740AF0122B8990C0B6E0FEA3E0FF9F
:013691002216
:1050170090C27AECF0A3EDF0EF2403FFE43EFE7BB1
:10502700017AC2797A90C0C5E4F0A304F0022B8913
:030000000244A116
:0C44A100787FE4F6D8FD75812E0244E817
:1044AD00022D1CE493A3F8E493A34003F68001F2DC
:1044BD0008DFF48029E493A3F85407240CC8C33310
:1044CD00C4540F4420C8834004F456800146F6DFDF
:1044DD00E4800B0102040810204080904BA4E47E80
:1044ED00019360BCA3FF543F30E509541FFEE493D4
:1044FD00A360010ECF54C025E060A840B8E493A39B
:10450D00FAE493A3F8E493A3C8C582C8CAC583CAC5
:10451D00F0A3C8C582C8CAC583CADFE9DEE780BE7D
:014BEC0000C8
:100EB500E709F608DFFA8046E709F208DFFA803E1F
:100EC50088828C83E709F0A3DFFA8032E309F6080C
:100ED500DFFA8078E309F208DFFA807088828C8374
:100EE500E309F0A3DFFA806489828A83E0A3F60828
:100EF500DFFA805889828A83E0A3F208DFFA804C02
:100F050080D280FA80C680D4806980F280338010D8
:100F150080A680EA809A80A880DA80E280CA803341
:100F250089828A83ECFAE493A3C8C582C8CCC583B9
:100F3500CCF0A3C8C582C8CCC583CCDFE9DEE78089
:100F45000D89828A83E493A3F608DFF9ECFAA9F008
:100F5500EDFB2289828A83ECFAE0A3C8C582C8CC5E
:100F6500C583CCF0A3C8C582C8CCC583CCDFEADE77
:100F7500E880DB89828A83E493A3F208DFF980CCD9
:100F850088F0EF60010E4E60C388F0ED2402B404D2
:100F95000050B9F582EB2402B4040050AF23234579
:060FA5008223900F05738A
:100FAB00BB010689828A83E0225002E722BBFE0244
:090FBB00E32289828A83E4932277
:100FC400BB010CE58229F582E5833AF583E02250E2
:100FD40006E92582F8E622BBFE06E92582F8E2222C
:0D0FE400E58229F582E5833AF583E4932246
:100FF100BB010689828A83F0225002F722BBFE01DF
:02100100F322D8
:10100300EF8DF0A4A8F0CF8CF0A428CE8DF0A42E01
:02101300FE22BB
:10101500BC000BBE0029EF8DF084FFADF022E4CCBF
:10102500F875F008EF2FFFEE33FEEC33FCEE9DEC88
:10103500984005FCEE9DFE0FD5F0E9E4CEFD22EDCE
:10104500F8F5F0EE8420D21CFEADF075F008EF2F18
:10105500FFED33FD4007985006D5F0F222C398FD09
:051065000FD5F0EA22A6
:10106A00C5F0F8A3E028F0C5F0F8E5821582700211
:06107A001583E038F022AE
:10108000A3F8E0C5F025F0F0E58215827002158323
:06109000E0C838F0E82280
:10109600BB010A89828A83E0F5F0A3E02250068725
:1010A600F009E71922BBFE07E3F5F009E3192289E7
:0B10B600828A83E493F5F0740193221A
:1010C100BB0110E58229F582E5833AF583E0F5F06D
:1010D100A3E0225009E92582F886F008E622BBFE4A
:1010E1000AE92582F8E2F5F008E222E5832AF58390
:0810F100E993F5F0A3E9932255
:1010F900BB010789828A8302106A500B09C5F02750
:10110900F7C5F01937F722BBFE0D09F8E325F0F30F
:10111900C5F019E338F322F889828A83740193258B
:08112900F0C5F0F8E493382250
:10113100BB010A89828A83F0E5F0A3F0225006F709
:0F11410009A7F01922BBFE06F3E5F009F3192206
:10115000E88FF0A4CC8BF0A42CFCE98EF0A42CFC3E
:101160008AF0EDA42CFCEA8EF0A4CDA8F08BF0A4BC
:101170002DCC3825F0FDE98FF0A42CCD35F0FCEB1B
:101180008EF0A4FEA9F0EB8FF0A4CFC5F02ECD39E0
:0F119000FEE43CFCEAA42DCE35F0FDE43CFC224D
:10119F0075F008758200EF2FFFEE33FECD33CDCC07
:1011AF0033CCC58233C5829BED9AEC99E58298408A
:1011BF000CF582EE9BFEED9AFDEC99FC0FD5F0D667
:1011CF00E4CEFBE4CDFAE4CCF9A88222B800C1B991
:1011DF000059BA002DEC8BF084CFCECDFCE5F0CBCF
:1011EF00F97818EF2FFFEE33FEED33FDEC33FCEB08
:1011FF0033FB10D703994004EB99FB0FD8E5E4F9C3
:10120F00FA227818EF2FFFEE33FEED33FDEC33FCAF
:10121F00C933C910D7059BE99A4007EC9BFCE99AA3
:10122F00F90FD8E0E4C9FAE4CCFB2275F010EF2FE8
:10123F00FFEE33FEED33FDCC33CCC833C810D707E8
:10124F009BEC9AE899400AED9BFDEC9AFCE899F823
:0E125F000FD5F0DAE4CDFBE4CCFAE4C8F922B6
:0D126D00CFF4CFCEF4CECDF4CDCCF4CC2216
:10127A00EB9FF5F0EA9E42F0E99D42F0E89C45F0CA
:01128A002241
:10128B00E8600FECC313FCED13FDEE13FEEF13FF41
:03129B00D8F12265
:10129E00E8600FEFC333FFEE33FEED33FDEC33FCAE
:0312AE00D8F12252
:1012B100E493FC740193FD740293FE740393FF2283
:0D12C100E6FB08E6F908E6FA08E6CBF8229D
:1012CE00E493F8740193F9740293FA740393FB2276
:0C12DE00ECF608EDF608EEF608EFF6223C
:0C12EA00ECF0A3EDF0A3EEF0A3EFF02277
:1012F600A8828583F0D083D08212130D12130D12AB
:10130600130D12130DE473E493A3C583C5F0C583CF
:10131600C8C582C8F0A3C583C5F0C583C8C582C841
:0113260022A4
:0C132700A42582F582E5F03583F58322D1
:10133300BB010789828A830213B45005E9F80213BB
:10134300ABBBFE05E9F80213DD89828A830213E64B
:10135300BB010DE58229F582E5833AF5830213B4D7
:101363005007E92582F80213ABBBFE07E92582F893
:101373000213DDE58229F582E5833AF5830213E65C
:061383008A838982E473F5
:10195400E5222468F582E434C1F583E0052222906F
:10196400C16530070390C168E475F0011213BD022C
:101974000FAB2000E97F2ED2008018EF540F249083
:10198400D43440D4FF30040BEF24BFB41A00500306
:101994002461FFE523600215230526E52670020570
:1019A4002530070E90C165E475F0011213BDEF02F6
:1019B4000FF1024F8E7403D2078003E4C207F522AD
:1019C40090C1651213D4E4F523F525F526E52360CB
:1019D400077F2012199780F57524FFC201C200C247
:1019E40002C203C205C206C208121963FF700D3099
:1019F40007057F001219A8AF26AE2522B4255FC2C1
:101A0400D5C204121963FF24D0B40A00501A75F029
:101A14000A782330D50508B6FF0106C6A426F620A9
:101A2400D5047002D20380D924CFB41A00EF500435
:101A3400C2E5D204021BA9D20180C6D20080C0D262
:101A44000280BCD2D580BAD20580B47F2012199707
:101A54002002077401B5230040F1121954FF121932
:101A6400970219D1D208D2068095121954FB121983
:101A740054FA121954F94A4B7006797A7A1C7BFF8E
:101A840020022EE523602A7E008E82758300120FC9
:101A9400C460060EEE652470F0C2D5EBC0E0EAC067
:101AA400E0E9C0E0EE121BF0D0E0F9D0E0FAD0E0BB
:101AB400FB120FABFF60AAEBC0E0EAC0E0E9C0E0B4
:101AC400121997D0E02401F9D0E03400FAD0E0FBF9
:101AD400E5240460DCD524D980877BFF7A1B79EC6C
:101AE400D202809C791080027908C206C20880085C
:101AF400D2D5790A8004790AC2D5E524047002F5A6
:101B040024E4FAFDFEFF121954FC7B082001131291
:101B14001954FD7B1030000A121954FE121954FF97
:101B24007B20EC3382D592D55013C3E43000069F5A
:101B3400FFE49EFEE42001039DFDE49CFCE4CBF85D
:101B4400C201EC700CCFCECDCCE824F8F870F38051
:101B540017C3EF33FFEE33FEED33FDEC33FCEB3311
:101B6400FB994002FB0FD8E9EB300105F8D0E0C443
:101B740048B201C0E00AEC4D4E4F78207B0070C2A1
:101B8400EAB5240040BCC0E0121BF2D0F0D0E02043
:101B94000104C4C0E0C4B201C0F0121980D0F0D571
:101BA400F0EB0219D11213F21A6E531AE8581A3FC5
:101BB4004C1A3B421AEC4F1AF4441AF4491A54438F
:081BC4001AFA551ADE461ADE7A
:101BCC00451ADE471C9A501A432D1A472E1A6A2BB7
:101BDC001A4B231A68201C832A1A034800001A6225
:101BEC003F3F3F00790AA2D5200314300509B910F4
:101BFC00020404B9080104A2D520060250010420F5
:101C0C0002689202B523005034C0E07F20300319E3
:101C1C007F30A20272067205500F121C49C202C21A
:101C2C0006C205C2087F30800F300503E9C0E01200
:101C3C001997300503D0E0F9D0E0B523CC30051767
:101C4C007F30B9100C1219977F583004077F7880B9
:101C5C0003B908031219973002057F2D0219977FDB
:101C6C00202008F87F2B2006F322920280CF286ECA
:101C7C00756C6C2900D2011219543001F8C201782C
:101C8C002330D50108F6021A032D50434958121976
:101C9C00542403B405004001E4901C959312198858
:0D1CAC00743A121988D203752304021AE855
:1048880090C0B8EBF0A3EAF0A3E9F0E490C0C0F060
:10489800A3F090C0BE74FFF5F012108045F0603CA4
:1048A80090C0BBE0FBA3E0FAA3E0F9120FABFF90C6
:1048B800C0B8E0FBA3E0FAA3E0F990C0C0E475F04B
:1048C8000112108085F082F583EF121389EF60C220
:1048D80090C0BCE475F00112106A80B690C0B8E0D0
:0848E800FBA3E0FAA3E0F922B2
:10516200E4FFFE120FAB600C0FEF70010E09E97045
:05517200F20A80EF22AB
:10138900F8BB010DE58229F582E5833AF583E8F09A
:10139900225006E92582C8F622BBFE05E92582C846
:0213A900F2222E
:0913AB00E6FB08E6FA08E6F92267
:0913B400E0FBA3E0FAA3E0F9223A
:1013BD00F8E0FBA3A3E0F925F0F0E58215827002B9
:0713CD001583E0FA38F0225D
:0913D400EBF0A3EAF0A3E9F0221A
:0913DD00E2FB08E2FA08E2F92241
:0C13E600E493FB740193FA740293F92263
:1013F200D083D082F8E4937012740193700DA3A38A
:1014020093F8740193F5828883E47374029368609D
:06141200EFA3A3A380DF9D
:104F8E00EFB40A07740D124F99740A309811A8994C
:104F9E00B8130CC2983098FDA899C298B811F63083
:074FAE0099FDC299F599225B
:00000001FF
