:0B00F800FFFF4457494E54350239DD2C
:0E1C2B007B0190BD88E4F0A304F07F147E00DE
:101C390090BD83EEF0A3EFF0A3EBF0A3EAF0A3E9E4
:011C4900F0AA
:101C4A00E490BD8AF0A3F0A3F0A3F0A3F0A3F0A35D
:101C5A00F0A3F090BD88E0FAA3E0FB4A7003021DEE
:101C6A00F890BD83E0FEA3E0FFC3E49FFFE49EFE7D
:101C7A00E4FCFD90BD92120AC4AF03AE02E4FCFD7F
:101C8A0090BD92E0F8A3E0F9A3E0FAA3E0FBC31247
:101C9A000A48501190BD92A3A3E0FFA3E090BD882B
:101CAA00CFF0A3EFF090BD83E0FCA3E0FDECC313FB
:101CBA00FFED1390BD8ACFF0A3EFF0ED5401FFA31F
:101CCA00E4F0A3EFF0C2AFE4F5F190BD8AE0FCA323
:101CDA00E0FDECF5F28DF375F40175F8AF30FCFD1B
:101CEA0090BD8CE07002A3E0603DD2FE20FEFD9024
:101CFA00BD85E0FBA3E475F00112084EA9F0FAE5F0
:101D0A00FC1207BF90BD85E0FBA3E475F001120841
:101D1A004EA9F0FAE5FD1207BF90BD89E024FFF055
:101D2A0090BD88E034FFF090BD88E0FCA3E0FDECB4
:101D3A00C313FFED1390BD8ECFF0A3EFF0ED540166
:101D4A00FFA3E4F0A3EFF090BD8E74FFF5F0120844
:101D5A004E45F0605BD2FE20FEFD90BD85E0FBA300
:101D6A00E475F00112084EA9F0FAE5FA1207BF90DD
:101D7A00BD85E0FBA3E475F00112084EA9F0FAE56F
:101D8A00FB1207BF90BD85E0FBA3E475F0011208C2
:101D9A004EA9F0FAE5FC1207BF90BD85E0FBA3E46B
:101DAA0075F00112084EA9F0FAE5FD1207BF8097F7
:101DBA0090BD90E07002A3E0602FD2FE20FEFD905D
:101DCA00BD85E0FBA3E475F00112084EA9F0FAE51F
:101DDA00FA1207BF90BD85E0FBA3E475F001120873
:0E1DEA004EA9F0FAE5FB1207BFE4F5F8D2AF00
:011DF80022C8
:1024830090BE74EEF0A3EFF0A3EBF0A3EAF0A3E9A0
:01249300F058
:10249400E490BE7BF0A3F0A3F0A3F0A3F0A3F0902C
:1024A400BE79E07002A3E0700302261590BE74E0CA
:1024B400FEA3E0FFC3E49FFFE49EFED390BE7AE058
:1024C4009F90BE79E09E4005EEF0A3EFF090BE74BD
:1024D400E0FAA3E0FBEAC313FCEB13FDEB5401FFAA
:1024E40090BE7BE4F0A3EFF0C2AFE4F5F1ECF5F2BB
:1024F400AF058FF375F40175F88330FCFD90BE7B56
:10250400E07002A3E0603D90BE76E0FBA3E475F0CA
:102514000112084EA9F0FA120779F5FC90BE76E094
:10252400FBA3E475F00112084EA9F0FA120779F53D
:10253400FDD2FE20FEFD90BE7AE024FFF090BE792D
:10254400E034FFF090BE79E0FCA3E0FDECC313FFA0
:10255400ED1390BE7DCFF0A3EFF0ED5401FFA3E4A3
:10256400F0A3EFF075F88F90BE7D74FFF5F01208BC
:102574004E45F0605B90BE76E0FBA3E475F001127B
:10258400084EA9F0FA120779F5FA90BE76E0FBA39B
:10259400E475F00112084EA9F0FA120779F5FB90E0
:1025A400BE76E0FBA3E475F00112084EA9F0FA121E
:1025B4000779F5FC90BE76E0FBA3E475F001120800
:1025C4004EA9F0FA120779F5FDD2FE30FE9980FB90
:1025D40090BE7FE07002A3E0603275F88C90BE7606
:1025E400E0FBA3E475F00112084EA9F0FA12077992
:1025F400F5FA90BE76E0FBA3E475F00112084EA94B
:10260400F0FA120779F5FBD2FE20FEFDE4F5F8D2CC
:01261400AF16
:0126150022A2
:10421D00C2AFC2D3C2D4E4F58E75C870F5CDF5CC5E
:10422D0075CBBC75CACDD2ADD2C8F5937594017559
:10423D00950275C960F5F875F901F5A8F5B8F59A07
:07424D00F5A9F5B902431ABF
:10431A007F007E80E4F51EF51F0FEFAC0670010EDC
:10432A0014F5828C83E4F0051FE51F7002051EB4A4
:07433A0000E7E51EB480E27C
:014341002259
:1043B30090C2BA120AD055AA5AA57B017AC279BA19
:1043C30090BE79E4F0A37402F07F047E000224839C
:0444BE007FF47E0108
:1044C200EF4E6010E4FD0DEDC3941840F9EF1F703C
:0444D200EF1E80EC6D
:0144D60022C3
:103C830090C259745AF0A374A5F0A3EEF0A3EFF019
:103C9300A3EBF0A3EDF090C258E0600A90C25FE49A
:103CA300F0A304F08007E490C25FF0A3F07B017AF5
:103CB300C2795990BE79E4F0A37404F07FB07E001A
:103CC3001224831244BE7B017AC2795990BD88E4E1
:103CD300F0A304F07FB07E00121C3990C259E0704B
:013CE300E2FE
:013CE40022BD
:0541DE0090C2A6EFF005
:1041E3007B017AC279A790BD88E4F0A37402F07FC3
:1041F300A07E00121C3990C2A6E0A3F0A37401F0C4
:10420300E490C2AAF07B017AC279A790BE79F0A3A9
:0A4213007402F07FA07E00022483F5
:102DB70090C12DE0FB90C282F090C12EE0FCA3E011
:102DC700FDA3E0FEA3E0FF7810120A5990C283EF3B
:102DD700F090C12EE0FCA3E0FDA3E0FEA3E0FF78A6
:102DE70008120A5990C284EFF090C12EA3A3A3E062
:102DF70090C285F090C132E0FCA3E0FDEC90C28662
:102E0700F0A3EDF090C134E0FCA3E0FDEC90C288A4
:102E1700F0A3EDF0EBB4A52890C136E0FBA3E0FAF0
:102E2700A3E04A4B601A90C132E0FEA3E0FF90C1D5
:102E370036A3A3E0F990BE79ECF0A3EDF01224835A
:102E47007B017AC2798290BE79E4F0A37404F07FA3
:102E5700087E001224831244BE7B017AC2798290D5
:102E6700BD88E4F0A304F07F087E00121C3990C2ED
:102E770082E070E290C12DE0B45A2F90C136E0FB9A
:102E8700A3E0FAA3E04A4B602190C132E0FEA3E041
:102E9700FF90C136A3A3E0F990C134E0FDA3E09011
:102EA700BD88CDF0A3EDF0121C397F327E000240C1
:012EB7003FDB
:102B840090C261745AF090C11DE090C262F0640179
:102B9400706790C11EA3E090C263F090C120E0FC76
:102BA400A3E0FDA3E0FEA3E0FF7810120A5990C24F
:102BB40064EFF090C120E0FCA3E0FDA3E0FEA3E0FD
:102BC400FF7808120A5990C265EFF090C120A3A3C0
:102BD400A3E090C266F090C124E0FCA3E0FDEC9079
:102BE400C267F0A3EDF090C126E0FCA3E0FDEC90F9
:102BF400C269F0A3EDF0E4803B90C11DE064027073
:102C040037A3E0FCA3E0FDEC90C263F0A3EDF090E9
:102C1400C124E0FCA3E0FDEC90C265F0A3EDF090CC
:102C2400C12BE0FCA3E0FDEC90C267F0A3EDF0E45F
:102C3400A3F0A3F0A3F0A3F07B017AC2796190BE64
:102C440079E4F0A37406F07FAA7E00122483124470
:102C5400BE7B017AC2796190BD88E4F0A304F07F61
:102C6400AA7E00121C3990C261E070E290C11DE09E
:102C7400B4012F90C128E0FBA3E0FAA3E04A4B6023
:102C84002190C124E0FEA3E0FF90C128A3A3E0F9B2
:102C940090C126E0FDA3E090BD88CDF0A3EDF01235
:092CA4001C397F327E0002403F22
:0F457F007AC279C5121C2B90C2C5E0FEA3E0FFE3
:01458E00220A
:083B280090C29AEEF0A3EFF049
:103B3000A3745AF0A37401F090C29AE0FCA3E0FDD4
:103B4000EC90C29EF0A3EDF07B017AC2799C90BE0E
:103B500079E4F0A37402F07F847E0012248312447F
:103B6000BE7B017AC2799C90BD88E4F0A3740212F6
:103B70001C3490C29AE0FEA3E0FFA3E0B506DFA3E9
:103B8000E0B507DAE490C29CF0A3F0A3F0A3F07BC9
:103B9000017AC2799C90BE79F0A37402F07F167E00
:043BA0000002248378
:08403F0090BD83EEF0A3EFF049
:10404700E4A3F0A3F090BD83E0FEA3E0FFC390BD1F
:1040570086E09F90BD85E09E5025E4FBFA7F017EB8
:10406700001244C20BBB00010ABA01F1BB2CEE904F
:0F407700BD86E004F070CE90BD85E004F080C6F9
:014086002217
:10408700EF14601814602314602E24037039740130
:10409700A805088002C333D8FC42B7227401A805DB
:1040A700088002C333D8FC42BC227401A8050880EB
:1040B70002C333D8FC42BD22AF057401A8070880AC
:0840C70002C333D8FC42BE2203
:103FAA00EF1460191460251460312403703D740104
:103FBA00A805088002C333D8FCF452B7227401A8BA
:103FCA0005088002C333D8FCF452BC227401A80548
:103FDA00088002C333D8FCF452BD22AF057401A88D
:0C3FEA0007088002C333D8FCF452BE224A
:10375300EF14602D14604A1460672403600302377A
:10376300E5EB600E7401A805088002C333D8FC4260
:1037730080227401A805088002C333D8FCF4528068
:1037830022EB600E7401A805088002C333D8FC4203
:1037930090227401A805088002C333D8FCF4529028
:1037A30022EB600E7401A805088002C333D8FC42E3
:1037B300A0227401A805088002C333D8FCF452A0E8
:1037C30022EB600E7401A805088002C333D8FC42C3
:1037D300B022AF057401A807088002C333D8FCF4F4
:0337E30052B022BF
:103E6400EF14601A14602714603424037042740140
:103E7400A805088002C333D8FC5580FE8034740141
:103E8400A805088002C333D8FC5590FE8024740131
:103E9400A805088002C333D8FC55A0FE8014AF05E2
:103EA4007401A807088002C333D8FC55B0FE800211
:043EB400E4FEAF0673
:013EB80022E7
:102F96007B017AC2798A90BD88E4F0A37404F07F3D
:102FA600167E00121C3990C28AE0645A6003023011
:102FB6005BA3E0FFB40134A3E0FCA3E0FD90C13EB7
:102FC600ECF0A3EDF090C144ECF0A3EDF090C28ECE
:102FD600E0FCA3E0FD90C142ECF0A3EDF090C169E6
:102FE600ECF0A3EDF0A37401F08030EFB40326906B
:102FF600C13CE0FFA3E090C169CFF0A3EFF090C120
:103006003AE0FFA3E090C144CFF0A3EFF090C16B8C
:103016007402F0800690C16B7403F090C28CE0FFDE
:10302600A3E090C13ACFF0A3EFF090C28EE0FFA3E9
:10303600E090C13CCFF0A3EFF0E490C28AF07B01B0
:103046007AC2798A90BE79F0A37402F07F167E0068
:10305600122483801190C28BE0FF64026003EF703C
:0B30660005E490C16BF090C16BE0FF2F
:01307100223C
:081A420090C26DEEF0A3EFF07D
:101A4A00122F9690C26FEFF0700690C139F0FF2204
:101A5A0090C26FE0B4010F7AC17940121C2B90C179
:101A6A00397401F0FF2290C140E0FEA3E0FF90C26A
:101A7A006DE06E7003A3E06F60037F012290C13AAC
:101A8A00E0FEA3E0FFC390C13FE09FFF90C13EE0AC
:101A9A009E90C16CF0A3EFF090C16CE0FCA3E0FD56
:101AAA00FFAE041207D1EE3395E0FDFC90C270122E
:101ABA000AC490C13CE0FEA3E0FFC390C143E09F8B
:101ACA00FF90C142E09E90C16EF0A3EFF090C16E0C
:101ADA00E0FCA3E0FDFFAE041207D1EE3395E0FD72
:101AEA00FC90C274120AC490C26FE06402707990CA
:101AFA00C139E06401706B7F09FEFDFC90C274E09D
:101B0A00F8A3E0F9A3E0FAA3E0FBC3120A48501ACB
:101B1A00E47F09FEFDFC90C270E0F8A3E0F9A3E0BF
:101B2A00FAA3E0FBC3120A484038E47F02FEFDFC38
:101B3A0090C274E0F8A3E0F9A3E0FAA3E0FB12096B
:101B4A001E90C270E0F8A3E0F9A3E0FAA3E0FBD389
:101B5A00120A4890C13950057403F0FF227404F048
:101B6A00FF2290C139E0FF2290C139E06401706E12
:101B7A007F09FEFDFC90C274E0F8A3E0F9A3E0FA45
:101B8A00A3E0FBC3120A48501AE47F09FEFDFC9049
:101B9A00C270E0F8A3E0F9A3E0FAA3E0FBC3120ADB
:101BAA00484038E47F02FEFDFC90C274E0F8A3E0EE
:101BBA00F9A3E0FAA3E0FB12091E90C270E0F8A3B1
:101BCA00E0F9A3E0FAA3E0FBD3120A4890C1395026
:101BDA00057403F080087404F080037F022290C128
:101BEA0039E0B4031E90C13CE0FEA3E0FFC390C1FC
:101BFA006AE09FFF90C169E09E90C172F0A3EFF086
:101C0A007F052290C13AE0FEA3E0FFC390C145E000
:101C1A009FFF90C144E09E90C170F0A3EFF07F0651
:011C2A002297
:0444F00002180000AE
:10446D00758911E4F58CF58AC28CF51AF51C438912
:0C447D0001758CBC758ACDD2A9D28C22AE
:03000B00023BA411
:0D3BA400C0E0C0D075D000C000C006C00752
:103BB100C2AF758CBC758ACD051B751D0074017E65
:103BC10000A81D088005C333CE33CED8F9FFEF55C9
:103BD1001C602DE51D25E02408F808E61618700183
:103BE10016E51D25E02408F8E6FE08E64E7011AF43
:103BF1001D04A807088002C333D8FC421AF4521CE2
:093C0100051DE51DB408B6D2AFA3
:0B3C0A00D007D006D000D0D0D0E032B0
:03002B0002453358
:10453300C0E0C2AFC2C6D2AF0519E51970020518B3
:03454300D0E03293
:10439100C2AF7401A807088002C333D8FCFE421CD7
:1043A100EF25E02408F8A60408A605EEF4521AD277
:0243B100AF2239
:10450900C2AF7401A807088002C333D8FCF4521C57
:05451900521AD2AF228E
:10454600C2AF7401A807088002C333D8FC551AFF0E
:02455600D2AFE2
:014558002240
:0B445000D2B37F0512445BD2B27F059F
:10445B00EF600EE4FE0EC3EE648094B240F71F8053
:01446B00EF61
:01446C00222D
:0445C90053BEF722C4
:0445CD0043BE0822BF
:1044A4001245CDD2B3D2B27F0F12445BC2B37F0F99
:0A44B40012445BC2B27F0F02445BAA
:0A43D3007F0F124264AF0312426430
:1043DD001245CDC2B3D2B27F0F12445BD2B37F0F61
:0643ED0012445B0245C909
:0F458F001245CDC2B3124452C2B27F0502445B43
:0D45AD001245CD124450C2B27F0502445B9E
:1043F3001245C9124450E4FD30B30A7F0512445BF1
:0F4403000DEDB432F3C2B27F0512445B0245CD1A
:10425400124264E0FF1242641243DD1244A47F64FC
:02426400AD07A4
:104266001245CDE4FCED30E704D2B38002C2B3EDD3
:1042760025E0FD124452C2B27F0512445B0CECB439
:0542860008E30243F310
:0D428B007F0F1242641244A47F651242644A
:104298001245C9E4FC124452ED25E0FD30B3054453
:1042A80001FD8004ED54FEFDC2B27F0512445B0C93
:0642B800ECB408E1AF05C3
:0142BE0022DD
:1032010012425F12428BAB0712458F124298AA07F6
:103211001245AD1243DDEB20E0030232AF5484606E
:103221000AEB547BFB12425F1243D3EB54FEFBEAE1
:1032310030E713547FFA12425F7F10124264AF02EB
:103241001242641243DDEA4480FA12425F7F101297
:103251004264AF021242641243DDEB4484FB12422A
:103261005F7F0F124264AF03124259E4FF124264BE
:10327100E4FF124264E4FF1242647F801242647FE1
:10328100051242647F011242647F011242647F2170
:103291001242641243DDEB547BFBEA547FFA124283
:0E32A1005F7F10124264AF021242591243D3F3
:0132AF0022FC
:1034BB0012425F12428B90C2C7EFF012458F12423D
:1034CB0098A3EFF01245AD1243DDE04480F01242B9
:1034DB005F7F10124264E0FF1242641243DD90C220
:1034EB00C7E04484F012425F7F0F124254E4FF1294
:1034FB004264900006120792FF124264900005127C
:10350B000792FF124264900004120792FF1242646A
:10351B00900003120792FF1242649000021207926E
:10352B00FF124264900001120792FF1242641207CD
:10353B0079FF1242641243DD90C2C7E0547BF0A3C3
:10354B00E0547FF012425F7F101242547F0F124201
:0C355B006490C2C7E0FF1242640243DD2E
:1031440012425FE4FF1242641244A47F6512426497
:103154007B0612429874782BF582E434C2F583EF2F
:10316400F012458FDBEC12429890C278EFF01245D2
:10317400AD1243DD90C27CE0547FF0E4FB74782B05
:10318400F582E434C2F583E0FFC4540FFE90C2809C
:10319400F0EF540FFFA3F0EE75F00AA42FFF74783C
:1031A4002BF582E434C2F583EFF00BEBB403CE7B52
:1031B4000474782BF582E434C2F583E0FFC4540F21
:1031C400FE90C280F0EF540FFFA3F0EE75F00AA456
:1031D4002FFF74782BF582E434C2F583EFF00BEB08
:1031E400B407CEE490C27FF07B017AC2797890BEB6
:0D31F40079F0A37404F07F107E00022483A4
:10455900EF75F00A84C454F0FEEF75F00A84E5F0B3
:034569004EFF22E0
:0F459E00EFC4540F75F00AA4FEEF540F2EFF2246
:0738770090C2ABEBF0AB07C0
:10387E00ED64016004EDB4021BED240CFEE4339004
:10388E00C2ACF0A3CEF0EB24FFFEE434FFA3F0A312
:10389E00CEF08012AF0590C2ACE4F0A3EFF0AF0310
:1038AE00A3E4F0A3EFF090C2ADE02401FF90C2AC10
:1038BE00E03400FE7C007D1A1207D17D0A1207E368
:1038CE00AC06AD0790C2AEE0FAA3E0FBAE02780202
:1038DE00CEC313CE13D8F92BFFEA3ECF2DCF3CFE2D
:1038EE0090C2ABE07C002FFFEC3ECF24DCCF34FF48
:0838FE00FE7D071207E3AF0590
:01390600229E
:1032B0007B017AC2793590BD88E4F0A37404F07F75
:1032C0009C7E00121C3990C235E0645A60030233C0
:1032D0005EA3E064A5600302335EA3E0FF124559DC
:1032E00090C23DEFF090C238E0FF12455990C23EC7
:1032F000EFF090C239E0FF12455990C23FEFF090D5
:10330000C237E0FFA3E0FDA3E0FB12387790C24094
:10331000EFF090C23AE0FF12455990C241EFF044FD
:1033200080F090C23BE0FF12455990C242EFF0900E
:10333000C23CE0FF12455990C243EFF07B017AC2D4
:10334000793D1234BBE490C235F0A3F07AC27935EE
:0E33500090BE79F0A304F07F9C7E00122483CF
:01335E00224C
:1044D7007D027F031240877D037F031240871231DD
:0944E70044E4F518F5190232B0A5
:103F5C00AB07AA06A905A8047F007E387D317C003A
:103F6C001209A9C3E49F90BD89F074049E90BD888A
:103F7C00F043C9407D04E4FF1240877D05E4FF1245
:103F8C003FAA43803075D88075985090BD88E0FC6E
:0D3F9C00A3E0FDECF5BA8DAA43A810D2AC4D
:013FA90022F5
:103FF600AB07AA06A905A8047F007E707D627C0037
:104006001209A9C3E49F90BD89F074049E90BD88EF
:10401600F043C9207D06E4FF1240877D07E4FF12C6
:104026003FAA4380C0759B9090BD88E0FCA3E0FD4D
:08403600ECF5BB8D9D439A01DE
:01403E00225F
:10434200759680759780AB07AA06A905A8047F0019
:104352007EC07D897C011209A9AD07AC06ECF5D9B6
:07436200AF058FE743B80C23
:014369002231
:10415D0075A78075AB80AB07AA06A905A8047F00DB
:10416D007EC07D897C011209A9AD07AC06ECF5AEC8
:10417D00AF058FAF43B830E490A01BF0A3F0A3F0D0
:10418D00A3F090A023F090A01FF0A3F0A3F0A3F054
:01419D0022FF
:103EB900EF14601B1460291460372403704490BD0B
:103EC90084E0FCA3E0FDA3E0FEA3E0FF023F5C90D9
:103ED900BD84E0FCA3E0FDA3E0FEA3E0FF023FF602
:103EE90090BD84E0FCA3E0FDA3E0FEA3E0FF024354
:103EF9004290BD84E0FCA3E0FDA3E0FEA3E0FF1235
:033F0900415D22F5
:101DF90090C292EFF0A3ECF0A3EDF0A3EBF0A3EA0D
:041E0900F0A3E9F069
:101E0D00C2AFE4A3F0A3F090C293E0FEA3E0FFC342
:101E1D0090C299E09F90C298E09E4003021ED1901F
:101E2D00C295E0FBA3E475F00112084EA9F0FA1279
:101E3D000779FF90C292E0FE75F009A42400F582A7
:101E4D00E5F03488F583EE75F008A42583F583E07D
:101E5D00FCA3E0FD75F009EEA42400F582E5F03455
:101E6D0080F583EE75F008A42583F583E5822DF5C5
:101E7D0082E5833CF583EFF075F009EEA42400F5BF
:101E8D0082E5F03488F583EE75F008A42583F5839B
:101E9D00E475F00112083875F009EEA42400F582FE
:101EAD00E5F03488F583EE75F008A42583F583E01D
:101EBD005403F090C299E004F0700690C298E004CB
:101ECD00F0021E1490C292E01460421460701470FF
:101EDD0003021F7924036003021FA9908808E060A4
:101EED0003021FA904F0908802E0FEA3E02400F590
:101EFD008274803EF583E0F599908803E004F070DC
:101F0D0006908802E004F0908802021FA5909011BF
:101F1D00E06003021FA904F090900BE0FEA3E02403
:101F2D0009F58274883EF583E0F59C90900CE004F1
:101F3D00F0700690900BE004F090900B805A909802
:101F4D001AE0705804F0909814E0FEA3E02412F506
:101F5D008274903EF583E0F59E909815E004F07044
:101F6D0006909814E004F0909814802C90A023E033
:101F7D00702A04F090A01DE0FEA3E0241BF58274EE
:101F8D00983EF583E0F5AC90A01EE004F07006904D
:0E1F9D00A01DE004F090A01DE05403F0D2AFB0
:011FAB002213
:0300230002390798
:10390700C0E0C083C082C0D075D000C006C007C267
:10391700AF30982AC298908804E0FEA3E02400F50F
:103927008274843EF583E599F0908805E004F07091
:1039370006908804E004F0908804E05403F030997E
:103947003FC299908802E0FEA3E0FF908800E06EF6
:103957007003A3E06F602474002FF58274803EF536
:1039670083E0F599908803E004F07006908802E000
:1039770004F0908802E05403F08005908808E4F092
:0F398700D2AFD007D006D0D0D082D083D0E032DC
:03005300023CE587
:103CE500C0E0C083C082C0D075D000C006C007C286
:103CF500AF5396FE909814E0FEA3E0FF909812E073
:103D05006E7003A3E06F602474122FF58274903EE9
:103D1500F583E0F59E909815E004F07006909814F0
:103D2500E004F0909814E05403F0800590981AE4AC
:103D3500F0D2AFD007D006D0D0D082D083D0E03239
:03005B000240CF91
:1040CF00C0E0C083C082C0D075D000C006C2AF535D
:1040DF0097FE909816E0FEA3E02412F58274943EAA
:1040EF00F583E59FF0909817E004F070069098160E
:1040FF00E004F0909816E05403F0D2AFD006D0D081
:07410F00D082D083D0E03222
:03006300023D4516
:103D4500C0E0C083C082C0D075D000C006C007C225
:103D5500AF53A7FE90A01DE0FEA3E0FF90A01BE0DF
:103D65006E7003A3E06F6024741B2FF58274983E78
:103D7500F583E0F5AC90A01EE004F0700690A01D60
:103D8500E004F090A01DE05403F0800590A023E42A
:103D9500F0D2AFD007D006D0D0D082D083D0E032D9
:03006B0002411639
:10411600C0E0C083C082C0D075D000C006C2AF5315
:10412600ABFE90A01FE0FEA3E0241BF582749C3E2C
:10413600F583E5ADF090A020E004F0700690A01F96
:10414600E004F090A01FE05403F0D2AFD006D0D028
:07415600D082D083D0E032DB
:030083000236B88A
:1036B800C0E0C083C082C0D075D000C006C007C2B9
:1036C800AFE59B30E02E759B90539BFE90900DE0EC
:1036D800FEA3E02409F582748C3EF583E59CF09006
:1036E800900EE004F0700690900DE004F090900DBC
:1036F800E05403F0E59B30E143759B90539BFD90AC
:10370800900BE0FEA3E0FF909009E06E7003A3E049
:103718006F602474092FF58274883EF583E0F59C68
:1037280090900CE004F0700690900BE004F09090FC
:103738000BE05403F08005909011E4F0D2AFD0076D
:0B374800D006D0D0D082D083D0E03279
:1037E60090C2C2EBF0A3EAF0A3E9F07D02E4FF1277
:1037F60040877D03E4FF123FAA7B017D02E4FF12AE
:10380600375343C98075F1FFE4F5F275F36075F43B
:103816000175F88F30FCFD90C2C2E0FBA3E0FAA36D
:10382600E0F9120779F5FA900001120792F5FB907C
:103836000002120792F5FC900003120792F5FDD2E2
:10384600FE20FEFDE4F5FAF5FBF5FCF5FDD2FE20C3
:10385600FEFD75FAFF75FBFF75FCFF75FDFFD2FED9
:1038660020FEFDE4F5F8758FA0E58F20E5FBD2B9C3
:01387600222F
:10448900E5E830E51553E8DF438F407FE87E031206
:0B44990044C2538FBFE490BA28F02209
:10278F0075F1FFE4F5F275F36475F40175F88F30A8
:10279F00FCFD90BA27E075F00DA42424F582E5F036
:1027AF0034ADF583E0F5FAE4F5FBF5FCF5FDD2FE6B
:1027BF0020FEFD90BA27E0FB75F00DA42425F582CD
:1027CF00E5F034ADF583E0FCA3E0FDA3E0FEA3E06C
:1027DF00FF7818120A598FFA75F00DEBA42425F51E
:1027EF0082E5F034ADF583E0FCA3E0FDA3E0FEA3AA
:1027FF00E0FF7810120A598FFB90BA27E0FB75F0B3
:10280F000DA42425F582E5F034ADF583E0FCA3E0BB
:10281F00FDA3E0FEA3E0FF7808120A598FFC75F0C4
:10282F000DEBA42425F582E5F034ADF583A3A3A326
:10283F00E0F5FDD2FE20FEFD90BA27E0FF75F00D0A
:10284F00A42429F582E5F034ADF583E0F5FA75F0AF
:10285F000DEFA4242AF582E5F034ADF583E0F5FB06
:10286F0090BA27E0FF75F00DA4242BF582E5F03424
:10287F00ADF583E0F5FC75F00DEFA4242CF582E5A2
:10288F00F034ADF583E0F5FDD2FE20FEFD90BA27C2
:10289F00E0FF75F00DA4242DF582E5F034ADF5833E
:1028AF00E0F5FA75F00DEFA4242EF582E5F034ADC6
:1028BF00F583E0F5FB90BA27E0FF75F00DA4242F08
:1028CF00F582E5F034ADF583E0F5FC75F00DEFA47E
:1028DF002430F582E5F034ADF583E0F5FDD2FE202E
:0C28EF00FEFD90BA27E004F0E4F5F822AA
:0617CB0090C21E120AC4C8
:1017D100D390C224E0940090C223E0940840030215
:1017E1001A4190C222E0FB90C21E30E70FE0FCA339
:1017F100E0FDA3E0FEA3E0FF7803800DE0FCA3E0A1
:10180100FDA3E0FEA3E0FF7815120A6C90C22D1231
:101811000AC490BA26E0FA75F00DA42424F582E5F5
:10182100F034ADF583E030E63890C22DE0FCA3E062
:10183100FDA3E0FEA3E0FF75F00DEAA42425F582E7
:10184100E5F034ADF583120AC4EB54C0FF75F00D19
:10185100EAA42424F582E5F034ADF583EFF0021A11
:101861002590C223E0FCA3E0FDAE047803CEC313B0
:10187100CE13D8F990C22BF0ED5407A3F0E490C237
:101881002AF090C222E054C0FFE4FCFDFE90C23178
:10189100120AC4E490C228F090C22BE0FF90C22843
:1018A100E0C39F400302195090C22DE0FCA3E0FD6C
:1018B100A3E0FEA3E0FF90BA26E0FB75F00DA4249F
:1018C10025F582E5F034ADF583120AC490C231E00A
:1018D100FCA3E0FDA3E0FEA3E04408FF75F00DEBDF
:1018E100A42424F582E5F034ADF583EFF0E490C251
:1018F10029F090C229E0FFC39408504490C225E02A
:10190100FBA3E0FAA3E0F990C22AE0F58275830017
:10191100120792FE90BA26E075F00DA42429F582F3
:10192100E5F034ADF583E5822FF582E43583F58367
:10193100EEF090C22AE004F090C229E004F080B2F7
:1019410090BA26E004F090C228E004F002189990C1
:10195100C22CE0FB7003021A2BA3E0FCA3E0FDA361
:10196100E0FEA3E0FF90BA26E075F00DA42425F572
:1019710082E5F034ADF583120AC4AF0390C231A3FE
:10198100E0F9A3E0FAA3E04FFF90BA26E075F00D6D
:10199100A42424F582E5F034ADF583EFF0E490C2A0
:1019A10029F090C22CE0FF90C229E0FEC39F504471
:1019B10090C225E0FBA3E0FAA3E0F990C22AE0F58A
:1019C10082758300120792FF90BA26E075F00DA48C
:1019D1002429F582E5F034ADF583E5822EF582E424
:1019E1003583F583EFF090C22AE004F090C229E03C
:1019F10004F080AE90C229E0FFC39408502690BA4B
:101A010026E075F00DA42429F582E5F034ADF583C7
:101A1100E5822FF582E43583F583E4F090C229E075
:101A210004F080D090BA26E004F090BA28E070105B
:101A3100C2AF12278FD2AF90BA287401F0438F043E
:011A41002282
:03004B000214712B
:10147100C0E0C0F0C083C082C0D075D000C000C041
:0D14810001C002C003C004C005C006C007C2
:10148E00C2AFE59130E70353913FE59120E60302A9
:10149E0017715391BF75F1FF75F20075F36875F40E
:1014AE000175F8AF30FCFDD2FE20FEFD90BD43E588
:1014BE00FAF0E0FF90BA24E075F00DA42424F58232
:1014CE00E5F034A0F583EFF0D2FE20FEFD90BA24B5
:1014DE00E075F00DA42425F582E5F034A0F583C067
:1014EE0083C082E0FCA3E0FDA3E0FEA3E0FF78084A
:1014FE00120A6CD082D083120AC490BA24E075F01E
:10150E000DA42425F582E5F034A0F583C083C082B6
:10151E00E0F8A3E0F9A3E0FAA3E0FBAFFAEB4FFF8C
:10152E00EAFEE9FDE8FCD082D083120AC490BA2408
:10153E00E075F00DA42425F582E5F034A0F583C006
:10154E0083C082E0FCA3E0FDA3E0FEA3E0FF7808E9
:10155E00120A6CD082D083120AC490BA24E075F0BD
:10156E000DA42425F582E5F034A0F583C083C08256
:10157E00E0F8A3E0F9A3E0FAA3E0FBAFFBEB4FFF2B
:10158E00EAFEE9FDE8FCD082D083120AC490BA24A8
:10159E00E075F00DA42425F582E5F034A0F583C0A6
:1015AE0083C082E0FCA3E0FDA3E0FEA3E0FF780889
:1015BE00120A6CD082D083120AC490BA24E075F05D
:1015CE000DA42425F582E5F034A0F583C083C082F6
:1015DE00E0F8A3E0F9A3E0FAA3E0FBAFFCEB4FFFCA
:1015EE00EAFEE9FDE8FCD082D083120AC490BA2448
:1015FE00E075F00DA42425F582E5F034A0F583C046
:10160E0083C082E0FCA3E0FDA3E0FEA3E0FF780828
:10161E00120A6CD082D083120AC490BA24E075F0FC
:10162E000DA42425F582E5F034A0F583C083C08295
:10163E00E0F8A3E0F9A3E0FAA3E0FBAFFDEB4FFF68
:10164E00EAFEE9FDE8FCD082D083120AC490BA24E7
:10165E00E075F00DA42425F582E5F034A0F583C0E5
:10166E0083C082E0FCA3E0FDA3E0FEA3E0FF7803CD
:10167E00120A59D082D083120AC490BD43E020E7EB
:10168E002D90BA24E075F00DA42425F582E5F034F2
:10169E00A0F583C083C082E0FCA3E0FDA3E0FEA31F
:1016AE00E0FF7812120A59D082D083120AC490BD7C
:1016BE0043E030E603021768D2FE20FEFD90BA2406
:1016CE00E0FF75F00DA42429F582E5F034A0F58332
:1016DE00E5FAF075F00DEFA4242AF582E5F034A0BA
:1016EE00F583E5FBF075F00DEFA4242BF582E5F004
:1016FE0034A0F583E5FCF075F00DEFA4242CF582F3
:10170E00E5F034A0F583E5FDF0D2FE20FEFD90BAA3
:10171E0024E0FF75F00DA4242DF582E5F034A0F53C
:10172E0083E5FAF075F00DEFA4242EF582E5F03482
:10173E00A0F583E5FBF075F00DEFA4242FF582E5FF
:10174E00F034A0F583E5FCF075F00DEFA42430F530
:10175E0082E5F034A0F583E5FDF075F80090BA242B
:10176E00E004F0E59130E51A5391DF90BA26E0FFE0
:10177E00A3E06F600812278F438F04800590BA286C
:10178E00E4F0E59130E4035391EFE59130E3035338
:10179E0091F7E59130E2065391FB438F0475E80013
:0217AE00D2AFB8
:1017B000D007D006D005D004D003D002D001D0008D
:0B17C000D0D0D082D083D0F0D0E03237
:0545C400253032580013
:0844F40041BFAE0041BFAF0063
:0A45BA0075F90175BCFD7590FD2236
:103E050090C0B4EEF0A3EFF0A3EBF0A3EAF0A3E9C2
:013E1500F0BC
:103E160012451EEF04FDE4FFEFC39D502890C0B687
:103E2600E0FBA3E0FAA3E0F98F8275830012079204
:103E3600FBEF25E024B9F582E434C0F583E4F0A372
:103E4600EBF00F80D390C0B4E0FEA3E0FF7B017AD5
:0E3E5600C079B990BE79E4F0A3EDF0022483A8
:103DA50090C1B5EEF0A3EFF0A3EBF0A3EAF0A3E921
:013DB500F01D
:103DB60012451EEF04FFE4FEEEC39F502890C1B7E4
:103DC600E0FBA3E0FAA3E0F98E8275830012079266
:103DD600FDEE25E024BAF582E434C1F583E4F0A3D0
:103DE600EDF00E80D390C1B5E0FEA3E0FF7B017A33
:0F3DF600C179BA90BE79E4F0A3743CF002248343
:1026160012421D12446DD2AF1245BA122EB890BDA9
:1026260084120AD00001C2007F03123EB9E490C0B2
:10263600B3F090C0B1F090BFB1F090BFB0F01241CE
:042646009E1222EBD3
:10264A007B017ABD794490BD88E4F0A37403F07FDE
:10265A00167E00121C3990BD44E0B45AE3E4F07BC4
:10266A00017ABD794690BE79F0A304F07F167E0008
:03267A00122483A4
:10267D0090BD45E0FF90BD4AE4F0A3EFF07B017AF9
:10268D00BD794A90BE79E4F0A304F07F007E40123C
:10269D0024837B017ABD794690BE79E4F0A3740260
:0826AD00F07F007E521224832D
:0726B50090BD45E014708E9A
:1026BC00E490BD4AF090BE81E0FF90BD4AE0FEC3BD
:1026CC009F400302276C75F009EEA4248FF582E578
:1026DC00F034BEF583E0FEA3E0FF90BD46E0FCA322
:1026EC00E0FDC39FEC9E406F90BD4AE0FF75F00982
:1026FC00A42493F582E5F034BEF583E0FAA3E0FB65
:10270C00D3ED9BEC9A505075F009EFA42491F5820F
:10271C00E5F034BEF583E0FEA3E0FF90BD48E0FC9D
:10272C00A3E0FDC39FEC9E402EA3E0FF75F009A42F
:10273C002495F582E5F034BEF583E0FAA3E0FBD3F3
:10274C00ED9BEC9A501190BE8AA3E0FAA3E0F582BF
:10275C008A83120B61800990BD4AE004F00226C105
:10276C0090BD4AE0FFA3E4F0A3EFF07B017ABD79C2
:10277C004B90BE79E4F0A304F07F007E25122483F5
:03278C0002264AD8
:0345D500FF45D8C7
:0145D80022C0
:103C1500C2AFE4F5F1F5F275F30A75F40175F8AF85
:103C250030FCFDD2FE20FEFDAFFA90C2C9E4F0A340
:103C3500EFF0E07F00FE90C2C9F0A3EFF0ADFBED21
:103C4500FF90C2C9EEF0A3EFF0E4F5F8D2AF90C251
:103C5500C9E0FEA3E0FF9045D575F003120B01EE18
:103C650075F003A42583F583E493FB740193FA743B
:0D3C75000293F94A600789828A83120B616D
:013C8200221F
:0445D1000F40720025
:103A220078BE7CC27D017BFF7A4579D17E007F041E
:103A320012075390BD84120AD00001C200E4FF12A3
:103A42003EB97B017AC279BE1237E690BA29740177
:103A5200F0A37484F0A37400F0A37401F0A374883B
:103A6200F0A37404F0A37401F0A37488F0A37406A5
:103A7200F0A37404F0A3E4F07B01A304F0A374BAEE
:103A8200F0A3743FF0A3EBF0A374BBF0A3743FF078
:103A9200A3EBF0A374BBF0A37441F0A37401F0A3F1
:023AA200E4F04E
:013AA40022FF
:103AA5007B017ABB794390BD88E4F0A37402F07F73
:103AB500007E0F121C3990BB43E0645A7062F07BA4
:103AC500017ABB794390BE79F0A37402F07F007E42
:103AD5000F12248390BB46E0FDC394C840027D6469
:103AE50090BB44E0FEA3E0FBAA0690BB43745AF0EA
:103AF500A374A5F0ED25E02404A3F0A37483F0EAF4
:103B0500A3F0A3EBF0A3EDF0AE02AF037B017ABB0C
:103B1500794A90BD88E4F0A3EDF0121C397F0122AB
:023B25007F001F
:013B2700227B
:0B0BD00090C245EBF0A3EAF0A3E9F0AF
:100BDB00C2AF900003120B2D120864FFAEF090C24F
:100BEB0050EEF0A3EFF0D2AF90C245E0FBA3E0FADA
:100BFB00A3E0F9900006120B2D120864FDACF06F08
:100C0B007002EC6E7003021109C390C251E09D900B
:100C1B00C250E09C90C245E0FBA3E0FAA3E0F95080
:100C2B002190000912088FFF90C251E02FFF90C254
:100C3B0050E035F0CFC39DCF9C90C248F0A3EFF0AE
:100C4B00801E900006120B2D120864FFC390C25138
:100C5B00E09FFE90C250E095F090C248F0A3CEF01A
:100C6B00C390C249E0940690C248E0940050037FC1
:100C7B00002290C245E0FBA3E0FAA3E0F990000646
:100C8B00120B2D120864FDACF090C245E0FBA3E003
:100C9B00FAA3E0F9120B0D8D828C83120792FF9051
:100CAB00C24EE4F0A3EFF0E0F8E4F0E890C24EF0AF
:100CBB00ED2401FFE43CFE90C252F0A3EFF090C292
:100CCB0045E0FBA3E0FAA3E0F990000912088FFDC1
:100CDB00C3EF9DEE95F04007E490C252F0A3F012E3
:100CEB000B0D90C252E0FEA3E0F5828E83120792A9
:100CFB00FF90C24EE0FEA3E04FFF90C24EEEF0FE1F
:100D0B00A3EFF064A57003EE645A60030210B49075
:100D1B00C245E0FBA3E0FAA3E0F9900006120B2D0D
:100D2B001208642403FFE435F0FE90C252F0A3EFE7
:100D3B00F090C245E0FBA3E0FAA3E0F990000912A2
:100D4B00088FFDC3EF9DEE95F04007E490C252F083
:100D5B00A3F0120B0D90C252E0FEA3E0F5828E833E
:100D6B0012079264826003020EE290C245E0FBA37D
:100D7B00E0FAA3E0F9900006120B2D12086424028E
:100D8B00FFE435F0FE90C252F0A3EFF090C245E0C5
:100D9B00FBA3E0FAA3E0F990000912088FFDC3EF63
:100DAB009DEE95F04007E490C252F0A3F090C2453F
:100DBB00E0FBA3E0FAA3E0F9120B0D90C252E0FEA8
:100DCB00A3E0F5828E831207922403FFE433FE9097
:100DDB00C24AF0A3EFF0C390C249E09F90C248E033
:100DEB009E5003021109E490C24CF0A3F090C24A4A
:100DFB00E0FEA3E0FFA3E0FCA3E0FDC39FEC9E405D
:100E0B0003020EAE90C245E0FBA3E0FAA3E0F9901B
:100E1B000006120B2D120864FFAEF090C245E0FBEA
:100E2B00A3E0FAA3E0F9120B0D8F828E83120792C7
:100E3B00FF74432DF58274BB3CF583EFF090C245F4
:100E4B00E0FBA3E0FAA3E0F9900006120B2DE4758A
:100E5B00F0011208C790C245E0FBA3E0FAA3E0F94A
:100E6B00900006120B2D120864FFAEF090C245E005
:100E7B00FBA3E0FAA3E0F990000912088FFDC3EF82
:100E8B009DEE95F0400C900006120B2DE4F5F01240
:100E9B0008FF90C24DE004F0700690C24CE004F0E5
:100EAB00020DF890BB47E0FEA3E0FF7B017ABB7914
:100EBB004990BB45E024FDC313FD90BE79E4F0A33C
:100ECB00EDF012248390BB457403F090BB47744F35
:100EDB00F0A3744B02106590C245E0FBA3E0FAA3AC
:100EEB00E0F9120B0D90C252E0FEA3E0F5828E8367
:100EFB001207926483600302106990C245E0FBA362
:100F0B00E0FAA3E0F9900006120B2D1208642402FC
:100F1B00FFE435F0FE90C252F0A3EFF090C245E033
:100F2B00FBA3E0FAA3E0F990000912088FFDC3EFD1
:100F3B009DEE95F04007E490C252F0A3F090C245AD
:100F4B00E0FBA3E0FAA3E0F9120B0D90C252E0FE16
:100F5B00A3E0F5828E831207922403FFE433FE9005
:100F6B00C24AF0A3EFF0C390C249E09F90C248E0A1
:100F7B009E5003021109E490C24CF0A3F090C24AB8
:100F8B00E0FEA3E0FFA3E0FCA3E0FDC39FEC9E40CB
:100F9B000302103E90C245E0FBA3E0FAA3E0F990F8
:100FAB000006120B2D120864FFAEF090C245E0FB59
:100FBB00A3E0FAA3E0F9120B0D8F828E8312079236
:100FCB00FF74432DF58274BB3CF583EFF090C24563
:100FDB00E0FBA3E0FAA3E0F9900006120B2DE475F9
:100FEB00F0011208C790C245E0FBA3E0FAA3E0F9B9
:100FFB00900006120B2D120864FFAEF090C245E074
:10100B00FBA3E0FAA3E0F990000912088FFDC3EFF0
:10101B009DEE95F0400C900006120B2DE4F5F012AE
:10102B0008FF90C24DE004F0700690C24CE004F053
:10103B00020F8890BB47E0FEA3E0FF7B017ABB79F0
:10104B004AA3E0FD90BD88E4F0A3EDF0121C3990AB
:10105B00BB49E025E0240490BB45F07F012290C200
:10106B0045E0FBA3E0FAA3E0F9900006120B2DE498
:10107B0075F0011208C790C245E0FBA3E0FAA3E0AC
:10108B00F9900006120B2D120864FFAEF090C245CA
:10109B00E0FBA3E0FAA3E0F990000912088FFDC36F
:1010AB00EF9DEE95F04057804990C245E0FBA3E0E1
:1010BB00FAA3E0F9900006120B2DE475F00112086B
:1010CB00C790C245E0FBA3E0FAA3E0F9900006123B
:1010DB000B2D120864FFAEF090C245E0FBA3E0FAC3
:1010EB00A3E0F990000912088FFDC3EF9DEE95F078
:1010FB00400C900006120B2DE4F5F01208FF7F0058
:01110B0022C1
:102A480090BA25E0FF90BA24E06F7003022AE1757E
:102A5800F00DEFA42425F582E5F034A0F583E0FC21
:102A6800A3E0FDA3E0FEA3E0FFE47B23FAF9F8C3AB
:102A7800120A48705E90BA25E075F00DA42424F57A
:102A880082E5F034A0F583E0540FFFE4FEEEC39F27
:102A9800504190BA25E075F00DA42429F582E5F09F
:102AA80034A0F583E5822EF582E43583F583E0FDD5
:102AB80090BB3FE0FAA3E0243FF58274BA3AF5836D
:102AC800EDF090BB40E004F0700690BB3FE004F0EE
:102AD8000E80BA90BA25E004F0123AA5EF640170AE
:102AE8004190BB45E02403FDE433FC7B017ABB79CC
:102AF80043E4FF121DF9E490C222F090BB45E024A4
:102B080003FEE43390C223F0A3CEF0A37401F0A334
:102B180074BBF0A37443F07F237E007D007C001219
:102B280017CB7B017ABA7929120BD0BF011590BB5C
:102B380045E02403FDE433FC7B017ABB7943E4FFE1
:102B4800121DF97B017ABA7934120BD0BF012CE43B
:102B580090C222F090BB45E02403FEE43390C223E8
:102B6800F0A3CEF0A37401F0A374BBF0A37443F0F8
:0B2B78007F247E007D007C001217CB44
:012B8300222F
:10456C00FF988103FF988104FF988101FF988100D7
:03457C00351129CD
:0244FC00C109F4
:10340E00E490C2B0F0A3F0A374B0F0A374FAF0C2CB
:10341E0090C2947F057E001244C2E490C2B4F09034
:10342E00C2B2E0A330E704D2928002C292C2937F6E
:10343E00057E001244C2D2937F057E001244C290D4
:10344E00C2B3E025E0F090C2B2E033F090C2B4E037
:10345E0004F0E0C3941040C7D2947F057E0012445E
:10346E00C2E490C2B4F0C2937F057E001244C2D271
:10347E00937F057E001244C290C2B1E025E0F09029
:10348E00C2B0E033F0309107E0F0A3E04401F090D9
:10349E00C2B4E004F0E0C3941040CBD2907F057E1E
:0C34AE00001244C290C2B0E0FEA3E0FF98
:0134BA0022EF
:10335F00E490C2B5F0A3F0EFFF74FAA3CFF0A3EFA0
:10336F00F0C290C2947F057E001244C2E490C2B9AD
:10337F00F090C2B7E0A330E704D2928002C292C2AB
:10338F00937F057E001244C2D2937F057E001244C4
:10339F00C290C2B8E025E0F090C2B7E033F090C21F
:1033AF00B9E004F0E0C3941040C7D2947F057E00CB
:1033BF001244C2E490C2B9F0C2937F057E0012445A
:1033CF00C2D2937F057E001244C290C2B6E025E0C0
:1033DF00F090C2B5E033F0309107E0F0A3E0440184
:1033EF00F090C2B9E004F0E0C3941040CBD2907FCC
:0E33FF00057E001244C290C2B5E0FEA3E0FFBE
:01340D00229C
:103F0C0090BD8DEFF0C290C2947F057E001244C22A
:103F1C00E490BD8CF090BD8DE030E704D29280022D
:103F2C00C292C2937F057E001244C2D2937F057E5B
:103F3C00001244C290BD8DE025E0F090BD8CE004F1
:103F4C00F0E0C3940840CED2907F057E000244C2BC
:05307200E4FDFC7FB845
:1030770090BD8DEFF0ECA3F0A3EDF0C290C2947F6A
:10308700057E001244C2E490BD8CF090BD8DE03007
:10309700E704D2928002C292C2937F057E00124457
:1030A700C2D2937F057E001244C290BD8DE025E019
:1030B700F090BD8CE004F0E0C3940840CED2947F3A
:1030C700057E001244C2E490BD8CF090BD8FE030C5
:1030D700E704D2928002C292C2937F057E00124417
:1030E700C2D2937F057E001244C290BD8FE025E0D7
:1030F700F090BD8CE004F0E0C3940840CEE490BDAE
:103107008CF090BD8EE030E704D2928002C292C26A
:10311700937F057E001244C2D2937F057E0012443E
:10312700C290BD8EE025E0F090BD8CE004F0E0C3D6
:0D313700940840CED2907F057E000244C275
:063613007BFF7D047C003A
:0B36190090BD83EBF0A3EAF0A3E9F002
:10362400AE04AF05A3EEF0A3EFF07FBC12307790A9
:10363400BD86E0FCA3E0FD7FBE1230777FBF123F62
:103644000CC290D2947F057E001244C290BD867451
:10365400FFF5F012084E45F0605190BD83E0FBA3E6
:10366400E475F00112084EA9F0FA12077990BD89A9
:10367400F0E490BD88F090BD88E0C3940850CDA3D9
:10368400E030E704D2928002C292C2937F057E00AA
:103694001244C2D2937F057E001244C290BD89E0D9
:1036A40025E0F090BD88E004F080CBD2907F057EC9
:0436B400000244C20A
:1035670090BD897401F0A374BDF0A37487F090BD7A
:1035770087EFF0A3EDF090BD83E4F0A37402F0FDB4
:103587007C007FBC12307790BD83E0FCA3E0FD7F19
:10359700BE1230777FBF123F0CC290D2947F0F7E4E
:1035A700001244C290BD8374FFF5F012084E45F037
:1035B700605190BD89E0FBA3E475F00112084EA9A4
:1035C700F0FA12077990BD86F0E490BD85F090BDC2
:1035D70085E0C3940850CDA3E030E704D29280027F
:1035E700C292C2937F0F7E001244C2D2937F0F7E96
:1035F700001244C290BD86E025E0F090BD85E0044E
:0C360700F080CBD2907F0F7E000244C206
:100103007A45796C123613E4FD7F01123567E4FDFD
:100113007F021235677D577F031235677DD37F04D6
:10012300123567E4FD7F051235677D117F061235B1
:10013300677D087F07123567E4FD7F08123567E4A2
:10014300FD7F091235677D3F7F0A123567E4FD7F26
:100153000B123567E4FD7F0C123567E4FD7F0D124A
:100163003567E4FD7F0E1235677D3F7F0F123567DC
:100173007D3F7F10123567E4FD7F11123567E4FD83
:100183007F12123567E4FD7F13123567E4FD7F1498
:10019300123567E4FD7F15123567E4FD7F161235CE
:1001A30067E4FD7F17123567E4FD7F18123567E4B6
:1001B300FD7F19123567E4FD7F1A123567E4FD7F71
:1001C3001B123567E4FD7F1C123567E4FD7F1D12AA
:1001D30035677D407F1E1235677D807F1F1235672F
:1001E3007D067F201235677D017F21123567E4FD8F
:1001F3007F22123567E4FD7F23123567E4FD7F24F8
:10020300123567E4FD7F25123567E4FD7F2612353D
:1002130067E4FD7F271235677D337F281235677DBD
:10022300337F29123567E4FD7F2A123567E4FD7FAA
:100233002B123567E4FD7F2C123567E4FD7F2D1209
:100243003567E4FD7F2E123567E4FD7F2F12356796
:10025300E4FD7F30123567E4FD7F31123567E4FD3D
:100263007F32123567E4FD7F33123567E4FD7F3457
:10027300123567E4FD7F35123567E4FD7F361235AD
:1002830067E4FD7F371235677D787F38123567E481
:10029300FD7F39123567E4FD7F3A123567E4FD7F50
:1002A3003B123567E4FD7F3C123567E4FD7F3D1269
:1002B3003567E4FD7F3E123567E4FD7F3F12356706
:1002C300E4FD7F40123567E4FD7F41123567E4FDAD
:1002D3007F42123567E4FD7F43123567E4FD7F44B7
:1002E300123567E4FD7F501235677D237F51123548
:1002F300677D457F521235677D677F531235677D72
:10030300897F541235677DAB7F551235677D017F39
:10031300561235677D237F571235677D457F581207
:1003230035677D677F591235677D897F5A12356737
:100333007DAB7F5B1235677DCD7F5C1235677DEFCB
:100343007F5D123567E4FD7F5E1235677D0D7F5F4C
:100353001235677D0D7F601235677D0C7F61123525
:10036300677D0C7F621235677D0F7F631235677D72
:100373000F7F641235677D0E7F651235677D0E7FB3
:10038300661235677D087F671235677D027F6812C5
:1003930035677D027F691235677D027F6A12356793
:1003A3007D027F6B1235677D027F6C1235677D029C
:1003B3007F6D1235677D027F6E1235677D027F6F19
:1003C3001235677D147F701235677D157F71123585
:1003D300677D067F721235677D027F731235677DF5
:1003E300027F741235677D0D7F751235677D0D7F32
:1003F300761235677D0C7F771235677D0C7F781217
:1004030035677D0F7F791235677D0F7F7A123567E8
:100413007D0E7F7B1235677D0E7F7C1235677D08ED
:100423007F7D1235677D027F7E1235677D027F7F78
:100433001235677D027F801235677D027F81123519
:10044300677D027F821235677D027F831235677D68
:10045300027F841235677D027F851235677D147FA5
:10046300861235677D157F871235677D067F881273
:1004730035677D027F891235677D027F8A12356772
:100483007A4579701236137D3B7F6E1235677D573F
:100493007F6F1235677D247F3A1235677D1F7F8D0D
:1004A3001235677DBA7F871235677DD17FB21235EA
:1004B300677D0B7F881235677D017F38123567E4CE
:1004C300FD7F391235677D077FB51235677D757FEF
:1004D300311235677D987F3B1235677BFF7A45790B
:1004E300741236157D0A7F221235677D097F31121A
:1004F30035677D077F351235677D677F5312356713
:100503007D847F551235677D867F501235677D82E6
:100513007F511235677D107F60123567E4FD7F627E
:10052300123567E4FD7FA01235677D127FA1123576
:10053300677D1F7FA21235677D127FA31235677D0A
:10054300167FA41235677D297FA51235677D1E7F2F
:10055300A61235677D1F7FA71235677D7E7FA812A0
:1005630035677D1B7FA91235677D287FAA12356702
:100573007D6D7FAB1235677D197FAC1235677D18B2
:100583007FAD1235677D4C7FAE1235677D1E7FAF21
:100593001235677D237FB01235677D527FB11235E7
:1005A300677D6D7FB21235677D3F7FB3123567E498
:1005B300FD7FC01235677D127FC11235677D207FB5
:1005C300C21235677D107FC31235677D137FC41256
:1005D30035677D277FC51235677D1B7FC61235675B
:1005E3007D1D7FC71235677D757FC81235677D1FF7
:1005F3007FC91235677D287FCA1235677D687FCB37
:100603001235677D1A7FCC1235677D187FCD123581
:10061300677D4D7FCE1235677D257FCF1235677D90
:100623002E7FD01235677D537FD11235677D607F72
:10063300D21235677D3F7FD31235677BFF7A4579C9
:10064300781236157BFF7A45797C7D017C00123662
:10065300197F8C7E0012403F7BFF7A45797D7D01B7
:100663007C001236197F787E0012403F7BFF7A456B
:10067300797E7D017C001236197FAA7E0002403FFD
:1042ED007D067C087FB11230777D227C187FB2125B
:1042FD0030777D127C687FB31230777D207C037F11
:0D430D00B41230777D007C057FB50230775B
:102EB8007D507C007FB7123077123072E4FDFC7FC2
:102EC800B91230777D0A7C807FBA1230777D067C14
:102ED800007FBB1230777D017C007FB9123077E428
:102EE800FDFC7FDE1230777D027C237FC9123077AC
:102EF8007F0A7E0012403F1201037D517C017FB79B
:102F0800123077123072E4FDFC7FB91230777D15EC
:102F18007C807FBA1230777D057C007FBB123077CA
:102F28007D017C007FB91230777D027C237FC91236
:102F380030777F0A7E0012403F7D017C237FCA12D2
:102F480030777D107C057FCB1230777D057C107F34
:102F5800CC1230777DFF7C007FD01230771242EDA3
:102F68007DD37C007FB61230777D037C007FDE1234
:102F780030777D047C007FD61230777D4B7C027FD2
:0E2F8800B71230777F3C7E0012403FD2092204
:1042BF00008003FFFFBF03FFFCBF0000306F000053
:1042CF000007000003800000007800000C000000D1
:0E42DF00300000F00000000FC00003000000DF
:0A44FE0041BE8D000427021054890E
:102CAD0090BDA4EEF0A3EFF0A3EBF0A3EAF0A3E93F
:012CBD00F026
:102CBE0090BDAC7424F0A37407F090BDA9E0FF9012
:102CCE00BDAEE4F0A3EFF090BDAB7402F0E490BDA6
:102CDE00AAF090BDA9E0FFA3E0FEC39F4003022D22
:102CEE0088EE75F009A4FF90BDA6E0FBA3E0FAA361
:102CFE00E02FF9EA35F0FA90000112088FFF90BD2F
:102D0E00ABE025E024ACF582E434BDF583E5F0F0CC
:102D1E00A3EFF090BDABE004F090000312088FFF1C
:102D2E0090BDABE025E024ACF582E434BDF583E53F
:102D3E00F0F0A3EFF090BDABE004F090BDA6E0FB89
:102D4E00A3E0FAA3E0F990BDAAE075F009A4F5821C
:102D5E0085F083120792FF90BDABE025E024ACF521
:102D6E0082E434BDF583E4F0A3EFF090BDABE00454
:102D7E00F090BDAAE004F0022CE090BDABE0FD2582
:102D8E00E024ACF582E434BDF58374FFF0A3E4F0E7
:102D9E0090BDA4E0FEA3E0FF7B017ABD79AC90BEAE
:092DAE0079E4F0A3EDF0022483A6
:101FAC0090BD91EEF0A3EFF090BD94EAF0A3EBF0AE
:101FBC00E490BDA0F0A3F0A3F0A3F0ED9042BF60BD
:101FCC0012E493FE740193FFC3E49FFFE49E90BD63
:101FDC00A2800AE493FF74019390BDA0CFF0A3EF0D
:101FEC00F0E490BD9FF090BE81F0E4FFFEFDFC900C
:101FFC00BD98E0F8A3E0F9A3E0FAA3E0FBC3120A52
:10200C0048700302212090BD98A3A3A3E05401FFC4
:10201C00E4EF70030220FE90BD9FE0FF90BE81E0D4
:10202C00FE75F009A4248EF582E5F034BEF583EF3D
:10203C00F090BD94E0FCA3E0FD75F009EEA4248FB4
:10204C00F582E5F034BEF583ECF0A3EDF090BD968F
:10205C00E0FEA3E0FF90BE81E0FD75F009A42491A1
:10206C00F582E5F034BEF583EEF0A3EFF09042BFBD
:10207C00E493FE740193FF90BD95E02FFF90BD9407
:10208C00E03EFE75F009EDA42493F582E5F034BE34
:10209C00F583EEF0A3EFF09042BFE493FE7401934E
:1020AC00FF90BD97E02FFF90BD96E03EFE90BE8165
:1020BC00E075F009A42495F582E5F034BEF583EEC5
:1020CC00F0A3EFF090BDA0E0FEA3E0FF90BD95E083
:1020DC002FF090BD94E03EF090BDA2E0FEA3E0FF97
:1020EC0090BD97E02FF090BD96E03EF090BE81E061
:1020FC0004F090BD98E0FCA3E0FDA3E0FEA3E0FF9C
:10210C007801120A5990BD98120AC490BD9FE00440
:10211C00F0021FF690BD9CE0F9A3E0FAA3E090BE9C
:10212C008AC9F0A3EAF0A3E9F090BD91E0FEA3E028
:10213C00FF7B017ABE798E90BE81E090BDA9F00242
:02214C002CADB8
:0528FB0090BD83EFF029
:10290000E490BD88F090BD88E0FBC39408400302CA
:102910002A47E47F01FEFDFC90BD83E075F009A429
:10292000248EF582E5F034BEF583E0F9F8120A6CE6
:10293000EB25E025E024CDF582E43442F583120A4C
:10294000A8EB5FFFEA5EFEE95DFDE85CFC4D4E4FE3
:102950007003022A3E90BD88E025E025E024CDF5F5
:1029600082E43442F583120A8B90BE8DE025E02587
:10297000E024C1F582E43442F583120AA8EB5FFF3C
:10298000EA5EFEE95DFDE85CFC90BD84120AC4903D
:10299000BD84E0F8A3E0F9A3E0FAA3E0FBC000C027
:1029A00001E47F01FEFDFC90BD83E075F009A424E5
:1029B0008EF582E5F034BEF583E0F9F8120A6C1268
:1029C0000A3BD001D000EB5FFFEA5EFEE95DFDE867
:1029D0005CFC90BD84120AC4E4FFFEFDFC90BD8443
:1029E000E0F8A3E0F9A3E0FAA3E0FBC3120A486011
:1029F0005690BD83E0FF7E009042BFE493FC7401DB
:102A000093FD1207D1AA06AB0790BD967402F0A3FE
:102A10007420F090BD84E0FCA3E0FDA3E0FEA3E001
:102A2000FF90BD98120AC490BD9C74FFF0A374215E
:102A3000F0A3744EF07D017F007E95021FAC90BD27
:072A400088E004F002290503
:012A4700226C
:05214E0090BD89EFF0D7
:10215300E4A3F090BD8AE0FBC3940840030222D0BD
:10216300E47F01FEFDFC90BD89E075F009A4248E97
:10217300F582E5F034BEF583E0F9F8120A6CEB253D
:10218300E025E024CDF582E43442F583120AA8EB7E
:102193005FFFEA5EFEE95DFDE85CFC4D4E4F7003B8
:1021A3000222C77827120A9B90BD8AE025E025E02A
:1021B30024CDF582E43442F583120A8B120A3BEBF9
:1021C3005FFFEA5EFEE95DFDE85CFC7827120AB872
:1021D30090BD89E075F009A4248EF582E5F034BE44
:1021E300F583E014600E14601324027015E490BEAE
:1021F3008DF0800E90BE8D7401F0800690BE8D74BC
:1022030002F07827120A9BC000C001E47F01FEFDA3
:10221300FC90BD89E075F009A4248EF582E5F034C5
:10222300BEF583E0F9F8120A6CD001D000EB4FFF42
:10223300EA4EFEE94DFDE84CFC7827120AB890BE41
:102243008DE025E025E024C1F582E43442F58312D4
:102253000A8B90BD8B120AC490BD8BE0FCA3E0FDFA
:10226300A3E0FEA3E0FF7827120A9BEF5BFFEE5A81
:10227300FEED59FDEC58FC90BD8B120AC49042BF91
:10228300E493FE740193FFC374209F90BD97F07491
:10229300039E90BD96F090BD8BE0FCA3E0FDA3E010
:1022A300FEA3E0FF90BD98120AC490BD9C74FFF09A
:1022B300A37428F0A374FBF0E4FBFAFDFF7E9012F5
:0D22C3001FAC800990BD8AE004F002215696
:1022D000E490BD8FF0A3F07B017ABD798F90BE7939
:0B22E000F0A304F07F007E9502248331
:10419E00E490BE8DF09042BF93FE740193FFC37402
:1041AE00209F90BD97F074039E90BD96F0782712D5
:1041BE000A7F90BD98120AC490BD9C74FFF0A37440
:1041CE0028F0A374FBF0E4FBFAFDFF7E90021FAC17
:1044120090C2A0EEF0A3EFF0AF05A3ECF0A3EFF093
:0E442200AF03A3EAF0A3EFF07B017AC279A00A
:014430002269
:084431003400FEE0FCA3E0FDF5
:1044390090BDB1EEF0A3EFF0AF05A3ECF0A3EFF060
:064449007B017ABD79B190
:01444F00224A
:1022EB00E490BD83F0A3F0A304F0A3742CF0A374CB
:1022FB000AF0A37496F07D2C7C01E4FFFE124439A6
:10230B0078897CBD7D017F0412075390BD88E0FF67
:10231B0090BD8AE02FFF90BD89E090BD8B124431B8
:10232B00788D7CBD7D017E007F0412075390BD8D9F
:10233B00E0FEA3E0FF90BD88E0FDC390BD90E09D63
:10234B00FD90BD8FE09400FC12443978917CBD7DEB
:10235B00017E007F0412075390BD88E0FF90BD9271
:10236B00E02FFF90BD91E090BD9312443178957CA6
:10237B00BD7D017E007F0412075390BD88E0FDFFF9
:10238B0090BD96E02FFF90BD95E03400FEC390BD4D
:10239B0098E09DFD90BD97E09400FC12443978992C
:1023AB007CBD7D017E007F0412075390BD88E075D4
:1023BB00F002A4FF90BD9AE02FFF90BD99E035F09D
:1023CB00FE90BD9B124434789D7CBD7D017E007FC9
:1023DB000412075390BD88E0FDFF90BD9EE02FFFD8
:1023EB0090BD9DE03400FE90BDA0E02DFD90BD9F03
:1023FB00E03400FC12443978A17CBD7D017E007F66
:10240B000412075390BD88E0FF90BDA2E02FFF9010
:10241B00BDA1E03400FE90BDA312443478A57CBD71
:10242B007D017E007F0412075390BDA5E0FEA3E063
:10243B00FF90BD88E0FD90BDA8E02DFD90BDA7E00D
:10244B003400FC12443978A97CBD7D017E007F04E9
:10245B0012075390BD88E0FF90BDA6E02FFF90BD03
:10246B00A5E03400FE90BDA712443478AD7CBD7D51
:08247B00017E007F04020753FB
:030000000239962C
:0C399600787FE4F6D8FD75812A0239DD47
:1039A200022616E493A3F8E493A34003F68001F2FF
:1039B20008DFF48029E493A3F85407240CC8C33326
:1039C200C4540F4420C8834004F456800146F6DFF5
:1039D200E4800B01020408102040809044F0E47E51
:1039E200019360BCA3FF543F30E509541FFEE493EA
:1039F200A360010ECF54C025E060A840B8E493A3B1
:103A0200FAE493A3F8E493A3C8C582C8CAC583CADB
:103A1200F0A3C8C582C8CAC583CADFE9DEE780BE93
:0145080000B2
:10068300E709F608DFFA8046E709F208DFFA803E59
:1006930088828C83E709F0A3DFFA8032E309F60846
:1006A300DFFA8078E309F208DFFA807088828C83AE
:1006B300E309F0A3DFFA806489828A83E0A3F60862
:1006C300DFFA805889828A83E0A3F208DFFA804C3C
:1006D30080D280FA80C680D4806980F28033801013
:1006E30080A680EA809A80A880DA80E280CA80337C
:1006F30089828A83ECFAE493A3C8C582C8CCC583F4
:10070300CCF0A3C8C582C8CCC583CCDFE9DEE780C3
:100713000D89828A83E493A3F608DFF9ECFAA9F042
:10072300EDFB2289828A83ECFAE0A3C8C582C8CC98
:10073300C583CCF0A3C8C582C8CCC583CCDFEADEB1
:10074300E880DB89828A83E493A3F208DFF980CC13
:1007530088F0EF60010E4E60C388F0ED2402B4040C
:100763000050B9F582EB2402B4040050AF232345B3
:0607730082239006D373FF
:10077900BB010689828A83E0225002E722BBFE027E
:09078900E32289828A83E49322B1
:10079200BB010CE58229F582E5833AF583E022501C
:1007A20006E92582F8E622BBFE06E92582F8E22266
:0D07B200E58229F582E5833AF583E4932280
:1007BF00BB010689828A83F0225002F722BBFE0119
:0207CF00F32213
:1007D100EF8DF0A4A8F0CF8CF0A428CE8DF0A42E3C
:0207E100FE22F6
:1007E300BC000BBE0029EF8DF084FFADF022E4CCFA
:1007F300F875F008EF2FFFEE33FEEC33FCEE9DECC3
:10080300984005FCEE9DFE0FD5F0E9E4CEFD22ED08
:10081300F8F5F0EE8420D21CFEADF075F008EF2F52
:10082300FFED33FD4007985006D5F0F222C398FD43
:050833000FD5F0EA22E0
:10083800C5F0F8A3E028F0C5F0F8E582158270024B
:060848001583E038F022E8
:10084E00A3F8E0C5F025F0F0E5821582700215835D
:06085E00E0C838F0E822BA
:10086400BB010A89828A83E0F5F0A3E0225006875F
:10087400F009E71922BBFE07E3F5F009E319228921
:0B088400828A83E493F5F07401932254
:10088F00BB0110E58229F582E5833AF583E0F5F0A7
:10089F00A3E0225009E92582F886F008E622BBFE84
:1008AF000AE92582F8E2F5F008E222E5832AF583CA
:0808BF00E993F5F0A3E993228F
:1008C700BB010789828A83020838500B09C5F027C4
:1008D700F7C5F01937F722BBFE0D09F8E325F0F34A
:1008E700C5F019E338F322F889828A8374019325C6
:0808F700F0C5F0F8E49338228B
:1008FF00BB010A89828A83F0E5F0A3F0225006F744
:0F090F0009A7F01922BBFE06F3E5F009F3192240
:10091E00E88FF0A4CC8BF0A42CFCE98EF0A42CFC78
:10092E008AF0EDA42CFCEA8EF0A4CDA8F08BF0A4F6
:10093E002DCC3825F0FDE98FF0A42CCD35F0FCEB55
:10094E008EF0A4FEA9F0EB8FF0A4CFC5F02ECD391A
:0F095E00FEE43CFCEAA42DCE35F0FDE43CFC2287
:10096D0075F008758200EF2FFFEE33FECD33CDCC41
:10097D0033CCC58233C5829BED9AEC99E5829840C4
:10098D000CF582EE9BFEED9AFDEC99FC0FD5F0D6A1
:10099D00E4CEFBE4CDFAE4CCF9A88222B800C1B9CB
:1009AD000059BA002DEC8BF084CFCECDFCE5F0CB09
:1009BD00F97818EF2FFFEE33FEED33FDEC33FCEB42
:1009CD0033FB10D703994004EB99FB0FD8E5E4F9FD
:1009DD00FA227818EF2FFFEE33FEED33FDEC33FCEA
:1009ED00C933C910D7059BE99A4007EC9BFCE99ADE
:1009FD00F90FD8E0E4C9FAE4CCFB2275F010EF2F23
:100A0D00FFEE33FEED33FDCC33CCC833C810D70722
:100A1D009BEC9AE899400AED9BFDEC9AFCE899F85D
:0E0A2D000FD5F0DAE4CDFBE4CCFAE4C8F922F0
:0D0A3B00CFF4CFCEF4CECDF4CDCCF4CC2250
:100A4800EB9FF5F0EA9E42F0E99D42F0E89C45F004
:010A5800227B
:100A5900E8600FECC313FCED13FDEE13FEEF13FF7B
:030A6900D8F1229F
:100A6C00E8600FEFC333FFEE33FEED33FDEC33FCE8
:030A7C00D8F1228C
:0C0A7F00E6FC08E6FD08E6FE08E6FF22A3
:100A8B00E493FC740193FD740293FE740393FF22B1
:0D0A9B00E6FB08E6F908E6FA08E6CBF822CB
:100AA800E493F8740193F9740293FA740393FB22A4
:0C0AB800ECF608EDF608EEF608EFF6226A
:0C0AC400ECF0A3EDF0A3EEF0A3EFF022A5
:100AD000A8828583F0D083D082120AE7120AE71237
:100AE0000AE7120AE7E473E493A3C583C5F0C5835C
:100AF000C8C582C8F0A3C583C5F0C583C8C582C870
:010B000022D2
:0C0B0100A42582F582E5F03583F58322FF
:100B0D00BB010789828A83020B6C5005E9F8020B41
:100B1D0063BBFE05E9F8020B9589828A83020B9E61
:100B2D00BB010DE58229F582E5833AF583020B6C55
:100B3D005007E92582F8020B63BBFE07E92582F811
:100B4D00020B95E58229F582E5833AF583020B9E2A
:060B5D008A838982E47323
:10110C00E52224F9F582E434C1F583E0052222902E
:10111C00C1F630070390C1F9E475F001120B7502AA
:10112C0007792000E97F2ED2008018EF540F24900D
:10113C00D43440D4FF30040BEF24BFB41A00500356
:10114C002461FFE523600215230526E526700205C0
:10115C002530070E90C1F6E475F001120B75EF0205
:10116C0007BF02436A7403D2078003E4C207F52267
:10117C0090C1F6120B8CE4F523F525F526E52360DA
:10118C00077F2012114F80F57524FFC201C200C2E7
:10119C0002C203C205C206C20812111BFF700D3039
:1011AC0007057F00121160AF26AE2522B4255FC261
:1011BC00D5C20412111BFF24D0B40A00501A75F0CA
:1011CC000A782330D50508B6FF0106C6A426F620FA
:1011DC00D5047002D20380D924CFB41A00EF500486
:1011EC00C2E5D204021361D20180C6D20080C0D203
:1011FC000280BCD2D580BAD20580B47F2012114FA8
:10120C002002077401B5230040F112110CFF1211DA
:10121C004F021189D208D206809512110CFB1211C3
:10122C000CFA12110CF94A4B700679327A147BFFC6
:10123C0020022EE523602A7E008E82758300120721
:10124C009260060EEE652470F0C2D5EBC0E0EAC0E9
:10125C00E0E9C0E0EE1213A8D0E0F9D0E0FAD0E05B
:10126C00FB120779FF60AAEBC0E0EAC0E0E9C0E03E
:10127C0012114FD0E02401F9D0E03400FAD0E0FB99
:10128C00E5240460DCD524D980877BFF7A1379A40C
:10129C00D202809C791080027908C206C2088008AC
:1012AC00D2D5790A8004790AC2D5E524047002F5F6
:1012BC0024E4FAFDFEFF12110CFC7B082001131232
:1012CC00110CFD7B1030000A12110CFE12110CFFD8
:1012DC007B20EC3382D592D55013C3E43000069FAB
:1012EC00FFE49EFEE42001039DFDE49CFCE4CBF8AE
:1012FC00C201EC700CCFCECDCCE824F8F870F380A2
:10130C0017C3EF33FFEE33FEED33FDEC33FCEB3361
:10131C00FB994002FB0FD8E9EB300105F8D0E0C493
:10132C0048B201C0E00AEC4D4E4F78207B0070C2F1
:10133C00EAB5240040BCC0E01213AAD0F0D0E020E3
:10134C000104C4C0E0C4B201C0F0121138D0F0D511
:10135C00F0EB021189120BAA12265312A05811F7A6
:10136C004C11F34212A44F12AC4412AC49120C4370
:08137C0012B2551296461296BA
:101384004512964714525011FB2D11FF2E12222B99
:10139400120323122020143B2A11BB480000121A06
:1013A4003F3F3F00790AA2D5200314300509B91044
:1013B400020404B9080104A2D52006025001042045
:1013C40002689202B523005034C0E07F2030031934
:1013D4007F30A20272067205500F121401C202C2BB
:1013E40006C205C2087F30800F300503E9C0E01251
:1013F400114F300503D0E0F9D0E0B523CC30051708
:101404007F30B9100C12114F7F583004077F788059
:1014140003B9080312114F3002057F2D02114F7FCB
:10142400202008F87F2B2006F322920280CF286E1A
:10143400756C6C2900D20112110C3001F8C20178CC
:101444002330D50108F60211BB2D5043495812111F
:101454000C2403B405004001E490144D9312114090
:0D146400743A121140D2037523040212A045
:10451E00E4FFFE120779600C0FEF70010E09E970CF
:05452E00F20A80EF22FB
:090B6300E6FB08E6FA08E6F922B7
:090B6C00E0FBA3E0FAA3E0F9228A
:100B7500F8E0FBA3A3E0F925F0F0E5821582700209
:070B85001583E0FA38F022AD
:090B8C00EBF0A3EAF0A3E9F0226A
:090B9500E2FB08E2FA08E2F92291
:0C0B9E00E493FB740193FA740293F922B3
:100BAA00D083D082F8E4937012740193700DA3A3DA
:100BBA0093F8740193F5828883E4737402936860EE
:060BCA00EFA3A3A380DFEE
:10436A00EFB40A07740D124375740A309811A899AC
:10437A00B8130CC2983098FDA899C298B811F630B3
:07438A0099FDC299F599228B
:00000001FF
